{
  "abi": [
    {
      "anonymous": false,
      "inputs": [
        {
          "indexed": false,
          "internalType": "address",
          "name": "previousAdmin",
          "type": "address"
        },
        {
          "indexed": false,
          "internalType": "address",
          "name": "newAdmin",
          "type": "address"
        }
      ],
      "name": "AdminChanged",
      "type": "event"
    },
    {
      "anonymous": false,
      "inputs": [
        {
          "indexed": true,
          "internalType": "address",
          "name": "beacon",
          "type": "address"
        }
      ],
      "name": "BeaconUpgraded",
      "type": "event"
    },
    {
      "anonymous": false,
      "inputs": [
        {
          "indexed": true,
          "internalType": "bytes32",
          "name": "role",
          "type": "bytes32"
        },
        {
          "indexed": true,
          "internalType": "bytes32",
          "name": "previousAdminRole",
          "type": "bytes32"
        },
        {
          "indexed": true,
          "internalType": "bytes32",
          "name": "newAdminRole",
          "type": "bytes32"
        }
      ],
      "name": "RoleAdminChanged",
      "type": "event"
    },
    {
      "anonymous": false,
      "inputs": [
        {
          "indexed": true,
          "internalType": "bytes32",
          "name": "role",
          "type": "bytes32"
        },
        {
          "indexed": true,
          "internalType": "address",
          "name": "account",
          "type": "address"
        },
        {
          "indexed": true,
          "internalType": "address",
          "name": "sender",
          "type": "address"
        }
      ],
      "name": "RoleGranted",
      "type": "event"
    },
    {
      "anonymous": false,
      "inputs": [
        {
          "indexed": true,
          "internalType": "bytes32",
          "name": "role",
          "type": "bytes32"
        },
        {
          "indexed": true,
          "internalType": "address",
          "name": "account",
          "type": "address"
        },
        {
          "indexed": true,
          "internalType": "address",
          "name": "sender",
          "type": "address"
        }
      ],
      "name": "RoleRevoked",
      "type": "event"
    },
    {
      "anonymous": false,
      "inputs": [
        {
          "indexed": true,
          "internalType": "address",
          "name": "token",
          "type": "address"
        },
        {
          "indexed": true,
          "internalType": "address",
          "name": "addedBy",
          "type": "address"
        },
        {
          "indexed": false,
          "internalType": "uint256",
          "name": "timestamp",
          "type": "uint256"
        }
      ],
      "name": "TokenAdded",
      "type": "event"
    },
    {
      "anonymous": false,
      "inputs": [
        {
          "indexed": true,
          "internalType": "address",
          "name": "token",
          "type": "address"
        },
        {
          "indexed": true,
          "internalType": "address",
          "name": "addedBy",
          "type": "address"
        },
        {
          "indexed": false,
          "internalType": "uint256",
          "name": "timestamp",
          "type": "uint256"
        }
      ],
      "name": "TokenRemoved",
      "type": "event"
    },
    {
      "anonymous": false,
      "inputs": [
        {
          "indexed": true,
          "internalType": "address",
          "name": "implementation",
          "type": "address"
        }
      ],
      "name": "Upgraded",
      "type": "event"
    },
    {
      "inputs": [],
      "name": "DEFAULT_ADMIN_ROLE",
      "outputs": [
        {
          "internalType": "bytes32",
          "name": "",
          "type": "bytes32"
        }
      ],
      "stateMutability": "view",
      "type": "function"
    },
    {
      "inputs": [],
      "name": "PAUSE_ROLE",
      "outputs": [
        {
          "internalType": "bytes32",
          "name": "",
          "type": "bytes32"
        }
      ],
      "stateMutability": "view",
      "type": "function"
    },
    {
      "inputs": [],
      "name": "TREASURY_MANAGER_ROLE",
      "outputs": [
        {
          "internalType": "bytes32",
          "name": "",
          "type": "bytes32"
        }
      ],
      "stateMutability": "view",
      "type": "function"
    },
    {
      "inputs": [
        {
          "internalType": "address",
          "name": "_token",
          "type": "address"
        }
      ],
      "name": "addSupportedToken",
      "outputs": [],
      "stateMutability": "nonpayable",
      "type": "function"
    },
    {
      "inputs": [
        {
          "internalType": "address",
          "name": "_token",
          "type": "address"
        },
        {
          "internalType": "bool",
          "name": "isSupported",
          "type": "bool"
        }
      ],
      "name": "addSupportedToken",
      "outputs": [],
      "stateMutability": "nonpayable",
      "type": "function"
    },
    {
      "inputs": [
        {
          "internalType": "address",
          "name": "target",
          "type": "address"
        },
        {
          "internalType": "bytes",
          "name": "data",
          "type": "bytes"
        }
      ],
      "name": "adminDelegatecall",
      "outputs": [
        {
          "internalType": "bytes",
          "name": "",
          "type": "bytes"
        }
      ],
      "stateMutability": "payable",
      "type": "function"
    },
    {
      "inputs": [
        {
          "internalType": "uint256",
          "name": "flags",
          "type": "uint256"
        }
      ],
      "name": "adminPause",
      "outputs": [],
      "stateMutability": "nonpayable",
      "type": "function"
    },
    {
      "inputs": [
        {
          "internalType": "uint256",
          "name": "key",
          "type": "uint256"
        },
        {
          "internalType": "uint256",
          "name": "value",
          "type": "uint256"
        }
      ],
      "name": "adminSstore",
      "outputs": [],
      "stateMutability": "nonpayable",
      "type": "function"
    },
    {
      "inputs": [
        {
          "internalType": "uint256",
          "name": "key",
          "type": "uint256"
        },
        {
          "internalType": "uint256",
          "name": "value",
          "type": "uint256"
        },
        {
          "internalType": "uint256",
          "name": "mask",
          "type": "uint256"
        }
      ],
      "name": "adminSstoreWithMask",
      "outputs": [],
      "stateMutability": "nonpayable",
      "type": "function"
    },
    {
      "inputs": [
        {
          "internalType": "bytes32",
          "name": "role",
          "type": "bytes32"
        }
      ],
      "name": "getRoleAdmin",
      "outputs": [
        {
          "internalType": "bytes32",
          "name": "",
          "type": "bytes32"
        }
      ],
      "stateMutability": "view",
      "type": "function"
    },
    {
      "inputs": [
        {
          "internalType": "bytes32",
          "name": "role",
          "type": "bytes32"
        },
        {
          "internalType": "address",
          "name": "account",
          "type": "address"
        }
      ],
      "name": "grantRole",
      "outputs": [],
      "stateMutability": "nonpayable",
      "type": "function"
    },
    {
      "inputs": [
        {
          "internalType": "bytes32",
          "name": "role",
          "type": "bytes32"
        },
        {
          "internalType": "address",
          "name": "account",
          "type": "address"
        }
      ],
      "name": "hasRole",
      "outputs": [
        {
          "internalType": "bool",
          "name": "",
          "type": "bool"
        }
      ],
      "stateMutability": "view",
      "type": "function"
    },
    {
      "inputs": [
        {
          "internalType": "address[]",
          "name": "_supportedTokens",
          "type": "address[]"
        },
        {
          "internalType": "uint256",
          "name": "_flags",
          "type": "uint256"
        }
      ],
      "name": "initialize",
      "outputs": [],
      "stateMutability": "nonpayable",
      "type": "function"
    },
    {
      "inputs": [
        {
          "internalType": "address",
          "name": "",
          "type": "address"
        }
      ],
      "name": "isSupportedToken",
      "outputs": [
        {
          "internalType": "bool",
          "name": "",
          "type": "bool"
        }
      ],
      "stateMutability": "view",
      "type": "function"
    },
    {
      "inputs": [],
      "name": "paused",
      "outputs": [
        {
          "internalType": "uint256",
          "name": "",
          "type": "uint256"
        }
      ],
      "stateMutability": "view",
      "type": "function"
    },
    {
      "inputs": [
        {
          "internalType": "address",
          "name": "_user",
          "type": "address"
        },
        {
          "internalType": "address",
          "name": "_token",
          "type": "address"
        },
        {
          "internalType": "uint256",
          "name": "_amount",
          "type": "uint256"
        }
      ],
      "name": "payRewards",
      "outputs": [],
      "stateMutability": "nonpayable",
      "type": "function"
    },
    {
      "inputs": [
        {
          "internalType": "address",
          "name": "_token",
          "type": "address"
        }
      ],
      "name": "removeSupportedToken",
      "outputs": [],
      "stateMutability": "nonpayable",
      "type": "function"
    },
    {
      "inputs": [
        {
          "internalType": "bytes32",
          "name": "role",
          "type": "bytes32"
        },
        {
          "internalType": "address",
          "name": "account",
          "type": "address"
        }
      ],
      "name": "renounceRole",
      "outputs": [],
      "stateMutability": "nonpayable",
      "type": "function"
    },
    {
      "inputs": [
        {
          "internalType": "bytes32",
          "name": "role",
          "type": "bytes32"
        },
        {
          "internalType": "address",
          "name": "account",
          "type": "address"
        }
      ],
      "name": "revokeRole",
      "outputs": [],
      "stateMutability": "nonpayable",
      "type": "function"
    },
    {
      "inputs": [
        {
          "internalType": "bytes4",
          "name": "interfaceId",
          "type": "bytes4"
        }
      ],
      "name": "supportsInterface",
      "outputs": [
        {
          "internalType": "bool",
          "name": "",
          "type": "bool"
        }
      ],
      "stateMutability": "view",
      "type": "function"
    },
    {
      "inputs": [
        {
          "internalType": "address",
          "name": "newImplementation",
          "type": "address"
        }
      ],
      "name": "upgradeTo",
      "outputs": [],
      "stateMutability": "nonpayable",
      "type": "function"
    },
    {
      "inputs": [
        {
          "internalType": "address",
          "name": "newImplementation",
          "type": "address"
        },
        {
          "internalType": "bytes",
          "name": "data",
          "type": "bytes"
        }
      ],
      "name": "upgradeToAndCall",
      "outputs": [],
      "stateMutability": "payable",
      "type": "function"
    }
  ],
  "bytecode": {
    "object": "0x60a0604052306080523480156200001557600080fd5b50600054610100900460ff16620000335760005460ff16156200003d565b6200003d620000e2565b620000a55760405162461bcd60e51b815260206004820152602e60248201527f496e697469616c697a61626c653a20636f6e747261637420697320616c72656160448201526d191e481a5b9a5d1a585b1a5e995960921b606482015260840160405180910390fd5b600054610100900460ff16158015620000c8576000805461ffff19166101011790555b8015620000db576000805461ff00191690555b5062000106565b6000620000fa306200010060201b62000ddf1760201c565b15905090565b3b151590565b608051611dbd62000137600039600081816105b8015281816105f80152818161068101526106c10152611dbd6000f3fe6080604052600436106101355760003560e01c80636c4624c3116100ab578063b8e9744c1161006f578063b8e9744c14610371578063be831a2e14610391578063d547741f146103b1578063da0c1a88146103d1578063e5d07756146103f1578063ebdf690f1461041157600080fd5b80636c4624c3146102dc5780636d69fcaf146102fc578063763191901461031c57806391d148541461033c578063a217fddf1461035c57600080fd5b806336568abe116100fd57806336568abe1461021f5780633659cfe61461023f578063389ed2671461025f5780634f1ef286146102935780635c975abb146102a657806360b5bb3f146102bc57600080fd5b806301ffc9a71461013a578063240028e81461016f578063248a9ca31461019f5780632692c59f146101dd5780632f2ff15d146101ff575b600080fd5b34801561014657600080fd5b5061015a61015536600461179a565b610433565b60405190151581526020015b60405180910390f35b34801561017b57600080fd5b5061015a61018a3660046117e0565b60fc6020526000908152604090205460ff1681565b3480156101ab57600080fd5b506101cf6101ba3660046117fb565b600090815260c9602052604090206001015490565b604051908152602001610166565b3480156101e957600080fd5b506101fd6101f83660046117fb565b61046a565b005b34801561020b57600080fd5b506101fd61021a366004611814565b610504565b34801561022b57600080fd5b506101fd61023a366004611814565b61052f565b34801561024b57600080fd5b506101fd61025a3660046117e0565b6105ad565b34801561026b57600080fd5b506101cf7f139c2898040ef16910dc9f44dc697df79363da767d8bc92f2e310312b816e46d81565b6101fd6102a1366004611887565b610676565b3480156102b257600080fd5b506101cf60fb5481565b3480156102c857600080fd5b506101fd6102d736600461192d565b61072c565b3480156102e857600080fd5b506101fd6102f73660046119e0565b6108e4565b34801561030857600080fd5b506101fd6103173660046117e0565b6108fc565b34801561032857600080fd5b506101fd6103373660046117e0565b610a36565b34801561034857600080fd5b5061015a610357366004611814565b610b5f565b34801561036857600080fd5b506101cf600081565b61038461037f366004611887565b610b8a565b6040516101669190611a64565b34801561039d57600080fd5b506101fd6103ac366004611a77565b610c50565b3480156103bd57600080fd5b506101fd6103cc366004611814565b610c61565b3480156103dd57600080fd5b506101fd6103ec366004611a99565b610c87565b3480156103fd57600080fd5b506101fd61040c366004611ae3565b610d0e565b34801561041d57600080fd5b506101cf600080516020611d6883398151915281565b60006001600160e01b03198216637965db0b60e01b148061046457506301ffc9a760e01b6001600160e01b03198316145b92915050565b7f139c2898040ef16910dc9f44dc697df79363da767d8bc92f2e310312b816e46d6104958133610de5565b60fb5482811614806104ad57506104ad600033610b5f565b6104fe5760405162461bcd60e51b815260206004820152601e60248201527f4f4e4c595f44454641554c545f41444d494e5f43414e5f554e5041555345000060448201526064015b60405180910390fd5b5060fb55565b600082815260c960205260409020600101546105208133610de5565b61052a8383610e49565b505050565b6001600160a01b038116331461059f5760405162461bcd60e51b815260206004820152602f60248201527f416363657373436f6e74726f6c3a2063616e206f6e6c792072656e6f756e636560448201526e103937b632b9903337b91039b2b63360891b60648201526084016104f5565b6105a98282610ecf565b5050565b306001600160a01b037f00000000000000000000000000000000000000000000000000000000000000001614156105f65760405162461bcd60e51b81526004016104f590611b1a565b7f00000000000000000000000000000000000000000000000000000000000000006001600160a01b0316610628610f36565b6001600160a01b03161461064e5760405162461bcd60e51b81526004016104f590611b66565b61065781610f64565b6040805160008082526020820190925261067391839190610f70565b50565b306001600160a01b037f00000000000000000000000000000000000000000000000000000000000000001614156106bf5760405162461bcd60e51b81526004016104f590611b1a565b7f00000000000000000000000000000000000000000000000000000000000000006001600160a01b03166106f1610f36565b6001600160a01b0316146107175760405162461bcd60e51b81526004016104f590611b66565b61072082610f64565b6105a982826001610f70565b600054610100900460ff166107475760005460ff161561074b565b303b155b6107ae5760405162461bcd60e51b815260206004820152602e60248201527f496e697469616c697a61626c653a20636f6e747261637420697320616c72656160448201526d191e481a5b9a5d1a585b1a5e995960921b60648201526084016104f5565b600054610100900460ff161580156107d0576000805461ffff19166101011790555b60005b83518110156108ac5760006001600160a01b03168482815181106107f9576107f9611bb2565b60200260200101516001600160a01b031614156108505760405162461bcd60e51b8152602060048201526015602482015274494e56414c49445f544f4b454e5f4144445245535360581b60448201526064016104f5565b600160fc600086848151811061086857610868611bb2565b6020908102919091018101516001600160a01b03168252810191909152604001600020805460ff1916911515919091179055806108a481611bde565b9150506107d3565b506108b6826110bb565b6108ce600080516020611d6883398151915233610e49565b801561052a576000805461ff0019169055505050565b60006108f08133610de5565b50825491821816189055565b60018060fb5416600014806109175750610917600033610b5f565b6109585760405162461bcd60e51b815260206004820152601260248201527110d3d395149050d517d254d7d4105554d15160721b60448201526064016104f5565b600080516020611d688339815191526109718133610de5565b6001600160a01b038316600090815260fc602052604090205460ff16156109d15760405162461bcd60e51b8152602060048201526014602482015273544f4b454e5f414c52454144595f45584953545360601b60448201526064016104f5565b6001600160a01b038316600081815260fc602052604090819020805460ff19166001179055513391907f7156d0b8d9ed8d1117b97d76a15a304bad2749fc23251c2c7ed65a069895285090610a299042815260200190565b60405180910390a3505050565b60018060fb541660001480610a515750610a51600033610b5f565b610a925760405162461bcd60e51b815260206004820152601260248201527110d3d395149050d517d254d7d4105554d15160721b60448201526064016104f5565b600080516020611d68833981519152610aab8133610de5565b6001600160a01b038316600090815260fc602052604090205460ff16610b0a5760405162461bcd60e51b81526020600482015260146024820152731513d2d15397d113d154d7d393d517d1561254d560621b60448201526064016104f5565b6001600160a01b038316600081815260fc602052604090819020805460ff19169055513391907feddce3117927831e55f862ee4b16c60ba431908fc8404f5a2d40c2ac163c3b1490610a299042815260200190565b600091825260c9602090815260408084206001600160a01b0393909316845291905290205460ff1690565b60606000610b988133610de5565b6001600160a01b038416610bdd5760405162461bcd60e51b815260206004820152600c60248201526b5a45524f5f4144445245535360a01b60448201526064016104f5565b600080856001600160a01b031685604051610bf89190611bf9565b600060405180830381855af49150503d8060008114610c33576040519150601f19603f3d011682016040523d82523d6000602084013e610c38565b606091505b509150915081610c4757600080fd5b95945050505050565b6000610c5c8133610de5565b509055565b600082815260c96020526040902060010154610c7d8133610de5565b61052a8383610ecf565b6000610c938133610de5565b6001600160a01b038316600090815260fc602052604090205460ff16610cf45760405162461bcd60e51b81526020600482015260166024820152751513d2d15397d254d7d393d517d4d5541413d495115160521b60448201526064016104f5565b610d086001600160a01b0384168584611105565b50505050565b600080516020611d68833981519152610d278133610de5565b6001600160a01b038316600090815260fc602052604090205460ff1615610d875760405162461bcd60e51b8152602060048201526014602482015273544f4b454e5f414c52454144595f45584953545360601b60448201526064016104f5565b6001600160a01b038316600081815260fc6020908152604091829020805460ff191686151517905590514281523392917f7156d0b8d9ed8d1117b97d76a15a304bad2749fc23251c2c7ed65a06989528509101610a29565b3b151590565b610def8282610b5f565b6105a957610e07816001600160a01b03166014611157565b610e12836020611157565b604051602001610e23929190611c15565b60408051601f198184030181529082905262461bcd60e51b82526104f591600401611a64565b610e538282610b5f565b6105a957600082815260c9602090815260408083206001600160a01b03851684529091529020805460ff19166001179055610e8b3390565b6001600160a01b0316816001600160a01b0316837f2f8788117e7eff1d82e926ec794901d17c78024a50270940304540a733656f0d60405160405180910390a45050565b610ed98282610b5f565b156105a957600082815260c9602090815260408083206001600160a01b0385168085529252808320805460ff1916905551339285917ff6391f5c32d9c69d2a47ea670b442974b53935d1edc7fd64eb21e047a839171b9190a45050565b7f360894a13ba1a3210667c828492db98dca3e2076cc3735a920a3ca505d382bbc546001600160a01b031690565b60006105a98133610de5565b6000610f7a610f36565b9050610f85846112fa565b600083511180610f925750815b15610fa357610fa1848461139f565b505b7f4910fdfa16fed3260ed0e7147f7cc6da11a60208b5b9406d12a635614ffd9143805460ff166110b457805460ff191660011781556040516001600160a01b038316602482015261102290869060440160408051601f198184030181529190526020810180516001600160e01b0316631b2ce7f360e11b17905261139f565b50805460ff19168155611033610f36565b6001600160a01b0316826001600160a01b0316146110ab5760405162461bcd60e51b815260206004820152602f60248201527f45524331393637557067726164653a207570677261646520627265616b73206660448201526e75727468657220757067726164657360881b60648201526084016104f5565b6110b485611481565b5050505050565b6110c36114c1565b6110cb6114fa565b6110d6600033610e49565b6111007f139c2898040ef16910dc9f44dc697df79363da767d8bc92f2e310312b816e46d33610e49565b60fb55565b604080516001600160a01b038416602482015260448082018490528251808303909101815260649091019091526020810180516001600160e01b031663a9059cbb60e01b17905261052a908490611529565b60606000611166836002611c8a565b611171906002611ca9565b67ffffffffffffffff81111561118957611189611840565b6040519080825280601f01601f1916602001820160405280156111b3576020820181803683370190505b509050600360fc1b816000815181106111ce576111ce611bb2565b60200101906001600160f81b031916908160001a905350600f60fb1b816001815181106111fd576111fd611bb2565b60200101906001600160f81b031916908160001a9053506000611221846002611c8a565b61122c906001611ca9565b90505b60018111156112a4576f181899199a1a9b1b9c1cb0b131b232b360811b85600f166010811061126057611260611bb2565b1a60f81b82828151811061127657611276611bb2565b60200101906001600160f81b031916908160001a90535060049490941c9361129d81611cc1565b905061122f565b5083156112f35760405162461bcd60e51b815260206004820181905260248201527f537472696e67733a20686578206c656e67746820696e73756666696369656e7460448201526064016104f5565b9392505050565b803b61135e5760405162461bcd60e51b815260206004820152602d60248201527f455243313936373a206e657720696d706c656d656e746174696f6e206973206e60448201526c1bdd08184818dbdb9d1c9858dd609a1b60648201526084016104f5565b7f360894a13ba1a3210667c828492db98dca3e2076cc3735a920a3ca505d382bbc80546001600160a01b0319166001600160a01b0392909216919091179055565b6060823b6113fe5760405162461bcd60e51b815260206004820152602660248201527f416464726573733a2064656c65676174652063616c6c20746f206e6f6e2d636f6044820152651b9d1c9858dd60d21b60648201526084016104f5565b600080846001600160a01b0316846040516114199190611bf9565b600060405180830381855af49150503d8060008114611454576040519150601f19603f3d011682016040523d82523d6000602084013e611459565b606091505b5091509150610c478282604051806060016040528060278152602001611d41602791396115fb565b61148a816112fa565b6040516001600160a01b038216907fbc7cd75a20ee27fd9adebab32041f755214dbc6bffa90cc0225b39da2e5c2d3b90600090a250565b600054610100900460ff166114e85760405162461bcd60e51b81526004016104f590611cd8565b6114f0611634565b6114f8611634565b565b600054610100900460ff166115215760405162461bcd60e51b81526004016104f590611cd8565b6114e8611634565b600061157e826040518060400160405280602081526020017f5361666545524332303a206c6f772d6c6576656c2063616c6c206661696c6564815250856001600160a01b031661165b9092919063ffffffff16565b80519091501561052a578080602001905181019061159c9190611d23565b61052a5760405162461bcd60e51b815260206004820152602a60248201527f5361666545524332303a204552433230206f7065726174696f6e20646964206e6044820152691bdd081cdd58d8d9595960b21b60648201526084016104f5565b6060831561160a5750816112f3565b82511561161a5782518084602001fd5b8160405162461bcd60e51b81526004016104f59190611a64565b600054610100900460ff166114f85760405162461bcd60e51b81526004016104f590611cd8565b606061166a8484600085611672565b949350505050565b6060824710156116d35760405162461bcd60e51b815260206004820152602660248201527f416464726573733a20696e73756666696369656e742062616c616e636520666f6044820152651c8818d85b1b60d21b60648201526084016104f5565b843b6117215760405162461bcd60e51b815260206004820152601d60248201527f416464726573733a2063616c6c20746f206e6f6e2d636f6e747261637400000060448201526064016104f5565b600080866001600160a01b0316858760405161173d9190611bf9565b60006040518083038185875af1925050503d806000811461177a576040519150601f19603f3d011682016040523d82523d6000602084013e61177f565b606091505b509150915061178f8282866115fb565b979650505050505050565b6000602082840312156117ac57600080fd5b81356001600160e01b0319811681146112f357600080fd5b80356001600160a01b03811681146117db57600080fd5b919050565b6000602082840312156117f257600080fd5b6112f3826117c4565b60006020828403121561180d57600080fd5b5035919050565b6000806040838503121561182757600080fd5b82359150611837602084016117c4565b90509250929050565b634e487b7160e01b600052604160045260246000fd5b604051601f8201601f1916810167ffffffffffffffff8111828210171561187f5761187f611840565b604052919050565b6000806040838503121561189a57600080fd5b6118a3836117c4565b915060208084013567ffffffffffffffff808211156118c157600080fd5b818601915086601f8301126118d557600080fd5b8135818111156118e7576118e7611840565b6118f9601f8201601f19168501611856565b9150808252878482850101111561190f57600080fd5b80848401858401376000848284010152508093505050509250929050565b6000806040838503121561194057600080fd5b823567ffffffffffffffff8082111561195857600080fd5b818501915085601f83011261196c57600080fd5b813560208282111561198057611980611840565b8160051b9250611991818401611856565b82815292840181019281810190898511156119ab57600080fd5b948201945b848610156119d0576119c1866117c4565b825294820194908201906119b0565b9997909101359750505050505050565b6000806000606084860312156119f557600080fd5b505081359360208301359350604090920135919050565b60005b83811015611a27578181015183820152602001611a0f565b83811115610d085750506000910152565b60008151808452611a50816020860160208601611a0c565b601f01601f19169290920160200192915050565b6020815260006112f36020830184611a38565b60008060408385031215611a8a57600080fd5b50508035926020909101359150565b600080600060608486031215611aae57600080fd5b611ab7846117c4565b9250611ac5602085016117c4565b9150604084013590509250925092565b801515811461067357600080fd5b60008060408385031215611af657600080fd5b611aff836117c4565b91506020830135611b0f81611ad5565b809150509250929050565b6020808252602c908201527f46756e6374696f6e206d7573742062652063616c6c6564207468726f7567682060408201526b19195b1959d85d1958d85b1b60a21b606082015260800190565b6020808252602c908201527f46756e6374696f6e206d7573742062652063616c6c6564207468726f7567682060408201526b6163746976652070726f787960a01b606082015260800190565b634e487b7160e01b600052603260045260246000fd5b634e487b7160e01b600052601160045260246000fd5b6000600019821415611bf257611bf2611bc8565b5060010190565b60008251611c0b818460208701611a0c565b9190910192915050565b7f416363657373436f6e74726f6c3a206163636f756e7420000000000000000000815260008351611c4d816017850160208801611a0c565b7001034b99036b4b9b9b4b733903937b6329607d1b6017918401918201528351611c7e816028840160208801611a0c565b01602801949350505050565b6000816000190483118215151615611ca457611ca4611bc8565b500290565b60008219821115611cbc57611cbc611bc8565b500190565b600081611cd057611cd0611bc8565b506000190190565b6020808252602b908201527f496e697469616c697a61626c653a20636f6e7472616374206973206e6f74206960408201526a6e697469616c697a696e6760a81b606082015260800190565b600060208284031215611d3557600080fd5b81516112f381611ad556fe416464726573733a206c6f772d6c6576656c2064656c65676174652063616c6c206661696c6564ede9dcdb0ce99dc7cec9c7be9246ad08b37853683ad91569c187b647ddf5e21ca264697066735822122059f747fc64763cd3af1a431d88e4f0cf3a2c59e2d4d776da4fa9afd70bcfbc6f64736f6c634300080a0033",
    "linkReferences": {}
  },
  "methodIdentifiers": {
    "DEFAULT_ADMIN_ROLE()": "a217fddf",
    "PAUSE_ROLE()": "389ed267",
    "TREASURY_MANAGER_ROLE()": "ebdf690f",
    "addSupportedToken(address)": "6d69fcaf",
    "addSupportedToken(address,bool)": "e5d07756",
    "adminDelegatecall(address,bytes)": "b8e9744c",
    "adminPause(uint256)": "2692c59f",
    "adminSstore(uint256,uint256)": "be831a2e",
    "adminSstoreWithMask(uint256,uint256,uint256)": "6c4624c3",
    "getRoleAdmin(bytes32)": "248a9ca3",
    "grantRole(bytes32,address)": "2f2ff15d",
    "hasRole(bytes32,address)": "91d14854",
    "initialize(address[],uint256)": "60b5bb3f",
    "isSupportedToken(address)": "240028e8",
    "paused()": "5c975abb",
    "payRewards(address,address,uint256)": "da0c1a88",
    "removeSupportedToken(address)": "76319190",
    "renounceRole(bytes32,address)": "36568abe",
    "revokeRole(bytes32,address)": "d547741f",
    "supportsInterface(bytes4)": "01ffc9a7",
    "upgradeTo(address)": "3659cfe6",
    "upgradeToAndCall(address,bytes)": "4f1ef286"
  },
  "id": 11
}