{
  "abi": [
    {
      "anonymous": false,
      "inputs": [
        {
          "indexed": false,
          "internalType": "address",
          "name": "previousAdmin",
          "type": "address"
        },
        {
          "indexed": false,
          "internalType": "address",
          "name": "newAdmin",
          "type": "address"
        }
      ],
      "name": "AdminChanged",
      "type": "event"
    },
    {
      "anonymous": false,
      "inputs": [
        {
          "indexed": true,
          "internalType": "address",
          "name": "beacon",
          "type": "address"
        }
      ],
      "name": "BeaconUpgraded",
      "type": "event"
    },
    {
      "anonymous": false,
      "inputs": [
        {
          "indexed": true,
          "internalType": "bytes32",
          "name": "role",
          "type": "bytes32"
        },
        {
          "indexed": true,
          "internalType": "bytes32",
          "name": "previousAdminRole",
          "type": "bytes32"
        },
        {
          "indexed": true,
          "internalType": "bytes32",
          "name": "newAdminRole",
          "type": "bytes32"
        }
      ],
      "name": "RoleAdminChanged",
      "type": "event"
    },
    {
      "anonymous": false,
      "inputs": [
        {
          "indexed": true,
          "internalType": "bytes32",
          "name": "role",
          "type": "bytes32"
        },
        {
          "indexed": true,
          "internalType": "address",
          "name": "account",
          "type": "address"
        },
        {
          "indexed": true,
          "internalType": "address",
          "name": "sender",
          "type": "address"
        }
      ],
      "name": "RoleGranted",
      "type": "event"
    },
    {
      "anonymous": false,
      "inputs": [
        {
          "indexed": true,
          "internalType": "bytes32",
          "name": "role",
          "type": "bytes32"
        },
        {
          "indexed": true,
          "internalType": "address",
          "name": "account",
          "type": "address"
        },
        {
          "indexed": true,
          "internalType": "address",
          "name": "sender",
          "type": "address"
        }
      ],
      "name": "RoleRevoked",
      "type": "event"
    },
    {
      "anonymous": false,
      "inputs": [
        {
          "indexed": true,
          "internalType": "address",
          "name": "token",
          "type": "address"
        },
        {
          "indexed": true,
          "internalType": "address",
          "name": "addedBy",
          "type": "address"
        },
        {
          "indexed": false,
          "internalType": "uint256",
          "name": "timestamp",
          "type": "uint256"
        }
      ],
      "name": "TokenAdded",
      "type": "event"
    },
    {
      "anonymous": false,
      "inputs": [
        {
          "indexed": true,
          "internalType": "address",
          "name": "token",
          "type": "address"
        },
        {
          "indexed": true,
          "internalType": "address",
          "name": "addedBy",
          "type": "address"
        },
        {
          "indexed": false,
          "internalType": "uint256",
          "name": "timestamp",
          "type": "uint256"
        }
      ],
      "name": "TokenRemoved",
      "type": "event"
    },
    {
      "anonymous": false,
      "inputs": [
        {
          "indexed": true,
          "internalType": "address",
          "name": "implementation",
          "type": "address"
        }
      ],
      "name": "Upgraded",
      "type": "event"
    },
    {
      "inputs": [],
      "name": "DEFAULT_ADMIN_ROLE",
      "outputs": [
        {
          "internalType": "bytes32",
          "name": "",
          "type": "bytes32"
        }
      ],
      "stateMutability": "view",
      "type": "function"
    },
    {
      "inputs": [],
      "name": "PAUSE_ROLE",
      "outputs": [
        {
          "internalType": "bytes32",
          "name": "",
          "type": "bytes32"
        }
      ],
      "stateMutability": "view",
      "type": "function"
    },
    {
      "inputs": [],
      "name": "TREASURY_MANAGER_ROLE",
      "outputs": [
        {
          "internalType": "bytes32",
          "name": "",
          "type": "bytes32"
        }
      ],
      "stateMutability": "view",
      "type": "function"
    },
    {
      "inputs": [
        {
          "internalType": "address",
          "name": "_token",
          "type": "address"
        }
      ],
      "name": "addSupportedToken",
      "outputs": [],
      "stateMutability": "nonpayable",
      "type": "function"
    },
    {
      "inputs": [
        {
          "internalType": "address",
          "name": "target",
          "type": "address"
        },
        {
          "internalType": "bytes",
          "name": "data",
          "type": "bytes"
        }
      ],
      "name": "adminDelegatecall",
      "outputs": [
        {
          "internalType": "bytes",
          "name": "",
          "type": "bytes"
        }
      ],
      "stateMutability": "payable",
      "type": "function"
    },
    {
      "inputs": [
        {
          "internalType": "uint256",
          "name": "flags",
          "type": "uint256"
        }
      ],
      "name": "adminPause",
      "outputs": [],
      "stateMutability": "nonpayable",
      "type": "function"
    },
    {
      "inputs": [
        {
          "internalType": "uint256",
          "name": "key",
          "type": "uint256"
        },
        {
          "internalType": "uint256",
          "name": "value",
          "type": "uint256"
        }
      ],
      "name": "adminSstore",
      "outputs": [],
      "stateMutability": "nonpayable",
      "type": "function"
    },
    {
      "inputs": [
        {
          "internalType": "uint256",
          "name": "key",
          "type": "uint256"
        },
        {
          "internalType": "uint256",
          "name": "value",
          "type": "uint256"
        },
        {
          "internalType": "uint256",
          "name": "mask",
          "type": "uint256"
        }
      ],
      "name": "adminSstoreWithMask",
      "outputs": [],
      "stateMutability": "nonpayable",
      "type": "function"
    },
    {
      "inputs": [],
      "name": "dummy",
      "outputs": [
        {
          "internalType": "uint256",
          "name": "",
          "type": "uint256"
        }
      ],
      "stateMutability": "view",
      "type": "function"
    },
    {
      "inputs": [
        {
          "internalType": "bytes32",
          "name": "role",
          "type": "bytes32"
        }
      ],
      "name": "getRoleAdmin",
      "outputs": [
        {
          "internalType": "bytes32",
          "name": "",
          "type": "bytes32"
        }
      ],
      "stateMutability": "view",
      "type": "function"
    },
    {
      "inputs": [
        {
          "internalType": "bytes32",
          "name": "role",
          "type": "bytes32"
        },
        {
          "internalType": "address",
          "name": "account",
          "type": "address"
        }
      ],
      "name": "grantRole",
      "outputs": [],
      "stateMutability": "nonpayable",
      "type": "function"
    },
    {
      "inputs": [
        {
          "internalType": "bytes32",
          "name": "role",
          "type": "bytes32"
        },
        {
          "internalType": "address",
          "name": "account",
          "type": "address"
        }
      ],
      "name": "hasRole",
      "outputs": [
        {
          "internalType": "bool",
          "name": "",
          "type": "bool"
        }
      ],
      "stateMutability": "view",
      "type": "function"
    },
    {
      "inputs": [
        {
          "internalType": "address[]",
          "name": "_supportedTokens",
          "type": "address[]"
        },
        {
          "internalType": "uint256",
          "name": "_flags",
          "type": "uint256"
        }
      ],
      "name": "initialize",
      "outputs": [],
      "stateMutability": "nonpayable",
      "type": "function"
    },
    {
      "inputs": [
        {
          "internalType": "address",
          "name": "",
          "type": "address"
        }
      ],
      "name": "isSupportedToken",
      "outputs": [
        {
          "internalType": "bool",
          "name": "",
          "type": "bool"
        }
      ],
      "stateMutability": "view",
      "type": "function"
    },
    {
      "inputs": [],
      "name": "paused",
      "outputs": [
        {
          "internalType": "uint256",
          "name": "",
          "type": "uint256"
        }
      ],
      "stateMutability": "view",
      "type": "function"
    },
    {
      "inputs": [
        {
          "internalType": "address",
          "name": "_user",
          "type": "address"
        },
        {
          "internalType": "address",
          "name": "_token",
          "type": "address"
        },
        {
          "internalType": "uint256",
          "name": "_amount",
          "type": "uint256"
        }
      ],
      "name": "payRewards",
      "outputs": [],
      "stateMutability": "nonpayable",
      "type": "function"
    },
    {
      "inputs": [
        {
          "internalType": "address",
          "name": "_token",
          "type": "address"
        }
      ],
      "name": "removeSupportedToken",
      "outputs": [],
      "stateMutability": "nonpayable",
      "type": "function"
    },
    {
      "inputs": [
        {
          "internalType": "bytes32",
          "name": "role",
          "type": "bytes32"
        },
        {
          "internalType": "address",
          "name": "account",
          "type": "address"
        }
      ],
      "name": "renounceRole",
      "outputs": [],
      "stateMutability": "nonpayable",
      "type": "function"
    },
    {
      "inputs": [
        {
          "internalType": "bytes32",
          "name": "role",
          "type": "bytes32"
        },
        {
          "internalType": "address",
          "name": "account",
          "type": "address"
        }
      ],
      "name": "revokeRole",
      "outputs": [],
      "stateMutability": "nonpayable",
      "type": "function"
    },
    {
      "inputs": [
        {
          "internalType": "bytes4",
          "name": "interfaceId",
          "type": "bytes4"
        }
      ],
      "name": "supportsInterface",
      "outputs": [
        {
          "internalType": "bool",
          "name": "",
          "type": "bool"
        }
      ],
      "stateMutability": "view",
      "type": "function"
    },
    {
      "inputs": [
        {
          "internalType": "address",
          "name": "newImplementation",
          "type": "address"
        }
      ],
      "name": "upgradeTo",
      "outputs": [],
      "stateMutability": "nonpayable",
      "type": "function"
    },
    {
      "inputs": [
        {
          "internalType": "address",
          "name": "newImplementation",
          "type": "address"
        },
        {
          "internalType": "bytes",
          "name": "data",
          "type": "bytes"
        }
      ],
      "name": "upgradeToAndCall",
      "outputs": [],
      "stateMutability": "payable",
      "type": "function"
    }
  ],
  "bytecode": {
    "object": "0x60a0604052306080523480156200001557600080fd5b50600054610100900460ff16620000335760005460ff16156200003d565b6200003d620000e2565b620000a55760405162461bcd60e51b815260206004820152602e60248201527f496e697469616c697a61626c653a20636f6e747261637420697320616c72656160448201526d191e481a5b9a5d1a585b1a5e995960921b606482015260840160405180910390fd5b600054610100900460ff16158015620000c8576000805461ffff19166101011790555b8015620000db576000805461ff00191690555b5062000106565b6000620000fa306200010060201b62000d021760201c565b15905090565b3b151590565b608051611ca062000137600039600081816105ac015281816105ec0152818161067501526106b50152611ca06000f3fe6080604052600436106101355760003560e01c806360b5bb3f116100ab578063a217fddf1161006f578063a217fddf14610370578063b8e9744c14610385578063be831a2e146103a5578063d547741f146103c5578063da0c1a88146103e5578063ebdf690f1461040557600080fd5b806360b5bb3f146102d05780636c4624c3146102f05780636d69fcaf14610310578063763191901461033057806391d148541461035057600080fd5b806332e43a11116100fd57806332e43a111461021f57806336568abe146102335780633659cfe614610253578063389ed267146102735780634f1ef286146102a75780635c975abb146102ba57600080fd5b806301ffc9a71461013a578063240028e81461016f578063248a9ca31461019f5780632692c59f146101dd5780632f2ff15d146101ff575b600080fd5b34801561014657600080fd5b5061015a6101553660046116bd565b610427565b60405190151581526020015b60405180910390f35b34801561017b57600080fd5b5061015a61018a366004611703565b60fc6020526000908152604090205460ff1681565b3480156101ab57600080fd5b506101cf6101ba36600461171e565b600090815260c9602052604090206001015490565b604051908152602001610166565b3480156101e957600080fd5b506101fd6101f836600461171e565b61045e565b005b34801561020b57600080fd5b506101fd61021a366004611737565b6104f8565b34801561022b57600080fd5b5060016101cf565b34801561023f57600080fd5b506101fd61024e366004611737565b610523565b34801561025f57600080fd5b506101fd61026e366004611703565b6105a1565b34801561027f57600080fd5b506101cf7f139c2898040ef16910dc9f44dc697df79363da767d8bc92f2e310312b816e46d81565b6101fd6102b53660046117aa565b61066a565b3480156102c657600080fd5b506101cf60fb5481565b3480156102dc57600080fd5b506101fd6102eb366004611850565b610720565b3480156102fc57600080fd5b506101fd61030b366004611903565b6108d8565b34801561031c57600080fd5b506101fd61032b366004611703565b6108f0565b34801561033c57600080fd5b506101fd61034b366004611703565b610a2a565b34801561035c57600080fd5b5061015a61036b366004611737565b610b53565b34801561037c57600080fd5b506101cf600081565b6103986103933660046117aa565b610b7e565b6040516101669190611987565b3480156103b157600080fd5b506101fd6103c036600461199a565b610c44565b3480156103d157600080fd5b506101fd6103e0366004611737565b610c55565b3480156103f157600080fd5b506101fd6104003660046119bc565b610c7b565b34801561041157600080fd5b506101cf600080516020611c4b83398151915281565b60006001600160e01b03198216637965db0b60e01b148061045857506301ffc9a760e01b6001600160e01b03198316145b92915050565b7f139c2898040ef16910dc9f44dc697df79363da767d8bc92f2e310312b816e46d6104898133610d08565b60fb5482811614806104a157506104a1600033610b53565b6104f25760405162461bcd60e51b815260206004820152601e60248201527f4f4e4c595f44454641554c545f41444d494e5f43414e5f554e5041555345000060448201526064015b60405180910390fd5b5060fb55565b600082815260c960205260409020600101546105148133610d08565b61051e8383610d6c565b505050565b6001600160a01b03811633146105935760405162461bcd60e51b815260206004820152602f60248201527f416363657373436f6e74726f6c3a2063616e206f6e6c792072656e6f756e636560448201526e103937b632b9903337b91039b2b63360891b60648201526084016104e9565b61059d8282610df2565b5050565b306001600160a01b037f00000000000000000000000000000000000000000000000000000000000000001614156105ea5760405162461bcd60e51b81526004016104e9906119f8565b7f00000000000000000000000000000000000000000000000000000000000000006001600160a01b031661061c610e59565b6001600160a01b0316146106425760405162461bcd60e51b81526004016104e990611a44565b61064b81610e87565b6040805160008082526020820190925261066791839190610e93565b50565b306001600160a01b037f00000000000000000000000000000000000000000000000000000000000000001614156106b35760405162461bcd60e51b81526004016104e9906119f8565b7f00000000000000000000000000000000000000000000000000000000000000006001600160a01b03166106e5610e59565b6001600160a01b03161461070b5760405162461bcd60e51b81526004016104e990611a44565b61071482610e87565b61059d82826001610e93565b600054610100900460ff1661073b5760005460ff161561073f565b303b155b6107a25760405162461bcd60e51b815260206004820152602e60248201527f496e697469616c697a61626c653a20636f6e747261637420697320616c72656160448201526d191e481a5b9a5d1a585b1a5e995960921b60648201526084016104e9565b600054610100900460ff161580156107c4576000805461ffff19166101011790555b60005b83518110156108a05760006001600160a01b03168482815181106107ed576107ed611a90565b60200260200101516001600160a01b031614156108445760405162461bcd60e51b8152602060048201526015602482015274494e56414c49445f544f4b454e5f4144445245535360581b60448201526064016104e9565b600160fc600086848151811061085c5761085c611a90565b6020908102919091018101516001600160a01b03168252810191909152604001600020805460ff19169115159190911790558061089881611abc565b9150506107c7565b506108aa82610fde565b6108c2600080516020611c4b83398151915233610d6c565b801561051e576000805461ff0019169055505050565b60006108e48133610d08565b50825491821816189055565b60018060fb54166000148061090b575061090b600033610b53565b61094c5760405162461bcd60e51b815260206004820152601260248201527110d3d395149050d517d254d7d4105554d15160721b60448201526064016104e9565b600080516020611c4b8339815191526109658133610d08565b6001600160a01b038316600090815260fc602052604090205460ff16156109c55760405162461bcd60e51b8152602060048201526014602482015273544f4b454e5f414c52454144595f45584953545360601b60448201526064016104e9565b6001600160a01b038316600081815260fc602052604090819020805460ff19166001179055513391907f7156d0b8d9ed8d1117b97d76a15a304bad2749fc23251c2c7ed65a069895285090610a1d9042815260200190565b60405180910390a3505050565b60018060fb541660001480610a455750610a45600033610b53565b610a865760405162461bcd60e51b815260206004820152601260248201527110d3d395149050d517d254d7d4105554d15160721b60448201526064016104e9565b600080516020611c4b833981519152610a9f8133610d08565b6001600160a01b038316600090815260fc602052604090205460ff16610afe5760405162461bcd60e51b81526020600482015260146024820152731513d2d15397d113d154d7d393d517d1561254d560621b60448201526064016104e9565b6001600160a01b038316600081815260fc602052604090819020805460ff19169055513391907feddce3117927831e55f862ee4b16c60ba431908fc8404f5a2d40c2ac163c3b1490610a1d9042815260200190565b600091825260c9602090815260408084206001600160a01b0393909316845291905290205460ff1690565b60606000610b8c8133610d08565b6001600160a01b038416610bd15760405162461bcd60e51b815260206004820152600c60248201526b5a45524f5f4144445245535360a01b60448201526064016104e9565b600080856001600160a01b031685604051610bec9190611ad7565b600060405180830381855af49150503d8060008114610c27576040519150601f19603f3d011682016040523d82523d6000602084013e610c2c565b606091505b509150915081610c3b57600080fd5b95945050505050565b6000610c508133610d08565b509055565b600082815260c96020526040902060010154610c718133610d08565b61051e8383610df2565b6000610c878133610d08565b6001600160a01b038316600090815260fc602052604090205460ff16610ce85760405162461bcd60e51b81526020600482015260166024820152751513d2d15397d254d7d393d517d4d5541413d495115160521b60448201526064016104e9565b610cfc6001600160a01b0384168584611028565b50505050565b3b151590565b610d128282610b53565b61059d57610d2a816001600160a01b0316601461107a565b610d3583602061107a565b604051602001610d46929190611af3565b60408051601f198184030181529082905262461bcd60e51b82526104e991600401611987565b610d768282610b53565b61059d57600082815260c9602090815260408083206001600160a01b03851684529091529020805460ff19166001179055610dae3390565b6001600160a01b0316816001600160a01b0316837f2f8788117e7eff1d82e926ec794901d17c78024a50270940304540a733656f0d60405160405180910390a45050565b610dfc8282610b53565b1561059d57600082815260c9602090815260408083206001600160a01b0385168085529252808320805460ff1916905551339285917ff6391f5c32d9c69d2a47ea670b442974b53935d1edc7fd64eb21e047a839171b9190a45050565b7f360894a13ba1a3210667c828492db98dca3e2076cc3735a920a3ca505d382bbc546001600160a01b031690565b600061059d8133610d08565b6000610e9d610e59565b9050610ea88461121d565b600083511180610eb55750815b15610ec657610ec484846112c2565b505b7f4910fdfa16fed3260ed0e7147f7cc6da11a60208b5b9406d12a635614ffd9143805460ff16610fd757805460ff191660011781556040516001600160a01b0383166024820152610f4590869060440160408051601f198184030181529190526020810180516001600160e01b0316631b2ce7f360e11b1790526112c2565b50805460ff19168155610f56610e59565b6001600160a01b0316826001600160a01b031614610fce5760405162461bcd60e51b815260206004820152602f60248201527f45524331393637557067726164653a207570677261646520627265616b73206660448201526e75727468657220757067726164657360881b60648201526084016104e9565b610fd7856113a4565b5050505050565b610fe66113e4565b610fee61141d565b610ff9600033610d6c565b6110237f139c2898040ef16910dc9f44dc697df79363da767d8bc92f2e310312b816e46d33610d6c565b60fb55565b604080516001600160a01b038416602482015260448082018490528251808303909101815260649091019091526020810180516001600160e01b031663a9059cbb60e01b17905261051e90849061144c565b60606000611089836002611b68565b611094906002611b87565b67ffffffffffffffff8111156110ac576110ac611763565b6040519080825280601f01601f1916602001820160405280156110d6576020820181803683370190505b509050600360fc1b816000815181106110f1576110f1611a90565b60200101906001600160f81b031916908160001a905350600f60fb1b8160018151811061112057611120611a90565b60200101906001600160f81b031916908160001a9053506000611144846002611b68565b61114f906001611b87565b90505b60018111156111c7576f181899199a1a9b1b9c1cb0b131b232b360811b85600f166010811061118357611183611a90565b1a60f81b82828151811061119957611199611a90565b60200101906001600160f81b031916908160001a90535060049490941c936111c081611b9f565b9050611152565b5083156112165760405162461bcd60e51b815260206004820181905260248201527f537472696e67733a20686578206c656e67746820696e73756666696369656e7460448201526064016104e9565b9392505050565b803b6112815760405162461bcd60e51b815260206004820152602d60248201527f455243313936373a206e657720696d706c656d656e746174696f6e206973206e60448201526c1bdd08184818dbdb9d1c9858dd609a1b60648201526084016104e9565b7f360894a13ba1a3210667c828492db98dca3e2076cc3735a920a3ca505d382bbc80546001600160a01b0319166001600160a01b0392909216919091179055565b6060823b6113215760405162461bcd60e51b815260206004820152602660248201527f416464726573733a2064656c65676174652063616c6c20746f206e6f6e2d636f6044820152651b9d1c9858dd60d21b60648201526084016104e9565b600080846001600160a01b03168460405161133c9190611ad7565b600060405180830381855af49150503d8060008114611377576040519150601f19603f3d011682016040523d82523d6000602084013e61137c565b606091505b5091509150610c3b8282604051806060016040528060278152602001611c246027913961151e565b6113ad8161121d565b6040516001600160a01b038216907fbc7cd75a20ee27fd9adebab32041f755214dbc6bffa90cc0225b39da2e5c2d3b90600090a250565b600054610100900460ff1661140b5760405162461bcd60e51b81526004016104e990611bb6565b611413611557565b61141b611557565b565b600054610100900460ff166114445760405162461bcd60e51b81526004016104e990611bb6565b61140b611557565b60006114a1826040518060400160405280602081526020017f5361666545524332303a206c6f772d6c6576656c2063616c6c206661696c6564815250856001600160a01b031661157e9092919063ffffffff16565b80519091501561051e57808060200190518101906114bf9190611c01565b61051e5760405162461bcd60e51b815260206004820152602a60248201527f5361666545524332303a204552433230206f7065726174696f6e20646964206e6044820152691bdd081cdd58d8d9595960b21b60648201526084016104e9565b6060831561152d575081611216565b82511561153d5782518084602001fd5b8160405162461bcd60e51b81526004016104e99190611987565b600054610100900460ff1661141b5760405162461bcd60e51b81526004016104e990611bb6565b606061158d8484600085611595565b949350505050565b6060824710156115f65760405162461bcd60e51b815260206004820152602660248201527f416464726573733a20696e73756666696369656e742062616c616e636520666f6044820152651c8818d85b1b60d21b60648201526084016104e9565b843b6116445760405162461bcd60e51b815260206004820152601d60248201527f416464726573733a2063616c6c20746f206e6f6e2d636f6e747261637400000060448201526064016104e9565b600080866001600160a01b031685876040516116609190611ad7565b60006040518083038185875af1925050503d806000811461169d576040519150601f19603f3d011682016040523d82523d6000602084013e6116a2565b606091505b50915091506116b282828661151e565b979650505050505050565b6000602082840312156116cf57600080fd5b81356001600160e01b03198116811461121657600080fd5b80356001600160a01b03811681146116fe57600080fd5b919050565b60006020828403121561171557600080fd5b611216826116e7565b60006020828403121561173057600080fd5b5035919050565b6000806040838503121561174a57600080fd5b8235915061175a602084016116e7565b90509250929050565b634e487b7160e01b600052604160045260246000fd5b604051601f8201601f1916810167ffffffffffffffff811182821017156117a2576117a2611763565b604052919050565b600080604083850312156117bd57600080fd5b6117c6836116e7565b915060208084013567ffffffffffffffff808211156117e457600080fd5b818601915086601f8301126117f857600080fd5b81358181111561180a5761180a611763565b61181c601f8201601f19168501611779565b9150808252878482850101111561183257600080fd5b80848401858401376000848284010152508093505050509250929050565b6000806040838503121561186357600080fd5b823567ffffffffffffffff8082111561187b57600080fd5b818501915085601f83011261188f57600080fd5b81356020828211156118a3576118a3611763565b8160051b92506118b4818401611779565b82815292840181019281810190898511156118ce57600080fd5b948201945b848610156118f3576118e4866116e7565b825294820194908201906118d3565b9997909101359750505050505050565b60008060006060848603121561191857600080fd5b505081359360208301359350604090920135919050565b60005b8381101561194a578181015183820152602001611932565b83811115610cfc5750506000910152565b6000815180845261197381602086016020860161192f565b601f01601f19169290920160200192915050565b602081526000611216602083018461195b565b600080604083850312156119ad57600080fd5b50508035926020909101359150565b6000806000606084860312156119d157600080fd5b6119da846116e7565b92506119e8602085016116e7565b9150604084013590509250925092565b6020808252602c908201527f46756e6374696f6e206d7573742062652063616c6c6564207468726f7567682060408201526b19195b1959d85d1958d85b1b60a21b606082015260800190565b6020808252602c908201527f46756e6374696f6e206d7573742062652063616c6c6564207468726f7567682060408201526b6163746976652070726f787960a01b606082015260800190565b634e487b7160e01b600052603260045260246000fd5b634e487b7160e01b600052601160045260246000fd5b6000600019821415611ad057611ad0611aa6565b5060010190565b60008251611ae981846020870161192f565b9190910192915050565b7f416363657373436f6e74726f6c3a206163636f756e7420000000000000000000815260008351611b2b81601785016020880161192f565b7001034b99036b4b9b9b4b733903937b6329607d1b6017918401918201528351611b5c81602884016020880161192f565b01602801949350505050565b6000816000190483118215151615611b8257611b82611aa6565b500290565b60008219821115611b9a57611b9a611aa6565b500190565b600081611bae57611bae611aa6565b506000190190565b6020808252602b908201527f496e697469616c697a61626c653a20636f6e7472616374206973206e6f74206960408201526a6e697469616c697a696e6760a81b606082015260800190565b600060208284031215611c1357600080fd5b8151801515811461121657600080fdfe416464726573733a206c6f772d6c6576656c2064656c65676174652063616c6c206661696c6564ede9dcdb0ce99dc7cec9c7be9246ad08b37853683ad91569c187b647ddf5e21ca2646970667358221220757f71420fdce5d4aa536cee2ad7972b7b8ef39229319fd456282ae7382c8ad864736f6c634300080a0033",
    "linkReferences": {}
  },
  "methodIdentifiers": {
    "DEFAULT_ADMIN_ROLE()": "a217fddf",
    "PAUSE_ROLE()": "389ed267",
    "TREASURY_MANAGER_ROLE()": "ebdf690f",
    "addSupportedToken(address)": "6d69fcaf",
    "adminDelegatecall(address,bytes)": "b8e9744c",
    "adminPause(uint256)": "2692c59f",
    "adminSstore(uint256,uint256)": "be831a2e",
    "adminSstoreWithMask(uint256,uint256,uint256)": "6c4624c3",
    "dummy()": "32e43a11",
    "getRoleAdmin(bytes32)": "248a9ca3",
    "grantRole(bytes32,address)": "2f2ff15d",
    "hasRole(bytes32,address)": "91d14854",
    "initialize(address[],uint256)": "60b5bb3f",
    "isSupportedToken(address)": "240028e8",
    "paused()": "5c975abb",
    "payRewards(address,address,uint256)": "da0c1a88",
    "removeSupportedToken(address)": "76319190",
    "renounceRole(bytes32,address)": "36568abe",
    "revokeRole(bytes32,address)": "d547741f",
    "supportsInterface(bytes4)": "01ffc9a7",
    "upgradeTo(address)": "3659cfe6",
    "upgradeToAndCall(address,bytes)": "4f1ef286"
  },
  "id": 14
}