{
  "abi": [
    {
      "inputs": [],
      "stateMutability": "nonpayable",
      "type": "constructor"
    },
    {
      "anonymous": false,
      "inputs": [
        {
          "indexed": false,
          "internalType": "address",
          "name": "previousAdmin",
          "type": "address"
        },
        {
          "indexed": false,
          "internalType": "address",
          "name": "newAdmin",
          "type": "address"
        }
      ],
      "name": "AdminChanged",
      "type": "event"
    },
    {
      "anonymous": false,
      "inputs": [
        {
          "indexed": true,
          "internalType": "address",
          "name": "beacon",
          "type": "address"
        }
      ],
      "name": "BeaconUpgraded",
      "type": "event"
    },
    {
      "anonymous": false,
      "inputs": [
        {
          "indexed": false,
          "internalType": "uint8",
          "name": "version",
          "type": "uint8"
        }
      ],
      "name": "Initialized",
      "type": "event"
    },
    {
      "anonymous": false,
      "inputs": [
        {
          "indexed": true,
          "internalType": "uint256",
          "name": "streamId",
          "type": "uint256"
        },
        {
          "indexed": true,
          "internalType": "address",
          "name": "user",
          "type": "address"
        },
        {
          "indexed": false,
          "internalType": "uint256",
          "name": "amount",
          "type": "uint256"
        }
      ],
      "name": "Pending",
      "type": "event"
    },
    {
      "anonymous": false,
      "inputs": [
        {
          "indexed": true,
          "internalType": "uint256",
          "name": "streamId",
          "type": "uint256"
        },
        {
          "indexed": true,
          "internalType": "address",
          "name": "user",
          "type": "address"
        },
        {
          "indexed": false,
          "internalType": "uint256",
          "name": "amount",
          "type": "uint256"
        }
      ],
      "name": "Released",
      "type": "event"
    },
    {
      "anonymous": false,
      "inputs": [
        {
          "indexed": true,
          "internalType": "bytes32",
          "name": "role",
          "type": "bytes32"
        },
        {
          "indexed": true,
          "internalType": "bytes32",
          "name": "previousAdminRole",
          "type": "bytes32"
        },
        {
          "indexed": true,
          "internalType": "bytes32",
          "name": "newAdminRole",
          "type": "bytes32"
        }
      ],
      "name": "RoleAdminChanged",
      "type": "event"
    },
    {
      "anonymous": false,
      "inputs": [
        {
          "indexed": true,
          "internalType": "bytes32",
          "name": "role",
          "type": "bytes32"
        },
        {
          "indexed": true,
          "internalType": "address",
          "name": "account",
          "type": "address"
        },
        {
          "indexed": true,
          "internalType": "address",
          "name": "sender",
          "type": "address"
        }
      ],
      "name": "RoleGranted",
      "type": "event"
    },
    {
      "anonymous": false,
      "inputs": [
        {
          "indexed": true,
          "internalType": "bytes32",
          "name": "role",
          "type": "bytes32"
        },
        {
          "indexed": true,
          "internalType": "address",
          "name": "account",
          "type": "address"
        },
        {
          "indexed": true,
          "internalType": "address",
          "name": "sender",
          "type": "address"
        }
      ],
      "name": "RoleRevoked",
      "type": "event"
    },
    {
      "anonymous": false,
      "inputs": [
        {
          "indexed": true,
          "internalType": "address",
          "name": "user",
          "type": "address"
        },
        {
          "indexed": false,
          "internalType": "uint256",
          "name": "amount",
          "type": "uint256"
        },
        {
          "indexed": false,
          "internalType": "uint256",
          "name": "shares",
          "type": "uint256"
        }
      ],
      "name": "Staked",
      "type": "event"
    },
    {
      "anonymous": false,
      "inputs": [
        {
          "indexed": true,
          "internalType": "uint256",
          "name": "streamId",
          "type": "uint256"
        },
        {
          "indexed": true,
          "internalType": "address",
          "name": "owner",
          "type": "address"
        },
        {
          "indexed": true,
          "internalType": "address",
          "name": "token",
          "type": "address"
        },
        {
          "indexed": false,
          "internalType": "uint256",
          "name": "tokenAmount",
          "type": "uint256"
        },
        {
          "indexed": false,
          "internalType": "uint256",
          "name": "auroraAmount",
          "type": "uint256"
        }
      ],
      "name": "StreamCreated",
      "type": "event"
    },
    {
      "anonymous": false,
      "inputs": [
        {
          "indexed": true,
          "internalType": "uint256",
          "name": "streamId",
          "type": "uint256"
        },
        {
          "indexed": true,
          "internalType": "address",
          "name": "owner",
          "type": "address"
        },
        {
          "indexed": false,
          "internalType": "uint256",
          "name": "amount",
          "type": "uint256"
        }
      ],
      "name": "StreamOwnerRewardReleased",
      "type": "event"
    },
    {
      "anonymous": false,
      "inputs": [
        {
          "indexed": true,
          "internalType": "uint256",
          "name": "streamId",
          "type": "uint256"
        },
        {
          "indexed": true,
          "internalType": "address",
          "name": "owner",
          "type": "address"
        },
        {
          "indexed": true,
          "internalType": "address",
          "name": "token",
          "type": "address"
        }
      ],
      "name": "StreamProposalCancelled",
      "type": "event"
    },
    {
      "anonymous": false,
      "inputs": [
        {
          "indexed": true,
          "internalType": "uint256",
          "name": "streamId",
          "type": "uint256"
        },
        {
          "indexed": true,
          "internalType": "address",
          "name": "owner",
          "type": "address"
        },
        {
          "indexed": true,
          "internalType": "address",
          "name": "token",
          "type": "address"
        },
        {
          "indexed": false,
          "internalType": "uint256",
          "name": "maxDepositAmount",
          "type": "uint256"
        },
        {
          "indexed": false,
          "internalType": "uint256",
          "name": "auroraDepositAmount",
          "type": "uint256"
        }
      ],
      "name": "StreamProposed",
      "type": "event"
    },
    {
      "anonymous": false,
      "inputs": [
        {
          "indexed": true,
          "internalType": "uint256",
          "name": "streamId",
          "type": "uint256"
        },
        {
          "indexed": true,
          "internalType": "address",
          "name": "owner",
          "type": "address"
        },
        {
          "indexed": true,
          "internalType": "address",
          "name": "token",
          "type": "address"
        }
      ],
      "name": "StreamRemoved",
      "type": "event"
    },
    {
      "anonymous": false,
      "inputs": [
        {
          "indexed": true,
          "internalType": "address",
          "name": "user",
          "type": "address"
        },
        {
          "indexed": false,
          "internalType": "uint256",
          "name": "amount",
          "type": "uint256"
        }
      ],
      "name": "Unstaked",
      "type": "event"
    },
    {
      "anonymous": false,
      "inputs": [
        {
          "indexed": true,
          "internalType": "address",
          "name": "implementation",
          "type": "address"
        }
      ],
      "name": "Upgraded",
      "type": "event"
    },
    {
      "inputs": [],
      "name": "AIRDROP_ROLE",
      "outputs": [
        {
          "internalType": "bytes32",
          "name": "",
          "type": "bytes32"
        }
      ],
      "stateMutability": "view",
      "type": "function"
    },
    {
      "inputs": [],
      "name": "CLAIM_ROLE",
      "outputs": [
        {
          "internalType": "bytes32",
          "name": "",
          "type": "bytes32"
        }
      ],
      "stateMutability": "view",
      "type": "function"
    },
    {
      "inputs": [],
      "name": "DEFAULT_ADMIN_ROLE",
      "outputs": [
        {
          "internalType": "bytes32",
          "name": "",
          "type": "bytes32"
        }
      ],
      "stateMutability": "view",
      "type": "function"
    },
    {
      "inputs": [],
      "name": "FOUR_YEARS",
      "outputs": [
        {
          "internalType": "uint256",
          "name": "",
          "type": "uint256"
        }
      ],
      "stateMutability": "view",
      "type": "function"
    },
    {
      "inputs": [],
      "name": "ONE_MONTH",
      "outputs": [
        {
          "internalType": "uint256",
          "name": "",
          "type": "uint256"
        }
      ],
      "stateMutability": "view",
      "type": "function"
    },
    {
      "inputs": [],
      "name": "PAUSE_ROLE",
      "outputs": [
        {
          "internalType": "bytes32",
          "name": "",
          "type": "bytes32"
        }
      ],
      "stateMutability": "view",
      "type": "function"
    },
    {
      "inputs": [],
      "name": "STREAM_MANAGER_ROLE",
      "outputs": [
        {
          "internalType": "bytes32",
          "name": "",
          "type": "bytes32"
        }
      ],
      "stateMutability": "view",
      "type": "function"
    },
    {
      "inputs": [
        {
          "internalType": "address",
          "name": "target",
          "type": "address"
        },
        {
          "internalType": "bytes",
          "name": "data",
          "type": "bytes"
        }
      ],
      "name": "adminDelegatecall",
      "outputs": [
        {
          "internalType": "bytes",
          "name": "",
          "type": "bytes"
        }
      ],
      "stateMutability": "payable",
      "type": "function"
    },
    {
      "inputs": [
        {
          "internalType": "uint256",
          "name": "flags",
          "type": "uint256"
        }
      ],
      "name": "adminPause",
      "outputs": [],
      "stateMutability": "nonpayable",
      "type": "function"
    },
    {
      "inputs": [
        {
          "internalType": "uint256",
          "name": "key",
          "type": "uint256"
        },
        {
          "internalType": "uint256",
          "name": "value",
          "type": "uint256"
        }
      ],
      "name": "adminSstore",
      "outputs": [],
      "stateMutability": "nonpayable",
      "type": "function"
    },
    {
      "inputs": [
        {
          "internalType": "uint256",
          "name": "key",
          "type": "uint256"
        },
        {
          "internalType": "uint256",
          "name": "value",
          "type": "uint256"
        },
        {
          "internalType": "uint256",
          "name": "mask",
          "type": "uint256"
        }
      ],
      "name": "adminSstoreWithMask",
      "outputs": [],
      "stateMutability": "nonpayable",
      "type": "function"
    },
    {
      "inputs": [],
      "name": "auroraToken",
      "outputs": [
        {
          "internalType": "address",
          "name": "",
          "type": "address"
        }
      ],
      "stateMutability": "view",
      "type": "function"
    },
    {
      "inputs": [
        {
          "internalType": "address",
          "name": "account",
          "type": "address"
        },
        {
          "internalType": "uint256[]",
          "name": "streamIds",
          "type": "uint256[]"
        }
      ],
      "name": "batchClaimOnBehalfOfAnotherUser",
      "outputs": [],
      "stateMutability": "nonpayable",
      "type": "function"
    },
    {
      "inputs": [
        {
          "internalType": "address[]",
          "name": "accounts",
          "type": "address[]"
        },
        {
          "internalType": "uint256[]",
          "name": "streamIds",
          "type": "uint256[]"
        }
      ],
      "name": "batchClaimOnBehalfOfOtherUsers",
      "outputs": [],
      "stateMutability": "nonpayable",
      "type": "function"
    },
    {
      "inputs": [
        {
          "internalType": "uint256[]",
          "name": "streamIds",
          "type": "uint256[]"
        }
      ],
      "name": "batchMoveRewardsToPending",
      "outputs": [],
      "stateMutability": "nonpayable",
      "type": "function"
    },
    {
      "inputs": [
        {
          "internalType": "uint256[]",
          "name": "streamIds",
          "type": "uint256[]"
        }
      ],
      "name": "batchWithdraw",
      "outputs": [],
      "stateMutability": "nonpayable",
      "type": "function"
    },
    {
      "inputs": [
        {
          "internalType": "uint256",
          "name": "streamId",
          "type": "uint256"
        }
      ],
      "name": "cancelStreamProposal",
      "outputs": [],
      "stateMutability": "nonpayable",
      "type": "function"
    },
    {
      "inputs": [
        {
          "internalType": "address",
          "name": "account",
          "type": "address"
        }
      ],
      "name": "claimAllOnBehalfOfAnotherUser",
      "outputs": [],
      "stateMutability": "nonpayable",
      "type": "function"
    },
    {
      "inputs": [
        {
          "internalType": "address[]",
          "name": "accounts",
          "type": "address[]"
        }
      ],
      "name": "claimAllOnBehalfOfOtherUsers",
      "outputs": [],
      "stateMutability": "nonpayable",
      "type": "function"
    },
    {
      "inputs": [
        {
          "internalType": "address",
          "name": "account",
          "type": "address"
        },
        {
          "internalType": "uint256",
          "name": "streamId",
          "type": "uint256"
        }
      ],
      "name": "claimOnBehalfOfAnotherUser",
      "outputs": [],
      "stateMutability": "nonpayable",
      "type": "function"
    },
    {
      "inputs": [
        {
          "internalType": "uint256",
          "name": "streamId",
          "type": "uint256"
        },
        {
          "internalType": "uint256",
          "name": "rewardTokenAmount",
          "type": "uint256"
        }
      ],
      "name": "createStream",
      "outputs": [],
      "stateMutability": "nonpayable",
      "type": "function"
    },
    {
      "inputs": [
        {
          "internalType": "uint256",
          "name": "streamId",
          "type": "uint256"
        },
        {
          "internalType": "address",
          "name": "account",
          "type": "address"
        }
      ],
      "name": "getAmountOfShares",
      "outputs": [
        {
          "internalType": "uint256",
          "name": "",
          "type": "uint256"
        }
      ],
      "stateMutability": "view",
      "type": "function"
    },
    {
      "inputs": [
        {
          "internalType": "uint256",
          "name": "streamId",
          "type": "uint256"
        }
      ],
      "name": "getLatestRewardPerShare",
      "outputs": [
        {
          "internalType": "uint256",
          "name": "",
          "type": "uint256"
        }
      ],
      "stateMutability": "view",
      "type": "function"
    },
    {
      "inputs": [
        {
          "internalType": "uint256",
          "name": "streamId",
          "type": "uint256"
        },
        {
          "internalType": "address",
          "name": "account",
          "type": "address"
        }
      ],
      "name": "getPending",
      "outputs": [
        {
          "internalType": "uint256",
          "name": "",
          "type": "uint256"
        }
      ],
      "stateMutability": "view",
      "type": "function"
    },
    {
      "inputs": [
        {
          "internalType": "uint256",
          "name": "streamId",
          "type": "uint256"
        },
        {
          "internalType": "address",
          "name": "account",
          "type": "address"
        }
      ],
      "name": "getReleaseTime",
      "outputs": [
        {
          "internalType": "uint256",
          "name": "",
          "type": "uint256"
        }
      ],
      "stateMutability": "view",
      "type": "function"
    },
    {
      "inputs": [
        {
          "internalType": "uint256",
          "name": "streamId",
          "type": "uint256"
        }
      ],
      "name": "getRewardPerShare",
      "outputs": [
        {
          "internalType": "uint256",
          "name": "",
          "type": "uint256"
        }
      ],
      "stateMutability": "view",
      "type": "function"
    },
    {
      "inputs": [
        {
          "internalType": "uint256",
          "name": "streamId",
          "type": "uint256"
        },
        {
          "internalType": "address",
          "name": "account",
          "type": "address"
        }
      ],
      "name": "getRewardPerShareForUser",
      "outputs": [
        {
          "internalType": "uint256",
          "name": "",
          "type": "uint256"
        }
      ],
      "stateMutability": "view",
      "type": "function"
    },
    {
      "inputs": [
        {
          "internalType": "uint256",
          "name": "streamId",
          "type": "uint256"
        },
        {
          "internalType": "uint256",
          "name": "lastUpdate",
          "type": "uint256"
        }
      ],
      "name": "getRewardsAmount",
      "outputs": [
        {
          "internalType": "uint256",
          "name": "",
          "type": "uint256"
        }
      ],
      "stateMutability": "view",
      "type": "function"
    },
    {
      "inputs": [
        {
          "internalType": "bytes32",
          "name": "role",
          "type": "bytes32"
        }
      ],
      "name": "getRoleAdmin",
      "outputs": [
        {
          "internalType": "bytes32",
          "name": "",
          "type": "bytes32"
        }
      ],
      "stateMutability": "view",
      "type": "function"
    },
    {
      "inputs": [
        {
          "internalType": "uint256",
          "name": "streamId",
          "type": "uint256"
        }
      ],
      "name": "getStream",
      "outputs": [
        {
          "internalType": "address",
          "name": "streamOwner",
          "type": "address"
        },
        {
          "internalType": "address",
          "name": "rewardToken",
          "type": "address"
        },
        {
          "internalType": "uint256",
          "name": "auroraDepositAmount",
          "type": "uint256"
        },
        {
          "internalType": "uint256",
          "name": "auroraClaimedAmount",
          "type": "uint256"
        },
        {
          "internalType": "uint256",
          "name": "rewardDepositAmount",
          "type": "uint256"
        },
        {
          "internalType": "uint256",
          "name": "rewardClaimedAmount",
          "type": "uint256"
        },
        {
          "internalType": "uint256",
          "name": "maxDepositAmount",
          "type": "uint256"
        },
        {
          "internalType": "uint256",
          "name": "lastTimeOwnerClaimed",
          "type": "uint256"
        },
        {
          "internalType": "uint256",
          "name": "rps",
          "type": "uint256"
        },
        {
          "internalType": "uint256",
          "name": "tau",
          "type": "uint256"
        },
        {
          "internalType": "enum JetStakingV1.StreamStatus",
          "name": "status",
          "type": "uint8"
        }
      ],
      "stateMutability": "view",
      "type": "function"
    },
    {
      "inputs": [
        {
          "internalType": "uint256",
          "name": "streamId",
          "type": "uint256"
        },
        {
          "internalType": "address",
          "name": "account",
          "type": "address"
        }
      ],
      "name": "getStreamClaimableAmount",
      "outputs": [
        {
          "internalType": "uint256",
          "name": "",
          "type": "uint256"
        }
      ],
      "stateMutability": "view",
      "type": "function"
    },
    {
      "inputs": [
        {
          "internalType": "uint256",
          "name": "streamId",
          "type": "uint256"
        }
      ],
      "name": "getStreamOwnerClaimableAmount",
      "outputs": [
        {
          "internalType": "uint256",
          "name": "",
          "type": "uint256"
        }
      ],
      "stateMutability": "view",
      "type": "function"
    },
    {
      "inputs": [
        {
          "internalType": "uint256",
          "name": "streamId",
          "type": "uint256"
        }
      ],
      "name": "getStreamSchedule",
      "outputs": [
        {
          "internalType": "uint256[]",
          "name": "scheduleTimes",
          "type": "uint256[]"
        },
        {
          "internalType": "uint256[]",
          "name": "scheduleRewards",
          "type": "uint256[]"
        }
      ],
      "stateMutability": "view",
      "type": "function"
    },
    {
      "inputs": [],
      "name": "getStreamsCount",
      "outputs": [
        {
          "internalType": "uint256",
          "name": "",
          "type": "uint256"
        }
      ],
      "stateMutability": "view",
      "type": "function"
    },
    {
      "inputs": [],
      "name": "getTotalAmountOfStakedAurora",
      "outputs": [
        {
          "internalType": "uint256",
          "name": "",
          "type": "uint256"
        }
      ],
      "stateMutability": "view",
      "type": "function"
    },
    {
      "inputs": [
        {
          "internalType": "address",
          "name": "token",
          "type": "address"
        }
      ],
      "name": "getTreasuryBalance",
      "outputs": [
        {
          "internalType": "uint256",
          "name": "",
          "type": "uint256"
        }
      ],
      "stateMutability": "view",
      "type": "function"
    },
    {
      "inputs": [
        {
          "internalType": "address",
          "name": "account",
          "type": "address"
        }
      ],
      "name": "getUserShares",
      "outputs": [
        {
          "internalType": "uint256",
          "name": "",
          "type": "uint256"
        }
      ],
      "stateMutability": "view",
      "type": "function"
    },
    {
      "inputs": [
        {
          "internalType": "address",
          "name": "account",
          "type": "address"
        }
      ],
      "name": "getUserTotalDeposit",
      "outputs": [
        {
          "internalType": "uint256",
          "name": "",
          "type": "uint256"
        }
      ],
      "stateMutability": "view",
      "type": "function"
    },
    {
      "inputs": [
        {
          "internalType": "bytes32",
          "name": "role",
          "type": "bytes32"
        },
        {
          "internalType": "address",
          "name": "account",
          "type": "address"
        }
      ],
      "name": "grantRole",
      "outputs": [],
      "stateMutability": "nonpayable",
      "type": "function"
    },
    {
      "inputs": [
        {
          "internalType": "bytes32",
          "name": "role",
          "type": "bytes32"
        },
        {
          "internalType": "address",
          "name": "account",
          "type": "address"
        }
      ],
      "name": "hasRole",
      "outputs": [
        {
          "internalType": "bool",
          "name": "",
          "type": "bool"
        }
      ],
      "stateMutability": "view",
      "type": "function"
    },
    {
      "inputs": [
        {
          "internalType": "address",
          "name": "aurora",
          "type": "address"
        },
        {
          "internalType": "address",
          "name": "streamOwner",
          "type": "address"
        },
        {
          "internalType": "uint256[]",
          "name": "scheduleTimes",
          "type": "uint256[]"
        },
        {
          "internalType": "uint256[]",
          "name": "scheduleRewards",
          "type": "uint256[]"
        },
        {
          "internalType": "uint256",
          "name": "tauAuroraStream",
          "type": "uint256"
        },
        {
          "internalType": "uint256",
          "name": "_flags",
          "type": "uint256"
        },
        {
          "internalType": "address",
          "name": "_treasury",
          "type": "address"
        },
        {
          "internalType": "uint256",
          "name": "_maxWeight",
          "type": "uint256"
        },
        {
          "internalType": "uint256",
          "name": "_minWeight",
          "type": "uint256"
        }
      ],
      "name": "initialize",
      "outputs": [],
      "stateMutability": "nonpayable",
      "type": "function"
    },
    {
      "inputs": [],
      "name": "maxWeight",
      "outputs": [
        {
          "internalType": "uint256",
          "name": "",
          "type": "uint256"
        }
      ],
      "stateMutability": "view",
      "type": "function"
    },
    {
      "inputs": [],
      "name": "minWeight",
      "outputs": [
        {
          "internalType": "uint256",
          "name": "",
          "type": "uint256"
        }
      ],
      "stateMutability": "view",
      "type": "function"
    },
    {
      "inputs": [],
      "name": "moveAllRewardsToPending",
      "outputs": [],
      "stateMutability": "nonpayable",
      "type": "function"
    },
    {
      "inputs": [
        {
          "internalType": "uint256",
          "name": "streamId",
          "type": "uint256"
        }
      ],
      "name": "moveRewardsToPending",
      "outputs": [],
      "stateMutability": "nonpayable",
      "type": "function"
    },
    {
      "inputs": [],
      "name": "paused",
      "outputs": [
        {
          "internalType": "uint256",
          "name": "",
          "type": "uint256"
        }
      ],
      "stateMutability": "view",
      "type": "function"
    },
    {
      "inputs": [
        {
          "internalType": "address",
          "name": "streamOwner",
          "type": "address"
        },
        {
          "internalType": "address",
          "name": "rewardToken",
          "type": "address"
        },
        {
          "internalType": "uint256",
          "name": "auroraDepositAmount",
          "type": "uint256"
        },
        {
          "internalType": "uint256",
          "name": "maxDepositAmount",
          "type": "uint256"
        },
        {
          "internalType": "uint256",
          "name": "minDepositAmount",
          "type": "uint256"
        },
        {
          "internalType": "uint256[]",
          "name": "scheduleTimes",
          "type": "uint256[]"
        },
        {
          "internalType": "uint256[]",
          "name": "scheduleRewards",
          "type": "uint256[]"
        },
        {
          "internalType": "uint256",
          "name": "tau",
          "type": "uint256"
        }
      ],
      "name": "proposeStream",
      "outputs": [],
      "stateMutability": "nonpayable",
      "type": "function"
    },
    {
      "inputs": [],
      "name": "proxiableUUID",
      "outputs": [
        {
          "internalType": "bytes32",
          "name": "",
          "type": "bytes32"
        }
      ],
      "stateMutability": "view",
      "type": "function"
    },
    {
      "inputs": [
        {
          "internalType": "uint256",
          "name": "streamId",
          "type": "uint256"
        }
      ],
      "name": "releaseAuroraRewardsToStreamOwner",
      "outputs": [],
      "stateMutability": "nonpayable",
      "type": "function"
    },
    {
      "inputs": [
        {
          "internalType": "uint256",
          "name": "streamId",
          "type": "uint256"
        },
        {
          "internalType": "address",
          "name": "streamFundReceiver",
          "type": "address"
        }
      ],
      "name": "removeStream",
      "outputs": [],
      "stateMutability": "nonpayable",
      "type": "function"
    },
    {
      "inputs": [
        {
          "internalType": "bytes32",
          "name": "role",
          "type": "bytes32"
        },
        {
          "internalType": "address",
          "name": "account",
          "type": "address"
        }
      ],
      "name": "renounceRole",
      "outputs": [],
      "stateMutability": "nonpayable",
      "type": "function"
    },
    {
      "inputs": [
        {
          "internalType": "bytes32",
          "name": "role",
          "type": "bytes32"
        },
        {
          "internalType": "address",
          "name": "account",
          "type": "address"
        }
      ],
      "name": "revokeRole",
      "outputs": [],
      "stateMutability": "nonpayable",
      "type": "function"
    },
    {
      "inputs": [
        {
          "internalType": "uint256",
          "name": "streamId",
          "type": "uint256"
        },
        {
          "internalType": "uint256",
          "name": "start",
          "type": "uint256"
        },
        {
          "internalType": "uint256",
          "name": "end",
          "type": "uint256"
        }
      ],
      "name": "rewardsSchedule",
      "outputs": [
        {
          "internalType": "uint256",
          "name": "",
          "type": "uint256"
        }
      ],
      "stateMutability": "view",
      "type": "function"
    },
    {
      "inputs": [
        {
          "internalType": "uint256",
          "name": "amount",
          "type": "uint256"
        }
      ],
      "name": "stake",
      "outputs": [],
      "stateMutability": "nonpayable",
      "type": "function"
    },
    {
      "inputs": [
        {
          "internalType": "address",
          "name": "account",
          "type": "address"
        },
        {
          "internalType": "uint256",
          "name": "amount",
          "type": "uint256"
        }
      ],
      "name": "stakeOnBehalfOfAnotherUser",
      "outputs": [],
      "stateMutability": "nonpayable",
      "type": "function"
    },
    {
      "inputs": [
        {
          "internalType": "address[]",
          "name": "accounts",
          "type": "address[]"
        },
        {
          "internalType": "uint256[]",
          "name": "amounts",
          "type": "uint256[]"
        },
        {
          "internalType": "uint256",
          "name": "batchAmount",
          "type": "uint256"
        }
      ],
      "name": "stakeOnBehalfOfOtherUsers",
      "outputs": [],
      "stateMutability": "nonpayable",
      "type": "function"
    },
    {
      "inputs": [
        {
          "internalType": "uint256",
          "name": "streamId",
          "type": "uint256"
        },
        {
          "internalType": "uint256",
          "name": "start",
          "type": "uint256"
        },
        {
          "internalType": "uint256",
          "name": "end",
          "type": "uint256"
        }
      ],
      "name": "startEndScheduleIndex",
      "outputs": [
        {
          "internalType": "uint256",
          "name": "startIndex",
          "type": "uint256"
        },
        {
          "internalType": "uint256",
          "name": "endIndex",
          "type": "uint256"
        }
      ],
      "stateMutability": "view",
      "type": "function"
    },
    {
      "inputs": [
        {
          "internalType": "bytes4",
          "name": "interfaceId",
          "type": "bytes4"
        }
      ],
      "name": "supportsInterface",
      "outputs": [
        {
          "internalType": "bool",
          "name": "",
          "type": "bool"
        }
      ],
      "stateMutability": "view",
      "type": "function"
    },
    {
      "inputs": [],
      "name": "totalAmountOfStakedAurora",
      "outputs": [
        {
          "internalType": "uint256",
          "name": "",
          "type": "uint256"
        }
      ],
      "stateMutability": "view",
      "type": "function"
    },
    {
      "inputs": [],
      "name": "totalAuroraShares",
      "outputs": [
        {
          "internalType": "uint256",
          "name": "",
          "type": "uint256"
        }
      ],
      "stateMutability": "view",
      "type": "function"
    },
    {
      "inputs": [],
      "name": "totalStreamShares",
      "outputs": [
        {
          "internalType": "uint256",
          "name": "",
          "type": "uint256"
        }
      ],
      "stateMutability": "view",
      "type": "function"
    },
    {
      "inputs": [],
      "name": "touchedAt",
      "outputs": [
        {
          "internalType": "uint256",
          "name": "",
          "type": "uint256"
        }
      ],
      "stateMutability": "view",
      "type": "function"
    },
    {
      "inputs": [],
      "name": "treasury",
      "outputs": [
        {
          "internalType": "address",
          "name": "",
          "type": "address"
        }
      ],
      "stateMutability": "view",
      "type": "function"
    },
    {
      "inputs": [
        {
          "internalType": "uint256",
          "name": "amount",
          "type": "uint256"
        }
      ],
      "name": "unstake",
      "outputs": [],
      "stateMutability": "nonpayable",
      "type": "function"
    },
    {
      "inputs": [],
      "name": "unstakeAll",
      "outputs": [],
      "stateMutability": "nonpayable",
      "type": "function"
    },
    {
      "inputs": [
        {
          "internalType": "address",
          "name": "_treasury",
          "type": "address"
        }
      ],
      "name": "updateTreasury",
      "outputs": [],
      "stateMutability": "nonpayable",
      "type": "function"
    },
    {
      "inputs": [
        {
          "internalType": "address",
          "name": "newImplementation",
          "type": "address"
        }
      ],
      "name": "upgradeTo",
      "outputs": [],
      "stateMutability": "nonpayable",
      "type": "function"
    },
    {
      "inputs": [
        {
          "internalType": "address",
          "name": "newImplementation",
          "type": "address"
        },
        {
          "internalType": "bytes",
          "name": "data",
          "type": "bytes"
        }
      ],
      "name": "upgradeToAndCall",
      "outputs": [],
      "stateMutability": "payable",
      "type": "function"
    },
    {
      "inputs": [
        {
          "internalType": "address",
          "name": "",
          "type": "address"
        }
      ],
      "name": "users",
      "outputs": [
        {
          "internalType": "uint256",
          "name": "deposit",
          "type": "uint256"
        },
        {
          "internalType": "uint256",
          "name": "auroraShares",
          "type": "uint256"
        },
        {
          "internalType": "uint256",
          "name": "streamShares",
          "type": "uint256"
        }
      ],
      "stateMutability": "view",
      "type": "function"
    },
    {
      "inputs": [
        {
          "internalType": "uint256",
          "name": "streamId",
          "type": "uint256"
        }
      ],
      "name": "withdraw",
      "outputs": [],
      "stateMutability": "nonpayable",
      "type": "function"
    },
    {
      "inputs": [],
      "name": "withdrawAll",
      "outputs": [],
      "stateMutability": "nonpayable",
      "type": "function"
    }
  ],
  "bytecode": {
    "object": "0x60a0604052306080523480156200001557600080fd5b50600054610100900460ff1615808015620000375750600054600160ff909116105b8062000067575062000054306200014160201b62003e101760201c565b15801562000067575060005460ff166001145b620000cf5760405162461bcd60e51b815260206004820152602e60248201527f496e697469616c697a61626c653a20636f6e747261637420697320616c72656160448201526d191e481a5b9a5d1a585b1a5e995960921b606482015260840160405180910390fd5b6000805460ff191660011790558015620000f3576000805461ff0019166101001790555b80156200013a576000805461ff0019169055604051600181527f7f26b83ff96e1f2b6a682f133852f6798a09c465da95921460cefb38474024989060200160405180910390a15b5062000150565b6001600160a01b03163b151590565b6080516163226200018860003960008181611c7801528181611cb801528181612560015281816125a0015261262f01526163226000f3fe6080604052600436106104105760003560e01c80635c975abb1161021e5780639c52a92011610123578063bb07ec1b116100ab578063d5050aed1161007a578063d5050aed14610d34578063d547741f14610d54578063e335e79a14610d74578063ee13ad8e14610d8a578063fe904b7a14610daa57600080fd5b8063bb07ec1b14610ca4578063be831a2e14610cba578063c892772314610cda578063cd5ba59014610d1f57600080fd5b8063a81c6a15116100f2578063a81c6a1514610bbb578063a87430ba14610bdb578063a8b0bb8314610c33578063b8e9744c14610c4a578063ba0cb22b14610c6a57600080fd5b80639c52a92014610b2f578063a217fddf14610b4f578063a4c828dc14610b64578063a694fc3a14610b9b57600080fd5b80637f51bb1f116101a65780638bc34e77116101755780638bc34e7714610a9a5780638d40bd0314610aaf5780639040332214610acf57806391d1485414610aef578063993b21c114610b0f57600080fd5b80637f51bb1f14610a0c578063853828b614610a2c57806386c1b4eb14610a41578063894e9a0d14610a6357600080fd5b80636c4624c3116101ed5780636c4624c3146109435780636db8e53d1461096357806370bc770c1461097957806372e55399146109a75780637f37df3b146109c757600080fd5b80635c975abb146108cc57806361d027b3146108e25780636458edd314610903578063687dd46c1461092357600080fd5b80632e1a7d4d116103245780633ba31abf116102ac5780634f1ef2861161027b5780634f1ef2861461082b57806352d1902d1461083e57806353a4cca0146108535780635578fdb21461087357806357baeac8146108ac57600080fd5b80633ba31abf146107945780633e9a44cb146107b45780633ea005c8146107d45780634981912e146107f657600080fd5b80633659cfe6116102f35780633659cfe6146106ea57806336630cc71461070a5780633895a2751461072a578063389ed26714610740578063396a6c141461077457600080fd5b80632e1a7d4d146106755780632f2ff15d1461069557806335322f37146106b557806336568abe146106ca57600080fd5b80631e0fbfa2116103a75780632692c59f116103765780632692c59f146105d557806326cdddb9146105f557806327571969146106155780632ca783f3146106355780632e17de781461065557600080fd5b80631e0fbfa2146105565780631fd8c5f41461057857806320988cef1461058e578063248a9ca3146105a557600080fd5b80631194ebeb116103e35780631194ebeb146104af57806312dd67fe146104d15780631c61e617146104f15780631dd004521461051157600080fd5b806301ffc9a714610415578063036877881461044a5780630c2ee55e146104785780630efd83101461048f575b600080fd5b34801561042157600080fd5b506104356104303660046158b0565b610dc2565b60405190151581526020015b60405180910390f35b34801561045657600080fd5b5061046a6104653660046158da565b610df9565b604051908152602001610441565b34801561048457600080fd5b5061046a6101035481565b34801561049b57600080fd5b5061046a6104aa366004615922565b611168565b3480156104bb57600080fd5b506104cf6104ca366004615a0a565b6111b4565b005b3480156104dd57600080fd5b5061046a6104ec366004615ab6565b611511565b3480156104fd57600080fd5b5061046a61050c366004615922565b6115ff565b34801561051d57600080fd5b5061046a61052c366004615922565b6001600160a01b031660009081526101046020908152604080832093835260059093019052205490565b34801561056257600080fd5b5061046a6000805160206162cd83398151915281565b34801561058457600080fd5b5061046a60fd5481565b34801561059a57600080fd5b5061046a6228207281565b3480156105b157600080fd5b5061046a6105c0366004615ab6565b600090815260c9602052604090206001015490565b3480156105e157600080fd5b506104cf6105f0366004615ab6565b611677565b34801561060157600080fd5b506104cf610610366004615b1b565b61170b565b34801561062157600080fd5b506104cf610630366004615b87565b6117bb565b34801561064157600080fd5b506104cf610650366004615bc9565b611867565b34801561066157600080fd5b506104cf610670366004615ab6565b6118ef565b34801561068157600080fd5b506104cf610690366004615ab6565b611a0d565b3480156106a157600080fd5b506104cf6106b0366004615922565b611ab5565b3480156106c157600080fd5b506104cf611ada565b3480156106d657600080fd5b506104cf6106e5366004615922565b611bf3565b3480156106f657600080fd5b506104cf610705366004615bf3565b611c6d565b34801561071657600080fd5b5061046a610725366004615c0e565b611d4d565b34801561073657600080fd5b5061046a60fc5481565b34801561074c57600080fd5b5061046a7f139c2898040ef16910dc9f44dc697df79363da767d8bc92f2e310312b816e46d81565b34801561078057600080fd5b5061046a61078f366004615ab6565b611ec0565b3480156107a057600080fd5b506104cf6107af366004615922565b611f4b565b3480156107c057600080fd5b506104cf6107cf366004615bc9565b6121fd565b3480156107e057600080fd5b5061046a60008051602061624683398151915281565b34801561080257600080fd5b506108166108113660046158da565b61225e565b60408051928352602083019190915201610441565b6104cf610839366004615c30565b612555565b34801561084a57600080fd5b5061046a612622565b34801561085f57600080fd5b506104cf61086e366004615cd6565b6126d5565b34801561087f57600080fd5b5061010154610894906001600160a01b031681565b6040516001600160a01b039091168152602001610441565b3480156108b857600080fd5b5061046a6108c7366004615bf3565b612872565b3480156108d857600080fd5b5061046a60fb5481565b3480156108ee57600080fd5b5061010054610894906001600160a01b031681565b34801561090f57600080fd5b506104cf61091e366004615d4a565b6128e3565b34801561092f57600080fd5b506104cf61093e366004615b87565b61294c565b34801561094f57600080fd5b506104cf61095e3660046158da565b612996565b34801561096f57600080fd5b5061046a60ff5481565b34801561098557600080fd5b50610999610994366004615ab6565b6129ad565b604051610441929190615dd8565b3480156109b357600080fd5b506104cf6109c2366004615b87565b612aad565b3480156109d357600080fd5b5061046a6109e2366004615922565b6001600160a01b031660009081526101046020908152604080832093835260039093019052205490565b348015610a1857600080fd5b506104cf610a27366004615bf3565b612ba0565b348015610a3857600080fd5b506104cf612ca4565b348015610a4d57600080fd5b5061046a6000805160206162ad83398151915281565b348015610a6f57600080fd5b50610a83610a7e366004615ab6565b612d48565b6040516104419b9a99989796959493929190615e13565b348015610aa657600080fd5b506104cf612e0e565b348015610abb57600080fd5b506104cf610aca366004615c0e565b612e56565b348015610adb57600080fd5b506104cf610aea366004615ab6565b613205565b348015610afb57600080fd5b50610435610b0a366004615922565b61331d565b348015610b1b57600080fd5b5061046a610b2a366004615ab6565b613348565b348015610b3b57600080fd5b506104cf610b4a366004615ab6565b613377565b348015610b5b57600080fd5b5061046a600081565b348015610b7057600080fd5b5061046a610b7f366004615bf3565b6001600160a01b03166000908152610104602052604090205490565b348015610ba757600080fd5b506104cf610bb6366004615ab6565b6135ec565b348015610bc757600080fd5b506104cf610bd6366004615e9b565b613656565b348015610be757600080fd5b50610c18610bf6366004615bf3565b6101046020526000908152604090208054600182015460029092015490919083565b60408051938452602084019290925290820152606001610441565b348015610c3f57600080fd5b5061046a6101025481565b610c5d610c58366004615c30565b613c3b565b6040516104419190615fb0565b348015610c7657600080fd5b5061046a610c85366004615bf3565b6001600160a01b03166000908152610104602052604090206001015490565b348015610cb057600080fd5b5061046a60fe5481565b348015610cc657600080fd5b506104cf610cd5366004615c0e565b613d00565b348015610ce657600080fd5b5061046a610cf5366004615922565b6001600160a01b031660009081526101046020908152604080832093835260049093019052205490565b348015610d2b57600080fd5b5061046a613d10565b348015610d4057600080fd5b506104cf610d4f366004615bf3565b613d42565b348015610d6057600080fd5b506104cf610d6f366004615922565b613da2565b348015610d8057600080fd5b506101055461046a565b348015610d9657600080fd5b506104cf610da5366004615ab6565b613dc7565b348015610db657600080fd5b5061046a630786156081565b60006001600160e01b03198216637965db0b60e01b1480610df357506301ffc9a760e01b6001600160e01b03198316145b92915050565b6000806101058581548110610e1057610e10615fc3565b90600052602060002090600f0201600c019050600080610e3187878761225e565b909250905060008083831415610f105784600101846001610e529190615fef565b81548110610e6257610e62615fc3565b9060005260206000200154856001018581548110610e8257610e82615fc3565b9060005260206000200154610e979190616007565b9050846000018481548110610eae57610eae615fc3565b60009182526020909120015485610ec6866001615fef565b81548110610ed657610ed6615fc3565b9060005260206000200154610eeb9190616007565b610ef58989616007565b610eff908361601e565b610f09919061603d565b915061115a565b84600101846001610f219190615fef565b81548110610f3157610f31615fc3565b9060005260206000200154856001018581548110610f5157610f51615fc3565b9060005260206000200154610f669190616007565b9050846000018481548110610f7d57610f7d615fc3565b60009182526020909120015485610f95866001615fef565b81548110610fa557610fa5615fc3565b9060005260206000200154610fba9190616007565b8886610fc7876001615fef565b81548110610fd757610fd7615fc3565b9060005260206000200154610fec9190616007565b610ff6908361601e565b611000919061603d565b915084600101838154811061101757611017615fc3565b9060005260206000200154856001018560016110339190615fef565b8154811061104357611043615fc3565b90600052602060002001546110589190616007565b6110629083615fef565b9150846001018360016110759190615fef565b8154811061108557611085615fc3565b90600052602060002001548560010184815481106110a5576110a5615fc3565b90600052602060002001546110ba9190616007565b90508460000183815481106110d1576110d1615fc3565b600091825260209091200154856110e9856001615fef565b815481106110f9576110f9615fc3565b906000526020600020015461110e9190616007565b85600001848154811061112357611123615fc3565b9060005260206000200154886111399190616007565b611143908361601e565b61114d919061603d565b6111579083615fef565b91505b5093505050505b9392505050565b60008261119257506001600160a01b03811660009081526101046020526040902060010154610df3565b506001600160a01b031660009081526101046020526040902060020154919050565b6000805160206162468339815191526111cc81613e1f565b6111db89898888888888613e29565b61010054604051630480051d60e31b81526001600160a01b038a811660048301529091169063240028e890602401602060405180830381865afa158015611226573d6000803e3d6000fd5b505050506040513d601f19601f8201168201806040525081019061124a919061605f565b61129b5760405162461bcd60e51b815260206004820152601f60248201527f494e56414c49445f535550504f525445445f544f4b454e5f414444524553530060448201526064015b60405180910390fd5b600060405180604001604052808681526020018581525090506000610105805490509050610105604051806101c001604052808d6001600160a01b03168152602001336001600160a01b031681526020018c6001600160a01b031681526020018b81526020016000815260200160008152602001600081526020018a81526020018981526020018860008151811061133557611335615fc3565b60200260200101518152602001868152602001600081526020018481526020016001600281111561136857611368615dfd565b905281546001808201845560009384526020938490208351600f9093020180546001600160a01b03199081166001600160a01b0394851617825584860151928201805482169385169390931790925560408401516002820180549093169316929092179055606082015160038201556080820151600482015560a0820151600582015560c0820151600682015560e0820151600782015561010082015160088201556101208201516009820155610140820151600a820155610160820151600b82015561018082015180518051939492939192600c85019261144d9284920190615850565b5060208281015180516114669260018501920190615850565b5050506101a0820151600e8201805460ff1916600183600281111561148d5761148d615dfd565b02179055505050896001600160a01b03168b6001600160a01b0316827fe843b72f047599c26dfdab8a31d1b5f353799cab6a8482518a21f1b17871dd758b8d6040516114e3929190918252602082015260400190565b60405180910390a461010154611504906001600160a01b031633308c6142fb565b5050505050505050505050565b60008161155a5760405162461bcd60e51b815260206004820152601760248201527610555493d49057d49155d0549114d7d0d3d35413d55391604a1b6044820152606401611292565b60ff5461159e5760405162461bcd60e51b81526020600482015260126024820152715a45524f5f53545245414d5f53484152455360701b6044820152606401611292565b60ff546c7e37be2022c0914b26800000006115bb8460fd54611d4d565b6115c5919061601e565b6115cf919061603d565b61010583815481106115e3576115e3615fc3565b90600052602060002090600f0201600b0154610df39190615fef565b60008061160b84611511565b6001600160a01b0384166000908152610104602090815260408083208884526005810190925290912054600282015492935090916c7e37be2022c0914b2680000000816116588487616007565b611662919061601e565b61166c919061603d565b979650505050505050565b7f139c2898040ef16910dc9f44dc697df79363da767d8bc92f2e310312b816e46d6116a181613e1f565b60fb5482811614806116b957506116b960003361331d565b6117055760405162461bcd60e51b815260206004820152601e60248201527f4f4e4c595f44454641554c545f41444d494e5f43414e5f554e504155534500006044820152606401611292565b5060fb55565b60018060fb541660001480611726575061172660003361331d565b6117425760405162461bcd60e51b815260040161129290616081565b6000805160206162ad83398151915261175a81613e1f565b611762614353565b8460005b818110156117b15761179f88888381811061178357611783615fc3565b90506020020160208101906117989190615bf3565b878761442b565b806117a9816160ad565b915050611766565b5050505050505050565b60018060fb5416600014806117d657506117d660003361331d565b6117f25760405162461bcd60e51b815260040161129290616081565b6000805160206162ad83398151915261180a81613e1f565b611812614353565b8260005b8181101561185f5761184d86868381811061183357611833615fc3565b90506020020160208101906118489190615bf3565b6144c6565b80611857816160ad565b915050611816565b505050505050565b60018060fb541660001480611882575061188260003361331d565b61189e5760405162461bcd60e51b815260040161129290616081565b6000805160206162cd8339815191526118b681613e1f565b6118be614353565b6118c88484614535565b61010054610101546118e9916001600160a01b0391821691339116866142fb565b50505050565b60018060fb54166000148061190a575061190a60003361331d565b6119265760405162461bcd60e51b815260040161129290616081565b60fe546119705760405162461bcd60e51b81526020600482015260186024820152775a45524f5f544f54414c5f4155524f52415f53484152455360401b6044820152606401611292565b33600090815261010460205260409020600101546119c35760405162461bcd60e51b815260206004820152601060248201526f5a45524f5f555345525f53484152455360801b6044820152606401611292565b6119cb614353565b60fe54336000908152610104602052604081206001015460fc549192916119f2919061601e565b6119fc919061603d565b9050611a0883826146f4565b505050565b60018060fb541660001480611a285750611a2860003361331d565b611a445760405162461bcd60e51b815260040161129290616081565b336000908152610104602090815260408083208584526004019091529020544211611aa85760405162461bcd60e51b8152602060048201526014602482015273494e56414c49445f52454c454153455f54494d4560601b6044820152606401611292565b611ab1826148f1565b5050565b600082815260c96020526040902060010154611ad081613e1f565b611a0883836149e6565b60018060fb541660001480611af55750611af560003361331d565b611b115760405162461bcd60e51b815260040161129290616081565b60fe54611b5b5760405162461bcd60e51b81526020600482015260186024820152775a45524f5f544f54414c5f4155524f52415f53484152455360401b6044820152606401611292565b3360009081526101046020526040902060010154611bae5760405162461bcd60e51b815260206004820152601060248201526f5a45524f5f555345525f53484152455360801b6044820152606401611292565b611bb6614353565b60fe54336000908152610104602052604081206001015460fc54919291611bdd919061601e565b611be7919061603d565b9050611ab181826146f4565b6001600160a01b0381163314611c635760405162461bcd60e51b815260206004820152602f60248201527f416363657373436f6e74726f6c3a2063616e206f6e6c792072656e6f756e636560448201526e103937b632b9903337b91039b2b63360891b6064820152608401611292565b611ab18282614a6c565b306001600160a01b037f0000000000000000000000000000000000000000000000000000000000000000161415611cb65760405162461bcd60e51b8152600401611292906160c8565b7f00000000000000000000000000000000000000000000000000000000000000006001600160a01b0316611cff600080516020616266833981519152546001600160a01b031690565b6001600160a01b031614611d255760405162461bcd60e51b815260040161129290616114565b611d2e81614ad3565b60408051600080825260208201909252611d4a91839190614ade565b50565b600042821115611d955760405162461bcd60e51b8152602060048201526013602482015272494e56414c49445f4c4153545f55504441544560681b6044820152606401611292565b42821415611da557506000610df3565b60006101058481548110611dbb57611dbb615fc3565b90600052602060002090600f0201600c01600001600081548110611de157611de1615fc3565b90600052602060002001549050804211611dff576000915050610df3565b60006101058581548110611e1557611e15615fc3565b90600052602060002090600f0201600c0160000160016101058781548110611e3f57611e3f615fc3565b60009182526020909120600c600f909202010154611e5d9190616007565b81548110611e6d57611e6d615fc3565b90600052602060002001549050808410611e8c57600092505050610df3565b60008083861115611e9f57859150611ea3565b8391505b82421015611eb2575042611eb5565b50815b61166c878383610df9565b6000806101058381548110611ed757611ed7615fc3565b60009182526020909120600f9091020190506002600e82015460ff166002811115611f0457611f04615dfd565b14611f125750600092915050565b6000611f22848360090154611d4d565b90508160050154826003015482611f39919061601e565b611f43919061603d565b949350505050565b600080516020616246833981519152611f6381613e1f565b82611fb05760405162461bcd60e51b815260206004820152601b60248201527f4155524f52415f53545245414d5f4e4f545f52454d4f5641424c4500000000006044820152606401611292565b60006101058481548110611fc657611fc6615fc3565b60009182526020909120600f9091020190506002600e82015460ff166002811115611ff357611ff3615dfd565b146120395760405162461bcd60e51b815260206004820152601660248201527514d51491505357d053149150511657d4915353d5915160521b6044820152606401611292565b600e8101805460ff19169055600281015481546040516001600160a01b03928316929091169086907f661da9ced4b5d786f5b5f451a5f68af24721a01b0a65bb47fa4fdf70b80b887c90600090a460008160040154826003015461209d9190616007565b90506000826006015483600501546120b59190616007565b610101549091506000906120d1906001600160a01b0316612872565b60028501549091506000906120ee906001600160a01b0316612872565b610100546001870154610101549293506001600160a01b039182169263da0c1a88929182169116858811156121235785612125565b875b6040518463ffffffff1660e01b815260040161214393929190616160565b600060405180830381600087803b15801561215d57600080fd5b505af1158015612171573d6000803e3d6000fd5b50506101005460028801546001600160a01b03918216935063da0c1a8892508a9116848711156121a157846121a3565b865b6040518463ffffffff1660e01b81526004016121c193929190616160565b600060405180830381600087803b1580156121db57600080fd5b505af11580156121ef573d6000803e3d6000fd5b505050505050505050505050565b60018060fb541660001480612218575061221860003361331d565b6122345760405162461bcd60e51b815260040161129290616081565b6000805160206162ad83398151915261224c81613e1f565b612254614353565b6118e98484614c49565b6000806000610105868154811061227757612277615fc3565b60009182526020909120600c600f90920201018054909150806122ca5760405162461bcd60e51b815260206004820152600b60248201526a4e4f5f5343484544554c4560a81b6044820152606401611292565b8585116123195760405162461bcd60e51b815260206004820152601b60248201527f494e56414c49445f5245574152445f51554552595f504552494f4400000000006044820152606401611292565b8160000160008154811061232f5761232f615fc3565b90600052602060002001548610156123895760405162461bcd60e51b815260206004820152601b60248201527f51554552595f4245464f52455f5343484544554c455f535441525400000000006044820152606401611292565b81612395600183616007565b815481106123a5576123a5615fc3565b90600052602060002001548511156123ff5760405162461bcd60e51b815260206004820152601860248201527f51554552595f41465445525f5343484544554c455f454e4400000000000000006044820152606401611292565b60015b818110156124555782600001818154811061241f5761241f615fc3565b90600052602060002001548710156124435761243c600182616007565b9450612455565b8061244d816160ad565b915050612402565b5081612462600183616007565b8154811061247257612472615fc3565b90600052602060002001548514156124965761248f600282616007565b92506124fb565b60006124a3856001615fef565b90505b818110156124f9578260000181815481106124c3576124c3615fc3565b90600052602060002001548610156124e7576124e0600182616007565b93506124f9565b806124f1816160ad565b9150506124a6565b505b8284111561254b5760405162461bcd60e51b815260206004820152601960248201527f494e56414c49445f494e4445585f43414c43554c4154494f4e000000000000006044820152606401611292565b5050935093915050565b306001600160a01b037f000000000000000000000000000000000000000000000000000000000000000016141561259e5760405162461bcd60e51b8152600401611292906160c8565b7f00000000000000000000000000000000000000000000000000000000000000006001600160a01b03166125e7600080516020616266833981519152546001600160a01b031690565b6001600160a01b03161461260d5760405162461bcd60e51b815260040161129290616114565b61261682614ad3565b611ab182826001614ade565b6000306001600160a01b037f000000000000000000000000000000000000000000000000000000000000000016146126c25760405162461bcd60e51b815260206004820152603860248201527f555550535570677261646561626c653a206d757374206e6f742062652063616c60448201527f6c6564207468726f7567682064656c656761746563616c6c00000000000000006064820152608401611292565b5060008051602061626683398151915290565b60018060fb5416600014806126f057506126f060003361331d565b61270c5760405162461bcd60e51b815260040161129290616081565b6000805160206162cd83398151915261272481613e1f565b8584811461276b5760405162461bcd60e51b81526020600482015260146024820152730929cac82989288be82a4a482b2be988a9c8ea8960631b6044820152606401611292565b612773614353565b6000805b828110156127ff5787878281811061279157612791615fc3565b90506020020135826127a39190615fef565b91506127ed8a8a838181106127ba576127ba615fc3565b90506020020160208101906127cf9190615bf3565b8989848181106127e1576127e1615fc3565b90506020020135614535565b806127f7816160ad565b915050612777565b508481146128465760405162461bcd60e51b81526020600482015260146024820152731253959053125117d0905510d217d05353d5539560621b6044820152606401611292565b6101005461010154612867916001600160a01b0391821691339116886142fb565b505050505050505050565b610100546040516370a0823160e01b81526001600160a01b0391821660048201526000918316906370a0823190602401602060405180830381865afa1580156128bf573d6000803e3d6000fd5b505050506040513d601f19601f82011682018060405250810190610df39190616184565b60018060fb5416600014806128fe57506128fe60003361331d565b61291a5760405162461bcd60e51b815260040161129290616081565b6000805160206162ad83398151915261293281613e1f565b61293a614353565b61294585858561442b565b5050505050565b60018060fb541660001480612967575061296760003361331d565b6129835760405162461bcd60e51b815260040161129290616081565b61298b614353565b611a0833848461442b565b60006129a181613e1f565b50825491821816189055565b60608061010583815481106129c4576129c4615fc3565b90600052602060002090600f0201600c0160000161010584815481106129ec576129ec615fc3565b90600052602060002090600f0201600c0160010181805480602002602001604051908101604052809291908181526020018280548015612a4b57602002820191906000526020600020905b815481526020019060010190808311612a37575b5050505050915080805480602002602001604051908101604052809291908181526020018280548015612a9d57602002820191906000526020600020905b815481526020019060010190808311612a89575b5050505050905091509150915091565b60018060fb541660001480612ac85750612ac860003361331d565b612ae45760405162461bcd60e51b815260040161129290616081565b33600090815261010460205260408120905b8381101561294557816003016000868684818110612b1657612b16615fc3565b90506020020135815260200190815260200160002054600014158015612b685750816004016000868684818110612b4f57612b4f615fc3565b9050602002013581526020019081526020016000205442115b15612b8e57612b8e858583818110612b8257612b82615fc3565b905060200201356148f1565b80612b98816160ad565b915050612af6565b6000612bab81613e1f565b60fb54612bea5760405162461bcd60e51b815260206004820152600d60248201526c524551554952455f504155534560981b6044820152606401611292565b6001600160a01b038216612c325760405162461bcd60e51b815260206004820152600f60248201526e494e56414c49445f4144445245535360881b6044820152606401611292565b610100546001600160a01b0383811691161415612c805760405162461bcd60e51b815260206004820152600c60248201526b53414d455f4144445245535360a01b6044820152606401611292565b5061010080546001600160a01b0319166001600160a01b0392909216919091179055565b60018060fb541660001480612cbf5750612cbf60003361331d565b612cdb5760405162461bcd60e51b815260040161129290616081565b336000908152610104602052604081206101055490915b818110156118e957600081815260038401602052604090205415801590612d285750600081815260048401602052604090205442115b15612d3657612d36816148f1565b80612d40816160ad565b915050612cf2565b6000806000806000806000806000806000806101058d81548110612d6e57612d6e615fc3565b90600052602060002090600f020190508060000160009054906101000a90046001600160a01b03168160020160009054906101000a90046001600160a01b031682600301548360040154846005015485600601548660070154876009015488600b015489600a01548a600e0160009054906101000a900460ff169b509b509b509b509b509b509b509b509b509b509b505091939597999b90929496989a50565b60018060fb541660001480612e295750612e2960003361331d565b612e455760405162461bcd60e51b815260040161129290616081565b612e4d614353565b611d4a336144c6565b60018060fb541660001480612e715750612e7160003361331d565b612e8d5760405162461bcd60e51b815260040161129290616081565b60006101058481548110612ea357612ea3615fc3565b60009182526020909120600f9091020190506001600e82015460ff166002811115612ed057612ed0615dfd565b14612f135760405162461bcd60e51b815260206004820152601360248201527214d51491505357d393d517d41493d413d4d151606a1b6044820152606401611292565b80546001600160a01b03163314612f635760405162461bcd60e51b815260206004820152601460248201527324a72b20a624a22fa9aa2922a0a6afa7aba722a960611b6044820152606401611292565b4281600c01600001600081548110612f7d57612f7d615fc3565b90600052602060002001541015612fd65760405162461bcd60e51b815260206004820152601760248201527f53545245414d5f50524f504f53414c5f455850495245440000000000000000006044820152606401611292565b806007015483111561301c5760405162461bcd60e51b815260206004820152600f60248201526e0a48aae82a488bea89e9ebe90928e9608b1b6044820152606401611292565b80600801548310156130615760405162461bcd60e51b815260206004820152600e60248201526d5245574152445f544f4f5f4c4f5760901b6044820152606401611292565b600e8101805460ff191660021790556005810183905560078101548310156130ee576000816007015482600301548561309a919061601e565b6130a4919061603d565b905060008183600301546130b89190616007565b6003840183905590506130cb8686614f3d565b6001830154610101546130eb916001600160a01b03918216911683615047565b50505b6002810154815460038301546040516001600160a01b0393841693929092169187917f3062262d3b7b7b5292387920111bfa3e0597dc070a8f10f1be710f15868c22e09161314491898252602082015260400190565b60405180910390a46005810154600d8201805460009061316657613166615fc3565b9060005260206000200154146131be5760405162461bcd60e51b815260206004820152601760248201527f494e56414c49445f5354415254494e475f5245574152440000000000000000006044820152606401611292565b610100546003820154610101546131e3926001600160a01b0391821692911690615047565b6101005460028201546118e9916001600160a01b0391821691339116866142fb565b60008051602061624683398151915261321d81613e1f565b6000610105838154811061323357613233615fc3565b60009182526020909120600f9091020190506001600e82015460ff16600281111561326057613260615dfd565b146132a35760405162461bcd60e51b815260206004820152601360248201527214d51491505357d393d517d41493d413d4d151606a1b6044820152606401611292565b600e8101805460ff191690556003810180546000918290556002830154835460405192936001600160a01b0392831693929091169187917ffadbcbd495527ce5e10fd0cceba57d404a4625dd6ce0499c254ac523789ef3ad91a46001820154610101546118e9916001600160a01b03918216911683615047565b600091825260c9602090815260408084206001600160a01b0393909316845291905290205460ff1690565b6000610105828154811061335e5761335e615fc3565b90600052602060002090600f0201600b01549050919050565b60018060fb541660001480613392575061339260003361331d565b6133ae5760405162461bcd60e51b815260040161129290616081565b816133ee5760405162461bcd60e51b815260206004820152601060248201526f4155524f52415f53545245414d5f4e4160801b6044820152606401611292565b6000610105838154811061340457613404615fc3565b60009182526020909120600f9091020180549091506001600160a01b031633146134675760405162461bcd60e51b815260206004820152601460248201527324a72b20a624a22fa9aa2922a0a6afa7aba722a960611b6044820152606401611292565b6002600e82015460ff16600281111561348257613482615dfd565b146134cf5760405162461bcd60e51b815260206004820152601b60248201527f494e4143544956455f4f525f50524f504f5345445f53545245414d00000000006044820152606401611292565b60006134da84611ec0565b90506000811161351b5760405162461bcd60e51b815260206004820152600c60248201526b5a45524f5f5245574152445360a01b6044820152606401611292565b428260090181905550808260040160008282546135389190615fef565b909155505081546040518281526001600160a01b039091169085907fd8dbc00678cdeb812d1660863c3d845d199d828cd02c9278b1ac8f359a1394369060200160405180910390a361010054825461010154604051631b41835160e31b81526001600160a01b039384169363da0c1a88936135be93908216929116908690600401616160565b600060405180830381600087803b1580156135d857600080fd5b505af11580156117b1573d6000803e3d6000fd5b60018060fb541660001480613607575061360760003361331d565b6136235760405162461bcd60e51b815260040161129290616081565b61362b614353565b6136353383614535565b6101005461010154611ab1916001600160a01b0391821691339116856142fb565b600054610100900460ff16158080156136765750600054600160ff909116105b806136905750303b158015613690575060005460ff166001145b6136f35760405162461bcd60e51b815260206004820152602e60248201527f496e697469616c697a61626c653a20636f6e747261637420697320616c72656160448201526d191e481a5b9a5d1a585b1a5e995960921b6064820152608401611292565b6000805460ff191660011790558015613716576000805461ff0019166101001790555b8183116137575760405162461bcd60e51b815260206004820152600f60248201526e494e56414c49445f5745494748545360881b6044820152606401611292565b6001600160a01b03841661379f5760405162461bcd60e51b815260206004820152600f60248201526e494e56414c49445f4144445245535360881b6044820152606401611292565b6137e2898b896000815181106137b7576137b7615fc3565b60200260200101518a6000815181106137d2576137d2615fc3565b60200260200101518c8c8c613e29565b604051630480051d60e31b81526001600160a01b038b8116600483015285169063240028e890602401602060405180830381865afa158015613828573d6000803e3d6000fd5b505050506040513d601f19601f8201168201806040525081019061384c919061605f565b6138985760405162461bcd60e51b815260206004820152601f60248201527f494e56414c49445f535550504f525445445f544f4b454e5f41444452455353006044820152606401611292565b6138a185615077565b6138b96000805160206162cd833981519152336149e6565b6138d16000805160206162ad833981519152336149e6565b6138e9600080516020616246833981519152336149e6565b61010080546001600160a01b038087166001600160a01b031992831617835561010180548e83169316831790556101028690556101038590556040805180820182528c815260208082018d905282516101c081018452938f1680855290840152908201929092526000606082018190526080820181905260a0820181905260c0820181905260e0820181905292810183905242610120820152610140810189905261016081018390526101808101829052610105906101a081016002905281546001808201845560009384526020938490208351600f9093020180546001600160a01b03199081166001600160a01b0394851617825584860151928201805482169385169390931790925560408401516002820180549093169316929092179055606082015160038201556080820151600482015560a0820151600582015560c0820151600682015560e0820151600782015561010082015160088201556101208201516009820155610140820151600a820155610160820151600b82015561018082015180518051939492939192600c850192613a8a9284920190615850565b506020828101518051613aa39260018501920190615850565b5050506101a0820151600e8201805460ff19166001836002811115613aca57613aca615dfd565b021790555050508b6001600160a01b03168b6001600160a01b0316837fe843b72f047599c26dfdab8a31d1b5f353799cab6a8482518a21f1b17871dd758c600081518110613b1a57613b1a615fc3565b60200260200101518d600081518110613b3557613b35615fc3565b6020026020010151604051613b54929190918252602082015260400190565b60405180910390a48b6001600160a01b03168b6001600160a01b0316837f3062262d3b7b7b5292387920111bfa3e0597dc070a8f10f1be710f15868c22e08c600081518110613ba557613ba5615fc3565b60200260200101518d600081518110613bc057613bc0615fc3565b6020026020010151604051613bdf929190918252602082015260400190565b60405180910390a450508015613c2f576000805461ff0019169055604051600181527f7f26b83ff96e1f2b6a682f133852f6798a09c465da95921460cefb38474024989060200160405180910390a15b50505050505050505050565b60606000613c4881613e1f565b6001600160a01b038416613c8d5760405162461bcd60e51b815260206004820152600c60248201526b5a45524f5f4144445245535360a01b6044820152606401611292565b600080856001600160a01b031685604051613ca8919061619d565b600060405180830381855af49150503d8060008114613ce3576040519150601f19603f3d011682016040523d82523d6000602084013e613ce8565b606091505b509150915081613cf757600080fd5b95945050505050565b6000613d0b81613e1f565b509055565b600060fd5460001415613d235750600090565b613d30600060fd54611d4d565b60fc54613d3d9190615fef565b905090565b60018060fb541660001480613d5d5750613d5d60003361331d565b613d795760405162461bcd60e51b815260040161129290616081565b6000805160206162ad833981519152613d9181613e1f565b613d99614353565b611a08836144c6565b600082815260c96020526040902060010154613dbd81613e1f565b611a088383614a6c565b60018060fb541660001480613de25750613de260003361331d565b613dfe5760405162461bcd60e51b815260040161129290616081565b613e06614353565b611ab13383614c49565b6001600160a01b03163b151590565b611d4a81336150c1565b6001600160a01b038716613e7f5760405162461bcd60e51b815260206004820152601c60248201527f494e56414c49445f53545245414d5f4f574e45525f41444452455353000000006044820152606401611292565b6001600160a01b038616613ed55760405162461bcd60e51b815260206004820152601c60248201527f494e56414c49445f5245574152445f544f4b454e5f41444452455353000000006044820152606401611292565b60008511613f185760405162461bcd60e51b815260206004820152601060248201526f16915493d7d3505617d1115413d4d25560821b6044820152606401611292565b60008411613f5b5760405162461bcd60e51b815260206004820152601060248201526f16915493d7d3525397d1115413d4d25560821b6044820152606401611292565b84841115613fa15760405162461bcd60e51b81526020600482015260136024820152721253959053125117d3525397d1115413d4d255606a1b6044820152606401611292565b81600081518110613fb457613fb4615fc3565b6020026020010151851461400a5760405162461bcd60e51b815260206004820152601f60248201527f4d41585f4445504f5349545f4d5553545f455155414c5f5343484544554c45006044820152606401611292565b428360008151811061401e5761401e615fc3565b6020026020010151116140735760405162461bcd60e51b815260206004820152601e60248201527f494e56414c49445f53545245414d5f45585049524154494f4e5f4441544500006044820152606401611292565b81518351146140c45760405162461bcd60e51b815260206004820152601760248201527f494e56414c49445f5343484544554c455f56414c5545530000000000000000006044820152606401611292565b60028351101561410b5760405162461bcd60e51b815260206004820152601260248201527114d0d2115115531157d513d3d7d4d213d49560721b6044820152606401611292565b8061414d5760405162461bcd60e51b81526020600482015260126024820152711253959053125117d5105557d411549253d160721b6044820152606401611292565b60015b835181101561427b5783614165600183616007565b8151811061417557614175615fc3565b602002602001015184828151811061418f5761418f615fc3565b6020026020010151116141dd5760405162461bcd60e51b8152602060048201526016602482015275494e56414c49445f5343484544554c455f54494d455360501b6044820152606401611292565b826141e9600183616007565b815181106141f9576141f9615fc3565b602002602001015183828151811061421357614213615fc3565b602002602001015111156142695760405162461bcd60e51b815260206004820152601860248201527f494e56414c49445f5343484544554c455f5245574152445300000000000000006044820152606401611292565b80614273816160ad565b915050614150565b50816001835161428b9190616007565b8151811061429b5761429b615fc3565b60200260200101516000146142f25760405162461bcd60e51b815260206004820152601b60248201527f494e56414c49445f5343484544554c455f454e445f52455741524400000000006044820152606401611292565b50505050505050565b6118e9846323b872dd60e01b85858560405160240161431c93929190616160565b60408051601f198184030181529190526020810180516001600160e01b03166001600160e01b031990931692909217909152615125565b4260fd54141561435f57565b60fe541561442557614374600060fd54611d4d565b60fc60008282546143859190615fef565b90915550506101055460015b8181101561442257600261010582815481106143af576143af615fc3565b60009182526020909120600e600f90920201015460ff1660028111156143d7576143d7615dfd565b1415614410576143e681611511565b61010582815481106143fa576143fa615fc3565b90600052602060002090600f0201600b01819055505b8061441a816160ad565b915050614391565b50505b4260fd55565b60005b818110156118e957600261010584848481811061444d5761444d615fc3565b905060200201358154811061446457614464615fc3565b60009182526020909120600e600f90920201015460ff16600281111561448c5761448c615dfd565b14156144b4576144b4848484848181106144a8576144a8615fc3565b90506020020135614c49565b806144be816160ad565b91505061442e565b6101055460015b81811015611a0857600261010582815481106144eb576144eb615fc3565b60009182526020909120600e600f90920201015460ff16600281111561451357614513615dfd565b1415614523576145238382614c49565b8061452d816160ad565b9150506144cd565b6001600160a01b03821660009081526101046020526040812060fe5490919061455f5750816145a6565b600060fe548461456f919061601e565b905060fc548161457f919061603d565b91508060fc5483614590919061601e565b10156145a4576145a1600183615fef565b91505b505b808260010160008282546145ba9190615fef565b925050819055508060fe60008282546145d39190615fef565b925050819055508260fc60008282546145ec9190615fef565b9091555050815483908390600090614605908490615fef565b909155506000905061461782426151f7565b90508060ff600082825461462b9190615fef565b92505081905550808360020160008282546146469190615fef565b90915550506101055460015b818110156146a757610105818154811061466e5761466e615fc3565b60009182526020808320600b600f909302019190910154838352600588019091526040909120558061469f816160ad565b915050614652565b5060408051868152602081018590526001600160a01b038816917f1449c6dd7851abc30abf37f57715f492010519147cc2652fbc38202c18a6ee90910160405180910390a2505050505050565b8161472f5760405162461bcd60e51b815260206004820152600b60248201526a16915493d7d05353d5539560aa1b6044820152606401611292565b8082111561477f5760405162461bcd60e51b815260206004820152601860248201527f4e4f545f454e4f5547485f5354414b455f42414c414e434500000000000000006044820152606401611292565b33600090815261010460205260408120600181015460fe8054929391929091906147aa908490616007565b9091555050600281015460ff80546000906147c6908490616007565b90915550506000600182018190556002820181905560fc80548492906147ed908490616007565b9091555050600080825580805260038201602052604081208054859290614815908490615fef565b9091555050610105805460009061482e5761482e615fc3565b90600052602060002090600f0201600a01544261484b9190615fef565b600080805260048301602090815260408083209390935560038401815282822054925192835233927f5f1c6be51c8ec7fa7e7ddd9f798ec55927b06cfc8d9159987d1ae3358cb10b59910160405180910390a360405183815233907f0f5bb82176feb1b5e747e28471aa92156a04d9f3ab9f45f28e2d704232b93f759060200160405180910390a260006148df8484616007565b905080156118e9576118e93382614535565b336000818152610104602090815260408083208584526003810183528184208054949055905183815290939185917f3bfce8de0db7450cc169b94323c210e69a36c6a4a58c9f5d96bec4973adce392910160405180910390a36101005461010580546001600160a01b039092169163da0c1a889133918790811061497757614977615fc3565b600091825260209091206002600f9092020101546040516001600160e01b031960e085901b1681526149b892916001600160a01b0316908690600401616160565b600060405180830381600087803b1580156149d257600080fd5b505af11580156142f2573d6000803e3d6000fd5b6149f0828261331d565b611ab157600082815260c9602090815260408083206001600160a01b03851684529091529020805460ff19166001179055614a283390565b6001600160a01b0316816001600160a01b0316837f2f8788117e7eff1d82e926ec794901d17c78024a50270940304540a733656f0d60405160405180910390a45050565b614a76828261331d565b15611ab157600082815260c9602090815260408083206001600160a01b0385168085529252808320805460ff1916905551339285917ff6391f5c32d9c69d2a47ea670b442974b53935d1edc7fd64eb21e047a839171b9190a45050565b6000611ab181613e1f565b7f4910fdfa16fed3260ed0e7147f7cc6da11a60208b5b9406d12a635614ffd91435460ff1615614b1157611a08836152f1565b826001600160a01b03166352d1902d6040518163ffffffff1660e01b8152600401602060405180830381865afa925050508015614b6b575060408051601f3d908101601f19168201909252614b6891810190616184565b60015b614bce5760405162461bcd60e51b815260206004820152602e60248201527f45524331393637557067726164653a206e657720696d706c656d656e7461746960448201526d6f6e206973206e6f74205555505360901b6064820152608401611292565b6000805160206162668339815191528114614c3d5760405162461bcd60e51b815260206004820152602960248201527f45524331393637557067726164653a20756e737570706f727465642070726f786044820152681a58589b195555525160ba1b6064820152608401611292565b50611a0883838361538d565b80614c905760405162461bcd60e51b815260206004820152601760248201527610555493d49057d49155d0549114d7d0d3d35413d55391604a1b6044820152606401611292565b60026101058281548110614ca657614ca6615fc3565b60009182526020909120600e600f90920201015460ff166002811115614cce57614cce615dfd565b14614d1b5760405162461bcd60e51b815260206004820152601b60248201527f494e4143544956455f4f525f50524f504f5345445f53545245414d00000000006044820152606401611292565b6001600160a01b0382166000908152610104602052604090206001810154614d855760405162461bcd60e51b815260206004820152601f60248201527f555345525f444f45535f4e4f545f484156455f41435455414c5f5354414b45006044820152606401611292565b60006c7e37be2022c0914b26800000008260020154836005016000868152602001908152602001600020546101058681548110614dc457614dc4615fc3565b90600052602060002090600f0201600b0154614de09190616007565b614dea919061601e565b614df4919061603d565b905080614e015750505050565b600083815260038301602052604081208054839290614e21908490615fef565b9091555050610105805484908110614e3b57614e3b615fc3565b90600052602060002090600f0201600b0154826005016000858152602001908152602001600020819055506101058381548110614e7a57614e7a615fc3565b90600052602060002090600f0201600a015442614e979190615fef565b6000848152600484016020526040902055610105805482919085908110614ec057614ec0615fc3565b90600052602060002090600f02016006016000828254614ee09190615fef565b909155505060008381526003830160209081526040918290205491519182526001600160a01b0386169185917f5f1c6be51c8ec7fa7e7ddd9f798ec55927b06cfc8d9159987d1ae3358cb10b59910160405180910390a350505050565b60006101058381548110614f5357614f53615fc3565b600091825260208220600d600f90920201015491505b818110156118e9576101058481548110614f8557614f85615fc3565b90600052602060002090600f020160070154836101058681548110614fac57614fac615fc3565b90600052602060002090600f0201600c016001018381548110614fd157614fd1615fc3565b9060005260206000200154614fe6919061601e565b614ff0919061603d565b610105858154811061500457615004615fc3565b90600052602060002090600f0201600c01600101828154811061502957615029615fc3565b6000918252602090912001558061503f816160ad565b915050614f69565b6040516001600160a01b038316602482015260448101829052611a0890849063a9059cbb60e01b9060640161431c565b61507f6153b2565b6150876153b2565b6150926000336149e6565b6150bc7f139c2898040ef16910dc9f44dc697df79363da767d8bc92f2e310312b816e46d336149e6565b60fb55565b6150cb828261331d565b611ab1576150e3816001600160a01b0316601461541f565b6150ee83602061541f565b6040516020016150ff9291906161b9565b60408051601f198184030181529082905262461bcd60e51b825261129291600401615fb0565b600061517a826040518060400160405280602081526020017f5361666545524332303a206c6f772d6c6576656c2063616c6c206661696c6564815250856001600160a01b03166155bb9092919063ffffffff16565b805190915015611a085780806020019051810190615198919061605f565b611a085760405162461bcd60e51b815260206004820152602a60248201527f5361666545524332303a204552433230206f7065726174696f6e20646964206e6044820152691bdd081cdd58d8d9595960b21b6064820152608401611292565b6000806228207261010560008154811061521357615213615fc3565b90600052602060002090600f0201600c0160000160008154811061523957615239615fc3565b906000526020600020015461524e9190615fef565b90506000615260630786156083615fef565b90508184116152805761010254615277908661601e565b92505050610df3565b8084106152955761010354615277908661601e565b61529f8282616007565b6152a98583616007565b61010354610102546152bb9190616007565b6152c5908861601e565b6152cf919061601e565b6152d9919061603d565b610103546152e7908761601e565b613cf79190615fef565b6001600160a01b0381163b61535e5760405162461bcd60e51b815260206004820152602d60248201527f455243313936373a206e657720696d706c656d656e746174696f6e206973206e60448201526c1bdd08184818dbdb9d1c9858dd609a1b6064820152608401611292565b60008051602061626683398151915280546001600160a01b0319166001600160a01b0392909216919091179055565b615396836155ca565b6000825111806153a35750805b15611a08576118e9838361560a565b600054610100900460ff1661541d5760405162461bcd60e51b815260206004820152602b60248201527f496e697469616c697a61626c653a20636f6e7472616374206973206e6f74206960448201526a6e697469616c697a696e6760a81b6064820152608401611292565b565b6060600061542e83600261601e565b615439906002615fef565b67ffffffffffffffff8111156154515761545161594e565b6040519080825280601f01601f19166020018201604052801561547b576020820181803683370190505b509050600360fc1b8160008151811061549657615496615fc3565b60200101906001600160f81b031916908160001a905350600f60fb1b816001815181106154c5576154c5615fc3565b60200101906001600160f81b031916908160001a90535060006154e984600261601e565b6154f4906001615fef565b90505b600181111561556c576f181899199a1a9b1b9c1cb0b131b232b360811b85600f166010811061552857615528615fc3565b1a60f81b82828151811061553e5761553e615fc3565b60200101906001600160f81b031916908160001a90535060049490941c936155658161622e565b90506154f7565b5083156111615760405162461bcd60e51b815260206004820181905260248201527f537472696e67733a20686578206c656e67746820696e73756666696369656e746044820152606401611292565b6060611f4384846000856156f5565b6155d3816152f1565b6040516001600160a01b038216907fbc7cd75a20ee27fd9adebab32041f755214dbc6bffa90cc0225b39da2e5c2d3b90600090a250565b60606001600160a01b0383163b6156725760405162461bcd60e51b815260206004820152602660248201527f416464726573733a2064656c65676174652063616c6c20746f206e6f6e2d636f6044820152651b9d1c9858dd60d21b6064820152608401611292565b600080846001600160a01b03168460405161568d919061619d565b600060405180830381855af49150503d80600081146156c8576040519150601f19603f3d011682016040523d82523d6000602084013e6156cd565b606091505b5091509150613cf7828260405180606001604052806027815260200161628660279139615817565b6060824710156157565760405162461bcd60e51b815260206004820152602660248201527f416464726573733a20696e73756666696369656e742062616c616e636520666f6044820152651c8818d85b1b60d21b6064820152608401611292565b6001600160a01b0385163b6157ad5760405162461bcd60e51b815260206004820152601d60248201527f416464726573733a2063616c6c20746f206e6f6e2d636f6e74726163740000006044820152606401611292565b600080866001600160a01b031685876040516157c9919061619d565b60006040518083038185875af1925050503d8060008114615806576040519150601f19603f3d011682016040523d82523d6000602084013e61580b565b606091505b509150915061166c8282865b60608315615826575081611161565b8251156158365782518084602001fd5b8160405162461bcd60e51b81526004016112929190615fb0565b82805482825590600052602060002090810192821561588b579160200282015b8281111561588b578251825591602001919060010190615870565b5061589792915061589b565b5090565b5b80821115615897576000815560010161589c565b6000602082840312156158c257600080fd5b81356001600160e01b03198116811461116157600080fd5b6000806000606084860312156158ef57600080fd5b505081359360208301359350604090920135919050565b80356001600160a01b038116811461591d57600080fd5b919050565b6000806040838503121561593557600080fd5b8235915061594560208401615906565b90509250929050565b634e487b7160e01b600052604160045260246000fd5b604051601f8201601f1916810167ffffffffffffffff8111828210171561598d5761598d61594e565b604052919050565b600082601f8301126159a657600080fd5b8135602067ffffffffffffffff8211156159c2576159c261594e565b8160051b6159d1828201615964565b92835284810182019282810190878511156159eb57600080fd5b83870192505b8483101561166c578235825291830191908301906159f1565b600080600080600080600080610100898b031215615a2757600080fd5b615a3089615906565b9750615a3e60208a01615906565b965060408901359550606089013594506080890135935060a089013567ffffffffffffffff80821115615a7057600080fd5b615a7c8c838d01615995565b945060c08b0135915080821115615a9257600080fd5b50615a9f8b828c01615995565b92505060e089013590509295985092959890939650565b600060208284031215615ac857600080fd5b5035919050565b60008083601f840112615ae157600080fd5b50813567ffffffffffffffff811115615af957600080fd5b6020830191508360208260051b8501011115615b1457600080fd5b9250929050565b60008060008060408587031215615b3157600080fd5b843567ffffffffffffffff80821115615b4957600080fd5b615b5588838901615acf565b90965094506020870135915080821115615b6e57600080fd5b50615b7b87828801615acf565b95989497509550505050565b60008060208385031215615b9a57600080fd5b823567ffffffffffffffff811115615bb157600080fd5b615bbd85828601615acf565b90969095509350505050565b60008060408385031215615bdc57600080fd5b615be583615906565b946020939093013593505050565b600060208284031215615c0557600080fd5b61116182615906565b60008060408385031215615c2157600080fd5b50508035926020909101359150565b60008060408385031215615c4357600080fd5b615c4c83615906565b915060208084013567ffffffffffffffff80821115615c6a57600080fd5b818601915086601f830112615c7e57600080fd5b813581811115615c9057615c9061594e565b615ca2601f8201601f19168501615964565b91508082528784828501011115615cb857600080fd5b80848401858401376000848284010152508093505050509250929050565b600080600080600060608688031215615cee57600080fd5b853567ffffffffffffffff80821115615d0657600080fd5b615d1289838a01615acf565b90975095506020880135915080821115615d2b57600080fd5b50615d3888828901615acf565b96999598509660400135949350505050565b600080600060408486031215615d5f57600080fd5b615d6884615906565b9250602084013567ffffffffffffffff811115615d8457600080fd5b615d9086828701615acf565b9497909650939450505050565b600081518084526020808501945080840160005b83811015615dcd57815187529582019590820190600101615db1565b509495945050505050565b604081526000615deb6040830185615d9d565b8281036020840152613cf78185615d9d565b634e487b7160e01b600052602160045260246000fd5b6001600160a01b038c811682528b166020820152604081018a9052606081018990526080810188905260a0810187905260c0810186905260e0810185905261010081018490526101208101839052610160810160038310615e8457634e487b7160e01b600052602160045260246000fd5b826101408301529c9b505050505050505050505050565b60008060008060008060008060006101208a8c031215615eba57600080fd5b615ec38a615906565b9850615ed160208b01615906565b975060408a013567ffffffffffffffff80821115615eee57600080fd5b615efa8d838e01615995565b985060608c0135915080821115615f1057600080fd5b50615f1d8c828d01615995565b96505060808a0135945060a08a01359350615f3a60c08b01615906565b925060e08a013591506101008a013590509295985092959850929598565b60005b83811015615f73578181015183820152602001615f5b565b838111156118e95750506000910152565b60008151808452615f9c816020860160208601615f58565b601f01601f19169290920160200192915050565b6020815260006111616020830184615f84565b634e487b7160e01b600052603260045260246000fd5b634e487b7160e01b600052601160045260246000fd5b6000821982111561600257616002615fd9565b500190565b60008282101561601957616019615fd9565b500390565b600081600019048311821515161561603857616038615fd9565b500290565b60008261605a57634e487b7160e01b600052601260045260246000fd5b500490565b60006020828403121561607157600080fd5b8151801515811461116157600080fd5b60208082526012908201527110d3d395149050d517d254d7d4105554d15160721b604082015260600190565b60006000198214156160c1576160c1615fd9565b5060010190565b6020808252602c908201527f46756e6374696f6e206d7573742062652063616c6c6564207468726f7567682060408201526b19195b1959d85d1958d85b1b60a21b606082015260800190565b6020808252602c908201527f46756e6374696f6e206d7573742062652063616c6c6564207468726f7567682060408201526b6163746976652070726f787960a01b606082015260800190565b6001600160a01b039384168152919092166020820152604081019190915260600190565b60006020828403121561619657600080fd5b5051919050565b600082516161af818460208701615f58565b9190910192915050565b7f416363657373436f6e74726f6c3a206163636f756e74200000000000000000008152600083516161f1816017850160208801615f58565b7001034b99036b4b9b9b4b733903937b6329607d1b6017918401918201528351616222816028840160208801615f58565b01602801949350505050565b60008161623d5761623d615fd9565b50600019019056fe930802d0eadfb856cb83e01d1c4daa3c89e9c6d9f74cfbe13124decf2b33128a360894a13ba1a3210667c828492db98dca3e2076cc3735a920a3ca505d382bbc416464726573733a206c6f772d6c6576656c2064656c65676174652063616c6c206661696c6564f7db13299c8a9e501861f04c20f69a2444829a36a363cfad4b58864709c755603a2f235c9daaf33349d300aadff2f15078a89df81bcfdd45ba11c8f816bddc6fa2646970667358221220ce3e8c5fad0876f49dac99ad78b09cda55dab87c0466a0633314e5cea6fbd0e964736f6c634300080a0033",
    "linkReferences": {}
  },
  "methodIdentifiers": {
    "AIRDROP_ROLE()": "1e0fbfa2",
    "CLAIM_ROLE()": "86c1b4eb",
    "DEFAULT_ADMIN_ROLE()": "a217fddf",
    "FOUR_YEARS()": "fe904b7a",
    "ONE_MONTH()": "20988cef",
    "PAUSE_ROLE()": "389ed267",
    "STREAM_MANAGER_ROLE()": "3ea005c8",
    "adminDelegatecall(address,bytes)": "b8e9744c",
    "adminPause(uint256)": "2692c59f",
    "adminSstore(uint256,uint256)": "be831a2e",
    "adminSstoreWithMask(uint256,uint256,uint256)": "6c4624c3",
    "auroraToken()": "5578fdb2",
    "batchClaimOnBehalfOfAnotherUser(address,uint256[])": "6458edd3",
    "batchClaimOnBehalfOfOtherUsers(address[],uint256[])": "26cdddb9",
    "batchMoveRewardsToPending(uint256[])": "687dd46c",
    "batchWithdraw(uint256[])": "72e55399",
    "cancelStreamProposal(uint256)": "90403322",
    "claimAllOnBehalfOfAnotherUser(address)": "d5050aed",
    "claimAllOnBehalfOfOtherUsers(address[])": "27571969",
    "claimOnBehalfOfAnotherUser(address,uint256)": "3e9a44cb",
    "createStream(uint256,uint256)": "8d40bd03",
    "getAmountOfShares(uint256,address)": "0efd8310",
    "getLatestRewardPerShare(uint256)": "12dd67fe",
    "getPending(uint256,address)": "7f37df3b",
    "getReleaseTime(uint256,address)": "c8927723",
    "getRewardPerShare(uint256)": "993b21c1",
    "getRewardPerShareForUser(uint256,address)": "1dd00452",
    "getRewardsAmount(uint256,uint256)": "36630cc7",
    "getRoleAdmin(bytes32)": "248a9ca3",
    "getStream(uint256)": "894e9a0d",
    "getStreamClaimableAmount(uint256,address)": "1c61e617",
    "getStreamOwnerClaimableAmount(uint256)": "396a6c14",
    "getStreamSchedule(uint256)": "70bc770c",
    "getStreamsCount()": "e335e79a",
    "getTotalAmountOfStakedAurora()": "cd5ba590",
    "getTreasuryBalance(address)": "57baeac8",
    "getUserShares(address)": "ba0cb22b",
    "getUserTotalDeposit(address)": "a4c828dc",
    "grantRole(bytes32,address)": "2f2ff15d",
    "hasRole(bytes32,address)": "91d14854",
    "initialize(address,address,uint256[],uint256[],uint256,uint256,address,uint256,uint256)": "a81c6a15",
    "maxWeight()": "a8b0bb83",
    "minWeight()": "0c2ee55e",
    "moveAllRewardsToPending()": "8bc34e77",
    "moveRewardsToPending(uint256)": "ee13ad8e",
    "paused()": "5c975abb",
    "proposeStream(address,address,uint256,uint256,uint256,uint256[],uint256[],uint256)": "1194ebeb",
    "proxiableUUID()": "52d1902d",
    "releaseAuroraRewardsToStreamOwner(uint256)": "9c52a920",
    "removeStream(uint256,address)": "3ba31abf",
    "renounceRole(bytes32,address)": "36568abe",
    "revokeRole(bytes32,address)": "d547741f",
    "rewardsSchedule(uint256,uint256,uint256)": "03687788",
    "stake(uint256)": "a694fc3a",
    "stakeOnBehalfOfAnotherUser(address,uint256)": "2ca783f3",
    "stakeOnBehalfOfOtherUsers(address[],uint256[],uint256)": "53a4cca0",
    "startEndScheduleIndex(uint256,uint256,uint256)": "4981912e",
    "supportsInterface(bytes4)": "01ffc9a7",
    "totalAmountOfStakedAurora()": "3895a275",
    "totalAuroraShares()": "bb07ec1b",
    "totalStreamShares()": "6db8e53d",
    "touchedAt()": "1fd8c5f4",
    "treasury()": "61d027b3",
    "unstake(uint256)": "2e17de78",
    "unstakeAll()": "35322f37",
    "updateTreasury(address)": "7f51bb1f",
    "upgradeTo(address)": "3659cfe6",
    "upgradeToAndCall(address,bytes)": "4f1ef286",
    "users(address)": "a87430ba",
    "withdraw(uint256)": "2e1a7d4d",
    "withdrawAll()": "853828b6"
  },
  "id": 28
}