{
  "abi": [
    {
      "inputs": [],
      "stateMutability": "nonpayable",
      "type": "constructor"
    },
    {
      "anonymous": false,
      "inputs": [
        {
          "indexed": false,
          "internalType": "address",
          "name": "previousAdmin",
          "type": "address"
        },
        {
          "indexed": false,
          "internalType": "address",
          "name": "newAdmin",
          "type": "address"
        }
      ],
      "name": "AdminChanged",
      "type": "event"
    },
    {
      "anonymous": false,
      "inputs": [
        {
          "indexed": true,
          "internalType": "address",
          "name": "beacon",
          "type": "address"
        }
      ],
      "name": "BeaconUpgraded",
      "type": "event"
    },
    {
      "anonymous": false,
      "inputs": [
        {
          "indexed": true,
          "internalType": "bytes32",
          "name": "role",
          "type": "bytes32"
        },
        {
          "indexed": true,
          "internalType": "bytes32",
          "name": "previousAdminRole",
          "type": "bytes32"
        },
        {
          "indexed": true,
          "internalType": "bytes32",
          "name": "newAdminRole",
          "type": "bytes32"
        }
      ],
      "name": "RoleAdminChanged",
      "type": "event"
    },
    {
      "anonymous": false,
      "inputs": [
        {
          "indexed": true,
          "internalType": "bytes32",
          "name": "role",
          "type": "bytes32"
        },
        {
          "indexed": true,
          "internalType": "address",
          "name": "account",
          "type": "address"
        },
        {
          "indexed": true,
          "internalType": "address",
          "name": "sender",
          "type": "address"
        }
      ],
      "name": "RoleGranted",
      "type": "event"
    },
    {
      "anonymous": false,
      "inputs": [
        {
          "indexed": true,
          "internalType": "bytes32",
          "name": "role",
          "type": "bytes32"
        },
        {
          "indexed": true,
          "internalType": "address",
          "name": "account",
          "type": "address"
        },
        {
          "indexed": true,
          "internalType": "address",
          "name": "sender",
          "type": "address"
        }
      ],
      "name": "RoleRevoked",
      "type": "event"
    },
    {
      "anonymous": false,
      "inputs": [
        {
          "indexed": true,
          "internalType": "address",
          "name": "token",
          "type": "address"
        },
        {
          "indexed": true,
          "internalType": "address",
          "name": "addedBy",
          "type": "address"
        },
        {
          "indexed": false,
          "internalType": "uint256",
          "name": "timestamp",
          "type": "uint256"
        }
      ],
      "name": "TokenAdded",
      "type": "event"
    },
    {
      "anonymous": false,
      "inputs": [
        {
          "indexed": true,
          "internalType": "address",
          "name": "token",
          "type": "address"
        },
        {
          "indexed": true,
          "internalType": "address",
          "name": "addedBy",
          "type": "address"
        },
        {
          "indexed": false,
          "internalType": "uint256",
          "name": "timestamp",
          "type": "uint256"
        }
      ],
      "name": "TokenRemoved",
      "type": "event"
    },
    {
      "anonymous": false,
      "inputs": [
        {
          "indexed": true,
          "internalType": "address",
          "name": "implementation",
          "type": "address"
        }
      ],
      "name": "Upgraded",
      "type": "event"
    },
    {
      "inputs": [],
      "name": "DEFAULT_ADMIN_ROLE",
      "outputs": [
        {
          "internalType": "bytes32",
          "name": "",
          "type": "bytes32"
        }
      ],
      "stateMutability": "view",
      "type": "function"
    },
    {
      "inputs": [],
      "name": "PAUSE_ROLE",
      "outputs": [
        {
          "internalType": "bytes32",
          "name": "",
          "type": "bytes32"
        }
      ],
      "stateMutability": "view",
      "type": "function"
    },
    {
      "inputs": [],
      "name": "TREASURY_MANAGER_ROLE",
      "outputs": [
        {
          "internalType": "bytes32",
          "name": "",
          "type": "bytes32"
        }
      ],
      "stateMutability": "view",
      "type": "function"
    },
    {
      "inputs": [
        {
          "internalType": "address",
          "name": "_token",
          "type": "address"
        }
      ],
      "name": "addSupportedToken",
      "outputs": [],
      "stateMutability": "nonpayable",
      "type": "function"
    },
    {
      "inputs": [
        {
          "internalType": "address",
          "name": "target",
          "type": "address"
        },
        {
          "internalType": "bytes",
          "name": "data",
          "type": "bytes"
        }
      ],
      "name": "adminDelegatecall",
      "outputs": [
        {
          "internalType": "bytes",
          "name": "",
          "type": "bytes"
        }
      ],
      "stateMutability": "payable",
      "type": "function"
    },
    {
      "inputs": [
        {
          "internalType": "uint256",
          "name": "flags",
          "type": "uint256"
        }
      ],
      "name": "adminPause",
      "outputs": [],
      "stateMutability": "nonpayable",
      "type": "function"
    },
    {
      "inputs": [
        {
          "internalType": "uint256",
          "name": "key",
          "type": "uint256"
        },
        {
          "internalType": "uint256",
          "name": "value",
          "type": "uint256"
        }
      ],
      "name": "adminSstore",
      "outputs": [],
      "stateMutability": "nonpayable",
      "type": "function"
    },
    {
      "inputs": [
        {
          "internalType": "uint256",
          "name": "key",
          "type": "uint256"
        },
        {
          "internalType": "uint256",
          "name": "value",
          "type": "uint256"
        },
        {
          "internalType": "uint256",
          "name": "mask",
          "type": "uint256"
        }
      ],
      "name": "adminSstoreWithMask",
      "outputs": [],
      "stateMutability": "nonpayable",
      "type": "function"
    },
    {
      "inputs": [
        {
          "internalType": "bytes32",
          "name": "role",
          "type": "bytes32"
        }
      ],
      "name": "getRoleAdmin",
      "outputs": [
        {
          "internalType": "bytes32",
          "name": "",
          "type": "bytes32"
        }
      ],
      "stateMutability": "view",
      "type": "function"
    },
    {
      "inputs": [
        {
          "internalType": "bytes32",
          "name": "role",
          "type": "bytes32"
        },
        {
          "internalType": "address",
          "name": "account",
          "type": "address"
        }
      ],
      "name": "grantRole",
      "outputs": [],
      "stateMutability": "nonpayable",
      "type": "function"
    },
    {
      "inputs": [
        {
          "internalType": "bytes32",
          "name": "role",
          "type": "bytes32"
        },
        {
          "internalType": "address",
          "name": "account",
          "type": "address"
        }
      ],
      "name": "hasRole",
      "outputs": [
        {
          "internalType": "bool",
          "name": "",
          "type": "bool"
        }
      ],
      "stateMutability": "view",
      "type": "function"
    },
    {
      "inputs": [
        {
          "internalType": "address[]",
          "name": "_supportedTokens",
          "type": "address[]"
        },
        {
          "internalType": "uint256",
          "name": "_flags",
          "type": "uint256"
        }
      ],
      "name": "initialize",
      "outputs": [],
      "stateMutability": "nonpayable",
      "type": "function"
    },
    {
      "inputs": [
        {
          "internalType": "address",
          "name": "",
          "type": "address"
        }
      ],
      "name": "isSupportedToken",
      "outputs": [
        {
          "internalType": "bool",
          "name": "",
          "type": "bool"
        }
      ],
      "stateMutability": "view",
      "type": "function"
    },
    {
      "inputs": [],
      "name": "paused",
      "outputs": [
        {
          "internalType": "uint256",
          "name": "",
          "type": "uint256"
        }
      ],
      "stateMutability": "view",
      "type": "function"
    },
    {
      "inputs": [
        {
          "internalType": "address",
          "name": "_user",
          "type": "address"
        },
        {
          "internalType": "address",
          "name": "_token",
          "type": "address"
        },
        {
          "internalType": "uint256",
          "name": "_amount",
          "type": "uint256"
        }
      ],
      "name": "payRewards",
      "outputs": [],
      "stateMutability": "nonpayable",
      "type": "function"
    },
    {
      "inputs": [
        {
          "internalType": "address",
          "name": "_token",
          "type": "address"
        }
      ],
      "name": "removeSupportedToken",
      "outputs": [],
      "stateMutability": "nonpayable",
      "type": "function"
    },
    {
      "inputs": [
        {
          "internalType": "bytes32",
          "name": "role",
          "type": "bytes32"
        },
        {
          "internalType": "address",
          "name": "account",
          "type": "address"
        }
      ],
      "name": "renounceRole",
      "outputs": [],
      "stateMutability": "nonpayable",
      "type": "function"
    },
    {
      "inputs": [
        {
          "internalType": "bytes32",
          "name": "role",
          "type": "bytes32"
        },
        {
          "internalType": "address",
          "name": "account",
          "type": "address"
        }
      ],
      "name": "revokeRole",
      "outputs": [],
      "stateMutability": "nonpayable",
      "type": "function"
    },
    {
      "inputs": [
        {
          "internalType": "bytes4",
          "name": "interfaceId",
          "type": "bytes4"
        }
      ],
      "name": "supportsInterface",
      "outputs": [
        {
          "internalType": "bool",
          "name": "",
          "type": "bool"
        }
      ],
      "stateMutability": "view",
      "type": "function"
    },
    {
      "inputs": [
        {
          "internalType": "address",
          "name": "newImplementation",
          "type": "address"
        }
      ],
      "name": "upgradeTo",
      "outputs": [],
      "stateMutability": "nonpayable",
      "type": "function"
    },
    {
      "inputs": [
        {
          "internalType": "address",
          "name": "newImplementation",
          "type": "address"
        },
        {
          "internalType": "bytes",
          "name": "data",
          "type": "bytes"
        }
      ],
      "name": "upgradeToAndCall",
      "outputs": [],
      "stateMutability": "payable",
      "type": "function"
    }
  ],
  "bytecode": {
    "object": "0x60a0604052306080523480156200001557600080fd5b50600054610100900460ff16620000335760005460ff16156200003d565b6200003d620000e2565b620000a55760405162461bcd60e51b815260206004820152602e60248201527f496e697469616c697a61626c653a20636f6e747261637420697320616c72656160448201526d191e481a5b9a5d1a585b1a5e995960921b606482015260840160405180910390fd5b600054610100900460ff16158015620000c8576000805461ffff19166101011790555b8015620000db576000805461ff00191690555b5062000106565b6000620000fa306200010060201b62000ce31760201c565b15905090565b3b151590565b608051611c81620001376000396000818161058d015281816105cd0152818161065601526106960152611c816000f3fe60806040526004361061012a5760003560e01c806360b5bb3f116100ab578063a217fddf1161006f578063a217fddf14610351578063b8e9744c14610366578063be831a2e14610386578063d547741f146103a6578063da0c1a88146103c6578063ebdf690f146103e657600080fd5b806360b5bb3f146102b15780636c4624c3146102d15780636d69fcaf146102f1578063763191901461031157806391d148541461033157600080fd5b806336568abe116100f257806336568abe146102145780633659cfe614610234578063389ed267146102545780634f1ef286146102885780635c975abb1461029b57600080fd5b806301ffc9a71461012f578063240028e814610164578063248a9ca3146101945780632692c59f146101d25780632f2ff15d146101f4575b600080fd5b34801561013b57600080fd5b5061014f61014a36600461169e565b610408565b60405190151581526020015b60405180910390f35b34801561017057600080fd5b5061014f61017f3660046116e4565b60fc6020526000908152604090205460ff1681565b3480156101a057600080fd5b506101c46101af3660046116ff565b600090815260c9602052604090206001015490565b60405190815260200161015b565b3480156101de57600080fd5b506101f26101ed3660046116ff565b61043f565b005b34801561020057600080fd5b506101f261020f366004611718565b6104d9565b34801561022057600080fd5b506101f261022f366004611718565b610504565b34801561024057600080fd5b506101f261024f3660046116e4565b610582565b34801561026057600080fd5b506101c47f139c2898040ef16910dc9f44dc697df79363da767d8bc92f2e310312b816e46d81565b6101f261029636600461178b565b61064b565b3480156102a757600080fd5b506101c460fb5481565b3480156102bd57600080fd5b506101f26102cc366004611831565b610701565b3480156102dd57600080fd5b506101f26102ec3660046118e4565b6108b9565b3480156102fd57600080fd5b506101f261030c3660046116e4565b6108d1565b34801561031d57600080fd5b506101f261032c3660046116e4565b610a0b565b34801561033d57600080fd5b5061014f61034c366004611718565b610b34565b34801561035d57600080fd5b506101c4600081565b61037961037436600461178b565b610b5f565b60405161015b9190611968565b34801561039257600080fd5b506101f26103a136600461197b565b610c25565b3480156103b257600080fd5b506101f26103c1366004611718565b610c36565b3480156103d257600080fd5b506101f26103e136600461199d565b610c5c565b3480156103f257600080fd5b506101c4600080516020611c2c83398151915281565b60006001600160e01b03198216637965db0b60e01b148061043957506301ffc9a760e01b6001600160e01b03198316145b92915050565b7f139c2898040ef16910dc9f44dc697df79363da767d8bc92f2e310312b816e46d61046a8133610ce9565b60fb5482811614806104825750610482600033610b34565b6104d35760405162461bcd60e51b815260206004820152601e60248201527f4f4e4c595f44454641554c545f41444d494e5f43414e5f554e5041555345000060448201526064015b60405180910390fd5b5060fb55565b600082815260c960205260409020600101546104f58133610ce9565b6104ff8383610d4d565b505050565b6001600160a01b03811633146105745760405162461bcd60e51b815260206004820152602f60248201527f416363657373436f6e74726f6c3a2063616e206f6e6c792072656e6f756e636560448201526e103937b632b9903337b91039b2b63360891b60648201526084016104ca565b61057e8282610dd3565b5050565b306001600160a01b037f00000000000000000000000000000000000000000000000000000000000000001614156105cb5760405162461bcd60e51b81526004016104ca906119d9565b7f00000000000000000000000000000000000000000000000000000000000000006001600160a01b03166105fd610e3a565b6001600160a01b0316146106235760405162461bcd60e51b81526004016104ca90611a25565b61062c81610e68565b6040805160008082526020820190925261064891839190610e74565b50565b306001600160a01b037f00000000000000000000000000000000000000000000000000000000000000001614156106945760405162461bcd60e51b81526004016104ca906119d9565b7f00000000000000000000000000000000000000000000000000000000000000006001600160a01b03166106c6610e3a565b6001600160a01b0316146106ec5760405162461bcd60e51b81526004016104ca90611a25565b6106f582610e68565b61057e82826001610e74565b600054610100900460ff1661071c5760005460ff1615610720565b303b155b6107835760405162461bcd60e51b815260206004820152602e60248201527f496e697469616c697a61626c653a20636f6e747261637420697320616c72656160448201526d191e481a5b9a5d1a585b1a5e995960921b60648201526084016104ca565b600054610100900460ff161580156107a5576000805461ffff19166101011790555b60005b83518110156108815760006001600160a01b03168482815181106107ce576107ce611a71565b60200260200101516001600160a01b031614156108255760405162461bcd60e51b8152602060048201526015602482015274494e56414c49445f544f4b454e5f4144445245535360581b60448201526064016104ca565b600160fc600086848151811061083d5761083d611a71565b6020908102919091018101516001600160a01b03168252810191909152604001600020805460ff19169115159190911790558061087981611a9d565b9150506107a8565b5061088b82610fbf565b6108a3600080516020611c2c83398151915233610d4d565b80156104ff576000805461ff0019169055505050565b60006108c58133610ce9565b50825491821816189055565b60018060fb5416600014806108ec57506108ec600033610b34565b61092d5760405162461bcd60e51b815260206004820152601260248201527110d3d395149050d517d254d7d4105554d15160721b60448201526064016104ca565b600080516020611c2c8339815191526109468133610ce9565b6001600160a01b038316600090815260fc602052604090205460ff16156109a65760405162461bcd60e51b8152602060048201526014602482015273544f4b454e5f414c52454144595f45584953545360601b60448201526064016104ca565b6001600160a01b038316600081815260fc602052604090819020805460ff19166001179055513391907f7156d0b8d9ed8d1117b97d76a15a304bad2749fc23251c2c7ed65a0698952850906109fe9042815260200190565b60405180910390a3505050565b60018060fb541660001480610a265750610a26600033610b34565b610a675760405162461bcd60e51b815260206004820152601260248201527110d3d395149050d517d254d7d4105554d15160721b60448201526064016104ca565b600080516020611c2c833981519152610a808133610ce9565b6001600160a01b038316600090815260fc602052604090205460ff16610adf5760405162461bcd60e51b81526020600482015260146024820152731513d2d15397d113d154d7d393d517d1561254d560621b60448201526064016104ca565b6001600160a01b038316600081815260fc602052604090819020805460ff19169055513391907feddce3117927831e55f862ee4b16c60ba431908fc8404f5a2d40c2ac163c3b14906109fe9042815260200190565b600091825260c9602090815260408084206001600160a01b0393909316845291905290205460ff1690565b60606000610b6d8133610ce9565b6001600160a01b038416610bb25760405162461bcd60e51b815260206004820152600c60248201526b5a45524f5f4144445245535360a01b60448201526064016104ca565b600080856001600160a01b031685604051610bcd9190611ab8565b600060405180830381855af49150503d8060008114610c08576040519150601f19603f3d011682016040523d82523d6000602084013e610c0d565b606091505b509150915081610c1c57600080fd5b95945050505050565b6000610c318133610ce9565b509055565b600082815260c96020526040902060010154610c528133610ce9565b6104ff8383610dd3565b6000610c688133610ce9565b6001600160a01b038316600090815260fc602052604090205460ff16610cc95760405162461bcd60e51b81526020600482015260166024820152751513d2d15397d254d7d393d517d4d5541413d495115160521b60448201526064016104ca565b610cdd6001600160a01b0384168584611009565b50505050565b3b151590565b610cf38282610b34565b61057e57610d0b816001600160a01b0316601461105b565b610d1683602061105b565b604051602001610d27929190611ad4565b60408051601f198184030181529082905262461bcd60e51b82526104ca91600401611968565b610d578282610b34565b61057e57600082815260c9602090815260408083206001600160a01b03851684529091529020805460ff19166001179055610d8f3390565b6001600160a01b0316816001600160a01b0316837f2f8788117e7eff1d82e926ec794901d17c78024a50270940304540a733656f0d60405160405180910390a45050565b610ddd8282610b34565b1561057e57600082815260c9602090815260408083206001600160a01b0385168085529252808320805460ff1916905551339285917ff6391f5c32d9c69d2a47ea670b442974b53935d1edc7fd64eb21e047a839171b9190a45050565b7f360894a13ba1a3210667c828492db98dca3e2076cc3735a920a3ca505d382bbc546001600160a01b031690565b600061057e8133610ce9565b6000610e7e610e3a565b9050610e89846111fe565b600083511180610e965750815b15610ea757610ea584846112a3565b505b7f4910fdfa16fed3260ed0e7147f7cc6da11a60208b5b9406d12a635614ffd9143805460ff16610fb857805460ff191660011781556040516001600160a01b0383166024820152610f2690869060440160408051601f198184030181529190526020810180516001600160e01b0316631b2ce7f360e11b1790526112a3565b50805460ff19168155610f37610e3a565b6001600160a01b0316826001600160a01b031614610faf5760405162461bcd60e51b815260206004820152602f60248201527f45524331393637557067726164653a207570677261646520627265616b73206660448201526e75727468657220757067726164657360881b60648201526084016104ca565b610fb885611385565b5050505050565b610fc76113c5565b610fcf6113fe565b610fda600033610d4d565b6110047f139c2898040ef16910dc9f44dc697df79363da767d8bc92f2e310312b816e46d33610d4d565b60fb55565b604080516001600160a01b038416602482015260448082018490528251808303909101815260649091019091526020810180516001600160e01b031663a9059cbb60e01b1790526104ff90849061142d565b6060600061106a836002611b49565b611075906002611b68565b67ffffffffffffffff81111561108d5761108d611744565b6040519080825280601f01601f1916602001820160405280156110b7576020820181803683370190505b509050600360fc1b816000815181106110d2576110d2611a71565b60200101906001600160f81b031916908160001a905350600f60fb1b8160018151811061110157611101611a71565b60200101906001600160f81b031916908160001a9053506000611125846002611b49565b611130906001611b68565b90505b60018111156111a8576f181899199a1a9b1b9c1cb0b131b232b360811b85600f166010811061116457611164611a71565b1a60f81b82828151811061117a5761117a611a71565b60200101906001600160f81b031916908160001a90535060049490941c936111a181611b80565b9050611133565b5083156111f75760405162461bcd60e51b815260206004820181905260248201527f537472696e67733a20686578206c656e67746820696e73756666696369656e7460448201526064016104ca565b9392505050565b803b6112625760405162461bcd60e51b815260206004820152602d60248201527f455243313936373a206e657720696d706c656d656e746174696f6e206973206e60448201526c1bdd08184818dbdb9d1c9858dd609a1b60648201526084016104ca565b7f360894a13ba1a3210667c828492db98dca3e2076cc3735a920a3ca505d382bbc80546001600160a01b0319166001600160a01b0392909216919091179055565b6060823b6113025760405162461bcd60e51b815260206004820152602660248201527f416464726573733a2064656c65676174652063616c6c20746f206e6f6e2d636f6044820152651b9d1c9858dd60d21b60648201526084016104ca565b600080846001600160a01b03168460405161131d9190611ab8565b600060405180830381855af49150503d8060008114611358576040519150601f19603f3d011682016040523d82523d6000602084013e61135d565b606091505b5091509150610c1c8282604051806060016040528060278152602001611c05602791396114ff565b61138e816111fe565b6040516001600160a01b038216907fbc7cd75a20ee27fd9adebab32041f755214dbc6bffa90cc0225b39da2e5c2d3b90600090a250565b600054610100900460ff166113ec5760405162461bcd60e51b81526004016104ca90611b97565b6113f4611538565b6113fc611538565b565b600054610100900460ff166114255760405162461bcd60e51b81526004016104ca90611b97565b6113ec611538565b6000611482826040518060400160405280602081526020017f5361666545524332303a206c6f772d6c6576656c2063616c6c206661696c6564815250856001600160a01b031661155f9092919063ffffffff16565b8051909150156104ff57808060200190518101906114a09190611be2565b6104ff5760405162461bcd60e51b815260206004820152602a60248201527f5361666545524332303a204552433230206f7065726174696f6e20646964206e6044820152691bdd081cdd58d8d9595960b21b60648201526084016104ca565b6060831561150e5750816111f7565b82511561151e5782518084602001fd5b8160405162461bcd60e51b81526004016104ca9190611968565b600054610100900460ff166113fc5760405162461bcd60e51b81526004016104ca90611b97565b606061156e8484600085611576565b949350505050565b6060824710156115d75760405162461bcd60e51b815260206004820152602660248201527f416464726573733a20696e73756666696369656e742062616c616e636520666f6044820152651c8818d85b1b60d21b60648201526084016104ca565b843b6116255760405162461bcd60e51b815260206004820152601d60248201527f416464726573733a2063616c6c20746f206e6f6e2d636f6e747261637400000060448201526064016104ca565b600080866001600160a01b031685876040516116419190611ab8565b60006040518083038185875af1925050503d806000811461167e576040519150601f19603f3d011682016040523d82523d6000602084013e611683565b606091505b50915091506116938282866114ff565b979650505050505050565b6000602082840312156116b057600080fd5b81356001600160e01b0319811681146111f757600080fd5b80356001600160a01b03811681146116df57600080fd5b919050565b6000602082840312156116f657600080fd5b6111f7826116c8565b60006020828403121561171157600080fd5b5035919050565b6000806040838503121561172b57600080fd5b8235915061173b602084016116c8565b90509250929050565b634e487b7160e01b600052604160045260246000fd5b604051601f8201601f1916810167ffffffffffffffff8111828210171561178357611783611744565b604052919050565b6000806040838503121561179e57600080fd5b6117a7836116c8565b915060208084013567ffffffffffffffff808211156117c557600080fd5b818601915086601f8301126117d957600080fd5b8135818111156117eb576117eb611744565b6117fd601f8201601f1916850161175a565b9150808252878482850101111561181357600080fd5b80848401858401376000848284010152508093505050509250929050565b6000806040838503121561184457600080fd5b823567ffffffffffffffff8082111561185c57600080fd5b818501915085601f83011261187057600080fd5b813560208282111561188457611884611744565b8160051b925061189581840161175a565b82815292840181019281810190898511156118af57600080fd5b948201945b848610156118d4576118c5866116c8565b825294820194908201906118b4565b9997909101359750505050505050565b6000806000606084860312156118f957600080fd5b505081359360208301359350604090920135919050565b60005b8381101561192b578181015183820152602001611913565b83811115610cdd5750506000910152565b60008151808452611954816020860160208601611910565b601f01601f19169290920160200192915050565b6020815260006111f7602083018461193c565b6000806040838503121561198e57600080fd5b50508035926020909101359150565b6000806000606084860312156119b257600080fd5b6119bb846116c8565b92506119c9602085016116c8565b9150604084013590509250925092565b6020808252602c908201527f46756e6374696f6e206d7573742062652063616c6c6564207468726f7567682060408201526b19195b1959d85d1958d85b1b60a21b606082015260800190565b6020808252602c908201527f46756e6374696f6e206d7573742062652063616c6c6564207468726f7567682060408201526b6163746976652070726f787960a01b606082015260800190565b634e487b7160e01b600052603260045260246000fd5b634e487b7160e01b600052601160045260246000fd5b6000600019821415611ab157611ab1611a87565b5060010190565b60008251611aca818460208701611910565b9190910192915050565b7f416363657373436f6e74726f6c3a206163636f756e7420000000000000000000815260008351611b0c816017850160208801611910565b7001034b99036b4b9b9b4b733903937b6329607d1b6017918401918201528351611b3d816028840160208801611910565b01602801949350505050565b6000816000190483118215151615611b6357611b63611a87565b500290565b60008219821115611b7b57611b7b611a87565b500190565b600081611b8f57611b8f611a87565b506000190190565b6020808252602b908201527f496e697469616c697a61626c653a20636f6e7472616374206973206e6f74206960408201526a6e697469616c697a696e6760a81b606082015260800190565b600060208284031215611bf457600080fd5b815180151581146111f757600080fdfe416464726573733a206c6f772d6c6576656c2064656c65676174652063616c6c206661696c6564ede9dcdb0ce99dc7cec9c7be9246ad08b37853683ad91569c187b647ddf5e21ca26469706673582212204086175c19d91cf286c74feadd4dff2b3a58e921bb726e72dc403a07a2dd08f564736f6c634300080a0033",
    "linkReferences": {}
  },
  "methodIdentifiers": {
    "DEFAULT_ADMIN_ROLE()": "a217fddf",
    "PAUSE_ROLE()": "389ed267",
    "TREASURY_MANAGER_ROLE()": "ebdf690f",
    "addSupportedToken(address)": "6d69fcaf",
    "adminDelegatecall(address,bytes)": "b8e9744c",
    "adminPause(uint256)": "2692c59f",
    "adminSstore(uint256,uint256)": "be831a2e",
    "adminSstoreWithMask(uint256,uint256,uint256)": "6c4624c3",
    "getRoleAdmin(bytes32)": "248a9ca3",
    "grantRole(bytes32,address)": "2f2ff15d",
    "hasRole(bytes32,address)": "91d14854",
    "initialize(address[],uint256)": "60b5bb3f",
    "isSupportedToken(address)": "240028e8",
    "paused()": "5c975abb",
    "payRewards(address,address,uint256)": "da0c1a88",
    "removeSupportedToken(address)": "76319190",
    "renounceRole(bytes32,address)": "36568abe",
    "revokeRole(bytes32,address)": "d547741f",
    "supportsInterface(bytes4)": "01ffc9a7",
    "upgradeTo(address)": "3659cfe6",
    "upgradeToAndCall(address,bytes)": "4f1ef286"
  },
  "id": 3
}