{
  "address": "0xccc2b1aD21666A5847A804a73a41F904C4a4A0Ec",
  "abi": [
    {
      "inputs": [],
      "stateMutability": "nonpayable",
      "type": "constructor"
    },
    {
      "anonymous": false,
      "inputs": [
        {
          "indexed": false,
          "internalType": "address",
          "name": "previousAdmin",
          "type": "address"
        },
        {
          "indexed": false,
          "internalType": "address",
          "name": "newAdmin",
          "type": "address"
        }
      ],
      "name": "AdminChanged",
      "type": "event"
    },
    {
      "anonymous": false,
      "inputs": [
        {
          "indexed": true,
          "internalType": "address",
          "name": "beacon",
          "type": "address"
        }
      ],
      "name": "BeaconUpgraded",
      "type": "event"
    },
    {
      "anonymous": false,
      "inputs": [
        {
          "indexed": true,
          "internalType": "uint256",
          "name": "streamId",
          "type": "uint256"
        },
        {
          "indexed": true,
          "internalType": "address",
          "name": "user",
          "type": "address"
        },
        {
          "indexed": false,
          "internalType": "uint256",
          "name": "amount",
          "type": "uint256"
        }
      ],
      "name": "Pending",
      "type": "event"
    },
    {
      "anonymous": false,
      "inputs": [
        {
          "indexed": true,
          "internalType": "uint256",
          "name": "streamId",
          "type": "uint256"
        },
        {
          "indexed": true,
          "internalType": "address",
          "name": "user",
          "type": "address"
        },
        {
          "indexed": false,
          "internalType": "uint256",
          "name": "amount",
          "type": "uint256"
        }
      ],
      "name": "Released",
      "type": "event"
    },
    {
      "anonymous": false,
      "inputs": [
        {
          "indexed": true,
          "internalType": "bytes32",
          "name": "role",
          "type": "bytes32"
        },
        {
          "indexed": true,
          "internalType": "bytes32",
          "name": "previousAdminRole",
          "type": "bytes32"
        },
        {
          "indexed": true,
          "internalType": "bytes32",
          "name": "newAdminRole",
          "type": "bytes32"
        }
      ],
      "name": "RoleAdminChanged",
      "type": "event"
    },
    {
      "anonymous": false,
      "inputs": [
        {
          "indexed": true,
          "internalType": "bytes32",
          "name": "role",
          "type": "bytes32"
        },
        {
          "indexed": true,
          "internalType": "address",
          "name": "account",
          "type": "address"
        },
        {
          "indexed": true,
          "internalType": "address",
          "name": "sender",
          "type": "address"
        }
      ],
      "name": "RoleGranted",
      "type": "event"
    },
    {
      "anonymous": false,
      "inputs": [
        {
          "indexed": true,
          "internalType": "bytes32",
          "name": "role",
          "type": "bytes32"
        },
        {
          "indexed": true,
          "internalType": "address",
          "name": "account",
          "type": "address"
        },
        {
          "indexed": true,
          "internalType": "address",
          "name": "sender",
          "type": "address"
        }
      ],
      "name": "RoleRevoked",
      "type": "event"
    },
    {
      "anonymous": false,
      "inputs": [
        {
          "indexed": true,
          "internalType": "address",
          "name": "user",
          "type": "address"
        },
        {
          "indexed": false,
          "internalType": "uint256",
          "name": "amount",
          "type": "uint256"
        },
        {
          "indexed": false,
          "internalType": "uint256",
          "name": "shares",
          "type": "uint256"
        }
      ],
      "name": "Staked",
      "type": "event"
    },
    {
      "anonymous": false,
      "inputs": [
        {
          "indexed": true,
          "internalType": "uint256",
          "name": "streamId",
          "type": "uint256"
        },
        {
          "indexed": true,
          "internalType": "address",
          "name": "owner",
          "type": "address"
        },
        {
          "indexed": true,
          "internalType": "address",
          "name": "token",
          "type": "address"
        },
        {
          "indexed": false,
          "internalType": "uint256",
          "name": "tokenAmount",
          "type": "uint256"
        },
        {
          "indexed": false,
          "internalType": "uint256",
          "name": "auroraAmount",
          "type": "uint256"
        }
      ],
      "name": "StreamCreated",
      "type": "event"
    },
    {
      "anonymous": false,
      "inputs": [
        {
          "indexed": true,
          "internalType": "uint256",
          "name": "streamId",
          "type": "uint256"
        },
        {
          "indexed": true,
          "internalType": "address",
          "name": "owner",
          "type": "address"
        },
        {
          "indexed": false,
          "internalType": "uint256",
          "name": "amount",
          "type": "uint256"
        }
      ],
      "name": "StreamOwnerRewardReleased",
      "type": "event"
    },
    {
      "anonymous": false,
      "inputs": [
        {
          "indexed": true,
          "internalType": "uint256",
          "name": "streamId",
          "type": "uint256"
        },
        {
          "indexed": true,
          "internalType": "address",
          "name": "owner",
          "type": "address"
        },
        {
          "indexed": true,
          "internalType": "address",
          "name": "token",
          "type": "address"
        }
      ],
      "name": "StreamProposalCancelled",
      "type": "event"
    },
    {
      "anonymous": false,
      "inputs": [
        {
          "indexed": true,
          "internalType": "uint256",
          "name": "streamId",
          "type": "uint256"
        },
        {
          "indexed": true,
          "internalType": "address",
          "name": "owner",
          "type": "address"
        },
        {
          "indexed": true,
          "internalType": "address",
          "name": "token",
          "type": "address"
        },
        {
          "indexed": false,
          "internalType": "uint256",
          "name": "maxDepositAmount",
          "type": "uint256"
        },
        {
          "indexed": false,
          "internalType": "uint256",
          "name": "auroraDepositAmount",
          "type": "uint256"
        }
      ],
      "name": "StreamProposed",
      "type": "event"
    },
    {
      "anonymous": false,
      "inputs": [
        {
          "indexed": true,
          "internalType": "uint256",
          "name": "streamId",
          "type": "uint256"
        },
        {
          "indexed": true,
          "internalType": "address",
          "name": "owner",
          "type": "address"
        },
        {
          "indexed": true,
          "internalType": "address",
          "name": "token",
          "type": "address"
        }
      ],
      "name": "StreamRemoved",
      "type": "event"
    },
    {
      "anonymous": false,
      "inputs": [
        {
          "indexed": true,
          "internalType": "address",
          "name": "user",
          "type": "address"
        },
        {
          "indexed": false,
          "internalType": "uint256",
          "name": "amount",
          "type": "uint256"
        }
      ],
      "name": "Unstaked",
      "type": "event"
    },
    {
      "anonymous": false,
      "inputs": [
        {
          "indexed": true,
          "internalType": "address",
          "name": "implementation",
          "type": "address"
        }
      ],
      "name": "Upgraded",
      "type": "event"
    },
    {
      "inputs": [],
      "name": "AIRDROP_ROLE",
      "outputs": [
        {
          "internalType": "bytes32",
          "name": "",
          "type": "bytes32"
        }
      ],
      "stateMutability": "view",
      "type": "function"
    },
    {
      "inputs": [],
      "name": "CLAIM_ROLE",
      "outputs": [
        {
          "internalType": "bytes32",
          "name": "",
          "type": "bytes32"
        }
      ],
      "stateMutability": "view",
      "type": "function"
    },
    {
      "inputs": [],
      "name": "DEFAULT_ADMIN_ROLE",
      "outputs": [
        {
          "internalType": "bytes32",
          "name": "",
          "type": "bytes32"
        }
      ],
      "stateMutability": "view",
      "type": "function"
    },
    {
      "inputs": [],
      "name": "FOUR_YEARS",
      "outputs": [
        {
          "internalType": "uint256",
          "name": "",
          "type": "uint256"
        }
      ],
      "stateMutability": "view",
      "type": "function"
    },
    {
      "inputs": [],
      "name": "ONE_MONTH",
      "outputs": [
        {
          "internalType": "uint256",
          "name": "",
          "type": "uint256"
        }
      ],
      "stateMutability": "view",
      "type": "function"
    },
    {
      "inputs": [],
      "name": "PAUSE_ROLE",
      "outputs": [
        {
          "internalType": "bytes32",
          "name": "",
          "type": "bytes32"
        }
      ],
      "stateMutability": "view",
      "type": "function"
    },
    {
      "inputs": [],
      "name": "STREAM_MANAGER_ROLE",
      "outputs": [
        {
          "internalType": "bytes32",
          "name": "",
          "type": "bytes32"
        }
      ],
      "stateMutability": "view",
      "type": "function"
    },
    {
      "inputs": [
        {
          "internalType": "address",
          "name": "target",
          "type": "address"
        },
        {
          "internalType": "bytes",
          "name": "data",
          "type": "bytes"
        }
      ],
      "name": "adminDelegatecall",
      "outputs": [
        {
          "internalType": "bytes",
          "name": "",
          "type": "bytes"
        }
      ],
      "stateMutability": "payable",
      "type": "function"
    },
    {
      "inputs": [
        {
          "internalType": "uint256",
          "name": "flags",
          "type": "uint256"
        }
      ],
      "name": "adminPause",
      "outputs": [],
      "stateMutability": "nonpayable",
      "type": "function"
    },
    {
      "inputs": [
        {
          "internalType": "uint256",
          "name": "key",
          "type": "uint256"
        },
        {
          "internalType": "uint256",
          "name": "value",
          "type": "uint256"
        }
      ],
      "name": "adminSstore",
      "outputs": [],
      "stateMutability": "nonpayable",
      "type": "function"
    },
    {
      "inputs": [
        {
          "internalType": "uint256",
          "name": "key",
          "type": "uint256"
        },
        {
          "internalType": "uint256",
          "name": "value",
          "type": "uint256"
        },
        {
          "internalType": "uint256",
          "name": "mask",
          "type": "uint256"
        }
      ],
      "name": "adminSstoreWithMask",
      "outputs": [],
      "stateMutability": "nonpayable",
      "type": "function"
    },
    {
      "inputs": [],
      "name": "auroraToken",
      "outputs": [
        {
          "internalType": "address",
          "name": "",
          "type": "address"
        }
      ],
      "stateMutability": "view",
      "type": "function"
    },
    {
      "inputs": [
        {
          "internalType": "address",
          "name": "account",
          "type": "address"
        },
        {
          "internalType": "uint256[]",
          "name": "streamIds",
          "type": "uint256[]"
        }
      ],
      "name": "batchClaimOnBehalfOfAnotherUser",
      "outputs": [],
      "stateMutability": "nonpayable",
      "type": "function"
    },
    {
      "inputs": [
        {
          "internalType": "address[]",
          "name": "accounts",
          "type": "address[]"
        },
        {
          "internalType": "uint256[]",
          "name": "streamIds",
          "type": "uint256[]"
        }
      ],
      "name": "batchClaimOnBehalfOfOtherUsers",
      "outputs": [],
      "stateMutability": "nonpayable",
      "type": "function"
    },
    {
      "inputs": [
        {
          "internalType": "uint256[]",
          "name": "streamIds",
          "type": "uint256[]"
        }
      ],
      "name": "batchMoveRewardsToPending",
      "outputs": [],
      "stateMutability": "nonpayable",
      "type": "function"
    },
    {
      "inputs": [
        {
          "internalType": "uint256[]",
          "name": "streamIds",
          "type": "uint256[]"
        }
      ],
      "name": "batchWithdraw",
      "outputs": [],
      "stateMutability": "nonpayable",
      "type": "function"
    },
    {
      "inputs": [
        {
          "internalType": "uint256",
          "name": "streamId",
          "type": "uint256"
        }
      ],
      "name": "cancelStreamProposal",
      "outputs": [],
      "stateMutability": "nonpayable",
      "type": "function"
    },
    {
      "inputs": [
        {
          "internalType": "address",
          "name": "account",
          "type": "address"
        }
      ],
      "name": "claimAllOnBehalfOfAnotherUser",
      "outputs": [],
      "stateMutability": "nonpayable",
      "type": "function"
    },
    {
      "inputs": [
        {
          "internalType": "address[]",
          "name": "accounts",
          "type": "address[]"
        }
      ],
      "name": "claimAllOnBehalfOfOtherUsers",
      "outputs": [],
      "stateMutability": "nonpayable",
      "type": "function"
    },
    {
      "inputs": [
        {
          "internalType": "address",
          "name": "account",
          "type": "address"
        },
        {
          "internalType": "uint256",
          "name": "streamId",
          "type": "uint256"
        }
      ],
      "name": "claimOnBehalfOfAnotherUser",
      "outputs": [],
      "stateMutability": "nonpayable",
      "type": "function"
    },
    {
      "inputs": [
        {
          "internalType": "uint256",
          "name": "streamId",
          "type": "uint256"
        },
        {
          "internalType": "uint256",
          "name": "rewardTokenAmount",
          "type": "uint256"
        }
      ],
      "name": "createStream",
      "outputs": [],
      "stateMutability": "nonpayable",
      "type": "function"
    },
    {
      "inputs": [
        {
          "internalType": "uint256",
          "name": "streamId",
          "type": "uint256"
        },
        {
          "internalType": "address",
          "name": "account",
          "type": "address"
        }
      ],
      "name": "getAmountOfShares",
      "outputs": [
        {
          "internalType": "uint256",
          "name": "",
          "type": "uint256"
        }
      ],
      "stateMutability": "view",
      "type": "function"
    },
    {
      "inputs": [
        {
          "internalType": "uint256",
          "name": "streamId",
          "type": "uint256"
        }
      ],
      "name": "getLatestRewardPerShare",
      "outputs": [
        {
          "internalType": "uint256",
          "name": "",
          "type": "uint256"
        }
      ],
      "stateMutability": "view",
      "type": "function"
    },
    {
      "inputs": [
        {
          "internalType": "uint256",
          "name": "streamId",
          "type": "uint256"
        },
        {
          "internalType": "address",
          "name": "account",
          "type": "address"
        }
      ],
      "name": "getPending",
      "outputs": [
        {
          "internalType": "uint256",
          "name": "",
          "type": "uint256"
        }
      ],
      "stateMutability": "view",
      "type": "function"
    },
    {
      "inputs": [
        {
          "internalType": "uint256",
          "name": "streamId",
          "type": "uint256"
        },
        {
          "internalType": "address",
          "name": "account",
          "type": "address"
        }
      ],
      "name": "getReleaseTime",
      "outputs": [
        {
          "internalType": "uint256",
          "name": "",
          "type": "uint256"
        }
      ],
      "stateMutability": "view",
      "type": "function"
    },
    {
      "inputs": [
        {
          "internalType": "uint256",
          "name": "streamId",
          "type": "uint256"
        }
      ],
      "name": "getRewardPerShare",
      "outputs": [
        {
          "internalType": "uint256",
          "name": "",
          "type": "uint256"
        }
      ],
      "stateMutability": "view",
      "type": "function"
    },
    {
      "inputs": [
        {
          "internalType": "uint256",
          "name": "streamId",
          "type": "uint256"
        },
        {
          "internalType": "address",
          "name": "account",
          "type": "address"
        }
      ],
      "name": "getRewardPerShareForUser",
      "outputs": [
        {
          "internalType": "uint256",
          "name": "",
          "type": "uint256"
        }
      ],
      "stateMutability": "view",
      "type": "function"
    },
    {
      "inputs": [
        {
          "internalType": "uint256",
          "name": "streamId",
          "type": "uint256"
        },
        {
          "internalType": "uint256",
          "name": "lastUpdate",
          "type": "uint256"
        }
      ],
      "name": "getRewardsAmount",
      "outputs": [
        {
          "internalType": "uint256",
          "name": "",
          "type": "uint256"
        }
      ],
      "stateMutability": "view",
      "type": "function"
    },
    {
      "inputs": [
        {
          "internalType": "bytes32",
          "name": "role",
          "type": "bytes32"
        }
      ],
      "name": "getRoleAdmin",
      "outputs": [
        {
          "internalType": "bytes32",
          "name": "",
          "type": "bytes32"
        }
      ],
      "stateMutability": "view",
      "type": "function"
    },
    {
      "inputs": [
        {
          "internalType": "uint256",
          "name": "streamId",
          "type": "uint256"
        }
      ],
      "name": "getStream",
      "outputs": [
        {
          "internalType": "address",
          "name": "streamOwner",
          "type": "address"
        },
        {
          "internalType": "address",
          "name": "rewardToken",
          "type": "address"
        },
        {
          "internalType": "uint256",
          "name": "auroraDepositAmount",
          "type": "uint256"
        },
        {
          "internalType": "uint256",
          "name": "auroraClaimedAmount",
          "type": "uint256"
        },
        {
          "internalType": "uint256",
          "name": "rewardDepositAmount",
          "type": "uint256"
        },
        {
          "internalType": "uint256",
          "name": "rewardClaimedAmount",
          "type": "uint256"
        },
        {
          "internalType": "uint256",
          "name": "maxDepositAmount",
          "type": "uint256"
        },
        {
          "internalType": "uint256",
          "name": "lastTimeOwnerClaimed",
          "type": "uint256"
        },
        {
          "internalType": "uint256",
          "name": "rps",
          "type": "uint256"
        },
        {
          "internalType": "uint256",
          "name": "tau",
          "type": "uint256"
        },
        {
          "internalType": "enum JetStakingV1.StreamStatus",
          "name": "status",
          "type": "uint8"
        }
      ],
      "stateMutability": "view",
      "type": "function"
    },
    {
      "inputs": [
        {
          "internalType": "uint256",
          "name": "streamId",
          "type": "uint256"
        },
        {
          "internalType": "address",
          "name": "account",
          "type": "address"
        }
      ],
      "name": "getStreamClaimableAmount",
      "outputs": [
        {
          "internalType": "uint256",
          "name": "",
          "type": "uint256"
        }
      ],
      "stateMutability": "view",
      "type": "function"
    },
    {
      "inputs": [
        {
          "internalType": "uint256",
          "name": "streamId",
          "type": "uint256"
        }
      ],
      "name": "getStreamOwnerClaimableAmount",
      "outputs": [
        {
          "internalType": "uint256",
          "name": "",
          "type": "uint256"
        }
      ],
      "stateMutability": "view",
      "type": "function"
    },
    {
      "inputs": [
        {
          "internalType": "uint256",
          "name": "streamId",
          "type": "uint256"
        }
      ],
      "name": "getStreamSchedule",
      "outputs": [
        {
          "internalType": "uint256[]",
          "name": "scheduleTimes",
          "type": "uint256[]"
        },
        {
          "internalType": "uint256[]",
          "name": "scheduleRewards",
          "type": "uint256[]"
        }
      ],
      "stateMutability": "view",
      "type": "function"
    },
    {
      "inputs": [],
      "name": "getStreamsCount",
      "outputs": [
        {
          "internalType": "uint256",
          "name": "",
          "type": "uint256"
        }
      ],
      "stateMutability": "view",
      "type": "function"
    },
    {
      "inputs": [],
      "name": "getTotalAmountOfStakedAurora",
      "outputs": [
        {
          "internalType": "uint256",
          "name": "",
          "type": "uint256"
        }
      ],
      "stateMutability": "view",
      "type": "function"
    },
    {
      "inputs": [
        {
          "internalType": "address",
          "name": "token",
          "type": "address"
        }
      ],
      "name": "getTreasuryBalance",
      "outputs": [
        {
          "internalType": "uint256",
          "name": "",
          "type": "uint256"
        }
      ],
      "stateMutability": "view",
      "type": "function"
    },
    {
      "inputs": [
        {
          "internalType": "address",
          "name": "account",
          "type": "address"
        }
      ],
      "name": "getUserShares",
      "outputs": [
        {
          "internalType": "uint256",
          "name": "",
          "type": "uint256"
        }
      ],
      "stateMutability": "view",
      "type": "function"
    },
    {
      "inputs": [
        {
          "internalType": "address",
          "name": "account",
          "type": "address"
        }
      ],
      "name": "getUserTotalDeposit",
      "outputs": [
        {
          "internalType": "uint256",
          "name": "",
          "type": "uint256"
        }
      ],
      "stateMutability": "view",
      "type": "function"
    },
    {
      "inputs": [
        {
          "internalType": "bytes32",
          "name": "role",
          "type": "bytes32"
        },
        {
          "internalType": "address",
          "name": "account",
          "type": "address"
        }
      ],
      "name": "grantRole",
      "outputs": [],
      "stateMutability": "nonpayable",
      "type": "function"
    },
    {
      "inputs": [
        {
          "internalType": "bytes32",
          "name": "role",
          "type": "bytes32"
        },
        {
          "internalType": "address",
          "name": "account",
          "type": "address"
        }
      ],
      "name": "hasRole",
      "outputs": [
        {
          "internalType": "bool",
          "name": "",
          "type": "bool"
        }
      ],
      "stateMutability": "view",
      "type": "function"
    },
    {
      "inputs": [
        {
          "internalType": "address",
          "name": "aurora",
          "type": "address"
        },
        {
          "internalType": "address",
          "name": "streamOwner",
          "type": "address"
        },
        {
          "internalType": "uint256[]",
          "name": "scheduleTimes",
          "type": "uint256[]"
        },
        {
          "internalType": "uint256[]",
          "name": "scheduleRewards",
          "type": "uint256[]"
        },
        {
          "internalType": "uint256",
          "name": "tauAuroraStream",
          "type": "uint256"
        },
        {
          "internalType": "uint256",
          "name": "_flags",
          "type": "uint256"
        },
        {
          "internalType": "address",
          "name": "_treasury",
          "type": "address"
        },
        {
          "internalType": "uint256",
          "name": "_maxWeight",
          "type": "uint256"
        },
        {
          "internalType": "uint256",
          "name": "_minWeight",
          "type": "uint256"
        }
      ],
      "name": "initialize",
      "outputs": [],
      "stateMutability": "nonpayable",
      "type": "function"
    },
    {
      "inputs": [],
      "name": "maxWeight",
      "outputs": [
        {
          "internalType": "uint256",
          "name": "",
          "type": "uint256"
        }
      ],
      "stateMutability": "view",
      "type": "function"
    },
    {
      "inputs": [],
      "name": "minWeight",
      "outputs": [
        {
          "internalType": "uint256",
          "name": "",
          "type": "uint256"
        }
      ],
      "stateMutability": "view",
      "type": "function"
    },
    {
      "inputs": [],
      "name": "moveAllRewardsToPending",
      "outputs": [],
      "stateMutability": "nonpayable",
      "type": "function"
    },
    {
      "inputs": [
        {
          "internalType": "uint256",
          "name": "streamId",
          "type": "uint256"
        }
      ],
      "name": "moveRewardsToPending",
      "outputs": [],
      "stateMutability": "nonpayable",
      "type": "function"
    },
    {
      "inputs": [],
      "name": "paused",
      "outputs": [
        {
          "internalType": "uint256",
          "name": "",
          "type": "uint256"
        }
      ],
      "stateMutability": "view",
      "type": "function"
    },
    {
      "inputs": [
        {
          "internalType": "address",
          "name": "streamOwner",
          "type": "address"
        },
        {
          "internalType": "address",
          "name": "rewardToken",
          "type": "address"
        },
        {
          "internalType": "uint256",
          "name": "auroraDepositAmount",
          "type": "uint256"
        },
        {
          "internalType": "uint256",
          "name": "maxDepositAmount",
          "type": "uint256"
        },
        {
          "internalType": "uint256",
          "name": "minDepositAmount",
          "type": "uint256"
        },
        {
          "internalType": "uint256[]",
          "name": "scheduleTimes",
          "type": "uint256[]"
        },
        {
          "internalType": "uint256[]",
          "name": "scheduleRewards",
          "type": "uint256[]"
        },
        {
          "internalType": "uint256",
          "name": "tau",
          "type": "uint256"
        }
      ],
      "name": "proposeStream",
      "outputs": [],
      "stateMutability": "nonpayable",
      "type": "function"
    },
    {
      "inputs": [
        {
          "internalType": "uint256",
          "name": "streamId",
          "type": "uint256"
        }
      ],
      "name": "releaseAuroraRewardsToStreamOwner",
      "outputs": [],
      "stateMutability": "nonpayable",
      "type": "function"
    },
    {
      "inputs": [
        {
          "internalType": "uint256",
          "name": "streamId",
          "type": "uint256"
        },
        {
          "internalType": "address",
          "name": "streamFundReceiver",
          "type": "address"
        }
      ],
      "name": "removeStream",
      "outputs": [],
      "stateMutability": "nonpayable",
      "type": "function"
    },
    {
      "inputs": [
        {
          "internalType": "bytes32",
          "name": "role",
          "type": "bytes32"
        },
        {
          "internalType": "address",
          "name": "account",
          "type": "address"
        }
      ],
      "name": "renounceRole",
      "outputs": [],
      "stateMutability": "nonpayable",
      "type": "function"
    },
    {
      "inputs": [
        {
          "internalType": "bytes32",
          "name": "role",
          "type": "bytes32"
        },
        {
          "internalType": "address",
          "name": "account",
          "type": "address"
        }
      ],
      "name": "revokeRole",
      "outputs": [],
      "stateMutability": "nonpayable",
      "type": "function"
    },
    {
      "inputs": [
        {
          "internalType": "uint256",
          "name": "streamId",
          "type": "uint256"
        },
        {
          "internalType": "uint256",
          "name": "start",
          "type": "uint256"
        },
        {
          "internalType": "uint256",
          "name": "end",
          "type": "uint256"
        }
      ],
      "name": "rewardsSchedule",
      "outputs": [
        {
          "internalType": "uint256",
          "name": "",
          "type": "uint256"
        }
      ],
      "stateMutability": "view",
      "type": "function"
    },
    {
      "inputs": [
        {
          "internalType": "uint256",
          "name": "amount",
          "type": "uint256"
        }
      ],
      "name": "stake",
      "outputs": [],
      "stateMutability": "nonpayable",
      "type": "function"
    },
    {
      "inputs": [
        {
          "internalType": "address",
          "name": "account",
          "type": "address"
        },
        {
          "internalType": "uint256",
          "name": "amount",
          "type": "uint256"
        }
      ],
      "name": "stakeOnBehalfOfAnotherUser",
      "outputs": [],
      "stateMutability": "nonpayable",
      "type": "function"
    },
    {
      "inputs": [
        {
          "internalType": "address[]",
          "name": "accounts",
          "type": "address[]"
        },
        {
          "internalType": "uint256[]",
          "name": "amounts",
          "type": "uint256[]"
        },
        {
          "internalType": "uint256",
          "name": "batchAmount",
          "type": "uint256"
        }
      ],
      "name": "stakeOnBehalfOfOtherUsers",
      "outputs": [],
      "stateMutability": "nonpayable",
      "type": "function"
    },
    {
      "inputs": [
        {
          "internalType": "uint256",
          "name": "streamId",
          "type": "uint256"
        },
        {
          "internalType": "uint256",
          "name": "start",
          "type": "uint256"
        },
        {
          "internalType": "uint256",
          "name": "end",
          "type": "uint256"
        }
      ],
      "name": "startEndScheduleIndex",
      "outputs": [
        {
          "internalType": "uint256",
          "name": "startIndex",
          "type": "uint256"
        },
        {
          "internalType": "uint256",
          "name": "endIndex",
          "type": "uint256"
        }
      ],
      "stateMutability": "view",
      "type": "function"
    },
    {
      "inputs": [
        {
          "internalType": "bytes4",
          "name": "interfaceId",
          "type": "bytes4"
        }
      ],
      "name": "supportsInterface",
      "outputs": [
        {
          "internalType": "bool",
          "name": "",
          "type": "bool"
        }
      ],
      "stateMutability": "view",
      "type": "function"
    },
    {
      "inputs": [],
      "name": "totalAmountOfStakedAurora",
      "outputs": [
        {
          "internalType": "uint256",
          "name": "",
          "type": "uint256"
        }
      ],
      "stateMutability": "view",
      "type": "function"
    },
    {
      "inputs": [],
      "name": "totalAuroraShares",
      "outputs": [
        {
          "internalType": "uint256",
          "name": "",
          "type": "uint256"
        }
      ],
      "stateMutability": "view",
      "type": "function"
    },
    {
      "inputs": [],
      "name": "totalStreamShares",
      "outputs": [
        {
          "internalType": "uint256",
          "name": "",
          "type": "uint256"
        }
      ],
      "stateMutability": "view",
      "type": "function"
    },
    {
      "inputs": [],
      "name": "touchedAt",
      "outputs": [
        {
          "internalType": "uint256",
          "name": "",
          "type": "uint256"
        }
      ],
      "stateMutability": "view",
      "type": "function"
    },
    {
      "inputs": [],
      "name": "treasury",
      "outputs": [
        {
          "internalType": "address",
          "name": "",
          "type": "address"
        }
      ],
      "stateMutability": "view",
      "type": "function"
    },
    {
      "inputs": [
        {
          "internalType": "uint256",
          "name": "amount",
          "type": "uint256"
        }
      ],
      "name": "unstake",
      "outputs": [],
      "stateMutability": "nonpayable",
      "type": "function"
    },
    {
      "inputs": [],
      "name": "unstakeAll",
      "outputs": [],
      "stateMutability": "nonpayable",
      "type": "function"
    },
    {
      "inputs": [
        {
          "internalType": "address",
          "name": "_treasury",
          "type": "address"
        }
      ],
      "name": "updateTreasury",
      "outputs": [],
      "stateMutability": "nonpayable",
      "type": "function"
    },
    {
      "inputs": [
        {
          "internalType": "address",
          "name": "newImplementation",
          "type": "address"
        }
      ],
      "name": "upgradeTo",
      "outputs": [],
      "stateMutability": "nonpayable",
      "type": "function"
    },
    {
      "inputs": [
        {
          "internalType": "address",
          "name": "newImplementation",
          "type": "address"
        },
        {
          "internalType": "bytes",
          "name": "data",
          "type": "bytes"
        }
      ],
      "name": "upgradeToAndCall",
      "outputs": [],
      "stateMutability": "payable",
      "type": "function"
    },
    {
      "inputs": [
        {
          "internalType": "address",
          "name": "",
          "type": "address"
        }
      ],
      "name": "users",
      "outputs": [
        {
          "internalType": "uint256",
          "name": "deposit",
          "type": "uint256"
        },
        {
          "internalType": "uint256",
          "name": "auroraShares",
          "type": "uint256"
        },
        {
          "internalType": "uint256",
          "name": "streamShares",
          "type": "uint256"
        }
      ],
      "stateMutability": "view",
      "type": "function"
    },
    {
      "inputs": [
        {
          "internalType": "uint256",
          "name": "streamId",
          "type": "uint256"
        }
      ],
      "name": "withdraw",
      "outputs": [],
      "stateMutability": "nonpayable",
      "type": "function"
    },
    {
      "inputs": [],
      "name": "withdrawAll",
      "outputs": [],
      "stateMutability": "nonpayable",
      "type": "function"
    }
  ],
  "solcInputHash": "ce94d36f9c4294fc811070edf3788f19",
  "bytecode": "0x60a0604052306080523480156200001557600080fd5b50600054610100900460ff16620000335760005460ff16156200003d565b6200003d620000e2565b620000a55760405162461bcd60e51b815260206004820152602e60248201527f496e697469616c697a61626c653a20636f6e747261637420697320616c72656160448201526d191e481a5b9a5d1a585b1a5e995960921b606482015260840160405180910390fd5b600054610100900460ff16158015620000c8576000805461ffff19166101011790555b8015620000db576000805461ff00191690555b5062000106565b6000620000fa306200010060201b620038ef1760201c565b15905090565b3b151590565b608051615f756200013760003960008181611a2801528181611a68015281816122ec015261232c0152615f756000f3fe6080604052600436106103155760003560e01c806301ffc9a71461031a578063036877881461034f5780630c2ee55e1461037d5780630efd8310146103945780631194ebeb146103b457806312dd67fe146103d65780631c61e617146103f65780631dd00452146104165780631e0fbfa21461045b5780631fd8c5f41461047d57806320988cef14610493578063248a9ca3146104aa5780632692c59f146104ca57806326cdddb9146104ea578063275719691461050a5780632ca783f31461052a5780632e17de781461054a5780632e1a7d4d1461056a5780632f2ff15d1461058a57806335322f37146105aa57806336568abe146105bf5780633659cfe6146105df57806336630cc7146105ff5780633895a2751461061f578063389ed26714610635578063396a6c14146106575780633ba31abf146106775780633e9a44cb146106975780633ea005c8146106b75780634981912e146106d95780634f1ef2861461070757806353a4cca01461071a5780635578fdb21461073a57806357baeac8146107685780635c975abb1461078857806361d027b31461079e5780636458edd3146107bf578063687dd46c146107df5780636c4624c3146107ff5780636db8e53d1461081f57806370bc770c1461083557806372e55399146108635780637f37df3b146108835780637f51bb1f146108c8578063853828b6146108e857806386c1b4eb146108fd578063894e9a0d1461091f5780638bc34e77146109565780638d40bd031461096b578063904033221461098b57806391d14854146109ab578063993b21c1146109cb5780639c52a920146109eb578063a217fddf14610a0b578063a4c828dc14610a20578063a694fc3a14610a57578063a81c6a1514610a77578063a87430ba14610a97578063a8b0bb8314610aef578063b8e9744c14610b06578063ba0cb22b14610b26578063bb07ec1b14610b60578063be831a2e14610b76578063c892772314610b96578063cd5ba59014610bdb578063d5050aed14610bf0578063d547741f14610c10578063e335e79a14610c30578063ee13ad8e14610c46578063fe904b7a14610c66575b600080fd5b34801561032657600080fd5b5061033a6103353660046152ad565b610c7e565b60405190151581526020015b60405180910390f35b34801561035b57600080fd5b5061036f61036a3660046152d7565b610cb5565b604051908152602001610346565b34801561038957600080fd5b5061036f6101035481565b3480156103a057600080fd5b5061036f6103af36600461531f565b611024565b3480156103c057600080fd5b506103d46103cf366004615405565b611070565b005b3480156103e257600080fd5b5061036f6103f13660046154b0565b61138a565b34801561040257600080fd5b5061036f61041136600461531f565b61144d565b34801561042257600080fd5b5061036f61043136600461531f565b6001600160a01b031660009081526101046020908152604080832093835260059093019052205490565b34801561046757600080fd5b5061036f600080516020615f0083398151915281565b34801561048957600080fd5b5061036f60fd5481565b34801561049f57600080fd5b5061036f6228207281565b3480156104b657600080fd5b5061036f6104c53660046154b0565b6114c4565b3480156104d657600080fd5b506103d46104e53660046154b0565b6114d9565b3480156104f657600080fd5b506103d4610505366004615514565b61155c565b34801561051657600080fd5b506103d461052536600461557f565b61160d565b34801561053657600080fd5b506103d46105453660046155c0565b6116ba565b34801561055657600080fd5b506103d46105653660046154b0565b611743565b34801561057657600080fd5b506103d46105853660046154b0565b611813565b34801561059657600080fd5b506103d46105a536600461531f565b6118bb565b3480156105b657600080fd5b506103d46118d8565b3480156105cb57600080fd5b506103d46105da36600461531f565b6119a3565b3480156105eb57600080fd5b506103d46105fa3660046155ea565b611a1d565b34801561060b57600080fd5b5061036f61061a366004615605565b611ae6565b34801561062b57600080fd5b5061036f60fc5481565b34801561064157600080fd5b5061036f600080516020615ea083398151915281565b34801561066357600080fd5b5061036f6106723660046154b0565b611c59565b34801561068357600080fd5b506103d461069236600461531f565b611ce4565b3480156106a357600080fd5b506103d46106b23660046155c0565b611f95565b3480156106c357600080fd5b5061036f600080516020615df983398151915281565b3480156106e557600080fd5b506106f96106f43660046152d7565b611ff7565b604051610346929190615627565b6103d4610715366004615635565b6122e1565b34801561072657600080fd5b506103d46107353660046156da565b612397565b34801561074657600080fd5b506101015461075b906001600160a01b031681565b604051610346919061574d565b34801561077457600080fd5b5061036f6107833660046155ea565b612535565b34801561079457600080fd5b5061036f60fb5481565b3480156107aa57600080fd5b506101005461075b906001600160a01b031681565b3480156107cb57600080fd5b506103d46107da366004615761565b6125aa565b3480156107eb57600080fd5b506103d46107fa36600461557f565b612614565b34801561080b57600080fd5b506103d461081a3660046152d7565b61265e565b34801561082b57600080fd5b5061036f60ff5481565b34801561084157600080fd5b506108556108503660046154b0565b612676565b6040516103469291906157ee565b34801561086f57600080fd5b506103d461087e36600461557f565b612776565b34801561088f57600080fd5b5061036f61089e36600461531f565b6001600160a01b031660009081526101046020908152604080832093835260039093019052205490565b3480156108d457600080fd5b506103d46108e33660046155ea565b612869565b3480156108f457600080fd5b506103d461294c565b34801561090957600080fd5b5061036f600080516020615ee083398151915281565b34801561092b57600080fd5b5061093f61093a3660046154b0565b6129f0565b6040516103469b9a99989796959493929190615829565b34801561096257600080fd5b506103d4612ab6565b34801561097757600080fd5b506103d4610986366004615605565b612afe565b34801561099757600080fd5b506103d46109a63660046154b0565b612e3a565b3480156109b757600080fd5b5061033a6109c636600461531f565b612f2d565b3480156109d757600080fd5b5061036f6109e63660046154b0565b612f58565b3480156109f757600080fd5b506103d4610a063660046154b0565b612f87565b348015610a1757600080fd5b5061036f600081565b348015610a2c57600080fd5b5061036f610a3b3660046155ea565b6001600160a01b03166000908152610104602052604090205490565b348015610a6357600080fd5b506103d4610a723660046154b0565b6131a5565b348015610a8357600080fd5b506103d4610a923660046158b1565b61320f565b348015610aa357600080fd5b50610ad4610ab23660046155ea565b6101046020526000908152604090208054600182015460029092015490919083565b60408051938452602084019290925290820152606001610346565b348015610afb57600080fd5b5061036f6101025481565b610b19610b14366004615635565b61371f565b60405161034691906159c5565b348015610b3257600080fd5b5061036f610b413660046155ea565b6001600160a01b03166000908152610104602052604090206001015490565b348015610b6c57600080fd5b5061036f60fe5481565b348015610b8257600080fd5b506103d4610b91366004615605565b6137e5565b348015610ba257600080fd5b5061036f610bb136600461531f565b6001600160a01b031660009081526101046020908152604080832093835260049093019052205490565b348015610be757600080fd5b5061036f6137f6565b348015610bfc57600080fd5b506103d4610c0b3660046155ea565b613828565b348015610c1c57600080fd5b506103d4610c2b36600461531f565b613889565b348015610c3c57600080fd5b506101055461036f565b348015610c5257600080fd5b506103d4610c613660046154b0565b6138a6565b348015610c7257600080fd5b5061036f630786156081565b60006001600160e01b03198216637965db0b60e01b1480610caf57506301ffc9a760e01b6001600160e01b03198316145b92915050565b6000806101058581548110610ccc57610ccc6159d8565b90600052602060002090600f0201600c019050600080610ced878787611ff7565b909250905060008083831415610dcc5784600101846001610d0e9190615a04565b81548110610d1e57610d1e6159d8565b9060005260206000200154856001018581548110610d3e57610d3e6159d8565b9060005260206000200154610d539190615a1c565b9050846000018481548110610d6a57610d6a6159d8565b60009182526020909120015485610d82866001615a04565b81548110610d9257610d926159d8565b9060005260206000200154610da79190615a1c565b610db18989615a1c565b610dbb9083615a33565b610dc59190615a52565b9150611016565b84600101846001610ddd9190615a04565b81548110610ded57610ded6159d8565b9060005260206000200154856001018581548110610e0d57610e0d6159d8565b9060005260206000200154610e229190615a1c565b9050846000018481548110610e3957610e396159d8565b60009182526020909120015485610e51866001615a04565b81548110610e6157610e616159d8565b9060005260206000200154610e769190615a1c565b8886610e83876001615a04565b81548110610e9357610e936159d8565b9060005260206000200154610ea89190615a1c565b610eb29083615a33565b610ebc9190615a52565b9150846001018381548110610ed357610ed36159d8565b906000526020600020015485600101856001610eef9190615a04565b81548110610eff57610eff6159d8565b9060005260206000200154610f149190615a1c565b610f1e9083615a04565b915084600101836001610f319190615a04565b81548110610f4157610f416159d8565b9060005260206000200154856001018481548110610f6157610f616159d8565b9060005260206000200154610f769190615a1c565b9050846000018381548110610f8d57610f8d6159d8565b60009182526020909120015485610fa5856001615a04565b81548110610fb557610fb56159d8565b9060005260206000200154610fca9190615a1c565b856000018481548110610fdf57610fdf6159d8565b906000526020600020015488610ff59190615a1c565b610fff9083615a33565b6110099190615a52565b6110139083615a04565b91505b5093505050505b9392505050565b60008261104e57506001600160a01b03811660009081526101046020526040902060010154610caf565b506001600160a01b031660009081526101046020526040902060020154919050565b600080516020615df983398151915261108981336138f5565b61109889898888888888613959565b61010054604051630480051d60e31b81526001600160a01b039091169063240028e8906110c9908b9060040161574d565b602060405180830381865afa1580156110e6573d6000803e3d6000fd5b505050506040513d601f19601f8201168201806040525081019061110a9190615a74565b61112f5760405162461bcd60e51b815260040161112690615a96565b60405180910390fd5b600060405180604001604052808681526020018581525090506000610105805490509050610105604051806101c001604052808d6001600160a01b03168152602001336001600160a01b031681526020018c6001600160a01b031681526020018b81526020016000815260200160008152602001600081526020018a8152602001898152602001886000815181106111c9576111c96159d8565b6020026020010151815260200186815260200160008152602001848152602001600160028111156111fc576111fc615813565b905281546001808201845560009384526020938490208351600f9093020180546001600160a01b03199081166001600160a01b0394851617825584860151928201805482169385169390931790925560408401516002820180549093169316929092179055606082015160038201556080820151600482015560a0820151600582015560c0820151600682015560e0820151600782015561010082015160088201556101208201516009820155610140820151600a820155610160820151600b82015561018082015180518051939492939192600c8501926112e1928492019061524d565b5060208281015180516112fa926001850192019061524d565b5050506101a0820151600e8201805460ff1916600183600281111561132157611321615813565b02179055505050896001600160a01b03168b6001600160a01b031682600080516020615e598339815191528b8d60405161135c929190615627565b60405180910390a46101015461137d906001600160a01b031633308c613e1c565b5050505050505050505050565b6000816113a95760405162461bcd60e51b815260040161112690615acd565b60ff546113ed5760405162461bcd60e51b81526020600482015260126024820152715a45524f5f53545245414d5f53484152455360701b6044820152606401611126565b60ff5468fc6f7c40458122964d601f1b6114098460fd54611ae6565b6114139190615a33565b61141d9190615a52565b6101058381548110611431576114316159d8565b90600052602060002090600f0201600b0154610caf9190615a04565b6000806114598461138a565b6001600160a01b03841660009081526101046020908152604080832088845260058101909252909120546002820154929350909168fc6f7c40458122964d601f1b816114a58487615a1c565b6114af9190615a33565b6114b99190615a52565b979650505050505050565b600090815260c9602052604090206001015490565b600080516020615ea08339815191526114f281336138f5565b60fb54828116148061150a575061150a600033612f2d565b6115565760405162461bcd60e51b815260206004820152601e60248201527f4f4e4c595f44454641554c545f41444d494e5f43414e5f554e504155534500006044820152606401611126565b5060fb55565b60018060fb5416600014806115775750611577600033612f2d565b6115935760405162461bcd60e51b815260040161112690615afe565b600080516020615ee08339815191526115ac81336138f5565b6115b4613e74565b8460005b81811015611603576115f18888838181106115d5576115d56159d8565b90506020020160208101906115ea91906155ea565b8787613f4c565b806115fb81615b2a565b9150506115b8565b5050505050505050565b60018060fb5416600014806116285750611628600033612f2d565b6116445760405162461bcd60e51b815260040161112690615afe565b600080516020615ee083398151915261165d81336138f5565b611665613e74565b8260005b818110156116b2576116a0868683818110611686576116866159d8565b905060200201602081019061169b91906155ea565b613fe7565b806116aa81615b2a565b915050611669565b505050505050565b60018060fb5416600014806116d557506116d5600033612f2d565b6116f15760405162461bcd60e51b815260040161112690615afe565b600080516020615f0083398151915261170a81336138f5565b611712613e74565b61171c8484614056565b610100546101015461173d916001600160a01b039182169133911686613e1c565b50505050565b60018060fb54166000148061175e575061175e600033612f2d565b61177a5760405162461bcd60e51b815260040161112690615afe565b60fe546117995760405162461bcd60e51b815260040161112690615b45565b33600090815261010460205260409020600101546117c95760405162461bcd60e51b815260040161112690615b77565b6117d1613e74565b60fe54336000908152610104602052604081206001015460fc549192916117f89190615a33565b6118029190615a52565b905061180e8382614214565b505050565b60018060fb54166000148061182e575061182e600033612f2d565b61184a5760405162461bcd60e51b815260040161112690615afe565b3360009081526101046020908152604080832085845260040190915290205442116118ae5760405162461bcd60e51b8152602060048201526014602482015273494e56414c49445f52454c454153455f54494d4560601b6044820152606401611126565b6118b7826143fa565b5050565b6118c4826114c4565b6118ce81336138f5565b61180e83836144ef565b60018060fb5416600014806118f357506118f3600033612f2d565b61190f5760405162461bcd60e51b815260040161112690615afe565b60fe5461192e5760405162461bcd60e51b815260040161112690615b45565b336000908152610104602052604090206001015461195e5760405162461bcd60e51b815260040161112690615b77565b611966613e74565b60fe54336000908152610104602052604081206001015460fc5491929161198d9190615a33565b6119979190615a52565b90506118b78182614214565b6001600160a01b0381163314611a135760405162461bcd60e51b815260206004820152602f60248201527f416363657373436f6e74726f6c3a2063616e206f6e6c792072656e6f756e636560448201526e103937b632b9903337b91039b2b63360891b6064820152608401611126565b6118b78282614575565b306001600160a01b037f0000000000000000000000000000000000000000000000000000000000000000161415611a665760405162461bcd60e51b815260040161112690615ba1565b7f00000000000000000000000000000000000000000000000000000000000000006001600160a01b0316611a986145dc565b6001600160a01b031614611abe5760405162461bcd60e51b815260040161112690615bdb565b611ac7816145f8565b60408051600080825260208201909252611ae391839190614604565b50565b600042821115611b2e5760405162461bcd60e51b8152602060048201526013602482015272494e56414c49445f4c4153545f55504441544560681b6044820152606401611126565b42821415611b3e57506000610caf565b60006101058481548110611b5457611b546159d8565b90600052602060002090600f0201600c01600001600081548110611b7a57611b7a6159d8565b90600052602060002001549050804211611b98576000915050610caf565b60006101058581548110611bae57611bae6159d8565b90600052602060002090600f0201600c0160000160016101058781548110611bd857611bd86159d8565b60009182526020909120600c600f909202010154611bf69190615a1c565b81548110611c0657611c066159d8565b90600052602060002001549050808410611c2557600092505050610caf565b60008083861115611c3857859150611c3c565b8391505b82421015611c4b575042611c4e565b50815b6114b9878383610cb5565b6000806101058381548110611c7057611c706159d8565b60009182526020909120600f9091020190506002600e82015460ff166002811115611c9d57611c9d615813565b14611cab5750600092915050565b6000611cbb848360090154611ae6565b90508160050154826003015482611cd29190615a33565b611cdc9190615a52565b949350505050565b600080516020615df9833981519152611cfd81336138f5565b82611d485760405162461bcd60e51b815260206004820152601b60248201527a4155524f52415f53545245414d5f4e4f545f52454d4f5641424c4560281b6044820152606401611126565b60006101058481548110611d5e57611d5e6159d8565b60009182526020909120600f9091020190506002600e82015460ff166002811115611d8b57611d8b615813565b14611dd15760405162461bcd60e51b815260206004820152601660248201527514d51491505357d053149150511657d4915353d5915160521b6044820152606401611126565b600e8101805460ff19169055600281015481546040516001600160a01b03928316929091169086907f661da9ced4b5d786f5b5f451a5f68af24721a01b0a65bb47fa4fdf70b80b887c90600090a4600081600401548260030154611e359190615a1c565b9050600082600601548360050154611e4d9190615a1c565b61010154909150600090611e69906001600160a01b0316612535565b6002850154909150600090611e86906001600160a01b0316612535565b610100546001870154610101549293506001600160a01b039182169263da0c1a8892918216911685881115611ebb5785611ebd565b875b6040518463ffffffff1660e01b8152600401611edb93929190615c15565b600060405180830381600087803b158015611ef557600080fd5b505af1158015611f09573d6000803e3d6000fd5b50506101005460028801546001600160a01b03918216935063da0c1a8892508a911684871115611f395784611f3b565b865b6040518463ffffffff1660e01b8152600401611f5993929190615c15565b600060405180830381600087803b158015611f7357600080fd5b505af1158015611f87573d6000803e3d6000fd5b505050505050505050505050565b60018060fb541660001480611fb05750611fb0600033612f2d565b611fcc5760405162461bcd60e51b815260040161112690615afe565b600080516020615ee0833981519152611fe581336138f5565b611fed613e74565b61173d8484614744565b60008060006101058681548110612010576120106159d8565b60009182526020909120600c600f90920201018054909150806120635760405162461bcd60e51b815260206004820152600b60248201526a4e4f5f5343484544554c4560a81b6044820152606401611126565b8585116120b05760405162461bcd60e51b815260206004820152601b60248201527a1253959053125117d49155d0549117d45551549657d411549253d1602a1b6044820152606401611126565b816000016000815481106120c6576120c66159d8565b906000526020600020015486101561211e5760405162461bcd60e51b815260206004820152601b60248201527a145551549657d0915193d49157d4d0d2115115531157d4d5105495602a1b6044820152606401611126565b8161212a600183615a1c565b8154811061213a5761213a6159d8565b906000526020600020015485111561218f5760405162461bcd60e51b8152602060048201526018602482015277145551549657d05195115497d4d0d2115115531157d1539160421b6044820152606401611126565b60015b818110156121e5578260000181815481106121af576121af6159d8565b90600052602060002001548710156121d3576121cc600182615a1c565b94506121e5565b806121dd81615b2a565b915050612192565b50816121f2600183615a1c565b81548110612202576122026159d8565b90600052602060002001548514156122265761221f600282615a1c565b925061228b565b6000612233856001615a04565b90505b8181101561228957826000018181548110612253576122536159d8565b906000526020600020015486101561227757612270600182615a1c565b9350612289565b8061228181615b2a565b915050612236565b505b828411156122d75760405162461bcd60e51b815260206004820152601960248201527824a72b20a624a22fa4a72222ac2fa1a0a621aaa620aa24a7a760391b6044820152606401611126565b5050935093915050565b306001600160a01b037f000000000000000000000000000000000000000000000000000000000000000016141561232a5760405162461bcd60e51b815260040161112690615ba1565b7f00000000000000000000000000000000000000000000000000000000000000006001600160a01b031661235c6145dc565b6001600160a01b0316146123825760405162461bcd60e51b815260040161112690615bdb565b61238b826145f8565b6118b782826001614604565b60018060fb5416600014806123b257506123b2600033612f2d565b6123ce5760405162461bcd60e51b815260040161112690615afe565b600080516020615f008339815191526123e781336138f5565b8584811461242e5760405162461bcd60e51b81526020600482015260146024820152730929cac82989288be82a4a482b2be988a9c8ea8960631b6044820152606401611126565b612436613e74565b6000805b828110156124c257878782818110612454576124546159d8565b90506020020135826124669190615a04565b91506124b08a8a8381811061247d5761247d6159d8565b905060200201602081019061249291906155ea565b8989848181106124a4576124a46159d8565b90506020020135614056565b806124ba81615b2a565b91505061243a565b508481146125095760405162461bcd60e51b81526020600482015260146024820152731253959053125117d0905510d217d05353d5539560621b6044820152606401611126565b610100546101015461252a916001600160a01b039182169133911688613e1c565b505050505050505050565b610100546040516370a0823160e01b81526000916001600160a01b03808516926370a082319261256992169060040161574d565b602060405180830381865afa158015612586573d6000803e3d6000fd5b505050506040513d601f19601f82011682018060405250810190610caf9190615c39565b60018060fb5416600014806125c557506125c5600033612f2d565b6125e15760405162461bcd60e51b815260040161112690615afe565b600080516020615ee08339815191526125fa81336138f5565b612602613e74565b61260d858585613f4c565b5050505050565b60018060fb54166000148061262f575061262f600033612f2d565b61264b5760405162461bcd60e51b815260040161112690615afe565b612653613e74565b61180e338484613f4c565b600061266a81336138f5565b50825491821816189055565b606080610105838154811061268d5761268d6159d8565b90600052602060002090600f0201600c0160000161010584815481106126b5576126b56159d8565b90600052602060002090600f0201600c016001018180548060200260200160405190810160405280929190818152602001828054801561271457602002820191906000526020600020905b815481526020019060010190808311612700575b505050505091508080548060200260200160405190810160405280929190818152602001828054801561276657602002820191906000526020600020905b815481526020019060010190808311612752575b5050505050905091509150915091565b60018060fb5416600014806127915750612791600033612f2d565b6127ad5760405162461bcd60e51b815260040161112690615afe565b33600090815261010460205260408120905b8381101561260d578160030160008686848181106127df576127df6159d8565b905060200201358152602001908152602001600020546000141580156128315750816004016000868684818110612818576128186159d8565b9050602002013581526020019081526020016000205442115b156128575761285785858381811061284b5761284b6159d8565b905060200201356143fa565b8061286181615b2a565b9150506127bf565b600061287581336138f5565b60fb546128b45760405162461bcd60e51b815260206004820152600d60248201526c524551554952455f504155534560981b6044820152606401611126565b6001600160a01b0382166128da5760405162461bcd60e51b815260040161112690615c52565b610100546001600160a01b03838116911614156129285760405162461bcd60e51b815260206004820152600c60248201526b53414d455f4144445245535360a01b6044820152606401611126565b5061010080546001600160a01b0319166001600160a01b0392909216919091179055565b60018060fb5416600014806129675750612967600033612f2d565b6129835760405162461bcd60e51b815260040161112690615afe565b336000908152610104602052604081206101055490915b8181101561173d576000818152600384016020526040902054158015906129d05750600081815260048401602052604090205442115b156129de576129de816143fa565b806129e881615b2a565b91505061299a565b6000806000806000806000806000806000806101058d81548110612a1657612a166159d8565b90600052602060002090600f020190508060000160009054906101000a90046001600160a01b03168160020160009054906101000a90046001600160a01b031682600301548360040154846005015485600601548660070154876009015488600b015489600a01548a600e0160009054906101000a900460ff169b509b509b509b509b509b509b509b509b509b509b505091939597999b90929496989a50565b60018060fb541660001480612ad15750612ad1600033612f2d565b612aed5760405162461bcd60e51b815260040161112690615afe565b612af5613e74565b611ae333613fe7565b60018060fb541660001480612b195750612b19600033612f2d565b612b355760405162461bcd60e51b815260040161112690615afe565b60006101058481548110612b4b57612b4b6159d8565b60009182526020909120600f9091020190506001600e82015460ff166002811115612b7857612b78615813565b14612b955760405162461bcd60e51b815260040161112690615c7b565b80546001600160a01b03163314612bbe5760405162461bcd60e51b815260040161112690615ca8565b4281600c01600001600081548110612bd857612bd86159d8565b90600052602060002001541015612c2b5760405162461bcd60e51b815260206004820152601760248201527614d51491505357d41493d413d4d05317d1561412549151604a1b6044820152606401611126565b8060070154831115612c715760405162461bcd60e51b815260206004820152600f60248201526e0a48aae82a488bea89e9ebe90928e9608b1b6044820152606401611126565b8060080154831015612cb65760405162461bcd60e51b815260206004820152600e60248201526d5245574152445f544f4f5f4c4f5760901b6044820152606401611126565b600e8101805460ff19166002179055600581018390556007810154831015612d435760008160070154826003015485612cef9190615a33565b612cf99190615a52565b90506000818360030154612d0d9190615a1c565b600384018390559050612d2086866149cb565b600183015461010154612d40916001600160a01b03918216911683614ad5565b50505b6002810154815460038301546040516001600160a01b0393841693909216918791600080516020615ec083398151915291612d7f918991615627565b60405180910390a46005810154600d82018054600090612da157612da16159d8565b906000526020600020015414612df35760405162461bcd60e51b81526020600482015260176024820152761253959053125117d4d5105495125391d7d49155d05491604a1b6044820152606401611126565b61010054600382015461010154612e18926001600160a01b0391821692911690614ad5565b61010054600282015461173d916001600160a01b039182169133911686613e1c565b600080516020615df9833981519152612e5381336138f5565b60006101058381548110612e6957612e696159d8565b60009182526020909120600f9091020190506001600e82015460ff166002811115612e9657612e96615813565b14612eb35760405162461bcd60e51b815260040161112690615c7b565b600e8101805460ff191690556003810180546000918290556002830154835460405192936001600160a01b0392831693929091169187917ffadbcbd495527ce5e10fd0cceba57d404a4625dd6ce0499c254ac523789ef3ad91a460018201546101015461173d916001600160a01b03918216911683614ad5565b600091825260c9602090815260408084206001600160a01b0393909316845291905290205460ff1690565b60006101058281548110612f6e57612f6e6159d8565b90600052602060002090600f0201600b01549050919050565b60018060fb541660001480612fa25750612fa2600033612f2d565b612fbe5760405162461bcd60e51b815260040161112690615afe565b81612ffe5760405162461bcd60e51b815260206004820152601060248201526f4155524f52415f53545245414d5f4e4160801b6044820152606401611126565b60006101058381548110613014576130146159d8565b60009182526020909120600f9091020180549091506001600160a01b031633146130505760405162461bcd60e51b815260040161112690615ca8565b6002600e82015460ff16600281111561306b5761306b615813565b146130885760405162461bcd60e51b815260040161112690615cd6565b600061309384611c59565b9050600081116130d45760405162461bcd60e51b815260206004820152600c60248201526b5a45524f5f5245574152445360a01b6044820152606401611126565b428260090181905550808260040160008282546130f19190615a04565b909155505081546040518281526001600160a01b039091169085907fd8dbc00678cdeb812d1660863c3d845d199d828cd02c9278b1ac8f359a1394369060200160405180910390a361010054825461010154604051631b41835160e31b81526001600160a01b039384169363da0c1a889361317793908216929116908690600401615c15565b600060405180830381600087803b15801561319157600080fd5b505af1158015611603573d6000803e3d6000fd5b60018060fb5416600014806131c057506131c0600033612f2d565b6131dc5760405162461bcd60e51b815260040161112690615afe565b6131e4613e74565b6131ee3383614056565b61010054610101546118b7916001600160a01b039182169133911685613e1c565b600054610100900460ff1661322a5760005460ff161561322e565b303b155b6132915760405162461bcd60e51b815260206004820152602e60248201527f496e697469616c697a61626c653a20636f6e747261637420697320616c72656160448201526d191e481a5b9a5d1a585b1a5e995960921b6064820152608401611126565b600054610100900460ff161580156132b3576000805461ffff19166101011790555b8183116132f45760405162461bcd60e51b815260206004820152600f60248201526e494e56414c49445f5745494748545360881b6044820152606401611126565b6001600160a01b03841661331a5760405162461bcd60e51b815260040161112690615c52565b61335d898b89600081518110613332576133326159d8565b60200260200101518a60008151811061334d5761334d6159d8565b60200260200101518c8c8c613959565b604051630480051d60e31b81526001600160a01b0385169063240028e890613389908d9060040161574d565b602060405180830381865afa1580156133a6573d6000803e3d6000fd5b505050506040513d601f19601f820116820180604052508101906133ca9190615a74565b6133e65760405162461bcd60e51b815260040161112690615a96565b6133ef85614b05565b613407600080516020615f00833981519152336144ef565b61341f600080516020615ee0833981519152336144ef565b613437600080516020615df9833981519152336144ef565b61010080546001600160a01b038087166001600160a01b031992831617835561010180548e83169316831790556101028690556101038590556040805180820182528c815260208082018d905282516101c081018452938f1680855290840152908201929092526000606082018190526080820181905260a0820181905260c0820181905260e0820181905292810183905242610120820152610140810189905261016081018390526101808101829052610105906101a081016002905281546001808201845560009384526020938490208351600f9093020180546001600160a01b03199081166001600160a01b0394851617825584860151928201805482169385169390931790925560408401516002820180549093169316929092179055606082015160038201556080820151600482015560a0820151600582015560c0820151600682015560e0820151600782015561010082015160088201556101208201516009820155610140820151600a820155610160820151600b82015561018082015180518051939492939192600c8501926135d8928492019061524d565b5060208281015180516135f1926001850192019061524d565b5050506101a0820151600e8201805460ff1916600183600281111561361857613618615813565b021790555050508b6001600160a01b03168b6001600160a01b031683600080516020615e598339815191528c600081518110613656576136566159d8565b60200260200101518d600081518110613671576136716159d8565b6020026020010151604051613687929190615627565b60405180910390a48b6001600160a01b03168b6001600160a01b031683600080516020615ec08339815191528c6000815181106136c6576136c66159d8565b60200260200101518d6000815181106136e1576136e16159d8565b60200260200101516040516136f7929190615627565b60405180910390a450508015613713576000805461ff00191690555b50505050505050505050565b6060600061372d81336138f5565b6001600160a01b0384166137725760405162461bcd60e51b815260206004820152600c60248201526b5a45524f5f4144445245535360a01b6044820152606401611126565b600080856001600160a01b03168560405161378d9190615d0b565b600060405180830381855af49150503d80600081146137c8576040519150601f19603f3d011682016040523d82523d6000602084013e6137cd565b606091505b5091509150816137dc57600080fd5b95945050505050565b60006137f181336138f5565b509055565b600060fd54600014156138095750600090565b613816600060fd54611ae6565b60fc546138239190615a04565b905090565b60018060fb5416600014806138435750613843600033612f2d565b61385f5760405162461bcd60e51b815260040161112690615afe565b600080516020615ee083398151915261387881336138f5565b613880613e74565b61180e83613fe7565b613892826114c4565b61389c81336138f5565b61180e8383614575565b60018060fb5416600014806138c157506138c1600033612f2d565b6138dd5760405162461bcd60e51b815260040161112690615afe565b6138e5613e74565b6118b73383614744565b3b151590565b6138ff8282612f2d565b6118b757613917816001600160a01b03166014614b3d565b613922836020614b3d565b604051602001613933929190615d27565b60408051601f198184030181529082905262461bcd60e51b8252611126916004016159c5565b6001600160a01b0387166139ae5760405162461bcd60e51b815260206004820152601c60248201527b494e56414c49445f53545245414d5f4f574e45525f4144445245535360201b6044820152606401611126565b6001600160a01b038616613a035760405162461bcd60e51b815260206004820152601c60248201527b494e56414c49445f5245574152445f544f4b454e5f4144445245535360201b6044820152606401611126565b60008511613a465760405162461bcd60e51b815260206004820152601060248201526f16915493d7d3505617d1115413d4d25560821b6044820152606401611126565b60008411613a895760405162461bcd60e51b815260206004820152601060248201526f16915493d7d3525397d1115413d4d25560821b6044820152606401611126565b84841115613acf5760405162461bcd60e51b81526020600482015260136024820152721253959053125117d3525397d1115413d4d255606a1b6044820152606401611126565b81600081518110613ae257613ae26159d8565b60200260200101518514613b385760405162461bcd60e51b815260206004820152601f60248201527f4d41585f4445504f5349545f4d5553545f455155414c5f5343484544554c45006044820152606401611126565b4283600081518110613b4c57613b4c6159d8565b602002602001015111613ba15760405162461bcd60e51b815260206004820152601e60248201527f494e56414c49445f53545245414d5f45585049524154494f4e5f4441544500006044820152606401611126565b8151835114613bec5760405162461bcd60e51b8152602060048201526017602482015276494e56414c49445f5343484544554c455f56414c55455360481b6044820152606401611126565b600283511015613c335760405162461bcd60e51b815260206004820152601260248201527114d0d2115115531157d513d3d7d4d213d49560721b6044820152606401611126565b80613c755760405162461bcd60e51b81526020600482015260126024820152711253959053125117d5105557d411549253d160721b6044820152606401611126565b60015b8351811015613d9e5783613c8d600183615a1c565b81518110613c9d57613c9d6159d8565b6020026020010151848281518110613cb757613cb76159d8565b602002602001015111613d055760405162461bcd60e51b8152602060048201526016602482015275494e56414c49445f5343484544554c455f54494d455360501b6044820152606401611126565b82613d11600183615a1c565b81518110613d2157613d216159d8565b6020026020010151838281518110613d3b57613d3b6159d8565b60200260200101511115613d8c5760405162461bcd60e51b8152602060048201526018602482015277494e56414c49445f5343484544554c455f5245574152445360401b6044820152606401611126565b80613d9681615b2a565b915050613c78565b508160018351613dae9190615a1c565b81518110613dbe57613dbe6159d8565b6020026020010151600014613e135760405162461bcd60e51b815260206004820152601b60248201527a1253959053125117d4d0d2115115531157d1539117d49155d05491602a1b6044820152606401611126565b50505050505050565b61173d846323b872dd60e01b858585604051602401613e3d93929190615c15565b60408051601f198184030181529190526020810180516001600160e01b03166001600160e01b031990931692909217909152614cd8565b4260fd541415613e8057565b60fe5415613f4657613e95600060fd54611ae6565b60fc6000828254613ea69190615a04565b90915550506101055460015b81811015613f435760026101058281548110613ed057613ed06159d8565b60009182526020909120600e600f90920201015460ff166002811115613ef857613ef8615813565b1415613f3157613f078161138a565b6101058281548110613f1b57613f1b6159d8565b90600052602060002090600f0201600b01819055505b80613f3b81615b2a565b915050613eb2565b50505b4260fd55565b60005b8181101561173d576002610105848484818110613f6e57613f6e6159d8565b9050602002013581548110613f8557613f856159d8565b60009182526020909120600e600f90920201015460ff166002811115613fad57613fad615813565b1415613fd557613fd584848484818110613fc957613fc96159d8565b90506020020135614744565b80613fdf81615b2a565b915050613f4f565b6101055460015b8181101561180e576002610105828154811061400c5761400c6159d8565b60009182526020909120600e600f90920201015460ff16600281111561403457614034615813565b1415614044576140448382614744565b8061404e81615b2a565b915050613fee565b6001600160a01b03821660009081526101046020526040812060fe549091906140805750816140c7565b600060fe54846140909190615a33565b905060fc54816140a09190615a52565b91508060fc54836140b19190615a33565b10156140c5576140c2600183615a04565b91505b505b808260010160008282546140db9190615a04565b925050819055508060fe60008282546140f49190615a04565b925050819055508260fc600082825461410d9190615a04565b9091555050815483908390600090614126908490615a04565b90915550600090506141388242614daa565b90508060ff600082825461414c9190615a04565b92505081905550808360020160008282546141679190615a04565b90915550506101055460015b818110156141c857610105818154811061418f5761418f6159d8565b60009182526020808320600b600f90930201919091015483835260058801909152604090912055806141c081615b2a565b915050614173565b50856001600160a01b03167f1449c6dd7851abc30abf37f57715f492010519147cc2652fbc38202c18a6ee908685604051614204929190615627565b60405180910390a2505050505050565b8161424f5760405162461bcd60e51b815260206004820152600b60248201526a16915493d7d05353d5539560aa1b6044820152606401611126565b8082111561429a5760405162461bcd60e51b81526020600482015260186024820152774e4f545f454e4f5547485f5354414b455f42414c414e434560401b6044820152606401611126565b33600090815261010460205260408120600181015460fe8054929391929091906142c5908490615a1c565b9091555050600281015460ff80546000906142e1908490615a1c565b90915550506000600182018190556002820181905560fc8054849290614308908490615a1c565b9091555050600080825580805260038201602052604081208054859290614330908490615a04565b90915550506101058054600090614349576143496159d8565b90600052602060002090600f0201600a0154426143669190615a04565b60008080526004830160209081526040808320939093556003840181528282205492519283523392600080516020615f20833981519152910160405180910390a360405183815233907f0f5bb82176feb1b5e747e28471aa92156a04d9f3ab9f45f28e2d704232b93f759060200160405180910390a260006143e88484615a1c565b9050801561173d5761173d3382614056565b336000818152610104602090815260408083208584526003810183528184208054949055905183815290939185917f3bfce8de0db7450cc169b94323c210e69a36c6a4a58c9f5d96bec4973adce392910160405180910390a36101005461010580546001600160a01b039092169163da0c1a8891339187908110614480576144806159d8565b600091825260209091206002600f9092020101546040516001600160e01b031960e085901b1681526144c192916001600160a01b0316908690600401615c15565b600060405180830381600087803b1580156144db57600080fd5b505af1158015613e13573d6000803e3d6000fd5b6144f98282612f2d565b6118b757600082815260c9602090815260408083206001600160a01b03851684529091529020805460ff191660011790556145313390565b6001600160a01b0316816001600160a01b0316837f2f8788117e7eff1d82e926ec794901d17c78024a50270940304540a733656f0d60405160405180910390a45050565b61457f8282612f2d565b156118b757600082815260c9602090815260408083206001600160a01b0385168085529252808320805460ff1916905551339285917ff6391f5c32d9c69d2a47ea670b442974b53935d1edc7fd64eb21e047a839171b9190a45050565b600080516020615e39833981519152546001600160a01b031690565b60006118b781336138f5565b600061460e6145dc565b905061461984614ea4565b6000835111806146265750815b15614637576146358484614f37565b505b7f4910fdfa16fed3260ed0e7147f7cc6da11a60208b5b9406d12a635614ffd9143805460ff1661260d57805460ff191660011781556040516146b290869061468390859060240161574d565b60408051601f198184030181529190526020810180516001600160e01b0316631b2ce7f360e11b179052614f37565b50805460ff191681556146c36145dc565b6001600160a01b0316826001600160a01b03161461473b5760405162461bcd60e51b815260206004820152602f60248201527f45524331393637557067726164653a207570677261646520627265616b73206660448201526e75727468657220757067726164657360881b6064820152608401611126565b61260d85615019565b806147615760405162461bcd60e51b815260040161112690615acd565b60026101058281548110614777576147776159d8565b60009182526020909120600e600f90920201015460ff16600281111561479f5761479f615813565b146147bc5760405162461bcd60e51b815260040161112690615cd6565b6001600160a01b03821660009081526101046020526040902060018101546148265760405162461bcd60e51b815260206004820152601f60248201527f555345525f444f45535f4e4f545f484156455f41435455414c5f5354414b45006044820152606401611126565b600068fc6f7c40458122964d601f1b8260020154836005016000868152602001908152602001600020546101058681548110614864576148646159d8565b90600052602060002090600f0201600b01546148809190615a1c565b61488a9190615a33565b6148949190615a52565b9050806148a15750505050565b6000838152600383016020526040812080548392906148c1908490615a04565b90915550506101058054849081106148db576148db6159d8565b90600052602060002090600f0201600b015482600501600085815260200190815260200160002081905550610105838154811061491a5761491a6159d8565b90600052602060002090600f0201600a0154426149379190615a04565b6000848152600484016020526040902055610105805482919085908110614960576149606159d8565b90600052602060002090600f020160060160008282546149809190615a04565b909155505060008381526003830160209081526040918290205491519182526001600160a01b038616918591600080516020615f20833981519152910160405180910390a350505050565b600061010583815481106149e1576149e16159d8565b600091825260208220600d600f90920201015491505b8181101561173d576101058481548110614a1357614a136159d8565b90600052602060002090600f020160070154836101058681548110614a3a57614a3a6159d8565b90600052602060002090600f0201600c016001018381548110614a5f57614a5f6159d8565b9060005260206000200154614a749190615a33565b614a7e9190615a52565b6101058581548110614a9257614a926159d8565b90600052602060002090600f0201600c016001018281548110614ab757614ab76159d8565b60009182526020909120015580614acd81615b2a565b9150506149f7565b6040516001600160a01b03831660248201526044810182905261180e90849063a9059cbb60e01b90606401613e3d565b614b0d615059565b614b15615092565b614b206000336144ef565b614b38600080516020615ea0833981519152336144ef565b60fb55565b60606000614b4c836002615a33565b614b57906002615a04565b6001600160401b03811115614b6e57614b6e61534b565b6040519080825280601f01601f191660200182016040528015614b98576020820181803683370190505b509050600360fc1b81600081518110614bb357614bb36159d8565b60200101906001600160f81b031916908160001a905350600f60fb1b81600181518110614be257614be26159d8565b60200101906001600160f81b031916908160001a9053506000614c06846002615a33565b614c11906001615a04565b90505b6001811115614c89576f181899199a1a9b1b9c1cb0b131b232b360811b85600f1660108110614c4557614c456159d8565b1a60f81b828281518110614c5b57614c5b6159d8565b60200101906001600160f81b031916908160001a90535060049490941c93614c8281615d96565b9050614c14565b50831561101d5760405162461bcd60e51b815260206004820181905260248201527f537472696e67733a20686578206c656e67746820696e73756666696369656e746044820152606401611126565b6000614d2d826040518060400160405280602081526020017f5361666545524332303a206c6f772d6c6576656c2063616c6c206661696c6564815250856001600160a01b03166150c19092919063ffffffff16565b80519091501561180e5780806020019051810190614d4b9190615a74565b61180e5760405162461bcd60e51b815260206004820152602a60248201527f5361666545524332303a204552433230206f7065726174696f6e20646964206e6044820152691bdd081cdd58d8d9595960b21b6064820152608401611126565b60008062282072610105600081548110614dc657614dc66159d8565b90600052602060002090600f0201600c01600001600081548110614dec57614dec6159d8565b9060005260206000200154614e019190615a04565b90506000614e13630786156083615a04565b9050818411614e335761010254614e2a9086615a33565b92505050610caf565b808410614e485761010354614e2a9086615a33565b614e528282615a1c565b614e5c8583615a1c565b6101035461010254614e6e9190615a1c565b614e789088615a33565b614e829190615a33565b614e8c9190615a52565b61010354614e9a9087615a33565b6137dc9190615a04565b803b614f085760405162461bcd60e51b815260206004820152602d60248201527f455243313936373a206e657720696d706c656d656e746174696f6e206973206e60448201526c1bdd08184818dbdb9d1c9858dd609a1b6064820152608401611126565b600080516020615e3983398151915280546001600160a01b0319166001600160a01b0392909216919091179055565b6060823b614f965760405162461bcd60e51b815260206004820152602660248201527f416464726573733a2064656c65676174652063616c6c20746f206e6f6e2d636f6044820152651b9d1c9858dd60d21b6064820152608401611126565b600080846001600160a01b031684604051614fb19190615d0b565b600060405180830381855af49150503d8060008114614fec576040519150601f19603f3d011682016040523d82523d6000602084013e614ff1565b606091505b50915091506137dc8282604051806060016040528060278152602001615e79602791396150d0565b61502281614ea4565b6040516001600160a01b038216907fbc7cd75a20ee27fd9adebab32041f755214dbc6bffa90cc0225b39da2e5c2d3b90600090a250565b600054610100900460ff166150805760405162461bcd60e51b815260040161112690615dad565b615088615109565b615090615109565b565b600054610100900460ff166150b95760405162461bcd60e51b815260040161112690615dad565b615080615109565b6060611cdc8484600085615130565b606083156150df57508161101d565b8251156150ef5782518084602001fd5b8160405162461bcd60e51b815260040161112691906159c5565b600054610100900460ff166150905760405162461bcd60e51b815260040161112690615dad565b6060824710156151915760405162461bcd60e51b815260206004820152602660248201527f416464726573733a20696e73756666696369656e742062616c616e636520666f6044820152651c8818d85b1b60d21b6064820152608401611126565b843b6151df5760405162461bcd60e51b815260206004820152601d60248201527f416464726573733a2063616c6c20746f206e6f6e2d636f6e74726163740000006044820152606401611126565b600080866001600160a01b031685876040516151fb9190615d0b565b60006040518083038185875af1925050503d8060008114615238576040519150601f19603f3d011682016040523d82523d6000602084013e61523d565b606091505b50915091506114b98282866150d0565b828054828255906000526020600020908101928215615288579160200282015b8281111561528857825182559160200191906001019061526d565b50615294929150615298565b5090565b5b808211156152945760008155600101615299565b6000602082840312156152bf57600080fd5b81356001600160e01b03198116811461101d57600080fd5b6000806000606084860312156152ec57600080fd5b505081359360208301359350604090920135919050565b80356001600160a01b038116811461531a57600080fd5b919050565b6000806040838503121561533257600080fd5b8235915061534260208401615303565b90509250929050565b634e487b7160e01b600052604160045260246000fd5b604051601f8201601f191681016001600160401b03811182821017156153895761538961534b565b604052919050565b600082601f8301126153a257600080fd5b813560206001600160401b038211156153bd576153bd61534b565b8160051b6153cc828201615361565b92835284810182019282810190878511156153e657600080fd5b83870192505b848310156114b9578235825291830191908301906153ec565b600080600080600080600080610100898b03121561542257600080fd5b61542b89615303565b975061543960208a01615303565b965060408901359550606089013594506080890135935060a08901356001600160401b038082111561546a57600080fd5b6154768c838d01615391565b945060c08b013591508082111561548c57600080fd5b506154998b828c01615391565b92505060e089013590509295985092959890939650565b6000602082840312156154c257600080fd5b5035919050565b60008083601f8401126154db57600080fd5b5081356001600160401b038111156154f257600080fd5b6020830191508360208260051b850101111561550d57600080fd5b9250929050565b6000806000806040858703121561552a57600080fd5b84356001600160401b038082111561554157600080fd5b61554d888389016154c9565b9096509450602087013591508082111561556657600080fd5b50615573878288016154c9565b95989497509550505050565b6000806020838503121561559257600080fd5b82356001600160401b038111156155a857600080fd5b6155b4858286016154c9565b90969095509350505050565b600080604083850312156155d357600080fd5b6155dc83615303565b946020939093013593505050565b6000602082840312156155fc57600080fd5b61101d82615303565b6000806040838503121561561857600080fd5b50508035926020909101359150565b918252602082015260400190565b6000806040838503121561564857600080fd5b61565183615303565b91506020838101356001600160401b038082111561566e57600080fd5b818601915086601f83011261568257600080fd5b8135818111156156945761569461534b565b6156a6601f8201601f19168501615361565b915080825287848285010111156156bc57600080fd5b80848401858401376000848284010152508093505050509250929050565b6000806000806000606086880312156156f257600080fd5b85356001600160401b038082111561570957600080fd5b61571589838a016154c9565b9097509550602088013591508082111561572e57600080fd5b5061573b888289016154c9565b96999598509660400135949350505050565b6001600160a01b0391909116815260200190565b60008060006040848603121561577657600080fd5b61577f84615303565b925060208401356001600160401b0381111561579a57600080fd5b6157a6868287016154c9565b9497909650939450505050565b600081518084526020808501945080840160005b838110156157e3578151875295820195908201906001016157c7565b509495945050505050565b60408152600061580160408301856157b3565b82810360208401526137dc81856157b3565b634e487b7160e01b600052602160045260246000fd5b6001600160a01b038c811682528b166020820152604081018a9052606081018990526080810188905260a0810187905260c0810186905260e081018590526101008101849052610120810183905261016081016003831061589a57634e487b7160e01b600052602160045260246000fd5b826101408301529c9b505050505050505050505050565b60008060008060008060008060006101208a8c0312156158d057600080fd5b6158d98a615303565b98506158e760208b01615303565b975060408a01356001600160401b038082111561590357600080fd5b61590f8d838e01615391565b985060608c013591508082111561592557600080fd5b506159328c828d01615391565b96505060808a0135945060a08a0135935061594f60c08b01615303565b925060e08a013591506101008a013590509295985092959850929598565b60005b83811015615988578181015183820152602001615970565b8381111561173d5750506000910152565b600081518084526159b181602086016020860161596d565b601f01601f19169290920160200192915050565b60208152600061101d6020830184615999565b634e487b7160e01b600052603260045260246000fd5b634e487b7160e01b600052601160045260246000fd5b60008219821115615a1757615a176159ee565b500190565b600082821015615a2e57615a2e6159ee565b500390565b6000816000190483118215151615615a4d57615a4d6159ee565b500290565b600082615a6f57634e487b7160e01b600052601260045260246000fd5b500490565b600060208284031215615a8657600080fd5b8151801515811461101d57600080fd5b6020808252601f908201527f494e56414c49445f535550504f525445445f544f4b454e5f4144445245535300604082015260600190565b60208082526017908201527610555493d49057d49155d0549114d7d0d3d35413d55391604a1b604082015260600190565b60208082526012908201527110d3d395149050d517d254d7d4105554d15160721b604082015260600190565b6000600019821415615b3e57615b3e6159ee565b5060010190565b6020808252601890820152775a45524f5f544f54414c5f4155524f52415f53484152455360401b604082015260600190565b60208082526010908201526f5a45524f5f555345525f53484152455360801b604082015260600190565b6020808252602c90820152600080516020615e1983398151915260408201526b19195b1959d85d1958d85b1b60a21b606082015260800190565b6020808252602c90820152600080516020615e1983398151915260408201526b6163746976652070726f787960a01b606082015260800190565b6001600160a01b039384168152919092166020820152604081019190915260600190565b600060208284031215615c4b57600080fd5b5051919050565b6020808252600f908201526e494e56414c49445f4144445245535360881b604082015260600190565b60208082526013908201527214d51491505357d393d517d41493d413d4d151606a1b604082015260600190565b60208082526014908201527324a72b20a624a22fa9aa2922a0a6afa7aba722a960611b604082015260600190565b6020808252601b908201527a494e4143544956455f4f525f50524f504f5345445f53545245414d60281b604082015260600190565b60008251615d1d81846020870161596d565b9190910192915050565b76020b1b1b2b9b9a1b7b73a3937b61d1030b1b1b7bab73a1604d1b815260008351615d5981601785016020880161596d565b7001034b99036b4b9b9b4b733903937b6329607d1b6017918401918201528351615d8a81602884016020880161596d565b01602801949350505050565b600081615da557615da56159ee565b506000190190565b6020808252602b908201527f496e697469616c697a61626c653a20636f6e7472616374206973206e6f74206960408201526a6e697469616c697a696e6760a81b60608201526080019056fe930802d0eadfb856cb83e01d1c4daa3c89e9c6d9f74cfbe13124decf2b33128a46756e6374696f6e206d7573742062652063616c6c6564207468726f75676820360894a13ba1a3210667c828492db98dca3e2076cc3735a920a3ca505d382bbce843b72f047599c26dfdab8a31d1b5f353799cab6a8482518a21f1b17871dd75416464726573733a206c6f772d6c6576656c2064656c65676174652063616c6c206661696c6564139c2898040ef16910dc9f44dc697df79363da767d8bc92f2e310312b816e46d3062262d3b7b7b5292387920111bfa3e0597dc070a8f10f1be710f15868c22e0f7db13299c8a9e501861f04c20f69a2444829a36a363cfad4b58864709c755603a2f235c9daaf33349d300aadff2f15078a89df81bcfdd45ba11c8f816bddc6f5f1c6be51c8ec7fa7e7ddd9f798ec55927b06cfc8d9159987d1ae3358cb10b59a2646970667358221220f98ba5d1a58cc04412878209c1490c82ddbb107be71a52e43392ef81327ee8fe64736f6c634300080a0033",
  "devdoc": {
    "author": "Aurora Team",
    "details": "Implementation of Jet staking contract      This contract implements the staking mechanics for AURORA ERC20 token.      A user can stake any amount of AURORA tokens, and get rewarded in both      AURORA and other stream tokens based on the rewards schedules.      Stream rewards can be claimed any time however AURORA can't be claimed      unless the user unstakes his full/partial amount of shares.      This contract is AdminControlled which has a tremendous power. However      hopfully it be governed by a community wallet.",
    "kind": "dev",
    "methods": {
      "adminDelegatecall(address,bytes)": {
        "custom:oz-upgrades-unsafe-allow": "delegatecall",
        "details": "adminDelegatecall allows this contract to delegate calls to a target contract and execute it in the context of this contract. Only default admin role can call this function.",
        "params": {
          "data": "is the ABI encoded function signature and its values.",
          "target": "the target contract address"
        }
      },
      "adminPause(uint256)": {
        "details": "adminPause pauses this contract. Only pause role or default admin role can access this function.",
        "params": {
          "flags": "flags variable is used for pausing this contract."
        }
      },
      "adminSstore(uint256,uint256)": {
        "details": "adminSstore updates the state variable value. only default admin role can call this function.",
        "params": {
          "key": "is the storage slot of the state variable",
          "value": "is the state variable value"
        }
      },
      "adminSstoreWithMask(uint256,uint256,uint256)": {
        "details": "adminSstoreWithMask similar to adminSstore except it updates the state variable value after xor-ing this value with the old value and the mask, so the new value should be a result of xor(and(xor(value, oldval), mask), oldval). Only default admin role can call this function.",
        "params": {
          "key": "is the storage slot of the state variable",
          "mask": "this value is used in calculating the new value",
          "value": "is the state variable value"
        }
      },
      "batchClaimOnBehalfOfAnotherUser(address,uint256[])": {
        "details": "batchClaimOnBehalfOfAnotherUser when gas limits prevent users from claiming all.",
        "params": {
          "account": "the user account address.",
          "streamIds": "to claim."
        }
      },
      "batchClaimOnBehalfOfOtherUsers(address[],uint256[])": {
        "details": "Claim all stream rewards on behalf of other users.",
        "params": {
          "accounts": "the user account addresses."
        }
      },
      "batchMoveRewardsToPending(uint256[])": {
        "details": "moves a set of stream Id rewards to pending. Allows user to select stream ids to claim from UI.",
        "params": {
          "streamIds": "stream indexes"
        }
      },
      "batchWithdraw(uint256[])": {
        "details": "withdraw a set of stream Ids. Allows user to select stream ids to withdraw from UI.",
        "params": {
          "streamIds": "to withdraw."
        }
      },
      "cancelStreamProposal(uint256)": {
        "details": "cancelStreamProposal cancels a proposal any time before the stream becomes active (created).",
        "params": {
          "streamId": "the stream index"
        }
      },
      "claimAllOnBehalfOfAnotherUser(address)": {
        "details": "Claim all stream rewards on behalf of another user.",
        "params": {
          "account": "the user account address."
        }
      },
      "claimAllOnBehalfOfOtherUsers(address[])": {
        "details": "Claim all stream rewards on behalf of other users.",
        "params": {
          "accounts": "the user account addresses."
        }
      },
      "claimOnBehalfOfAnotherUser(address,uint256)": {
        "details": "Claim a stream's rewards on behalf of another user.",
        "params": {
          "account": "the user account address.",
          "streamId": "to claim."
        }
      },
      "constructor": {
        "custom:oz-upgrades-unsafe-allow": "constructor"
      },
      "createStream(uint256,uint256)": {
        "details": "create new stream (only stream owner) stream owner must approve reward tokens to this contract.",
        "params": {
          "streamId": "stream id"
        }
      },
      "getAmountOfShares(uint256,address)": {
        "details": "gets a user stream shares",
        "params": {
          "account": "the user address",
          "streamId": "stream index"
        },
        "returns": {
          "_0": "user stream shares"
        }
      },
      "getLatestRewardPerShare(uint256)": {
        "details": "calculates and gets the latest reward per share (RPS) for a stream",
        "params": {
          "streamId": "stream index"
        },
        "returns": {
          "_0": "streams[streamId].rps + scheduled reward up till now"
        }
      },
      "getPending(uint256,address)": {
        "details": "gets the user's stream pending reward",
        "params": {
          "account": "user account",
          "streamId": "stream index"
        },
        "returns": {
          "_0": "user.pendings[streamId]"
        }
      },
      "getReleaseTime(uint256,address)": {
        "details": "gets the user's stream reward release time",
        "params": {
          "account": "user account",
          "streamId": "stream index"
        },
        "returns": {
          "_0": "user.releaseTime[streamId]"
        }
      },
      "getRewardPerShare(uint256)": {
        "details": "gets reward per share (RPS) for a stream",
        "params": {
          "streamId": "stream index"
        },
        "returns": {
          "_0": "streams[streamId].rps"
        }
      },
      "getRewardPerShareForUser(uint256,address)": {
        "details": "gets the user's reward per share (RPS) for a stream",
        "params": {
          "streamId": "stream index"
        },
        "returns": {
          "_0": "user.rpsDuringLastClaim[streamId]"
        }
      },
      "getRewardsAmount(uint256,uint256)": {
        "details": "calculates and gets the latest released rewards.",
        "params": {
          "streamId": "stream index"
        },
        "returns": {
          "_0": "rewards released since last update."
        }
      },
      "getRoleAdmin(bytes32)": {
        "details": "Returns the admin role that controls `role`. See {grantRole} and {revokeRole}. To change a role's admin, use {_setRoleAdmin}."
      },
      "getStream(uint256)": {
        "details": "get the stream data",
        "params": {
          "streamId": "the stream index"
        }
      },
      "getStreamClaimableAmount(uint256,address)": {
        "details": "gets the user's stream claimable amount",
        "params": {
          "streamId": "stream index"
        },
        "returns": {
          "_0": "(latesRPS - user.rpsDuringLastClaim) * user.shares"
        }
      },
      "getStreamOwnerClaimableAmount(uint256)": {
        "details": "Stream owner claimable AURORA.",
        "params": {
          "streamId": "the stream index"
        }
      },
      "getStreamSchedule(uint256)": {
        "details": "get the stream schedule data",
        "params": {
          "streamId": "the stream index"
        }
      },
      "getStreamsCount()": {
        "details": "get the streams count",
        "returns": {
          "_0": "streams.length"
        }
      },
      "getTotalAmountOfStakedAurora()": {
        "details": "gets the total amount of staked aurora",
        "returns": {
          "_0": "totalAmountOfStakedAurora + latest reward schedule"
        }
      },
      "getTreasuryBalance(address)": {
        "details": "Get the treasury balance",
        "params": {
          "token": "the token address"
        }
      },
      "getUserShares(address)": {
        "details": "gets the user shares",
        "params": {
          "account": "the user address"
        },
        "returns": {
          "_0": "user shares"
        }
      },
      "getUserTotalDeposit(address)": {
        "details": "gets the total user deposit",
        "params": {
          "account": "the user address"
        },
        "returns": {
          "_0": "user total deposit in (AURORA)"
        }
      },
      "grantRole(bytes32,address)": {
        "details": "Grants `role` to `account`. If `account` had not been already granted `role`, emits a {RoleGranted} event. Requirements: - the caller must have ``role``'s admin role."
      },
      "hasRole(bytes32,address)": {
        "details": "Returns `true` if `account` has been granted `role`."
      },
      "initialize(address,address,uint256[],uint256[],uint256,uint256,address,uint256,uint256)": {
        "details": "initialize the contract and deploys the first stream (AURORA)",
        "params": {
          "_flags": "admin controlled contract flags",
          "_maxWeight": "max stream reward weighting coefficient",
          "_minWeight": "min stream reward weighting coefficient",
          "_treasury": "the Aurora treasury contract address",
          "aurora": "token contract address",
          "scheduleRewards": "init the schedule amounts",
          "scheduleTimes": "init the schedule time",
          "tauAuroraStream": "release time constant per stream (e.g AURORA stream)"
        }
      },
      "moveAllRewardsToPending()": {
        "details": "moves all the user rewards to pending reward."
      },
      "moveRewardsToPending(uint256)": {
        "details": "moves the reward for specific stream Id to pending rewards. It will require a waiting time untill it get released. Users call this in function in order to claim rewards.",
        "params": {
          "streamId": "stream index"
        }
      },
      "proposeStream(address,address,uint256,uint256,uint256,uint256[],uint256[],uint256)": {
        "details": "An admin of the staking contract can whitelist (propose) a stream. Whitelisting of the stream provides the option for the stream owner (presumably the issuing party of a specific token) to deposit some ERC-20 tokens on the staking contract and potentially get in return some AURORA tokens. Deposited ERC-20 tokens will be distributed to the stakers over some period of time.",
        "params": {
          "auroraDepositAmount": "Amount of the AURORA deposited by the Admin.",
          "maxDepositAmount": "The upper amount of the tokens that should be deposited by the stream owner",
          "rewardToken": "the address of the ERC-20 tokens to be deposited in the stream",
          "scheduleRewards": "remaining rewards to be delivered at the beginning of each scheduled interval. Last element is always zero. First value (in scheduleRewards) from array is supposed to be a total amount of rewards for stream.",
          "scheduleTimes": "timestamp denoting the start of each scheduled interval. Last element is the end of the stream.",
          "streamOwner": "only this account would be able to create a stream",
          "tau": "the tau is (pending release period) for this stream (e.g one day)"
        }
      },
      "releaseAuroraRewardsToStreamOwner(uint256)": {
        "details": "the release of AURORA tokens to the stream owner is subjected to the same schedule as rewards. Thus if for a specific moment in time 30% of the rewards are distributed, then it means that 30% of the AURORA deposit can be withdrawn by the stream owner too. called by the stream owner",
        "params": {
          "streamId": "the stream index"
        }
      },
      "removeStream(uint256,address)": {
        "details": "removes a stream (only default admin role)",
        "params": {
          "streamFundReceiver": "receives the rest of the reward tokens in the stream",
          "streamId": "stream index"
        }
      },
      "renounceRole(bytes32,address)": {
        "details": "Revokes `role` from the calling account. Roles are often managed via {grantRole} and {revokeRole}: this function's purpose is to provide a mechanism for accounts to lose their privileges if they are compromised (such as when a trusted device is misplaced). If the calling account had been revoked `role`, emits a {RoleRevoked} event. Requirements: - the caller must be `account`."
      },
      "revokeRole(bytes32,address)": {
        "details": "Revokes `role` from `account`. If `account` had been granted `role`, emits a {RoleRevoked} event. Requirements: - the caller must have ``role``'s admin role."
      },
      "rewardsSchedule(uint256,uint256,uint256)": {
        "details": "calculate the total amount of the released tokens within a period (start & end)",
        "params": {
          "end": "is the end timestamp (e.g block.timestamp .. now)",
          "start": "is the start timestamp within the schedule",
          "streamId": "the stream index"
        },
        "returns": {
          "_0": "amount of the released tokens for that period"
        }
      },
      "stake(uint256)": {
        "details": "a user stakes amount of AURORA tokens The user should approve these tokens to the treasury contract in order to complete the stake.",
        "params": {
          "amount": "is the AURORA amount."
        }
      },
      "stakeOnBehalfOfAnotherUser(address,uint256)": {
        "details": "stakeOnBehalfOfAnotherUser is called for airdropping Aurora users",
        "params": {
          "account": "the account address",
          "amount": "in AURORA tokens WARNING: rewards are not claimed during stake. Airdrop script must claim or only distribute to accounts without stake"
        }
      },
      "stakeOnBehalfOfOtherUsers(address[],uint256[],uint256)": {
        "details": "stakeOnBehalfOfOtherUsers called for airdropping Aurora users",
        "params": {
          "accounts": "the account address",
          "amounts": "in AURORA tokens",
          "batchAmount": "equals to the sum of amounts WARNING: rewards are not claimed during stake. Airdrop script must claim or only distribute to accounts without stake"
        }
      },
      "startEndScheduleIndex(uint256,uint256,uint256)": {
        "details": "gets start index and end index in a stream schedule",
        "params": {
          "end": "end time (in seconds)",
          "start": "start time (in seconds)",
          "streamId": "stream index"
        }
      },
      "supportsInterface(bytes4)": {
        "details": "See {IERC165-supportsInterface}."
      },
      "unstake(uint256)": {
        "details": "unstake amount from user shares value. The rest is re-staked",
        "params": {
          "amount": "to unstake"
        }
      },
      "unstakeAll()": {
        "details": "unstake all the user's shares"
      },
      "updateTreasury(address)": {
        "details": "restricted for the admin only. Admin should pause this contract before changing the treasury address by setting the pause =1 (for changing this variable, call adminPause(1))",
        "params": {
          "_treasury": "treasury contract address for the reward tokens"
        }
      },
      "upgradeTo(address)": {
        "details": "Upgrade the implementation of the proxy to `newImplementation`. Calls {_authorizeUpgrade}. Emits an {Upgraded} event."
      },
      "upgradeToAndCall(address,bytes)": {
        "details": "Upgrade the implementation of the proxy to `newImplementation`, and subsequently execute the function call encoded in `data`. Calls {_authorizeUpgrade}. Emits an {Upgraded} event."
      },
      "withdraw(uint256)": {
        "details": "withdraw amount in the pending pool. User should wait for pending time (tau constant) in order to be able to withdraw.",
        "params": {
          "streamId": "stream index"
        }
      },
      "withdrawAll()": {
        "details": "withdraw all claimed balances which have passed pending periode. This function will reach gas limit with too many streams, so the frontend will allow individual stream withdrawals and disable withdrawAll."
      }
    },
    "title": "JetStakingV1",
    "version": 1
  },
  "userdoc": {
    "kind": "user",
    "methods": {
      "getStream(uint256)": {
        "notice": "this function doesn't return the stream schedule due to some stake slots limitations. To get the stream schedule, refer to getStreamSchedule"
      },
      "initialize(address,address,uint256[],uint256[],uint256,uint256,address,uint256,uint256)": {
        "notice": "By calling this function, the deployer of this contract must make sure that the AURORA reward amount was deposited to the treasury contract before initializing of the default AURORA stream."
      },
      "proposeStream(address,address,uint256,uint256,uint256,uint256[],uint256[],uint256)": {
        "notice": "treasury manager must call"
      },
      "updateTreasury(address)": {
        "notice": "updates treasury account"
      }
    },
    "version": 1
  },
  "storageLayout": {
    "storage": [
      {
        "astId": 824,
        "contract": "contracts/JetStakingV1.sol:JetStakingV1",
        "label": "_initialized",
        "offset": 0,
        "slot": "0",
        "type": "t_bool"
      },
      {
        "astId": 827,
        "contract": "contracts/JetStakingV1.sol:JetStakingV1",
        "label": "_initializing",
        "offset": 1,
        "slot": "0",
        "type": "t_bool"
      },
      {
        "astId": 806,
        "contract": "contracts/JetStakingV1.sol:JetStakingV1",
        "label": "__gap",
        "offset": 0,
        "slot": "1",
        "type": "t_array(t_uint256)50_storage"
      },
      {
        "astId": 1001,
        "contract": "contracts/JetStakingV1.sol:JetStakingV1",
        "label": "__gap",
        "offset": 0,
        "slot": "51",
        "type": "t_array(t_uint256)50_storage"
      },
      {
        "astId": 1592,
        "contract": "contracts/JetStakingV1.sol:JetStakingV1",
        "label": "__gap",
        "offset": 0,
        "slot": "101",
        "type": "t_array(t_uint256)50_storage"
      },
      {
        "astId": 1901,
        "contract": "contracts/JetStakingV1.sol:JetStakingV1",
        "label": "__gap",
        "offset": 0,
        "slot": "151",
        "type": "t_array(t_uint256)50_storage"
      },
      {
        "astId": 48,
        "contract": "contracts/JetStakingV1.sol:JetStakingV1",
        "label": "_roles",
        "offset": 0,
        "slot": "201",
        "type": "t_mapping(t_bytes32,t_struct(RoleData)43_storage)"
      },
      {
        "astId": 335,
        "contract": "contracts/JetStakingV1.sol:JetStakingV1",
        "label": "__gap",
        "offset": 0,
        "slot": "202",
        "type": "t_array(t_uint256)49_storage"
      },
      {
        "astId": 1925,
        "contract": "contracts/JetStakingV1.sol:JetStakingV1",
        "label": "paused",
        "offset": 0,
        "slot": "251",
        "type": "t_uint256"
      },
      {
        "astId": 2148,
        "contract": "contracts/JetStakingV1.sol:JetStakingV1",
        "label": "totalAmountOfStakedAurora",
        "offset": 0,
        "slot": "252",
        "type": "t_uint256"
      },
      {
        "astId": 2150,
        "contract": "contracts/JetStakingV1.sol:JetStakingV1",
        "label": "touchedAt",
        "offset": 0,
        "slot": "253",
        "type": "t_uint256"
      },
      {
        "astId": 2152,
        "contract": "contracts/JetStakingV1.sol:JetStakingV1",
        "label": "totalAuroraShares",
        "offset": 0,
        "slot": "254",
        "type": "t_uint256"
      },
      {
        "astId": 2154,
        "contract": "contracts/JetStakingV1.sol:JetStakingV1",
        "label": "totalStreamShares",
        "offset": 0,
        "slot": "255",
        "type": "t_uint256"
      },
      {
        "astId": 2156,
        "contract": "contracts/JetStakingV1.sol:JetStakingV1",
        "label": "treasury",
        "offset": 0,
        "slot": "256",
        "type": "t_address"
      },
      {
        "astId": 2158,
        "contract": "contracts/JetStakingV1.sol:JetStakingV1",
        "label": "auroraToken",
        "offset": 0,
        "slot": "257",
        "type": "t_address"
      },
      {
        "astId": 2160,
        "contract": "contracts/JetStakingV1.sol:JetStakingV1",
        "label": "maxWeight",
        "offset": 0,
        "slot": "258",
        "type": "t_uint256"
      },
      {
        "astId": 2162,
        "contract": "contracts/JetStakingV1.sol:JetStakingV1",
        "label": "minWeight",
        "offset": 0,
        "slot": "259",
        "type": "t_uint256"
      },
      {
        "astId": 2228,
        "contract": "contracts/JetStakingV1.sol:JetStakingV1",
        "label": "users",
        "offset": 0,
        "slot": "260",
        "type": "t_mapping(t_address,t_struct(User)2185_storage)"
      },
      {
        "astId": 2232,
        "contract": "contracts/JetStakingV1.sol:JetStakingV1",
        "label": "streams",
        "offset": 0,
        "slot": "261",
        "type": "t_array(t_struct(Stream)2223_storage)dyn_storage"
      }
    ],
    "types": {
      "t_address": {
        "encoding": "inplace",
        "label": "address",
        "numberOfBytes": "20"
      },
      "t_array(t_struct(Stream)2223_storage)dyn_storage": {
        "base": "t_struct(Stream)2223_storage",
        "encoding": "dynamic_array",
        "label": "struct JetStakingV1.Stream[]",
        "numberOfBytes": "32"
      },
      "t_array(t_uint256)49_storage": {
        "base": "t_uint256",
        "encoding": "inplace",
        "label": "uint256[49]",
        "numberOfBytes": "1568"
      },
      "t_array(t_uint256)50_storage": {
        "base": "t_uint256",
        "encoding": "inplace",
        "label": "uint256[50]",
        "numberOfBytes": "1600"
      },
      "t_array(t_uint256)dyn_storage": {
        "base": "t_uint256",
        "encoding": "dynamic_array",
        "label": "uint256[]",
        "numberOfBytes": "32"
      },
      "t_bool": {
        "encoding": "inplace",
        "label": "bool",
        "numberOfBytes": "1"
      },
      "t_bytes32": {
        "encoding": "inplace",
        "label": "bytes32",
        "numberOfBytes": "32"
      },
      "t_enum(StreamStatus)2166": {
        "encoding": "inplace",
        "label": "enum JetStakingV1.StreamStatus",
        "numberOfBytes": "1"
      },
      "t_mapping(t_address,t_bool)": {
        "encoding": "mapping",
        "key": "t_address",
        "label": "mapping(address => bool)",
        "numberOfBytes": "32",
        "value": "t_bool"
      },
      "t_mapping(t_address,t_struct(User)2185_storage)": {
        "encoding": "mapping",
        "key": "t_address",
        "label": "mapping(address => struct JetStakingV1.User)",
        "numberOfBytes": "32",
        "value": "t_struct(User)2185_storage"
      },
      "t_mapping(t_bytes32,t_struct(RoleData)43_storage)": {
        "encoding": "mapping",
        "key": "t_bytes32",
        "label": "mapping(bytes32 => struct AccessControlUpgradeable.RoleData)",
        "numberOfBytes": "32",
        "value": "t_struct(RoleData)43_storage"
      },
      "t_mapping(t_uint256,t_uint256)": {
        "encoding": "mapping",
        "key": "t_uint256",
        "label": "mapping(uint256 => uint256)",
        "numberOfBytes": "32",
        "value": "t_uint256"
      },
      "t_struct(RoleData)43_storage": {
        "encoding": "inplace",
        "label": "struct AccessControlUpgradeable.RoleData",
        "members": [
          {
            "astId": 40,
            "contract": "contracts/JetStakingV1.sol:JetStakingV1",
            "label": "members",
            "offset": 0,
            "slot": "0",
            "type": "t_mapping(t_address,t_bool)"
          },
          {
            "astId": 42,
            "contract": "contracts/JetStakingV1.sol:JetStakingV1",
            "label": "adminRole",
            "offset": 0,
            "slot": "1",
            "type": "t_bytes32"
          }
        ],
        "numberOfBytes": "64"
      },
      "t_struct(Schedule)2192_storage": {
        "encoding": "inplace",
        "label": "struct JetStakingV1.Schedule",
        "members": [
          {
            "astId": 2188,
            "contract": "contracts/JetStakingV1.sol:JetStakingV1",
            "label": "time",
            "offset": 0,
            "slot": "0",
            "type": "t_array(t_uint256)dyn_storage"
          },
          {
            "astId": 2191,
            "contract": "contracts/JetStakingV1.sol:JetStakingV1",
            "label": "reward",
            "offset": 0,
            "slot": "1",
            "type": "t_array(t_uint256)dyn_storage"
          }
        ],
        "numberOfBytes": "64"
      },
      "t_struct(Stream)2223_storage": {
        "encoding": "inplace",
        "label": "struct JetStakingV1.Stream",
        "members": [
          {
            "astId": 2194,
            "contract": "contracts/JetStakingV1.sol:JetStakingV1",
            "label": "owner",
            "offset": 0,
            "slot": "0",
            "type": "t_address"
          },
          {
            "astId": 2196,
            "contract": "contracts/JetStakingV1.sol:JetStakingV1",
            "label": "manager",
            "offset": 0,
            "slot": "1",
            "type": "t_address"
          },
          {
            "astId": 2198,
            "contract": "contracts/JetStakingV1.sol:JetStakingV1",
            "label": "rewardToken",
            "offset": 0,
            "slot": "2",
            "type": "t_address"
          },
          {
            "astId": 2200,
            "contract": "contracts/JetStakingV1.sol:JetStakingV1",
            "label": "auroraDepositAmount",
            "offset": 0,
            "slot": "3",
            "type": "t_uint256"
          },
          {
            "astId": 2202,
            "contract": "contracts/JetStakingV1.sol:JetStakingV1",
            "label": "auroraClaimedAmount",
            "offset": 0,
            "slot": "4",
            "type": "t_uint256"
          },
          {
            "astId": 2204,
            "contract": "contracts/JetStakingV1.sol:JetStakingV1",
            "label": "rewardDepositAmount",
            "offset": 0,
            "slot": "5",
            "type": "t_uint256"
          },
          {
            "astId": 2206,
            "contract": "contracts/JetStakingV1.sol:JetStakingV1",
            "label": "rewardClaimedAmount",
            "offset": 0,
            "slot": "6",
            "type": "t_uint256"
          },
          {
            "astId": 2208,
            "contract": "contracts/JetStakingV1.sol:JetStakingV1",
            "label": "maxDepositAmount",
            "offset": 0,
            "slot": "7",
            "type": "t_uint256"
          },
          {
            "astId": 2210,
            "contract": "contracts/JetStakingV1.sol:JetStakingV1",
            "label": "minDepositAmount",
            "offset": 0,
            "slot": "8",
            "type": "t_uint256"
          },
          {
            "astId": 2212,
            "contract": "contracts/JetStakingV1.sol:JetStakingV1",
            "label": "lastTimeOwnerClaimed",
            "offset": 0,
            "slot": "9",
            "type": "t_uint256"
          },
          {
            "astId": 2214,
            "contract": "contracts/JetStakingV1.sol:JetStakingV1",
            "label": "tau",
            "offset": 0,
            "slot": "10",
            "type": "t_uint256"
          },
          {
            "astId": 2216,
            "contract": "contracts/JetStakingV1.sol:JetStakingV1",
            "label": "rps",
            "offset": 0,
            "slot": "11",
            "type": "t_uint256"
          },
          {
            "astId": 2219,
            "contract": "contracts/JetStakingV1.sol:JetStakingV1",
            "label": "schedule",
            "offset": 0,
            "slot": "12",
            "type": "t_struct(Schedule)2192_storage"
          },
          {
            "astId": 2222,
            "contract": "contracts/JetStakingV1.sol:JetStakingV1",
            "label": "status",
            "offset": 0,
            "slot": "14",
            "type": "t_enum(StreamStatus)2166"
          }
        ],
        "numberOfBytes": "480"
      },
      "t_struct(User)2185_storage": {
        "encoding": "inplace",
        "label": "struct JetStakingV1.User",
        "members": [
          {
            "astId": 2168,
            "contract": "contracts/JetStakingV1.sol:JetStakingV1",
            "label": "deposit",
            "offset": 0,
            "slot": "0",
            "type": "t_uint256"
          },
          {
            "astId": 2170,
            "contract": "contracts/JetStakingV1.sol:JetStakingV1",
            "label": "auroraShares",
            "offset": 0,
            "slot": "1",
            "type": "t_uint256"
          },
          {
            "astId": 2172,
            "contract": "contracts/JetStakingV1.sol:JetStakingV1",
            "label": "streamShares",
            "offset": 0,
            "slot": "2",
            "type": "t_uint256"
          },
          {
            "astId": 2176,
            "contract": "contracts/JetStakingV1.sol:JetStakingV1",
            "label": "pendings",
            "offset": 0,
            "slot": "3",
            "type": "t_mapping(t_uint256,t_uint256)"
          },
          {
            "astId": 2180,
            "contract": "contracts/JetStakingV1.sol:JetStakingV1",
            "label": "releaseTime",
            "offset": 0,
            "slot": "4",
            "type": "t_mapping(t_uint256,t_uint256)"
          },
          {
            "astId": 2184,
            "contract": "contracts/JetStakingV1.sol:JetStakingV1",
            "label": "rpsDuringLastClaim",
            "offset": 0,
            "slot": "5",
            "type": "t_mapping(t_uint256,t_uint256)"
          }
        ],
        "numberOfBytes": "192"
      },
      "t_uint256": {
        "encoding": "inplace",
        "label": "uint256",
        "numberOfBytes": "32"
      }
    }
  }
}