{
  "address": "0xF075c896CbbB625E7911E284cD23EE19bdCCf299",
  "abi": [
    {
      "inputs": [],
      "stateMutability": "nonpayable",
      "type": "constructor"
    },
    {
      "anonymous": false,
      "inputs": [
        {
          "indexed": false,
          "internalType": "address",
          "name": "previousAdmin",
          "type": "address"
        },
        {
          "indexed": false,
          "internalType": "address",
          "name": "newAdmin",
          "type": "address"
        }
      ],
      "name": "AdminChanged",
      "type": "event"
    },
    {
      "anonymous": false,
      "inputs": [
        {
          "indexed": true,
          "internalType": "address",
          "name": "beacon",
          "type": "address"
        }
      ],
      "name": "BeaconUpgraded",
      "type": "event"
    },
    {
      "anonymous": false,
      "inputs": [
        {
          "indexed": true,
          "internalType": "bytes32",
          "name": "role",
          "type": "bytes32"
        },
        {
          "indexed": true,
          "internalType": "bytes32",
          "name": "previousAdminRole",
          "type": "bytes32"
        },
        {
          "indexed": true,
          "internalType": "bytes32",
          "name": "newAdminRole",
          "type": "bytes32"
        }
      ],
      "name": "RoleAdminChanged",
      "type": "event"
    },
    {
      "anonymous": false,
      "inputs": [
        {
          "indexed": true,
          "internalType": "bytes32",
          "name": "role",
          "type": "bytes32"
        },
        {
          "indexed": true,
          "internalType": "address",
          "name": "account",
          "type": "address"
        },
        {
          "indexed": true,
          "internalType": "address",
          "name": "sender",
          "type": "address"
        }
      ],
      "name": "RoleGranted",
      "type": "event"
    },
    {
      "anonymous": false,
      "inputs": [
        {
          "indexed": true,
          "internalType": "bytes32",
          "name": "role",
          "type": "bytes32"
        },
        {
          "indexed": true,
          "internalType": "address",
          "name": "account",
          "type": "address"
        },
        {
          "indexed": true,
          "internalType": "address",
          "name": "sender",
          "type": "address"
        }
      ],
      "name": "RoleRevoked",
      "type": "event"
    },
    {
      "anonymous": false,
      "inputs": [
        {
          "indexed": true,
          "internalType": "address",
          "name": "token",
          "type": "address"
        },
        {
          "indexed": true,
          "internalType": "address",
          "name": "addedBy",
          "type": "address"
        },
        {
          "indexed": false,
          "internalType": "uint256",
          "name": "timestamp",
          "type": "uint256"
        }
      ],
      "name": "TokenAdded",
      "type": "event"
    },
    {
      "anonymous": false,
      "inputs": [
        {
          "indexed": true,
          "internalType": "address",
          "name": "token",
          "type": "address"
        },
        {
          "indexed": true,
          "internalType": "address",
          "name": "addedBy",
          "type": "address"
        },
        {
          "indexed": false,
          "internalType": "uint256",
          "name": "timestamp",
          "type": "uint256"
        }
      ],
      "name": "TokenRemoved",
      "type": "event"
    },
    {
      "anonymous": false,
      "inputs": [
        {
          "indexed": true,
          "internalType": "address",
          "name": "implementation",
          "type": "address"
        }
      ],
      "name": "Upgraded",
      "type": "event"
    },
    {
      "inputs": [],
      "name": "DEFAULT_ADMIN_ROLE",
      "outputs": [
        {
          "internalType": "bytes32",
          "name": "",
          "type": "bytes32"
        }
      ],
      "stateMutability": "view",
      "type": "function"
    },
    {
      "inputs": [],
      "name": "PAUSE_ROLE",
      "outputs": [
        {
          "internalType": "bytes32",
          "name": "",
          "type": "bytes32"
        }
      ],
      "stateMutability": "view",
      "type": "function"
    },
    {
      "inputs": [],
      "name": "TREASURY_MANAGER_ROLE",
      "outputs": [
        {
          "internalType": "bytes32",
          "name": "",
          "type": "bytes32"
        }
      ],
      "stateMutability": "view",
      "type": "function"
    },
    {
      "inputs": [
        {
          "internalType": "address",
          "name": "_token",
          "type": "address"
        }
      ],
      "name": "addSupportedToken",
      "outputs": [],
      "stateMutability": "nonpayable",
      "type": "function"
    },
    {
      "inputs": [
        {
          "internalType": "address",
          "name": "target",
          "type": "address"
        },
        {
          "internalType": "bytes",
          "name": "data",
          "type": "bytes"
        }
      ],
      "name": "adminDelegatecall",
      "outputs": [
        {
          "internalType": "bytes",
          "name": "",
          "type": "bytes"
        }
      ],
      "stateMutability": "payable",
      "type": "function"
    },
    {
      "inputs": [
        {
          "internalType": "uint256",
          "name": "flags",
          "type": "uint256"
        }
      ],
      "name": "adminPause",
      "outputs": [],
      "stateMutability": "nonpayable",
      "type": "function"
    },
    {
      "inputs": [
        {
          "internalType": "uint256",
          "name": "key",
          "type": "uint256"
        },
        {
          "internalType": "uint256",
          "name": "value",
          "type": "uint256"
        }
      ],
      "name": "adminSstore",
      "outputs": [],
      "stateMutability": "nonpayable",
      "type": "function"
    },
    {
      "inputs": [
        {
          "internalType": "uint256",
          "name": "key",
          "type": "uint256"
        },
        {
          "internalType": "uint256",
          "name": "value",
          "type": "uint256"
        },
        {
          "internalType": "uint256",
          "name": "mask",
          "type": "uint256"
        }
      ],
      "name": "adminSstoreWithMask",
      "outputs": [],
      "stateMutability": "nonpayable",
      "type": "function"
    },
    {
      "inputs": [
        {
          "internalType": "bytes32",
          "name": "role",
          "type": "bytes32"
        }
      ],
      "name": "getRoleAdmin",
      "outputs": [
        {
          "internalType": "bytes32",
          "name": "",
          "type": "bytes32"
        }
      ],
      "stateMutability": "view",
      "type": "function"
    },
    {
      "inputs": [
        {
          "internalType": "bytes32",
          "name": "role",
          "type": "bytes32"
        },
        {
          "internalType": "address",
          "name": "account",
          "type": "address"
        }
      ],
      "name": "grantRole",
      "outputs": [],
      "stateMutability": "nonpayable",
      "type": "function"
    },
    {
      "inputs": [
        {
          "internalType": "bytes32",
          "name": "role",
          "type": "bytes32"
        },
        {
          "internalType": "address",
          "name": "account",
          "type": "address"
        }
      ],
      "name": "hasRole",
      "outputs": [
        {
          "internalType": "bool",
          "name": "",
          "type": "bool"
        }
      ],
      "stateMutability": "view",
      "type": "function"
    },
    {
      "inputs": [
        {
          "internalType": "address[]",
          "name": "_supportedTokens",
          "type": "address[]"
        },
        {
          "internalType": "uint256",
          "name": "_flags",
          "type": "uint256"
        }
      ],
      "name": "initialize",
      "outputs": [],
      "stateMutability": "nonpayable",
      "type": "function"
    },
    {
      "inputs": [
        {
          "internalType": "address",
          "name": "",
          "type": "address"
        }
      ],
      "name": "isSupportedToken",
      "outputs": [
        {
          "internalType": "bool",
          "name": "",
          "type": "bool"
        }
      ],
      "stateMutability": "view",
      "type": "function"
    },
    {
      "inputs": [],
      "name": "paused",
      "outputs": [
        {
          "internalType": "uint256",
          "name": "",
          "type": "uint256"
        }
      ],
      "stateMutability": "view",
      "type": "function"
    },
    {
      "inputs": [
        {
          "internalType": "address",
          "name": "_user",
          "type": "address"
        },
        {
          "internalType": "address",
          "name": "_token",
          "type": "address"
        },
        {
          "internalType": "uint256",
          "name": "_amount",
          "type": "uint256"
        }
      ],
      "name": "payRewards",
      "outputs": [],
      "stateMutability": "nonpayable",
      "type": "function"
    },
    {
      "inputs": [
        {
          "internalType": "address",
          "name": "_token",
          "type": "address"
        }
      ],
      "name": "removeSupportedToken",
      "outputs": [],
      "stateMutability": "nonpayable",
      "type": "function"
    },
    {
      "inputs": [
        {
          "internalType": "bytes32",
          "name": "role",
          "type": "bytes32"
        },
        {
          "internalType": "address",
          "name": "account",
          "type": "address"
        }
      ],
      "name": "renounceRole",
      "outputs": [],
      "stateMutability": "nonpayable",
      "type": "function"
    },
    {
      "inputs": [
        {
          "internalType": "bytes32",
          "name": "role",
          "type": "bytes32"
        },
        {
          "internalType": "address",
          "name": "account",
          "type": "address"
        }
      ],
      "name": "revokeRole",
      "outputs": [],
      "stateMutability": "nonpayable",
      "type": "function"
    },
    {
      "inputs": [
        {
          "internalType": "bytes4",
          "name": "interfaceId",
          "type": "bytes4"
        }
      ],
      "name": "supportsInterface",
      "outputs": [
        {
          "internalType": "bool",
          "name": "",
          "type": "bool"
        }
      ],
      "stateMutability": "view",
      "type": "function"
    },
    {
      "inputs": [
        {
          "internalType": "address",
          "name": "newImplementation",
          "type": "address"
        }
      ],
      "name": "upgradeTo",
      "outputs": [],
      "stateMutability": "nonpayable",
      "type": "function"
    },
    {
      "inputs": [
        {
          "internalType": "address",
          "name": "newImplementation",
          "type": "address"
        },
        {
          "internalType": "bytes",
          "name": "data",
          "type": "bytes"
        }
      ],
      "name": "upgradeToAndCall",
      "outputs": [],
      "stateMutability": "payable",
      "type": "function"
    }
  ],
  "solcInputHash": "ce94d36f9c4294fc811070edf3788f19",
  "bytecode": "0x60a0604052306080523480156200001557600080fd5b50600054610100900460ff16620000335760005460ff16156200003d565b6200003d620000e2565b620000a55760405162461bcd60e51b815260206004820152602e60248201527f496e697469616c697a61626c653a20636f6e747261637420697320616c72656160448201526d191e481a5b9a5d1a585b1a5e995960921b606482015260840160405180910390fd5b600054610100900460ff16158015620000c8576000805461ffff19166101011790555b8015620000db576000805461ff00191690555b5062000106565b6000620000fa306200010060201b62000c381760201c565b15905090565b3b151590565b608051611bfe620001376000396000818161053501528181610575015281816105fe015261063e0152611bfe6000f3fe6080604052600436106100fa5760003560e01c806301ffc9a7146100ff578063240028e814610134578063248a9ca3146101645780632692c59f146101925780632f2ff15d146101b457806336568abe146101d45780633659cfe6146101f4578063389ed267146102145780634f1ef286146102365780635c975abb1461024957806360b5bb3f1461025f5780636c4624c31461027f5780636d69fcaf1461029f57806376319190146102bf57806391d14854146102df578063a217fddf146102ff578063b8e9744c14610314578063be831a2e14610334578063d547741f14610354578063da0c1a8814610374578063ebdf690f14610394575b600080fd5b34801561010b57600080fd5b5061011f61011a3660046115bc565b6103b6565b60405190151581526020015b60405180910390f35b34801561014057600080fd5b5061011f61014f366004611602565b60fc6020526000908152604090205460ff1681565b34801561017057600080fd5b5061018461017f36600461161d565b6103ed565b60405190815260200161012b565b34801561019e57600080fd5b506101b26101ad36600461161d565b610402565b005b3480156101c057600080fd5b506101b26101cf366004611636565b61048a565b3480156101e057600080fd5b506101b26101ef366004611636565b6104ac565b34801561020057600080fd5b506101b261020f366004611602565b61052a565b34801561022057600080fd5b50610184600080516020611ba983398151915281565b6101b26102443660046116a8565b6105f3565b34801561025557600080fd5b5061018460fb5481565b34801561026b57600080fd5b506101b261027a36600461174d565b6106a9565b34801561028b57600080fd5b506101b261029a3660046117ff565b610861565b3480156102ab57600080fd5b506101b26102ba366004611602565b610879565b3480156102cb57600080fd5b506101b26102da366004611602565b61098e565b3480156102eb57600080fd5b5061011f6102fa366004611636565b610a92565b34801561030b57600080fd5b50610184600081565b6103276103223660046116a8565b610abd565b60405161012b9190611883565b34801561034057600080fd5b506101b261034f366004611896565b610b83565b34801561036057600080fd5b506101b261036f366004611636565b610b94565b34801561038057600080fd5b506101b261038f3660046118b8565b610bb1565b3480156103a057600080fd5b50610184600080516020611b8983398151915281565b60006001600160e01b03198216637965db0b60e01b14806103e757506301ffc9a760e01b6001600160e01b03198316145b92915050565b600090815260c9602052604090206001015490565b600080516020611ba983398151915261041b8133610c3e565b60fb5482811614806104335750610433600033610a92565b6104845760405162461bcd60e51b815260206004820152601e60248201527f4f4e4c595f44454641554c545f41444d494e5f43414e5f554e5041555345000060448201526064015b60405180910390fd5b5060fb55565b610493826103ed565b61049d8133610c3e565b6104a78383610ca2565b505050565b6001600160a01b038116331461051c5760405162461bcd60e51b815260206004820152602f60248201527f416363657373436f6e74726f6c3a2063616e206f6e6c792072656e6f756e636560448201526e103937b632b9903337b91039b2b63360891b606482015260840161047b565b6105268282610d28565b5050565b306001600160a01b037f00000000000000000000000000000000000000000000000000000000000000001614156105735760405162461bcd60e51b815260040161047b906118f4565b7f00000000000000000000000000000000000000000000000000000000000000006001600160a01b03166105a5610d8f565b6001600160a01b0316146105cb5760405162461bcd60e51b815260040161047b9061192e565b6105d481610dab565b604080516000808252602082019092526105f091839190610db7565b50565b306001600160a01b037f000000000000000000000000000000000000000000000000000000000000000016141561063c5760405162461bcd60e51b815260040161047b906118f4565b7f00000000000000000000000000000000000000000000000000000000000000006001600160a01b031661066e610d8f565b6001600160a01b0316146106945760405162461bcd60e51b815260040161047b9061192e565b61069d82610dab565b61052682826001610db7565b600054610100900460ff166106c45760005460ff16156106c8565b303b155b61072b5760405162461bcd60e51b815260206004820152602e60248201527f496e697469616c697a61626c653a20636f6e747261637420697320616c72656160448201526d191e481a5b9a5d1a585b1a5e995960921b606482015260840161047b565b600054610100900460ff1615801561074d576000805461ffff19166101011790555b60005b83518110156108295760006001600160a01b031684828151811061077657610776611968565b60200260200101516001600160a01b031614156107cd5760405162461bcd60e51b8152602060048201526015602482015274494e56414c49445f544f4b454e5f4144445245535360581b604482015260640161047b565b600160fc60008684815181106107e5576107e5611968565b6020908102919091018101516001600160a01b03168252810191909152604001600020805460ff19169115159190911790558061082181611994565b915050610750565b5061083382610f02565b61084b600080516020611b8983398151915233610ca2565b80156104a7576000805461ff0019169055505050565b600061086d8133610c3e565b50825491821816189055565b60018060fb5416600014806108945750610894600033610a92565b6108b05760405162461bcd60e51b815260040161047b906119af565b600080516020611b898339815191526108c98133610c3e565b6001600160a01b038316600090815260fc602052604090205460ff16156109295760405162461bcd60e51b8152602060048201526014602482015273544f4b454e5f414c52454144595f45584953545360601b604482015260640161047b565b6001600160a01b038316600081815260fc602052604090819020805460ff19166001179055513391907f7156d0b8d9ed8d1117b97d76a15a304bad2749fc23251c2c7ed65a0698952850906109819042815260200190565b60405180910390a3505050565b60018060fb5416600014806109a957506109a9600033610a92565b6109c55760405162461bcd60e51b815260040161047b906119af565b600080516020611b898339815191526109de8133610c3e565b6001600160a01b038316600090815260fc602052604090205460ff16610a3d5760405162461bcd60e51b81526020600482015260146024820152731513d2d15397d113d154d7d393d517d1561254d560621b604482015260640161047b565b6001600160a01b038316600081815260fc602052604090819020805460ff19169055513391907feddce3117927831e55f862ee4b16c60ba431908fc8404f5a2d40c2ac163c3b14906109819042815260200190565b600091825260c9602090815260408084206001600160a01b0393909316845291905290205460ff1690565b60606000610acb8133610c3e565b6001600160a01b038416610b105760405162461bcd60e51b815260206004820152600c60248201526b5a45524f5f4144445245535360a01b604482015260640161047b565b600080856001600160a01b031685604051610b2b91906119db565b600060405180830381855af49150503d8060008114610b66576040519150601f19603f3d011682016040523d82523d6000602084013e610b6b565b606091505b509150915081610b7a57600080fd5b95945050505050565b6000610b8f8133610c3e565b509055565b610b9d826103ed565b610ba78133610c3e565b6104a78383610d28565b6000610bbd8133610c3e565b6001600160a01b038316600090815260fc602052604090205460ff16610c1e5760405162461bcd60e51b81526020600482015260166024820152751513d2d15397d254d7d393d517d4d5541413d495115160521b604482015260640161047b565b610c326001600160a01b0384168584610f3a565b50505050565b3b151590565b610c488282610a92565b61052657610c60816001600160a01b03166014610f8c565b610c6b836020610f8c565b604051602001610c7c9291906119f7565b60408051601f198184030181529082905262461bcd60e51b825261047b91600401611883565b610cac8282610a92565b61052657600082815260c9602090815260408083206001600160a01b03851684529091529020805460ff19166001179055610ce43390565b6001600160a01b0316816001600160a01b0316837f2f8788117e7eff1d82e926ec794901d17c78024a50270940304540a733656f0d60405160405180910390a45050565b610d328282610a92565b1561052657600082815260c9602090815260408083206001600160a01b0385168085529252808320805460ff1916905551339285917ff6391f5c32d9c69d2a47ea670b442974b53935d1edc7fd64eb21e047a839171b9190a45050565b600080516020611b42833981519152546001600160a01b031690565b60006105268133610c3e565b6000610dc1610d8f565b9050610dcc8461112e565b600083511180610dd95750815b15610dea57610de884846111c1565b505b7f4910fdfa16fed3260ed0e7147f7cc6da11a60208b5b9406d12a635614ffd9143805460ff16610efb57805460ff191660011781556040516001600160a01b0383166024820152610e6990869060440160408051601f198184030181529190526020810180516001600160e01b0316631b2ce7f360e11b1790526111c1565b50805460ff19168155610e7a610d8f565b6001600160a01b0316826001600160a01b031614610ef25760405162461bcd60e51b815260206004820152602f60248201527f45524331393637557067726164653a207570677261646520627265616b73206660448201526e75727468657220757067726164657360881b606482015260840161047b565b610efb856112a3565b5050505050565b610f0a6112e3565b610f1261131c565b610f1d600033610ca2565b610f35600080516020611ba983398151915233610ca2565b60fb55565b604080516001600160a01b038416602482015260448082018490528251808303909101815260649091019091526020810180516001600160e01b031663a9059cbb60e01b1790526104a790849061134b565b60606000610f9b836002611a66565b610fa6906002611a85565b6001600160401b03811115610fbd57610fbd611662565b6040519080825280601f01601f191660200182016040528015610fe7576020820181803683370190505b509050600360fc1b8160008151811061100257611002611968565b60200101906001600160f81b031916908160001a905350600f60fb1b8160018151811061103157611031611968565b60200101906001600160f81b031916908160001a9053506000611055846002611a66565b611060906001611a85565b90505b60018111156110d8576f181899199a1a9b1b9c1cb0b131b232b360811b85600f166010811061109457611094611968565b1a60f81b8282815181106110aa576110aa611968565b60200101906001600160f81b031916908160001a90535060049490941c936110d181611a9d565b9050611063565b5083156111275760405162461bcd60e51b815260206004820181905260248201527f537472696e67733a20686578206c656e67746820696e73756666696369656e74604482015260640161047b565b9392505050565b803b6111925760405162461bcd60e51b815260206004820152602d60248201527f455243313936373a206e657720696d706c656d656e746174696f6e206973206e60448201526c1bdd08184818dbdb9d1c9858dd609a1b606482015260840161047b565b600080516020611b4283398151915280546001600160a01b0319166001600160a01b0392909216919091179055565b6060823b6112205760405162461bcd60e51b815260206004820152602660248201527f416464726573733a2064656c65676174652063616c6c20746f206e6f6e2d636f6044820152651b9d1c9858dd60d21b606482015260840161047b565b600080846001600160a01b03168460405161123b91906119db565b600060405180830381855af49150503d8060008114611276576040519150601f19603f3d011682016040523d82523d6000602084013e61127b565b606091505b5091509150610b7a8282604051806060016040528060278152602001611b626027913961141d565b6112ac8161112e565b6040516001600160a01b038216907fbc7cd75a20ee27fd9adebab32041f755214dbc6bffa90cc0225b39da2e5c2d3b90600090a250565b600054610100900460ff1661130a5760405162461bcd60e51b815260040161047b90611ab4565b611312611456565b61131a611456565b565b600054610100900460ff166113435760405162461bcd60e51b815260040161047b90611ab4565b61130a611456565b60006113a0826040518060400160405280602081526020017f5361666545524332303a206c6f772d6c6576656c2063616c6c206661696c6564815250856001600160a01b031661147d9092919063ffffffff16565b8051909150156104a757808060200190518101906113be9190611aff565b6104a75760405162461bcd60e51b815260206004820152602a60248201527f5361666545524332303a204552433230206f7065726174696f6e20646964206e6044820152691bdd081cdd58d8d9595960b21b606482015260840161047b565b6060831561142c575081611127565b82511561143c5782518084602001fd5b8160405162461bcd60e51b815260040161047b9190611883565b600054610100900460ff1661131a5760405162461bcd60e51b815260040161047b90611ab4565b606061148c8484600085611494565b949350505050565b6060824710156114f55760405162461bcd60e51b815260206004820152602660248201527f416464726573733a20696e73756666696369656e742062616c616e636520666f6044820152651c8818d85b1b60d21b606482015260840161047b565b843b6115435760405162461bcd60e51b815260206004820152601d60248201527f416464726573733a2063616c6c20746f206e6f6e2d636f6e7472616374000000604482015260640161047b565b600080866001600160a01b0316858760405161155f91906119db565b60006040518083038185875af1925050503d806000811461159c576040519150601f19603f3d011682016040523d82523d6000602084013e6115a1565b606091505b50915091506115b182828661141d565b979650505050505050565b6000602082840312156115ce57600080fd5b81356001600160e01b03198116811461112757600080fd5b80356001600160a01b03811681146115fd57600080fd5b919050565b60006020828403121561161457600080fd5b611127826115e6565b60006020828403121561162f57600080fd5b5035919050565b6000806040838503121561164957600080fd5b82359150611659602084016115e6565b90509250929050565b634e487b7160e01b600052604160045260246000fd5b604051601f8201601f191681016001600160401b03811182821017156116a0576116a0611662565b604052919050565b600080604083850312156116bb57600080fd5b6116c4836115e6565b91506020838101356001600160401b03808211156116e157600080fd5b818601915086601f8301126116f557600080fd5b81358181111561170757611707611662565b611719601f8201601f19168501611678565b9150808252878482850101111561172f57600080fd5b80848401858401376000848284010152508093505050509250929050565b6000806040838503121561176057600080fd5b82356001600160401b038082111561177757600080fd5b818501915085601f83011261178b57600080fd5b813560208282111561179f5761179f611662565b8160051b92506117b0818401611678565b82815292840181019281810190898511156117ca57600080fd5b948201945b848610156117ef576117e0866115e6565b825294820194908201906117cf565b9997909101359750505050505050565b60008060006060848603121561181457600080fd5b505081359360208301359350604090920135919050565b60005b8381101561184657818101518382015260200161182e565b83811115610c325750506000910152565b6000815180845261186f81602086016020860161182b565b601f01601f19169290920160200192915050565b6020815260006111276020830184611857565b600080604083850312156118a957600080fd5b50508035926020909101359150565b6000806000606084860312156118cd57600080fd5b6118d6846115e6565b92506118e4602085016115e6565b9150604084013590509250925092565b6020808252602c90820152600080516020611b2283398151915260408201526b19195b1959d85d1958d85b1b60a21b606082015260800190565b6020808252602c90820152600080516020611b2283398151915260408201526b6163746976652070726f787960a01b606082015260800190565b634e487b7160e01b600052603260045260246000fd5b634e487b7160e01b600052601160045260246000fd5b60006000198214156119a8576119a861197e565b5060010190565b60208082526012908201527110d3d395149050d517d254d7d4105554d15160721b604082015260600190565b600082516119ed81846020870161182b565b9190910192915050565b76020b1b1b2b9b9a1b7b73a3937b61d1030b1b1b7bab73a1604d1b815260008351611a2981601785016020880161182b565b7001034b99036b4b9b9b4b733903937b6329607d1b6017918401918201528351611a5a81602884016020880161182b565b01602801949350505050565b6000816000190483118215151615611a8057611a8061197e565b500290565b60008219821115611a9857611a9861197e565b500190565b600081611aac57611aac61197e565b506000190190565b6020808252602b908201527f496e697469616c697a61626c653a20636f6e7472616374206973206e6f74206960408201526a6e697469616c697a696e6760a81b606082015260800190565b600060208284031215611b1157600080fd5b8151801515811461112757600080fdfe46756e6374696f6e206d7573742062652063616c6c6564207468726f75676820360894a13ba1a3210667c828492db98dca3e2076cc3735a920a3ca505d382bbc416464726573733a206c6f772d6c6576656c2064656c65676174652063616c6c206661696c6564ede9dcdb0ce99dc7cec9c7be9246ad08b37853683ad91569c187b647ddf5e21c139c2898040ef16910dc9f44dc697df79363da767d8bc92f2e310312b816e46da2646970667358221220b5e4fe947823f3014cee3ad4c8a8617a36eff5de259bbda3997e23f529a9544564736f6c634300080a0033",
  "devdoc": {
    "author": "Aurora Team",
    "details": "Implementation of the treasury contract      This contract is holding all the aurora staking and streams funds.      It inherits adminControlled which gives admin more privilegs over this      this contract.",
    "kind": "dev",
    "methods": {
      "addSupportedToken(address)": {
        "params": {
          "_token": "stream ERC20 token address"
        }
      },
      "adminDelegatecall(address,bytes)": {
        "custom:oz-upgrades-unsafe-allow": "delegatecall",
        "details": "adminDelegatecall allows this contract to delegate calls to a target contract and execute it in the context of this contract. Only default admin role can call this function.",
        "params": {
          "data": "is the ABI encoded function signature and its values.",
          "target": "the target contract address"
        }
      },
      "adminPause(uint256)": {
        "details": "adminPause pauses this contract. Only pause role or default admin role can access this function.",
        "params": {
          "flags": "flags variable is used for pausing this contract."
        }
      },
      "adminSstore(uint256,uint256)": {
        "details": "adminSstore updates the state variable value. only default admin role can call this function.",
        "params": {
          "key": "is the storage slot of the state variable",
          "value": "is the state variable value"
        }
      },
      "adminSstoreWithMask(uint256,uint256,uint256)": {
        "details": "adminSstoreWithMask similar to adminSstore except it updates the state variable value after xor-ing this value with the old value and the mask, so the new value should be a result of xor(and(xor(value, oldval), mask), oldval). Only default admin role can call this function.",
        "params": {
          "key": "is the storage slot of the state variable",
          "mask": "this value is used in calculating the new value",
          "value": "is the state variable value"
        }
      },
      "constructor": {
        "custom:oz-upgrades-unsafe-allow": "constructor"
      },
      "getRoleAdmin(bytes32)": {
        "details": "Returns the admin role that controls `role`. See {grantRole} and {revokeRole}. To change a role's admin, use {_setRoleAdmin}."
      },
      "grantRole(bytes32,address)": {
        "details": "Grants `role` to `account`. If `account` had not been already granted `role`, emits a {RoleGranted} event. Requirements: - the caller must have ``role``'s admin role."
      },
      "hasRole(bytes32,address)": {
        "details": "Returns `true` if `account` has been granted `role`."
      },
      "initialize(address[],uint256)": {
        "params": {
          "_supportedTokens": "list of supported tokens"
        }
      },
      "payRewards(address,address,uint256)": {
        "details": "Used by jet staking contracts",
        "params": {
          "_amount": "token to transfer to user",
          "_token": "token to transfer to user",
          "_user": "user to transfer tokens to"
        }
      },
      "removeSupportedToken(address)": {
        "params": {
          "_token": "stream ERC20 token address"
        }
      },
      "renounceRole(bytes32,address)": {
        "details": "Revokes `role` from the calling account. Roles are often managed via {grantRole} and {revokeRole}: this function's purpose is to provide a mechanism for accounts to lose their privileges if they are compromised (such as when a trusted device is misplaced). If the calling account had been revoked `role`, emits a {RoleRevoked} event. Requirements: - the caller must be `account`."
      },
      "revokeRole(bytes32,address)": {
        "details": "Revokes `role` from `account`. If `account` had been granted `role`, emits a {RoleRevoked} event. Requirements: - the caller must have ``role``'s admin role."
      },
      "supportsInterface(bytes4)": {
        "details": "See {IERC165-supportsInterface}."
      },
      "upgradeTo(address)": {
        "details": "Upgrade the implementation of the proxy to `newImplementation`. Calls {_authorizeUpgrade}. Emits an {Upgraded} event."
      },
      "upgradeToAndCall(address,bytes)": {
        "details": "Upgrade the implementation of the proxy to `newImplementation`, and subsequently execute the function call encoded in `data`. Calls {_authorizeUpgrade}. Emits an {Upgraded} event."
      }
    },
    "title": "Treasury",
    "version": 1
  },
  "userdoc": {
    "kind": "user",
    "methods": {
      "addSupportedToken(address)": {
        "notice": "adds token as a supproted rewards token by Treasury supported tokens means any future stream token should be whitelisted here"
      },
      "initialize(address[],uint256)": {
        "notice": "initializes ownable Treasury with list of managers and supported tokens"
      },
      "payRewards(address,address,uint256)": {
        "notice": "transfers token amount from Treasury balance to user."
      },
      "removeSupportedToken(address)": {
        "notice": "removed token as a supproted rewards token by Treasury"
      }
    },
    "version": 1
  },
  "storageLayout": {
    "storage": [
      {
        "astId": 824,
        "contract": "contracts/Treasury.sol:Treasury",
        "label": "_initialized",
        "offset": 0,
        "slot": "0",
        "type": "t_bool"
      },
      {
        "astId": 827,
        "contract": "contracts/Treasury.sol:Treasury",
        "label": "_initializing",
        "offset": 1,
        "slot": "0",
        "type": "t_bool"
      },
      {
        "astId": 806,
        "contract": "contracts/Treasury.sol:Treasury",
        "label": "__gap",
        "offset": 0,
        "slot": "1",
        "type": "t_array(t_uint256)50_storage"
      },
      {
        "astId": 1001,
        "contract": "contracts/Treasury.sol:Treasury",
        "label": "__gap",
        "offset": 0,
        "slot": "51",
        "type": "t_array(t_uint256)50_storage"
      },
      {
        "astId": 1592,
        "contract": "contracts/Treasury.sol:Treasury",
        "label": "__gap",
        "offset": 0,
        "slot": "101",
        "type": "t_array(t_uint256)50_storage"
      },
      {
        "astId": 1901,
        "contract": "contracts/Treasury.sol:Treasury",
        "label": "__gap",
        "offset": 0,
        "slot": "151",
        "type": "t_array(t_uint256)50_storage"
      },
      {
        "astId": 48,
        "contract": "contracts/Treasury.sol:Treasury",
        "label": "_roles",
        "offset": 0,
        "slot": "201",
        "type": "t_mapping(t_bytes32,t_struct(RoleData)43_storage)"
      },
      {
        "astId": 335,
        "contract": "contracts/Treasury.sol:Treasury",
        "label": "__gap",
        "offset": 0,
        "slot": "202",
        "type": "t_array(t_uint256)49_storage"
      },
      {
        "astId": 1925,
        "contract": "contracts/Treasury.sol:Treasury",
        "label": "paused",
        "offset": 0,
        "slot": "251",
        "type": "t_uint256"
      },
      {
        "astId": 5303,
        "contract": "contracts/Treasury.sol:Treasury",
        "label": "isSupportedToken",
        "offset": 0,
        "slot": "252",
        "type": "t_mapping(t_address,t_bool)"
      }
    ],
    "types": {
      "t_address": {
        "encoding": "inplace",
        "label": "address",
        "numberOfBytes": "20"
      },
      "t_array(t_uint256)49_storage": {
        "base": "t_uint256",
        "encoding": "inplace",
        "label": "uint256[49]",
        "numberOfBytes": "1568"
      },
      "t_array(t_uint256)50_storage": {
        "base": "t_uint256",
        "encoding": "inplace",
        "label": "uint256[50]",
        "numberOfBytes": "1600"
      },
      "t_bool": {
        "encoding": "inplace",
        "label": "bool",
        "numberOfBytes": "1"
      },
      "t_bytes32": {
        "encoding": "inplace",
        "label": "bytes32",
        "numberOfBytes": "32"
      },
      "t_mapping(t_address,t_bool)": {
        "encoding": "mapping",
        "key": "t_address",
        "label": "mapping(address => bool)",
        "numberOfBytes": "32",
        "value": "t_bool"
      },
      "t_mapping(t_bytes32,t_struct(RoleData)43_storage)": {
        "encoding": "mapping",
        "key": "t_bytes32",
        "label": "mapping(bytes32 => struct AccessControlUpgradeable.RoleData)",
        "numberOfBytes": "32",
        "value": "t_struct(RoleData)43_storage"
      },
      "t_struct(RoleData)43_storage": {
        "encoding": "inplace",
        "label": "struct AccessControlUpgradeable.RoleData",
        "members": [
          {
            "astId": 40,
            "contract": "contracts/Treasury.sol:Treasury",
            "label": "members",
            "offset": 0,
            "slot": "0",
            "type": "t_mapping(t_address,t_bool)"
          },
          {
            "astId": 42,
            "contract": "contracts/Treasury.sol:Treasury",
            "label": "adminRole",
            "offset": 0,
            "slot": "1",
            "type": "t_bytes32"
          }
        ],
        "numberOfBytes": "64"
      },
      "t_uint256": {
        "encoding": "inplace",
        "label": "uint256",
        "numberOfBytes": "32"
      }
    }
  }
}