{
  "abi": [
    {
      "anonymous": false,
      "inputs": [
        {
          "indexed": false,
          "internalType": "address",
          "name": "previousAdmin",
          "type": "address"
        },
        {
          "indexed": false,
          "internalType": "address",
          "name": "newAdmin",
          "type": "address"
        }
      ],
      "name": "AdminChanged",
      "type": "event"
    },
    {
      "anonymous": false,
      "inputs": [
        {
          "indexed": true,
          "internalType": "address",
          "name": "beacon",
          "type": "address"
        }
      ],
      "name": "BeaconUpgraded",
      "type": "event"
    },
    {
      "anonymous": false,
      "inputs": [
        {
          "indexed": true,
          "internalType": "uint256",
          "name": "streamId",
          "type": "uint256"
        },
        {
          "indexed": true,
          "internalType": "address",
          "name": "user",
          "type": "address"
        },
        {
          "indexed": false,
          "internalType": "uint256",
          "name": "amount",
          "type": "uint256"
        }
      ],
      "name": "Pending",
      "type": "event"
    },
    {
      "anonymous": false,
      "inputs": [
        {
          "indexed": true,
          "internalType": "uint256",
          "name": "streamId",
          "type": "uint256"
        },
        {
          "indexed": true,
          "internalType": "address",
          "name": "user",
          "type": "address"
        },
        {
          "indexed": false,
          "internalType": "uint256",
          "name": "amount",
          "type": "uint256"
        }
      ],
      "name": "Released",
      "type": "event"
    },
    {
      "anonymous": false,
      "inputs": [
        {
          "indexed": true,
          "internalType": "bytes32",
          "name": "role",
          "type": "bytes32"
        },
        {
          "indexed": true,
          "internalType": "bytes32",
          "name": "previousAdminRole",
          "type": "bytes32"
        },
        {
          "indexed": true,
          "internalType": "bytes32",
          "name": "newAdminRole",
          "type": "bytes32"
        }
      ],
      "name": "RoleAdminChanged",
      "type": "event"
    },
    {
      "anonymous": false,
      "inputs": [
        {
          "indexed": true,
          "internalType": "bytes32",
          "name": "role",
          "type": "bytes32"
        },
        {
          "indexed": true,
          "internalType": "address",
          "name": "account",
          "type": "address"
        },
        {
          "indexed": true,
          "internalType": "address",
          "name": "sender",
          "type": "address"
        }
      ],
      "name": "RoleGranted",
      "type": "event"
    },
    {
      "anonymous": false,
      "inputs": [
        {
          "indexed": true,
          "internalType": "bytes32",
          "name": "role",
          "type": "bytes32"
        },
        {
          "indexed": true,
          "internalType": "address",
          "name": "account",
          "type": "address"
        },
        {
          "indexed": true,
          "internalType": "address",
          "name": "sender",
          "type": "address"
        }
      ],
      "name": "RoleRevoked",
      "type": "event"
    },
    {
      "anonymous": false,
      "inputs": [
        {
          "indexed": true,
          "internalType": "address",
          "name": "user",
          "type": "address"
        },
        {
          "indexed": false,
          "internalType": "uint256",
          "name": "amount",
          "type": "uint256"
        },
        {
          "indexed": false,
          "internalType": "uint256",
          "name": "shares",
          "type": "uint256"
        }
      ],
      "name": "Staked",
      "type": "event"
    },
    {
      "anonymous": false,
      "inputs": [
        {
          "indexed": true,
          "internalType": "uint256",
          "name": "streamId",
          "type": "uint256"
        },
        {
          "indexed": true,
          "internalType": "address",
          "name": "owner",
          "type": "address"
        },
        {
          "indexed": true,
          "internalType": "address",
          "name": "token",
          "type": "address"
        },
        {
          "indexed": false,
          "internalType": "uint256",
          "name": "tokenAmount",
          "type": "uint256"
        },
        {
          "indexed": false,
          "internalType": "uint256",
          "name": "auroraAmount",
          "type": "uint256"
        }
      ],
      "name": "StreamCreated",
      "type": "event"
    },
    {
      "anonymous": false,
      "inputs": [
        {
          "indexed": true,
          "internalType": "uint256",
          "name": "streamId",
          "type": "uint256"
        },
        {
          "indexed": true,
          "internalType": "address",
          "name": "owner",
          "type": "address"
        },
        {
          "indexed": false,
          "internalType": "uint256",
          "name": "amount",
          "type": "uint256"
        }
      ],
      "name": "StreamOwnerRewardReleased",
      "type": "event"
    },
    {
      "anonymous": false,
      "inputs": [
        {
          "indexed": true,
          "internalType": "uint256",
          "name": "streamId",
          "type": "uint256"
        },
        {
          "indexed": true,
          "internalType": "address",
          "name": "owner",
          "type": "address"
        },
        {
          "indexed": true,
          "internalType": "address",
          "name": "token",
          "type": "address"
        }
      ],
      "name": "StreamProposalCancelled",
      "type": "event"
    },
    {
      "anonymous": false,
      "inputs": [
        {
          "indexed": true,
          "internalType": "uint256",
          "name": "streamId",
          "type": "uint256"
        },
        {
          "indexed": true,
          "internalType": "address",
          "name": "owner",
          "type": "address"
        },
        {
          "indexed": true,
          "internalType": "address",
          "name": "token",
          "type": "address"
        },
        {
          "indexed": false,
          "internalType": "uint256",
          "name": "maxDepositAmount",
          "type": "uint256"
        },
        {
          "indexed": false,
          "internalType": "uint256",
          "name": "auroraDepositAmount",
          "type": "uint256"
        }
      ],
      "name": "StreamProposed",
      "type": "event"
    },
    {
      "anonymous": false,
      "inputs": [
        {
          "indexed": true,
          "internalType": "uint256",
          "name": "streamId",
          "type": "uint256"
        },
        {
          "indexed": true,
          "internalType": "address",
          "name": "owner",
          "type": "address"
        },
        {
          "indexed": true,
          "internalType": "address",
          "name": "token",
          "type": "address"
        }
      ],
      "name": "StreamRemoved",
      "type": "event"
    },
    {
      "anonymous": false,
      "inputs": [
        {
          "indexed": true,
          "internalType": "address",
          "name": "user",
          "type": "address"
        },
        {
          "indexed": false,
          "internalType": "uint256",
          "name": "amount",
          "type": "uint256"
        }
      ],
      "name": "Unstaked",
      "type": "event"
    },
    {
      "anonymous": false,
      "inputs": [
        {
          "indexed": true,
          "internalType": "address",
          "name": "implementation",
          "type": "address"
        }
      ],
      "name": "Upgraded",
      "type": "event"
    },
    {
      "inputs": [],
      "name": "AIRDROP_ROLE",
      "outputs": [
        {
          "internalType": "bytes32",
          "name": "",
          "type": "bytes32"
        }
      ],
      "stateMutability": "view",
      "type": "function"
    },
    {
      "inputs": [],
      "name": "CLAIM_ROLE",
      "outputs": [
        {
          "internalType": "bytes32",
          "name": "",
          "type": "bytes32"
        }
      ],
      "stateMutability": "view",
      "type": "function"
    },
    {
      "inputs": [],
      "name": "DEFAULT_ADMIN_ROLE",
      "outputs": [
        {
          "internalType": "bytes32",
          "name": "",
          "type": "bytes32"
        }
      ],
      "stateMutability": "view",
      "type": "function"
    },
    {
      "inputs": [],
      "name": "FOUR_YEARS",
      "outputs": [
        {
          "internalType": "uint256",
          "name": "",
          "type": "uint256"
        }
      ],
      "stateMutability": "view",
      "type": "function"
    },
    {
      "inputs": [],
      "name": "ONE_MONTH",
      "outputs": [
        {
          "internalType": "uint256",
          "name": "",
          "type": "uint256"
        }
      ],
      "stateMutability": "view",
      "type": "function"
    },
    {
      "inputs": [],
      "name": "PAUSE_ROLE",
      "outputs": [
        {
          "internalType": "bytes32",
          "name": "",
          "type": "bytes32"
        }
      ],
      "stateMutability": "view",
      "type": "function"
    },
    {
      "inputs": [],
      "name": "STREAM_MANAGER_ROLE",
      "outputs": [
        {
          "internalType": "bytes32",
          "name": "",
          "type": "bytes32"
        }
      ],
      "stateMutability": "view",
      "type": "function"
    },
    {
      "inputs": [
        {
          "internalType": "address",
          "name": "target",
          "type": "address"
        },
        {
          "internalType": "bytes",
          "name": "data",
          "type": "bytes"
        }
      ],
      "name": "adminDelegatecall",
      "outputs": [
        {
          "internalType": "bytes",
          "name": "",
          "type": "bytes"
        }
      ],
      "stateMutability": "payable",
      "type": "function"
    },
    {
      "inputs": [
        {
          "internalType": "uint256",
          "name": "flags",
          "type": "uint256"
        }
      ],
      "name": "adminPause",
      "outputs": [],
      "stateMutability": "nonpayable",
      "type": "function"
    },
    {
      "inputs": [
        {
          "internalType": "uint256",
          "name": "key",
          "type": "uint256"
        },
        {
          "internalType": "uint256",
          "name": "value",
          "type": "uint256"
        }
      ],
      "name": "adminSstore",
      "outputs": [],
      "stateMutability": "nonpayable",
      "type": "function"
    },
    {
      "inputs": [
        {
          "internalType": "uint256",
          "name": "key",
          "type": "uint256"
        },
        {
          "internalType": "uint256",
          "name": "value",
          "type": "uint256"
        },
        {
          "internalType": "uint256",
          "name": "mask",
          "type": "uint256"
        }
      ],
      "name": "adminSstoreWithMask",
      "outputs": [],
      "stateMutability": "nonpayable",
      "type": "function"
    },
    {
      "inputs": [],
      "name": "auroraToken",
      "outputs": [
        {
          "internalType": "address",
          "name": "",
          "type": "address"
        }
      ],
      "stateMutability": "view",
      "type": "function"
    },
    {
      "inputs": [
        {
          "internalType": "address",
          "name": "account",
          "type": "address"
        },
        {
          "internalType": "uint256[]",
          "name": "streamIds",
          "type": "uint256[]"
        }
      ],
      "name": "batchClaimOnBehalfOfAnotherUser",
      "outputs": [],
      "stateMutability": "nonpayable",
      "type": "function"
    },
    {
      "inputs": [
        {
          "internalType": "address[]",
          "name": "accounts",
          "type": "address[]"
        },
        {
          "internalType": "uint256[]",
          "name": "streamIds",
          "type": "uint256[]"
        }
      ],
      "name": "batchClaimOnBehalfOfOtherUsers",
      "outputs": [],
      "stateMutability": "nonpayable",
      "type": "function"
    },
    {
      "inputs": [
        {
          "internalType": "uint256[]",
          "name": "streamIds",
          "type": "uint256[]"
        }
      ],
      "name": "batchMoveRewardsToPending",
      "outputs": [],
      "stateMutability": "nonpayable",
      "type": "function"
    },
    {
      "inputs": [
        {
          "internalType": "address[]",
          "name": "accounts",
          "type": "address[]"
        },
        {
          "internalType": "uint256[]",
          "name": "amounts",
          "type": "uint256[]"
        },
        {
          "internalType": "uint256",
          "name": "batchAmount",
          "type": "uint256"
        },
        {
          "internalType": "bool",
          "name": "checkLength",
          "type": "bool"
        }
      ],
      "name": "batchStakeOnBehalfOfOtherUsers",
      "outputs": [],
      "stateMutability": "nonpayable",
      "type": "function"
    },
    {
      "inputs": [
        {
          "internalType": "uint256[]",
          "name": "streamIds",
          "type": "uint256[]"
        }
      ],
      "name": "batchWithdraw",
      "outputs": [],
      "stateMutability": "nonpayable",
      "type": "function"
    },
    {
      "inputs": [
        {
          "internalType": "uint256",
          "name": "startTime",
          "type": "uint256"
        },
        {
          "internalType": "uint256",
          "name": "endTime",
          "type": "uint256"
        }
      ],
      "name": "before",
      "outputs": [
        {
          "internalType": "uint256",
          "name": "total",
          "type": "uint256"
        },
        {
          "internalType": "uint256",
          "name": "rewardPerShareAurora",
          "type": "uint256"
        },
        {
          "internalType": "uint256",
          "name": "scheduleCalculated",
          "type": "uint256"
        }
      ],
      "stateMutability": "view",
      "type": "function"
    },
    {
      "inputs": [
        {
          "internalType": "uint256",
          "name": "shares",
          "type": "uint256"
        },
        {
          "internalType": "uint256",
          "name": "timestamp",
          "type": "uint256"
        }
      ],
      "name": "calculateWeightedShares",
      "outputs": [
        {
          "internalType": "uint256",
          "name": "",
          "type": "uint256"
        }
      ],
      "stateMutability": "view",
      "type": "function"
    },
    {
      "inputs": [],
      "name": "callBeforeTwice",
      "outputs": [],
      "stateMutability": "nonpayable",
      "type": "function"
    },
    {
      "inputs": [
        {
          "internalType": "uint256",
          "name": "streamId",
          "type": "uint256"
        }
      ],
      "name": "cancelStreamProposal",
      "outputs": [],
      "stateMutability": "nonpayable",
      "type": "function"
    },
    {
      "inputs": [
        {
          "internalType": "address",
          "name": "account",
          "type": "address"
        }
      ],
      "name": "claimAllOnBehalfOfAnotherUser",
      "outputs": [],
      "stateMutability": "nonpayable",
      "type": "function"
    },
    {
      "inputs": [
        {
          "internalType": "address[]",
          "name": "accounts",
          "type": "address[]"
        }
      ],
      "name": "claimAllOnBehalfOfOtherUsers",
      "outputs": [],
      "stateMutability": "nonpayable",
      "type": "function"
    },
    {
      "inputs": [
        {
          "internalType": "address",
          "name": "account",
          "type": "address"
        },
        {
          "internalType": "uint256",
          "name": "streamId",
          "type": "uint256"
        }
      ],
      "name": "claimOnBehalfOfAnotherUser",
      "outputs": [],
      "stateMutability": "nonpayable",
      "type": "function"
    },
    {
      "inputs": [
        {
          "internalType": "uint256",
          "name": "streamId",
          "type": "uint256"
        },
        {
          "internalType": "uint256",
          "name": "rewardTokenAmount",
          "type": "uint256"
        }
      ],
      "name": "createStream",
      "outputs": [],
      "stateMutability": "nonpayable",
      "type": "function"
    },
    {
      "inputs": [
        {
          "internalType": "uint256",
          "name": "streamId",
          "type": "uint256"
        },
        {
          "internalType": "address",
          "name": "account",
          "type": "address"
        }
      ],
      "name": "getAmountOfShares",
      "outputs": [
        {
          "internalType": "uint256",
          "name": "",
          "type": "uint256"
        }
      ],
      "stateMutability": "view",
      "type": "function"
    },
    {
      "inputs": [
        {
          "internalType": "uint256",
          "name": "streamId",
          "type": "uint256"
        }
      ],
      "name": "getLatestRewardPerShare",
      "outputs": [
        {
          "internalType": "uint256",
          "name": "",
          "type": "uint256"
        }
      ],
      "stateMutability": "view",
      "type": "function"
    },
    {
      "inputs": [
        {
          "internalType": "uint256",
          "name": "streamId",
          "type": "uint256"
        },
        {
          "internalType": "address",
          "name": "account",
          "type": "address"
        }
      ],
      "name": "getPending",
      "outputs": [
        {
          "internalType": "uint256",
          "name": "",
          "type": "uint256"
        }
      ],
      "stateMutability": "view",
      "type": "function"
    },
    {
      "inputs": [
        {
          "internalType": "uint256",
          "name": "streamId",
          "type": "uint256"
        },
        {
          "internalType": "address",
          "name": "account",
          "type": "address"
        }
      ],
      "name": "getReleaseTime",
      "outputs": [
        {
          "internalType": "uint256",
          "name": "",
          "type": "uint256"
        }
      ],
      "stateMutability": "view",
      "type": "function"
    },
    {
      "inputs": [
        {
          "internalType": "uint256",
          "name": "streamId",
          "type": "uint256"
        }
      ],
      "name": "getRewardPerShare",
      "outputs": [
        {
          "internalType": "uint256",
          "name": "",
          "type": "uint256"
        }
      ],
      "stateMutability": "view",
      "type": "function"
    },
    {
      "inputs": [
        {
          "internalType": "uint256",
          "name": "streamId",
          "type": "uint256"
        },
        {
          "internalType": "address",
          "name": "account",
          "type": "address"
        }
      ],
      "name": "getRewardPerShareForUser",
      "outputs": [
        {
          "internalType": "uint256",
          "name": "",
          "type": "uint256"
        }
      ],
      "stateMutability": "view",
      "type": "function"
    },
    {
      "inputs": [
        {
          "internalType": "uint256",
          "name": "streamId",
          "type": "uint256"
        },
        {
          "internalType": "uint256",
          "name": "lastUpdate",
          "type": "uint256"
        }
      ],
      "name": "getRewardsAmount",
      "outputs": [
        {
          "internalType": "uint256",
          "name": "",
          "type": "uint256"
        }
      ],
      "stateMutability": "view",
      "type": "function"
    },
    {
      "inputs": [
        {
          "internalType": "bytes32",
          "name": "role",
          "type": "bytes32"
        }
      ],
      "name": "getRoleAdmin",
      "outputs": [
        {
          "internalType": "bytes32",
          "name": "",
          "type": "bytes32"
        }
      ],
      "stateMutability": "view",
      "type": "function"
    },
    {
      "inputs": [
        {
          "internalType": "uint256",
          "name": "streamId",
          "type": "uint256"
        }
      ],
      "name": "getStream",
      "outputs": [
        {
          "internalType": "address",
          "name": "streamOwner",
          "type": "address"
        },
        {
          "internalType": "address",
          "name": "rewardToken",
          "type": "address"
        },
        {
          "internalType": "uint256",
          "name": "auroraDepositAmount",
          "type": "uint256"
        },
        {
          "internalType": "uint256",
          "name": "auroraClaimedAmount",
          "type": "uint256"
        },
        {
          "internalType": "uint256",
          "name": "rewardDepositAmount",
          "type": "uint256"
        },
        {
          "internalType": "uint256",
          "name": "rewardClaimedAmount",
          "type": "uint256"
        },
        {
          "internalType": "uint256",
          "name": "maxDepositAmount",
          "type": "uint256"
        },
        {
          "internalType": "uint256",
          "name": "lastTimeOwnerClaimed",
          "type": "uint256"
        },
        {
          "internalType": "uint256",
          "name": "rps",
          "type": "uint256"
        },
        {
          "internalType": "uint256",
          "name": "tau",
          "type": "uint256"
        },
        {
          "internalType": "enum JetStakingV1.StreamStatus",
          "name": "status",
          "type": "uint8"
        }
      ],
      "stateMutability": "view",
      "type": "function"
    },
    {
      "inputs": [
        {
          "internalType": "uint256",
          "name": "streamId",
          "type": "uint256"
        },
        {
          "internalType": "address",
          "name": "account",
          "type": "address"
        }
      ],
      "name": "getStreamClaimableAmount",
      "outputs": [
        {
          "internalType": "uint256",
          "name": "",
          "type": "uint256"
        }
      ],
      "stateMutability": "view",
      "type": "function"
    },
    {
      "inputs": [
        {
          "internalType": "uint256",
          "name": "streamId",
          "type": "uint256"
        }
      ],
      "name": "getStreamOwnerClaimableAmount",
      "outputs": [
        {
          "internalType": "uint256",
          "name": "",
          "type": "uint256"
        }
      ],
      "stateMutability": "view",
      "type": "function"
    },
    {
      "inputs": [
        {
          "internalType": "uint256",
          "name": "streamId",
          "type": "uint256"
        }
      ],
      "name": "getStreamSchedule",
      "outputs": [
        {
          "internalType": "uint256[]",
          "name": "scheduleTimes",
          "type": "uint256[]"
        },
        {
          "internalType": "uint256[]",
          "name": "scheduleRewards",
          "type": "uint256[]"
        }
      ],
      "stateMutability": "view",
      "type": "function"
    },
    {
      "inputs": [],
      "name": "getStreamsCount",
      "outputs": [
        {
          "internalType": "uint256",
          "name": "",
          "type": "uint256"
        }
      ],
      "stateMutability": "view",
      "type": "function"
    },
    {
      "inputs": [],
      "name": "getTotalAmountOfStakedAurora",
      "outputs": [
        {
          "internalType": "uint256",
          "name": "",
          "type": "uint256"
        }
      ],
      "stateMutability": "view",
      "type": "function"
    },
    {
      "inputs": [
        {
          "internalType": "address",
          "name": "token",
          "type": "address"
        }
      ],
      "name": "getTreasuryBalance",
      "outputs": [
        {
          "internalType": "uint256",
          "name": "",
          "type": "uint256"
        }
      ],
      "stateMutability": "view",
      "type": "function"
    },
    {
      "inputs": [
        {
          "internalType": "address",
          "name": "account",
          "type": "address"
        }
      ],
      "name": "getUserShares",
      "outputs": [
        {
          "internalType": "uint256",
          "name": "",
          "type": "uint256"
        }
      ],
      "stateMutability": "view",
      "type": "function"
    },
    {
      "inputs": [
        {
          "internalType": "address",
          "name": "account",
          "type": "address"
        }
      ],
      "name": "getUserTotalDeposit",
      "outputs": [
        {
          "internalType": "uint256",
          "name": "",
          "type": "uint256"
        }
      ],
      "stateMutability": "view",
      "type": "function"
    },
    {
      "inputs": [
        {
          "internalType": "bytes32",
          "name": "role",
          "type": "bytes32"
        },
        {
          "internalType": "address",
          "name": "account",
          "type": "address"
        }
      ],
      "name": "grantRole",
      "outputs": [],
      "stateMutability": "nonpayable",
      "type": "function"
    },
    {
      "inputs": [
        {
          "internalType": "bytes32",
          "name": "role",
          "type": "bytes32"
        },
        {
          "internalType": "address",
          "name": "account",
          "type": "address"
        }
      ],
      "name": "hasRole",
      "outputs": [
        {
          "internalType": "bool",
          "name": "",
          "type": "bool"
        }
      ],
      "stateMutability": "view",
      "type": "function"
    },
    {
      "inputs": [
        {
          "internalType": "address",
          "name": "aurora",
          "type": "address"
        },
        {
          "internalType": "address",
          "name": "streamOwner",
          "type": "address"
        },
        {
          "internalType": "uint256[]",
          "name": "scheduleTimes",
          "type": "uint256[]"
        },
        {
          "internalType": "uint256[]",
          "name": "scheduleRewards",
          "type": "uint256[]"
        },
        {
          "internalType": "uint256",
          "name": "tauAuroraStream",
          "type": "uint256"
        },
        {
          "internalType": "uint256",
          "name": "_flags",
          "type": "uint256"
        },
        {
          "internalType": "address",
          "name": "_treasury",
          "type": "address"
        },
        {
          "internalType": "uint256",
          "name": "_maxWeight",
          "type": "uint256"
        },
        {
          "internalType": "uint256",
          "name": "_minWeight",
          "type": "uint256"
        }
      ],
      "name": "initialize",
      "outputs": [],
      "stateMutability": "nonpayable",
      "type": "function"
    },
    {
      "inputs": [],
      "name": "maxWeight",
      "outputs": [
        {
          "internalType": "uint256",
          "name": "",
          "type": "uint256"
        }
      ],
      "stateMutability": "view",
      "type": "function"
    },
    {
      "inputs": [],
      "name": "minWeight",
      "outputs": [
        {
          "internalType": "uint256",
          "name": "",
          "type": "uint256"
        }
      ],
      "stateMutability": "view",
      "type": "function"
    },
    {
      "inputs": [],
      "name": "moveAllRewardsToPending",
      "outputs": [],
      "stateMutability": "nonpayable",
      "type": "function"
    },
    {
      "inputs": [
        {
          "internalType": "uint256",
          "name": "streamId",
          "type": "uint256"
        }
      ],
      "name": "moveRewardsToPending",
      "outputs": [],
      "stateMutability": "nonpayable",
      "type": "function"
    },
    {
      "inputs": [],
      "name": "paused",
      "outputs": [
        {
          "internalType": "uint256",
          "name": "",
          "type": "uint256"
        }
      ],
      "stateMutability": "view",
      "type": "function"
    },
    {
      "inputs": [
        {
          "internalType": "address",
          "name": "streamOwner",
          "type": "address"
        },
        {
          "internalType": "address",
          "name": "rewardToken",
          "type": "address"
        },
        {
          "internalType": "uint256",
          "name": "auroraDepositAmount",
          "type": "uint256"
        },
        {
          "internalType": "uint256",
          "name": "maxDepositAmount",
          "type": "uint256"
        },
        {
          "internalType": "uint256",
          "name": "minDepositAmount",
          "type": "uint256"
        },
        {
          "internalType": "uint256[]",
          "name": "scheduleTimes",
          "type": "uint256[]"
        },
        {
          "internalType": "uint256[]",
          "name": "scheduleRewards",
          "type": "uint256[]"
        },
        {
          "internalType": "uint256",
          "name": "tau",
          "type": "uint256"
        }
      ],
      "name": "proposeStream",
      "outputs": [],
      "stateMutability": "nonpayable",
      "type": "function"
    },
    {
      "inputs": [
        {
          "internalType": "uint256",
          "name": "streamId",
          "type": "uint256"
        }
      ],
      "name": "releaseAuroraRewardsToStreamOwner",
      "outputs": [],
      "stateMutability": "nonpayable",
      "type": "function"
    },
    {
      "inputs": [
        {
          "internalType": "uint256",
          "name": "streamId",
          "type": "uint256"
        },
        {
          "internalType": "address",
          "name": "streamFundReceiver",
          "type": "address"
        }
      ],
      "name": "removeStream",
      "outputs": [],
      "stateMutability": "nonpayable",
      "type": "function"
    },
    {
      "inputs": [
        {
          "internalType": "bytes32",
          "name": "role",
          "type": "bytes32"
        },
        {
          "internalType": "address",
          "name": "account",
          "type": "address"
        }
      ],
      "name": "renounceRole",
      "outputs": [],
      "stateMutability": "nonpayable",
      "type": "function"
    },
    {
      "inputs": [
        {
          "internalType": "bytes32",
          "name": "role",
          "type": "bytes32"
        },
        {
          "internalType": "address",
          "name": "account",
          "type": "address"
        }
      ],
      "name": "revokeRole",
      "outputs": [],
      "stateMutability": "nonpayable",
      "type": "function"
    },
    {
      "inputs": [
        {
          "internalType": "uint256",
          "name": "streamId",
          "type": "uint256"
        },
        {
          "internalType": "uint256",
          "name": "start",
          "type": "uint256"
        },
        {
          "internalType": "uint256",
          "name": "end",
          "type": "uint256"
        }
      ],
      "name": "rewardsSchedule",
      "outputs": [
        {
          "internalType": "uint256",
          "name": "",
          "type": "uint256"
        }
      ],
      "stateMutability": "view",
      "type": "function"
    },
    {
      "inputs": [
        {
          "internalType": "uint256",
          "name": "amount",
          "type": "uint256"
        }
      ],
      "name": "stake",
      "outputs": [],
      "stateMutability": "nonpayable",
      "type": "function"
    },
    {
      "inputs": [
        {
          "internalType": "address",
          "name": "account",
          "type": "address"
        },
        {
          "internalType": "uint256",
          "name": "amount",
          "type": "uint256"
        }
      ],
      "name": "stakeOnBehalfOfAnotherUser",
      "outputs": [],
      "stateMutability": "nonpayable",
      "type": "function"
    },
    {
      "inputs": [
        {
          "internalType": "address[]",
          "name": "accounts",
          "type": "address[]"
        },
        {
          "internalType": "uint256[]",
          "name": "amounts",
          "type": "uint256[]"
        },
        {
          "internalType": "uint256",
          "name": "batchAmount",
          "type": "uint256"
        }
      ],
      "name": "stakeOnBehalfOfOtherUsers",
      "outputs": [],
      "stateMutability": "nonpayable",
      "type": "function"
    },
    {
      "inputs": [
        {
          "internalType": "uint256",
          "name": "streamId",
          "type": "uint256"
        },
        {
          "internalType": "uint256",
          "name": "start",
          "type": "uint256"
        },
        {
          "internalType": "uint256",
          "name": "end",
          "type": "uint256"
        }
      ],
      "name": "startEndScheduleIndex",
      "outputs": [
        {
          "internalType": "uint256",
          "name": "startIndex",
          "type": "uint256"
        },
        {
          "internalType": "uint256",
          "name": "endIndex",
          "type": "uint256"
        }
      ],
      "stateMutability": "view",
      "type": "function"
    },
    {
      "inputs": [
        {
          "internalType": "bytes4",
          "name": "interfaceId",
          "type": "bytes4"
        }
      ],
      "name": "supportsInterface",
      "outputs": [
        {
          "internalType": "bool",
          "name": "",
          "type": "bool"
        }
      ],
      "stateMutability": "view",
      "type": "function"
    },
    {
      "inputs": [
        {
          "internalType": "address",
          "name": "account",
          "type": "address"
        },
        {
          "internalType": "uint256",
          "name": "streamId",
          "type": "uint256"
        }
      ],
      "name": "tempMoveRewardsToPending",
      "outputs": [],
      "stateMutability": "nonpayable",
      "type": "function"
    },
    {
      "inputs": [],
      "name": "totalAmountOfStakedAurora",
      "outputs": [
        {
          "internalType": "uint256",
          "name": "",
          "type": "uint256"
        }
      ],
      "stateMutability": "view",
      "type": "function"
    },
    {
      "inputs": [],
      "name": "totalAuroraShares",
      "outputs": [
        {
          "internalType": "uint256",
          "name": "",
          "type": "uint256"
        }
      ],
      "stateMutability": "view",
      "type": "function"
    },
    {
      "inputs": [],
      "name": "totalStreamShares",
      "outputs": [
        {
          "internalType": "uint256",
          "name": "",
          "type": "uint256"
        }
      ],
      "stateMutability": "view",
      "type": "function"
    },
    {
      "inputs": [],
      "name": "touchedAt",
      "outputs": [
        {
          "internalType": "uint256",
          "name": "",
          "type": "uint256"
        }
      ],
      "stateMutability": "view",
      "type": "function"
    },
    {
      "inputs": [],
      "name": "treasury",
      "outputs": [
        {
          "internalType": "address",
          "name": "",
          "type": "address"
        }
      ],
      "stateMutability": "view",
      "type": "function"
    },
    {
      "inputs": [
        {
          "internalType": "uint256",
          "name": "amount",
          "type": "uint256"
        }
      ],
      "name": "unstake",
      "outputs": [],
      "stateMutability": "nonpayable",
      "type": "function"
    },
    {
      "inputs": [],
      "name": "unstakeAll",
      "outputs": [],
      "stateMutability": "nonpayable",
      "type": "function"
    },
    {
      "inputs": [
        {
          "internalType": "address[]",
          "name": "accounts",
          "type": "address[]"
        }
      ],
      "name": "unstakeAllOnBehalfOfOthers",
      "outputs": [],
      "stateMutability": "nonpayable",
      "type": "function"
    },
    {
      "inputs": [
        {
          "internalType": "address",
          "name": "_treasury",
          "type": "address"
        }
      ],
      "name": "updateTreasury",
      "outputs": [],
      "stateMutability": "nonpayable",
      "type": "function"
    },
    {
      "inputs": [],
      "name": "updateUserCalculation",
      "outputs": [],
      "stateMutability": "nonpayable",
      "type": "function"
    },
    {
      "inputs": [
        {
          "internalType": "address",
          "name": "newImplementation",
          "type": "address"
        }
      ],
      "name": "upgradeTo",
      "outputs": [],
      "stateMutability": "nonpayable",
      "type": "function"
    },
    {
      "inputs": [
        {
          "internalType": "address",
          "name": "newImplementation",
          "type": "address"
        },
        {
          "internalType": "bytes",
          "name": "data",
          "type": "bytes"
        }
      ],
      "name": "upgradeToAndCall",
      "outputs": [],
      "stateMutability": "payable",
      "type": "function"
    },
    {
      "inputs": [
        {
          "internalType": "address",
          "name": "",
          "type": "address"
        }
      ],
      "name": "users",
      "outputs": [
        {
          "internalType": "uint256",
          "name": "deposit",
          "type": "uint256"
        },
        {
          "internalType": "uint256",
          "name": "auroraShares",
          "type": "uint256"
        },
        {
          "internalType": "uint256",
          "name": "streamShares",
          "type": "uint256"
        }
      ],
      "stateMutability": "view",
      "type": "function"
    },
    {
      "inputs": [
        {
          "internalType": "uint256",
          "name": "streamId",
          "type": "uint256"
        }
      ],
      "name": "withdraw",
      "outputs": [],
      "stateMutability": "nonpayable",
      "type": "function"
    },
    {
      "inputs": [],
      "name": "withdrawAll",
      "outputs": [],
      "stateMutability": "nonpayable",
      "type": "function"
    }
  ],
  "bytecode": {
    "object": "0x60a0604052306080523480156200001557600080fd5b50600054610100900460ff16620000335760005460ff16156200003d565b6200003d620000e2565b620000a55760405162461bcd60e51b815260206004820152602e60248201527f496e697469616c697a61626c653a20636f6e747261637420697320616c72656160448201526d191e481a5b9a5d1a585b1a5e995960921b606482015260840160405180910390fd5b600054610100900460ff16158015620000c8576000805461ffff19166101011790555b8015620000db576000805461ff00191690555b5062000106565b6000620000fa306200010060201b62003fff1760201c565b15905090565b3b151590565b6080516168106200013760003960008181611dc701528181611e07015281816126a401526126e401526168106000f3fe6080604052600436106104525760003560e01c80635c975abb1161023f5780639c52a92011610139578063bb07ec1b116100b6578063d547741f1161007a578063d547741f14610e2b578063dfad035214610e4b578063e335e79a14610e6b578063ee13ad8e14610e81578063fe904b7a14610ea157600080fd5b8063bb07ec1b14610d7b578063be831a2e14610d91578063c892772314610db1578063cd5ba59014610df6578063d5050aed14610e0b57600080fd5b8063a87430ba116100fd578063a87430ba14610cad578063a8b0bb8314610cea578063b77b183e14610d01578063b8e9744c14610d21578063ba0cb22b14610d4157600080fd5b80639c52a92014610c01578063a217fddf14610c21578063a4c828dc14610c36578063a694fc3a14610c6d578063a81c6a1514610c8d57600080fd5b80637f37df3b116101c75780638bc34e771161018b5780638bc34e7714610b6c5780638d40bd0314610b815780639040332214610ba157806391d1485414610bc1578063993b21c114610be157600080fd5b80637f37df3b14610a995780637f51bb1f14610ade578063853828b614610afe57806386c1b4eb14610b13578063894e9a0d14610b3557600080fd5b8063687dd46c1161020e578063687dd46c146109f55780636c4624c314610a155780636db8e53d14610a3557806370bc770c14610a4b57806372e5539914610a7957600080fd5b80635c975abb1461096357806361d027b3146109795780636458edd31461099a5780636826747c146109ba57600080fd5b80632e17de7811610350578063396a6c14116102d85780634981912e1161029c5780634981912e146108a25780634f1ef286146108d757806353a4cca0146108ea5780635578fdb21461090a57806357baeac81461094357600080fd5b8063396a6c14146108005780633ba31abf146108205780633e9a44cb146108405780633ea005c81461086057806345defb321461088257600080fd5b806336568abe1161031f57806336568abe146107565780633659cfe61461077657806336630cc7146107965780633895a275146107b6578063389ed267146107cc57600080fd5b80632e17de78146106e15780632e1a7d4d146107015780632f2ff15d1461072157806335322f371461074157600080fd5b80631dd00452116103de5780632692c59f116103a25780632692c59f1461064157806326cdddb91461066157806327571969146106815780632ca783f3146106a15780632d0b615c146106c157600080fd5b80631dd004521461057d5780631e0fbfa2146105c25780631fd8c5f4146105e457806320988cef146105fa578063248a9ca31461061157600080fd5b80630efd8310116104255780630efd8310146104e85780631194ebeb1461050857806312dd67fe1461052857806315cf64fd146105485780631c61e6171461055d57600080fd5b806301ffc9a714610457578063036877881461048c5780630a44b773146104ba5780630c2ee55e146104d1575b600080fd5b34801561046357600080fd5b50610477610472366004615c45565b610eb9565b60405190151581526020015b60405180910390f35b34801561049857600080fd5b506104ac6104a7366004615c6f565b610ef0565b604051908152602001610483565b3480156104c657600080fd5b506104cf61125f565b005b3480156104dd57600080fd5b506104ac6101035481565b3480156104f457600080fd5b506104ac610503366004615cb7565b611269565b34801561051457600080fd5b506104cf610523366004615db7565b6112b5565b34801561053457600080fd5b506104ac610543366004615e62565b611613565b34801561055457600080fd5b506104cf611701565b34801561056957600080fd5b506104ac610578366004615cb7565b611709565b34801561058957600080fd5b506104ac610598366004615cb7565b6001600160a01b031660009081526101046020908152604080832093835260059093019052205490565b3480156105ce57600080fd5b506104ac6000805160206167bb83398151915281565b3480156105f057600080fd5b506104ac60fd5481565b34801561060657600080fd5b506104ac6228207281565b34801561061d57600080fd5b506104ac61062c366004615e62565b600090815260c9602052604090206001015490565b34801561064d57600080fd5b506104cf61065c366004615e62565b611781565b34801561066d57600080fd5b506104cf61067c366004615ec6565b611816565b34801561068d57600080fd5b506104cf61069c366004615f31565b6118c7565b3480156106ad57600080fd5b506104cf6106bc366004615f72565b611974565b3480156106cd57600080fd5b506104cf6106dc366004615ffe565b6119fd565b3480156106ed57600080fd5b506104cf6106fc366004615e62565b611a41565b34801561070d57600080fd5b506104cf61071c366004615e62565b611b5f565b34801561072d57600080fd5b506104cf61073c366004615cb7565b611c03565b34801561074d57600080fd5b506104cf611c29565b34801561076257600080fd5b506104cf610771366004615cb7565b611d42565b34801561078257600080fd5b506104cf610791366004616032565b611dbc565b3480156107a257600080fd5b506104ac6107b136600461604d565b611e85565b3480156107c257600080fd5b506104ac60fc5481565b3480156107d857600080fd5b506104ac7f139c2898040ef16910dc9f44dc697df79363da767d8bc92f2e310312b816e46d81565b34801561080c57600080fd5b506104ac61081b366004615e62565b611ff8565b34801561082c57600080fd5b506104cf61083b366004615cb7565b612083565b34801561084c57600080fd5b506104cf61085b366004615f72565b612336565b34801561086c57600080fd5b506104ac60008051602061675483398151915281565b34801561088e57600080fd5b506104cf61089d366004615f72565b612398565b3480156108ae57600080fd5b506108c26108bd366004615c6f565b6123a2565b60408051928352602083019190915201610483565b6104cf6108e536600461606f565b612699565b3480156108f657600080fd5b506104cf610905366004616114565b61274f565b34801561091657600080fd5b506101015461092b906001600160a01b031681565b6040516001600160a01b039091168152602001610483565b34801561094f57600080fd5b506104ac61095e366004616032565b6128ed565b34801561096f57600080fd5b506104ac60fb5481565b34801561098557600080fd5b506101005461092b906001600160a01b031681565b3480156109a657600080fd5b506104cf6109b5366004616187565b61295e565b3480156109c657600080fd5b506109da6109d536600461604d565b6129c8565b60408051938452602084019290925290820152606001610483565b348015610a0157600080fd5b506104cf610a10366004615f31565b612a25565b348015610a2157600080fd5b506104cf610a30366004615c6f565b612a6f565b348015610a4157600080fd5b506104ac60ff5481565b348015610a5757600080fd5b50610a6b610a66366004615e62565b612a87565b604051610483929190616214565b348015610a8557600080fd5b506104cf610a94366004615f31565b612b87565b348015610aa557600080fd5b506104ac610ab4366004615cb7565b6001600160a01b031660009081526101046020908152604080832093835260039093019052205490565b348015610aea57600080fd5b506104cf610af9366004616032565b612c7a565b348015610b0a57600080fd5b506104cf612d7f565b348015610b1f57600080fd5b506104ac60008051602061679b83398151915281565b348015610b4157600080fd5b50610b55610b50366004615e62565b612e23565b6040516104839b9a9998979695949392919061624f565b348015610b7857600080fd5b506104cf612ee9565b348015610b8d57600080fd5b506104cf610b9c36600461604d565b612f31565b348015610bad57600080fd5b506104cf610bbc366004615e62565b6132e0565b348015610bcd57600080fd5b50610477610bdc366004615cb7565b6133f9565b348015610bed57600080fd5b506104ac610bfc366004615e62565b613424565b348015610c0d57600080fd5b506104cf610c1c366004615e62565b613453565b348015610c2d57600080fd5b506104ac600081565b348015610c4257600080fd5b506104ac610c51366004616032565b6001600160a01b03166000908152610104602052604090205490565b348015610c7957600080fd5b506104cf610c88366004615e62565b6136c8565b348015610c9957600080fd5b506104cf610ca83660046162d7565b613732565b348015610cb957600080fd5b506109da610cc8366004616032565b6101046020526000908152604090208054600182015460029092015490919083565b348015610cf657600080fd5b506104ac6101025481565b348015610d0d57600080fd5b506104ac610d1c36600461604d565b613cc7565b610d34610d2f36600461606f565b613cd3565b60405161048391906163eb565b348015610d4d57600080fd5b506104ac610d5c366004616032565b6001600160a01b03166000908152610104602052604090206001015490565b348015610d8757600080fd5b506104ac60fe5481565b348015610d9d57600080fd5b506104cf610dac36600461604d565b613d99565b348015610dbd57600080fd5b506104ac610dcc366004615cb7565b6001600160a01b031660009081526101046020908152604080832093835260049093019052205490565b348015610e0257600080fd5b506104ac613daa565b348015610e1757600080fd5b506104cf610e26366004616032565b613ddc565b348015610e3757600080fd5b506104cf610e46366004615cb7565b613e3d565b348015610e5757600080fd5b506104cf610e6636600461640c565b613e63565b348015610e7757600080fd5b50610105546104ac565b348015610e8d57600080fd5b506104cf610e9c366004615e62565b613fb6565b348015610ead57600080fd5b506104ac630786156081565b60006001600160e01b03198216637965db0b60e01b1480610eea57506301ffc9a760e01b6001600160e01b03198316145b92915050565b6000806101058581548110610f0757610f0761648b565b90600052602060002090600f0201600c019050600080610f288787876123a2565b9092509050600080838314156110075784600101846001610f4991906164b7565b81548110610f5957610f5961648b565b9060005260206000200154856001018581548110610f7957610f7961648b565b9060005260206000200154610f8e91906164cf565b9050846000018481548110610fa557610fa561648b565b60009182526020909120015485610fbd8660016164b7565b81548110610fcd57610fcd61648b565b9060005260206000200154610fe291906164cf565b610fec89896164cf565b610ff690836164e6565b6110009190616505565b9150611251565b8460010184600161101891906164b7565b815481106110285761102861648b565b90600052602060002001548560010185815481106110485761104861648b565b906000526020600020015461105d91906164cf565b90508460000184815481106110745761107461648b565b6000918252602090912001548561108c8660016164b7565b8154811061109c5761109c61648b565b90600052602060002001546110b191906164cf565b88866110be8760016164b7565b815481106110ce576110ce61648b565b90600052602060002001546110e391906164cf565b6110ed90836164e6565b6110f79190616505565b915084600101838154811061110e5761110e61648b565b90600052602060002001548560010185600161112a91906164b7565b8154811061113a5761113a61648b565b906000526020600020015461114f91906164cf565b61115990836164b7565b91508460010183600161116c91906164b7565b8154811061117c5761117c61648b565b906000526020600020015485600101848154811061119c5761119c61648b565b90600052602060002001546111b191906164cf565b90508460000183815481106111c8576111c861648b565b600091825260209091200154856111e08560016164b7565b815481106111f0576111f061648b565b906000526020600020015461120591906164cf565b85600001848154811061121a5761121a61648b565b90600052602060002001548861123091906164cf565b61123a90836164e6565b6112449190616505565b61124e90836164b7565b91505b5093505050505b9392505050565b611267614005565b565b60008261129357506001600160a01b03811660009081526101046020526040902060010154610eea565b506001600160a01b031660009081526101046020526040902060020154919050565b6000805160206167548339815191526112ce81336140dd565b6112dd89898888888888614141565b61010054604051630480051d60e31b81526001600160a01b038a811660048301529091169063240028e890602401602060405180830381865afa158015611328573d6000803e3d6000fd5b505050506040513d601f19601f8201168201806040525081019061134c9190616527565b61139d5760405162461bcd60e51b815260206004820152601f60248201527f494e56414c49445f535550504f525445445f544f4b454e5f414444524553530060448201526064015b60405180910390fd5b600060405180604001604052808681526020018581525090506000610105805490509050610105604051806101c001604052808d6001600160a01b03168152602001336001600160a01b031681526020018c6001600160a01b031681526020018b81526020016000815260200160008152602001600081526020018a8152602001898152602001886000815181106114375761143761648b565b60200260200101518152602001868152602001600081526020018481526020016001600281111561146a5761146a616239565b905281546001808201845560009384526020938490208351600f9093020180546001600160a01b03199081166001600160a01b0394851617825584860151928201805482169385169390931790925560408401516002820180549093169316929092179055606082015160038201556080820151600482015560a0820151600582015560c0820151600682015560e0820151600782015561010082015160088201556101208201516009820155610140820151600a820155610160820151600b82015561018082015180518051939492939192600c85019261154f9284920190615be5565b5060208281015180516115689260018501920190615be5565b5050506101a0820151600e8201805460ff1916600183600281111561158f5761158f616239565b02179055505050896001600160a01b03168b6001600160a01b0316827fe843b72f047599c26dfdab8a31d1b5f353799cab6a8482518a21f1b17871dd758b8d6040516115e5929190918252602082015260400190565b60405180910390a461010154611606906001600160a01b031633308c614613565b5050505050505050505050565b60008161165c5760405162461bcd60e51b815260206004820152601760248201527610555493d49057d49155d0549114d7d0d3d35413d55391604a1b6044820152606401611394565b60ff546116a05760405162461bcd60e51b81526020600482015260126024820152715a45524f5f53545245414d5f53484152455360701b6044820152606401611394565b60ff546c7e37be2022c0914b26800000006116bd8460fd54611e85565b6116c791906164e6565b6116d19190616505565b61010583815481106116e5576116e561648b565b90600052602060002090600f0201600b0154610eea91906164b7565b61125f614005565b60008061171584611613565b6001600160a01b0384166000908152610104602090815260408083208884526005810190925290912054600282015492935090916c7e37be2022c0914b26800000008161176284876164cf565b61176c91906164e6565b6117769190616505565b979650505050505050565b7f139c2898040ef16910dc9f44dc697df79363da767d8bc92f2e310312b816e46d6117ac81336140dd565b60fb5482811614806117c457506117c46000336133f9565b6118105760405162461bcd60e51b815260206004820152601e60248201527f4f4e4c595f44454641554c545f41444d494e5f43414e5f554e504155534500006044820152606401611394565b5060fb55565b60018060fb54166000148061183157506118316000336133f9565b61184d5760405162461bcd60e51b815260040161139490616544565b60008051602061679b83398151915261186681336140dd565b61186e614005565b8460005b818110156118bd576118ab88888381811061188f5761188f61648b565b90506020020160208101906118a49190616032565b878761466b565b806118b581616570565b915050611872565b5050505050505050565b60018060fb5416600014806118e257506118e26000336133f9565b6118fe5760405162461bcd60e51b815260040161139490616544565b60008051602061679b83398151915261191781336140dd565b61191f614005565b8260005b8181101561196c5761195a8686838181106119405761194061648b565b90506020020160208101906119559190616032565b614706565b8061196481616570565b915050611923565b505050505050565b60018060fb54166000148061198f575061198f6000336133f9565b6119ab5760405162461bcd60e51b815260040161139490616544565b6000805160206167bb8339815191526119c481336140dd565b6119cc614005565b6119d68484614775565b61010054610101546119f7916001600160a01b039182169133911686614613565b50505050565b60005b8151811015611a3d57611a2b828281518110611a1e57611a1e61648b565b6020026020010151614934565b80611a3581616570565b915050611a00565b5050565b60018060fb541660001480611a5c5750611a5c6000336133f9565b611a785760405162461bcd60e51b815260040161139490616544565b60fe54611ac25760405162461bcd60e51b81526020600482015260186024820152775a45524f5f544f54414c5f4155524f52415f53484152455360401b6044820152606401611394565b3360009081526101046020526040902060010154611b155760405162461bcd60e51b815260206004820152601060248201526f5a45524f5f555345525f53484152455360801b6044820152606401611394565b611b1d614005565b60fe54336000908152610104602052604081206001015460fc54919291611b4491906164e6565b611b4e9190616505565b9050611b5a8382614af0565b505050565b60018060fb541660001480611b7a5750611b7a6000336133f9565b611b965760405162461bcd60e51b815260040161139490616544565b336000908152610104602090815260408083208584526004019091529020544211611bfa5760405162461bcd60e51b8152602060048201526014602482015273494e56414c49445f52454c454153455f54494d4560601b6044820152606401611394565b611a3d82614ced565b600082815260c96020526040902060010154611c1f81336140dd565b611b5a8383614de2565b60018060fb541660001480611c445750611c446000336133f9565b611c605760405162461bcd60e51b815260040161139490616544565b60fe54611caa5760405162461bcd60e51b81526020600482015260186024820152775a45524f5f544f54414c5f4155524f52415f53484152455360401b6044820152606401611394565b3360009081526101046020526040902060010154611cfd5760405162461bcd60e51b815260206004820152601060248201526f5a45524f5f555345525f53484152455360801b6044820152606401611394565b611d05614005565b60fe54336000908152610104602052604081206001015460fc54919291611d2c91906164e6565b611d369190616505565b9050611a3d8182614af0565b6001600160a01b0381163314611db25760405162461bcd60e51b815260206004820152602f60248201527f416363657373436f6e74726f6c3a2063616e206f6e6c792072656e6f756e636560448201526e103937b632b9903337b91039b2b63360891b6064820152608401611394565b611a3d8282614e68565b306001600160a01b037f0000000000000000000000000000000000000000000000000000000000000000161415611e055760405162461bcd60e51b81526004016113949061658b565b7f00000000000000000000000000000000000000000000000000000000000000006001600160a01b0316611e37614ecf565b6001600160a01b031614611e5d5760405162461bcd60e51b8152600401611394906165d7565b611e6681614efd565b60408051600080825260208201909252611e8291839190614f09565b50565b600042821115611ecd5760405162461bcd60e51b8152602060048201526013602482015272494e56414c49445f4c4153545f55504441544560681b6044820152606401611394565b42821415611edd57506000610eea565b60006101058481548110611ef357611ef361648b565b90600052602060002090600f0201600c01600001600081548110611f1957611f1961648b565b90600052602060002001549050804211611f37576000915050610eea565b60006101058581548110611f4d57611f4d61648b565b90600052602060002090600f0201600c0160000160016101058781548110611f7757611f7761648b565b60009182526020909120600c600f909202010154611f9591906164cf565b81548110611fa557611fa561648b565b90600052602060002001549050808410611fc457600092505050610eea565b60008083861115611fd757859150611fdb565b8391505b82421015611fea575042611fed565b50815b611776878383610ef0565b600080610105838154811061200f5761200f61648b565b60009182526020909120600f9091020190506002600e82015460ff16600281111561203c5761203c616239565b1461204a5750600092915050565b600061205a848360090154611e85565b9050816005015482600301548261207191906164e6565b61207b9190616505565b949350505050565b60008051602061675483398151915261209c81336140dd565b826120e95760405162461bcd60e51b815260206004820152601b60248201527f4155524f52415f53545245414d5f4e4f545f52454d4f5641424c4500000000006044820152606401611394565b600061010584815481106120ff576120ff61648b565b60009182526020909120600f9091020190506002600e82015460ff16600281111561212c5761212c616239565b146121725760405162461bcd60e51b815260206004820152601660248201527514d51491505357d053149150511657d4915353d5915160521b6044820152606401611394565b600e8101805460ff19169055600281015481546040516001600160a01b03928316929091169086907f661da9ced4b5d786f5b5f451a5f68af24721a01b0a65bb47fa4fdf70b80b887c90600090a46000816004015482600301546121d691906164cf565b90506000826006015483600501546121ee91906164cf565b6101015490915060009061220a906001600160a01b03166128ed565b6002850154909150600090612227906001600160a01b03166128ed565b610100546001870154610101549293506001600160a01b039182169263da0c1a889291821691168588111561225c578561225e565b875b6040518463ffffffff1660e01b815260040161227c93929190616623565b600060405180830381600087803b15801561229657600080fd5b505af11580156122aa573d6000803e3d6000fd5b50506101005460028801546001600160a01b03918216935063da0c1a8892508a9116848711156122da57846122dc565b865b6040518463ffffffff1660e01b81526004016122fa93929190616623565b600060405180830381600087803b15801561231457600080fd5b505af1158015612328573d6000803e3d6000fd5b505050505050505050505050565b60018060fb54166000148061235157506123516000336133f9565b61236d5760405162461bcd60e51b815260040161139490616544565b60008051602061679b83398151915261238681336140dd565b61238e614005565b6119f7848461504d565b611a3d828261504d565b600080600061010586815481106123bb576123bb61648b565b60009182526020909120600c600f909202010180549091508061240e5760405162461bcd60e51b815260206004820152600b60248201526a4e4f5f5343484544554c4560a81b6044820152606401611394565b85851161245d5760405162461bcd60e51b815260206004820152601b60248201527f494e56414c49445f5245574152445f51554552595f504552494f4400000000006044820152606401611394565b816000016000815481106124735761247361648b565b90600052602060002001548610156124cd5760405162461bcd60e51b815260206004820152601b60248201527f51554552595f4245464f52455f5343484544554c455f535441525400000000006044820152606401611394565b816124d96001836164cf565b815481106124e9576124e961648b565b90600052602060002001548511156125435760405162461bcd60e51b815260206004820152601860248201527f51554552595f41465445525f5343484544554c455f454e4400000000000000006044820152606401611394565b60015b81811015612599578260000181815481106125635761256361648b565b9060005260206000200154871015612587576125806001826164cf565b9450612599565b8061259181616570565b915050612546565b50816125a66001836164cf565b815481106125b6576125b661648b565b90600052602060002001548514156125da576125d36002826164cf565b925061263f565b60006125e78560016164b7565b90505b8181101561263d578260000181815481106126075761260761648b565b906000526020600020015486101561262b576126246001826164cf565b935061263d565b8061263581616570565b9150506125ea565b505b8284111561268f5760405162461bcd60e51b815260206004820152601960248201527f494e56414c49445f494e4445585f43414c43554c4154494f4e000000000000006044820152606401611394565b5050935093915050565b306001600160a01b037f00000000000000000000000000000000000000000000000000000000000000001614156126e25760405162461bcd60e51b81526004016113949061658b565b7f00000000000000000000000000000000000000000000000000000000000000006001600160a01b0316612714614ecf565b6001600160a01b03161461273a5760405162461bcd60e51b8152600401611394906165d7565b61274382614efd565b611a3d82826001614f09565b60018060fb54166000148061276a575061276a6000336133f9565b6127865760405162461bcd60e51b815260040161139490616544565b6000805160206167bb83398151915261279f81336140dd565b858481146127e65760405162461bcd60e51b81526020600482015260146024820152730929cac82989288be82a4a482b2be988a9c8ea8960631b6044820152606401611394565b6127ee614005565b6000805b8281101561287a5787878281811061280c5761280c61648b565b905060200201358261281e91906164b7565b91506128688a8a838181106128355761283561648b565b905060200201602081019061284a9190616032565b89898481811061285c5761285c61648b565b90506020020135614775565b8061287281616570565b9150506127f2565b508481146128c15760405162461bcd60e51b81526020600482015260146024820152731253959053125117d0905510d217d05353d5539560621b6044820152606401611394565b61010054610101546128e2916001600160a01b039182169133911688614613565b505050505050505050565b610100546040516370a0823160e01b81526001600160a01b0391821660048201526000918316906370a0823190602401602060405180830381865afa15801561293a573d6000803e3d6000fd5b505050506040513d601f19601f82011682018060405250810190610eea9190616647565b60018060fb54166000148061297957506129796000336133f9565b6129955760405162461bcd60e51b815260040161139490616544565b60008051602061679b8339815191526129ae81336140dd565b6129b6614005565b6129c185858561466b565b5050505050565b60008060006129d960008686610ef0565b9250670de0b6b3a76400006129f060008787610ef0565b6129fa9190616505565b905060fe54600014612a1a5760fe54612a139084616505565b9150612a1e565b8291505b9250925092565b60018060fb541660001480612a405750612a406000336133f9565b612a5c5760405162461bcd60e51b815260040161139490616544565b612a64614005565b611b5a33848461466b565b6000612a7b81336140dd565b50825491821816189055565b6060806101058381548110612a9e57612a9e61648b565b90600052602060002090600f0201600c016000016101058481548110612ac657612ac661648b565b90600052602060002090600f0201600c0160010181805480602002602001604051908101604052809291908181526020018280548015612b2557602002820191906000526020600020905b815481526020019060010190808311612b11575b5050505050915080805480602002602001604051908101604052809291908181526020018280548015612b7757602002820191906000526020600020905b815481526020019060010190808311612b63575b5050505050905091509150915091565b60018060fb541660001480612ba25750612ba26000336133f9565b612bbe5760405162461bcd60e51b815260040161139490616544565b33600090815261010460205260408120905b838110156129c157816003016000868684818110612bf057612bf061648b565b90506020020135815260200190815260200160002054600014158015612c425750816004016000868684818110612c2957612c2961648b565b9050602002013581526020019081526020016000205442115b15612c6857612c68858583818110612c5c57612c5c61648b565b90506020020135614ced565b80612c7281616570565b915050612bd0565b6000612c8681336140dd565b60fb54612cc55760405162461bcd60e51b815260206004820152600d60248201526c524551554952455f504155534560981b6044820152606401611394565b6001600160a01b038216612d0d5760405162461bcd60e51b815260206004820152600f60248201526e494e56414c49445f4144445245535360881b6044820152606401611394565b610100546001600160a01b0383811691161415612d5b5760405162461bcd60e51b815260206004820152600c60248201526b53414d455f4144445245535360a01b6044820152606401611394565b5061010080546001600160a01b0319166001600160a01b0392909216919091179055565b60018060fb541660001480612d9a5750612d9a6000336133f9565b612db65760405162461bcd60e51b815260040161139490616544565b336000908152610104602052604081206101055490915b818110156119f757600081815260038401602052604090205415801590612e035750600081815260048401602052604090205442115b15612e1157612e1181614ced565b80612e1b81616570565b915050612dcd565b6000806000806000806000806000806000806101058d81548110612e4957612e4961648b565b90600052602060002090600f020190508060000160009054906101000a90046001600160a01b03168160020160009054906101000a90046001600160a01b031682600301548360040154846005015485600601548660070154876009015488600b015489600a01548a600e0160009054906101000a900460ff169b509b509b509b509b509b509b509b509b509b509b505091939597999b90929496989a50565b60018060fb541660001480612f045750612f046000336133f9565b612f205760405162461bcd60e51b815260040161139490616544565b612f28614005565b611e8233614706565b60018060fb541660001480612f4c5750612f4c6000336133f9565b612f685760405162461bcd60e51b815260040161139490616544565b60006101058481548110612f7e57612f7e61648b565b60009182526020909120600f9091020190506001600e82015460ff166002811115612fab57612fab616239565b14612fee5760405162461bcd60e51b815260206004820152601360248201527214d51491505357d393d517d41493d413d4d151606a1b6044820152606401611394565b80546001600160a01b0316331461303e5760405162461bcd60e51b815260206004820152601460248201527324a72b20a624a22fa9aa2922a0a6afa7aba722a960611b6044820152606401611394565b4281600c016000016000815481106130585761305861648b565b906000526020600020015410156130b15760405162461bcd60e51b815260206004820152601760248201527f53545245414d5f50524f504f53414c5f455850495245440000000000000000006044820152606401611394565b80600701548311156130f75760405162461bcd60e51b815260206004820152600f60248201526e0a48aae82a488bea89e9ebe90928e9608b1b6044820152606401611394565b806008015483101561313c5760405162461bcd60e51b815260206004820152600e60248201526d5245574152445f544f4f5f4c4f5760901b6044820152606401611394565b600e8101805460ff191660021790556005810183905560078101548310156131c9576000816007015482600301548561317591906164e6565b61317f9190616505565b9050600081836003015461319391906164cf565b6003840183905590506131a68686615341565b6001830154610101546131c6916001600160a01b0391821691168361544b565b50505b6002810154815460038301546040516001600160a01b0393841693929092169187917f3062262d3b7b7b5292387920111bfa3e0597dc070a8f10f1be710f15868c22e09161321f91898252602082015260400190565b60405180910390a46005810154600d820180546000906132415761324161648b565b9060005260206000200154146132995760405162461bcd60e51b815260206004820152601760248201527f494e56414c49445f5354415254494e475f5245574152440000000000000000006044820152606401611394565b610100546003820154610101546132be926001600160a01b039182169291169061544b565b6101005460028201546119f7916001600160a01b039182169133911686614613565b6000805160206167548339815191526132f981336140dd565b6000610105838154811061330f5761330f61648b565b60009182526020909120600f9091020190506001600e82015460ff16600281111561333c5761333c616239565b1461337f5760405162461bcd60e51b815260206004820152601360248201527214d51491505357d393d517d41493d413d4d151606a1b6044820152606401611394565b600e8101805460ff191690556003810180546000918290556002830154835460405192936001600160a01b0392831693929091169187917ffadbcbd495527ce5e10fd0cceba57d404a4625dd6ce0499c254ac523789ef3ad91a46001820154610101546119f7916001600160a01b0391821691168361544b565b600091825260c9602090815260408084206001600160a01b0393909316845291905290205460ff1690565b6000610105828154811061343a5761343a61648b565b90600052602060002090600f0201600b01549050919050565b60018060fb54166000148061346e575061346e6000336133f9565b61348a5760405162461bcd60e51b815260040161139490616544565b816134ca5760405162461bcd60e51b815260206004820152601060248201526f4155524f52415f53545245414d5f4e4160801b6044820152606401611394565b600061010583815481106134e0576134e061648b565b60009182526020909120600f9091020180549091506001600160a01b031633146135435760405162461bcd60e51b815260206004820152601460248201527324a72b20a624a22fa9aa2922a0a6afa7aba722a960611b6044820152606401611394565b6002600e82015460ff16600281111561355e5761355e616239565b146135ab5760405162461bcd60e51b815260206004820152601b60248201527f494e4143544956455f4f525f50524f504f5345445f53545245414d00000000006044820152606401611394565b60006135b684611ff8565b9050600081116135f75760405162461bcd60e51b815260206004820152600c60248201526b5a45524f5f5245574152445360a01b6044820152606401611394565b4282600901819055508082600401600082825461361491906164b7565b909155505081546040518281526001600160a01b039091169085907fd8dbc00678cdeb812d1660863c3d845d199d828cd02c9278b1ac8f359a1394369060200160405180910390a361010054825461010154604051631b41835160e31b81526001600160a01b039384169363da0c1a889361369a93908216929116908690600401616623565b600060405180830381600087803b1580156136b457600080fd5b505af11580156118bd573d6000803e3d6000fd5b60018060fb5416600014806136e357506136e36000336133f9565b6136ff5760405162461bcd60e51b815260040161139490616544565b613707614005565b6137113383614775565b6101005461010154611a3d916001600160a01b039182169133911685614613565b600054610100900460ff1661374d5760005460ff1615613751565b303b155b6137b45760405162461bcd60e51b815260206004820152602e60248201527f496e697469616c697a61626c653a20636f6e747261637420697320616c72656160448201526d191e481a5b9a5d1a585b1a5e995960921b6064820152608401611394565b600054610100900460ff161580156137d6576000805461ffff19166101011790555b8183116138175760405162461bcd60e51b815260206004820152600f60248201526e494e56414c49445f5745494748545360881b6044820152606401611394565b6001600160a01b03841661385f5760405162461bcd60e51b815260206004820152600f60248201526e494e56414c49445f4144445245535360881b6044820152606401611394565b6138a2898b896000815181106138775761387761648b565b60200260200101518a6000815181106138925761389261648b565b60200260200101518c8c8c614141565b604051630480051d60e31b81526001600160a01b038b8116600483015285169063240028e890602401602060405180830381865afa1580156138e8573d6000803e3d6000fd5b505050506040513d601f19601f8201168201806040525081019061390c9190616527565b6139585760405162461bcd60e51b815260206004820152601f60248201527f494e56414c49445f535550504f525445445f544f4b454e5f41444452455353006044820152606401611394565b6139618561547b565b6139796000805160206167bb83398151915233614de2565b61399160008051602061679b83398151915233614de2565b6139a960008051602061675483398151915233614de2565b61010080546001600160a01b038087166001600160a01b031992831617835561010180548e83169316831790556101028690556101038590556040805180820182528c815260208082018d905282516101c081018452938f1680855290840152908201929092526000606082018190526080820181905260a0820181905260c0820181905260e0820181905292810183905242610120820152610140810189905261016081018390526101808101829052610105906101a081016002905281546001808201845560009384526020938490208351600f9093020180546001600160a01b03199081166001600160a01b0394851617825584860151928201805482169385169390931790925560408401516002820180549093169316929092179055606082015160038201556080820151600482015560a0820151600582015560c0820151600682015560e0820151600782015561010082015160088201556101208201516009820155610140820151600a820155610160820151600b82015561018082015180518051939492939192600c850192613b4a9284920190615be5565b506020828101518051613b639260018501920190615be5565b5050506101a0820151600e8201805460ff19166001836002811115613b8a57613b8a616239565b021790555050508b6001600160a01b03168b6001600160a01b0316837fe843b72f047599c26dfdab8a31d1b5f353799cab6a8482518a21f1b17871dd758c600081518110613bda57613bda61648b565b60200260200101518d600081518110613bf557613bf561648b565b6020026020010151604051613c14929190918252602082015260400190565b60405180910390a48b6001600160a01b03168b6001600160a01b0316837f3062262d3b7b7b5292387920111bfa3e0597dc070a8f10f1be710f15868c22e08c600081518110613c6557613c6561648b565b60200260200101518d600081518110613c8057613c8061648b565b6020026020010151604051613c9f929190918252602082015260400190565b60405180910390a450508015613cbb576000805461ff00191690555b50505050505050505050565b600061125883836154c5565b60606000613ce181336140dd565b6001600160a01b038416613d265760405162461bcd60e51b815260206004820152600c60248201526b5a45524f5f4144445245535360a01b6044820152606401611394565b600080856001600160a01b031685604051613d419190616660565b600060405180830381855af49150503d8060008114613d7c576040519150601f19603f3d011682016040523d82523d6000602084013e613d81565b606091505b509150915081613d9057600080fd5b95945050505050565b6000613da581336140dd565b509055565b600060fd5460001415613dbd5750600090565b613dca600060fd54611e85565b60fc54613dd791906164b7565b905090565b60018060fb541660001480613df75750613df76000336133f9565b613e135760405162461bcd60e51b815260040161139490616544565b60008051602061679b833981519152613e2c81336140dd565b613e34614005565b611b5a83614706565b600082815260c96020526040902060010154613e5981336140dd565b611b5a8383614e68565b6000805160206167bb833981519152613e7c81336140dd565b613e84614005565b8351855114613ecc5760405162461bcd60e51b81526020600482015260146024820152730929cac82989288be82a4a482b2be988a9c8ea8960631b6044820152606401611394565b6000805b8551811015613f4e57858181518110613eeb57613eeb61648b565b602002602001015182613efe91906164b7565b9150613f3c878281518110613f1557613f1561648b565b6020026020010151878381518110613f2f57613f2f61648b565b6020026020010151614775565b80613f4681616570565b915050613ed0565b50838114613f955760405162461bcd60e51b81526020600482015260146024820152731253959053125117d0905510d217d05353d5539560621b6044820152606401611394565b610100546101015461196c916001600160a01b039182169133911687614613565b60018060fb541660001480613fd15750613fd16000336133f9565b613fed5760405162461bcd60e51b815260040161139490616544565b613ff5614005565b611a3d338361504d565b3b151590565b4260fd54141561401157565b60fe54156140d757614026600060fd54611e85565b60fc600082825461403791906164b7565b90915550506101055460015b818110156140d457600261010582815481106140615761406161648b565b60009182526020909120600e600f90920201015460ff16600281111561408957614089616239565b14156140c25761409881611613565b61010582815481106140ac576140ac61648b565b90600052602060002090600f0201600b01819055505b806140cc81616570565b915050614043565b50505b4260fd55565b6140e782826133f9565b611a3d576140ff816001600160a01b031660146155bf565b61410a8360206155bf565b60405160200161411b92919061667c565b60408051601f198184030181529082905262461bcd60e51b8252611394916004016163eb565b6001600160a01b0387166141975760405162461bcd60e51b815260206004820152601c60248201527f494e56414c49445f53545245414d5f4f574e45525f41444452455353000000006044820152606401611394565b6001600160a01b0386166141ed5760405162461bcd60e51b815260206004820152601c60248201527f494e56414c49445f5245574152445f544f4b454e5f41444452455353000000006044820152606401611394565b600085116142305760405162461bcd60e51b815260206004820152601060248201526f16915493d7d3505617d1115413d4d25560821b6044820152606401611394565b600084116142735760405162461bcd60e51b815260206004820152601060248201526f16915493d7d3525397d1115413d4d25560821b6044820152606401611394565b848411156142b95760405162461bcd60e51b81526020600482015260136024820152721253959053125117d3525397d1115413d4d255606a1b6044820152606401611394565b816000815181106142cc576142cc61648b565b602002602001015185146143225760405162461bcd60e51b815260206004820152601f60248201527f4d41585f4445504f5349545f4d5553545f455155414c5f5343484544554c45006044820152606401611394565b42836000815181106143365761433661648b565b60200260200101511161438b5760405162461bcd60e51b815260206004820152601e60248201527f494e56414c49445f53545245414d5f45585049524154494f4e5f4441544500006044820152606401611394565b81518351146143dc5760405162461bcd60e51b815260206004820152601760248201527f494e56414c49445f5343484544554c455f56414c5545530000000000000000006044820152606401611394565b6002835110156144235760405162461bcd60e51b815260206004820152601260248201527114d0d2115115531157d513d3d7d4d213d49560721b6044820152606401611394565b806144655760405162461bcd60e51b81526020600482015260126024820152711253959053125117d5105557d411549253d160721b6044820152606401611394565b60015b8351811015614593578361447d6001836164cf565b8151811061448d5761448d61648b565b60200260200101518482815181106144a7576144a761648b565b6020026020010151116144f55760405162461bcd60e51b8152602060048201526016602482015275494e56414c49445f5343484544554c455f54494d455360501b6044820152606401611394565b826145016001836164cf565b815181106145115761451161648b565b602002602001015183828151811061452b5761452b61648b565b602002602001015111156145815760405162461bcd60e51b815260206004820152601860248201527f494e56414c49445f5343484544554c455f5245574152445300000000000000006044820152606401611394565b8061458b81616570565b915050614468565b5081600183516145a391906164cf565b815181106145b3576145b361648b565b602002602001015160001461460a5760405162461bcd60e51b815260206004820152601b60248201527f494e56414c49445f5343484544554c455f454e445f52455741524400000000006044820152606401611394565b50505050505050565b6119f7846323b872dd60e01b85858560405160240161463493929190616623565b60408051601f198184030181529190526020810180516001600160e01b03166001600160e01b03199093169290921790915261575a565b60005b818110156119f757600261010584848481811061468d5761468d61648b565b90506020020135815481106146a4576146a461648b565b60009182526020909120600e600f90920201015460ff1660028111156146cc576146cc616239565b14156146f4576146f4848484848181106146e8576146e861648b565b9050602002013561504d565b806146fe81616570565b91505061466e565b6101055460015b81811015611b5a576002610105828154811061472b5761472b61648b565b60009182526020909120600e600f90920201015460ff16600281111561475357614753616239565b141561476357614763838261504d565b8061476d81616570565b91505061470d565b6001600160a01b03821660009081526101046020526040812060fe5490919061479f5750816147e6565b600060fe54846147af91906164e6565b905060fc54816147bf9190616505565b91508060fc54836147d091906164e6565b10156147e4576147e16001836164b7565b91505b505b808260010160008282546147fa91906164b7565b925050819055508060fe600082825461481391906164b7565b925050819055508260fc600082825461482c91906164b7565b90915550508154839083906000906148459084906164b7565b909155506000905061485782426154c5565b90508060ff600082825461486b91906164b7565b925050819055508083600201600082825461488691906164b7565b90915550506101055460015b818110156148e75761010581815481106148ae576148ae61648b565b60009182526020808320600b600f90930201919091015483835260058801909152604090912055806148df81616570565b915050614892565b5060408051868152602081018590526001600160a01b038816917f1449c6dd7851abc30abf37f57715f492010519147cc2652fbc38202c18a6ee90910160405180910390a2505050505050565b61493c614005565b60fe546001600160a01b0382166000908152610104602052604081206001015460fc5491929161496c91906164e6565b6149769190616505565b6001600160a01b038316600090815261010460205260408120600181015460fe805494955091939092906149ab9084906164cf565b9091555050600281015460ff80546000906149c79084906164cf565b90915550506000600182018190556002820181905560fc80548492906149ee9084906164cf565b9091555050600080825580805260038201602052604081208054849290614a169084906164b7565b90915550506101058054600090614a2f57614a2f61648b565b90600052602060002090600f0201600a015442614a4c91906164b7565b60008080526004830160209081526040808320939093556003840181528282205492519283526001600160a01b038616927f5f1c6be51c8ec7fa7e7ddd9f798ec55927b06cfc8d9159987d1ae3358cb10b59910160405180910390a3826001600160a01b03167f0f5bb82176feb1b5e747e28471aa92156a04d9f3ab9f45f28e2d704232b93f7583604051614ae391815260200190565b60405180910390a2505050565b81614b2b5760405162461bcd60e51b815260206004820152600b60248201526a16915493d7d05353d5539560aa1b6044820152606401611394565b80821115614b7b5760405162461bcd60e51b815260206004820152601860248201527f4e4f545f454e4f5547485f5354414b455f42414c414e434500000000000000006044820152606401611394565b33600090815261010460205260408120600181015460fe805492939192909190614ba69084906164cf565b9091555050600281015460ff8054600090614bc29084906164cf565b90915550506000600182018190556002820181905560fc8054849290614be99084906164cf565b9091555050600080825580805260038201602052604081208054859290614c119084906164b7565b90915550506101058054600090614c2a57614c2a61648b565b90600052602060002090600f0201600a015442614c4791906164b7565b600080805260048301602090815260408083209390935560038401815282822054925192835233927f5f1c6be51c8ec7fa7e7ddd9f798ec55927b06cfc8d9159987d1ae3358cb10b59910160405180910390a360405183815233907f0f5bb82176feb1b5e747e28471aa92156a04d9f3ab9f45f28e2d704232b93f759060200160405180910390a26000614cdb84846164cf565b905080156119f7576119f73382614775565b336000818152610104602090815260408083208584526003810183528184208054949055905183815290939185917f3bfce8de0db7450cc169b94323c210e69a36c6a4a58c9f5d96bec4973adce392910160405180910390a36101005461010580546001600160a01b039092169163da0c1a8891339187908110614d7357614d7361648b565b600091825260209091206002600f9092020101546040516001600160e01b031960e085901b168152614db492916001600160a01b0316908690600401616623565b600060405180830381600087803b158015614dce57600080fd5b505af115801561460a573d6000803e3d6000fd5b614dec82826133f9565b611a3d57600082815260c9602090815260408083206001600160a01b03851684529091529020805460ff19166001179055614e243390565b6001600160a01b0316816001600160a01b0316837f2f8788117e7eff1d82e926ec794901d17c78024a50270940304540a733656f0d60405160405180910390a45050565b614e7282826133f9565b15611a3d57600082815260c9602090815260408083206001600160a01b0385168085529252808320805460ff1916905551339285917ff6391f5c32d9c69d2a47ea670b442974b53935d1edc7fd64eb21e047a839171b9190a45050565b7f360894a13ba1a3210667c828492db98dca3e2076cc3735a920a3ca505d382bbc546001600160a01b031690565b6000611a3d81336140dd565b6000614f13614ecf565b9050614f1e8461582c565b600083511180614f2b5750815b15614f3c57614f3a84846158d1565b505b7f4910fdfa16fed3260ed0e7147f7cc6da11a60208b5b9406d12a635614ffd9143805460ff166129c157805460ff191660011781556040516001600160a01b0383166024820152614fbb90869060440160408051601f198184030181529190526020810180516001600160e01b0316631b2ce7f360e11b1790526158d1565b50805460ff19168155614fcc614ecf565b6001600160a01b0316826001600160a01b0316146150445760405162461bcd60e51b815260206004820152602f60248201527f45524331393637557067726164653a207570677261646520627265616b73206660448201526e75727468657220757067726164657360881b6064820152608401611394565b6129c1856159b3565b806150945760405162461bcd60e51b815260206004820152601760248201527610555493d49057d49155d0549114d7d0d3d35413d55391604a1b6044820152606401611394565b600261010582815481106150aa576150aa61648b565b60009182526020909120600e600f90920201015460ff1660028111156150d2576150d2616239565b1461511f5760405162461bcd60e51b815260206004820152601b60248201527f494e4143544956455f4f525f50524f504f5345445f53545245414d00000000006044820152606401611394565b6001600160a01b03821660009081526101046020526040902060018101546151895760405162461bcd60e51b815260206004820152601f60248201527f555345525f444f45535f4e4f545f484156455f41435455414c5f5354414b45006044820152606401611394565b60006c7e37be2022c0914b268000000082600201548360050160008681526020019081526020016000205461010586815481106151c8576151c861648b565b90600052602060002090600f0201600b01546151e491906164cf565b6151ee91906164e6565b6151f89190616505565b9050806152055750505050565b6000838152600383016020526040812080548392906152259084906164b7565b909155505061010580548490811061523f5761523f61648b565b90600052602060002090600f0201600b015482600501600085815260200190815260200160002081905550610105838154811061527e5761527e61648b565b90600052602060002090600f0201600a01544261529b91906164b7565b60008481526004840160205260409020556101058054829190859081106152c4576152c461648b565b90600052602060002090600f020160060160008282546152e491906164b7565b909155505060008381526003830160209081526040918290205491519182526001600160a01b0386169185917f5f1c6be51c8ec7fa7e7ddd9f798ec55927b06cfc8d9159987d1ae3358cb10b59910160405180910390a350505050565b600061010583815481106153575761535761648b565b600091825260208220600d600f90920201015491505b818110156119f75761010584815481106153895761538961648b565b90600052602060002090600f0201600701548361010586815481106153b0576153b061648b565b90600052602060002090600f0201600c0160010183815481106153d5576153d561648b565b90600052602060002001546153ea91906164e6565b6153f49190616505565b61010585815481106154085761540861648b565b90600052602060002090600f0201600c01600101828154811061542d5761542d61648b565b6000918252602090912001558061544381616570565b91505061536d565b6040516001600160a01b038316602482015260448101829052611b5a90849063a9059cbb60e01b90606401614634565b6154836159f3565b61548b615a2a565b615496600033614de2565b6154c07f139c2898040ef16910dc9f44dc697df79363da767d8bc92f2e310312b816e46d33614de2565b60fb55565b600080622820726101056000815481106154e1576154e161648b565b90600052602060002090600f0201600c016000016000815481106155075761550761648b565b906000526020600020015461551c91906164b7565b9050600061552e6307861560836164b7565b905081841161554e576101025461554590866164e6565b92505050610eea565b808410615563576101035461554590866164e6565b61556d82826164cf565b61557785836164cf565b610103546101025461558991906164cf565b61559390886164e6565b61559d91906164e6565b6155a79190616505565b610103546155b590876164e6565b613d9091906164b7565b606060006155ce8360026164e6565b6155d99060026164b7565b6001600160401b038111156155f0576155f0615ce3565b6040519080825280601f01601f19166020018201604052801561561a576020820181803683370190505b509050600360fc1b816000815181106156355761563561648b565b60200101906001600160f81b031916908160001a905350600f60fb1b816001815181106156645761566461648b565b60200101906001600160f81b031916908160001a90535060006156888460026164e6565b6156939060016164b7565b90505b600181111561570b576f181899199a1a9b1b9c1cb0b131b232b360811b85600f16601081106156c7576156c761648b565b1a60f81b8282815181106156dd576156dd61648b565b60200101906001600160f81b031916908160001a90535060049490941c93615704816166f1565b9050615696565b5083156112585760405162461bcd60e51b815260206004820181905260248201527f537472696e67733a20686578206c656e67746820696e73756666696369656e746044820152606401611394565b60006157af826040518060400160405280602081526020017f5361666545524332303a206c6f772d6c6576656c2063616c6c206661696c6564815250856001600160a01b0316615a599092919063ffffffff16565b805190915015611b5a57808060200190518101906157cd9190616527565b611b5a5760405162461bcd60e51b815260206004820152602a60248201527f5361666545524332303a204552433230206f7065726174696f6e20646964206e6044820152691bdd081cdd58d8d9595960b21b6064820152608401611394565b803b6158905760405162461bcd60e51b815260206004820152602d60248201527f455243313936373a206e657720696d706c656d656e746174696f6e206973206e60448201526c1bdd08184818dbdb9d1c9858dd609a1b6064820152608401611394565b7f360894a13ba1a3210667c828492db98dca3e2076cc3735a920a3ca505d382bbc80546001600160a01b0319166001600160a01b0392909216919091179055565b6060823b6159305760405162461bcd60e51b815260206004820152602660248201527f416464726573733a2064656c65676174652063616c6c20746f206e6f6e2d636f6044820152651b9d1c9858dd60d21b6064820152608401611394565b600080846001600160a01b03168460405161594b9190616660565b600060405180830381855af49150503d8060008114615986576040519150601f19603f3d011682016040523d82523d6000602084013e61598b565b606091505b5091509150613d90828260405180606001604052806027815260200161677460279139615a68565b6159bc8161582c565b6040516001600160a01b038216907fbc7cd75a20ee27fd9adebab32041f755214dbc6bffa90cc0225b39da2e5c2d3b90600090a250565b600054610100900460ff16615a1a5760405162461bcd60e51b815260040161139490616708565b615a22615aa1565b611267615aa1565b600054610100900460ff16615a515760405162461bcd60e51b815260040161139490616708565b615a1a615aa1565b606061207b8484600085615ac8565b60608315615a77575081611258565b825115615a875782518084602001fd5b8160405162461bcd60e51b815260040161139491906163eb565b600054610100900460ff166112675760405162461bcd60e51b815260040161139490616708565b606082471015615b295760405162461bcd60e51b815260206004820152602660248201527f416464726573733a20696e73756666696369656e742062616c616e636520666f6044820152651c8818d85b1b60d21b6064820152608401611394565b843b615b775760405162461bcd60e51b815260206004820152601d60248201527f416464726573733a2063616c6c20746f206e6f6e2d636f6e74726163740000006044820152606401611394565b600080866001600160a01b03168587604051615b939190616660565b60006040518083038185875af1925050503d8060008114615bd0576040519150601f19603f3d011682016040523d82523d6000602084013e615bd5565b606091505b5091509150611776828286615a68565b828054828255906000526020600020908101928215615c20579160200282015b82811115615c20578251825591602001919060010190615c05565b50615c2c929150615c30565b5090565b5b80821115615c2c5760008155600101615c31565b600060208284031215615c5757600080fd5b81356001600160e01b03198116811461125857600080fd5b600080600060608486031215615c8457600080fd5b505081359360208301359350604090920135919050565b80356001600160a01b0381168114615cb257600080fd5b919050565b60008060408385031215615cca57600080fd5b82359150615cda60208401615c9b565b90509250929050565b634e487b7160e01b600052604160045260246000fd5b604051601f8201601f191681016001600160401b0381118282101715615d2157615d21615ce3565b604052919050565b60006001600160401b03821115615d4257615d42615ce3565b5060051b60200190565b600082601f830112615d5d57600080fd5b81356020615d72615d6d83615d29565b615cf9565b82815260059290921b84018101918181019086841115615d9157600080fd5b8286015b84811015615dac5780358352918301918301615d95565b509695505050505050565b600080600080600080600080610100898b031215615dd457600080fd5b615ddd89615c9b565b9750615deb60208a01615c9b565b965060408901359550606089013594506080890135935060a08901356001600160401b0380821115615e1c57600080fd5b615e288c838d01615d4c565b945060c08b0135915080821115615e3e57600080fd5b50615e4b8b828c01615d4c565b92505060e089013590509295985092959890939650565b600060208284031215615e7457600080fd5b5035919050565b60008083601f840112615e8d57600080fd5b5081356001600160401b03811115615ea457600080fd5b6020830191508360208260051b8501011115615ebf57600080fd5b9250929050565b60008060008060408587031215615edc57600080fd5b84356001600160401b0380821115615ef357600080fd5b615eff88838901615e7b565b90965094506020870135915080821115615f1857600080fd5b50615f2587828801615e7b565b95989497509550505050565b60008060208385031215615f4457600080fd5b82356001600160401b03811115615f5a57600080fd5b615f6685828601615e7b565b90969095509350505050565b60008060408385031215615f8557600080fd5b615f8e83615c9b565b946020939093013593505050565b600082601f830112615fad57600080fd5b81356020615fbd615d6d83615d29565b82815260059290921b84018101918181019086841115615fdc57600080fd5b8286015b84811015615dac57615ff181615c9b565b8352918301918301615fe0565b60006020828403121561601057600080fd5b81356001600160401b0381111561602657600080fd5b61207b84828501615f9c565b60006020828403121561604457600080fd5b61125882615c9b565b6000806040838503121561606057600080fd5b50508035926020909101359150565b6000806040838503121561608257600080fd5b61608b83615c9b565b91506020808401356001600160401b03808211156160a857600080fd5b818601915086601f8301126160bc57600080fd5b8135818111156160ce576160ce615ce3565b6160e0601f8201601f19168501615cf9565b915080825287848285010111156160f657600080fd5b80848401858401376000848284010152508093505050509250929050565b60008060008060006060868803121561612c57600080fd5b85356001600160401b038082111561614357600080fd5b61614f89838a01615e7b565b9097509550602088013591508082111561616857600080fd5b5061617588828901615e7b565b96999598509660400135949350505050565b60008060006040848603121561619c57600080fd5b6161a584615c9b565b925060208401356001600160401b038111156161c057600080fd5b6161cc86828701615e7b565b9497909650939450505050565b600081518084526020808501945080840160005b83811015616209578151875295820195908201906001016161ed565b509495945050505050565b60408152600061622760408301856161d9565b8281036020840152613d9081856161d9565b634e487b7160e01b600052602160045260246000fd5b6001600160a01b038c811682528b166020820152604081018a9052606081018990526080810188905260a0810187905260c0810186905260e08101859052610100810184905261012081018390526101608101600383106162c057634e487b7160e01b600052602160045260246000fd5b826101408301529c9b505050505050505050505050565b60008060008060008060008060006101208a8c0312156162f657600080fd5b6162ff8a615c9b565b985061630d60208b01615c9b565b975060408a01356001600160401b038082111561632957600080fd5b6163358d838e01615d4c565b985060608c013591508082111561634b57600080fd5b506163588c828d01615d4c565b96505060808a0135945060a08a0135935061637560c08b01615c9b565b925060e08a013591506101008a013590509295985092959850929598565b60005b838110156163ae578181015183820152602001616396565b838111156119f75750506000910152565b600081518084526163d7816020860160208601616393565b601f01601f19169290920160200192915050565b60208152600061125860208301846163bf565b8015158114611e8257600080fd5b6000806000806080858703121561642257600080fd5b84356001600160401b038082111561643957600080fd5b61644588838901615f9c565b9550602087013591508082111561645b57600080fd5b5061646887828801615d4c565b935050604085013591506060850135616480816163fe565b939692955090935050565b634e487b7160e01b600052603260045260246000fd5b634e487b7160e01b600052601160045260246000fd5b600082198211156164ca576164ca6164a1565b500190565b6000828210156164e1576164e16164a1565b500390565b6000816000190483118215151615616500576165006164a1565b500290565b60008261652257634e487b7160e01b600052601260045260246000fd5b500490565b60006020828403121561653957600080fd5b8151611258816163fe565b60208082526012908201527110d3d395149050d517d254d7d4105554d15160721b604082015260600190565b6000600019821415616584576165846164a1565b5060010190565b6020808252602c908201527f46756e6374696f6e206d7573742062652063616c6c6564207468726f7567682060408201526b19195b1959d85d1958d85b1b60a21b606082015260800190565b6020808252602c908201527f46756e6374696f6e206d7573742062652063616c6c6564207468726f7567682060408201526b6163746976652070726f787960a01b606082015260800190565b6001600160a01b039384168152919092166020820152604081019190915260600190565b60006020828403121561665957600080fd5b5051919050565b60008251616672818460208701616393565b9190910192915050565b7f416363657373436f6e74726f6c3a206163636f756e74200000000000000000008152600083516166b4816017850160208801616393565b7001034b99036b4b9b9b4b733903937b6329607d1b60179184019182015283516166e5816028840160208801616393565b01602801949350505050565b600081616700576167006164a1565b506000190190565b6020808252602b908201527f496e697469616c697a61626c653a20636f6e7472616374206973206e6f74206960408201526a6e697469616c697a696e6760a81b60608201526080019056fe930802d0eadfb856cb83e01d1c4daa3c89e9c6d9f74cfbe13124decf2b33128a416464726573733a206c6f772d6c6576656c2064656c65676174652063616c6c206661696c6564f7db13299c8a9e501861f04c20f69a2444829a36a363cfad4b58864709c755603a2f235c9daaf33349d300aadff2f15078a89df81bcfdd45ba11c8f816bddc6fa26469706673582212206128f4b1100f1da4e8ccfb3a2ad153e4caa17208822f488bf7baa503f33bd7fa64736f6c634300080a0033",
    "linkReferences": {}
  },
  "methodIdentifiers": {
    "AIRDROP_ROLE()": "1e0fbfa2",
    "CLAIM_ROLE()": "86c1b4eb",
    "DEFAULT_ADMIN_ROLE()": "a217fddf",
    "FOUR_YEARS()": "fe904b7a",
    "ONE_MONTH()": "20988cef",
    "PAUSE_ROLE()": "389ed267",
    "STREAM_MANAGER_ROLE()": "3ea005c8",
    "adminDelegatecall(address,bytes)": "b8e9744c",
    "adminPause(uint256)": "2692c59f",
    "adminSstore(uint256,uint256)": "be831a2e",
    "adminSstoreWithMask(uint256,uint256,uint256)": "6c4624c3",
    "auroraToken()": "5578fdb2",
    "batchClaimOnBehalfOfAnotherUser(address,uint256[])": "6458edd3",
    "batchClaimOnBehalfOfOtherUsers(address[],uint256[])": "26cdddb9",
    "batchMoveRewardsToPending(uint256[])": "687dd46c",
    "batchStakeOnBehalfOfOtherUsers(address[],uint256[],uint256,bool)": "dfad0352",
    "batchWithdraw(uint256[])": "72e55399",
    "before(uint256,uint256)": "6826747c",
    "calculateWeightedShares(uint256,uint256)": "b77b183e",
    "callBeforeTwice()": "15cf64fd",
    "cancelStreamProposal(uint256)": "90403322",
    "claimAllOnBehalfOfAnotherUser(address)": "d5050aed",
    "claimAllOnBehalfOfOtherUsers(address[])": "27571969",
    "claimOnBehalfOfAnotherUser(address,uint256)": "3e9a44cb",
    "createStream(uint256,uint256)": "8d40bd03",
    "getAmountOfShares(uint256,address)": "0efd8310",
    "getLatestRewardPerShare(uint256)": "12dd67fe",
    "getPending(uint256,address)": "7f37df3b",
    "getReleaseTime(uint256,address)": "c8927723",
    "getRewardPerShare(uint256)": "993b21c1",
    "getRewardPerShareForUser(uint256,address)": "1dd00452",
    "getRewardsAmount(uint256,uint256)": "36630cc7",
    "getRoleAdmin(bytes32)": "248a9ca3",
    "getStream(uint256)": "894e9a0d",
    "getStreamClaimableAmount(uint256,address)": "1c61e617",
    "getStreamOwnerClaimableAmount(uint256)": "396a6c14",
    "getStreamSchedule(uint256)": "70bc770c",
    "getStreamsCount()": "e335e79a",
    "getTotalAmountOfStakedAurora()": "cd5ba590",
    "getTreasuryBalance(address)": "57baeac8",
    "getUserShares(address)": "ba0cb22b",
    "getUserTotalDeposit(address)": "a4c828dc",
    "grantRole(bytes32,address)": "2f2ff15d",
    "hasRole(bytes32,address)": "91d14854",
    "initialize(address,address,uint256[],uint256[],uint256,uint256,address,uint256,uint256)": "a81c6a15",
    "maxWeight()": "a8b0bb83",
    "minWeight()": "0c2ee55e",
    "moveAllRewardsToPending()": "8bc34e77",
    "moveRewardsToPending(uint256)": "ee13ad8e",
    "paused()": "5c975abb",
    "proposeStream(address,address,uint256,uint256,uint256,uint256[],uint256[],uint256)": "1194ebeb",
    "releaseAuroraRewardsToStreamOwner(uint256)": "9c52a920",
    "removeStream(uint256,address)": "3ba31abf",
    "renounceRole(bytes32,address)": "36568abe",
    "revokeRole(bytes32,address)": "d547741f",
    "rewardsSchedule(uint256,uint256,uint256)": "03687788",
    "stake(uint256)": "a694fc3a",
    "stakeOnBehalfOfAnotherUser(address,uint256)": "2ca783f3",
    "stakeOnBehalfOfOtherUsers(address[],uint256[],uint256)": "53a4cca0",
    "startEndScheduleIndex(uint256,uint256,uint256)": "4981912e",
    "supportsInterface(bytes4)": "01ffc9a7",
    "tempMoveRewardsToPending(address,uint256)": "45defb32",
    "totalAmountOfStakedAurora()": "3895a275",
    "totalAuroraShares()": "bb07ec1b",
    "totalStreamShares()": "6db8e53d",
    "touchedAt()": "1fd8c5f4",
    "treasury()": "61d027b3",
    "unstake(uint256)": "2e17de78",
    "unstakeAll()": "35322f37",
    "unstakeAllOnBehalfOfOthers(address[])": "2d0b615c",
    "updateTreasury(address)": "7f51bb1f",
    "updateUserCalculation()": "0a44b773",
    "upgradeTo(address)": "3659cfe6",
    "upgradeToAndCall(address,bytes)": "4f1ef286",
    "users(address)": "a87430ba",
    "withdraw(uint256)": "2e1a7d4d",
    "withdrawAll()": "853828b6"
  },
  "id": 7
}