{
  "address": "0x5b37E22BE5feaea7148C7608831EC1174115919a",
  "abi": [
    {
      "anonymous": false,
      "inputs": [
        {
          "indexed": false,
          "internalType": "address",
          "name": "oldAdmin",
          "type": "address"
        },
        {
          "indexed": false,
          "internalType": "address",
          "name": "newAdmin",
          "type": "address"
        }
      ],
      "name": "OwnershipTransferred",
      "type": "event"
    },
    {
      "anonymous": false,
      "inputs": [
        {
          "indexed": true,
          "internalType": "uint256",
          "name": "streamId",
          "type": "uint256"
        },
        {
          "indexed": true,
          "internalType": "address",
          "name": "user",
          "type": "address"
        },
        {
          "indexed": false,
          "internalType": "uint256",
          "name": "amount",
          "type": "uint256"
        },
        {
          "indexed": false,
          "internalType": "uint256",
          "name": "timestamp",
          "type": "uint256"
        }
      ],
      "name": "Pending",
      "type": "event"
    },
    {
      "anonymous": false,
      "inputs": [
        {
          "indexed": true,
          "internalType": "uint256",
          "name": "streamId",
          "type": "uint256"
        },
        {
          "indexed": true,
          "internalType": "address",
          "name": "user",
          "type": "address"
        },
        {
          "indexed": false,
          "internalType": "uint256",
          "name": "amount",
          "type": "uint256"
        },
        {
          "indexed": false,
          "internalType": "uint256",
          "name": "timestamp",
          "type": "uint256"
        }
      ],
      "name": "Released",
      "type": "event"
    },
    {
      "anonymous": false,
      "inputs": [
        {
          "indexed": true,
          "internalType": "bytes32",
          "name": "role",
          "type": "bytes32"
        },
        {
          "indexed": true,
          "internalType": "bytes32",
          "name": "previousAdminRole",
          "type": "bytes32"
        },
        {
          "indexed": true,
          "internalType": "bytes32",
          "name": "newAdminRole",
          "type": "bytes32"
        }
      ],
      "name": "RoleAdminChanged",
      "type": "event"
    },
    {
      "anonymous": false,
      "inputs": [
        {
          "indexed": true,
          "internalType": "bytes32",
          "name": "role",
          "type": "bytes32"
        },
        {
          "indexed": true,
          "internalType": "address",
          "name": "account",
          "type": "address"
        },
        {
          "indexed": true,
          "internalType": "address",
          "name": "sender",
          "type": "address"
        }
      ],
      "name": "RoleGranted",
      "type": "event"
    },
    {
      "anonymous": false,
      "inputs": [
        {
          "indexed": true,
          "internalType": "bytes32",
          "name": "role",
          "type": "bytes32"
        },
        {
          "indexed": true,
          "internalType": "address",
          "name": "account",
          "type": "address"
        },
        {
          "indexed": true,
          "internalType": "address",
          "name": "sender",
          "type": "address"
        }
      ],
      "name": "RoleRevoked",
      "type": "event"
    },
    {
      "anonymous": false,
      "inputs": [
        {
          "indexed": true,
          "internalType": "address",
          "name": "user",
          "type": "address"
        },
        {
          "indexed": false,
          "internalType": "uint256",
          "name": "amount",
          "type": "uint256"
        },
        {
          "indexed": false,
          "internalType": "uint256",
          "name": "shares",
          "type": "uint256"
        },
        {
          "indexed": false,
          "internalType": "uint256",
          "name": "timestamp",
          "type": "uint256"
        }
      ],
      "name": "Staked",
      "type": "event"
    },
    {
      "anonymous": false,
      "inputs": [
        {
          "indexed": true,
          "internalType": "uint256",
          "name": "streamId",
          "type": "uint256"
        },
        {
          "indexed": true,
          "internalType": "address",
          "name": "owner",
          "type": "address"
        },
        {
          "indexed": false,
          "internalType": "uint256",
          "name": "timestamp",
          "type": "uint256"
        }
      ],
      "name": "StreamCreated",
      "type": "event"
    },
    {
      "anonymous": false,
      "inputs": [
        {
          "indexed": true,
          "internalType": "uint256",
          "name": "streamId",
          "type": "uint256"
        },
        {
          "indexed": true,
          "internalType": "address",
          "name": "owner",
          "type": "address"
        },
        {
          "indexed": false,
          "internalType": "uint256",
          "name": "timestamp",
          "type": "uint256"
        }
      ],
      "name": "StreamProposalCancelled",
      "type": "event"
    },
    {
      "anonymous": false,
      "inputs": [
        {
          "indexed": true,
          "internalType": "uint256",
          "name": "streamId",
          "type": "uint256"
        },
        {
          "indexed": true,
          "internalType": "address",
          "name": "owner",
          "type": "address"
        },
        {
          "indexed": false,
          "internalType": "uint256",
          "name": "timestamp",
          "type": "uint256"
        }
      ],
      "name": "StreamProposed",
      "type": "event"
    },
    {
      "anonymous": false,
      "inputs": [
        {
          "indexed": true,
          "internalType": "uint256",
          "name": "streamId",
          "type": "uint256"
        },
        {
          "indexed": true,
          "internalType": "address",
          "name": "owner",
          "type": "address"
        },
        {
          "indexed": false,
          "internalType": "uint256",
          "name": "timestamp",
          "type": "uint256"
        }
      ],
      "name": "StreamRemoved",
      "type": "event"
    },
    {
      "anonymous": false,
      "inputs": [
        {
          "indexed": true,
          "internalType": "address",
          "name": "user",
          "type": "address"
        },
        {
          "indexed": false,
          "internalType": "uint256",
          "name": "amount",
          "type": "uint256"
        },
        {
          "indexed": false,
          "internalType": "uint256",
          "name": "timestamp",
          "type": "uint256"
        }
      ],
      "name": "Unstaked",
      "type": "event"
    },
    {
      "inputs": [],
      "name": "AIRDROP_ROLE",
      "outputs": [
        {
          "internalType": "bytes32",
          "name": "",
          "type": "bytes32"
        }
      ],
      "stateMutability": "view",
      "type": "function"
    },
    {
      "inputs": [],
      "name": "CLAIM_ROLE",
      "outputs": [
        {
          "internalType": "bytes32",
          "name": "",
          "type": "bytes32"
        }
      ],
      "stateMutability": "view",
      "type": "function"
    },
    {
      "inputs": [],
      "name": "DEFAULT_ADMIN_ROLE",
      "outputs": [
        {
          "internalType": "bytes32",
          "name": "",
          "type": "bytes32"
        }
      ],
      "stateMutability": "view",
      "type": "function"
    },
    {
      "inputs": [],
      "name": "PAUSE_ROLE",
      "outputs": [
        {
          "internalType": "bytes32",
          "name": "",
          "type": "bytes32"
        }
      ],
      "stateMutability": "view",
      "type": "function"
    },
    {
      "inputs": [],
      "name": "STREAM_MANAGER_ROLE",
      "outputs": [
        {
          "internalType": "bytes32",
          "name": "",
          "type": "bytes32"
        }
      ],
      "stateMutability": "view",
      "type": "function"
    },
    {
      "inputs": [
        {
          "internalType": "uint256",
          "name": "_flags",
          "type": "uint256"
        }
      ],
      "name": "__AdminControlled_init",
      "outputs": [],
      "stateMutability": "nonpayable",
      "type": "function"
    },
    {
      "inputs": [
        {
          "internalType": "address",
          "name": "target",
          "type": "address"
        },
        {
          "internalType": "bytes",
          "name": "data",
          "type": "bytes"
        }
      ],
      "name": "adminDelegatecall",
      "outputs": [
        {
          "internalType": "bytes",
          "name": "",
          "type": "bytes"
        }
      ],
      "stateMutability": "payable",
      "type": "function"
    },
    {
      "inputs": [
        {
          "internalType": "uint256",
          "name": "flags",
          "type": "uint256"
        }
      ],
      "name": "adminPause",
      "outputs": [],
      "stateMutability": "nonpayable",
      "type": "function"
    },
    {
      "inputs": [],
      "name": "adminReceiveEth",
      "outputs": [],
      "stateMutability": "payable",
      "type": "function"
    },
    {
      "inputs": [
        {
          "internalType": "address payable",
          "name": "destination",
          "type": "address"
        },
        {
          "internalType": "uint256",
          "name": "amount",
          "type": "uint256"
        }
      ],
      "name": "adminSendEth",
      "outputs": [],
      "stateMutability": "nonpayable",
      "type": "function"
    },
    {
      "inputs": [
        {
          "internalType": "uint256",
          "name": "key",
          "type": "uint256"
        },
        {
          "internalType": "uint256",
          "name": "value",
          "type": "uint256"
        }
      ],
      "name": "adminSstore",
      "outputs": [],
      "stateMutability": "nonpayable",
      "type": "function"
    },
    {
      "inputs": [
        {
          "internalType": "uint256",
          "name": "key",
          "type": "uint256"
        },
        {
          "internalType": "uint256",
          "name": "value",
          "type": "uint256"
        },
        {
          "internalType": "uint256",
          "name": "mask",
          "type": "uint256"
        }
      ],
      "name": "adminSstoreWithMask",
      "outputs": [],
      "stateMutability": "nonpayable",
      "type": "function"
    },
    {
      "inputs": [],
      "name": "auroraToken",
      "outputs": [
        {
          "internalType": "address",
          "name": "",
          "type": "address"
        }
      ],
      "stateMutability": "view",
      "type": "function"
    },
    {
      "inputs": [
        {
          "internalType": "address",
          "name": "account",
          "type": "address"
        },
        {
          "internalType": "uint256[]",
          "name": "streamIds",
          "type": "uint256[]"
        }
      ],
      "name": "batchClaimOnBehalfOfAnotherUser",
      "outputs": [],
      "stateMutability": "nonpayable",
      "type": "function"
    },
    {
      "inputs": [
        {
          "internalType": "address[]",
          "name": "accounts",
          "type": "address[]"
        },
        {
          "internalType": "uint256[]",
          "name": "streamIds",
          "type": "uint256[]"
        }
      ],
      "name": "batchClaimOnBehalfOfOtherUsers",
      "outputs": [],
      "stateMutability": "nonpayable",
      "type": "function"
    },
    {
      "inputs": [
        {
          "internalType": "uint256[]",
          "name": "streamIds",
          "type": "uint256[]"
        }
      ],
      "name": "batchMoveRewardsToPending",
      "outputs": [],
      "stateMutability": "nonpayable",
      "type": "function"
    },
    {
      "inputs": [
        {
          "internalType": "uint256[]",
          "name": "streamIds",
          "type": "uint256[]"
        }
      ],
      "name": "batchWithdraw",
      "outputs": [],
      "stateMutability": "nonpayable",
      "type": "function"
    },
    {
      "inputs": [
        {
          "internalType": "uint256",
          "name": "streamId",
          "type": "uint256"
        }
      ],
      "name": "cancelStreamProposal",
      "outputs": [],
      "stateMutability": "nonpayable",
      "type": "function"
    },
    {
      "inputs": [
        {
          "internalType": "address",
          "name": "account",
          "type": "address"
        }
      ],
      "name": "claimAllOnBehalfOfAnotherUser",
      "outputs": [],
      "stateMutability": "nonpayable",
      "type": "function"
    },
    {
      "inputs": [
        {
          "internalType": "address[]",
          "name": "accounts",
          "type": "address[]"
        }
      ],
      "name": "claimAllOnBehalfOfOtherUsers",
      "outputs": [],
      "stateMutability": "nonpayable",
      "type": "function"
    },
    {
      "inputs": [
        {
          "internalType": "address",
          "name": "account",
          "type": "address"
        },
        {
          "internalType": "uint256",
          "name": "streamId",
          "type": "uint256"
        }
      ],
      "name": "claimOnBehalfOfAnotherUser",
      "outputs": [],
      "stateMutability": "nonpayable",
      "type": "function"
    },
    {
      "inputs": [
        {
          "internalType": "uint256",
          "name": "streamId",
          "type": "uint256"
        },
        {
          "internalType": "uint256",
          "name": "rewardTokenAmount",
          "type": "uint256"
        }
      ],
      "name": "createStream",
      "outputs": [],
      "stateMutability": "nonpayable",
      "type": "function"
    },
    {
      "inputs": [
        {
          "internalType": "uint256",
          "name": "streamId",
          "type": "uint256"
        },
        {
          "internalType": "address",
          "name": "account",
          "type": "address"
        }
      ],
      "name": "getAmountOfShares",
      "outputs": [
        {
          "internalType": "uint256",
          "name": "",
          "type": "uint256"
        }
      ],
      "stateMutability": "view",
      "type": "function"
    },
    {
      "inputs": [
        {
          "internalType": "uint256",
          "name": "streamId",
          "type": "uint256"
        }
      ],
      "name": "getLatestRewardPerShare",
      "outputs": [
        {
          "internalType": "uint256",
          "name": "",
          "type": "uint256"
        }
      ],
      "stateMutability": "view",
      "type": "function"
    },
    {
      "inputs": [
        {
          "internalType": "uint256",
          "name": "streamId",
          "type": "uint256"
        },
        {
          "internalType": "address",
          "name": "account",
          "type": "address"
        }
      ],
      "name": "getPending",
      "outputs": [
        {
          "internalType": "uint256",
          "name": "",
          "type": "uint256"
        }
      ],
      "stateMutability": "view",
      "type": "function"
    },
    {
      "inputs": [
        {
          "internalType": "uint256",
          "name": "streamId",
          "type": "uint256"
        },
        {
          "internalType": "address",
          "name": "account",
          "type": "address"
        }
      ],
      "name": "getReleaseTime",
      "outputs": [
        {
          "internalType": "uint256",
          "name": "",
          "type": "uint256"
        }
      ],
      "stateMutability": "view",
      "type": "function"
    },
    {
      "inputs": [
        {
          "internalType": "uint256",
          "name": "streamId",
          "type": "uint256"
        }
      ],
      "name": "getRewardPerShare",
      "outputs": [
        {
          "internalType": "uint256",
          "name": "",
          "type": "uint256"
        }
      ],
      "stateMutability": "view",
      "type": "function"
    },
    {
      "inputs": [
        {
          "internalType": "uint256",
          "name": "streamId",
          "type": "uint256"
        },
        {
          "internalType": "address",
          "name": "account",
          "type": "address"
        }
      ],
      "name": "getRewardPerShareForUser",
      "outputs": [
        {
          "internalType": "uint256",
          "name": "",
          "type": "uint256"
        }
      ],
      "stateMutability": "view",
      "type": "function"
    },
    {
      "inputs": [
        {
          "internalType": "uint256",
          "name": "streamId",
          "type": "uint256"
        },
        {
          "internalType": "uint256",
          "name": "lastUpdate",
          "type": "uint256"
        }
      ],
      "name": "getRewardsAmount",
      "outputs": [
        {
          "internalType": "uint256",
          "name": "",
          "type": "uint256"
        }
      ],
      "stateMutability": "view",
      "type": "function"
    },
    {
      "inputs": [
        {
          "internalType": "bytes32",
          "name": "role",
          "type": "bytes32"
        }
      ],
      "name": "getRoleAdmin",
      "outputs": [
        {
          "internalType": "bytes32",
          "name": "",
          "type": "bytes32"
        }
      ],
      "stateMutability": "view",
      "type": "function"
    },
    {
      "inputs": [
        {
          "internalType": "uint256",
          "name": "streamId",
          "type": "uint256"
        }
      ],
      "name": "getStream",
      "outputs": [
        {
          "internalType": "address",
          "name": "streamOwner",
          "type": "address"
        },
        {
          "internalType": "address",
          "name": "rewardToken",
          "type": "address"
        },
        {
          "internalType": "uint256",
          "name": "auroraDepositAmount",
          "type": "uint256"
        },
        {
          "internalType": "uint256",
          "name": "auroraClaimedAmount",
          "type": "uint256"
        },
        {
          "internalType": "uint256",
          "name": "rewardDepositAmount",
          "type": "uint256"
        },
        {
          "internalType": "uint256",
          "name": "rewardClaimedAmount",
          "type": "uint256"
        },
        {
          "internalType": "uint256",
          "name": "maxDepositAmount",
          "type": "uint256"
        },
        {
          "internalType": "uint256",
          "name": "lastTimeOwnerClaimed",
          "type": "uint256"
        },
        {
          "internalType": "uint256",
          "name": "rps",
          "type": "uint256"
        },
        {
          "internalType": "uint256",
          "name": "tau",
          "type": "uint256"
        },
        {
          "internalType": "bool",
          "name": "isProposed",
          "type": "bool"
        },
        {
          "internalType": "bool",
          "name": "isActive",
          "type": "bool"
        }
      ],
      "stateMutability": "view",
      "type": "function"
    },
    {
      "inputs": [
        {
          "internalType": "uint256",
          "name": "streamId",
          "type": "uint256"
        },
        {
          "internalType": "address",
          "name": "account",
          "type": "address"
        }
      ],
      "name": "getStreamClaimableAmount",
      "outputs": [
        {
          "internalType": "uint256",
          "name": "",
          "type": "uint256"
        }
      ],
      "stateMutability": "view",
      "type": "function"
    },
    {
      "inputs": [
        {
          "internalType": "uint256",
          "name": "streamId",
          "type": "uint256"
        }
      ],
      "name": "getStreamOwnerClaimableAmount",
      "outputs": [
        {
          "internalType": "uint256",
          "name": "",
          "type": "uint256"
        }
      ],
      "stateMutability": "view",
      "type": "function"
    },
    {
      "inputs": [
        {
          "internalType": "uint256",
          "name": "streamId",
          "type": "uint256"
        }
      ],
      "name": "getStreamSchedule",
      "outputs": [
        {
          "internalType": "uint256[]",
          "name": "scheduleTimes",
          "type": "uint256[]"
        },
        {
          "internalType": "uint256[]",
          "name": "scheduleRewards",
          "type": "uint256[]"
        }
      ],
      "stateMutability": "view",
      "type": "function"
    },
    {
      "inputs": [],
      "name": "getStreamsCount",
      "outputs": [
        {
          "internalType": "uint256",
          "name": "",
          "type": "uint256"
        }
      ],
      "stateMutability": "view",
      "type": "function"
    },
    {
      "inputs": [],
      "name": "getTotalAmountOfStakedAurora",
      "outputs": [
        {
          "internalType": "uint256",
          "name": "",
          "type": "uint256"
        }
      ],
      "stateMutability": "view",
      "type": "function"
    },
    {
      "inputs": [
        {
          "internalType": "address",
          "name": "token",
          "type": "address"
        }
      ],
      "name": "getTreasuryBalance",
      "outputs": [
        {
          "internalType": "uint256",
          "name": "",
          "type": "uint256"
        }
      ],
      "stateMutability": "view",
      "type": "function"
    },
    {
      "inputs": [
        {
          "internalType": "address",
          "name": "account",
          "type": "address"
        }
      ],
      "name": "getUserShares",
      "outputs": [
        {
          "internalType": "uint256",
          "name": "",
          "type": "uint256"
        }
      ],
      "stateMutability": "view",
      "type": "function"
    },
    {
      "inputs": [
        {
          "internalType": "address",
          "name": "account",
          "type": "address"
        }
      ],
      "name": "getUserTotalDeposit",
      "outputs": [
        {
          "internalType": "uint256",
          "name": "",
          "type": "uint256"
        }
      ],
      "stateMutability": "view",
      "type": "function"
    },
    {
      "inputs": [
        {
          "internalType": "bytes32",
          "name": "role",
          "type": "bytes32"
        },
        {
          "internalType": "address",
          "name": "account",
          "type": "address"
        }
      ],
      "name": "grantRole",
      "outputs": [],
      "stateMutability": "nonpayable",
      "type": "function"
    },
    {
      "inputs": [
        {
          "internalType": "bytes32",
          "name": "role",
          "type": "bytes32"
        },
        {
          "internalType": "address",
          "name": "account",
          "type": "address"
        }
      ],
      "name": "hasRole",
      "outputs": [
        {
          "internalType": "bool",
          "name": "",
          "type": "bool"
        }
      ],
      "stateMutability": "view",
      "type": "function"
    },
    {
      "inputs": [
        {
          "internalType": "address",
          "name": "aurora",
          "type": "address"
        },
        {
          "internalType": "address",
          "name": "streamOwner",
          "type": "address"
        },
        {
          "internalType": "uint256[]",
          "name": "scheduleTimes",
          "type": "uint256[]"
        },
        {
          "internalType": "uint256[]",
          "name": "scheduleRewards",
          "type": "uint256[]"
        },
        {
          "internalType": "uint256",
          "name": "tauAuroraStream",
          "type": "uint256"
        },
        {
          "internalType": "uint256",
          "name": "_flags",
          "type": "uint256"
        },
        {
          "internalType": "address",
          "name": "_treasury",
          "type": "address"
        },
        {
          "internalType": "uint256",
          "name": "_maxWeight",
          "type": "uint256"
        },
        {
          "internalType": "uint256",
          "name": "_minWeight",
          "type": "uint256"
        }
      ],
      "name": "initialize",
      "outputs": [],
      "stateMutability": "nonpayable",
      "type": "function"
    },
    {
      "inputs": [],
      "name": "moveAllRewardsToPending",
      "outputs": [],
      "stateMutability": "nonpayable",
      "type": "function"
    },
    {
      "inputs": [
        {
          "internalType": "uint256",
          "name": "streamId",
          "type": "uint256"
        }
      ],
      "name": "moveRewardsToPending",
      "outputs": [],
      "stateMutability": "nonpayable",
      "type": "function"
    },
    {
      "inputs": [],
      "name": "paused",
      "outputs": [
        {
          "internalType": "uint256",
          "name": "",
          "type": "uint256"
        }
      ],
      "stateMutability": "view",
      "type": "function"
    },
    {
      "inputs": [
        {
          "internalType": "address",
          "name": "streamOwner",
          "type": "address"
        },
        {
          "internalType": "address",
          "name": "rewardToken",
          "type": "address"
        },
        {
          "internalType": "uint256",
          "name": "auroraDepositAmount",
          "type": "uint256"
        },
        {
          "internalType": "uint256",
          "name": "maxDepositAmount",
          "type": "uint256"
        },
        {
          "internalType": "uint256[]",
          "name": "scheduleTimes",
          "type": "uint256[]"
        },
        {
          "internalType": "uint256[]",
          "name": "scheduleRewards",
          "type": "uint256[]"
        },
        {
          "internalType": "uint256",
          "name": "tau",
          "type": "uint256"
        }
      ],
      "name": "proposeStream",
      "outputs": [],
      "stateMutability": "nonpayable",
      "type": "function"
    },
    {
      "inputs": [
        {
          "internalType": "uint256",
          "name": "streamId",
          "type": "uint256"
        }
      ],
      "name": "releaseAuroraRewardsToStreamOwner",
      "outputs": [],
      "stateMutability": "nonpayable",
      "type": "function"
    },
    {
      "inputs": [
        {
          "internalType": "uint256",
          "name": "streamId",
          "type": "uint256"
        },
        {
          "internalType": "address",
          "name": "streamFundReceiver",
          "type": "address"
        }
      ],
      "name": "removeStream",
      "outputs": [],
      "stateMutability": "nonpayable",
      "type": "function"
    },
    {
      "inputs": [
        {
          "internalType": "bytes32",
          "name": "role",
          "type": "bytes32"
        },
        {
          "internalType": "address",
          "name": "account",
          "type": "address"
        }
      ],
      "name": "renounceRole",
      "outputs": [],
      "stateMutability": "nonpayable",
      "type": "function"
    },
    {
      "inputs": [
        {
          "internalType": "bytes32",
          "name": "role",
          "type": "bytes32"
        },
        {
          "internalType": "address",
          "name": "account",
          "type": "address"
        }
      ],
      "name": "revokeRole",
      "outputs": [],
      "stateMutability": "nonpayable",
      "type": "function"
    },
    {
      "inputs": [
        {
          "internalType": "uint256",
          "name": "streamId",
          "type": "uint256"
        },
        {
          "internalType": "uint256",
          "name": "start",
          "type": "uint256"
        },
        {
          "internalType": "uint256",
          "name": "end",
          "type": "uint256"
        }
      ],
      "name": "rewardsSchedule",
      "outputs": [
        {
          "internalType": "uint256",
          "name": "",
          "type": "uint256"
        }
      ],
      "stateMutability": "view",
      "type": "function"
    },
    {
      "inputs": [
        {
          "internalType": "uint256",
          "name": "amount",
          "type": "uint256"
        }
      ],
      "name": "stake",
      "outputs": [],
      "stateMutability": "nonpayable",
      "type": "function"
    },
    {
      "inputs": [
        {
          "internalType": "address",
          "name": "account",
          "type": "address"
        },
        {
          "internalType": "uint256",
          "name": "amount",
          "type": "uint256"
        }
      ],
      "name": "stakeOnBehalfOfAnotherUser",
      "outputs": [],
      "stateMutability": "nonpayable",
      "type": "function"
    },
    {
      "inputs": [
        {
          "internalType": "address[]",
          "name": "accounts",
          "type": "address[]"
        },
        {
          "internalType": "uint256[]",
          "name": "amounts",
          "type": "uint256[]"
        },
        {
          "internalType": "uint256",
          "name": "batchAmount",
          "type": "uint256"
        }
      ],
      "name": "stakeOnBehalfOfOtherUsers",
      "outputs": [],
      "stateMutability": "nonpayable",
      "type": "function"
    },
    {
      "inputs": [
        {
          "internalType": "uint256",
          "name": "streamId",
          "type": "uint256"
        },
        {
          "internalType": "uint256",
          "name": "start",
          "type": "uint256"
        },
        {
          "internalType": "uint256",
          "name": "end",
          "type": "uint256"
        }
      ],
      "name": "startEndScheduleIndex",
      "outputs": [
        {
          "internalType": "uint256",
          "name": "startIndex",
          "type": "uint256"
        },
        {
          "internalType": "uint256",
          "name": "endIndex",
          "type": "uint256"
        }
      ],
      "stateMutability": "view",
      "type": "function"
    },
    {
      "inputs": [
        {
          "internalType": "bytes4",
          "name": "interfaceId",
          "type": "bytes4"
        }
      ],
      "name": "supportsInterface",
      "outputs": [
        {
          "internalType": "bool",
          "name": "",
          "type": "bool"
        }
      ],
      "stateMutability": "view",
      "type": "function"
    },
    {
      "inputs": [],
      "name": "totalAmountOfStakedAurora",
      "outputs": [
        {
          "internalType": "uint256",
          "name": "",
          "type": "uint256"
        }
      ],
      "stateMutability": "view",
      "type": "function"
    },
    {
      "inputs": [],
      "name": "totalAuroraShares",
      "outputs": [
        {
          "internalType": "uint256",
          "name": "",
          "type": "uint256"
        }
      ],
      "stateMutability": "view",
      "type": "function"
    },
    {
      "inputs": [],
      "name": "totalStreamShares",
      "outputs": [
        {
          "internalType": "uint256",
          "name": "",
          "type": "uint256"
        }
      ],
      "stateMutability": "view",
      "type": "function"
    },
    {
      "inputs": [],
      "name": "touchedAt",
      "outputs": [
        {
          "internalType": "uint256",
          "name": "",
          "type": "uint256"
        }
      ],
      "stateMutability": "view",
      "type": "function"
    },
    {
      "inputs": [],
      "name": "treasury",
      "outputs": [
        {
          "internalType": "address",
          "name": "",
          "type": "address"
        }
      ],
      "stateMutability": "view",
      "type": "function"
    },
    {
      "inputs": [
        {
          "internalType": "uint256",
          "name": "amount",
          "type": "uint256"
        }
      ],
      "name": "unstake",
      "outputs": [],
      "stateMutability": "nonpayable",
      "type": "function"
    },
    {
      "inputs": [],
      "name": "unstakeAll",
      "outputs": [],
      "stateMutability": "nonpayable",
      "type": "function"
    },
    {
      "inputs": [
        {
          "internalType": "address",
          "name": "_treasury",
          "type": "address"
        }
      ],
      "name": "updateTreasury",
      "outputs": [],
      "stateMutability": "nonpayable",
      "type": "function"
    },
    {
      "inputs": [
        {
          "internalType": "address",
          "name": "",
          "type": "address"
        }
      ],
      "name": "users",
      "outputs": [
        {
          "internalType": "uint256",
          "name": "deposit",
          "type": "uint256"
        },
        {
          "internalType": "uint256",
          "name": "auroraShares",
          "type": "uint256"
        },
        {
          "internalType": "uint256",
          "name": "streamShares",
          "type": "uint256"
        }
      ],
      "stateMutability": "view",
      "type": "function"
    },
    {
      "inputs": [
        {
          "internalType": "uint256",
          "name": "streamId",
          "type": "uint256"
        }
      ],
      "name": "withdraw",
      "outputs": [],
      "stateMutability": "nonpayable",
      "type": "function"
    },
    {
      "inputs": [],
      "name": "withdrawAll",
      "outputs": [],
      "stateMutability": "nonpayable",
      "type": "function"
    }
  ],
  "transactionHash": "0x52e8bf8b649d4e09ba46e14b4fab0fe4725a001d61e7519156cd2fe2464adf86",
  "args": [],
  "solcInputHash": "b8cf6668a2a609865fb829f93d89fbf4",
  "bytecode": "0x60a06040523060805234801561001457600080fd5b50608051615250610030600039600061409201526152506000f3fe6080604052600436106102f45760003560e01c806301ffc9a7146102f9578063036877881461032e5780630efd83101461035c57806312dd67fe1461037c5780631c61e6171461039c5780631dd00452146103bc5780631e0fbfa2146104005780631fd8c5f414610422578063248a9ca3146104385780632692c59f1461045857806326cdddb91461047a578063275719691461049a5780632ca783f3146104ba5780632e17de78146104da5780632e1a7d4d146104fa5780632f2ff15d1461051a57806335322f371461053a57806336568abe1461054f57806336630cc71461056f5780633895a2751461058f578063389ed267146105a5578063396a6c14146105c75780633ba31abf146105e75780633e9a44cb146106075780633ea005c8146106275780634981912e14610649578063530208f21461067757806353a4cca01461069757806355021b3a146106b75780635578fdb2146106d757806357baeac8146107045780635c975abb1461072457806361d027b31461073a5780636458edd31461075a578063687dd46c1461077a5780636c4624c31461079a5780636db8e53d146107ba57806370bc770c146107d057806372e55399146107fe5780637f37df3b1461081e5780637f51bb1f14610862578063853828b61461088257806386c1b4eb14610897578063894e9a0d146108b95780638bc34e77146109415780638d40bd0314610956578063904033221461097657806391d1485414610996578063993b21c1146109b65780639c52a920146109d6578063a217fddf146109f6578063a4c828dc14610a0b578063a694fc3a14610a41578063a81c6a1514610a61578063a87430ba14610a81578063b8e9744c14610acc578063ba0cb22b14610aec578063bb07ec1b14610b25578063be831a2e14610b3b578063c892772314610b5b578063cd5ba59014610b9f578063d5050aed14610bb4578063d547741f14610bd4578063e335e79a14610bf4578063ee13ad8e14610c09578063f48ab4e014610478578063fbab974014610c29575b600080fd5b34801561030557600080fd5b506103196103143660046145df565b610c49565b60405190151581526020015b60405180910390f35b34801561033a57600080fd5b5061034e610349366004614609565b610c80565b604051908152602001610325565b34801561036857600080fd5b5061034e61037736600461465a565b611004565b34801561038857600080fd5b5061034e61039736600461468a565b61104e565b3480156103a857600080fd5b5061034e6103b736600461465a565b611119565b3480156103c857600080fd5b5061034e6103d736600461465a565b6001600160a01b0316600090815260a06020908152604080832093835260059093019052205490565b34801561040c57600080fd5b5061034e6000805160206151fb83398151915281565b34801561042e57600080fd5b5061034e60995481565b34801561044457600080fd5b5061034e61045336600461468a565b61118f565b34801561046457600080fd5b5061047861047336600461468a565b6111a4565b005b34801561048657600080fd5b506104786104953660046147db565b6111c3565b3480156104a657600080fd5b506104786104b536600461483e565b61122b565b3480156104c657600080fd5b506104786104d5366004614872565b611291565b3480156104e657600080fd5b506104786104f536600461468a565b611312565b34801561050657600080fd5b5061047861051536600461468a565b61138d565b34801561052657600080fd5b5061047861053536600461465a565b611434565b34801561054657600080fd5b50610478611451565b34801561055b57600080fd5b5061047861056a36600461465a565b6114cc565b34801561057b57600080fd5b5061034e61058a36600461489e565b611546565b34801561059b57600080fd5b5061034e60985481565b3480156105b157600080fd5b5061034e60008051602061519b83398151915281565b3480156105d357600080fd5b5061034e6105e236600461468a565b611670565b3480156105f357600080fd5b5061047861060236600461465a565b6116ee565b34801561061357600080fd5b50610478610622366004614872565b611990565b34801561063357600080fd5b5061034e60008051602061513b83398151915281565b34801561065557600080fd5b50610669610664366004614609565b6119bb565b6040516103259291906148c0565b34801561068357600080fd5b50610478610692366004614872565b611c6a565b3480156106a357600080fd5b506104786106b23660046148ce565b611cd2565b3480156106c357600080fd5b506104786106d236600461493a565b611e62565b3480156106e357600080fd5b50609d546106f7906001600160a01b031681565b60405161032591906149df565b34801561071057600080fd5b5061034e61071f3660046149f3565b611ff2565b34801561073057600080fd5b5061034e60975481565b34801561074657600080fd5b50609c546106f7906001600160a01b031681565b34801561076657600080fd5b50610478610775366004614a10565b612066565b34801561078657600080fd5b50610478610795366004614a55565b612091565b3480156107a657600080fd5b506104786107b5366004614609565b6120da565b3480156107c657600080fd5b5061034e609b5481565b3480156107dc57600080fd5b506107f06107eb36600461468a565b6120f2565b604051610325929190614ac4565b34801561080a57600080fd5b50610478610819366004614a55565b6121f0565b34801561082a57600080fd5b5061034e61083936600461465a565b6001600160a01b0316600090815260a06020908152604080832093835260039093019052205490565b34801561086e57600080fd5b5061047861087d3660046149f3565b6122e6565b34801561088e57600080fd5b5061047861233b565b3480156108a357600080fd5b5061034e6000805160206151bb83398151915281565b3480156108c557600080fd5b506108d96108d436600461468a565b6123db565b604080516001600160a01b039d8e1681529c909b1660208d0152998b019890985260608a0196909652608089019490945260a088019290925260c087015260e08601526101008501526101208401521515610140830152151561016082015261018001610325565b34801561094d57600080fd5b506104786124b6565b34801561096257600080fd5b5061047861097136600461489e565b612501565b34801561098257600080fd5b5061047861099136600461468a565b6127c5565b3480156109a257600080fd5b506103196109b136600461465a565b6128f5565b3480156109c257600080fd5b5061034e6109d136600461468a565b612920565b3480156109e257600080fd5b506104786109f136600461468a565b61294e565b348015610a0257600080fd5b5061034e600081565b348015610a1757600080fd5b5061034e610a263660046149f3565b6001600160a01b0316600090815260a0602052604090205490565b348015610a4d57600080fd5b50610478610a5c36600461468a565b612ae2565b348015610a6d57600080fd5b50610478610a7c366004614ae9565b612b4a565b348015610a8d57600080fd5b50610abd610a9c3660046149f3565b60a06020526000908152604090208054600182015460029092015490919083565b60405161032593929190614ba9565b610adf610ada366004614bbf565b612feb565b6040516103259190614cbe565b348015610af857600080fd5b5061034e610b073660046149f3565b6001600160a01b0316600090815260a0602052604090206001015490565b348015610b3157600080fd5b5061034e609a5481565b348015610b4757600080fd5b50610478610b5636600461489e565b61309a565b348015610b6757600080fd5b5061034e610b7636600461465a565b6001600160a01b0316600090815260a06020908152604080832093835260049093019052205490565b348015610bab57600080fd5b5061034e6130ab565b348015610bc057600080fd5b50610478610bcf3660046149f3565b6130dd565b348015610be057600080fd5b50610478610bef36600461465a565b613107565b348015610c0057600080fd5b5060a15461034e565b348015610c1557600080fd5b50610478610c2436600461468a565b613124565b348015610c3557600080fd5b50610478610c4436600461468a565b6131be565b60006001600160e01b03198216637965db0b60e01b1480610c7a57506301ffc9a760e01b6001600160e01b03198316145b92915050565b60008060a18581548110610c9657610c96614cd1565b90600052602060002090600e0201600b019050600080610cb78787876119bb565b909250905060008083831415610d965784600101846001610cd89190614cfd565b81548110610ce857610ce8614cd1565b9060005260206000200154856001018581548110610d0857610d08614cd1565b9060005260206000200154610d1d9190614d15565b9050846000018481548110610d3457610d34614cd1565b60009182526020909120015485610d4c866001614cfd565b81548110610d5c57610d5c614cd1565b9060005260206000200154610d719190614d15565b610d7b8989614d15565b610d859083614d2c565b610d8f9190614d4b565b9150610ff6565b84600101846001610da79190614cfd565b81548110610db757610db7614cd1565b9060005260206000200154856001018581548110610dd757610dd7614cd1565b9060005260206000200154610dec9190614d15565b9050846000018481548110610e0357610e03614cd1565b60009182526020909120015485610e1b866001614cfd565b81548110610e2b57610e2b614cd1565b9060005260206000200154610e409190614d15565b8886610e4d876001614cfd565b81548110610e5d57610e5d614cd1565b9060005260206000200154610e729190614d15565b610e7c9083614d2c565b610e869190614d4b565b9150846001018381548110610e9d57610e9d614cd1565b906000526020600020015485600101856001610eb99190614cfd565b81548110610ec957610ec9614cd1565b9060005260206000200154610ede9190614d15565b610ee89083614cfd565b8554909250610ef990600190614d15565b831015610ff65784600101836001610f119190614cfd565b81548110610f2157610f21614cd1565b9060005260206000200154856001018481548110610f4157610f41614cd1565b9060005260206000200154610f569190614d15565b9050846000018381548110610f6d57610f6d614cd1565b60009182526020909120015485610f85856001614cfd565b81548110610f9557610f95614cd1565b9060005260206000200154610faa9190614d15565b856000018481548110610fbf57610fbf614cd1565b906000526020600020015488610fd59190614d15565b610fdf9083614d2c565b610fe99190614d4b565b610ff39083614cfd565b91505b5093505050505b9392505050565b60008261102d57506001600160a01b038116600090815260a06020526040902060010154610c7a565b506001600160a01b0316600090815260a06020526040902060020154919050565b6000816110765760405162461bcd60e51b815260040161106d90614d6d565b60405180910390fd5b609b546110ba5760405162461bcd60e51b81526020600482015260126024820152715a45524f5f53545245414d5f53484152455360701b604482015260640161106d565b609b5468fc6f7c40458122964d601f1b6110d684609954611546565b6110e09190614d2c565b6110ea9190614d4b565b60a183815481106110fd576110fd614cd1565b90600052602060002090600e0201600a0154610c7a9190614cfd565b6000806111258461104e565b6001600160a01b038416600090815260a06020908152604080832088845260058101909252909120546002820154929350909168fc6f7c40458122964d601f1b816111708487614d15565b61117a9190614d2c565b6111849190614d4b565b979650505050505050565b60009081526065602052604090206001015490565b60008051602061519b8339815191526111bd8133613260565b50609755565b6000805160206151bb8339815191526111dc8133613260565b6111e46132c4565b60005b83518110156112255761121384828151811061120557611205614cd1565b60200260200101518461338c565b8061121d81614d9e565b9150506111e7565b50505050565b6000805160206151bb8339815191526112448133613260565b61124c6132c4565b60005b825181101561128c5761127a83828151811061126d5761126d614cd1565b602002602001015161341d565b8061128481614d9e565b91505061124f565b505050565b60018060975416600014806112ac57506112ac6000336128f5565b6112c85760405162461bcd60e51b815260040161106d90614db9565b6000805160206151fb8339815191526112e18133613260565b6112e96132c4565b6112f3848461347d565b609c54609d54611225916001600160a01b03918216913391168661361a565b600180609754166000148061132d575061132d6000336128f5565b6113495760405162461bcd60e51b815260040161106d90614db9565b6113516132c4565b609a5433600090815260a060205260408120600101546098549192916113779190614d2c565b6113819190614d4b565b905061128c8382613672565b60018060975416600014806113a857506113a86000336128f5565b6113c45760405162461bcd60e51b815260040161106d90614db9565b33600090815260a06020908152604080832085845260040190915290205442116114275760405162461bcd60e51b8152602060048201526014602482015273494e56414c49445f52454c454153455f54494d4560601b604482015260640161106d565b6114308261386c565b5050565b61143d8261118f565b6114478133613260565b61128c8383613970565b600180609754166000148061146c575061146c6000336128f5565b6114885760405162461bcd60e51b815260040161106d90614db9565b6114906132c4565b609a5433600090815260a060205260408120600101546098549192916114b69190614d2c565b6114c09190614d4b565b90506114308182613672565b6001600160a01b038116331461153c5760405162461bcd60e51b815260206004820152602f60248201527f416363657373436f6e74726f6c3a2063616e206f6e6c792072656e6f756e636560448201526e103937b632b9903337b91039b2b63360891b606482015260840161106d565b61143082826139f6565b60004282141561155857506000610c7a565b600060a1848154811061156d5761156d614cd1565b90600052602060002090600e0201600b0160000160008154811061159357611593614cd1565b906000526020600020015490508042116115b1576000915050610c7a565b600060a185815481106115c6576115c6614cd1565b90600052602060002090600e0201600b01600001600160a187815481106115ef576115ef614cd1565b60009182526020909120600b600e90920201015461160d9190614d15565b8154811061161d5761161d614cd1565b9060005260206000200154905080841061163c57600092505050610c7a565b6000808386111561164f57859150611653565b8391505b82421015611662575042611665565b50815b611184878383610c80565b60008060a1838154811061168657611686614cd1565b90600052602060002090600e0201905080600d0160019054906101000a900460ff166116b55750600092915050565b60006116c5848360080154611546565b905081600501548260030154826116dc9190614d2c565b6116e69190614d4b565b949350505050565b60008051602061513b8339815191526117078133613260565b826117525760405162461bcd60e51b815260206004820152601b60248201527a4155524f52415f53545245414d5f4e4f545f52454d4f5641424c4560281b604482015260640161106d565b600060a1848154811061176757611767614cd1565b90600052602060002090600e0201905080600d0160019054906101000a900460ff166117ce5760405162461bcd60e51b815260206004820152601660248201527514d51491505357d053149150511657d4915353d5915160521b604482015260640161106d565b600d8101805461ffff1916905580546040514281526001600160a01b039091169085907f138a3f5239f6194312dabd3886690dd9204448e8dd2105abf6587f732041cbfe9060200160405180910390a36000816004015482600301546118349190614d15565b905060008260060154836005015461184c9190614d15565b609d54909150600090611867906001600160a01b0316611ff2565b6002850154909150600090611884906001600160a01b0316611ff2565b609c546001870154609d549293506001600160a01b039182169263da0c1a88929182169116858811156118b757856118b9565b875b6040518463ffffffff1660e01b81526004016118d793929190614dd9565b600060405180830381600087803b1580156118f157600080fd5b505af1158015611905573d6000803e3d6000fd5b5050609c5460028801546001600160a01b03918216935063da0c1a8892508a9116848711156119345784611936565b865b6040518463ffffffff1660e01b815260040161195493929190614dd9565b600060405180830381600087803b15801561196e57600080fd5b505af1158015611982573d6000803e3d6000fd5b505050505050505050505050565b6000805160206151bb8339815191526119a98133613260565b6119b16132c4565b61128c8383613a5d565b600080600060a186815481106119d3576119d3614cd1565b60009182526020909120600b600e90920201018054909150611a255760405162461bcd60e51b815260206004820152600b60248201526a4e4f5f5343484544554c4560a81b604482015260640161106d565b848411611a735760405162461bcd60e51b815260206004820152601c60248201527b494e56414c49445f5245574152445f51554552595f504552494f444560201b604482015260640161106d565b80600001600081548110611a8957611a89614cd1565b9060005260206000200154851015611ae15760405162461bcd60e51b815260206004820152601b60248201527a145551549657d0915193d49157d4d0d2115115531157d4d5105495602a1b604482015260640161106d565b80548190611af190600190614d15565b81548110611b0157611b01614cd1565b9060005260206000200154841115611b565760405162461bcd60e51b8152602060048201526018602482015277145551549657d05195115497d4d0d2115115531157d1539160421b604482015260640161106d565b60005b8154611b6790600190614d15565b811015611bb957816000018181548110611b8357611b83614cd1565b9060005260206000200154861015611ba757611ba0600182614d15565b9350611bb9565b80611bb181614d9e565b915050611b59565b508054600090611bcb90600190614d15565b90505b8015611c1457816000018181548110611be957611be9614cd1565b90600052602060002001548510611c0257809250611c14565b80611c0c81614dfd565b915050611bce565b5081831115611c615760405162461bcd60e51b815260206004820152601960248201527824a72b20a624a22fa4a72222ac2fa1a0a621aaa620aa24a7a760391b604482015260640161106d565b50935093915050565b6000611c768133613260565b6001600160a01b038316611c9c5760405162461bcd60e51b815260040161106d90614e14565b6040516001600160a01b0384169083156108fc029084906000818181858888f19350505050158015611225573d6000803e3d6000fd5b6001806097541660001480611ced5750611ced6000336128f5565b611d095760405162461bcd60e51b815260040161106d90614db9565b6000805160206151fb833981519152611d228133613260565b611d2a6132c4565b8351855114611d725760405162461bcd60e51b81526020600482015260146024820152730929cac82989288be82a4a482b2be988a9c8ea8960631b604482015260640161106d565b6000805b8551811015611df457858181518110611d9157611d91614cd1565b602002602001015182611da49190614cfd565b9150611de2878281518110611dbb57611dbb614cd1565b6020026020010151878381518110611dd557611dd5614cd1565b602002602001015161347d565b80611dec81614d9e565b915050611d76565b50838114611e3b5760405162461bcd60e51b81526020600482015260146024820152731253959053125117d0905510d217d05353d5539560621b604482015260640161106d565b609c54609d54611e5a916001600160a01b03918216913391168761361a565b505050505050565b60008051602061513b833981519152611e7b8133613260565b611e89888887878787613c3a565b60a1805460018101808355600083815291929083908110611eac57611eac614cd1565b600091825260208220600e9091020180546001600160a01b03808e166001600160a01b0319928316178355600183018054831633179055600283018054918e1691909216179055600381018a9055600481018290556007810189905560058101829055600681018290558751909250879190611f2a57611f2a614cd1565b60209081029190910181015160088301556040805180820190915287815280820187905287519091600b840191611f66918391908b019061457f565b506020828101518051611f7f926001850192019061457f565b505050600d8101805461ffff19166001179055600981018490556040516001600160a01b038b1690839060008051602061515b83398151915290611fc69042815260200190565b60405180910390a3609d54611fe6906001600160a01b031633308b61361a565b50505050505050505050565b609c546040516370a0823160e01b81526000916001600160a01b03808516926370a08231926120259216906004016149df565b602060405180830381865afa158015612042573d6000803e3d6000fd5b505050506040513d601f19601f82011682018060405250810190610c7a9190614e3a565b6000805160206151bb83398151915261207f8133613260565b6120876132c4565b61128c838361338c565b60018060975416600014806120ac57506120ac6000336128f5565b6120c85760405162461bcd60e51b815260040161106d90614db9565b6120d06132c4565b611430338361338c565b60006120e68133613260565b50825491821816189055565b60608060a1838154811061210857612108614cd1565b90600052602060002090600e0201600b0160000160a1848154811061212f5761212f614cd1565b90600052602060002090600e0201600b016001018180548060200260200160405190810160405280929190818152602001828054801561218e57602002820191906000526020600020905b81548152602001906001019080831161217a575b50505050509150808054806020026020016040519081016040528092919081815260200182805480156121e057602002820191906000526020600020905b8154815260200190600101908083116121cc575b5050505050905091509150915091565b600180609754166000148061220b575061220b6000336128f5565b6122275760405162461bcd60e51b815260040161106d90614db9565b33600090815260a060205260408120905b83518110156112255781600301600085838151811061225957612259614cd1565b60200260200101518152602001908152602001600020546000141580156122ad575081600401600085838151811061229357612293614cd1565b602002602001015181526020019081526020016000205442115b156122d4576122d48482815181106122c7576122c7614cd1565b602002602001015161386c565b806122de81614d9e565b915050612238565b60006122f28133613260565b6001600160a01b0382166123185760405162461bcd60e51b815260040161106d90614e53565b50609c80546001600160a01b0319166001600160a01b0392909216919091179055565b600180609754166000148061235657506123566000336128f5565b6123725760405162461bcd60e51b815260040161106d90614db9565b33600090815260a060205260408120905b60a15481101561128c576000818152600383016020526040902054158015906123bb5750600081815260048301602052604090205442115b156123c9576123c98161386c565b806123d381614d9e565b915050612383565b600080600080600080600080600080600080600060a18e8154811061240257612402614cd1565b90600052602060002090600e020190508060000160009054906101000a90046001600160a01b03168160020160009054906101000a90046001600160a01b031682600301548360040154846005015485600601548660070154876008015488600a015489600901548a600d0160009054906101000a900460ff168b600d0160019054906101000a900460ff169c509c509c509c509c509c509c509c509c509c509c509c505091939597999b5091939597999b565b60018060975416600014806124d157506124d16000336128f5565b6124ed5760405162461bcd60e51b815260040161106d90614db9565b6124f56132c4565b6124fe3361341d565b50565b600180609754166000148061251c575061251c6000336128f5565b6125385760405162461bcd60e51b815260040161106d90614db9565b600060a1848154811061254d5761254d614cd1565b60009182526020909120600e90910201600d81015490915060ff166125845760405162461bcd60e51b815260040161106d90614e7c565b80546001600160a01b031633146125ad5760405162461bcd60e51b815260040161106d90614ea9565b600d810154610100900460ff16156125ff5760405162461bcd60e51b815260206004820152601560248201527453545245414d5f414c52454144595f45584953545360581b604482015260640161106d565b4281600b0160000160008154811061261957612619614cd1565b9060005260206000200154101561266c5760405162461bcd60e51b815260206004820152601760248201527614d51491505357d41493d413d4d05317d1561412549151604a1b604482015260640161106d565b80600701548311156126be5760405162461bcd60e51b815260206004820152601b60248201527a1253959053125117d49155d0549117d513d2d15397d05353d55395602a1b604482015260640161106d565b600d8101805461ff00191661010017905560058101839055604051339085906000805160206151db833981519152906126fa9042815260200190565b60405180910390a380600701548310156127815760078101546003820154600091906127268683614d15565b6127309190614d2c565b61273a9190614d4b565b9050808260030160008282546127509190614d15565b9091555061276090508585613f53565b6001820154609d5461277f916001600160a01b03918216911683614057565b505b609c546003820154609d546127a4926001600160a01b0391821692911690614057565b609c546002820154611225916001600160a01b03918216913391168661361a565b60008051602061513b8339815191526127de8133613260565b600060a183815481106127f3576127f3614cd1565b60009182526020909120600e90910201600d81015490915060ff1661282a5760405162461bcd60e51b815260040161106d90614e7c565b600d810154610100900460ff161561287c5760405162461bcd60e51b815260206004820152601560248201527453545245414d5f414c52454144595f41435449564560581b604482015260640161106d565b600d8101805460ff19169055600381018054600090915581546040514281526001600160a01b039091169085907f36bc74eb2ec224bdd93b3e3ba7a70e1802b4a876f1bd1fd7fdc15f41ccc12f239060200160405180910390a36001820154609d54611225916001600160a01b03918216911683614057565b60009182526065602090815260408084206001600160a01b0393909316845291905290205460ff1690565b600060a1828154811061293557612935614cd1565b90600052602060002090600e0201600a01549050919050565b600180609754166000148061296957506129696000336128f5565b6129855760405162461bcd60e51b815260040161106d90614db9565b600060a1838154811061299a5761299a614cd1565b60009182526020909120600e9091020180549091506001600160a01b031633146129d65760405162461bcd60e51b815260040161106d90614ea9565b600d810154610100900460ff166129ff5760405162461bcd60e51b815260040161106d90614ed7565b82612a3f5760405162461bcd60e51b815260206004820152601060248201526f4155524f52415f53545245414d5f4e4160801b604482015260640161106d565b6000612a4a84611670565b905042826008018190555080826004016000828254612a699190614cfd565b9091555050609c548254609d54604051631b41835160e31b81526001600160a01b039384169363da0c1a8893612aaa93908216929116908690600401614dd9565b600060405180830381600087803b158015612ac457600080fd5b505af1158015612ad8573d6000803e3d6000fd5b5050505050505050565b6001806097541660001480612afd5750612afd6000336128f5565b612b195760405162461bcd60e51b815260040161106d90614db9565b612b216132c4565b612b2b338361347d565b609c54609d54611430916001600160a01b03918216913391168561361a565b600054610100900460ff16612b655760005460ff1615612b69565b303b155b612b855760405162461bcd60e51b815260040161106d90614f00565b600054610100900460ff16158015612ba7576000805461ffff19166101011790555b818311612be85760405162461bcd60e51b815260206004820152600f60248201526e494e56414c49445f5745494748545360881b604482015260640161106d565b6001600160a01b038a1615801590612c0857506001600160a01b03841615155b8015612c1c57506001600160a01b03891615155b612c385760405162461bcd60e51b815260040161106d90614e53565b8651885114612c595760405162461bcd60e51b815260040161106d90614f4e565b85612c765760405162461bcd60e51b815260040161106d90614f7f565b60015b8851811015612d4b5788612c8e600183614d15565b81518110612c9e57612c9e614cd1565b6020026020010151898281518110612cb857612cb8614cd1565b602002602001015111612cdd5760405162461bcd60e51b815260040161106d90614fab565b87612ce9600183614d15565b81518110612cf957612cf9614cd1565b6020026020010151888281518110612d1357612d13614cd1565b60200260200101511115612d395760405162461bcd60e51b815260040161106d90614fdb565b80612d4381614d9e565b915050612c79565b508660018851612d5b9190614d15565b81518110612d6b57612d6b614cd1565b6020026020010151600014612d925760405162461bcd60e51b815260040161106d9061500d565b612d9b856131be565b612db36000805160206151fb83398151915233613970565b612dcb6000805160206151bb83398151915233613970565b612de360008051602061513b83398151915233613970565b609c80546001600160a01b038087166001600160a01b031992831617909255609d8054928d1692909116919091179055609e839055609f82905560a1805460010180825560008281529182918290612e3d57612e3d614cd1565b90600052602060002090600e020190508a8160000160006101000a8154816001600160a01b0302191690836001600160a01b031602179055508a8160010160006101000a8154816001600160a01b0302191690836001600160a01b031602179055508b8160020160006101000a8154816001600160a01b0302191690836001600160a01b03160217905550600081600301819055506000816004018190555060008160070181905550600081600501819055506000816006018190555042816008018190555060405180604001604052808b81526020018a81525081600b016000820151816000019080519060200190612f3892919061457f565b506020828101518051612f51926001850192019061457f565b505050600d8101805461ffff1916610101179055600981018890556040514281526001600160a01b038c1690839060008051602061515b8339815191529060200160405180910390a38a6001600160a01b0316826000805160206151db83398151915242604051612fc491815260200190565b60405180910390a350508015611fe6576000805461ff001916905550505050505050505050565b60606000612ff98133613260565b613001614087565b6001600160a01b0384166130275760405162461bcd60e51b815260040161106d90614e14565b600080856001600160a01b0316856040516130429190615042565b600060405180830381855af49150503d806000811461307d576040519150601f19603f3d011682016040523d82523d6000602084013e613082565b606091505b50915091508161309157600080fd5b95945050505050565b60006130a68133613260565b509055565b6000609954600014156130be5750600090565b6130cb6000609954611546565b6098546130d89190614cfd565b905090565b6000805160206151bb8339815191526130f68133613260565b6130fe6132c4565b6114308261341d565b6131108261118f565b61311a8133613260565b61128c83836139f6565b600180609754166000148061313f575061313f6000336128f5565b61315b5760405162461bcd60e51b815260040161106d90614db9565b8160a1818154811061316f5761316f614cd1565b90600052602060002090600e0201600d0160019054906101000a900460ff166131aa5760405162461bcd60e51b815260040161106d90614ed7565b6131b26132c4565b61128c3384613a5d565b565b600054610100900460ff166131d95760005460ff16156131dd565b303b155b6131f95760405162461bcd60e51b815260040161106d90614f00565b600054610100900460ff1615801561321b576000805461ffff19166101011790555b6132236140bd565b6097829055613233600033613970565b61324b60008051602061519b83398151915233613970565b8015611430576000805461ff00191690555050565b61326a82826128f5565b61143057613282816001600160a01b031660146140fc565b61328d8360206140fc565b60405160200161329e92919061505e565b60408051601f198184030181529082905262461bcd60e51b825261106d91600401614cbe565b4260995414156132d057565b609a5415613386576132e56000609954611546565b609860008282546132f69190614cfd565b90915550600190505b60a1548110156133845760a1818154811061331c5761331c614cd1565b90600052602060002090600e0201600d0160019054906101000a900460ff1615613372576133498161104e565b60a1828154811061335c5761335c614cd1565b90600052602060002090600e0201600a01819055505b8061337c81614d9e565b9150506132ff565b505b42609955565b60005b815181101561128c5760a18282815181106133ac576133ac614cd1565b6020026020010151815481106133c4576133c4614cd1565b90600052602060002090600e0201600d0160019054906101000a900460ff161561340b5761340b838383815181106133fe576133fe614cd1565b6020026020010151613a5d565b8061341581614d9e565b91505061338f565b60015b60a1548110156114305760a1818154811061343d5761343d614cd1565b90600052602060002090600e0201600d0160019054906101000a900460ff161561346b5761346b8282613a5d565b8061347581614d9e565b915050613420565b6001600160a01b038216600090815260a060205260408120609a549091906134a65750816134ce565b609854609a546134b69085614d2c565b6134c09190614d4b565b6134cb906001614cfd565b90505b808260010160008282546134e29190614cfd565b9250508190555080609a60008282546134fb9190614cfd565b9250508190555082609860008282546135149190614cfd565b909155505081548390839060009061352d908490614cfd565b909155506000905061353f8242614297565b905080609b60008282546135539190614cfd565b925050819055508083600201600082825461356e9190614cfd565b90915550600190505b60a1548110156135cd5760a1818154811061359457613594614cd1565b60009182526020808320600a600e90930201919091015483835260058701909152604090912055806135c581614d9e565b915050613577565b50846001600160a01b03167fb4caaf29adda3eefee3ad552a8e85058589bf834c7466cae4ee58787f70589ed85844260405161360b93929190614ba9565b60405180910390a25050505050565b611225846323b872dd60e01b85858560405160240161363b93929190614dd9565b60408051601f198184030181529190526020810180516001600160e01b03166001600160e01b03199093169290921790915261438b565b816136ad5760405162461bcd60e51b815260206004820152600b60248201526a16915493d7d05353d5539560aa1b604482015260640161106d565b808211156136f85760405162461bcd60e51b81526020600482015260186024820152774e4f545f454e4f5547485f5354414b455f42414c414e434560401b604482015260640161106d565b33600090815260a0602052604081206001810154609a805492939192909190613722908490614d15565b90915550506002810154609b805460009061373e908490614d15565b90915550506000600182018190556002820181905560988054849290613765908490614d15565b909155505060008082558080526003820160205260408120805485929061378d908490614cfd565b909155505060a180546000906137a5576137a5614cd1565b90600052602060002090600e020160090154426137c29190614cfd565b6000808052600483016020908152604080832093909355600384019052818120549151339260008051602061517b83398151915291613803919042906148c0565b60405180910390a3336001600160a01b03167f7fc4727e062e336010f2c282598ef5f14facb3de68cf8195c2f23e1454b2b74e84426040516138469291906148c0565b60405180910390a2600061385a8484614d15565b9050801561122557611225338261347d565b33600081815260a0602090815260408083208584526003810190925280832080549390555190929084907ff86dbbaae73a38eba376327ec68def0678d91d952b4a18aa86d880f199632bd9906138c590859042906148c0565b60405180910390a3609c5460a180546001600160a01b039092169163da0c1a88913391879081106138f8576138f8614cd1565b600091825260209091206002600e9092020101546040516001600160e01b031960e085901b16815261393992916001600160a01b0316908690600401614dd9565b600060405180830381600087803b15801561395357600080fd5b505af1158015613967573d6000803e3d6000fd5b50505050505050565b61397a82826128f5565b6114305760008281526065602090815260408083206001600160a01b03851684529091529020805460ff191660011790556139b23390565b6001600160a01b0316816001600160a01b0316837f2f8788117e7eff1d82e926ec794901d17c78024a50270940304540a733656f0d60405160405180910390a45050565b613a0082826128f5565b156114305760008281526065602090815260408083206001600160a01b0385168085529252808320805460ff1916905551339285917ff6391f5c32d9c69d2a47ea670b442974b53935d1edc7fd64eb21e047a839171b9190a45050565b80613a7a5760405162461bcd60e51b815260040161106d90614d6d565b6001600160a01b038216600090815260a0602090815260408083206002810154858552600582019093529083205460a1805492949368fc6f7c40458122964d601f1b939092919087908110613ad157613ad1614cd1565b90600052602060002090600e0201600a0154613aed9190614d15565b613af79190614d2c565b613b019190614d4b565b905080613b0e5750505050565b600083815260038301602052604081208054839290613b2e908490614cfd565b909155505060a1805484908110613b4757613b47614cd1565b90600052602060002090600e0201600a01548260050160008581526020019081526020016000208190555060a18381548110613b8557613b85614cd1565b90600052602060002090600e02016009015442613ba29190614cfd565b600084815260048401602052604090205560a1805482919085908110613bca57613bca614cd1565b90600052602060002090600e02016006016000828254613bea9190614cfd565b90915550506000838152600383016020526040908190205490516001600160a01b03861691859160008051602061517b83398151915291613c2c9142906148c0565b60405180910390a350505050565b6001600160a01b038616613c8f5760405162461bcd60e51b815260206004820152601c60248201527b494e56414c49445f53545245414d5f4f574e45525f4144445245535360201b604482015260640161106d565b6001600160a01b038516613ce45760405162461bcd60e51b815260206004820152601c60248201527b494e56414c49445f5245574152445f544f4b454e5f4144445245535360201b604482015260640161106d565b60008411613d275760405162461bcd60e51b815260206004820152601060248201526f16915493d7d3505617d1115413d4d25560821b604482015260640161106d565b81600081518110613d3a57613d3a614cd1565b60200260200101518414613d905760405162461bcd60e51b815260206004820152601f60248201527f4d41585f4445504f5349545f4d5553545f455155414c5f5343484544554c4500604482015260640161106d565b4283600081518110613da457613da4614cd1565b602002602001015111613df95760405162461bcd60e51b815260206004820152601e60248201527f494e56414c49445f53545245414d5f45585049524154494f4e5f444154450000604482015260640161106d565b8151835114613e1a5760405162461bcd60e51b815260040161106d90614f4e565b80613e375760405162461bcd60e51b815260040161106d90614f7f565b60015b8351811015613f0c5783613e4f600183614d15565b81518110613e5f57613e5f614cd1565b6020026020010151848281518110613e7957613e79614cd1565b602002602001015111613e9e5760405162461bcd60e51b815260040161106d90614fab565b82613eaa600183614d15565b81518110613eba57613eba614cd1565b6020026020010151838281518110613ed457613ed4614cd1565b60200260200101511115613efa5760405162461bcd60e51b815260040161106d90614fdb565b80613f0481614d9e565b915050613e3a565b508160018351613f1c9190614d15565b81518110613f2c57613f2c614cd1565b6020026020010151600014611e5a5760405162461bcd60e51b815260040161106d9061500d565b60005b60a18381548110613f6957613f69614cd1565b60009182526020909120600c600e90920201015481101561128c5760a18381548110613f9757613f97614cd1565b90600052602060002090600e0201600701548260a18581548110613fbd57613fbd614cd1565b90600052602060002090600e0201600b016001018381548110613fe257613fe2614cd1565b9060005260206000200154613ff79190614d2c565b6140019190614d4b565b60a1848154811061401457614014614cd1565b90600052602060002090600e0201600b01600101828154811061403957614039614cd1565b6000918252602090912001558061404f81614d9e565b915050613f56565b6040516001600160a01b03831660248201526044810182905261128c90849063a9059cbb60e01b9060640161363b565b306001600160a01b037f00000000000000000000000000000000000000000000000000000000000000001614156131bc57600080fd5b600054610100900460ff166140e45760405162461bcd60e51b815260040161106d906150cd565b6140ec61445d565b6140f461445d565b6131bc61445d565b6060600061410b836002614d2c565b614116906002614cfd565b6001600160401b0381111561412d5761412d6146a3565b6040519080825280601f01601f191660200182016040528015614157576020820181803683370190505b509050600360fc1b8160008151811061417257614172614cd1565b60200101906001600160f81b031916908160001a905350600f60fb1b816001815181106141a1576141a1614cd1565b60200101906001600160f81b031916908160001a90535060006141c5846002614d2c565b6141d0906001614cfd565b90505b6001811115614248576f181899199a1a9b1b9c1cb0b131b232b360811b85600f166010811061420457614204614cd1565b1a60f81b82828151811061421a5761421a614cd1565b60200101906001600160f81b031916908160001a90535060049490941c9361424181614dfd565b90506141d3565b508315610ffd5760405162461bcd60e51b815260206004820181905260248201527f537472696e67733a20686578206c656e67746820696e73756666696369656e74604482015260640161106d565b6000806228207260a16000815481106142b2576142b2614cd1565b90600052602060002090600e0201600b016000016000815481106142d8576142d8614cd1565b90600052602060002001546142ed9190614cfd565b905060006142ff63078614f883614cfd565b905081841161431e57609e546143159086614d2c565b92505050610c7a565b80841061433257609f546143159086614d2c565b61433c8282614d15565b6143468583614d15565b609f54609e546143569190614d15565b6143609088614d2c565b61436a9190614d2c565b6143749190614d4b565b609f546143819087614d2c565b6130919190614cfd565b60006143e0826040518060400160405280602081526020017f5361666545524332303a206c6f772d6c6576656c2063616c6c206661696c6564815250856001600160a01b03166144849092919063ffffffff16565b80519091501561128c57808060200190518101906143fe9190615118565b61128c5760405162461bcd60e51b815260206004820152602a60248201527f5361666545524332303a204552433230206f7065726174696f6e20646964206e6044820152691bdd081cdd58d8d9595960b21b606482015260840161106d565b600054610100900460ff166131bc5760405162461bcd60e51b815260040161106d906150cd565b60606116e6848460008585843b6144dd5760405162461bcd60e51b815260206004820152601d60248201527f416464726573733a2063616c6c20746f206e6f6e2d636f6e7472616374000000604482015260640161106d565b600080866001600160a01b031685876040516144f99190615042565b60006040518083038185875af1925050503d8060008114614536576040519150601f19603f3d011682016040523d82523d6000602084013e61453b565b606091505b509150915061118482828660608315614555575081610ffd565b8251156145655782518084602001fd5b8160405162461bcd60e51b815260040161106d9190614cbe565b8280548282559060005260206000209081019282156145ba579160200282015b828111156145ba57825182559160200191906001019061459f565b506145c69291506145ca565b5090565b5b808211156145c657600081556001016145cb565b6000602082840312156145f157600080fd5b81356001600160e01b031981168114610ffd57600080fd5b60008060006060848603121561461e57600080fd5b505081359360208301359350604090920135919050565b6001600160a01b03811681146124fe57600080fd5b803561465581614635565b919050565b6000806040838503121561466d57600080fd5b82359150602083013561467f81614635565b809150509250929050565b60006020828403121561469c57600080fd5b5035919050565b634e487b7160e01b600052604160045260246000fd5b604051601f8201601f191681016001600160401b03811182821017156146e1576146e16146a3565b604052919050565b60006001600160401b03821115614702576147026146a3565b5060051b60200190565b600082601f83011261471d57600080fd5b8135602061473261472d836146e9565b6146b9565b82815260059290921b8401810191818101908684111561475157600080fd5b8286015b8481101561477557803561476881614635565b8352918301918301614755565b509695505050505050565b600082601f83011261479157600080fd5b813560206147a161472d836146e9565b82815260059290921b840181019181810190868411156147c057600080fd5b8286015b8481101561477557803583529183019183016147c4565b600080604083850312156147ee57600080fd5b82356001600160401b038082111561480557600080fd5b6148118683870161470c565b9350602085013591508082111561482757600080fd5b5061483485828601614780565b9150509250929050565b60006020828403121561485057600080fd5b81356001600160401b0381111561486657600080fd5b6116e68482850161470c565b6000806040838503121561488557600080fd5b823561489081614635565b946020939093013593505050565b600080604083850312156148b157600080fd5b50508035926020909101359150565b918252602082015260400190565b6000806000606084860312156148e357600080fd5b83356001600160401b03808211156148fa57600080fd5b6149068783880161470c565b9450602086013591508082111561491c57600080fd5b5061492986828701614780565b925050604084013590509250925092565b600080600080600080600060e0888a03121561495557600080fd5b873561496081614635565b9650602088013561497081614635565b9550604088013594506060880135935060808801356001600160401b038082111561499a57600080fd5b6149a68b838c01614780565b945060a08a01359150808211156149bc57600080fd5b506149c98a828b01614780565b92505060c0880135905092959891949750929550565b6001600160a01b0391909116815260200190565b600060208284031215614a0557600080fd5b8135610ffd81614635565b60008060408385031215614a2357600080fd5b8235614a2e81614635565b915060208301356001600160401b03811115614a4957600080fd5b61483485828601614780565b600060208284031215614a6757600080fd5b81356001600160401b03811115614a7d57600080fd5b6116e684828501614780565b600081518084526020808501945080840160005b83811015614ab957815187529582019590820190600101614a9d565b509495945050505050565b604081526000614ad76040830185614a89565b82810360208401526130918185614a89565b60008060008060008060008060006101208a8c031215614b0857600080fd5b8935614b1381614635565b985060208a0135614b2381614635565b975060408a01356001600160401b0380821115614b3f57600080fd5b614b4b8d838e01614780565b985060608c0135915080821115614b6157600080fd5b50614b6e8c828d01614780565b96505060808a0135945060a08a01359350614b8b60c08b0161464a565b925060e08a013591506101008a013590509295985092959850929598565b9283526020830191909152604082015260600190565b60008060408385031215614bd257600080fd5b8235614bdd81614635565b91506020838101356001600160401b0380821115614bfa57600080fd5b818601915086601f830112614c0e57600080fd5b813581811115614c2057614c206146a3565b614c32601f8201601f191685016146b9565b91508082528784828501011115614c4857600080fd5b80848401858401376000848284010152508093505050509250929050565b60005b83811015614c81578181015183820152602001614c69565b838111156112255750506000910152565b60008151808452614caa816020860160208601614c66565b601f01601f19169290920160200192915050565b602081526000610ffd6020830184614c92565b634e487b7160e01b600052603260045260246000fd5b634e487b7160e01b600052601160045260246000fd5b60008219821115614d1057614d10614ce7565b500190565b600082821015614d2757614d27614ce7565b500390565b6000816000190483118215151615614d4657614d46614ce7565b500290565b600082614d6857634e487b7160e01b600052601260045260246000fd5b500490565b60208082526017908201527610555493d49057d49155d0549114d7d0d3d35413d55391604a1b604082015260600190565b6000600019821415614db257614db2614ce7565b5060010190565b60208082526006908201526514185d5cd95960d21b604082015260600190565b6001600160a01b039384168152919092166020820152604081019190915260600190565b600081614e0c57614e0c614ce7565b506000190190565b6020808252600c908201526b5a45524f5f4144445245535360a01b604082015260600190565b600060208284031215614e4c57600080fd5b5051919050565b6020808252600f908201526e494e56414c49445f4144445245535360881b604082015260600190565b60208082526013908201527214d51491505357d393d517d41493d413d4d151606a1b604082015260600190565b60208082526014908201527324a72b20a624a22fa9aa2922a0a6afa7aba722a960611b604082015260600190565b6020808252600f908201526e494e4143544956455f53545245414d60881b604082015260600190565b6020808252602e908201527f496e697469616c697a61626c653a20636f6e747261637420697320616c72656160408201526d191e481a5b9a5d1a585b1a5e995960921b606082015260800190565b602080825260179082015276494e56414c49445f5343484544554c455f56414c55455360481b604082015260600190565b6020808252601290820152711253959053125117d5105557d411549253d160721b604082015260600190565b602080825260169082015275494e56414c49445f5343484544554c455f54494d455360501b604082015260600190565b602080825260189082015277494e56414c49445f5343484544554c455f5245574152445360401b604082015260600190565b6020808252601b908201527a1253959053125117d4d0d2115115531157d1539117d49155d05491602a1b604082015260600190565b60008251615054818460208701614c66565b9190910192915050565b76020b1b1b2b9b9a1b7b73a3937b61d1030b1b1b7bab73a1604d1b815260008351615090816017850160208801614c66565b7001034b99036b4b9b9b4b733903937b6329607d1b60179184019182015283516150c1816028840160208801614c66565b01602801949350505050565b6020808252602b908201527f496e697469616c697a61626c653a20636f6e7472616374206973206e6f74206960408201526a6e697469616c697a696e6760a81b606082015260800190565b60006020828403121561512a57600080fd5b81518015158114610ffd57600080fdfe930802d0eadfb856cb83e01d1c4daa3c89e9c6d9f74cfbe13124decf2b33128a46df4b1da61e3da1ea96646025835ed3c019e55199917ddcb47d906225732f46d841f13bd518db95a474f6d4b9fc7df1cfc116c841f91e218ff172d13f633b98139c2898040ef16910dc9f44dc697df79363da767d8bc92f2e310312b816e46df7db13299c8a9e501861f04c20f69a2444829a36a363cfad4b58864709c755609b75bb6b5d76707693bc56d2793d08ca515b19570eff8dcca55f2578b960beca3a2f235c9daaf33349d300aadff2f15078a89df81bcfdd45ba11c8f816bddc6fa26469706673582212200fb2a45738a8e6a758ca8920fa03c4ee8ffce69750bf2f2ee147876d7d0ac20c64736f6c634300080a0033",
  "devdoc": {
    "author": "Aurora Team",
    "details": "Implementation of Jet staking contract      This contract implements the staking mechanics for AURORA ERC20 token.      A user can stake any amount of AURORA tokens, and get rewarded in both      AURORA and other stream tokens based on the rewards schedules.      Stream rewards can be claimed any time however AURORA can't be claimed      unless the user unstakes his full/partial amount of shares.      This contract is AdminControlled which has a tremendous power. However      hopfully it be governed by a community wallet.",
    "kind": "dev",
    "methods": {
      "__AdminControlled_init(uint256)": {
        "details": "__AdminControlled_init initializes this contract, setting pause flags and granting admin roles.",
        "params": {
          "_flags": "flags variable will be used for pausing this contract."
        }
      },
      "adminDelegatecall(address,bytes)": {
        "custom:oz-upgrades-unsafe-allow": "delegatecall",
        "details": "adminDelegatecall allows this contract to delegate calls to a target contract and execute it in the context of this contract. Only default admin role can call this function.",
        "params": {
          "data": "is the ABI encoded function signature and its values.",
          "target": "the target contract address"
        }
      },
      "adminPause(uint256)": {
        "details": "adminPause pauses this contract. Only pause role or default admin role can access this function.",
        "params": {
          "flags": "flags variable is used for pausing this contract."
        }
      },
      "adminReceiveEth()": {
        "details": "adminReceiveEth allows this contract to receive ETH anyone can call this function"
      },
      "adminSendEth(address,uint256)": {
        "details": "adminSendEth sends ETH from this contract to destination only default admin role can call this function",
        "params": {
          "amount": "of ETH",
          "destination": "is the receiver address"
        }
      },
      "adminSstore(uint256,uint256)": {
        "details": "adminSstore updates the state variable value. only default admin role can call this function.",
        "params": {
          "key": "is the storage slot of the state variable",
          "value": "is the state variable value"
        }
      },
      "adminSstoreWithMask(uint256,uint256,uint256)": {
        "details": "adminSstoreWithMask similar to adminSstore except it updates the state variable value after xor-ing this value with the old value and the mask, so the new value should be a result of xor(and(xor(value, oldval), mask), oldval). Only default admin role can call this function.",
        "params": {
          "key": "is the storage slot of the state variable",
          "mask": "this value is used in calculating the new value",
          "value": "is the state variable value"
        }
      },
      "batchClaimOnBehalfOfAnotherUser(address,uint256[])": {
        "details": "batchClaimOnBehalfOfAnotherUser when gas limits prevent users from claiming all.",
        "params": {
          "account": "the user account address.",
          "streamIds": "to claim."
        }
      },
      "batchClaimOnBehalfOfOtherUsers(address[],uint256[])": {
        "details": "Claim all stream rewards on behalf of other users.",
        "params": {
          "accounts": "the user account addresses."
        }
      },
      "batchMoveRewardsToPending(uint256[])": {
        "details": "moves a set of stream Id rewards to pending. Allows user to select stream ids to claim from UI.",
        "params": {
          "streamIds": "stream indexes"
        }
      },
      "batchWithdraw(uint256[])": {
        "details": "withdraw a set of stream Ids. Allows user to select stream ids to withdraw from UI.",
        "params": {
          "streamIds": "to withdraw."
        }
      },
      "cancelStreamProposal(uint256)": {
        "details": "cancelStreamProposal cancels a proposal any time before the stream becomes active (created).",
        "params": {
          "streamId": "the stream index"
        }
      },
      "claimAllOnBehalfOfAnotherUser(address)": {
        "details": "Claim all stream rewards on behalf of another user.",
        "params": {
          "account": "the user account address."
        }
      },
      "claimAllOnBehalfOfOtherUsers(address[])": {
        "details": "Claim all stream rewards on behalf of other users.",
        "params": {
          "accounts": "the user account addresses."
        }
      },
      "claimOnBehalfOfAnotherUser(address,uint256)": {
        "details": "Claim a stream's rewards on behalf of another user.",
        "params": {
          "account": "the user account address.",
          "streamId": "to claim."
        }
      },
      "createStream(uint256,uint256)": {
        "details": "create new stream (only stream owner) stream owner must approve reward tokens to this contract.",
        "params": {
          "streamId": "stream id"
        }
      },
      "getAmountOfShares(uint256,address)": {
        "details": "gets a user stream shares",
        "params": {
          "account": "the user address",
          "streamId": "stream index"
        },
        "returns": {
          "_0": "user stream shares"
        }
      },
      "getLatestRewardPerShare(uint256)": {
        "details": "calculates and gets the latest reward per share (RPS) for a stream",
        "params": {
          "streamId": "stream index"
        },
        "returns": {
          "_0": "streams[streamId].rps + scheduled reward up till now"
        }
      },
      "getPending(uint256,address)": {
        "details": "gets the user's stream pending reward",
        "params": {
          "account": "user account",
          "streamId": "stream index"
        },
        "returns": {
          "_0": "user.pendings[streamId]"
        }
      },
      "getReleaseTime(uint256,address)": {
        "details": "gets the user's stream reward release time",
        "params": {
          "account": "user account",
          "streamId": "stream index"
        },
        "returns": {
          "_0": "user.releaseTime[streamId]"
        }
      },
      "getRewardPerShare(uint256)": {
        "details": "gets reward per share (RPS) for a stream",
        "params": {
          "streamId": "stream index"
        },
        "returns": {
          "_0": "streams[streamId].rps"
        }
      },
      "getRewardPerShareForUser(uint256,address)": {
        "details": "gets the user's reward per share (RPS) for a stream",
        "params": {
          "streamId": "stream index"
        },
        "returns": {
          "_0": "user.rpsDuringLastClaim[streamId]"
        }
      },
      "getRewardsAmount(uint256,uint256)": {
        "details": "calculates and gets the latest released rewards.",
        "params": {
          "streamId": "stream index"
        },
        "returns": {
          "_0": "rewards released since last update."
        }
      },
      "getRoleAdmin(bytes32)": {
        "details": "Returns the admin role that controls `role`. See {grantRole} and {revokeRole}. To change a role's admin, use {_setRoleAdmin}."
      },
      "getStream(uint256)": {
        "details": "get the stream data",
        "params": {
          "streamId": "the stream index"
        }
      },
      "getStreamClaimableAmount(uint256,address)": {
        "details": "gets the user's stream claimable amount",
        "params": {
          "streamId": "stream index"
        },
        "returns": {
          "_0": "(latesRPS - user.rpsDuringLastClaim) * user.shares"
        }
      },
      "getStreamOwnerClaimableAmount(uint256)": {
        "details": "Stream owner claimable AURORA.",
        "params": {
          "streamId": "the stream index"
        }
      },
      "getStreamSchedule(uint256)": {
        "details": "get the stream schedule data",
        "params": {
          "streamId": "the stream index"
        }
      },
      "getStreamsCount()": {
        "details": "get the streams count",
        "returns": {
          "_0": "streams.length"
        }
      },
      "getTotalAmountOfStakedAurora()": {
        "details": "gets the total amount of staked aurora",
        "returns": {
          "_0": "totalAmountOfStakedAurora + latest reward schedule"
        }
      },
      "getTreasuryBalance(address)": {
        "details": "Get the treasury balance",
        "params": {
          "token": "the token address"
        }
      },
      "getUserShares(address)": {
        "details": "gets the user shares",
        "params": {
          "account": "the user address"
        },
        "returns": {
          "_0": "user shares"
        }
      },
      "getUserTotalDeposit(address)": {
        "details": "gets the total user deposit",
        "params": {
          "account": "the user address"
        },
        "returns": {
          "_0": "user total deposit in (AURORA)"
        }
      },
      "grantRole(bytes32,address)": {
        "details": "Grants `role` to `account`. If `account` had not been already granted `role`, emits a {RoleGranted} event. Requirements: - the caller must have ``role``'s admin role."
      },
      "hasRole(bytes32,address)": {
        "details": "Returns `true` if `account` has been granted `role`."
      },
      "initialize(address,address,uint256[],uint256[],uint256,uint256,address,uint256,uint256)": {
        "details": "initialize the contract and deploys the first stream (AURORA)",
        "params": {
          "_flags": "admin controlled contract flags",
          "_maxWeight": "max stream reward weighting coefficient",
          "_minWeight": "min stream reward weighting coefficient",
          "_treasury": "the Aurora treasury contract address",
          "aurora": "token contract address",
          "scheduleRewards": "init the schedule amounts",
          "scheduleTimes": "init the schedule time",
          "tauAuroraStream": "release time constant per stream (e.g AURORA stream)"
        }
      },
      "moveAllRewardsToPending()": {
        "details": "moves all the user rewards to pending reward."
      },
      "moveRewardsToPending(uint256)": {
        "details": "moves the reward for specific stream Id to pending rewards. It will require a waiting time untill it get released. Users call this in function in order to claim rewards.",
        "params": {
          "streamId": "stream index"
        }
      },
      "proposeStream(address,address,uint256,uint256,uint256[],uint256[],uint256)": {
        "details": "An admin of the staking contract can whitelist (propose) a stream. Whitelisting of the stream provides the option for the stream owner (presumably the issuing party of a specific token) to deposit some ERC-20 tokens on the staking contract and potentially get in return some AURORA tokens. Deposited ERC-20 tokens will be distributed to the stakers over some period of time.",
        "params": {
          "auroraDepositAmount": "Amount of the AURORA deposited by the Admin.",
          "maxDepositAmount": "The upper amount of the tokens that should be deposited by the stream owner",
          "rewardToken": "the address of the ERC-20 tokens to be deposited in the stream",
          "scheduleRewards": "array of reward amounts that are kept on the staking contract at each block height",
          "scheduleTimes": "array of block heights for each schedule time",
          "streamOwner": "only this account would be able to create a stream",
          "tau": "the tau is (pending release period) for this stream (e.g one day)"
        }
      },
      "releaseAuroraRewardsToStreamOwner(uint256)": {
        "details": "the release of AURORA tokens to the stream owner is subjected to the same schedule as rewards. Thus if for a specific moment in time 30% of the rewards are distributed, then it means that 30% of the AURORA deposit can be withdrawn by the stream owner too. called by the stream owner",
        "params": {
          "streamId": "the stream index"
        }
      },
      "removeStream(uint256,address)": {
        "details": "removes a stream (only default admin role)",
        "params": {
          "streamFundReceiver": "receives the rest of the reward tokens in the stream",
          "streamId": "stream index"
        }
      },
      "renounceRole(bytes32,address)": {
        "details": "Revokes `role` from the calling account. Roles are often managed via {grantRole} and {revokeRole}: this function's purpose is to provide a mechanism for accounts to lose their privileges if they are compromised (such as when a trusted device is misplaced). If the calling account had been revoked `role`, emits a {RoleRevoked} event. Requirements: - the caller must be `account`."
      },
      "revokeRole(bytes32,address)": {
        "details": "Revokes `role` from `account`. If `account` had been granted `role`, emits a {RoleRevoked} event. Requirements: - the caller must have ``role``'s admin role."
      },
      "rewardsSchedule(uint256,uint256,uint256)": {
        "details": "calculate the total amount of the released tokens within a period (start & end)",
        "params": {
          "end": "is the end timestamp (e.g block.timestamp .. now)",
          "start": "is the start timestamp within the schedule",
          "streamId": "the stream index"
        },
        "returns": {
          "_0": "amount of the released tokens for that period"
        }
      },
      "stake(uint256)": {
        "details": "a user stakes amount of AURORA tokens The user should approve these tokens to the treasury contract in order to complete the stake.",
        "params": {
          "amount": "is the AURORA amount."
        }
      },
      "stakeOnBehalfOfAnotherUser(address,uint256)": {
        "details": "stakeOnBehalfOfAnotherUser is called for airdropping Aurora users",
        "params": {
          "account": "the account address",
          "amount": "in AURORA tokens WARNING: rewards are not claimed during stake. Airdrop script must claim or only distribute to accounts without stake"
        }
      },
      "stakeOnBehalfOfOtherUsers(address[],uint256[],uint256)": {
        "details": "stakeOnBehalfOfOtherUsers called for airdropping Aurora users",
        "params": {
          "accounts": "the account address",
          "amounts": "in AURORA tokens",
          "batchAmount": "equals to the sum of amounts WARNING: rewards are not claimed during stake. Airdrop script must claim or only distribute to accounts without stake"
        }
      },
      "startEndScheduleIndex(uint256,uint256,uint256)": {
        "details": "gets start index and end index in a stream schedule",
        "params": {
          "end": "end time (in seconds)",
          "start": "start time (in seconds)",
          "streamId": "stream index"
        }
      },
      "supportsInterface(bytes4)": {
        "details": "See {IERC165-supportsInterface}."
      },
      "unstake(uint256)": {
        "details": "unstake amount from user shares value. The rest is re-staked",
        "params": {
          "amount": "to unstake"
        }
      },
      "unstakeAll()": {
        "details": "unstake all the user's shares"
      },
      "updateTreasury(address)": {
        "details": "restricted for the admin only. Admin should pause this contract before changing the treasury address by setting the pause =1 (for changing this variable, call adminPause(1))",
        "params": {
          "_treasury": "treasury contract address for the reward tokens"
        }
      },
      "withdraw(uint256)": {
        "details": "withdraw amount in the pending. User should wait for pending time (tau constant) in order to be able to withdraw.",
        "params": {
          "streamId": "stream index"
        }
      },
      "withdrawAll()": {
        "details": "withdraw all claimed balances which have passed pending periode. This function will reach gas limit with too many streams, so the frontend will allow individual stream withdrawals and disable withdrawAll."
      }
    },
    "title": "JetStakingV1",
    "version": 1
  },
  "userdoc": {
    "kind": "user",
    "methods": {
      "getStream(uint256)": {
        "notice": "this function doesn't return the stream schedule due to some stake slots limitations. To get the stream schedule, refer to getStreamSchedule"
      },
      "initialize(address,address,uint256[],uint256[],uint256,uint256,address,uint256,uint256)": {
        "notice": "By calling this function, the deployer of this contract must make sure that the AURORA reward amount was deposited to the treasury contract before initializing of the default AURORA stream."
      },
      "proposeStream(address,address,uint256,uint256,uint256[],uint256[],uint256)": {
        "notice": "treasury manager must call"
      },
      "updateTreasury(address)": {
        "notice": "updates treasury account"
      }
    },
    "version": 1
  },
  "storageLayout": {
    "storage": [
      {
        "astId": 416,
        "contract": "contracts/JetStakingV1.sol:JetStakingV1",
        "label": "_initialized",
        "offset": 0,
        "slot": "0",
        "type": "t_bool"
      },
      {
        "astId": 419,
        "contract": "contracts/JetStakingV1.sol:JetStakingV1",
        "label": "_initializing",
        "offset": 1,
        "slot": "0",
        "type": "t_bool"
      },
      {
        "astId": 1073,
        "contract": "contracts/JetStakingV1.sol:JetStakingV1",
        "label": "__gap",
        "offset": 0,
        "slot": "1",
        "type": "t_array(t_uint256)50_storage"
      },
      {
        "astId": 1322,
        "contract": "contracts/JetStakingV1.sol:JetStakingV1",
        "label": "__gap",
        "offset": 0,
        "slot": "51",
        "type": "t_array(t_uint256)50_storage"
      },
      {
        "astId": 48,
        "contract": "contracts/JetStakingV1.sol:JetStakingV1",
        "label": "_roles",
        "offset": 0,
        "slot": "101",
        "type": "t_mapping(t_bytes32,t_struct(RoleData)43_storage)"
      },
      {
        "astId": 335,
        "contract": "contracts/JetStakingV1.sol:JetStakingV1",
        "label": "__gap",
        "offset": 0,
        "slot": "102",
        "type": "t_array(t_uint256)49_storage"
      },
      {
        "astId": 1347,
        "contract": "contracts/JetStakingV1.sol:JetStakingV1",
        "label": "paused",
        "offset": 0,
        "slot": "151",
        "type": "t_uint256"
      },
      {
        "astId": 1608,
        "contract": "contracts/JetStakingV1.sol:JetStakingV1",
        "label": "totalAmountOfStakedAurora",
        "offset": 0,
        "slot": "152",
        "type": "t_uint256"
      },
      {
        "astId": 1610,
        "contract": "contracts/JetStakingV1.sol:JetStakingV1",
        "label": "touchedAt",
        "offset": 0,
        "slot": "153",
        "type": "t_uint256"
      },
      {
        "astId": 1612,
        "contract": "contracts/JetStakingV1.sol:JetStakingV1",
        "label": "totalAuroraShares",
        "offset": 0,
        "slot": "154",
        "type": "t_uint256"
      },
      {
        "astId": 1614,
        "contract": "contracts/JetStakingV1.sol:JetStakingV1",
        "label": "totalStreamShares",
        "offset": 0,
        "slot": "155",
        "type": "t_uint256"
      },
      {
        "astId": 1616,
        "contract": "contracts/JetStakingV1.sol:JetStakingV1",
        "label": "treasury",
        "offset": 0,
        "slot": "156",
        "type": "t_address"
      },
      {
        "astId": 1618,
        "contract": "contracts/JetStakingV1.sol:JetStakingV1",
        "label": "auroraToken",
        "offset": 0,
        "slot": "157",
        "type": "t_address"
      },
      {
        "astId": 1620,
        "contract": "contracts/JetStakingV1.sol:JetStakingV1",
        "label": "maxWeight",
        "offset": 0,
        "slot": "158",
        "type": "t_uint256"
      },
      {
        "astId": 1622,
        "contract": "contracts/JetStakingV1.sol:JetStakingV1",
        "label": "minWeight",
        "offset": 0,
        "slot": "159",
        "type": "t_uint256"
      },
      {
        "astId": 1683,
        "contract": "contracts/JetStakingV1.sol:JetStakingV1",
        "label": "users",
        "offset": 0,
        "slot": "160",
        "type": "t_mapping(t_address,t_struct(User)1641_storage)"
      },
      {
        "astId": 1687,
        "contract": "contracts/JetStakingV1.sol:JetStakingV1",
        "label": "streams",
        "offset": 0,
        "slot": "161",
        "type": "t_array(t_struct(Stream)1678_storage)dyn_storage"
      }
    ],
    "types": {
      "t_address": {
        "encoding": "inplace",
        "label": "address",
        "numberOfBytes": "20"
      },
      "t_array(t_struct(Stream)1678_storage)dyn_storage": {
        "base": "t_struct(Stream)1678_storage",
        "encoding": "dynamic_array",
        "label": "struct JetStakingV1.Stream[]",
        "numberOfBytes": "32"
      },
      "t_array(t_uint256)49_storage": {
        "base": "t_uint256",
        "encoding": "inplace",
        "label": "uint256[49]",
        "numberOfBytes": "1568"
      },
      "t_array(t_uint256)50_storage": {
        "base": "t_uint256",
        "encoding": "inplace",
        "label": "uint256[50]",
        "numberOfBytes": "1600"
      },
      "t_array(t_uint256)dyn_storage": {
        "base": "t_uint256",
        "encoding": "dynamic_array",
        "label": "uint256[]",
        "numberOfBytes": "32"
      },
      "t_bool": {
        "encoding": "inplace",
        "label": "bool",
        "numberOfBytes": "1"
      },
      "t_bytes32": {
        "encoding": "inplace",
        "label": "bytes32",
        "numberOfBytes": "32"
      },
      "t_mapping(t_address,t_bool)": {
        "encoding": "mapping",
        "key": "t_address",
        "label": "mapping(address => bool)",
        "numberOfBytes": "32",
        "value": "t_bool"
      },
      "t_mapping(t_address,t_struct(User)1641_storage)": {
        "encoding": "mapping",
        "key": "t_address",
        "label": "mapping(address => struct JetStakingV1.User)",
        "numberOfBytes": "32",
        "value": "t_struct(User)1641_storage"
      },
      "t_mapping(t_bytes32,t_struct(RoleData)43_storage)": {
        "encoding": "mapping",
        "key": "t_bytes32",
        "label": "mapping(bytes32 => struct AccessControlUpgradeable.RoleData)",
        "numberOfBytes": "32",
        "value": "t_struct(RoleData)43_storage"
      },
      "t_mapping(t_uint256,t_uint256)": {
        "encoding": "mapping",
        "key": "t_uint256",
        "label": "mapping(uint256 => uint256)",
        "numberOfBytes": "32",
        "value": "t_uint256"
      },
      "t_struct(RoleData)43_storage": {
        "encoding": "inplace",
        "label": "struct AccessControlUpgradeable.RoleData",
        "members": [
          {
            "astId": 40,
            "contract": "contracts/JetStakingV1.sol:JetStakingV1",
            "label": "members",
            "offset": 0,
            "slot": "0",
            "type": "t_mapping(t_address,t_bool)"
          },
          {
            "astId": 42,
            "contract": "contracts/JetStakingV1.sol:JetStakingV1",
            "label": "adminRole",
            "offset": 0,
            "slot": "1",
            "type": "t_bytes32"
          }
        ],
        "numberOfBytes": "64"
      },
      "t_struct(Schedule)1648_storage": {
        "encoding": "inplace",
        "label": "struct JetStakingV1.Schedule",
        "members": [
          {
            "astId": 1644,
            "contract": "contracts/JetStakingV1.sol:JetStakingV1",
            "label": "time",
            "offset": 0,
            "slot": "0",
            "type": "t_array(t_uint256)dyn_storage"
          },
          {
            "astId": 1647,
            "contract": "contracts/JetStakingV1.sol:JetStakingV1",
            "label": "reward",
            "offset": 0,
            "slot": "1",
            "type": "t_array(t_uint256)dyn_storage"
          }
        ],
        "numberOfBytes": "64"
      },
      "t_struct(Stream)1678_storage": {
        "encoding": "inplace",
        "label": "struct JetStakingV1.Stream",
        "members": [
          {
            "astId": 1650,
            "contract": "contracts/JetStakingV1.sol:JetStakingV1",
            "label": "owner",
            "offset": 0,
            "slot": "0",
            "type": "t_address"
          },
          {
            "astId": 1652,
            "contract": "contracts/JetStakingV1.sol:JetStakingV1",
            "label": "manager",
            "offset": 0,
            "slot": "1",
            "type": "t_address"
          },
          {
            "astId": 1654,
            "contract": "contracts/JetStakingV1.sol:JetStakingV1",
            "label": "rewardToken",
            "offset": 0,
            "slot": "2",
            "type": "t_address"
          },
          {
            "astId": 1656,
            "contract": "contracts/JetStakingV1.sol:JetStakingV1",
            "label": "auroraDepositAmount",
            "offset": 0,
            "slot": "3",
            "type": "t_uint256"
          },
          {
            "astId": 1658,
            "contract": "contracts/JetStakingV1.sol:JetStakingV1",
            "label": "auroraClaimedAmount",
            "offset": 0,
            "slot": "4",
            "type": "t_uint256"
          },
          {
            "astId": 1660,
            "contract": "contracts/JetStakingV1.sol:JetStakingV1",
            "label": "rewardDepositAmount",
            "offset": 0,
            "slot": "5",
            "type": "t_uint256"
          },
          {
            "astId": 1662,
            "contract": "contracts/JetStakingV1.sol:JetStakingV1",
            "label": "rewardClaimedAmount",
            "offset": 0,
            "slot": "6",
            "type": "t_uint256"
          },
          {
            "astId": 1664,
            "contract": "contracts/JetStakingV1.sol:JetStakingV1",
            "label": "maxDepositAmount",
            "offset": 0,
            "slot": "7",
            "type": "t_uint256"
          },
          {
            "astId": 1666,
            "contract": "contracts/JetStakingV1.sol:JetStakingV1",
            "label": "lastTimeOwnerClaimed",
            "offset": 0,
            "slot": "8",
            "type": "t_uint256"
          },
          {
            "astId": 1668,
            "contract": "contracts/JetStakingV1.sol:JetStakingV1",
            "label": "tau",
            "offset": 0,
            "slot": "9",
            "type": "t_uint256"
          },
          {
            "astId": 1670,
            "contract": "contracts/JetStakingV1.sol:JetStakingV1",
            "label": "rps",
            "offset": 0,
            "slot": "10",
            "type": "t_uint256"
          },
          {
            "astId": 1673,
            "contract": "contracts/JetStakingV1.sol:JetStakingV1",
            "label": "schedule",
            "offset": 0,
            "slot": "11",
            "type": "t_struct(Schedule)1648_storage"
          },
          {
            "astId": 1675,
            "contract": "contracts/JetStakingV1.sol:JetStakingV1",
            "label": "isProposed",
            "offset": 0,
            "slot": "13",
            "type": "t_bool"
          },
          {
            "astId": 1677,
            "contract": "contracts/JetStakingV1.sol:JetStakingV1",
            "label": "isActive",
            "offset": 1,
            "slot": "13",
            "type": "t_bool"
          }
        ],
        "numberOfBytes": "448"
      },
      "t_struct(User)1641_storage": {
        "encoding": "inplace",
        "label": "struct JetStakingV1.User",
        "members": [
          {
            "astId": 1624,
            "contract": "contracts/JetStakingV1.sol:JetStakingV1",
            "label": "deposit",
            "offset": 0,
            "slot": "0",
            "type": "t_uint256"
          },
          {
            "astId": 1626,
            "contract": "contracts/JetStakingV1.sol:JetStakingV1",
            "label": "auroraShares",
            "offset": 0,
            "slot": "1",
            "type": "t_uint256"
          },
          {
            "astId": 1628,
            "contract": "contracts/JetStakingV1.sol:JetStakingV1",
            "label": "streamShares",
            "offset": 0,
            "slot": "2",
            "type": "t_uint256"
          },
          {
            "astId": 1632,
            "contract": "contracts/JetStakingV1.sol:JetStakingV1",
            "label": "pendings",
            "offset": 0,
            "slot": "3",
            "type": "t_mapping(t_uint256,t_uint256)"
          },
          {
            "astId": 1636,
            "contract": "contracts/JetStakingV1.sol:JetStakingV1",
            "label": "releaseTime",
            "offset": 0,
            "slot": "4",
            "type": "t_mapping(t_uint256,t_uint256)"
          },
          {
            "astId": 1640,
            "contract": "contracts/JetStakingV1.sol:JetStakingV1",
            "label": "rpsDuringLastClaim",
            "offset": 0,
            "slot": "5",
            "type": "t_mapping(t_uint256,t_uint256)"
          }
        ],
        "numberOfBytes": "192"
      },
      "t_uint256": {
        "encoding": "inplace",
        "label": "uint256",
        "numberOfBytes": "32"
      }
    }
  }
}