{
  "address": "0x602beF79B8304cC897FE7441120dbC621E53463e",
  "abi": [
    {
      "anonymous": false,
      "inputs": [
        {
          "indexed": false,
          "internalType": "address",
          "name": "oldAdmin",
          "type": "address"
        },
        {
          "indexed": false,
          "internalType": "address",
          "name": "newAdmin",
          "type": "address"
        }
      ],
      "name": "OwnershipTransferred",
      "type": "event"
    },
    {
      "anonymous": false,
      "inputs": [
        {
          "indexed": true,
          "internalType": "uint256",
          "name": "streamId",
          "type": "uint256"
        },
        {
          "indexed": true,
          "internalType": "address",
          "name": "user",
          "type": "address"
        },
        {
          "indexed": false,
          "internalType": "uint256",
          "name": "amount",
          "type": "uint256"
        },
        {
          "indexed": false,
          "internalType": "uint256",
          "name": "timestamp",
          "type": "uint256"
        }
      ],
      "name": "Pending",
      "type": "event"
    },
    {
      "anonymous": false,
      "inputs": [
        {
          "indexed": true,
          "internalType": "uint256",
          "name": "streamId",
          "type": "uint256"
        },
        {
          "indexed": true,
          "internalType": "address",
          "name": "user",
          "type": "address"
        },
        {
          "indexed": false,
          "internalType": "uint256",
          "name": "amount",
          "type": "uint256"
        },
        {
          "indexed": false,
          "internalType": "uint256",
          "name": "timestamp",
          "type": "uint256"
        }
      ],
      "name": "Released",
      "type": "event"
    },
    {
      "anonymous": false,
      "inputs": [
        {
          "indexed": true,
          "internalType": "bytes32",
          "name": "role",
          "type": "bytes32"
        },
        {
          "indexed": true,
          "internalType": "bytes32",
          "name": "previousAdminRole",
          "type": "bytes32"
        },
        {
          "indexed": true,
          "internalType": "bytes32",
          "name": "newAdminRole",
          "type": "bytes32"
        }
      ],
      "name": "RoleAdminChanged",
      "type": "event"
    },
    {
      "anonymous": false,
      "inputs": [
        {
          "indexed": true,
          "internalType": "bytes32",
          "name": "role",
          "type": "bytes32"
        },
        {
          "indexed": true,
          "internalType": "address",
          "name": "account",
          "type": "address"
        },
        {
          "indexed": true,
          "internalType": "address",
          "name": "sender",
          "type": "address"
        }
      ],
      "name": "RoleGranted",
      "type": "event"
    },
    {
      "anonymous": false,
      "inputs": [
        {
          "indexed": true,
          "internalType": "bytes32",
          "name": "role",
          "type": "bytes32"
        },
        {
          "indexed": true,
          "internalType": "address",
          "name": "account",
          "type": "address"
        },
        {
          "indexed": true,
          "internalType": "address",
          "name": "sender",
          "type": "address"
        }
      ],
      "name": "RoleRevoked",
      "type": "event"
    },
    {
      "anonymous": false,
      "inputs": [
        {
          "indexed": true,
          "internalType": "address",
          "name": "user",
          "type": "address"
        },
        {
          "indexed": false,
          "internalType": "uint256",
          "name": "amount",
          "type": "uint256"
        },
        {
          "indexed": false,
          "internalType": "uint256",
          "name": "shares",
          "type": "uint256"
        },
        {
          "indexed": false,
          "internalType": "uint256",
          "name": "timestamp",
          "type": "uint256"
        }
      ],
      "name": "Staked",
      "type": "event"
    },
    {
      "anonymous": false,
      "inputs": [
        {
          "indexed": true,
          "internalType": "uint256",
          "name": "streamId",
          "type": "uint256"
        },
        {
          "indexed": true,
          "internalType": "address",
          "name": "owner",
          "type": "address"
        },
        {
          "indexed": false,
          "internalType": "uint256",
          "name": "timestamp",
          "type": "uint256"
        }
      ],
      "name": "StreamCreated",
      "type": "event"
    },
    {
      "anonymous": false,
      "inputs": [
        {
          "indexed": true,
          "internalType": "uint256",
          "name": "streamId",
          "type": "uint256"
        },
        {
          "indexed": true,
          "internalType": "address",
          "name": "owner",
          "type": "address"
        },
        {
          "indexed": false,
          "internalType": "uint256",
          "name": "timestamp",
          "type": "uint256"
        }
      ],
      "name": "StreamProposalCancelled",
      "type": "event"
    },
    {
      "anonymous": false,
      "inputs": [
        {
          "indexed": true,
          "internalType": "uint256",
          "name": "streamId",
          "type": "uint256"
        },
        {
          "indexed": true,
          "internalType": "address",
          "name": "owner",
          "type": "address"
        },
        {
          "indexed": false,
          "internalType": "uint256",
          "name": "timestamp",
          "type": "uint256"
        }
      ],
      "name": "StreamProposed",
      "type": "event"
    },
    {
      "anonymous": false,
      "inputs": [
        {
          "indexed": true,
          "internalType": "uint256",
          "name": "streamId",
          "type": "uint256"
        },
        {
          "indexed": true,
          "internalType": "address",
          "name": "owner",
          "type": "address"
        },
        {
          "indexed": false,
          "internalType": "uint256",
          "name": "timestamp",
          "type": "uint256"
        }
      ],
      "name": "StreamRemoved",
      "type": "event"
    },
    {
      "anonymous": false,
      "inputs": [
        {
          "indexed": true,
          "internalType": "address",
          "name": "user",
          "type": "address"
        },
        {
          "indexed": false,
          "internalType": "uint256",
          "name": "amount",
          "type": "uint256"
        },
        {
          "indexed": false,
          "internalType": "uint256",
          "name": "timestamp",
          "type": "uint256"
        }
      ],
      "name": "Unstaked",
      "type": "event"
    },
    {
      "inputs": [],
      "name": "AIRDROP_ROLE",
      "outputs": [
        {
          "internalType": "bytes32",
          "name": "",
          "type": "bytes32"
        }
      ],
      "stateMutability": "view",
      "type": "function"
    },
    {
      "inputs": [],
      "name": "CLAIM_ROLE",
      "outputs": [
        {
          "internalType": "bytes32",
          "name": "",
          "type": "bytes32"
        }
      ],
      "stateMutability": "view",
      "type": "function"
    },
    {
      "inputs": [],
      "name": "DEFAULT_ADMIN_ROLE",
      "outputs": [
        {
          "internalType": "bytes32",
          "name": "",
          "type": "bytes32"
        }
      ],
      "stateMutability": "view",
      "type": "function"
    },
    {
      "inputs": [],
      "name": "PAUSE_ROLE",
      "outputs": [
        {
          "internalType": "bytes32",
          "name": "",
          "type": "bytes32"
        }
      ],
      "stateMutability": "view",
      "type": "function"
    },
    {
      "inputs": [
        {
          "internalType": "uint256",
          "name": "_flags",
          "type": "uint256"
        }
      ],
      "name": "__AdminControlled_init",
      "outputs": [],
      "stateMutability": "nonpayable",
      "type": "function"
    },
    {
      "inputs": [],
      "name": "admin",
      "outputs": [
        {
          "internalType": "address",
          "name": "",
          "type": "address"
        }
      ],
      "stateMutability": "view",
      "type": "function"
    },
    {
      "inputs": [
        {
          "internalType": "address",
          "name": "target",
          "type": "address"
        },
        {
          "internalType": "bytes",
          "name": "data",
          "type": "bytes"
        }
      ],
      "name": "adminDelegatecall",
      "outputs": [
        {
          "internalType": "bytes",
          "name": "",
          "type": "bytes"
        }
      ],
      "stateMutability": "payable",
      "type": "function"
    },
    {
      "inputs": [
        {
          "internalType": "uint256",
          "name": "flags",
          "type": "uint256"
        }
      ],
      "name": "adminPause",
      "outputs": [],
      "stateMutability": "nonpayable",
      "type": "function"
    },
    {
      "inputs": [],
      "name": "adminReceiveEth",
      "outputs": [],
      "stateMutability": "payable",
      "type": "function"
    },
    {
      "inputs": [
        {
          "internalType": "address payable",
          "name": "destination",
          "type": "address"
        },
        {
          "internalType": "uint256",
          "name": "amount",
          "type": "uint256"
        }
      ],
      "name": "adminSendEth",
      "outputs": [],
      "stateMutability": "nonpayable",
      "type": "function"
    },
    {
      "inputs": [
        {
          "internalType": "uint256",
          "name": "key",
          "type": "uint256"
        },
        {
          "internalType": "uint256",
          "name": "value",
          "type": "uint256"
        }
      ],
      "name": "adminSstore",
      "outputs": [],
      "stateMutability": "nonpayable",
      "type": "function"
    },
    {
      "inputs": [
        {
          "internalType": "uint256",
          "name": "key",
          "type": "uint256"
        },
        {
          "internalType": "uint256",
          "name": "value",
          "type": "uint256"
        },
        {
          "internalType": "uint256",
          "name": "mask",
          "type": "uint256"
        }
      ],
      "name": "adminSstoreWithMask",
      "outputs": [],
      "stateMutability": "nonpayable",
      "type": "function"
    },
    {
      "inputs": [],
      "name": "auroraToken",
      "outputs": [
        {
          "internalType": "address",
          "name": "",
          "type": "address"
        }
      ],
      "stateMutability": "view",
      "type": "function"
    },
    {
      "inputs": [
        {
          "internalType": "address",
          "name": "account",
          "type": "address"
        },
        {
          "internalType": "uint256[]",
          "name": "streamIds",
          "type": "uint256[]"
        }
      ],
      "name": "batchClaimOnBehalfOfAnotherUser",
      "outputs": [],
      "stateMutability": "nonpayable",
      "type": "function"
    },
    {
      "inputs": [
        {
          "internalType": "uint256[]",
          "name": "streamIds",
          "type": "uint256[]"
        }
      ],
      "name": "batchMoveRewardsToPending",
      "outputs": [],
      "stateMutability": "nonpayable",
      "type": "function"
    },
    {
      "inputs": [
        {
          "internalType": "address[]",
          "name": "accounts",
          "type": "address[]"
        },
        {
          "internalType": "uint256[]",
          "name": "amounts",
          "type": "uint256[]"
        },
        {
          "internalType": "uint256",
          "name": "batchAmount",
          "type": "uint256"
        }
      ],
      "name": "batchStakeOnBehalfOfOtherUsers",
      "outputs": [],
      "stateMutability": "nonpayable",
      "type": "function"
    },
    {
      "inputs": [
        {
          "internalType": "uint256[]",
          "name": "streamIds",
          "type": "uint256[]"
        }
      ],
      "name": "batchWithdraw",
      "outputs": [],
      "stateMutability": "nonpayable",
      "type": "function"
    },
    {
      "inputs": [
        {
          "internalType": "uint256",
          "name": "streamId",
          "type": "uint256"
        }
      ],
      "name": "cancelStreamProposal",
      "outputs": [],
      "stateMutability": "nonpayable",
      "type": "function"
    },
    {
      "inputs": [
        {
          "internalType": "uint256",
          "name": "streamId",
          "type": "uint256"
        },
        {
          "internalType": "uint256",
          "name": "rewardTokenAmount",
          "type": "uint256"
        }
      ],
      "name": "createStream",
      "outputs": [],
      "stateMutability": "nonpayable",
      "type": "function"
    },
    {
      "inputs": [
        {
          "internalType": "uint256",
          "name": "streamId",
          "type": "uint256"
        },
        {
          "internalType": "address",
          "name": "account",
          "type": "address"
        }
      ],
      "name": "getAmountOfShares",
      "outputs": [
        {
          "internalType": "uint256",
          "name": "",
          "type": "uint256"
        }
      ],
      "stateMutability": "view",
      "type": "function"
    },
    {
      "inputs": [
        {
          "internalType": "uint256",
          "name": "streamId",
          "type": "uint256"
        }
      ],
      "name": "getLatestRewardPerShare",
      "outputs": [
        {
          "internalType": "uint256",
          "name": "",
          "type": "uint256"
        }
      ],
      "stateMutability": "view",
      "type": "function"
    },
    {
      "inputs": [
        {
          "internalType": "uint256",
          "name": "streamId",
          "type": "uint256"
        },
        {
          "internalType": "address",
          "name": "account",
          "type": "address"
        }
      ],
      "name": "getPending",
      "outputs": [
        {
          "internalType": "uint256",
          "name": "",
          "type": "uint256"
        }
      ],
      "stateMutability": "view",
      "type": "function"
    },
    {
      "inputs": [
        {
          "internalType": "uint256",
          "name": "streamId",
          "type": "uint256"
        },
        {
          "internalType": "address",
          "name": "account",
          "type": "address"
        }
      ],
      "name": "getReleaseTime",
      "outputs": [
        {
          "internalType": "uint256",
          "name": "",
          "type": "uint256"
        }
      ],
      "stateMutability": "view",
      "type": "function"
    },
    {
      "inputs": [
        {
          "internalType": "uint256",
          "name": "streamId",
          "type": "uint256"
        }
      ],
      "name": "getRewardPerShare",
      "outputs": [
        {
          "internalType": "uint256",
          "name": "",
          "type": "uint256"
        }
      ],
      "stateMutability": "view",
      "type": "function"
    },
    {
      "inputs": [
        {
          "internalType": "uint256",
          "name": "streamId",
          "type": "uint256"
        },
        {
          "internalType": "address",
          "name": "account",
          "type": "address"
        }
      ],
      "name": "getRewardPerShareForUser",
      "outputs": [
        {
          "internalType": "uint256",
          "name": "",
          "type": "uint256"
        }
      ],
      "stateMutability": "view",
      "type": "function"
    },
    {
      "inputs": [
        {
          "internalType": "uint256",
          "name": "streamId",
          "type": "uint256"
        }
      ],
      "name": "getRewardsAmount",
      "outputs": [
        {
          "internalType": "uint256",
          "name": "",
          "type": "uint256"
        }
      ],
      "stateMutability": "view",
      "type": "function"
    },
    {
      "inputs": [
        {
          "internalType": "bytes32",
          "name": "role",
          "type": "bytes32"
        }
      ],
      "name": "getRoleAdmin",
      "outputs": [
        {
          "internalType": "bytes32",
          "name": "",
          "type": "bytes32"
        }
      ],
      "stateMutability": "view",
      "type": "function"
    },
    {
      "inputs": [
        {
          "internalType": "uint256",
          "name": "streamId",
          "type": "uint256"
        }
      ],
      "name": "getStream",
      "outputs": [
        {
          "internalType": "address",
          "name": "streamOwner",
          "type": "address"
        },
        {
          "internalType": "address",
          "name": "rewardToken",
          "type": "address"
        },
        {
          "internalType": "uint256",
          "name": "auroraDepositAmount",
          "type": "uint256"
        },
        {
          "internalType": "uint256",
          "name": "auroraClaimedAmount",
          "type": "uint256"
        },
        {
          "internalType": "uint256",
          "name": "rewardDepositAmount",
          "type": "uint256"
        },
        {
          "internalType": "uint256",
          "name": "rewardClaimedAmount",
          "type": "uint256"
        },
        {
          "internalType": "uint256",
          "name": "maxDepositAmount",
          "type": "uint256"
        },
        {
          "internalType": "uint256",
          "name": "lastTimeOwnerClaimed",
          "type": "uint256"
        },
        {
          "internalType": "uint256",
          "name": "tau",
          "type": "uint256"
        },
        {
          "internalType": "bool",
          "name": "isProposed",
          "type": "bool"
        },
        {
          "internalType": "bool",
          "name": "isActive",
          "type": "bool"
        }
      ],
      "stateMutability": "view",
      "type": "function"
    },
    {
      "inputs": [
        {
          "internalType": "uint256",
          "name": "streamId",
          "type": "uint256"
        },
        {
          "internalType": "address",
          "name": "account",
          "type": "address"
        }
      ],
      "name": "getStreamClaimableAmount",
      "outputs": [
        {
          "internalType": "uint256",
          "name": "",
          "type": "uint256"
        }
      ],
      "stateMutability": "view",
      "type": "function"
    },
    {
      "inputs": [
        {
          "internalType": "uint256",
          "name": "streamId",
          "type": "uint256"
        }
      ],
      "name": "getStreamOwnerClaimableAmount",
      "outputs": [
        {
          "internalType": "uint256",
          "name": "",
          "type": "uint256"
        }
      ],
      "stateMutability": "view",
      "type": "function"
    },
    {
      "inputs": [
        {
          "internalType": "uint256",
          "name": "streamId",
          "type": "uint256"
        }
      ],
      "name": "getStreamSchedule",
      "outputs": [
        {
          "internalType": "uint256[]",
          "name": "scheduleTimes",
          "type": "uint256[]"
        },
        {
          "internalType": "uint256[]",
          "name": "scheduleRewards",
          "type": "uint256[]"
        }
      ],
      "stateMutability": "view",
      "type": "function"
    },
    {
      "inputs": [],
      "name": "getStreamsCount",
      "outputs": [
        {
          "internalType": "uint256",
          "name": "",
          "type": "uint256"
        }
      ],
      "stateMutability": "view",
      "type": "function"
    },
    {
      "inputs": [],
      "name": "getTotalAmountOfStakedAurora",
      "outputs": [
        {
          "internalType": "uint256",
          "name": "",
          "type": "uint256"
        }
      ],
      "stateMutability": "view",
      "type": "function"
    },
    {
      "inputs": [
        {
          "internalType": "address",
          "name": "token",
          "type": "address"
        }
      ],
      "name": "getTreasuryBalance",
      "outputs": [
        {
          "internalType": "uint256",
          "name": "",
          "type": "uint256"
        }
      ],
      "stateMutability": "view",
      "type": "function"
    },
    {
      "inputs": [
        {
          "internalType": "address",
          "name": "account",
          "type": "address"
        }
      ],
      "name": "getUserShares",
      "outputs": [
        {
          "internalType": "uint256",
          "name": "",
          "type": "uint256"
        }
      ],
      "stateMutability": "view",
      "type": "function"
    },
    {
      "inputs": [
        {
          "internalType": "address",
          "name": "account",
          "type": "address"
        }
      ],
      "name": "getUserTotalDeposit",
      "outputs": [
        {
          "internalType": "uint256",
          "name": "",
          "type": "uint256"
        }
      ],
      "stateMutability": "view",
      "type": "function"
    },
    {
      "inputs": [
        {
          "internalType": "bytes32",
          "name": "role",
          "type": "bytes32"
        },
        {
          "internalType": "address",
          "name": "account",
          "type": "address"
        }
      ],
      "name": "grantRole",
      "outputs": [],
      "stateMutability": "nonpayable",
      "type": "function"
    },
    {
      "inputs": [
        {
          "internalType": "bytes32",
          "name": "role",
          "type": "bytes32"
        },
        {
          "internalType": "address",
          "name": "account",
          "type": "address"
        }
      ],
      "name": "hasRole",
      "outputs": [
        {
          "internalType": "bool",
          "name": "",
          "type": "bool"
        }
      ],
      "stateMutability": "view",
      "type": "function"
    },
    {
      "inputs": [
        {
          "internalType": "address",
          "name": "aurora",
          "type": "address"
        },
        {
          "internalType": "uint256[]",
          "name": "scheduleTimes",
          "type": "uint256[]"
        },
        {
          "internalType": "uint256[]",
          "name": "scheduleRewards",
          "type": "uint256[]"
        },
        {
          "internalType": "uint256",
          "name": "tauAuroraStream",
          "type": "uint256"
        },
        {
          "internalType": "uint256",
          "name": "_flags",
          "type": "uint256"
        },
        {
          "internalType": "address",
          "name": "_treasury",
          "type": "address"
        }
      ],
      "name": "initialize",
      "outputs": [],
      "stateMutability": "nonpayable",
      "type": "function"
    },
    {
      "inputs": [],
      "name": "moveAllRewardsToPending",
      "outputs": [],
      "stateMutability": "nonpayable",
      "type": "function"
    },
    {
      "inputs": [
        {
          "internalType": "uint256",
          "name": "streamId",
          "type": "uint256"
        }
      ],
      "name": "moveRewardsToPending",
      "outputs": [],
      "stateMutability": "nonpayable",
      "type": "function"
    },
    {
      "inputs": [],
      "name": "paused",
      "outputs": [
        {
          "internalType": "uint256",
          "name": "",
          "type": "uint256"
        }
      ],
      "stateMutability": "view",
      "type": "function"
    },
    {
      "inputs": [
        {
          "internalType": "address",
          "name": "streamOwner",
          "type": "address"
        },
        {
          "internalType": "address",
          "name": "rewardToken",
          "type": "address"
        },
        {
          "internalType": "uint256",
          "name": "auroraDepositAmount",
          "type": "uint256"
        },
        {
          "internalType": "uint256",
          "name": "maxDepositAmount",
          "type": "uint256"
        },
        {
          "internalType": "uint256[]",
          "name": "scheduleTimes",
          "type": "uint256[]"
        },
        {
          "internalType": "uint256[]",
          "name": "scheduleRewards",
          "type": "uint256[]"
        },
        {
          "internalType": "uint256",
          "name": "tau",
          "type": "uint256"
        }
      ],
      "name": "proposeStream",
      "outputs": [],
      "stateMutability": "nonpayable",
      "type": "function"
    },
    {
      "inputs": [
        {
          "internalType": "uint256",
          "name": "streamId",
          "type": "uint256"
        }
      ],
      "name": "releaseAuroraRewardsToStreamOwner",
      "outputs": [],
      "stateMutability": "nonpayable",
      "type": "function"
    },
    {
      "inputs": [
        {
          "internalType": "uint256",
          "name": "streamId",
          "type": "uint256"
        },
        {
          "internalType": "address",
          "name": "streamFundReceiver",
          "type": "address"
        }
      ],
      "name": "removeStream",
      "outputs": [],
      "stateMutability": "nonpayable",
      "type": "function"
    },
    {
      "inputs": [
        {
          "internalType": "bytes32",
          "name": "role",
          "type": "bytes32"
        },
        {
          "internalType": "address",
          "name": "account",
          "type": "address"
        }
      ],
      "name": "renounceRole",
      "outputs": [],
      "stateMutability": "nonpayable",
      "type": "function"
    },
    {
      "inputs": [
        {
          "internalType": "bytes32",
          "name": "role",
          "type": "bytes32"
        },
        {
          "internalType": "address",
          "name": "account",
          "type": "address"
        }
      ],
      "name": "revokeRole",
      "outputs": [],
      "stateMutability": "nonpayable",
      "type": "function"
    },
    {
      "inputs": [
        {
          "internalType": "uint256",
          "name": "streamId",
          "type": "uint256"
        },
        {
          "internalType": "uint256",
          "name": "start",
          "type": "uint256"
        },
        {
          "internalType": "uint256",
          "name": "end",
          "type": "uint256"
        }
      ],
      "name": "rewardsSchedule",
      "outputs": [
        {
          "internalType": "uint256",
          "name": "",
          "type": "uint256"
        }
      ],
      "stateMutability": "view",
      "type": "function"
    },
    {
      "inputs": [
        {
          "internalType": "uint256",
          "name": "amount",
          "type": "uint256"
        }
      ],
      "name": "stake",
      "outputs": [],
      "stateMutability": "nonpayable",
      "type": "function"
    },
    {
      "inputs": [
        {
          "internalType": "address",
          "name": "account",
          "type": "address"
        },
        {
          "internalType": "uint256",
          "name": "amount",
          "type": "uint256"
        }
      ],
      "name": "stakeOnBehalfOfAnotherUser",
      "outputs": [],
      "stateMutability": "nonpayable",
      "type": "function"
    },
    {
      "inputs": [
        {
          "internalType": "uint256",
          "name": "streamId",
          "type": "uint256"
        },
        {
          "internalType": "uint256",
          "name": "start",
          "type": "uint256"
        },
        {
          "internalType": "uint256",
          "name": "end",
          "type": "uint256"
        }
      ],
      "name": "startEndScheduleIndex",
      "outputs": [
        {
          "internalType": "uint256",
          "name": "startIndex",
          "type": "uint256"
        },
        {
          "internalType": "uint256",
          "name": "endIndex",
          "type": "uint256"
        }
      ],
      "stateMutability": "view",
      "type": "function"
    },
    {
      "inputs": [
        {
          "internalType": "bytes4",
          "name": "interfaceId",
          "type": "bytes4"
        }
      ],
      "name": "supportsInterface",
      "outputs": [
        {
          "internalType": "bool",
          "name": "",
          "type": "bool"
        }
      ],
      "stateMutability": "view",
      "type": "function"
    },
    {
      "inputs": [],
      "name": "totalAmountOfStakedAurora",
      "outputs": [
        {
          "internalType": "uint256",
          "name": "",
          "type": "uint256"
        }
      ],
      "stateMutability": "view",
      "type": "function"
    },
    {
      "inputs": [],
      "name": "totalAuroraShares",
      "outputs": [
        {
          "internalType": "uint256",
          "name": "",
          "type": "uint256"
        }
      ],
      "stateMutability": "view",
      "type": "function"
    },
    {
      "inputs": [],
      "name": "totalStreamShares",
      "outputs": [
        {
          "internalType": "uint256",
          "name": "",
          "type": "uint256"
        }
      ],
      "stateMutability": "view",
      "type": "function"
    },
    {
      "inputs": [],
      "name": "touchedAt",
      "outputs": [
        {
          "internalType": "uint256",
          "name": "",
          "type": "uint256"
        }
      ],
      "stateMutability": "view",
      "type": "function"
    },
    {
      "inputs": [
        {
          "internalType": "address",
          "name": "newAdmin",
          "type": "address"
        }
      ],
      "name": "transferOwnership",
      "outputs": [],
      "stateMutability": "nonpayable",
      "type": "function"
    },
    {
      "inputs": [],
      "name": "treasury",
      "outputs": [
        {
          "internalType": "address",
          "name": "",
          "type": "address"
        }
      ],
      "stateMutability": "view",
      "type": "function"
    },
    {
      "inputs": [
        {
          "internalType": "uint256",
          "name": "amount",
          "type": "uint256"
        }
      ],
      "name": "unstake",
      "outputs": [],
      "stateMutability": "nonpayable",
      "type": "function"
    },
    {
      "inputs": [],
      "name": "unstakeAll",
      "outputs": [],
      "stateMutability": "nonpayable",
      "type": "function"
    },
    {
      "inputs": [
        {
          "internalType": "address",
          "name": "_treasury",
          "type": "address"
        }
      ],
      "name": "updateTreasury",
      "outputs": [],
      "stateMutability": "nonpayable",
      "type": "function"
    },
    {
      "inputs": [
        {
          "internalType": "uint256",
          "name": "streamId",
          "type": "uint256"
        }
      ],
      "name": "withdraw",
      "outputs": [],
      "stateMutability": "nonpayable",
      "type": "function"
    },
    {
      "inputs": [],
      "name": "withdrawAll",
      "outputs": [],
      "stateMutability": "nonpayable",
      "type": "function"
    }
  ],
  "transactionHash": "0xca4f7a86d31c047034042c9dd8486570863076a36d47b85136c5cf247e86e0c2",
  "args": [],
  "solcInputHash": "10873df1e31e9baf4f2b30f671e97c53",
  "bytecode": "0x60a06040523060805234801561001457600080fd5b50608051614b18610030600039600061398b0152614b186000f3fe6080604052600436106102c85760003560e01c806301ffc9a7146102cd57806303687788146103025780630efd83101461033057806312dd67fe146103505780631c61e617146103705780631dd00452146103905780631e0fbfa2146103d45780631fd8c5f4146103f6578063248a9ca31461040c5780632692c59f1461042c5780632ca783f31461044e5780632e17de781461046e5780632e1a7d4d1461048e5780632f2ff15d146104ae578063339469b9146104ce57806335322f37146104ee57806336568abe146105035780633895a27514610523578063389ed26714610539578063396a6c141461055b5780633ba31abf1461057b5780634981912e1461059b578063530208f2146105c957806355021b3a146105e95780635578fdb21461060957806357baeac8146106365780635c975abb1461065657806361d027b31461066c5780636458edd31461068c578063687dd46c146106ac5780636c4624c3146106cc5780636db8e53d146106ec57806370bc770c1461070257806372e55399146107305780637f37df3b146107505780637f51bb1f14610794578063853828b6146107b457806386c1b4eb146107c9578063894e9a0d146107eb5780638bc34e771461086d5780638d40bd031461088257806390403322146108a257806391d14854146108c2578063993b21c1146108e25780639c52a92014610902578063a217fddf14610922578063a4c828dc14610937578063a694fc3a1461096d578063b8e9744c1461098d578063ba0cb22b146109ad578063bb07ec1b146109e6578063be831a2e146109fc578063c22c09f414610a1c578063c892772314610a3c578063c89e9ee814610a80578063cd5ba59014610aa0578063d547741f14610ab5578063e335e79a14610ad5578063ee13ad8e14610aea578063f2fde38b14610b0a578063f48ab4e01461044c578063f851a44014610b2a578063fbab974014610b4a575b600080fd5b3480156102d957600080fd5b506102ed6102e836600461408e565b610b6a565b60405190151581526020015b60405180910390f35b34801561030e57600080fd5b5061032261031d3660046140b8565b610ba1565b6040519081526020016102f9565b34801561033c57600080fd5b5061032261034b3660046140f9565b610f67565b34801561035c57600080fd5b5061032261036b366004614129565b610fb1565b34801561037c57600080fd5b5061032261038b3660046140f9565b611079565b34801561039c57600080fd5b506103226103ab3660046140f9565b6001600160a01b03166000908152609f6020908152604080832093835260059093019052205490565b3480156103e057600080fd5b50610322600080516020614ac383398151915281565b34801561040257600080fd5b50610322609a5481565b34801561041857600080fd5b50610322610427366004614129565b6110ef565b34801561043857600080fd5b5061044c610447366004614129565b611104565b005b34801561045a57600080fd5b5061044c610469366004614142565b611123565b34801561047a57600080fd5b5061044c610489366004614129565b6111aa565b34801561049a57600080fd5b5061044c6104a9366004614129565b61122a565b3480156104ba57600080fd5b5061044c6104c93660046140f9565b6112d1565b3480156104da57600080fd5b5061044c6104e9366004614242565b6112ee565b3480156104fa57600080fd5b5061044c61147e565b34801561050f57600080fd5b5061044c61051e3660046140f9565b6114f9565b34801561052f57600080fd5b5061032260995481565b34801561054557600080fd5b50610322600080516020614a6383398151915281565b34801561056757600080fd5b50610322610576366004614129565b611573565b34801561058757600080fd5b5061044c6105963660046140f9565b6115f2565b3480156105a757600080fd5b506105bb6105b63660046140b8565b611885565b6040516102f992919061430c565b3480156105d557600080fd5b5061044c6105e4366004614142565b611a66565b3480156105f557600080fd5b5061044c61060436600461431a565b611aa8565b34801561061557600080fd5b50609e54610629906001600160a01b031681565b6040516102f991906143bf565b34801561064257600080fd5b506103226106513660046143d3565b611c1f565b34801561066257600080fd5b5061032260985481565b34801561067857600080fd5b50609d54610629906001600160a01b031681565b34801561069857600080fd5b5061044c6106a73660046143f0565b611c93565b3480156106b857600080fd5b5061044c6106c736600461443f565b611cb1565b3480156106d857600080fd5b5061044c6106e73660046140b8565b611cfa565b3480156106f857600080fd5b50610322609c5481565b34801561070e57600080fd5b5061072261071d366004614129565b611d12565b6040516102f99291906144ae565b34801561073c57600080fd5b5061044c61074b36600461443f565b611e10565b34801561075c57600080fd5b5061032261076b3660046140f9565b6001600160a01b03166000908152609f6020908152604080832093835260039093019052205490565b3480156107a057600080fd5b5061044c6107af3660046143d3565b611f06565b3480156107c057600080fd5b5061044c611f5b565b3480156107d557600080fd5b50610322600080516020614a8383398151915281565b3480156107f757600080fd5b5061080b610806366004614129565b611ffb565b604080516001600160a01b039c8d1681529b909a1660208c0152988a01979097526060890195909552608088019390935260a087019190915260c086015260e085015261010084015215156101208301521515610140820152610160016102f9565b34801561087957600080fd5b5061044c6120cd565b34801561088e57600080fd5b5061044c61089d3660046144d3565b612118565b3480156108ae57600080fd5b5061044c6108bd366004614129565b612400565b3480156108ce57600080fd5b506102ed6108dd3660046140f9565b612543565b3480156108ee57600080fd5b506103226108fd366004614129565b61256e565b34801561090e57600080fd5b5061044c61091d366004614129565b61259c565b34801561092e57600080fd5b50610322600081565b34801561094357600080fd5b506103226109523660046143d3565b6001600160a01b03166000908152609f602052604090205490565b34801561097957600080fd5b5061044c610988366004614129565b6126f0565b6109a061099b3660046144f5565b612758565b6040516102f991906145f4565b3480156109b957600080fd5b506103226109c83660046143d3565b6001600160a01b03166000908152609f602052604090206001015490565b3480156109f257600080fd5b50610322609b5481565b348015610a0857600080fd5b5061044c610a173660046144d3565b6127e1565b348015610a2857600080fd5b5061044c610a37366004614607565b6127f2565b348015610a4857600080fd5b50610322610a573660046140f9565b6001600160a01b03166000908152609f6020908152604080832093835260049093019052205490565b348015610a8c57600080fd5b50610322610a9b366004614129565b612a7e565b348015610aac57600080fd5b50610322612ba5565b348015610ac157600080fd5b5061044c610ad03660046140f9565b612bd8565b348015610ae157600080fd5b5060a054610322565b348015610af657600080fd5b5061044c610b05366004614129565b612bf5565b348015610b1657600080fd5b5061044c610b253660046143d3565b612c8d565b348015610b3657600080fd5b50609754610629906001600160a01b031681565b348015610b5657600080fd5b5061044c610b65366004614129565b612d8d565b60006001600160e01b03198216637965db0b60e01b1480610b9b57506301ffc9a760e01b6001600160e01b03198316145b92915050565b6000806000610bb1868686611885565b8092508193505050600060a08781548110610bce57610bce6146a3565b90600052602060002090600d0201600a01905060008083851415610cbb5782600101856001610bfd91906146cf565b81548110610c0d57610c0d6146a3565b9060005260206000200154836001018681548110610c2d57610c2d6146a3565b9060005260206000200154610c4291906146e7565b9050826000018581548110610c5957610c596146a3565b60009182526020909120015483610c718760016146cf565b81548110610c8157610c816146a3565b9060005260206000200154610c9691906146e7565b610ca089896146e7565b610caa90836146fe565b610cb4919061471d565b9150610f59565b82600101856001610ccc91906146cf565b81548110610cdc57610cdc6146a3565b9060005260206000200154836001018681548110610cfc57610cfc6146a3565b9060005260206000200154610d1191906146e7565b9050826000018581548110610d2857610d286146a3565b60009182526020909120015483610d408760016146cf565b81548110610d5057610d506146a3565b9060005260206000200154610d6591906146e7565b8884610d728860016146cf565b81548110610d8257610d826146a3565b9060005260206000200154610d9791906146e7565b610da190836146fe565b610dab919061471d565b91506000610dba8660016146cf565b90505b84811015610e3b5783600101816001610dd691906146cf565b81548110610de657610de66146a3565b9060005260206000200154846001018281548110610e0657610e066146a3565b9060005260206000200154610e1b91906146e7565b9150610e2782846146cf565b925080610e338161473f565b915050610dbd565b50826000018481548110610e5157610e516146a3565b9060005260206000200154871115610f595782600101846001610e7491906146cf565b81548110610e8457610e846146a3565b9060005260206000200154836001018581548110610ea457610ea46146a3565b9060005260206000200154610eb991906146e7565b9050826000018581548110610ed057610ed06146a3565b60009182526020909120015483610ee88760016146cf565b81548110610ef857610ef86146a3565b9060005260206000200154610f0d91906146e7565b836000018581548110610f2257610f226146a3565b906000526020600020015488610f3891906146e7565b610f4290836146fe565b610f4c919061471d565b610f5690836146cf565b91505b5093505050505b9392505050565b600082610f9057506001600160a01b0381166000908152609f6020526040902060010154610b9b565b506001600160a01b03166000908152609f6020526040902060020154919050565b600081610fd95760405162461bcd60e51b8152600401610fd09061475a565b60405180910390fd5b609c5461101d5760405162461bcd60e51b81526020600482015260126024820152715a45524f5f53545245414d5f53484152455360701b6044820152606401610fd0565b609c5468fc6f7c40458122964d601f1b61103684612a7e565b61104091906146fe565b61104a919061471d565b60a0838154811061105d5761105d6146a3565b90600052602060002090600d020160090154610b9b91906146cf565b60008061108584610fb1565b6001600160a01b0384166000908152609f6020908152604080832088845260058101909252909120546002820154929350909168fc6f7c40458122964d601f1b816110d084876146e7565b6110da91906146fe565b6110e4919061471d565b979650505050505050565b60009081526065602052604090206001015490565b600080516020614a6383398151915261111d8133612e2f565b50609855565b600180609854166000148061113e575061113e600033612543565b61115a5760405162461bcd60e51b8152600401610fd09061478b565b600080516020614ac38339815191526111738133612e2f565b61117b612e93565b6111858484612f58565b609d54609e546111a4916001600160a01b0391821691339116866130fb565b50505050565b60018060985416600014806111c557506111c5600033612543565b6111e15760405162461bcd60e51b8152600401610fd09061478b565b6111e9612e93565b609b54336000908152609f602052604081206001015460995491929161120f91906146fe565b611219919061471d565b90506112258382613153565b505050565b60018060985416600014806112455750611245600033612543565b6112615760405162461bcd60e51b8152600401610fd09061478b565b336000908152609f6020908152604080832085845260040190915290205442116112c45760405162461bcd60e51b8152602060048201526014602482015273494e56414c49445f52454c454153455f54494d4560601b6044820152606401610fd0565b6112cd8261334d565b5050565b6112da826110ef565b6112e48133612e2f565b6112258383613448565b60018060985416600014806113095750611309600033612543565b6113255760405162461bcd60e51b8152600401610fd09061478b565b600080516020614ac383398151915261133e8133612e2f565b611346612e93565b835185511461138e5760405162461bcd60e51b81526020600482015260146024820152730929cac82989288be82a4a482b2be988a9c8ea8960631b6044820152606401610fd0565b6000805b8551811015611410578581815181106113ad576113ad6146a3565b6020026020010151826113c091906146cf565b91506113fe8782815181106113d7576113d76146a3565b60200260200101518783815181106113f1576113f16146a3565b6020026020010151612f58565b806114088161473f565b915050611392565b508381146114575760405162461bcd60e51b81526020600482015260146024820152731253959053125117d0905510d217d05353d5539560621b6044820152606401610fd0565b609d54609e54611476916001600160a01b0391821691339116876130fb565b505050505050565b60018060985416600014806114995750611499600033612543565b6114b55760405162461bcd60e51b8152600401610fd09061478b565b6114bd612e93565b609b54336000908152609f60205260408120600101546099549192916114e391906146fe565b6114ed919061471d565b90506112cd8182613153565b6001600160a01b03811633146115695760405162461bcd60e51b815260206004820152602f60248201527f416363657373436f6e74726f6c3a2063616e206f6e6c792072656e6f756e636560448201526e103937b632b9903337b91039b2b63360891b6064820152608401610fd0565b6112cd82826134ce565b60008060a08381548110611589576115896146a3565b90600052602060002090600d0201905080600c0160019054906101000a900460ff166115b85750600092915050565b60006115c984836007015442610ba1565b905081600401548260020154826115e091906146fe565b6115ea919061471d565b949350505050565b60006115fe8133612e2f565b826116495760405162461bcd60e51b815260206004820152601b60248201527a4155524f52415f53545245414d5f4e4f545f52454d4f5641424c4560281b6044820152606401610fd0565b600060a0848154811061165e5761165e6146a3565b90600052602060002090600d0201905080600c0160019054906101000a900460ff166116c55760405162461bcd60e51b815260206004820152601660248201527514d51491505357d053149150511657d4915353d5915160521b6044820152606401610fd0565b600c8101805461ffff1916905580546040514281526001600160a01b039091169085907f138a3f5239f6194312dabd3886690dd9204448e8dd2105abf6587f732041cbfe9060200160405180910390a360008160030154826002015461172b91906146e7565b905060008260050154836004015461174391906146e7565b609e5490915060009061175e906001600160a01b0316611c1f565b600185015490915060009061177b906001600160a01b0316611c1f565b609d54609754609e549293506001600160a01b039182169263da0c1a88929182169116858811156117ac57856117ae565b875b6040518463ffffffff1660e01b81526004016117cc939291906147ab565b600060405180830381600087803b1580156117e657600080fd5b505af11580156117fa573d6000803e3d6000fd5b5050609d5460018801546001600160a01b03918216935063da0c1a8892508a911684871115611829578461182b565b865b6040518463ffffffff1660e01b8152600401611849939291906147ab565b600060405180830381600087803b15801561186357600080fd5b505af1158015611877573d6000803e3d6000fd5b505050505050505050505050565b600080600060a0868154811061189d5761189d6146a3565b60009182526020909120600a600d909202010180549091506118ef5760405162461bcd60e51b815260206004820152600b60248201526a4e4f5f5343484544554c4560a81b6044820152606401610fd0565b848411801561191e57508060000160008154811061190f5761190f6146a3565b90600052602060002001548510155b8015611954575080548190611935906001906146e7565b81548110611945576119456146a3565b90600052602060002001548411155b61199e5760405162461bcd60e51b815260206004820152601b60248201527a494e56414c49445f5343484544554c455f504152414d455445525360281b6044820152606401610fd0565b60005b81546119af906001906146e7565b811015611a01578160000181815481106119cb576119cb6146a3565b90600052602060002001548610156119ef576119e86001826146e7565b9350611a01565b806119f98161473f565b9150506119a1565b508054600090611a13906001906146e7565b90505b8015611a5c57816000018181548110611a3157611a316146a3565b90600052602060002001548510611a4a57809250611a5c565b80611a54816147cf565b915050611a16565b5050935093915050565b6000611a728133612e2f565b6040516001600160a01b0384169083156108fc029084906000818181858888f193505050501580156111a4573d6000803e3d6000fd5b6000611ab48133612e2f565b611ac2888887878787613535565b60a0805460018101808355600083815291929083908110611ae557611ae56146a3565b600091825260208220600d9091020180546001600160a01b03808e166001600160a01b0319928316178355600183018054918e1691909216179055600281018a9055600381018290556006810189905560048101829055600581018290558751909250879190611b5757611b576146a3565b60209081029190910181015160078301556040805180820190915287815280820187905287519091600a840191611b93918391908b019061402e565b506020828101518051611bac926001850192019061402e565b505050600c8101805461ffff19166001179055600881018490556040516001600160a01b038b16908390600080516020614a2383398151915290611bf39042815260200190565b60405180910390a3609e54611c13906001600160a01b031633308b6130fb565b50505050505050505050565b609d546040516370a0823160e01b81526000916001600160a01b03808516926370a0823192611c529216906004016143bf565b602060405180830381865afa158015611c6f573d6000803e3d6000fd5b505050506040513d601f19601f82011682018060405250810190610b9b91906147e6565b6000611c9f8133612e2f565b611ca7612e93565b61122583836136e1565b6001806098541660001480611ccc5750611ccc600033612543565b611ce85760405162461bcd60e51b8152600401610fd09061478b565b611cf0612e93565b6112cd33836136e1565b6000611d068133612e2f565b50825491821816189055565b60608060a08381548110611d2857611d286146a3565b90600052602060002090600d0201600a0160000160a08481548110611d4f57611d4f6146a3565b90600052602060002090600d0201600a0160010181805480602002602001604051908101604052809291908181526020018280548015611dae57602002820191906000526020600020905b815481526020019060010190808311611d9a575b5050505050915080805480602002602001604051908101604052809291908181526020018280548015611e0057602002820191906000526020600020905b815481526020019060010190808311611dec575b5050505050905091509150915091565b6001806098541660001480611e2b5750611e2b600033612543565b611e475760405162461bcd60e51b8152600401610fd09061478b565b336000908152609f60205260408120905b83518110156111a457816003016000858381518110611e7957611e796146a3565b6020026020010151815260200190815260200160002054600014158015611ecd5750816004016000858381518110611eb357611eb36146a3565b602002602001015181526020019081526020016000205442115b15611ef457611ef4848281518110611ee757611ee76146a3565b602002602001015161334d565b80611efe8161473f565b915050611e58565b6000611f128133612e2f565b6001600160a01b038216611f385760405162461bcd60e51b8152600401610fd0906147ff565b50609d80546001600160a01b0319166001600160a01b0392909216919091179055565b6001806098541660001480611f765750611f76600033612543565b611f925760405162461bcd60e51b8152600401610fd09061478b565b336000908152609f60205260408120905b60a05481101561122557600081815260038301602052604090205415801590611fdb5750600081815260048301602052604090205442115b15611fe957611fe98161334d565b80611ff38161473f565b915050611fa3565b60008060008060008060008060008060008060a08d81548110612020576120206146a3565b90600052602060002090600d020190508060000160009054906101000a90046001600160a01b03168160010160009054906101000a90046001600160a01b0316826002015483600301548460040154856005015486600601548760070154886008015489600c0160009054906101000a900460ff168a600c0160019054906101000a900460ff169b509b509b509b509b509b509b509b509b509b509b505091939597999b90929496989a50565b60018060985416600014806120e857506120e8600033612543565b6121045760405162461bcd60e51b8152600401610fd09061478b565b61210c612e93565b61211533613772565b50565b60018060985416600014806121335750612133600033612543565b61214f5760405162461bcd60e51b8152600401610fd09061478b565b600060a08481548110612164576121646146a3565b60009182526020909120600d90910201600c81015490915060ff166121c15760405162461bcd60e51b815260206004820152601360248201527214d51491505357d393d517d41493d413d4d151606a1b6044820152606401610fd0565b80546001600160a01b031633146121ea5760405162461bcd60e51b8152600401610fd090614828565b600c810154610100900460ff161561223c5760405162461bcd60e51b815260206004820152601560248201527453545245414d5f414c52454144595f45584953545360581b6044820152606401610fd0565b4281600a01600001600081548110612256576122566146a3565b906000526020600020015410156122a95760405162461bcd60e51b815260206004820152601760248201527614d51491505357d41493d413d4d05317d1561412549151604a1b6044820152606401610fd0565b80600601548311156122fb5760405162461bcd60e51b815260206004820152601b60248201527a1253959053125117d49155d0549117d513d2d15397d05353d55395602a1b6044820152606401610fd0565b600c8101805461ff0019166101001790556004810183905560405133908590600080516020614aa3833981519152906123379042815260200190565b60405180910390a380600601548310156123bc57600681015460028201546000919061236386836146e7565b61236d91906146fe565b612377919061471d565b90508082600201600082825461238d91906146e7565b9091555061239d905085856137d2565b609754609e546123ba916001600160a01b03918216911683613950565b505b609d546002820154609e546123df926001600160a01b0391821692911690613950565b609d5460018201546111a4916001600160a01b0391821691339116866130fb565b600061240c8133612e2f565b600060a08381548110612421576124216146a3565b90600052602060002090600d020190504260a08481548110612445576124456146a3565b90600052602060002090600d0201600a0160000160008154811061246b5761246b6146a3565b9060005260206000200154111580156124885750600c81015460ff165b6124cc5760405162461bcd60e51b815260206004820152601560248201527453545245414d5f4449445f4e4f545f45585049524560581b6044820152606401610fd0565b600c8101805460ff19169055600281018054600090915581546040514281526001600160a01b039091169085907f36bc74eb2ec224bdd93b3e3ba7a70e1802b4a876f1bd1fd7fdc15f41ccc12f239060200160405180910390a3609754609e546111a4916001600160a01b03918216911683613950565b60009182526065602090815260408084206001600160a01b0393909316845291905290205460ff1690565b600060a08281548110612583576125836146a3565b90600052602060002090600d0201600901549050919050565b60018060985416600014806125b757506125b7600033612543565b6125d35760405162461bcd60e51b8152600401610fd09061478b565b600060a083815481106125e8576125e86146a3565b60009182526020909120600d9091020180549091506001600160a01b031633146126245760405162461bcd60e51b8152600401610fd090614828565b600c810154610100900460ff1661264d5760405162461bcd60e51b8152600401610fd090614856565b600061265884611573565b90504282600701819055508082600301600082825461267791906146cf565b9091555050609d548254609e54604051631b41835160e31b81526001600160a01b039384169363da0c1a88936126b8939082169291169086906004016147ab565b600060405180830381600087803b1580156126d257600080fd5b505af11580156126e6573d6000803e3d6000fd5b5050505050505050565b600180609854166000148061270b575061270b600033612543565b6127275760405162461bcd60e51b8152600401610fd09061478b565b61272f612e93565b6127393383612f58565b609d54609e546112cd916001600160a01b0391821691339116856130fb565b606060006127668133612e2f565b61276e613980565b600080856001600160a01b031685604051612789919061487f565b600060405180830381855af49150503d80600081146127c4576040519150601f19603f3d011682016040523d82523d6000602084013e6127c9565b606091505b5091509150816127d857600080fd5b95945050505050565b60006127ed8133612e2f565b509055565b600054610100900460ff1661280d5760005460ff1615612811565b303b155b61282d5760405162461bcd60e51b8152600401610fd09061489b565b600054610100900460ff1615801561284f576000805461ffff19166101011790555b6001600160a01b0387161580159061286f57506001600160a01b03821615155b61288b5760405162461bcd60e51b8152600401610fd0906147ff565b84518651146128ac5760405162461bcd60e51b8152600401610fd0906148e9565b836128c95760405162461bcd60e51b8152600401610fd09061491a565b6128d283612d8d565b6128ea600080516020614ac383398151915233613448565b612902600080516020614a8383398151915233613448565b609d80546001600160a01b038085166001600160a01b031992831617909255609e8054928a169290911691909117905560a0805460010180825560008281529182918290612952576129526146a3565b60009182526020808320600d929092029091018054336001600160a01b03199182161782556001820180549091166001600160a01b038e16179055600281018390556003810183905560068101839055600481018390556005810192909255426007830155604080518082019091528a81528082018a90528a5192935091600a8401916129e39183918d019061402e565b5060208281015180516129fc926001850192019061402e565b505050600c8101805461ffff19166101011790556008810186905560405142815233908390600080516020614a238339815191529060200160405180910390a360405142815233908390600080516020614aa38339815191529060200160405180910390a350508015612a75576000805461ff00191690555b50505050505050565b60008060a08381548110612a9457612a946146a3565b90600052602060002090600d0201600a01600001600081548110612aba57612aba6146a3565b90600052602060002001549050804211612ad75750600092915050565b600060a08481548110612aec57612aec6146a3565b90600052602060002090600d0201600a01600001600160a08681548110612b1557612b156146a3565b60009182526020909120600a600d909202010154612b3391906146e7565b81548110612b4357612b436146a3565b9060005260206000200154905080609a5410612b63575060009392505050565b60008083609a541115612b7a57609a549150612b7e565b8391505b82421015612b8d575042612b90565b50815b612b9b868383610ba1565b9695505050505050565b6000609a5460001415612bb85750600090565b612bc66000609a5442610ba1565b609954612bd391906146cf565b905090565b612be1826110ef565b612beb8133612e2f565b61122583836134ce565b6001806098541660001480612c105750612c10600033612543565b612c2c5760405162461bcd60e51b8152600401610fd09061478b565b8160a08181548110612c4057612c406146a3565b90600052602060002090600d0201600c0160019054906101000a900460ff16612c7b5760405162461bcd60e51b8152600401610fd090614856565b612c83612e93565b61122533846139b6565b6000612c998133612e2f565b6001600160a01b038216612cbf5760405162461bcd60e51b8152600401610fd0906147ff565b6097546001600160a01b0383811691161415612d125760405162461bcd60e51b815260206004820152601260248201527153414d455f41444d494e5f4144445245535360701b6044820152606401610fd0565b612d1d600083613448565b609780546001600160a01b0319166001600160a01b038416179055612d436000336134ce565b7f8be0079c531659141344cd1fd0a4f28419497f9722a3daafe3b4186f6b6457e033604080516001600160a01b03928316815291851660208301520160405180910390a15050565b565b600054610100900460ff16612da85760005460ff1615612dac565b303b155b612dc85760405162461bcd60e51b8152600401610fd09061489b565b600054610100900460ff16158015612dea576000805461ffff19166101011790555b612df2613b93565b6098829055612e02600033613448565b612e1a600080516020614a6383398151915233613448565b80156112cd576000805461ff00191690555050565b612e398282612543565b6112cd57612e51816001600160a01b03166014613bd2565b612e5c836020613bd2565b604051602001612e6d929190614946565b60408051601f198184030181529082905262461bcd60e51b8252610fd0916004016145f4565b42609a541415612e9f57565b609b5415612f5257612eb16000612a7e565b60996000828254612ec291906146cf565b90915550600190505b60a054811015612f505760a08181548110612ee857612ee86146a3565b90600052602060002090600d0201600c0160019054906101000a900460ff1615612f3e57612f1581610fb1565b60a08281548110612f2857612f286146a3565b90600052602060002090600d0201600901819055505b80612f488161473f565b915050612ecb565b505b42609a55565b6001600160a01b0382166000908152609f60205260408120609b54909190612f81575081612fa9565b609954609b54612f9190856146fe565b612f9b919061471d565b612fa69060016146cf565b90505b80826001016000828254612fbd91906146cf565b9250508190555080609b6000828254612fd691906146cf565b925050819055508260996000828254612fef91906146cf565b90915550508154839083906000906130089084906146cf565b909155506000905061301a8242613d6d565b905080609c600082825461302e91906146cf565b925050819055508083600201600082825461304991906146cf565b90915550600190505b60a0548110156130a85760a0818154811061306f5761306f6146a3565b600091825260208083206009600d90930201919091015483835260058701909152604090912055806130a08161473f565b915050613052565b506040805185815260208101849052428183015290516001600160a01b038716917fb4caaf29adda3eefee3ad552a8e85058589bf834c7466cae4ee58787f70589ed919081900360600190a25050505050565b6111a4846323b872dd60e01b85858560405160240161311c939291906147ab565b60408051601f198184030181529190526020810180516001600160e01b03166001600160e01b031990931692909217909152613e3a565b8161318e5760405162461bcd60e51b815260206004820152600b60248201526a16915493d7d05353d5539560aa1b6044820152606401610fd0565b808211156131d95760405162461bcd60e51b81526020600482015260186024820152774e4f545f454e4f5547485f5354414b455f42414c414e434560401b6044820152606401610fd0565b336000908152609f602052604081206001810154609b8054929391929091906132039084906146e7565b90915550506002810154609c805460009061321f9084906146e7565b909155505060006001820181905560028201819055609980548492906132469084906146e7565b909155505060008082558080526003820160205260408120805485929061326e9084906146cf565b909155505060a08054600090613286576132866146a3565b90600052602060002090600d020160080154426132a391906146cf565b60008080526004830160209081526040808320939093556003840190528181205491513392600080516020614a43833981519152916132e49190429061430c565b60405180910390a3336001600160a01b03167f7fc4727e062e336010f2c282598ef5f14facb3de68cf8195c2f23e1454b2b74e844260405161332792919061430c565b60405180910390a2600061333b84846146e7565b905080156111a4576111a43382612f58565b336000818152609f602090815260408083208584526003810190925280832080549390555190929084907ff86dbbaae73a38eba376327ec68def0678d91d952b4a18aa86d880f199632bd9906133a6908590429061430c565b60405180910390a3609d5460a080546001600160a01b039092169163da0c1a88913391879081106133d9576133d96146a3565b600091825260209091206001600d9092020101546040516001600160e01b031960e085901b16815261341a92916001600160a01b03169086906004016147ab565b600060405180830381600087803b15801561343457600080fd5b505af1158015612a75573d6000803e3d6000fd5b6134528282612543565b6112cd5760008281526065602090815260408083206001600160a01b03851684529091529020805460ff1916600117905561348a3390565b6001600160a01b0316816001600160a01b0316837f2f8788117e7eff1d82e926ec794901d17c78024a50270940304540a733656f0d60405160405180910390a45050565b6134d88282612543565b156112cd5760008281526065602090815260408083206001600160a01b0385168085529252808320805460ff1916905551339285917ff6391f5c32d9c69d2a47ea670b442974b53935d1edc7fd64eb21e047a839171b9190a45050565b6001600160a01b03861661358a5760405162461bcd60e51b815260206004820152601c60248201527b494e56414c49445f53545245414d5f4f574e45525f4144445245535360201b6044820152606401610fd0565b6001600160a01b0385166135df5760405162461bcd60e51b815260206004820152601c60248201527b494e56414c49445f5245574152445f544f4b454e5f4144445245535360201b6044820152606401610fd0565b6000841161363a5760405162461bcd60e51b815260206004820152602260248201527f494e56414c49445f4d41585f4445504f53495445445f414d4f554e545f56414c604482015261554560f01b6064820152608401610fd0565b428360008151811061364e5761364e6146a3565b6020026020010151116136a35760405162461bcd60e51b815260206004820152601e60248201527f494e56414c49445f53545245414d5f45585049524154494f4e5f4441544500006044820152606401610fd0565b81518351146136c45760405162461bcd60e51b8152600401610fd0906148e9565b806114765760405162461bcd60e51b8152600401610fd09061491a565b60005b81518110156112255760a0828281518110613701576137016146a3565b602002602001015181548110613719576137196146a3565b90600052602060002090600d0201600c0160019054906101000a900460ff16156137605761376083838381518110613753576137536146a3565b60200260200101516139b6565b8061376a8161473f565b9150506136e4565b60015b60a0548110156112cd5760a08181548110613792576137926146a3565b90600052602060002090600d0201600c0160019054906101000a900460ff16156137c0576137c082826139b6565b806137ca8161473f565b915050613775565b60005b60a083815481106137e8576137e86146a3565b60009182526020909120600b600d9092020101548110156112255780613852578160a0848154811061381c5761381c6146a3565b90600052602060002090600d0201600a016001018281548110613841576138416146a3565b60009182526020909120015561393e565b600160a08481548110613867576138676146a3565b60009182526020909120600b600d90920201015461388591906146e7565b8114156138a157600060a0848154811061381c5761381c6146a3565b600260a084815481106138b6576138b66146a3565b60009182526020909120600b600d90920201016138d46001846146e7565b815481106138e4576138e46146a3565b90600052602060002001546138f9919061471d565b60a0848154811061390c5761390c6146a3565b90600052602060002090600d0201600a016001018281548110613931576139316146a3565b6000918252602090912001555b806139488161473f565b9150506137d5565b6040516001600160a01b03831660248201526044810182905261122590849063a9059cbb60e01b9060640161311c565b306001600160a01b037f0000000000000000000000000000000000000000000000000000000000000000161415612d8b57600080fd5b806139d35760405162461bcd60e51b8152600401610fd09061475a565b6001600160a01b0382166000908152609f602090815260408083206002810154858552600582019093529083205460a0805492949368fc6f7c40458122964d601f1b939092919087908110613a2a57613a2a6146a3565b90600052602060002090600d020160090154613a4691906146e7565b613a5091906146fe565b613a5a919061471d565b905080613a675750505050565b600083815260038301602052604081208054839290613a879084906146cf565b909155505060a0805484908110613aa057613aa06146a3565b90600052602060002090600d0201600901548260050160008581526020019081526020016000208190555060a08381548110613ade57613ade6146a3565b90600052602060002090600d02016008015442613afb91906146cf565b600084815260048401602052604090205560a0805482919085908110613b2357613b236146a3565b90600052602060002090600d02016005016000828254613b4391906146cf565b90915550506000838152600383016020526040908190205490516001600160a01b038616918591600080516020614a4383398151915291613b8591429061430c565b60405180910390a350505050565b600054610100900460ff16613bba5760405162461bcd60e51b8152600401610fd0906149b5565b613bc2613f0c565b613bca613f0c565b612d8b613f0c565b60606000613be18360026146fe565b613bec9060026146cf565b6001600160401b03811115613c0357613c0361416e565b6040519080825280601f01601f191660200182016040528015613c2d576020820181803683370190505b509050600360fc1b81600081518110613c4857613c486146a3565b60200101906001600160f81b031916908160001a905350600f60fb1b81600181518110613c7757613c776146a3565b60200101906001600160f81b031916908160001a9053506000613c9b8460026146fe565b613ca69060016146cf565b90505b6001811115613d1e576f181899199a1a9b1b9c1cb0b131b232b360811b85600f1660108110613cda57613cda6146a3565b1a60f81b828281518110613cf057613cf06146a3565b60200101906001600160f81b031916908160001a90535060049490941c93613d17816147cf565b9050613ca9565b508315610f605760405162461bcd60e51b815260206004820181905260248201527f537472696e67733a20686578206c656e67746820696e73756666696369656e746044820152606401610fd0565b60008061040090506000610100905060006228207260a0600081548110613d9657613d966146a3565b90600052602060002090600d0201600a01600001600081548110613dbc57613dbc6146a3565b9060005260206000200154613dd191906146cf565b90506000613de363078614f8836146cf565b9050818611613e0157613df684886146fe565b945050505050610b9b565b808610613e1257613df683886146fe565b613e1c82826146e7565b613e2687836146e7565b613e3085876146e7565b6110d0908a6146fe565b6000613e8f826040518060400160405280602081526020017f5361666545524332303a206c6f772d6c6576656c2063616c6c206661696c6564815250856001600160a01b0316613f339092919063ffffffff16565b8051909150156112255780806020019051810190613ead9190614a00565b6112255760405162461bcd60e51b815260206004820152602a60248201527f5361666545524332303a204552433230206f7065726174696f6e20646964206e6044820152691bdd081cdd58d8d9595960b21b6064820152608401610fd0565b600054610100900460ff16612d8b5760405162461bcd60e51b8152600401610fd0906149b5565b60606115ea848460008585843b613f8c5760405162461bcd60e51b815260206004820152601d60248201527f416464726573733a2063616c6c20746f206e6f6e2d636f6e74726163740000006044820152606401610fd0565b600080866001600160a01b03168587604051613fa8919061487f565b60006040518083038185875af1925050503d8060008114613fe5576040519150601f19603f3d011682016040523d82523d6000602084013e613fea565b606091505b50915091506110e482828660608315614004575081610f60565b8251156140145782518084602001fd5b8160405162461bcd60e51b8152600401610fd091906145f4565b828054828255906000526020600020908101928215614069579160200282015b8281111561406957825182559160200191906001019061404e565b50614075929150614079565b5090565b5b80821115614075576000815560010161407a565b6000602082840312156140a057600080fd5b81356001600160e01b031981168114610f6057600080fd5b6000806000606084860312156140cd57600080fd5b505081359360208301359350604090920135919050565b6001600160a01b038116811461211557600080fd5b6000806040838503121561410c57600080fd5b82359150602083013561411e816140e4565b809150509250929050565b60006020828403121561413b57600080fd5b5035919050565b6000806040838503121561415557600080fd5b8235614160816140e4565b946020939093013593505050565b634e487b7160e01b600052604160045260246000fd5b604051601f8201601f191681016001600160401b03811182821017156141ac576141ac61416e565b604052919050565b60006001600160401b038211156141cd576141cd61416e565b5060051b60200190565b600082601f8301126141e857600080fd5b813560206141fd6141f8836141b4565b614184565b82815260059290921b8401810191818101908684111561421c57600080fd5b8286015b848110156142375780358352918301918301614220565b509695505050505050565b60008060006060848603121561425757600080fd5b83356001600160401b038082111561426e57600080fd5b818601915086601f83011261428257600080fd5b813560206142926141f8836141b4565b82815260059290921b8401810191818101908a8411156142b157600080fd5b948201945b838610156142d85785356142c9816140e4565b825294820194908201906142b6565b975050870135925050808211156142ee57600080fd5b506142fb868287016141d7565b925050604084013590509250925092565b918252602082015260400190565b600080600080600080600060e0888a03121561433557600080fd5b8735614340816140e4565b96506020880135614350816140e4565b9550604088013594506060880135935060808801356001600160401b038082111561437a57600080fd5b6143868b838c016141d7565b945060a08a013591508082111561439c57600080fd5b506143a98a828b016141d7565b92505060c0880135905092959891949750929550565b6001600160a01b0391909116815260200190565b6000602082840312156143e557600080fd5b8135610f60816140e4565b6000806040838503121561440357600080fd5b823561440e816140e4565b915060208301356001600160401b0381111561442957600080fd5b614435858286016141d7565b9150509250929050565b60006020828403121561445157600080fd5b81356001600160401b0381111561446757600080fd5b6115ea848285016141d7565b600081518084526020808501945080840160005b838110156144a357815187529582019590820190600101614487565b509495945050505050565b6040815260006144c16040830185614473565b82810360208401526127d88185614473565b600080604083850312156144e657600080fd5b50508035926020909101359150565b6000806040838503121561450857600080fd5b8235614513816140e4565b91506020838101356001600160401b038082111561453057600080fd5b818601915086601f83011261454457600080fd5b8135818111156145565761455661416e565b614568601f8201601f19168501614184565b9150808252878482850101111561457e57600080fd5b80848401858401376000848284010152508093505050509250929050565b60005b838110156145b757818101518382015260200161459f565b838111156111a45750506000910152565b600081518084526145e081602086016020860161459c565b601f01601f19169290920160200192915050565b602081526000610f6060208301846145c8565b60008060008060008060c0878903121561462057600080fd5b863561462b816140e4565b955060208701356001600160401b038082111561464757600080fd5b6146538a838b016141d7565b9650604089013591508082111561466957600080fd5b5061467689828a016141d7565b945050606087013592506080870135915060a0870135614695816140e4565b809150509295509295509295565b634e487b7160e01b600052603260045260246000fd5b634e487b7160e01b600052601160045260246000fd5b600082198211156146e2576146e26146b9565b500190565b6000828210156146f9576146f96146b9565b500390565b6000816000190483118215151615614718576147186146b9565b500290565b60008261473a57634e487b7160e01b600052601260045260246000fd5b500490565b6000600019821415614753576147536146b9565b5060010190565b60208082526017908201527610555493d49057d49155d0549114d7d0d3d35413d55391604a1b604082015260600190565b60208082526006908201526514185d5cd95960d21b604082015260600190565b6001600160a01b039384168152919092166020820152604081019190915260600190565b6000816147de576147de6146b9565b506000190190565b6000602082840312156147f857600080fd5b5051919050565b6020808252600f908201526e494e56414c49445f4144445245535360881b604082015260600190565b60208082526014908201527324a72b20a624a22fa9aa2922a0a6afa7aba722a960611b604082015260600190565b6020808252600f908201526e494e4143544956455f53545245414d60881b604082015260600190565b6000825161489181846020870161459c565b9190910192915050565b6020808252602e908201527f496e697469616c697a61626c653a20636f6e747261637420697320616c72656160408201526d191e481a5b9a5d1a585b1a5e995960921b606082015260800190565b602080825260179082015276494e56414c49445f5343484544554c455f56414c55455360481b604082015260600190565b6020808252601290820152711253959053125117d5105557d411549253d160721b604082015260600190565b76020b1b1b2b9b9a1b7b73a3937b61d1030b1b1b7bab73a1604d1b81526000835161497881601785016020880161459c565b7001034b99036b4b9b9b4b733903937b6329607d1b60179184019182015283516149a981602884016020880161459c565b01602801949350505050565b6020808252602b908201527f496e697469616c697a61626c653a20636f6e7472616374206973206e6f74206960408201526a6e697469616c697a696e6760a81b606082015260800190565b600060208284031215614a1257600080fd5b81518015158114610f6057600080fdfe46df4b1da61e3da1ea96646025835ed3c019e55199917ddcb47d906225732f46d841f13bd518db95a474f6d4b9fc7df1cfc116c841f91e218ff172d13f633b98139c2898040ef16910dc9f44dc697df79363da767d8bc92f2e310312b816e46df7db13299c8a9e501861f04c20f69a2444829a36a363cfad4b58864709c755609b75bb6b5d76707693bc56d2793d08ca515b19570eff8dcca55f2578b960beca3a2f235c9daaf33349d300aadff2f15078a89df81bcfdd45ba11c8f816bddc6fa2646970667358221220a75026f9bb913c61e8c3bd8d84030345eab471a80f562f802c953cd62004698a64736f6c634300080a0033",
  "devdoc": {
    "author": "Aurora Team",
    "details": "Implementation of Jet staking contract      This contract implements the staking mechanics for AURORA ERC20 token.      A user can stake any amount of AURORA tokens, and get rewarded in both      AURORA and other stream tokens based on the rewards schedules.      Stream rewards can be claimed any time however AURORA can't be claimed      unless the user unstakes his full/partial amount of shares.      This contract is AdminControlled which has a tremendous power. However      hopfully it be governed by a community wallet.",
    "kind": "dev",
    "methods": {
      "adminDelegatecall(address,bytes)": {
        "custom:oz-upgrades-unsafe-allow": "delegatecall"
      },
      "batchClaimOnBehalfOfAnotherUser(address,uint256[])": {
        "details": "batchClaimOnBehalfOfAnotherUser when gas limits prevent users from claiming all.",
        "params": {
          "account": "the user account address.",
          "streamIds": "to claim."
        }
      },
      "batchMoveRewardsToPending(uint256[])": {
        "details": "moves a set of stream Id rewards to pending. Allows user to select stream ids to claim from UI.",
        "params": {
          "streamIds": "stream indexes"
        }
      },
      "batchStakeOnBehalfOfOtherUsers(address[],uint256[],uint256)": {
        "details": "batchStakeOnBehalfOfOtherUsers called for airdropping Aurora users",
        "params": {
          "accounts": "the account address",
          "amounts": "in AURORA tokens",
          "batchAmount": "equals to the sum of amounts WARNING: rewards are not claimed during stake. Airdrop script must claim or only distribute to accounts without stake"
        }
      },
      "batchWithdraw(uint256[])": {
        "details": "withdraw a set of stream Ids. Allows user to select stream ids to withdraw from UI.",
        "params": {
          "streamIds": "to withdraw."
        }
      },
      "cancelStreamProposal(uint256)": {
        "details": "cancelStreamProposal should only called if the stream owner never created the stream after the proposal expiry date (streams[streamId].schedule.time[0]).",
        "params": {
          "streamId": "the stream index"
        }
      },
      "createStream(uint256,uint256)": {
        "details": "create new stream (only stream owner) stream owner must approve reward tokens to this contract.",
        "params": {
          "streamId": "stream id"
        }
      },
      "getAmountOfShares(uint256,address)": {
        "details": "gets a user stream shares",
        "params": {
          "account": "the user address",
          "streamId": "stream index"
        },
        "returns": {
          "_0": "user stream shares"
        }
      },
      "getLatestRewardPerShare(uint256)": {
        "details": "calculates and gets the latest reward per share (RPS) for a stream",
        "params": {
          "streamId": "stream index"
        },
        "returns": {
          "_0": "streams[streamId].rps + scheduled reward up till now"
        }
      },
      "getPending(uint256,address)": {
        "details": "gets the user's stream pending reward",
        "params": {
          "account": "user account",
          "streamId": "stream index"
        },
        "returns": {
          "_0": "user.pendings[streamId]"
        }
      },
      "getReleaseTime(uint256,address)": {
        "details": "gets the user's stream reward release time",
        "params": {
          "account": "user account",
          "streamId": "stream index"
        },
        "returns": {
          "_0": "user.releaseTime[streamId]"
        }
      },
      "getRewardPerShare(uint256)": {
        "details": "gets reward per share (RPS) for a stream",
        "params": {
          "streamId": "stream index"
        },
        "returns": {
          "_0": "streams[streamId].rps"
        }
      },
      "getRewardPerShareForUser(uint256,address)": {
        "details": "gets the user's reward per share (RPS) for a stream",
        "params": {
          "streamId": "stream index"
        },
        "returns": {
          "_0": "user.rpsDuringLastWithdrawal[streamId]"
        }
      },
      "getRewardsAmount(uint256)": {
        "details": "calculates and gets the latest released rewards.",
        "params": {
          "streamId": "stream index"
        },
        "returns": {
          "_0": "rewards released since last update."
        }
      },
      "getRoleAdmin(bytes32)": {
        "details": "Returns the admin role that controls `role`. See {grantRole} and {revokeRole}. To change a role's admin, use {_setRoleAdmin}."
      },
      "getStream(uint256)": {
        "details": "get the stream data",
        "params": {
          "streamId": "the stream index"
        }
      },
      "getStreamClaimableAmount(uint256,address)": {
        "details": "gets the user's stream claimable amount",
        "params": {
          "streamId": "stream index"
        },
        "returns": {
          "_0": "(latesRPS - user.rpsDuringLastWithdrawal) * user.shares"
        }
      },
      "getStreamOwnerClaimableAmount(uint256)": {
        "details": "Stream owner claimable AURORA.",
        "params": {
          "streamId": "the stream index"
        }
      },
      "getStreamSchedule(uint256)": {
        "details": "get the stream schedule data",
        "params": {
          "streamId": "the stream index"
        }
      },
      "getStreamsCount()": {
        "details": "get the streams count",
        "returns": {
          "_0": "streams.length"
        }
      },
      "getTotalAmountOfStakedAurora()": {
        "details": "gets the total amount of staked aurora",
        "returns": {
          "_0": "totalAmountOfStakedAurora + latest reward schedule"
        }
      },
      "getTreasuryBalance(address)": {
        "details": "Get the treasury balance",
        "params": {
          "token": "the token address"
        }
      },
      "getUserShares(address)": {
        "details": "gets the user shares",
        "params": {
          "account": "the user address"
        },
        "returns": {
          "_0": "user shares"
        }
      },
      "getUserTotalDeposit(address)": {
        "details": "gets the total user deposit",
        "params": {
          "account": "the user address"
        },
        "returns": {
          "_0": "user total deposit in (AURORA)"
        }
      },
      "grantRole(bytes32,address)": {
        "details": "Grants `role` to `account`. If `account` had not been already granted `role`, emits a {RoleGranted} event. Requirements: - the caller must have ``role``'s admin role."
      },
      "hasRole(bytes32,address)": {
        "details": "Returns `true` if `account` has been granted `role`."
      },
      "initialize(address,uint256[],uint256[],uint256,uint256,address)": {
        "details": "initialize the contract and deploys the first stream (AURORA)",
        "params": {
          "_flags": "admin controlled contract flags",
          "_treasury": "the Aurora treasury contract address",
          "aurora": "token contract address",
          "scheduleRewards": "init the schedule amounts",
          "scheduleTimes": "init the schedule time",
          "tauAuroraStream": "release time constant per stream (e.g AURORA stream)"
        }
      },
      "moveAllRewardsToPending()": {
        "details": "moves all the user rewards to pending reward."
      },
      "moveRewardsToPending(uint256)": {
        "details": "moves the reward for specific stream Id to pending rewards. It will require a waiting time untill it get released. Users call this in function in order to claim rewards.",
        "params": {
          "streamId": "stream index"
        }
      },
      "proposeStream(address,address,uint256,uint256,uint256[],uint256[],uint256)": {
        "params": {
          "auroraDepositAmount": "Amount of the AURORA deposited by the Admin.",
          "maxDepositAmount": "The upper amount of the tokens that should be deposited by the stream owner",
          "rewardToken": "the address of the ERC-20 tokens to be deposited in the stream",
          "scheduleRewards": "array of reward amounts that are kept on the staking contract at each block height",
          "scheduleTimes": "array of block heights for each schedule time",
          "streamOwner": "only this account would be able to create a stream",
          "tau": "the tau is (pending release period) for this stream (e.g one day)"
        }
      },
      "releaseAuroraRewardsToStreamOwner(uint256)": {
        "details": "the release of AURORA tokens to the stream creator is subjected to the same schedule as rewards. Thus if for a specific moment in time 30% of the rewards are distributed, then it means that 30% of the AURORA deposit can be withdrawn by the stream creator too. called by the stream owner",
        "params": {
          "streamId": "the stream index"
        }
      },
      "removeStream(uint256,address)": {
        "details": "removes a stream (only default admin role)",
        "params": {
          "streamFundReceiver": "receives the rest of the reward tokens in the stream",
          "streamId": "stream index"
        }
      },
      "renounceRole(bytes32,address)": {
        "details": "Revokes `role` from the calling account. Roles are often managed via {grantRole} and {revokeRole}: this function's purpose is to provide a mechanism for accounts to lose their privileges if they are compromised (such as when a trusted device is misplaced). If the calling account had been revoked `role`, emits a {RoleRevoked} event. Requirements: - the caller must be `account`."
      },
      "revokeRole(bytes32,address)": {
        "details": "Revokes `role` from `account`. If `account` had been granted `role`, emits a {RoleRevoked} event. Requirements: - the caller must have ``role``'s admin role."
      },
      "rewardsSchedule(uint256,uint256,uint256)": {
        "details": "calculate the total amount of the released tokens within a period (start & end)",
        "params": {
          "end": "is the end timestamp (e.g block.timestamp .. now)",
          "start": "is the start timestamp within the schedule",
          "streamId": "the stream index"
        },
        "returns": {
          "_0": "amount of the released tokens for that period"
        }
      },
      "stake(uint256)": {
        "details": "a user stakes amount of AURORA tokens The user should approve these tokens to the treasury contract in order to complete the stake.",
        "params": {
          "amount": "is the AURORA amount."
        }
      },
      "stakeOnBehalfOfAnotherUser(address,uint256)": {
        "details": "stakeOnBehalfOfAnotherUser is called for airdropping Aurora users",
        "params": {
          "account": "the account address",
          "amount": "in AURORA tokens WARNING: rewards are not claimed during stake. Airdrop script must claim or only distribute to accounts without stake"
        }
      },
      "startEndScheduleIndex(uint256,uint256,uint256)": {
        "details": "gets start index and end index in a stream schedule",
        "params": {
          "end": "end time (in seconds)",
          "start": "start time (in seconds)",
          "streamId": "stream index"
        }
      },
      "supportsInterface(bytes4)": {
        "details": "See {IERC165-supportsInterface}."
      },
      "unstake(uint256)": {
        "details": "unstake amount from user shares value. The rest is re-staked",
        "params": {
          "amount": "to unstake"
        }
      },
      "unstakeAll()": {
        "details": "unstake all the user's shares"
      },
      "updateTreasury(address)": {
        "details": "restricted for the admin only. Admin should pause this contract before changing the treasury address by setting the pause =1 (for changing this variable, call adminPause(1))",
        "params": {
          "_treasury": "treasury contract address for the reward tokens"
        }
      },
      "withdraw(uint256)": {
        "details": "withdraw amount in the pending. User should wait for pending time (tau constant) in order to be able to withdraw.",
        "params": {
          "streamId": "stream index"
        }
      },
      "withdrawAll()": {
        "details": "withdraw all claimed balances which have passed pending periode. This function will reach gas limit with too many streams, so the frontend will allow individual stream withdrawals and disable withdrawAll."
      }
    },
    "title": "JetStakingV1",
    "version": 1
  },
  "userdoc": {
    "kind": "user",
    "methods": {
      "getStream(uint256)": {
        "notice": "this function doesn't return the stream schedule due to some stake slots limitations. To get the stream schedule, refer to getStreamSchedule"
      },
      "proposeStream(address,address,uint256,uint256,uint256[],uint256[],uint256)": {
        "notice": "An admin of the staking contract can whitelist (propose) a stream. Whitelisting of the stream provides the option for the stream creator (presumably the issuing party of a specific token) to deposit some ERC-20 tokens on the staking contract and potentially get in return some AURORA tokens. Deposited ERC-20 tokens will be distributed to the stakers over some period of time."
      },
      "updateTreasury(address)": {
        "notice": "updates treasury account"
      }
    },
    "version": 1
  },
  "storageLayout": {
    "storage": [
      {
        "astId": 416,
        "contract": "contracts/JetStakingV1.sol:JetStakingV1",
        "label": "_initialized",
        "offset": 0,
        "slot": "0",
        "type": "t_bool"
      },
      {
        "astId": 419,
        "contract": "contracts/JetStakingV1.sol:JetStakingV1",
        "label": "_initializing",
        "offset": 1,
        "slot": "0",
        "type": "t_bool"
      },
      {
        "astId": 1073,
        "contract": "contracts/JetStakingV1.sol:JetStakingV1",
        "label": "__gap",
        "offset": 0,
        "slot": "1",
        "type": "t_array(t_uint256)50_storage"
      },
      {
        "astId": 1322,
        "contract": "contracts/JetStakingV1.sol:JetStakingV1",
        "label": "__gap",
        "offset": 0,
        "slot": "51",
        "type": "t_array(t_uint256)50_storage"
      },
      {
        "astId": 48,
        "contract": "contracts/JetStakingV1.sol:JetStakingV1",
        "label": "_roles",
        "offset": 0,
        "slot": "101",
        "type": "t_mapping(t_bytes32,t_struct(RoleData)43_storage)"
      },
      {
        "astId": 335,
        "contract": "contracts/JetStakingV1.sol:JetStakingV1",
        "label": "__gap",
        "offset": 0,
        "slot": "102",
        "type": "t_array(t_uint256)49_storage"
      },
      {
        "astId": 1346,
        "contract": "contracts/JetStakingV1.sol:JetStakingV1",
        "label": "admin",
        "offset": 0,
        "slot": "151",
        "type": "t_address"
      },
      {
        "astId": 1348,
        "contract": "contracts/JetStakingV1.sol:JetStakingV1",
        "label": "paused",
        "offset": 0,
        "slot": "152",
        "type": "t_uint256"
      },
      {
        "astId": 1624,
        "contract": "contracts/JetStakingV1.sol:JetStakingV1",
        "label": "totalAmountOfStakedAurora",
        "offset": 0,
        "slot": "153",
        "type": "t_uint256"
      },
      {
        "astId": 1626,
        "contract": "contracts/JetStakingV1.sol:JetStakingV1",
        "label": "touchedAt",
        "offset": 0,
        "slot": "154",
        "type": "t_uint256"
      },
      {
        "astId": 1628,
        "contract": "contracts/JetStakingV1.sol:JetStakingV1",
        "label": "totalAuroraShares",
        "offset": 0,
        "slot": "155",
        "type": "t_uint256"
      },
      {
        "astId": 1630,
        "contract": "contracts/JetStakingV1.sol:JetStakingV1",
        "label": "totalStreamShares",
        "offset": 0,
        "slot": "156",
        "type": "t_uint256"
      },
      {
        "astId": 1632,
        "contract": "contracts/JetStakingV1.sol:JetStakingV1",
        "label": "treasury",
        "offset": 0,
        "slot": "157",
        "type": "t_address"
      },
      {
        "astId": 1634,
        "contract": "contracts/JetStakingV1.sol:JetStakingV1",
        "label": "auroraToken",
        "offset": 0,
        "slot": "158",
        "type": "t_address"
      },
      {
        "astId": 1693,
        "contract": "contracts/JetStakingV1.sol:JetStakingV1",
        "label": "users",
        "offset": 0,
        "slot": "159",
        "type": "t_mapping(t_address,t_struct(User)1653_storage)"
      },
      {
        "astId": 1697,
        "contract": "contracts/JetStakingV1.sol:JetStakingV1",
        "label": "streams",
        "offset": 0,
        "slot": "160",
        "type": "t_array(t_struct(Stream)1688_storage)dyn_storage"
      }
    ],
    "types": {
      "t_address": {
        "encoding": "inplace",
        "label": "address",
        "numberOfBytes": "20"
      },
      "t_array(t_struct(Stream)1688_storage)dyn_storage": {
        "base": "t_struct(Stream)1688_storage",
        "encoding": "dynamic_array",
        "label": "struct JetStakingV1.Stream[]",
        "numberOfBytes": "32"
      },
      "t_array(t_uint256)49_storage": {
        "base": "t_uint256",
        "encoding": "inplace",
        "label": "uint256[49]",
        "numberOfBytes": "1568"
      },
      "t_array(t_uint256)50_storage": {
        "base": "t_uint256",
        "encoding": "inplace",
        "label": "uint256[50]",
        "numberOfBytes": "1600"
      },
      "t_array(t_uint256)dyn_storage": {
        "base": "t_uint256",
        "encoding": "dynamic_array",
        "label": "uint256[]",
        "numberOfBytes": "32"
      },
      "t_bool": {
        "encoding": "inplace",
        "label": "bool",
        "numberOfBytes": "1"
      },
      "t_bytes32": {
        "encoding": "inplace",
        "label": "bytes32",
        "numberOfBytes": "32"
      },
      "t_mapping(t_address,t_bool)": {
        "encoding": "mapping",
        "key": "t_address",
        "label": "mapping(address => bool)",
        "numberOfBytes": "32",
        "value": "t_bool"
      },
      "t_mapping(t_address,t_struct(User)1653_storage)": {
        "encoding": "mapping",
        "key": "t_address",
        "label": "mapping(address => struct JetStakingV1.User)",
        "numberOfBytes": "32",
        "value": "t_struct(User)1653_storage"
      },
      "t_mapping(t_bytes32,t_struct(RoleData)43_storage)": {
        "encoding": "mapping",
        "key": "t_bytes32",
        "label": "mapping(bytes32 => struct AccessControlUpgradeable.RoleData)",
        "numberOfBytes": "32",
        "value": "t_struct(RoleData)43_storage"
      },
      "t_mapping(t_uint256,t_uint256)": {
        "encoding": "mapping",
        "key": "t_uint256",
        "label": "mapping(uint256 => uint256)",
        "numberOfBytes": "32",
        "value": "t_uint256"
      },
      "t_struct(RoleData)43_storage": {
        "encoding": "inplace",
        "label": "struct AccessControlUpgradeable.RoleData",
        "members": [
          {
            "astId": 40,
            "contract": "contracts/JetStakingV1.sol:JetStakingV1",
            "label": "members",
            "offset": 0,
            "slot": "0",
            "type": "t_mapping(t_address,t_bool)"
          },
          {
            "astId": 42,
            "contract": "contracts/JetStakingV1.sol:JetStakingV1",
            "label": "adminRole",
            "offset": 0,
            "slot": "1",
            "type": "t_bytes32"
          }
        ],
        "numberOfBytes": "64"
      },
      "t_struct(Schedule)1660_storage": {
        "encoding": "inplace",
        "label": "struct JetStakingV1.Schedule",
        "members": [
          {
            "astId": 1656,
            "contract": "contracts/JetStakingV1.sol:JetStakingV1",
            "label": "time",
            "offset": 0,
            "slot": "0",
            "type": "t_array(t_uint256)dyn_storage"
          },
          {
            "astId": 1659,
            "contract": "contracts/JetStakingV1.sol:JetStakingV1",
            "label": "reward",
            "offset": 0,
            "slot": "1",
            "type": "t_array(t_uint256)dyn_storage"
          }
        ],
        "numberOfBytes": "64"
      },
      "t_struct(Stream)1688_storage": {
        "encoding": "inplace",
        "label": "struct JetStakingV1.Stream",
        "members": [
          {
            "astId": 1662,
            "contract": "contracts/JetStakingV1.sol:JetStakingV1",
            "label": "streamOwner",
            "offset": 0,
            "slot": "0",
            "type": "t_address"
          },
          {
            "astId": 1664,
            "contract": "contracts/JetStakingV1.sol:JetStakingV1",
            "label": "rewardToken",
            "offset": 0,
            "slot": "1",
            "type": "t_address"
          },
          {
            "astId": 1666,
            "contract": "contracts/JetStakingV1.sol:JetStakingV1",
            "label": "auroraDepositAmount",
            "offset": 0,
            "slot": "2",
            "type": "t_uint256"
          },
          {
            "astId": 1668,
            "contract": "contracts/JetStakingV1.sol:JetStakingV1",
            "label": "auroraClaimedAmount",
            "offset": 0,
            "slot": "3",
            "type": "t_uint256"
          },
          {
            "astId": 1670,
            "contract": "contracts/JetStakingV1.sol:JetStakingV1",
            "label": "rewardDepositAmount",
            "offset": 0,
            "slot": "4",
            "type": "t_uint256"
          },
          {
            "astId": 1672,
            "contract": "contracts/JetStakingV1.sol:JetStakingV1",
            "label": "rewardClaimedAmount",
            "offset": 0,
            "slot": "5",
            "type": "t_uint256"
          },
          {
            "astId": 1674,
            "contract": "contracts/JetStakingV1.sol:JetStakingV1",
            "label": "maxDepositAmount",
            "offset": 0,
            "slot": "6",
            "type": "t_uint256"
          },
          {
            "astId": 1676,
            "contract": "contracts/JetStakingV1.sol:JetStakingV1",
            "label": "lastTimeOwnerClaimed",
            "offset": 0,
            "slot": "7",
            "type": "t_uint256"
          },
          {
            "astId": 1678,
            "contract": "contracts/JetStakingV1.sol:JetStakingV1",
            "label": "tau",
            "offset": 0,
            "slot": "8",
            "type": "t_uint256"
          },
          {
            "astId": 1680,
            "contract": "contracts/JetStakingV1.sol:JetStakingV1",
            "label": "rps",
            "offset": 0,
            "slot": "9",
            "type": "t_uint256"
          },
          {
            "astId": 1683,
            "contract": "contracts/JetStakingV1.sol:JetStakingV1",
            "label": "schedule",
            "offset": 0,
            "slot": "10",
            "type": "t_struct(Schedule)1660_storage"
          },
          {
            "astId": 1685,
            "contract": "contracts/JetStakingV1.sol:JetStakingV1",
            "label": "isProposed",
            "offset": 0,
            "slot": "12",
            "type": "t_bool"
          },
          {
            "astId": 1687,
            "contract": "contracts/JetStakingV1.sol:JetStakingV1",
            "label": "isActive",
            "offset": 1,
            "slot": "12",
            "type": "t_bool"
          }
        ],
        "numberOfBytes": "416"
      },
      "t_struct(User)1653_storage": {
        "encoding": "inplace",
        "label": "struct JetStakingV1.User",
        "members": [
          {
            "astId": 1636,
            "contract": "contracts/JetStakingV1.sol:JetStakingV1",
            "label": "deposit",
            "offset": 0,
            "slot": "0",
            "type": "t_uint256"
          },
          {
            "astId": 1638,
            "contract": "contracts/JetStakingV1.sol:JetStakingV1",
            "label": "auroraShares",
            "offset": 0,
            "slot": "1",
            "type": "t_uint256"
          },
          {
            "astId": 1640,
            "contract": "contracts/JetStakingV1.sol:JetStakingV1",
            "label": "streamShares",
            "offset": 0,
            "slot": "2",
            "type": "t_uint256"
          },
          {
            "astId": 1644,
            "contract": "contracts/JetStakingV1.sol:JetStakingV1",
            "label": "pendings",
            "offset": 0,
            "slot": "3",
            "type": "t_mapping(t_uint256,t_uint256)"
          },
          {
            "astId": 1648,
            "contract": "contracts/JetStakingV1.sol:JetStakingV1",
            "label": "releaseTime",
            "offset": 0,
            "slot": "4",
            "type": "t_mapping(t_uint256,t_uint256)"
          },
          {
            "astId": 1652,
            "contract": "contracts/JetStakingV1.sol:JetStakingV1",
            "label": "rpsDuringLastWithdrawal",
            "offset": 0,
            "slot": "5",
            "type": "t_mapping(t_uint256,t_uint256)"
          }
        ],
        "numberOfBytes": "192"
      },
      "t_uint256": {
        "encoding": "inplace",
        "label": "uint256",
        "numberOfBytes": "32"
      }
    }
  }
}