{
  "address": "0x3911213E494854f48A7326D56f3C6e7c8446747a",
  "abi": [
    {
      "anonymous": false,
      "inputs": [
        {
          "indexed": false,
          "internalType": "address",
          "name": "oldAdmin",
          "type": "address"
        },
        {
          "indexed": false,
          "internalType": "address",
          "name": "newAdmin",
          "type": "address"
        }
      ],
      "name": "OwnershipTransferred",
      "type": "event"
    },
    {
      "anonymous": false,
      "inputs": [
        {
          "indexed": true,
          "internalType": "uint256",
          "name": "streamId",
          "type": "uint256"
        },
        {
          "indexed": true,
          "internalType": "address",
          "name": "user",
          "type": "address"
        },
        {
          "indexed": false,
          "internalType": "uint256",
          "name": "amount",
          "type": "uint256"
        },
        {
          "indexed": false,
          "internalType": "uint256",
          "name": "timestamp",
          "type": "uint256"
        }
      ],
      "name": "Pending",
      "type": "event"
    },
    {
      "anonymous": false,
      "inputs": [
        {
          "indexed": true,
          "internalType": "uint256",
          "name": "streamId",
          "type": "uint256"
        },
        {
          "indexed": true,
          "internalType": "address",
          "name": "user",
          "type": "address"
        },
        {
          "indexed": false,
          "internalType": "uint256",
          "name": "amount",
          "type": "uint256"
        },
        {
          "indexed": false,
          "internalType": "uint256",
          "name": "timestamp",
          "type": "uint256"
        }
      ],
      "name": "Released",
      "type": "event"
    },
    {
      "anonymous": false,
      "inputs": [
        {
          "indexed": true,
          "internalType": "bytes32",
          "name": "role",
          "type": "bytes32"
        },
        {
          "indexed": true,
          "internalType": "bytes32",
          "name": "previousAdminRole",
          "type": "bytes32"
        },
        {
          "indexed": true,
          "internalType": "bytes32",
          "name": "newAdminRole",
          "type": "bytes32"
        }
      ],
      "name": "RoleAdminChanged",
      "type": "event"
    },
    {
      "anonymous": false,
      "inputs": [
        {
          "indexed": true,
          "internalType": "bytes32",
          "name": "role",
          "type": "bytes32"
        },
        {
          "indexed": true,
          "internalType": "address",
          "name": "account",
          "type": "address"
        },
        {
          "indexed": true,
          "internalType": "address",
          "name": "sender",
          "type": "address"
        }
      ],
      "name": "RoleGranted",
      "type": "event"
    },
    {
      "anonymous": false,
      "inputs": [
        {
          "indexed": true,
          "internalType": "bytes32",
          "name": "role",
          "type": "bytes32"
        },
        {
          "indexed": true,
          "internalType": "address",
          "name": "account",
          "type": "address"
        },
        {
          "indexed": true,
          "internalType": "address",
          "name": "sender",
          "type": "address"
        }
      ],
      "name": "RoleRevoked",
      "type": "event"
    },
    {
      "anonymous": false,
      "inputs": [
        {
          "indexed": true,
          "internalType": "address",
          "name": "user",
          "type": "address"
        },
        {
          "indexed": false,
          "internalType": "uint256",
          "name": "amount",
          "type": "uint256"
        },
        {
          "indexed": false,
          "internalType": "uint256",
          "name": "shares",
          "type": "uint256"
        },
        {
          "indexed": false,
          "internalType": "uint256",
          "name": "timestamp",
          "type": "uint256"
        }
      ],
      "name": "Staked",
      "type": "event"
    },
    {
      "anonymous": false,
      "inputs": [
        {
          "indexed": true,
          "internalType": "uint256",
          "name": "streamId",
          "type": "uint256"
        },
        {
          "indexed": true,
          "internalType": "address",
          "name": "owner",
          "type": "address"
        },
        {
          "indexed": false,
          "internalType": "uint256",
          "name": "timestamp",
          "type": "uint256"
        }
      ],
      "name": "StreamCreated",
      "type": "event"
    },
    {
      "anonymous": false,
      "inputs": [
        {
          "indexed": true,
          "internalType": "uint256",
          "name": "streamId",
          "type": "uint256"
        },
        {
          "indexed": true,
          "internalType": "address",
          "name": "owner",
          "type": "address"
        },
        {
          "indexed": false,
          "internalType": "uint256",
          "name": "timestamp",
          "type": "uint256"
        }
      ],
      "name": "StreamProposalCancelled",
      "type": "event"
    },
    {
      "anonymous": false,
      "inputs": [
        {
          "indexed": true,
          "internalType": "uint256",
          "name": "streamId",
          "type": "uint256"
        },
        {
          "indexed": true,
          "internalType": "address",
          "name": "owner",
          "type": "address"
        },
        {
          "indexed": false,
          "internalType": "uint256",
          "name": "timestamp",
          "type": "uint256"
        }
      ],
      "name": "StreamProposed",
      "type": "event"
    },
    {
      "anonymous": false,
      "inputs": [
        {
          "indexed": true,
          "internalType": "uint256",
          "name": "streamId",
          "type": "uint256"
        },
        {
          "indexed": true,
          "internalType": "address",
          "name": "owner",
          "type": "address"
        },
        {
          "indexed": false,
          "internalType": "uint256",
          "name": "timestamp",
          "type": "uint256"
        }
      ],
      "name": "StreamRemoved",
      "type": "event"
    },
    {
      "anonymous": false,
      "inputs": [
        {
          "indexed": true,
          "internalType": "address",
          "name": "user",
          "type": "address"
        },
        {
          "indexed": false,
          "internalType": "uint256",
          "name": "amount",
          "type": "uint256"
        },
        {
          "indexed": false,
          "internalType": "uint256",
          "name": "timestamp",
          "type": "uint256"
        }
      ],
      "name": "Unstaked",
      "type": "event"
    },
    {
      "inputs": [],
      "name": "DEFAULT_ADMIN_ROLE",
      "outputs": [
        {
          "internalType": "bytes32",
          "name": "",
          "type": "bytes32"
        }
      ],
      "stateMutability": "view",
      "type": "function"
    },
    {
      "inputs": [],
      "name": "PAUSE_ROLE",
      "outputs": [
        {
          "internalType": "bytes32",
          "name": "",
          "type": "bytes32"
        }
      ],
      "stateMutability": "view",
      "type": "function"
    },
    {
      "inputs": [],
      "name": "SUPER_ADMIN_ROLE",
      "outputs": [
        {
          "internalType": "bytes32",
          "name": "",
          "type": "bytes32"
        }
      ],
      "stateMutability": "view",
      "type": "function"
    },
    {
      "inputs": [
        {
          "internalType": "uint256",
          "name": "_flags",
          "type": "uint256"
        }
      ],
      "name": "__AdminControlled_init",
      "outputs": [],
      "stateMutability": "nonpayable",
      "type": "function"
    },
    {
      "inputs": [
        {
          "internalType": "address",
          "name": "target",
          "type": "address"
        },
        {
          "internalType": "bytes",
          "name": "data",
          "type": "bytes"
        }
      ],
      "name": "adminDelegatecall",
      "outputs": [
        {
          "internalType": "bytes",
          "name": "",
          "type": "bytes"
        }
      ],
      "stateMutability": "payable",
      "type": "function"
    },
    {
      "inputs": [
        {
          "internalType": "uint256",
          "name": "flags",
          "type": "uint256"
        }
      ],
      "name": "adminPause",
      "outputs": [],
      "stateMutability": "nonpayable",
      "type": "function"
    },
    {
      "inputs": [],
      "name": "adminReceiveEth",
      "outputs": [],
      "stateMutability": "payable",
      "type": "function"
    },
    {
      "inputs": [
        {
          "internalType": "address payable",
          "name": "destination",
          "type": "address"
        },
        {
          "internalType": "uint256",
          "name": "amount",
          "type": "uint256"
        }
      ],
      "name": "adminSendEth",
      "outputs": [],
      "stateMutability": "nonpayable",
      "type": "function"
    },
    {
      "inputs": [
        {
          "internalType": "uint256",
          "name": "key",
          "type": "uint256"
        },
        {
          "internalType": "uint256",
          "name": "value",
          "type": "uint256"
        }
      ],
      "name": "adminSstore",
      "outputs": [],
      "stateMutability": "nonpayable",
      "type": "function"
    },
    {
      "inputs": [
        {
          "internalType": "uint256",
          "name": "key",
          "type": "uint256"
        },
        {
          "internalType": "uint256",
          "name": "value",
          "type": "uint256"
        },
        {
          "internalType": "uint256",
          "name": "mask",
          "type": "uint256"
        }
      ],
      "name": "adminSstoreWithMask",
      "outputs": [],
      "stateMutability": "nonpayable",
      "type": "function"
    },
    {
      "inputs": [],
      "name": "auroraToken",
      "outputs": [
        {
          "internalType": "address",
          "name": "",
          "type": "address"
        }
      ],
      "stateMutability": "view",
      "type": "function"
    },
    {
      "inputs": [
        {
          "internalType": "address[]",
          "name": "accounts",
          "type": "address[]"
        },
        {
          "internalType": "uint256[]",
          "name": "amounts",
          "type": "uint256[]"
        },
        {
          "internalType": "uint256",
          "name": "batchAmount",
          "type": "uint256"
        }
      ],
      "name": "batchStakeOnBehalfOfOtherUsers",
      "outputs": [],
      "stateMutability": "nonpayable",
      "type": "function"
    },
    {
      "inputs": [
        {
          "internalType": "uint256",
          "name": "streamId",
          "type": "uint256"
        }
      ],
      "name": "cancelStreamProposal",
      "outputs": [],
      "stateMutability": "nonpayable",
      "type": "function"
    },
    {
      "inputs": [
        {
          "internalType": "uint256",
          "name": "streamId",
          "type": "uint256"
        },
        {
          "internalType": "uint256",
          "name": "rewardTokenAmount",
          "type": "uint256"
        }
      ],
      "name": "createStream",
      "outputs": [],
      "stateMutability": "nonpayable",
      "type": "function"
    },
    {
      "inputs": [
        {
          "internalType": "uint256",
          "name": "streamId",
          "type": "uint256"
        },
        {
          "internalType": "address",
          "name": "account",
          "type": "address"
        }
      ],
      "name": "getAmountOfShares",
      "outputs": [
        {
          "internalType": "uint256",
          "name": "",
          "type": "uint256"
        }
      ],
      "stateMutability": "view",
      "type": "function"
    },
    {
      "inputs": [
        {
          "internalType": "uint256",
          "name": "streamId",
          "type": "uint256"
        }
      ],
      "name": "getLatestRewardPerShare",
      "outputs": [
        {
          "internalType": "uint256",
          "name": "",
          "type": "uint256"
        }
      ],
      "stateMutability": "view",
      "type": "function"
    },
    {
      "inputs": [
        {
          "internalType": "uint256",
          "name": "streamId",
          "type": "uint256"
        },
        {
          "internalType": "address",
          "name": "account",
          "type": "address"
        }
      ],
      "name": "getPending",
      "outputs": [
        {
          "internalType": "uint256",
          "name": "",
          "type": "uint256"
        }
      ],
      "stateMutability": "view",
      "type": "function"
    },
    {
      "inputs": [
        {
          "internalType": "uint256",
          "name": "streamId",
          "type": "uint256"
        },
        {
          "internalType": "address",
          "name": "account",
          "type": "address"
        }
      ],
      "name": "getReleaseTime",
      "outputs": [
        {
          "internalType": "uint256",
          "name": "",
          "type": "uint256"
        }
      ],
      "stateMutability": "view",
      "type": "function"
    },
    {
      "inputs": [
        {
          "internalType": "uint256",
          "name": "streamId",
          "type": "uint256"
        }
      ],
      "name": "getRewardPerShare",
      "outputs": [
        {
          "internalType": "uint256",
          "name": "",
          "type": "uint256"
        }
      ],
      "stateMutability": "view",
      "type": "function"
    },
    {
      "inputs": [
        {
          "internalType": "uint256",
          "name": "streamId",
          "type": "uint256"
        },
        {
          "internalType": "address",
          "name": "account",
          "type": "address"
        }
      ],
      "name": "getRewardPerShareForUser",
      "outputs": [
        {
          "internalType": "uint256",
          "name": "",
          "type": "uint256"
        }
      ],
      "stateMutability": "view",
      "type": "function"
    },
    {
      "inputs": [
        {
          "internalType": "uint256",
          "name": "streamId",
          "type": "uint256"
        }
      ],
      "name": "getRewardsAmount",
      "outputs": [
        {
          "internalType": "uint256",
          "name": "",
          "type": "uint256"
        }
      ],
      "stateMutability": "view",
      "type": "function"
    },
    {
      "inputs": [
        {
          "internalType": "bytes32",
          "name": "role",
          "type": "bytes32"
        }
      ],
      "name": "getRoleAdmin",
      "outputs": [
        {
          "internalType": "bytes32",
          "name": "",
          "type": "bytes32"
        }
      ],
      "stateMutability": "view",
      "type": "function"
    },
    {
      "inputs": [
        {
          "internalType": "uint256",
          "name": "streamId",
          "type": "uint256"
        }
      ],
      "name": "getSchedule",
      "outputs": [
        {
          "internalType": "uint256[]",
          "name": "",
          "type": "uint256[]"
        },
        {
          "internalType": "uint256[]",
          "name": "",
          "type": "uint256[]"
        }
      ],
      "stateMutability": "view",
      "type": "function"
    },
    {
      "inputs": [
        {
          "internalType": "uint256",
          "name": "streamId",
          "type": "uint256"
        }
      ],
      "name": "getStream",
      "outputs": [
        {
          "internalType": "address",
          "name": "streamOwner",
          "type": "address"
        },
        {
          "internalType": "address",
          "name": "rewardToken",
          "type": "address"
        },
        {
          "internalType": "uint256",
          "name": "auroraDepositAmount",
          "type": "uint256"
        },
        {
          "internalType": "uint256",
          "name": "rewardDepositAmount",
          "type": "uint256"
        },
        {
          "internalType": "uint256",
          "name": "maxDepositAmount",
          "type": "uint256"
        },
        {
          "internalType": "uint256",
          "name": "tau",
          "type": "uint256"
        },
        {
          "internalType": "bool",
          "name": "isProposed",
          "type": "bool"
        },
        {
          "internalType": "bool",
          "name": "isActive",
          "type": "bool"
        }
      ],
      "stateMutability": "view",
      "type": "function"
    },
    {
      "inputs": [
        {
          "internalType": "uint256",
          "name": "streamId",
          "type": "uint256"
        },
        {
          "internalType": "address",
          "name": "account",
          "type": "address"
        }
      ],
      "name": "getStreamClaimableAmount",
      "outputs": [
        {
          "internalType": "uint256",
          "name": "",
          "type": "uint256"
        }
      ],
      "stateMutability": "view",
      "type": "function"
    },
    {
      "inputs": [
        {
          "internalType": "uint256",
          "name": "streamId",
          "type": "uint256"
        }
      ],
      "name": "getStreamOwnerClaimableAmount",
      "outputs": [
        {
          "internalType": "uint256",
          "name": "",
          "type": "uint256"
        }
      ],
      "stateMutability": "view",
      "type": "function"
    },
    {
      "inputs": [],
      "name": "getStreamsCount",
      "outputs": [
        {
          "internalType": "uint256",
          "name": "",
          "type": "uint256"
        }
      ],
      "stateMutability": "view",
      "type": "function"
    },
    {
      "inputs": [],
      "name": "getTotalAmountOfStakedAurora",
      "outputs": [
        {
          "internalType": "uint256",
          "name": "",
          "type": "uint256"
        }
      ],
      "stateMutability": "view",
      "type": "function"
    },
    {
      "inputs": [
        {
          "internalType": "address",
          "name": "token",
          "type": "address"
        }
      ],
      "name": "getTreasuryBalance",
      "outputs": [
        {
          "internalType": "uint256",
          "name": "",
          "type": "uint256"
        }
      ],
      "stateMutability": "view",
      "type": "function"
    },
    {
      "inputs": [
        {
          "internalType": "address",
          "name": "account",
          "type": "address"
        }
      ],
      "name": "getUserShares",
      "outputs": [
        {
          "internalType": "uint256",
          "name": "",
          "type": "uint256"
        }
      ],
      "stateMutability": "view",
      "type": "function"
    },
    {
      "inputs": [
        {
          "internalType": "address",
          "name": "account",
          "type": "address"
        }
      ],
      "name": "getUserTotalDeposit",
      "outputs": [
        {
          "internalType": "uint256",
          "name": "",
          "type": "uint256"
        }
      ],
      "stateMutability": "view",
      "type": "function"
    },
    {
      "inputs": [
        {
          "internalType": "bytes32",
          "name": "role",
          "type": "bytes32"
        },
        {
          "internalType": "address",
          "name": "account",
          "type": "address"
        }
      ],
      "name": "grantRole",
      "outputs": [],
      "stateMutability": "nonpayable",
      "type": "function"
    },
    {
      "inputs": [
        {
          "internalType": "bytes32",
          "name": "role",
          "type": "bytes32"
        },
        {
          "internalType": "address",
          "name": "account",
          "type": "address"
        }
      ],
      "name": "hasRole",
      "outputs": [
        {
          "internalType": "bool",
          "name": "",
          "type": "bool"
        }
      ],
      "stateMutability": "view",
      "type": "function"
    },
    {
      "inputs": [
        {
          "internalType": "address",
          "name": "aurora",
          "type": "address"
        },
        {
          "internalType": "uint256[]",
          "name": "scheduleTimes",
          "type": "uint256[]"
        },
        {
          "internalType": "uint256[]",
          "name": "scheduleRewards",
          "type": "uint256[]"
        },
        {
          "internalType": "uint256",
          "name": "tauAuroraStream",
          "type": "uint256"
        },
        {
          "internalType": "uint256",
          "name": "_flags",
          "type": "uint256"
        },
        {
          "internalType": "address",
          "name": "_treasury",
          "type": "address"
        }
      ],
      "name": "initialize",
      "outputs": [],
      "stateMutability": "nonpayable",
      "type": "function"
    },
    {
      "inputs": [],
      "name": "moveAllRewardsToPending",
      "outputs": [],
      "stateMutability": "nonpayable",
      "type": "function"
    },
    {
      "inputs": [
        {
          "internalType": "uint256",
          "name": "streamId",
          "type": "uint256"
        }
      ],
      "name": "moveRewardsToPending",
      "outputs": [],
      "stateMutability": "nonpayable",
      "type": "function"
    },
    {
      "inputs": [],
      "name": "paused",
      "outputs": [
        {
          "internalType": "uint256",
          "name": "",
          "type": "uint256"
        }
      ],
      "stateMutability": "view",
      "type": "function"
    },
    {
      "inputs": [
        {
          "internalType": "address",
          "name": "streamOwner",
          "type": "address"
        },
        {
          "internalType": "address",
          "name": "rewardToken",
          "type": "address"
        },
        {
          "internalType": "uint256",
          "name": "auroraDepositAmount",
          "type": "uint256"
        },
        {
          "internalType": "uint256",
          "name": "maxDepositAmount",
          "type": "uint256"
        },
        {
          "internalType": "uint256[]",
          "name": "scheduleTimes",
          "type": "uint256[]"
        },
        {
          "internalType": "uint256[]",
          "name": "scheduleRewards",
          "type": "uint256[]"
        },
        {
          "internalType": "uint256",
          "name": "tau",
          "type": "uint256"
        }
      ],
      "name": "proposeStream",
      "outputs": [],
      "stateMutability": "nonpayable",
      "type": "function"
    },
    {
      "inputs": [
        {
          "internalType": "uint256",
          "name": "streamId",
          "type": "uint256"
        }
      ],
      "name": "releaseAuroraRewardsToStreamOwner",
      "outputs": [],
      "stateMutability": "nonpayable",
      "type": "function"
    },
    {
      "inputs": [
        {
          "internalType": "uint256",
          "name": "streamId",
          "type": "uint256"
        },
        {
          "internalType": "address",
          "name": "streamFundReceiver",
          "type": "address"
        }
      ],
      "name": "removeStream",
      "outputs": [],
      "stateMutability": "nonpayable",
      "type": "function"
    },
    {
      "inputs": [
        {
          "internalType": "bytes32",
          "name": "role",
          "type": "bytes32"
        },
        {
          "internalType": "address",
          "name": "account",
          "type": "address"
        }
      ],
      "name": "renounceRole",
      "outputs": [],
      "stateMutability": "nonpayable",
      "type": "function"
    },
    {
      "inputs": [
        {
          "internalType": "bytes32",
          "name": "role",
          "type": "bytes32"
        },
        {
          "internalType": "address",
          "name": "account",
          "type": "address"
        }
      ],
      "name": "revokeRole",
      "outputs": [],
      "stateMutability": "nonpayable",
      "type": "function"
    },
    {
      "inputs": [
        {
          "internalType": "uint256",
          "name": "streamId",
          "type": "uint256"
        },
        {
          "internalType": "uint256",
          "name": "start",
          "type": "uint256"
        },
        {
          "internalType": "uint256",
          "name": "end",
          "type": "uint256"
        }
      ],
      "name": "rewardsSchedule",
      "outputs": [
        {
          "internalType": "uint256",
          "name": "",
          "type": "uint256"
        }
      ],
      "stateMutability": "view",
      "type": "function"
    },
    {
      "inputs": [
        {
          "internalType": "uint256",
          "name": "amount",
          "type": "uint256"
        }
      ],
      "name": "stake",
      "outputs": [],
      "stateMutability": "nonpayable",
      "type": "function"
    },
    {
      "inputs": [
        {
          "internalType": "address",
          "name": "account",
          "type": "address"
        },
        {
          "internalType": "uint256",
          "name": "amount",
          "type": "uint256"
        }
      ],
      "name": "stakeOnBehalfOfAnotherUser",
      "outputs": [],
      "stateMutability": "nonpayable",
      "type": "function"
    },
    {
      "inputs": [
        {
          "internalType": "uint256",
          "name": "streamId",
          "type": "uint256"
        },
        {
          "internalType": "uint256",
          "name": "start",
          "type": "uint256"
        },
        {
          "internalType": "uint256",
          "name": "end",
          "type": "uint256"
        }
      ],
      "name": "startEndScheduleIndex",
      "outputs": [
        {
          "internalType": "uint256",
          "name": "startIndex",
          "type": "uint256"
        },
        {
          "internalType": "uint256",
          "name": "endIndex",
          "type": "uint256"
        }
      ],
      "stateMutability": "view",
      "type": "function"
    },
    {
      "inputs": [
        {
          "internalType": "address",
          "name": "",
          "type": "address"
        }
      ],
      "name": "streamToIndex",
      "outputs": [
        {
          "internalType": "uint256",
          "name": "",
          "type": "uint256"
        }
      ],
      "stateMutability": "view",
      "type": "function"
    },
    {
      "inputs": [],
      "name": "superAdmin",
      "outputs": [
        {
          "internalType": "address",
          "name": "",
          "type": "address"
        }
      ],
      "stateMutability": "view",
      "type": "function"
    },
    {
      "inputs": [
        {
          "internalType": "bytes4",
          "name": "interfaceId",
          "type": "bytes4"
        }
      ],
      "name": "supportsInterface",
      "outputs": [
        {
          "internalType": "bool",
          "name": "",
          "type": "bool"
        }
      ],
      "stateMutability": "view",
      "type": "function"
    },
    {
      "inputs": [],
      "name": "totalAmountOfStakedAurora",
      "outputs": [
        {
          "internalType": "uint256",
          "name": "",
          "type": "uint256"
        }
      ],
      "stateMutability": "view",
      "type": "function"
    },
    {
      "inputs": [],
      "name": "totalAuroraShares",
      "outputs": [
        {
          "internalType": "uint256",
          "name": "",
          "type": "uint256"
        }
      ],
      "stateMutability": "view",
      "type": "function"
    },
    {
      "inputs": [],
      "name": "totalStreamShares",
      "outputs": [
        {
          "internalType": "uint256",
          "name": "",
          "type": "uint256"
        }
      ],
      "stateMutability": "view",
      "type": "function"
    },
    {
      "inputs": [],
      "name": "touchedAt",
      "outputs": [
        {
          "internalType": "uint256",
          "name": "",
          "type": "uint256"
        }
      ],
      "stateMutability": "view",
      "type": "function"
    },
    {
      "inputs": [],
      "name": "treasury",
      "outputs": [
        {
          "internalType": "address",
          "name": "",
          "type": "address"
        }
      ],
      "stateMutability": "view",
      "type": "function"
    },
    {
      "inputs": [
        {
          "internalType": "uint256",
          "name": "amount",
          "type": "uint256"
        }
      ],
      "name": "unstake",
      "outputs": [],
      "stateMutability": "nonpayable",
      "type": "function"
    },
    {
      "inputs": [],
      "name": "unstakeAll",
      "outputs": [],
      "stateMutability": "nonpayable",
      "type": "function"
    },
    {
      "inputs": [
        {
          "internalType": "address",
          "name": "newAdmin",
          "type": "address"
        }
      ],
      "name": "updateSuperAdmin",
      "outputs": [],
      "stateMutability": "nonpayable",
      "type": "function"
    },
    {
      "inputs": [
        {
          "internalType": "address",
          "name": "_treasury",
          "type": "address"
        }
      ],
      "name": "updateTreasury",
      "outputs": [],
      "stateMutability": "nonpayable",
      "type": "function"
    },
    {
      "inputs": [
        {
          "internalType": "uint256",
          "name": "streamId",
          "type": "uint256"
        }
      ],
      "name": "withdraw",
      "outputs": [],
      "stateMutability": "nonpayable",
      "type": "function"
    },
    {
      "inputs": [],
      "name": "withdrawAll",
      "outputs": [],
      "stateMutability": "nonpayable",
      "type": "function"
    }
  ],
  "transactionHash": "0xc1770cf583826d3107753245d5ec173ba67fe507cff53e75d36723e7f4a659fe",
  "args": [],
  "solcInputHash": "aff3002eb8fce3bbf57972c233485570",
  "bytecode": "0x60a06040523060805234801561001457600080fd5b5060805161475661003060003960006136c901526147566000f3fe6080604052600436106102a75760003560e01c806301ffc9a7146102ac57806303687788146102e15780630efd83101461030f57806312dd67fe1461032f5780631c61e6171461034f5780631dd004521461036f5780631fd8c5f4146103b3578063248a9ca3146103c95780632692c59f146103e957806329575f6a1461040b5780632ca783f3146104385780632e17de78146104585780632e1a7d4d146104785780632f2ff15d14610498578063339469b9146104b857806335322f37146104d857806336568abe146104ed5780633895a2751461050d578063389ed26714610523578063396a6c14146105455780633ba31abf146105655780634460bdd6146105855780634981912e146105a7578063530208f2146105d557806355021b3a146105f55780635578fdb21461061557806357baeac8146106355780635c975abb1461065557806361d027b31461066b5780636c4624c31461068b5780636db8e53d146106ab5780637f37df3b146106c15780637f51bb1f14610705578063853828b614610725578063894e9a0d1461073a5780638bc34e77146107a45780638d40bd03146107b957806390403322146107d957806391d14854146107f9578063993b21c1146108195780639c52a92014610839578063a217fddf14610859578063a4c828dc1461086e578063a694fc3a146108a4578063b8e9744c146108c4578063ba0cb22b146108e4578063bb07ec1b1461091d578063be831a2e14610933578063c22c09f414610953578063c5ca93a714610973578063c8927723146109a1578063c89e9ee8146109e5578063cae43fd814610a05578063cd5ba59014610a25578063d547741f14610a3a578063e335e79a14610a5a578063ee13ad8e14610a6f578063f16bc6f714610a8f578063f48ab4e014610409578063fbab974014610abc575b600080fd5b3480156102b857600080fd5b506102cc6102c7366004613dcc565b610adc565b60405190151581526020015b60405180910390f35b3480156102ed57600080fd5b506103016102fc366004613df6565b610b13565b6040519081526020016102d8565b34801561031b57600080fd5b5061030161032a366004613e37565b610ed9565b34801561033b57600080fd5b5061030161034a366004613e67565b610f23565b34801561035b57600080fd5b5061030161036a366004613e37565b610feb565b34801561037b57600080fd5b5061030161038a366004613e37565b6001600160a01b03166000908152609f6020908152604080832093835260059093019052205490565b3480156103bf57600080fd5b50610301609a5481565b3480156103d557600080fd5b506103016103e4366004613e67565b611061565b3480156103f557600080fd5b50610409610404366004613e67565b611076565b005b34801561041757600080fd5b5060975461042b906001600160a01b031681565b6040516102d89190613e80565b34801561044457600080fd5b50610409610453366004613e94565b611095565b34801561046457600080fd5b50610409610473366004613e67565b6110fa565b34801561048457600080fd5b50610409610493366004613e67565b611175565b3480156104a457600080fd5b506104096104b3366004613e37565b61121c565b3480156104c457600080fd5b506104096104d3366004613f94565b611239565b3480156104e457600080fd5b506104096113a7565b3480156104f957600080fd5b50610409610508366004613e37565b611422565b34801561051957600080fd5b5061030160995481565b34801561052f57600080fd5b506103016000805160206146e183398151915281565b34801561055157600080fd5b50610301610560366004613e67565b61149c565b34801561057157600080fd5b50610409610580366004613e37565b61151b565b34801561059157600080fd5b506103016000805160206146c183398151915281565b3480156105b357600080fd5b506105c76105c2366004613df6565b6117a7565b6040516102d892919061405e565b3480156105e157600080fd5b506104096105f0366004613e94565b611988565b34801561060157600080fd5b5061040961061036600461406c565b6119d0565b34801561062157600080fd5b50609e5461042b906001600160a01b031681565b34801561064157600080fd5b50610301610650366004614111565b611b48565b34801561066157600080fd5b5061030160985481565b34801561067757600080fd5b50609d5461042b906001600160a01b031681565b34801561069757600080fd5b506104096106a6366004613df6565b611bbc565b3480156106b757600080fd5b50610301609c5481565b3480156106cd57600080fd5b506103016106dc366004613e37565b6001600160a01b03166000908152609f6020908152604080832093835260039093019052205490565b34801561071157600080fd5b50610409610720366004614111565b611bd4565b34801561073157600080fd5b50610409611c29565b34801561074657600080fd5b5061075a610755366004613e67565b611cc9565b604080516001600160a01b03998a168152989097166020890152958701949094526060860192909252608085015260a0840152151560c0830152151560e0820152610100016102d8565b3480156107b057600080fd5b50610409611d55565b3480156107c557600080fd5b506104096107d436600461412e565b611da0565b3480156107e557600080fd5b506104096107f4366004613e67565b612036565b34801561080557600080fd5b506102cc610814366004613e37565b612178565b34801561082557600080fd5b50610301610834366004613e67565b6121a3565b34801561084557600080fd5b50610409610854366004613e67565b6121d1565b34801561086557600080fd5b50610301600081565b34801561087a57600080fd5b50610301610889366004614111565b6001600160a01b03166000908152609f602052604090205490565b3480156108b057600080fd5b506104096108bf366004613e67565b612325565b6108d76108d2366004614150565b61238d565b6040516102d8919061424f565b3480156108f057600080fd5b506103016108ff366004614111565b6001600160a01b03166000908152609f602052604090206001015490565b34801561092957600080fd5b50610301609b5481565b34801561093f57600080fd5b5061040961094e36600461412e565b612416565b34801561095f57600080fd5b5061040961096e366004614262565b612427565b34801561097f57600080fd5b5061099361098e366004613e67565b612645565b6040516102d8929190614339565b3480156109ad57600080fd5b506103016109bc366004613e37565b6001600160a01b03166000908152609f6020908152604080832093835260049093019052205490565b3480156109f157600080fd5b50610301610a00366004613e67565b612743565b348015610a1157600080fd5b50610409610a20366004614111565b6128ad565b348015610a3157600080fd5b506103016129ca565b348015610a4657600080fd5b50610409610a55366004613e37565b6129fd565b348015610a6657600080fd5b5060a154610301565b348015610a7b57600080fd5b50610409610a8a366004613e67565b612a1a565b348015610a9b57600080fd5b50610301610aaa366004614111565b60a06020526000908152604090205481565b348015610ac857600080fd5b50610409610ad7366004613e67565b612ab4565b60006001600160e01b03198216637965db0b60e01b1480610b0d57506301ffc9a760e01b6001600160e01b03198316145b92915050565b6000806000610b238686866117a7565b8092508193505050600060a18781548110610b4057610b4061435e565b90600052602060002090600d0201600a01905060008083851415610c2d5782600101856001610b6f919061438a565b81548110610b7f57610b7f61435e565b9060005260206000200154836001018681548110610b9f57610b9f61435e565b9060005260206000200154610bb491906143a2565b9050826000018581548110610bcb57610bcb61435e565b60009182526020909120015483610be387600161438a565b81548110610bf357610bf361435e565b9060005260206000200154610c0891906143a2565b610c1289896143a2565b610c1c90836143b9565b610c2691906143d8565b9150610ecb565b82600101856001610c3e919061438a565b81548110610c4e57610c4e61435e565b9060005260206000200154836001018681548110610c6e57610c6e61435e565b9060005260206000200154610c8391906143a2565b9050826000018581548110610c9a57610c9a61435e565b60009182526020909120015483610cb287600161438a565b81548110610cc257610cc261435e565b9060005260206000200154610cd791906143a2565b8884610ce488600161438a565b81548110610cf457610cf461435e565b9060005260206000200154610d0991906143a2565b610d1390836143b9565b610d1d91906143d8565b91506000610d2c86600161438a565b90505b84811015610dad5783600101816001610d48919061438a565b81548110610d5857610d5861435e565b9060005260206000200154846001018281548110610d7857610d7861435e565b9060005260206000200154610d8d91906143a2565b9150610d99828461438a565b925080610da5816143fa565b915050610d2f565b50826000018481548110610dc357610dc361435e565b9060005260206000200154871115610ecb5782600101846001610de6919061438a565b81548110610df657610df661435e565b9060005260206000200154836001018581548110610e1657610e1661435e565b9060005260206000200154610e2b91906143a2565b9050826000018581548110610e4257610e4261435e565b60009182526020909120015483610e5a87600161438a565b81548110610e6a57610e6a61435e565b9060005260206000200154610e7f91906143a2565b836000018581548110610e9457610e9461435e565b906000526020600020015488610eaa91906143a2565b610eb490836143b9565b610ebe91906143d8565b610ec8908361438a565b91505b5093505050505b9392505050565b600082610f0257506001600160a01b0381166000908152609f6020526040902060010154610b0d565b506001600160a01b03166000908152609f6020526040902060020154919050565b600081610f4b5760405162461bcd60e51b8152600401610f4290614415565b60405180910390fd5b609c54610f8f5760405162461bcd60e51b81526020600482015260126024820152715a45524f5f53545245414d5f53484152455360701b6044820152606401610f42565b609c5468fc6f7c40458122964d601f1b610fa884612743565b610fb291906143b9565b610fbc91906143d8565b60a18381548110610fcf57610fcf61435e565b90600052602060002090600d020160090154610b0d919061438a565b600080610ff784610f23565b6001600160a01b0384166000908152609f6020908152604080832088845260058101909252909120546002820154929350909168fc6f7c40458122964d601f1b8161104284876143a2565b61104c91906143b9565b61105691906143d8565b979650505050505050565b60009081526065602052604090206001015490565b6000805160206146e183398151915261108f8133612b84565b50609855565b60018060985416600014806110b057506110b0600033612178565b6110cc5760405162461bcd60e51b8152600401610f4290614446565b6110d68383612be8565b609d54609e546110f5916001600160a01b039182169133911685612bfa565b505050565b60018060985416600014806111155750611115600033612178565b6111315760405162461bcd60e51b8152600401610f4290614446565b611139612c52565b609b54336000908152609f602052604081206001015460995491929161115f91906143b9565b61116991906143d8565b90506110f58382612d17565b60018060985416600014806111905750611190600033612178565b6111ac5760405162461bcd60e51b8152600401610f4290614446565b336000908152609f60209081526040808320858452600401909152902054421161120f5760405162461bcd60e51b8152602060048201526014602482015273494e56414c49445f52454c454153455f54494d4560601b6044820152606401610f42565b61121882612f16565b5050565b61122582611061565b61122f8133612b84565b6110f58383613011565b60018060985416600014806112545750611254600033612178565b6112705760405162461bcd60e51b8152600401610f4290614446565b82518451146112b85760405162461bcd60e51b81526020600482015260146024820152730929cac82989288be82a4a482b2be988a9c8ea8960631b6044820152606401610f42565b6000805b845181101561133a578481815181106112d7576112d761435e565b6020026020010151826112ea919061438a565b91506113288682815181106113015761130161435e565b602002602001015186838151811061131b5761131b61435e565b6020026020010151612be8565b80611332816143fa565b9150506112bc565b508281146113815760405162461bcd60e51b81526020600482015260146024820152731253959053125117d0905510d217d05353d5539560621b6044820152606401610f42565b609d54609e546113a0916001600160a01b039182169133911686612bfa565b5050505050565b60018060985416600014806113c257506113c2600033612178565b6113de5760405162461bcd60e51b8152600401610f4290614446565b6113e6612c52565b609b54336000908152609f602052604081206001015460995491929161140c91906143b9565b61141691906143d8565b90506112188182612d17565b6001600160a01b03811633146114925760405162461bcd60e51b815260206004820152602f60248201527f416363657373436f6e74726f6c3a2063616e206f6e6c792072656e6f756e636560448201526e103937b632b9903337b91039b2b63360891b6064820152608401610f42565b6112188282613097565b60008060a183815481106114b2576114b261435e565b90600052602060002090600d0201905080600c0160019054906101000a900460ff166114e15750600092915050565b60006114f284836007015442610b13565b9050816004015482600201548261150991906143b9565b61151391906143d8565b949350505050565b60006115278133612b84565b8261156b5760405162461bcd60e51b81526020600482015260146024820152734155524f52415f4e4f545f52454d4f5641424c4560601b6044820152606401610f42565b600060a184815481106115805761158061435e565b90600052602060002090600d0201905080600c0160019054906101000a900460ff166115e75760405162461bcd60e51b815260206004820152601660248201527514d51491505357d053149150511657d4915353d5915160521b6044820152606401610f42565b600c8101805461ffff1916905580546040514281526001600160a01b039091169085907f138a3f5239f6194312dabd3886690dd9204448e8dd2105abf6587f732041cbfe9060200160405180910390a360008160030154826002015461164d91906143a2565b905060008260050154836004015461166591906143a2565b609e54909150600090611680906001600160a01b0316611b48565b600185015490915060009061169d906001600160a01b0316611b48565b609d54609754609e549293506001600160a01b039182169263da0c1a88929182169116858811156116ce57856116d0565b875b6040518463ffffffff1660e01b81526004016116ee93929190614466565b600060405180830381600087803b15801561170857600080fd5b505af115801561171c573d6000803e3d6000fd5b5050609d5460018801546001600160a01b03918216935063da0c1a8892508a91168487111561174b578461174d565b865b6040518463ffffffff1660e01b815260040161176b93929190614466565b600060405180830381600087803b15801561178557600080fd5b505af1158015611799573d6000803e3d6000fd5b505050505050505050505050565b600080600060a186815481106117bf576117bf61435e565b60009182526020909120600a600d909202010180549091506118115760405162461bcd60e51b815260206004820152600b60248201526a4e4f5f5343484544554c4560a81b6044820152606401610f42565b84841180156118405750806000016000815481106118315761183161435e565b90600052602060002001548510155b8015611876575080548190611857906001906143a2565b815481106118675761186761435e565b90600052602060002001548411155b6118c05760405162461bcd60e51b815260206004820152601b60248201527a494e56414c49445f5343484544554c455f504152414d455445525360281b6044820152606401610f42565b60005b81546118d1906001906143a2565b811015611923578160000181815481106118ed576118ed61435e565b90600052602060002001548610156119115761190a6001826143a2565b9350611923565b8061191b816143fa565b9150506118c3565b508054600090611935906001906143a2565b90505b801561197e578160000181815481106119535761195361435e565b9060005260206000200154851061196c5780925061197e565b806119768161448a565b915050611938565b5050935093915050565b60006119948133612b84565b6040516001600160a01b0384169083156108fc029084906000818181858888f193505050501580156119ca573d6000803e3d6000fd5b50505050565b60006119dc8133612b84565b6119eb888888888888886130fe565b60a1805460018101808355600083815291929083908110611a0e57611a0e61435e565b600091825260208220600d9091020180546001600160a01b03808e166001600160a01b0319928316178355600183018054918e1691909216179055600281018a9055600381018290556006810189905560048101829055600581018290558751909250879190611a8057611a8061435e565b60209081029190910181015160078301556040805180820190915287815280820187905287519091600a840191611abc918391908b0190613d6c565b506020828101518051611ad59260018501920190613d6c565b505050600c8101805461ffff19166001179055600881018490556040516001600160a01b038b1690839060008051602061468183398151915290611b1c9042815260200190565b60405180910390a3609e54611b3c906001600160a01b031633308b612bfa565b50505050505050505050565b609d546040516370a0823160e01b81526000916001600160a01b03808516926370a0823192611b7b921690600401613e80565b602060405180830381865afa158015611b98573d6000803e3d6000fd5b505050506040513d601f19601f82011682018060405250810190610b0d91906144a1565b6000611bc88133612b84565b50825491821816189055565b6000611be08133612b84565b6001600160a01b038216611c065760405162461bcd60e51b8152600401610f42906144ba565b50609d80546001600160a01b0319166001600160a01b0392909216919091179055565b6001806098541660001480611c445750611c44600033612178565b611c605760405162461bcd60e51b8152600401610f4290614446565b336000908152609f60205260408120905b60a1548110156110f557600081815260038301602052604090205415801590611ca95750600081815260048301602052604090205442115b15611cb757611cb781612f16565b80611cc1816143fa565b915050611c71565b600080600080600080600080600060a18a81548110611cea57611cea61435e565b60009182526020909120600d90910201805460018201546002830154600484015460068501546008860154600c909601546001600160a01b039586169f50939094169c50909a50985090965090945060ff808216945061010090910416915050919395975091939597565b6001806098541660001480611d705750611d70600033612178565b611d8c5760405162461bcd60e51b8152600401610f4290614446565b611d94612c52565b611d9d336132fa565b50565b6001806098541660001480611dbb5750611dbb600033612178565b611dd75760405162461bcd60e51b8152600401610f4290614446565b600060a18481548110611dec57611dec61435e565b60009182526020909120600d90910201600c81015490915060ff16611e495760405162461bcd60e51b815260206004820152601360248201527214d51491505357d393d517d41493d413d4d151606a1b6044820152606401610f42565b80546001600160a01b03163314611e725760405162461bcd60e51b8152600401610f42906144e3565b600c810154610100900460ff1615611ec45760405162461bcd60e51b815260206004820152601560248201527453545245414d5f414c52454144595f45584953545360581b6044820152606401610f42565b4281600a01600001600081548110611ede57611ede61435e565b90600052602060002001541015611f315760405162461bcd60e51b815260206004820152601760248201527614d51491505357d41493d413d4d05317d1561412549151604a1b6044820152606401610f42565b600c8101805461ff001916610100179055600481018390556040513390859060008051602061470183398151915290611f6d9042815260200190565b60405180910390a38060060154831015611ff2576006810154600282015460009190611f9986836143a2565b611fa391906143b9565b611fad91906143d8565b905080826002016000828254611fc391906143a2565b90915550611fd39050858561335a565b609754609e54611ff0916001600160a01b039182169116836134d8565b505b609d546002820154609e54612015926001600160a01b03918216929116906134d8565b609d5460018201546119ca916001600160a01b039182169133911686612bfa565b60006120428133612b84565b600060a183815481106120575761205761435e565b90600052602060002090600d020190504260a1848154811061207b5761207b61435e565b90600052602060002090600d0201600a016000016000815481106120a1576120a161435e565b90600052602060002001541080156120bd5750600c81015460ff165b6121015760405162461bcd60e51b815260206004820152601560248201527453545245414d5f4449445f4e4f545f45585049524560581b6044820152606401610f42565b600c8101805460ff19169055600281018054600090915581546040514281526001600160a01b039091169085907f36bc74eb2ec224bdd93b3e3ba7a70e1802b4a876f1bd1fd7fdc15f41ccc12f239060200160405180910390a3609754609e546119ca916001600160a01b039182169116836134d8565b60009182526065602090815260408084206001600160a01b0393909316845291905290205460ff1690565b600060a182815481106121b8576121b861435e565b90600052602060002090600d0201600901549050919050565b60018060985416600014806121ec57506121ec600033612178565b6122085760405162461bcd60e51b8152600401610f4290614446565b600060a1838154811061221d5761221d61435e565b60009182526020909120600d9091020180549091506001600160a01b031633146122595760405162461bcd60e51b8152600401610f42906144e3565b600c810154610100900460ff166122825760405162461bcd60e51b8152600401610f4290614511565b600061228d8461149c565b9050428260070181905550808260030160008282546122ac919061438a565b9091555050609d548254609e54604051631b41835160e31b81526001600160a01b039384169363da0c1a88936122ed93908216929116908690600401614466565b600060405180830381600087803b15801561230757600080fd5b505af115801561231b573d6000803e3d6000fd5b5050505050505050565b60018060985416600014806123405750612340600033612178565b61235c5760405162461bcd60e51b8152600401610f4290614446565b612364612c52565b61236e3383613508565b609d54609e54611218916001600160a01b039182169133911685612bfa565b6060600061239b8133612b84565b6123a36136be565b600080856001600160a01b0316856040516123be919061453a565b600060405180830381855af49150503d80600081146123f9576040519150601f19603f3d011682016040523d82523d6000602084013e6123fe565b606091505b50915091508161240d57600080fd5b95945050505050565b60006124228133612b84565b509055565b600054610100900460ff166124425760005460ff1615612446565b303b155b6124625760405162461bcd60e51b8152600401610f4290614556565b600054610100900460ff16158015612484576000805461ffff19166101011790555b6001600160a01b038716158015906124a457506001600160a01b03821615155b6124c05760405162461bcd60e51b8152600401610f42906144ba565b6124c983612ab4565b609d80546001600160a01b038085166001600160a01b031992831617909255609e8054928a169290911691909117905560a18054600101808255600082815291829182906125195761251961435e565b60009182526020808320600d929092029091018054336001600160a01b03199182161782556001820180549091166001600160a01b038e16179055600281018390556003810183905560068101839055600481018390556005810192909255426007830155604080518082019091528a81528082018a90528a5192935091600a8401916125aa9183918d0190613d6c565b5060208281015180516125c39260018501920190613d6c565b505050600c8101805461ffff191661010117905560088101869055604051428152339083906000805160206146818339815191529060200160405180910390a3604051428152339083906000805160206147018339815191529060200160405180910390a35050801561263c576000805461ff00191690555b50505050505050565b60608060a1838154811061265b5761265b61435e565b90600052602060002090600d0201600a0160000160a184815481106126825761268261435e565b90600052602060002090600d0201600a01600101818054806020026020016040519081016040528092919081815260200182805480156126e157602002820191906000526020600020905b8154815260200190600101908083116126cd575b505050505091508080548060200260200160405190810160405280929190818152602001828054801561273357602002820191906000526020600020905b81548152602001906001019080831161271f575b5050505050905091509150915091565b60008060a183815481106127595761275961435e565b90600052602060002090600d0201600a0160000160008154811061277f5761277f61435e565b9060005260206000200154905080421161279c5750600092915050565b600060a184815481106127b1576127b161435e565b90600052602060002090600d0201600a01600001600160a186815481106127da576127da61435e565b60009182526020909120600a600d9092020101546127f891906143a2565b815481106128085761280861435e565b9060005260206000200154905080609a5410612828575060009392505050565b60008083609a54111561283f57609a549150612886565b60a186815481106128525761285261435e565b90600052602060002090600d0201600a016000016000815481106128785761287861435e565b906000526020600020015491505b82421015612895575042612898565b50815b6128a3868383610b13565b9695505050505050565b6000805160206146c18339815191526128c68133612b84565b6001600160a01b0382166128ec5760405162461bcd60e51b8152600401610f42906144ba565b6097546001600160a01b03838116911614156129395760405162461bcd60e51b815260206004820152600c60248201526b53414d455f4144445245535360a01b6044820152606401610f42565b609780546001600160a01b0319166001600160a01b03841617905561296c6000805160206146c183398151915283613011565b612977600083613011565b61298f6000805160206146e183398151915283613011565b6129a76000805160206146c183398151915233613097565b6129b2600033613097565b6112186000805160206146e183398151915233613097565b6000609a54600014156129dd5750600090565b6129eb6000609a5442610b13565b6099546129f8919061438a565b905090565b612a0682611061565b612a108133612b84565b6110f58383613097565b6001806098541660001480612a355750612a35600033612178565b612a515760405162461bcd60e51b8152600401610f4290614446565b8160a18181548110612a6557612a6561435e565b90600052602060002090600d0201600c0160019054906101000a900460ff16612aa05760405162461bcd60e51b8152600401610f4290614511565b612aa8612c52565b6110f533846136f4565b565b600054610100900460ff16612acf5760005460ff1615612ad3565b303b155b612aef5760405162461bcd60e51b8152600401610f4290614556565b600054610100900460ff16158015612b11576000805461ffff19166101011790555b612b196138d1565b6098829055609780546001600160a01b03191633908117909155612b4c906000805160206146c183398151915290613011565b612b57600033613011565b612b6f6000805160206146e183398151915233613011565b8015611218576000805461ff00191690555050565b612b8e8282612178565b61121857612ba6816001600160a01b03166014613910565b612bb1836020613910565b604051602001612bc29291906145a4565b60408051601f198184030181529082905262461bcd60e51b8252610f429160040161424f565b612bf0612c52565b6112188282613508565b6119ca846323b872dd60e01b858585604051602401612c1b93929190614466565b60408051601f198184030181529190526020810180516001600160e01b03166001600160e01b031990931692909217909152613aab565b42609a541415612c5e57565b609b5415612d1157612c706000612743565b60996000828254612c81919061438a565b90915550600190505b60a154811015612d0f5760a18181548110612ca757612ca761435e565b90600052602060002090600d0201600c0160019054906101000a900460ff1615612cfd57612cd481610f23565b60a18281548110612ce757612ce761435e565b90600052602060002090600d0201600901819055505b80612d07816143fa565b915050612c8a565b505b42609a55565b81612d525760405162461bcd60e51b815260206004820152600b60248201526a16915493d7d05353d5539560aa1b6044820152606401610f42565b80821115612d9d5760405162461bcd60e51b81526020600482015260186024820152774e4f545f454e4f5547485f5354414b455f42414c414e434560401b6044820152606401610f42565b336000818152609f6020526040902090612db6906132fa565b8060010154609b6000828254612dcc91906143a2565b90915550506002810154609c8054600090612de89084906143a2565b90915550506000600182018190556002820181905560998054849290612e0f9084906143a2565b9091555050600080825580805260038201602052604081208054859290612e3790849061438a565b909155505060a18054600090612e4f57612e4f61435e565b90600052602060002090600d02016008015442612e6c919061438a565b600080805260048301602090815260408083209390935560038401905281812054915133926000805160206146a183398151915291612ead9190429061405e565b60405180910390a3336001600160a01b03167f7fc4727e062e336010f2c282598ef5f14facb3de68cf8195c2f23e1454b2b74e8442604051612ef092919061405e565b60405180910390a26000612f0484846143a2565b905080156119ca576119ca3382613508565b336000818152609f602090815260408083208584526003810190925280832080549390555190929084907ff86dbbaae73a38eba376327ec68def0678d91d952b4a18aa86d880f199632bd990612f6f908590429061405e565b60405180910390a3609d5460a180546001600160a01b039092169163da0c1a8891339187908110612fa257612fa261435e565b600091825260209091206001600d9092020101546040516001600160e01b031960e085901b168152612fe392916001600160a01b0316908690600401614466565b600060405180830381600087803b158015612ffd57600080fd5b505af115801561263c573d6000803e3d6000fd5b61301b8282612178565b6112185760008281526065602090815260408083206001600160a01b03851684529091529020805460ff191660011790556130533390565b6001600160a01b0316816001600160a01b0316837f2f8788117e7eff1d82e926ec794901d17c78024a50270940304540a733656f0d60405160405180910390a45050565b6130a18282612178565b156112185760008281526065602090815260408083206001600160a01b0385168085529252808320805460ff1916905551339285917ff6391f5c32d9c69d2a47ea670b442974b53935d1edc7fd64eb21e047a839171b9190a45050565b6001600160a01b0387166131535760405162461bcd60e51b815260206004820152601c60248201527b494e56414c49445f53545245414d5f4f574e45525f4144445245535360201b6044820152606401610f42565b6001600160a01b0386166131a85760405162461bcd60e51b815260206004820152601c60248201527b494e56414c49445f5245574152445f544f4b454e5f4144445245535360201b6044820152606401610f42565b838511156132045760405162461bcd60e51b815260206004820152602360248201527f494e56414c49445f4445504f53495445445f4155524f52415f504152414d455460448201526245525360e81b6064820152608401610f42565b42836000815181106132185761321861435e565b60200260200101511161326d5760405162461bcd60e51b815260206004820152601e60248201527f494e56414c49445f53545245414d5f45585049524154494f4e5f4441544500006044820152606401610f42565b81518351146132b85760405162461bcd60e51b8152602060048201526017602482015276494e56414c49445f5343484544554c455f56414c55455360481b6044820152606401610f42565b8061263c5760405162461bcd60e51b81526020600482015260126024820152711253959053125117d5105557d411549253d160721b6044820152606401610f42565b60015b60a1548110156112185760a1818154811061331a5761331a61435e565b90600052602060002090600d0201600c0160019054906101000a900460ff16156133485761334882826136f4565b80613352816143fa565b9150506132fd565b60005b60a183815481106133705761337061435e565b60009182526020909120600b600d9092020101548110156110f557806133da578160a184815481106133a4576133a461435e565b90600052602060002090600d0201600a0160010182815481106133c9576133c961435e565b6000918252602090912001556134c6565b600160a184815481106133ef576133ef61435e565b60009182526020909120600b600d90920201015461340d91906143a2565b81141561342957600060a184815481106133a4576133a461435e565b600260a1848154811061343e5761343e61435e565b60009182526020909120600b600d909202010161345c6001846143a2565b8154811061346c5761346c61435e565b906000526020600020015461348191906143d8565b60a184815481106134945761349461435e565b90600052602060002090600d0201600a0160010182815481106134b9576134b961435e565b6000918252602090912001555b806134d0816143fa565b91505061335d565b6040516001600160a01b0383166024820152604481018290526110f590849063a9059cbb60e01b90606401612c1b565b6001600160a01b0382166000908152609f60205260408120609b54909190613531575081613559565b609954609b5461354190856143b9565b61354b91906143d8565b61355690600161438a565b90505b60018201541561356c5761356c846132fa565b80826001016000828254613580919061438a565b9250508190555080609b6000828254613599919061438a565b9250508190555082609960008282546135b2919061438a565b90915550508154839083906000906135cb90849061438a565b90915550600090506135dd8242613b7d565b905080609c60008282546135f1919061438a565b925050819055508083600201600082825461360c919061438a565b90915550600190505b60a15481101561366b5760a181815481106136325761363261435e565b600091825260208083206009600d9093020191909101548383526005870190915260409091205580613663816143fa565b915050613615565b506040805185815260208101849052428183015290516001600160a01b038716917fb4caaf29adda3eefee3ad552a8e85058589bf834c7466cae4ee58787f70589ed919081900360600190a25050505050565b306001600160a01b037f0000000000000000000000000000000000000000000000000000000000000000161415612ab257600080fd5b806137115760405162461bcd60e51b8152600401610f4290614415565b6001600160a01b0382166000908152609f602090815260408083206002810154858552600582019093529083205460a1805492949368fc6f7c40458122964d601f1b9390929190879081106137685761376861435e565b90600052602060002090600d02016009015461378491906143a2565b61378e91906143b9565b61379891906143d8565b9050806137a55750505050565b6000838152600383016020526040812080548392906137c590849061438a565b909155505060a18054849081106137de576137de61435e565b90600052602060002090600d0201600901548260050160008581526020019081526020016000208190555060a1838154811061381c5761381c61435e565b90600052602060002090600d02016008015442613839919061438a565b600084815260048401602052604090205560a18054829190859081106138615761386161435e565b90600052602060002090600d02016005016000828254613881919061438a565b90915550506000838152600383016020526040908190205490516001600160a01b0386169185916000805160206146a1833981519152916138c391429061405e565b60405180910390a350505050565b600054610100900460ff166138f85760405162461bcd60e51b8152600401610f4290614613565b613900613c4a565b613908613c4a565b612ab2613c4a565b6060600061391f8360026143b9565b61392a90600261438a565b6001600160401b0381111561394157613941613ec0565b6040519080825280601f01601f19166020018201604052801561396b576020820181803683370190505b509050600360fc1b816000815181106139865761398661435e565b60200101906001600160f81b031916908160001a905350600f60fb1b816001815181106139b5576139b561435e565b60200101906001600160f81b031916908160001a90535060006139d98460026143b9565b6139e490600161438a565b90505b6001811115613a5c576f181899199a1a9b1b9c1cb0b131b232b360811b85600f1660108110613a1857613a1861435e565b1a60f81b828281518110613a2e57613a2e61435e565b60200101906001600160f81b031916908160001a90535060049490941c93613a558161448a565b90506139e7565b508315610ed25760405162461bcd60e51b815260206004820181905260248201527f537472696e67733a20686578206c656e67746820696e73756666696369656e746044820152606401610f42565b6000613b00826040518060400160405280602081526020017f5361666545524332303a206c6f772d6c6576656c2063616c6c206661696c6564815250856001600160a01b0316613c719092919063ffffffff16565b8051909150156110f55780806020019051810190613b1e919061465e565b6110f55760405162461bcd60e51b815260206004820152602a60248201527f5361666545524332303a204552433230206f7065726174696f6e20646964206e6044820152691bdd081cdd58d8d9595960b21b6064820152608401610f42565b60008061040090506000610100905060006228207260a1600081548110613ba657613ba661435e565b90600052602060002090600d0201600a01600001600081548110613bcc57613bcc61435e565b9060005260206000200154613be1919061438a565b90506000613bf363078614f88361438a565b9050818611613c1157613c0684886143b9565b945050505050610b0d565b808610613c2257613c0683886143b9565b613c2c82826143a2565b613c3687836143a2565b613c4085876143a2565b611042908a6143b9565b600054610100900460ff16612ab25760405162461bcd60e51b8152600401610f4290614613565b6060611513848460008585843b613cca5760405162461bcd60e51b815260206004820152601d60248201527f416464726573733a2063616c6c20746f206e6f6e2d636f6e74726163740000006044820152606401610f42565b600080866001600160a01b03168587604051613ce6919061453a565b60006040518083038185875af1925050503d8060008114613d23576040519150601f19603f3d011682016040523d82523d6000602084013e613d28565b606091505b509150915061105682828660608315613d42575081610ed2565b825115613d525782518084602001fd5b8160405162461bcd60e51b8152600401610f42919061424f565b828054828255906000526020600020908101928215613da7579160200282015b82811115613da7578251825591602001919060010190613d8c565b50613db3929150613db7565b5090565b5b80821115613db35760008155600101613db8565b600060208284031215613dde57600080fd5b81356001600160e01b031981168114610ed257600080fd5b600080600060608486031215613e0b57600080fd5b505081359360208301359350604090920135919050565b6001600160a01b0381168114611d9d57600080fd5b60008060408385031215613e4a57600080fd5b823591506020830135613e5c81613e22565b809150509250929050565b600060208284031215613e7957600080fd5b5035919050565b6001600160a01b0391909116815260200190565b60008060408385031215613ea757600080fd5b8235613eb281613e22565b946020939093013593505050565b634e487b7160e01b600052604160045260246000fd5b604051601f8201601f191681016001600160401b0381118282101715613efe57613efe613ec0565b604052919050565b60006001600160401b03821115613f1f57613f1f613ec0565b5060051b60200190565b600082601f830112613f3a57600080fd5b81356020613f4f613f4a83613f06565b613ed6565b82815260059290921b84018101918181019086841115613f6e57600080fd5b8286015b84811015613f895780358352918301918301613f72565b509695505050505050565b600080600060608486031215613fa957600080fd5b83356001600160401b0380821115613fc057600080fd5b818601915086601f830112613fd457600080fd5b81356020613fe4613f4a83613f06565b82815260059290921b8401810191818101908a84111561400357600080fd5b948201945b8386101561402a57853561401b81613e22565b82529482019490820190614008565b9750508701359250508082111561404057600080fd5b5061404d86828701613f29565b925050604084013590509250925092565b918252602082015260400190565b600080600080600080600060e0888a03121561408757600080fd5b873561409281613e22565b965060208801356140a281613e22565b9550604088013594506060880135935060808801356001600160401b03808211156140cc57600080fd5b6140d88b838c01613f29565b945060a08a01359150808211156140ee57600080fd5b506140fb8a828b01613f29565b92505060c0880135905092959891949750929550565b60006020828403121561412357600080fd5b8135610ed281613e22565b6000806040838503121561414157600080fd5b50508035926020909101359150565b6000806040838503121561416357600080fd5b823561416e81613e22565b91506020838101356001600160401b038082111561418b57600080fd5b818601915086601f83011261419f57600080fd5b8135818111156141b1576141b1613ec0565b6141c3601f8201601f19168501613ed6565b915080825287848285010111156141d957600080fd5b80848401858401376000848284010152508093505050509250929050565b60005b838110156142125781810151838201526020016141fa565b838111156119ca5750506000910152565b6000815180845261423b8160208601602086016141f7565b601f01601f19169290920160200192915050565b602081526000610ed26020830184614223565b60008060008060008060c0878903121561427b57600080fd5b863561428681613e22565b955060208701356001600160401b03808211156142a257600080fd5b6142ae8a838b01613f29565b965060408901359150808211156142c457600080fd5b506142d189828a01613f29565b945050606087013592506080870135915060a08701356142f081613e22565b809150509295509295509295565b600081518084526020808501945080840160005b8381101561432e57815187529582019590820190600101614312565b509495945050505050565b60408152600061434c60408301856142fe565b828103602084015261240d81856142fe565b634e487b7160e01b600052603260045260246000fd5b634e487b7160e01b600052601160045260246000fd5b6000821982111561439d5761439d614374565b500190565b6000828210156143b4576143b4614374565b500390565b60008160001904831182151516156143d3576143d3614374565b500290565b6000826143f557634e487b7160e01b600052601260045260246000fd5b500490565b600060001982141561440e5761440e614374565b5060010190565b60208082526017908201527610555493d49057d49155d0549114d7d0d3d35413d55391604a1b604082015260600190565b60208082526006908201526514185d5cd95960d21b604082015260600190565b6001600160a01b039384168152919092166020820152604081019190915260600190565b60008161449957614499614374565b506000190190565b6000602082840312156144b357600080fd5b5051919050565b6020808252600f908201526e494e56414c49445f4144445245535360881b604082015260600190565b60208082526014908201527324a72b20a624a22fa9aa2922a0a6afa7aba722a960611b604082015260600190565b6020808252600f908201526e494e4143544956455f53545245414d60881b604082015260600190565b6000825161454c8184602087016141f7565b9190910192915050565b6020808252602e908201527f496e697469616c697a61626c653a20636f6e747261637420697320616c72656160408201526d191e481a5b9a5d1a585b1a5e995960921b606082015260800190565b76020b1b1b2b9b9a1b7b73a3937b61d1030b1b1b7bab73a1604d1b8152600083516145d68160178501602088016141f7565b7001034b99036b4b9b9b4b733903937b6329607d1b60179184019182015283516146078160288401602088016141f7565b01602801949350505050565b6020808252602b908201527f496e697469616c697a61626c653a20636f6e7472616374206973206e6f74206960408201526a6e697469616c697a696e6760a81b606082015260800190565b60006020828403121561467057600080fd5b81518015158114610ed257600080fdfe46df4b1da61e3da1ea96646025835ed3c019e55199917ddcb47d906225732f46d841f13bd518db95a474f6d4b9fc7df1cfc116c841f91e218ff172d13f633b987613a25ecc738585a232ad50a301178f12b3ba8887d13e138b523c4269c47689139c2898040ef16910dc9f44dc697df79363da767d8bc92f2e310312b816e46d9b75bb6b5d76707693bc56d2793d08ca515b19570eff8dcca55f2578b960becaa2646970667358221220826599a70df4c8e0b9a379b821badb02d0406ddad366518fe3eca905f8a7a1f364736f6c634300080a0033",
  "devdoc": {
    "author": "Aurora Team",
    "details": "Implementation of Jet staking contract      This contract implements the staking mechanics for AURORA ERC20 token.      A user can stake any amount of AURORA tokens, and get rewarded in both      AURORA and other stream tokens based on the rewards schedules.      Stream rewards can be claimed any time however AURORA can't be claimed      unless the user unstakes his full/partial amount of shares.      This contract is AdminControlled which has a tremendous power. However      hopfully it be governed by a community wallet.",
    "kind": "dev",
    "methods": {
      "adminDelegatecall(address,bytes)": {
        "custom:oz-upgrades-unsafe-allow": "delegatecall"
      },
      "batchStakeOnBehalfOfOtherUsers(address[],uint256[],uint256)": {
        "details": "batchStakeOnBehalfOfOtherUsers called for airdropping Aurora users",
        "params": {
          "accounts": "the account address",
          "amounts": "in AURORA tokens",
          "batchAmount": "equals to the sum of amounts"
        }
      },
      "cancelStreamProposal(uint256)": {
        "details": "cancelStreamProposal should only called if the stream owner never created the stream after the proposal expiry date.",
        "params": {
          "streamId": "the stream index"
        }
      },
      "createStream(uint256,uint256)": {
        "details": "create new stream (only stream owner) stream owner must approve reward tokens to this contract.",
        "params": {
          "streamId": "stream id"
        }
      },
      "getAmountOfShares(uint256,address)": {
        "details": "gets a user stream shares",
        "params": {
          "account": "the user address",
          "streamId": "stream index"
        },
        "returns": {
          "_0": "user stream shares"
        }
      },
      "getLatestRewardPerShare(uint256)": {
        "details": "calculates and gets the latest reward per share (RPS) for a stream",
        "params": {
          "streamId": "stream index"
        },
        "returns": {
          "_0": "streams[streamId].rps + scheduled reward up till now"
        }
      },
      "getPending(uint256,address)": {
        "details": "gets the user's stream pending reward",
        "params": {
          "account": "user account",
          "streamId": "stream index"
        },
        "returns": {
          "_0": "user.pendings[streamId]"
        }
      },
      "getReleaseTime(uint256,address)": {
        "details": "gets the user's stream reward release time",
        "params": {
          "account": "user account",
          "streamId": "stream index"
        },
        "returns": {
          "_0": "user.releaseTime[streamId]"
        }
      },
      "getRewardPerShare(uint256)": {
        "details": "gets reward per share (RPS) for a stream",
        "params": {
          "streamId": "stream index"
        },
        "returns": {
          "_0": "streams[streamId].rps"
        }
      },
      "getRewardPerShareForUser(uint256,address)": {
        "details": "gets the user's reward per share (RPS) for a stream",
        "params": {
          "streamId": "stream index"
        },
        "returns": {
          "_0": "user.rpsDuringLastWithdrawal[streamId]"
        }
      },
      "getRewardsAmount(uint256)": {
        "details": "calculates and gets the latest released rewards.",
        "params": {
          "streamId": "stream index"
        },
        "returns": {
          "_0": "rewards released since last update."
        }
      },
      "getRoleAdmin(bytes32)": {
        "details": "Returns the admin role that controls `role`. See {grantRole} and {revokeRole}. To change a role's admin, use {_setRoleAdmin}."
      },
      "getSchedule(uint256)": {
        "details": "gets the stream schedule time and reward",
        "params": {
          "streamId": "stream index"
        },
        "returns": {
          "_0": "schedule.time, schedule.reward"
        }
      },
      "getStream(uint256)": {
        "details": "get the stream data",
        "params": {
          "streamId": "the stream index"
        }
      },
      "getStreamClaimableAmount(uint256,address)": {
        "details": "gets the user's stream claimable amount",
        "params": {
          "streamId": "stream index"
        },
        "returns": {
          "_0": "(latesRPS - user.rpsDuringLastWithdrawal) * user.shares"
        }
      },
      "getStreamOwnerClaimableAmount(uint256)": {
        "details": "Stream owner claimable AURORA.",
        "params": {
          "streamId": "the stream index"
        }
      },
      "getStreamsCount()": {
        "details": "get the streams count",
        "returns": {
          "_0": "streams.length"
        }
      },
      "getTotalAmountOfStakedAurora()": {
        "details": "gets the total amount of staked aurora",
        "returns": {
          "_0": "totalAmountOfStakedAurora + latest reward schedule"
        }
      },
      "getTreasuryBalance(address)": {
        "details": "Get the treasury balance",
        "params": {
          "token": "the token address"
        }
      },
      "getUserShares(address)": {
        "details": "gets the user shares",
        "params": {
          "account": "the user address"
        },
        "returns": {
          "_0": "user shares"
        }
      },
      "getUserTotalDeposit(address)": {
        "details": "gets the total user deposit",
        "params": {
          "account": "the user address"
        },
        "returns": {
          "_0": "user total deposit in (AURORA)"
        }
      },
      "grantRole(bytes32,address)": {
        "details": "Grants `role` to `account`. If `account` had not been already granted `role`, emits a {RoleGranted} event. Requirements: - the caller must have ``role``'s admin role."
      },
      "hasRole(bytes32,address)": {
        "details": "Returns `true` if `account` has been granted `role`."
      },
      "initialize(address,uint256[],uint256[],uint256,uint256,address)": {
        "details": "initialize the contract and deploys the first stream (AURORA)",
        "params": {
          "_flags": "admin controlled contract flags",
          "_treasury": "the Aurora treasury contract address",
          "aurora": "token contract address",
          "scheduleRewards": "init the schedule amounts",
          "scheduleTimes": "init the schedule time",
          "tauAuroraStream": "release time constant per stream (e.g AURORA stream)"
        }
      },
      "moveAllRewardsToPending()": {
        "details": "moves all the user rewards to pending reward."
      },
      "moveRewardsToPending(uint256)": {
        "details": "moves the reward for specific stream Id to pending rewards. It will require a waiting time untill it get released. Users call this in function in order to claim rewards.",
        "params": {
          "streamId": "stream index"
        }
      },
      "proposeStream(address,address,uint256,uint256,uint256[],uint256[],uint256)": {
        "details": "An admin of the staking contract can whitelist a stream. Whitelisting of the stream provides the option for the stream creator (presumably the issuing party of a specific token) to deposit some ERC-20 tokens on the staking contract and potentially get in return some AURORA tokens. Deposited ERC-20 tokens will be distributed to the stakers over some period of time.",
        "params": {
          "auroraDepositAmount": "Amount of the AURORA deposited by the Admin.",
          "maxDepositAmount": "The upper amount of the tokens that should be deposited by the stream owner",
          "rewardToken": "the address of the ERC-20 tokens to be deposited in the stream",
          "scheduleRewards": "array of reward amounts that are kept on the staking contract at each block height",
          "scheduleTimes": "array of block heights for each schedule time",
          "streamOwner": "only this account would be able to create a stream",
          "tau": "the tau is (pending release period) for this stream (e.g one day)"
        }
      },
      "releaseAuroraRewardsToStreamOwner(uint256)": {
        "details": "the release of AURORA tokens to the stream creator is subjected to the same schedule as rewards. Thus if for a specific moment in time 30% of the rewards are distributed, then it means that 30% of the AURORA deposit can be withdrawn by the stream creator too. called by the stream owner",
        "params": {
          "streamId": "the stream index"
        }
      },
      "removeStream(uint256,address)": {
        "details": "removes a stream (only admin role)",
        "params": {
          "streamFundReceiver": "receives the rest of the reward tokens in the stream",
          "streamId": "contract address"
        }
      },
      "renounceRole(bytes32,address)": {
        "details": "Revokes `role` from the calling account. Roles are often managed via {grantRole} and {revokeRole}: this function's purpose is to provide a mechanism for accounts to lose their privileges if they are compromised (such as when a trusted device is misplaced). If the calling account had been revoked `role`, emits a {RoleRevoked} event. Requirements: - the caller must be `account`."
      },
      "revokeRole(bytes32,address)": {
        "details": "Revokes `role` from `account`. If `account` had been granted `role`, emits a {RoleRevoked} event. Requirements: - the caller must have ``role``'s admin role."
      },
      "rewardsSchedule(uint256,uint256,uint256)": {
        "details": "calculate the total amount of the released tokens within a period (start & end)",
        "params": {
          "end": "is the end timestamp (e.g block.timestamp .. now)",
          "start": "is the start timestamp within the schedule",
          "streamId": "the stream index"
        },
        "returns": {
          "_0": "amount of the released tokens for that period"
        }
      },
      "stake(uint256)": {
        "details": "a user stakes amount of AURORA tokens The user should approve these tokens to the treasury contract in order to complete the stake.",
        "params": {
          "amount": "is the AURORA amount."
        }
      },
      "stakeOnBehalfOfAnotherUser(address,uint256)": {
        "details": "stakeOnBehalfOfAnotherUser is called for airdropping Aurora users",
        "params": {
          "account": "the account address",
          "amount": "in AURORA tokens"
        }
      },
      "startEndScheduleIndex(uint256,uint256,uint256)": {
        "details": "gets start index and end index in a stream schedule",
        "params": {
          "end": "end time (in seconds)",
          "start": "start time (in seconds)",
          "streamId": "stream index"
        }
      },
      "supportsInterface(bytes4)": {
        "details": "See {IERC165-supportsInterface}."
      },
      "unstake(uint256)": {
        "details": "unstake amount from user shares value. The rest is re-staked",
        "params": {
          "amount": "to unstake"
        }
      },
      "unstakeAll()": {
        "details": "unstake all the user's shares"
      },
      "updateTreasury(address)": {
        "details": "restricted for the admin only",
        "params": {
          "_treasury": "treasury contract address for the reward tokens"
        }
      },
      "withdraw(uint256)": {
        "details": "withdraw amount in the pending. User should wait for pending time (tau constant) in order to be able to withdraw.",
        "params": {
          "streamId": "stream index"
        }
      },
      "withdrawAll()": {
        "details": "withdraw all claimed balances which have passed pending periode. This function will reach gas limit with too many streams, so the frontend will allow individual stream withdrawals and disable withdrawAll."
      }
    },
    "title": "JetStakingV1",
    "version": 1
  },
  "userdoc": {
    "kind": "user",
    "methods": {
      "updateTreasury(address)": {
        "notice": "updates treasury account"
      }
    },
    "version": 1
  },
  "storageLayout": {
    "storage": [
      {
        "astId": 416,
        "contract": "contracts/JetStakingV1.sol:JetStakingV1",
        "label": "_initialized",
        "offset": 0,
        "slot": "0",
        "type": "t_bool"
      },
      {
        "astId": 419,
        "contract": "contracts/JetStakingV1.sol:JetStakingV1",
        "label": "_initializing",
        "offset": 1,
        "slot": "0",
        "type": "t_bool"
      },
      {
        "astId": 1073,
        "contract": "contracts/JetStakingV1.sol:JetStakingV1",
        "label": "__gap",
        "offset": 0,
        "slot": "1",
        "type": "t_array(t_uint256)50_storage"
      },
      {
        "astId": 1322,
        "contract": "contracts/JetStakingV1.sol:JetStakingV1",
        "label": "__gap",
        "offset": 0,
        "slot": "51",
        "type": "t_array(t_uint256)50_storage"
      },
      {
        "astId": 48,
        "contract": "contracts/JetStakingV1.sol:JetStakingV1",
        "label": "_roles",
        "offset": 0,
        "slot": "101",
        "type": "t_mapping(t_bytes32,t_struct(RoleData)43_storage)"
      },
      {
        "astId": 335,
        "contract": "contracts/JetStakingV1.sol:JetStakingV1",
        "label": "__gap",
        "offset": 0,
        "slot": "102",
        "type": "t_array(t_uint256)49_storage"
      },
      {
        "astId": 1346,
        "contract": "contracts/JetStakingV1.sol:JetStakingV1",
        "label": "superAdmin",
        "offset": 0,
        "slot": "151",
        "type": "t_address"
      },
      {
        "astId": 1348,
        "contract": "contracts/JetStakingV1.sol:JetStakingV1",
        "label": "paused",
        "offset": 0,
        "slot": "152",
        "type": "t_uint256"
      },
      {
        "astId": 1646,
        "contract": "contracts/JetStakingV1.sol:JetStakingV1",
        "label": "totalAmountOfStakedAurora",
        "offset": 0,
        "slot": "153",
        "type": "t_uint256"
      },
      {
        "astId": 1648,
        "contract": "contracts/JetStakingV1.sol:JetStakingV1",
        "label": "touchedAt",
        "offset": 0,
        "slot": "154",
        "type": "t_uint256"
      },
      {
        "astId": 1650,
        "contract": "contracts/JetStakingV1.sol:JetStakingV1",
        "label": "totalAuroraShares",
        "offset": 0,
        "slot": "155",
        "type": "t_uint256"
      },
      {
        "astId": 1652,
        "contract": "contracts/JetStakingV1.sol:JetStakingV1",
        "label": "totalStreamShares",
        "offset": 0,
        "slot": "156",
        "type": "t_uint256"
      },
      {
        "astId": 1654,
        "contract": "contracts/JetStakingV1.sol:JetStakingV1",
        "label": "treasury",
        "offset": 0,
        "slot": "157",
        "type": "t_address"
      },
      {
        "astId": 1656,
        "contract": "contracts/JetStakingV1.sol:JetStakingV1",
        "label": "auroraToken",
        "offset": 0,
        "slot": "158",
        "type": "t_address"
      },
      {
        "astId": 1715,
        "contract": "contracts/JetStakingV1.sol:JetStakingV1",
        "label": "users",
        "offset": 0,
        "slot": "159",
        "type": "t_mapping(t_address,t_struct(User)1675_storage)"
      },
      {
        "astId": 1719,
        "contract": "contracts/JetStakingV1.sol:JetStakingV1",
        "label": "streamToIndex",
        "offset": 0,
        "slot": "160",
        "type": "t_mapping(t_address,t_uint256)"
      },
      {
        "astId": 1723,
        "contract": "contracts/JetStakingV1.sol:JetStakingV1",
        "label": "streams",
        "offset": 0,
        "slot": "161",
        "type": "t_array(t_struct(Stream)1710_storage)dyn_storage"
      }
    ],
    "types": {
      "t_address": {
        "encoding": "inplace",
        "label": "address",
        "numberOfBytes": "20"
      },
      "t_array(t_struct(Stream)1710_storage)dyn_storage": {
        "base": "t_struct(Stream)1710_storage",
        "encoding": "dynamic_array",
        "label": "struct JetStakingV1.Stream[]",
        "numberOfBytes": "32"
      },
      "t_array(t_uint256)49_storage": {
        "base": "t_uint256",
        "encoding": "inplace",
        "label": "uint256[49]",
        "numberOfBytes": "1568"
      },
      "t_array(t_uint256)50_storage": {
        "base": "t_uint256",
        "encoding": "inplace",
        "label": "uint256[50]",
        "numberOfBytes": "1600"
      },
      "t_array(t_uint256)dyn_storage": {
        "base": "t_uint256",
        "encoding": "dynamic_array",
        "label": "uint256[]",
        "numberOfBytes": "32"
      },
      "t_bool": {
        "encoding": "inplace",
        "label": "bool",
        "numberOfBytes": "1"
      },
      "t_bytes32": {
        "encoding": "inplace",
        "label": "bytes32",
        "numberOfBytes": "32"
      },
      "t_mapping(t_address,t_bool)": {
        "encoding": "mapping",
        "key": "t_address",
        "label": "mapping(address => bool)",
        "numberOfBytes": "32",
        "value": "t_bool"
      },
      "t_mapping(t_address,t_struct(User)1675_storage)": {
        "encoding": "mapping",
        "key": "t_address",
        "label": "mapping(address => struct JetStakingV1.User)",
        "numberOfBytes": "32",
        "value": "t_struct(User)1675_storage"
      },
      "t_mapping(t_address,t_uint256)": {
        "encoding": "mapping",
        "key": "t_address",
        "label": "mapping(address => uint256)",
        "numberOfBytes": "32",
        "value": "t_uint256"
      },
      "t_mapping(t_bytes32,t_struct(RoleData)43_storage)": {
        "encoding": "mapping",
        "key": "t_bytes32",
        "label": "mapping(bytes32 => struct AccessControlUpgradeable.RoleData)",
        "numberOfBytes": "32",
        "value": "t_struct(RoleData)43_storage"
      },
      "t_mapping(t_uint256,t_uint256)": {
        "encoding": "mapping",
        "key": "t_uint256",
        "label": "mapping(uint256 => uint256)",
        "numberOfBytes": "32",
        "value": "t_uint256"
      },
      "t_struct(RoleData)43_storage": {
        "encoding": "inplace",
        "label": "struct AccessControlUpgradeable.RoleData",
        "members": [
          {
            "astId": 40,
            "contract": "contracts/JetStakingV1.sol:JetStakingV1",
            "label": "members",
            "offset": 0,
            "slot": "0",
            "type": "t_mapping(t_address,t_bool)"
          },
          {
            "astId": 42,
            "contract": "contracts/JetStakingV1.sol:JetStakingV1",
            "label": "adminRole",
            "offset": 0,
            "slot": "1",
            "type": "t_bytes32"
          }
        ],
        "numberOfBytes": "64"
      },
      "t_struct(Schedule)1682_storage": {
        "encoding": "inplace",
        "label": "struct JetStakingV1.Schedule",
        "members": [
          {
            "astId": 1678,
            "contract": "contracts/JetStakingV1.sol:JetStakingV1",
            "label": "time",
            "offset": 0,
            "slot": "0",
            "type": "t_array(t_uint256)dyn_storage"
          },
          {
            "astId": 1681,
            "contract": "contracts/JetStakingV1.sol:JetStakingV1",
            "label": "reward",
            "offset": 0,
            "slot": "1",
            "type": "t_array(t_uint256)dyn_storage"
          }
        ],
        "numberOfBytes": "64"
      },
      "t_struct(Stream)1710_storage": {
        "encoding": "inplace",
        "label": "struct JetStakingV1.Stream",
        "members": [
          {
            "astId": 1684,
            "contract": "contracts/JetStakingV1.sol:JetStakingV1",
            "label": "streamOwner",
            "offset": 0,
            "slot": "0",
            "type": "t_address"
          },
          {
            "astId": 1686,
            "contract": "contracts/JetStakingV1.sol:JetStakingV1",
            "label": "rewardToken",
            "offset": 0,
            "slot": "1",
            "type": "t_address"
          },
          {
            "astId": 1688,
            "contract": "contracts/JetStakingV1.sol:JetStakingV1",
            "label": "auroraDepositAmount",
            "offset": 0,
            "slot": "2",
            "type": "t_uint256"
          },
          {
            "astId": 1690,
            "contract": "contracts/JetStakingV1.sol:JetStakingV1",
            "label": "auroraClaimedAmount",
            "offset": 0,
            "slot": "3",
            "type": "t_uint256"
          },
          {
            "astId": 1692,
            "contract": "contracts/JetStakingV1.sol:JetStakingV1",
            "label": "rewardDepositAmount",
            "offset": 0,
            "slot": "4",
            "type": "t_uint256"
          },
          {
            "astId": 1694,
            "contract": "contracts/JetStakingV1.sol:JetStakingV1",
            "label": "rewardClaimedAmount",
            "offset": 0,
            "slot": "5",
            "type": "t_uint256"
          },
          {
            "astId": 1696,
            "contract": "contracts/JetStakingV1.sol:JetStakingV1",
            "label": "maxDepositAmount",
            "offset": 0,
            "slot": "6",
            "type": "t_uint256"
          },
          {
            "astId": 1698,
            "contract": "contracts/JetStakingV1.sol:JetStakingV1",
            "label": "lastTimeOwnerClaimed",
            "offset": 0,
            "slot": "7",
            "type": "t_uint256"
          },
          {
            "astId": 1700,
            "contract": "contracts/JetStakingV1.sol:JetStakingV1",
            "label": "tau",
            "offset": 0,
            "slot": "8",
            "type": "t_uint256"
          },
          {
            "astId": 1702,
            "contract": "contracts/JetStakingV1.sol:JetStakingV1",
            "label": "rps",
            "offset": 0,
            "slot": "9",
            "type": "t_uint256"
          },
          {
            "astId": 1705,
            "contract": "contracts/JetStakingV1.sol:JetStakingV1",
            "label": "schedule",
            "offset": 0,
            "slot": "10",
            "type": "t_struct(Schedule)1682_storage"
          },
          {
            "astId": 1707,
            "contract": "contracts/JetStakingV1.sol:JetStakingV1",
            "label": "isProposed",
            "offset": 0,
            "slot": "12",
            "type": "t_bool"
          },
          {
            "astId": 1709,
            "contract": "contracts/JetStakingV1.sol:JetStakingV1",
            "label": "isActive",
            "offset": 1,
            "slot": "12",
            "type": "t_bool"
          }
        ],
        "numberOfBytes": "416"
      },
      "t_struct(User)1675_storage": {
        "encoding": "inplace",
        "label": "struct JetStakingV1.User",
        "members": [
          {
            "astId": 1658,
            "contract": "contracts/JetStakingV1.sol:JetStakingV1",
            "label": "deposit",
            "offset": 0,
            "slot": "0",
            "type": "t_uint256"
          },
          {
            "astId": 1660,
            "contract": "contracts/JetStakingV1.sol:JetStakingV1",
            "label": "auroraShares",
            "offset": 0,
            "slot": "1",
            "type": "t_uint256"
          },
          {
            "astId": 1662,
            "contract": "contracts/JetStakingV1.sol:JetStakingV1",
            "label": "streamShares",
            "offset": 0,
            "slot": "2",
            "type": "t_uint256"
          },
          {
            "astId": 1666,
            "contract": "contracts/JetStakingV1.sol:JetStakingV1",
            "label": "pendings",
            "offset": 0,
            "slot": "3",
            "type": "t_mapping(t_uint256,t_uint256)"
          },
          {
            "astId": 1670,
            "contract": "contracts/JetStakingV1.sol:JetStakingV1",
            "label": "releaseTime",
            "offset": 0,
            "slot": "4",
            "type": "t_mapping(t_uint256,t_uint256)"
          },
          {
            "astId": 1674,
            "contract": "contracts/JetStakingV1.sol:JetStakingV1",
            "label": "rpsDuringLastWithdrawal",
            "offset": 0,
            "slot": "5",
            "type": "t_mapping(t_uint256,t_uint256)"
          }
        ],
        "numberOfBytes": "192"
      },
      "t_uint256": {
        "encoding": "inplace",
        "label": "uint256",
        "numberOfBytes": "32"
      }
    }
  }
}