{
  "address": "0x0630e9241d9947dA7c80cbc825826c3be8a7cA06",
  "abi": [
    {
      "anonymous": false,
      "inputs": [
        {
          "indexed": false,
          "internalType": "address",
          "name": "oldAdmin",
          "type": "address"
        },
        {
          "indexed": false,
          "internalType": "address",
          "name": "newAdmin",
          "type": "address"
        }
      ],
      "name": "OwnershipTransferred",
      "type": "event"
    },
    {
      "anonymous": false,
      "inputs": [
        {
          "indexed": true,
          "internalType": "uint256",
          "name": "streamId",
          "type": "uint256"
        },
        {
          "indexed": true,
          "internalType": "address",
          "name": "user",
          "type": "address"
        },
        {
          "indexed": false,
          "internalType": "uint256",
          "name": "amount",
          "type": "uint256"
        },
        {
          "indexed": false,
          "internalType": "uint256",
          "name": "timestamp",
          "type": "uint256"
        }
      ],
      "name": "Pending",
      "type": "event"
    },
    {
      "anonymous": false,
      "inputs": [
        {
          "indexed": true,
          "internalType": "uint256",
          "name": "streamId",
          "type": "uint256"
        },
        {
          "indexed": true,
          "internalType": "address",
          "name": "user",
          "type": "address"
        },
        {
          "indexed": false,
          "internalType": "uint256",
          "name": "amount",
          "type": "uint256"
        },
        {
          "indexed": false,
          "internalType": "uint256",
          "name": "timestamp",
          "type": "uint256"
        }
      ],
      "name": "Released",
      "type": "event"
    },
    {
      "anonymous": false,
      "inputs": [
        {
          "indexed": true,
          "internalType": "bytes32",
          "name": "role",
          "type": "bytes32"
        },
        {
          "indexed": true,
          "internalType": "bytes32",
          "name": "previousAdminRole",
          "type": "bytes32"
        },
        {
          "indexed": true,
          "internalType": "bytes32",
          "name": "newAdminRole",
          "type": "bytes32"
        }
      ],
      "name": "RoleAdminChanged",
      "type": "event"
    },
    {
      "anonymous": false,
      "inputs": [
        {
          "indexed": true,
          "internalType": "bytes32",
          "name": "role",
          "type": "bytes32"
        },
        {
          "indexed": true,
          "internalType": "address",
          "name": "account",
          "type": "address"
        },
        {
          "indexed": true,
          "internalType": "address",
          "name": "sender",
          "type": "address"
        }
      ],
      "name": "RoleGranted",
      "type": "event"
    },
    {
      "anonymous": false,
      "inputs": [
        {
          "indexed": true,
          "internalType": "bytes32",
          "name": "role",
          "type": "bytes32"
        },
        {
          "indexed": true,
          "internalType": "address",
          "name": "account",
          "type": "address"
        },
        {
          "indexed": true,
          "internalType": "address",
          "name": "sender",
          "type": "address"
        }
      ],
      "name": "RoleRevoked",
      "type": "event"
    },
    {
      "anonymous": false,
      "inputs": [
        {
          "indexed": true,
          "internalType": "address",
          "name": "user",
          "type": "address"
        },
        {
          "indexed": false,
          "internalType": "uint256",
          "name": "amount",
          "type": "uint256"
        },
        {
          "indexed": false,
          "internalType": "uint256",
          "name": "shares",
          "type": "uint256"
        },
        {
          "indexed": false,
          "internalType": "uint256",
          "name": "timestamp",
          "type": "uint256"
        }
      ],
      "name": "Staked",
      "type": "event"
    },
    {
      "anonymous": false,
      "inputs": [
        {
          "indexed": true,
          "internalType": "uint256",
          "name": "streamId",
          "type": "uint256"
        },
        {
          "indexed": true,
          "internalType": "address",
          "name": "owner",
          "type": "address"
        },
        {
          "indexed": false,
          "internalType": "uint256",
          "name": "timestamp",
          "type": "uint256"
        }
      ],
      "name": "StreamCreated",
      "type": "event"
    },
    {
      "anonymous": false,
      "inputs": [
        {
          "indexed": true,
          "internalType": "uint256",
          "name": "streamId",
          "type": "uint256"
        },
        {
          "indexed": true,
          "internalType": "address",
          "name": "owner",
          "type": "address"
        },
        {
          "indexed": false,
          "internalType": "uint256",
          "name": "timestamp",
          "type": "uint256"
        }
      ],
      "name": "StreamProposalCancelled",
      "type": "event"
    },
    {
      "anonymous": false,
      "inputs": [
        {
          "indexed": true,
          "internalType": "uint256",
          "name": "streamId",
          "type": "uint256"
        },
        {
          "indexed": true,
          "internalType": "address",
          "name": "owner",
          "type": "address"
        },
        {
          "indexed": false,
          "internalType": "uint256",
          "name": "timestamp",
          "type": "uint256"
        }
      ],
      "name": "StreamProposed",
      "type": "event"
    },
    {
      "anonymous": false,
      "inputs": [
        {
          "indexed": true,
          "internalType": "uint256",
          "name": "streamId",
          "type": "uint256"
        },
        {
          "indexed": true,
          "internalType": "address",
          "name": "owner",
          "type": "address"
        },
        {
          "indexed": false,
          "internalType": "uint256",
          "name": "timestamp",
          "type": "uint256"
        }
      ],
      "name": "StreamRemoved",
      "type": "event"
    },
    {
      "anonymous": false,
      "inputs": [
        {
          "indexed": true,
          "internalType": "address",
          "name": "user",
          "type": "address"
        },
        {
          "indexed": false,
          "internalType": "uint256",
          "name": "amount",
          "type": "uint256"
        },
        {
          "indexed": false,
          "internalType": "uint256",
          "name": "timestamp",
          "type": "uint256"
        }
      ],
      "name": "Unstaked",
      "type": "event"
    },
    {
      "inputs": [],
      "name": "AIRDROP_ROLE",
      "outputs": [
        {
          "internalType": "bytes32",
          "name": "",
          "type": "bytes32"
        }
      ],
      "stateMutability": "view",
      "type": "function"
    },
    {
      "inputs": [],
      "name": "CLAIM_ROLE",
      "outputs": [
        {
          "internalType": "bytes32",
          "name": "",
          "type": "bytes32"
        }
      ],
      "stateMutability": "view",
      "type": "function"
    },
    {
      "inputs": [],
      "name": "DEFAULT_ADMIN_ROLE",
      "outputs": [
        {
          "internalType": "bytes32",
          "name": "",
          "type": "bytes32"
        }
      ],
      "stateMutability": "view",
      "type": "function"
    },
    {
      "inputs": [],
      "name": "PAUSE_ROLE",
      "outputs": [
        {
          "internalType": "bytes32",
          "name": "",
          "type": "bytes32"
        }
      ],
      "stateMutability": "view",
      "type": "function"
    },
    {
      "inputs": [],
      "name": "STREAM_MANAGER_ROLE",
      "outputs": [
        {
          "internalType": "bytes32",
          "name": "",
          "type": "bytes32"
        }
      ],
      "stateMutability": "view",
      "type": "function"
    },
    {
      "inputs": [
        {
          "internalType": "uint256",
          "name": "_flags",
          "type": "uint256"
        }
      ],
      "name": "__AdminControlled_init",
      "outputs": [],
      "stateMutability": "nonpayable",
      "type": "function"
    },
    {
      "inputs": [],
      "name": "admin",
      "outputs": [
        {
          "internalType": "address",
          "name": "",
          "type": "address"
        }
      ],
      "stateMutability": "view",
      "type": "function"
    },
    {
      "inputs": [
        {
          "internalType": "address",
          "name": "target",
          "type": "address"
        },
        {
          "internalType": "bytes",
          "name": "data",
          "type": "bytes"
        }
      ],
      "name": "adminDelegatecall",
      "outputs": [
        {
          "internalType": "bytes",
          "name": "",
          "type": "bytes"
        }
      ],
      "stateMutability": "payable",
      "type": "function"
    },
    {
      "inputs": [
        {
          "internalType": "uint256",
          "name": "flags",
          "type": "uint256"
        }
      ],
      "name": "adminPause",
      "outputs": [],
      "stateMutability": "nonpayable",
      "type": "function"
    },
    {
      "inputs": [],
      "name": "adminReceiveEth",
      "outputs": [],
      "stateMutability": "payable",
      "type": "function"
    },
    {
      "inputs": [
        {
          "internalType": "address payable",
          "name": "destination",
          "type": "address"
        },
        {
          "internalType": "uint256",
          "name": "amount",
          "type": "uint256"
        }
      ],
      "name": "adminSendEth",
      "outputs": [],
      "stateMutability": "nonpayable",
      "type": "function"
    },
    {
      "inputs": [
        {
          "internalType": "uint256",
          "name": "key",
          "type": "uint256"
        },
        {
          "internalType": "uint256",
          "name": "value",
          "type": "uint256"
        }
      ],
      "name": "adminSstore",
      "outputs": [],
      "stateMutability": "nonpayable",
      "type": "function"
    },
    {
      "inputs": [
        {
          "internalType": "uint256",
          "name": "key",
          "type": "uint256"
        },
        {
          "internalType": "uint256",
          "name": "value",
          "type": "uint256"
        },
        {
          "internalType": "uint256",
          "name": "mask",
          "type": "uint256"
        }
      ],
      "name": "adminSstoreWithMask",
      "outputs": [],
      "stateMutability": "nonpayable",
      "type": "function"
    },
    {
      "inputs": [],
      "name": "auroraToken",
      "outputs": [
        {
          "internalType": "address",
          "name": "",
          "type": "address"
        }
      ],
      "stateMutability": "view",
      "type": "function"
    },
    {
      "inputs": [
        {
          "internalType": "address",
          "name": "account",
          "type": "address"
        },
        {
          "internalType": "uint256[]",
          "name": "streamIds",
          "type": "uint256[]"
        }
      ],
      "name": "batchClaimOnBehalfOfAnotherUser",
      "outputs": [],
      "stateMutability": "nonpayable",
      "type": "function"
    },
    {
      "inputs": [
        {
          "internalType": "address[]",
          "name": "accounts",
          "type": "address[]"
        },
        {
          "internalType": "uint256[]",
          "name": "streamIds",
          "type": "uint256[]"
        }
      ],
      "name": "batchClaimOnBehalfOfOtherUsers",
      "outputs": [],
      "stateMutability": "nonpayable",
      "type": "function"
    },
    {
      "inputs": [
        {
          "internalType": "uint256[]",
          "name": "streamIds",
          "type": "uint256[]"
        }
      ],
      "name": "batchMoveRewardsToPending",
      "outputs": [],
      "stateMutability": "nonpayable",
      "type": "function"
    },
    {
      "inputs": [
        {
          "internalType": "uint256[]",
          "name": "streamIds",
          "type": "uint256[]"
        }
      ],
      "name": "batchWithdraw",
      "outputs": [],
      "stateMutability": "nonpayable",
      "type": "function"
    },
    {
      "inputs": [
        {
          "internalType": "uint256",
          "name": "streamId",
          "type": "uint256"
        }
      ],
      "name": "cancelStreamProposal",
      "outputs": [],
      "stateMutability": "nonpayable",
      "type": "function"
    },
    {
      "inputs": [
        {
          "internalType": "address",
          "name": "account",
          "type": "address"
        }
      ],
      "name": "claimAllOnBehalfOfAnotherUser",
      "outputs": [],
      "stateMutability": "nonpayable",
      "type": "function"
    },
    {
      "inputs": [
        {
          "internalType": "address[]",
          "name": "accounts",
          "type": "address[]"
        }
      ],
      "name": "claimAllOnBehalfOfOtherUsers",
      "outputs": [],
      "stateMutability": "nonpayable",
      "type": "function"
    },
    {
      "inputs": [
        {
          "internalType": "address",
          "name": "account",
          "type": "address"
        },
        {
          "internalType": "uint256",
          "name": "streamId",
          "type": "uint256"
        }
      ],
      "name": "claimOnBehalfOfAnotherUser",
      "outputs": [],
      "stateMutability": "nonpayable",
      "type": "function"
    },
    {
      "inputs": [
        {
          "internalType": "uint256",
          "name": "streamId",
          "type": "uint256"
        },
        {
          "internalType": "uint256",
          "name": "rewardTokenAmount",
          "type": "uint256"
        }
      ],
      "name": "createStream",
      "outputs": [],
      "stateMutability": "nonpayable",
      "type": "function"
    },
    {
      "inputs": [
        {
          "internalType": "uint256",
          "name": "streamId",
          "type": "uint256"
        },
        {
          "internalType": "address",
          "name": "account",
          "type": "address"
        }
      ],
      "name": "getAmountOfShares",
      "outputs": [
        {
          "internalType": "uint256",
          "name": "",
          "type": "uint256"
        }
      ],
      "stateMutability": "view",
      "type": "function"
    },
    {
      "inputs": [
        {
          "internalType": "uint256",
          "name": "streamId",
          "type": "uint256"
        }
      ],
      "name": "getLatestRewardPerShare",
      "outputs": [
        {
          "internalType": "uint256",
          "name": "",
          "type": "uint256"
        }
      ],
      "stateMutability": "view",
      "type": "function"
    },
    {
      "inputs": [
        {
          "internalType": "uint256",
          "name": "streamId",
          "type": "uint256"
        },
        {
          "internalType": "address",
          "name": "account",
          "type": "address"
        }
      ],
      "name": "getPending",
      "outputs": [
        {
          "internalType": "uint256",
          "name": "",
          "type": "uint256"
        }
      ],
      "stateMutability": "view",
      "type": "function"
    },
    {
      "inputs": [
        {
          "internalType": "uint256",
          "name": "streamId",
          "type": "uint256"
        },
        {
          "internalType": "address",
          "name": "account",
          "type": "address"
        }
      ],
      "name": "getReleaseTime",
      "outputs": [
        {
          "internalType": "uint256",
          "name": "",
          "type": "uint256"
        }
      ],
      "stateMutability": "view",
      "type": "function"
    },
    {
      "inputs": [
        {
          "internalType": "uint256",
          "name": "streamId",
          "type": "uint256"
        }
      ],
      "name": "getRewardPerShare",
      "outputs": [
        {
          "internalType": "uint256",
          "name": "",
          "type": "uint256"
        }
      ],
      "stateMutability": "view",
      "type": "function"
    },
    {
      "inputs": [
        {
          "internalType": "uint256",
          "name": "streamId",
          "type": "uint256"
        },
        {
          "internalType": "address",
          "name": "account",
          "type": "address"
        }
      ],
      "name": "getRewardPerShareForUser",
      "outputs": [
        {
          "internalType": "uint256",
          "name": "",
          "type": "uint256"
        }
      ],
      "stateMutability": "view",
      "type": "function"
    },
    {
      "inputs": [
        {
          "internalType": "uint256",
          "name": "streamId",
          "type": "uint256"
        },
        {
          "internalType": "uint256",
          "name": "lastUpdate",
          "type": "uint256"
        }
      ],
      "name": "getRewardsAmount",
      "outputs": [
        {
          "internalType": "uint256",
          "name": "",
          "type": "uint256"
        }
      ],
      "stateMutability": "view",
      "type": "function"
    },
    {
      "inputs": [
        {
          "internalType": "bytes32",
          "name": "role",
          "type": "bytes32"
        }
      ],
      "name": "getRoleAdmin",
      "outputs": [
        {
          "internalType": "bytes32",
          "name": "",
          "type": "bytes32"
        }
      ],
      "stateMutability": "view",
      "type": "function"
    },
    {
      "inputs": [
        {
          "internalType": "uint256",
          "name": "streamId",
          "type": "uint256"
        }
      ],
      "name": "getStream",
      "outputs": [
        {
          "internalType": "address",
          "name": "streamOwner",
          "type": "address"
        },
        {
          "internalType": "address",
          "name": "rewardToken",
          "type": "address"
        },
        {
          "internalType": "uint256",
          "name": "auroraDepositAmount",
          "type": "uint256"
        },
        {
          "internalType": "uint256",
          "name": "auroraClaimedAmount",
          "type": "uint256"
        },
        {
          "internalType": "uint256",
          "name": "rewardDepositAmount",
          "type": "uint256"
        },
        {
          "internalType": "uint256",
          "name": "rewardClaimedAmount",
          "type": "uint256"
        },
        {
          "internalType": "uint256",
          "name": "maxDepositAmount",
          "type": "uint256"
        },
        {
          "internalType": "uint256",
          "name": "lastTimeOwnerClaimed",
          "type": "uint256"
        },
        {
          "internalType": "uint256",
          "name": "tau",
          "type": "uint256"
        },
        {
          "internalType": "bool",
          "name": "isProposed",
          "type": "bool"
        },
        {
          "internalType": "bool",
          "name": "isActive",
          "type": "bool"
        }
      ],
      "stateMutability": "view",
      "type": "function"
    },
    {
      "inputs": [
        {
          "internalType": "uint256",
          "name": "streamId",
          "type": "uint256"
        },
        {
          "internalType": "address",
          "name": "account",
          "type": "address"
        }
      ],
      "name": "getStreamClaimableAmount",
      "outputs": [
        {
          "internalType": "uint256",
          "name": "",
          "type": "uint256"
        }
      ],
      "stateMutability": "view",
      "type": "function"
    },
    {
      "inputs": [
        {
          "internalType": "uint256",
          "name": "streamId",
          "type": "uint256"
        }
      ],
      "name": "getStreamOwnerClaimableAmount",
      "outputs": [
        {
          "internalType": "uint256",
          "name": "",
          "type": "uint256"
        }
      ],
      "stateMutability": "view",
      "type": "function"
    },
    {
      "inputs": [
        {
          "internalType": "uint256",
          "name": "streamId",
          "type": "uint256"
        }
      ],
      "name": "getStreamSchedule",
      "outputs": [
        {
          "internalType": "uint256[]",
          "name": "scheduleTimes",
          "type": "uint256[]"
        },
        {
          "internalType": "uint256[]",
          "name": "scheduleRewards",
          "type": "uint256[]"
        }
      ],
      "stateMutability": "view",
      "type": "function"
    },
    {
      "inputs": [],
      "name": "getStreamsCount",
      "outputs": [
        {
          "internalType": "uint256",
          "name": "",
          "type": "uint256"
        }
      ],
      "stateMutability": "view",
      "type": "function"
    },
    {
      "inputs": [],
      "name": "getTotalAmountOfStakedAurora",
      "outputs": [
        {
          "internalType": "uint256",
          "name": "",
          "type": "uint256"
        }
      ],
      "stateMutability": "view",
      "type": "function"
    },
    {
      "inputs": [
        {
          "internalType": "address",
          "name": "token",
          "type": "address"
        }
      ],
      "name": "getTreasuryBalance",
      "outputs": [
        {
          "internalType": "uint256",
          "name": "",
          "type": "uint256"
        }
      ],
      "stateMutability": "view",
      "type": "function"
    },
    {
      "inputs": [
        {
          "internalType": "address",
          "name": "account",
          "type": "address"
        }
      ],
      "name": "getUserShares",
      "outputs": [
        {
          "internalType": "uint256",
          "name": "",
          "type": "uint256"
        }
      ],
      "stateMutability": "view",
      "type": "function"
    },
    {
      "inputs": [
        {
          "internalType": "address",
          "name": "account",
          "type": "address"
        }
      ],
      "name": "getUserTotalDeposit",
      "outputs": [
        {
          "internalType": "uint256",
          "name": "",
          "type": "uint256"
        }
      ],
      "stateMutability": "view",
      "type": "function"
    },
    {
      "inputs": [
        {
          "internalType": "bytes32",
          "name": "role",
          "type": "bytes32"
        },
        {
          "internalType": "address",
          "name": "account",
          "type": "address"
        }
      ],
      "name": "grantRole",
      "outputs": [],
      "stateMutability": "nonpayable",
      "type": "function"
    },
    {
      "inputs": [
        {
          "internalType": "bytes32",
          "name": "role",
          "type": "bytes32"
        },
        {
          "internalType": "address",
          "name": "account",
          "type": "address"
        }
      ],
      "name": "hasRole",
      "outputs": [
        {
          "internalType": "bool",
          "name": "",
          "type": "bool"
        }
      ],
      "stateMutability": "view",
      "type": "function"
    },
    {
      "inputs": [
        {
          "internalType": "address",
          "name": "aurora",
          "type": "address"
        },
        {
          "internalType": "address",
          "name": "streamOwner",
          "type": "address"
        },
        {
          "internalType": "uint256[]",
          "name": "scheduleTimes",
          "type": "uint256[]"
        },
        {
          "internalType": "uint256[]",
          "name": "scheduleRewards",
          "type": "uint256[]"
        },
        {
          "internalType": "uint256",
          "name": "tauAuroraStream",
          "type": "uint256"
        },
        {
          "internalType": "uint256",
          "name": "_flags",
          "type": "uint256"
        },
        {
          "internalType": "address",
          "name": "_treasury",
          "type": "address"
        },
        {
          "internalType": "uint256",
          "name": "_maxWeight",
          "type": "uint256"
        },
        {
          "internalType": "uint256",
          "name": "_minWeight",
          "type": "uint256"
        }
      ],
      "name": "initialize",
      "outputs": [],
      "stateMutability": "nonpayable",
      "type": "function"
    },
    {
      "inputs": [],
      "name": "moveAllRewardsToPending",
      "outputs": [],
      "stateMutability": "nonpayable",
      "type": "function"
    },
    {
      "inputs": [
        {
          "internalType": "uint256",
          "name": "streamId",
          "type": "uint256"
        }
      ],
      "name": "moveRewardsToPending",
      "outputs": [],
      "stateMutability": "nonpayable",
      "type": "function"
    },
    {
      "inputs": [],
      "name": "paused",
      "outputs": [
        {
          "internalType": "uint256",
          "name": "",
          "type": "uint256"
        }
      ],
      "stateMutability": "view",
      "type": "function"
    },
    {
      "inputs": [
        {
          "internalType": "address",
          "name": "streamOwner",
          "type": "address"
        },
        {
          "internalType": "address",
          "name": "rewardToken",
          "type": "address"
        },
        {
          "internalType": "uint256",
          "name": "auroraDepositAmount",
          "type": "uint256"
        },
        {
          "internalType": "uint256",
          "name": "maxDepositAmount",
          "type": "uint256"
        },
        {
          "internalType": "uint256[]",
          "name": "scheduleTimes",
          "type": "uint256[]"
        },
        {
          "internalType": "uint256[]",
          "name": "scheduleRewards",
          "type": "uint256[]"
        },
        {
          "internalType": "uint256",
          "name": "tau",
          "type": "uint256"
        }
      ],
      "name": "proposeStream",
      "outputs": [],
      "stateMutability": "nonpayable",
      "type": "function"
    },
    {
      "inputs": [
        {
          "internalType": "uint256",
          "name": "streamId",
          "type": "uint256"
        }
      ],
      "name": "releaseAuroraRewardsToStreamOwner",
      "outputs": [],
      "stateMutability": "nonpayable",
      "type": "function"
    },
    {
      "inputs": [
        {
          "internalType": "uint256",
          "name": "streamId",
          "type": "uint256"
        },
        {
          "internalType": "address",
          "name": "streamFundReceiver",
          "type": "address"
        }
      ],
      "name": "removeStream",
      "outputs": [],
      "stateMutability": "nonpayable",
      "type": "function"
    },
    {
      "inputs": [
        {
          "internalType": "bytes32",
          "name": "role",
          "type": "bytes32"
        },
        {
          "internalType": "address",
          "name": "account",
          "type": "address"
        }
      ],
      "name": "renounceRole",
      "outputs": [],
      "stateMutability": "nonpayable",
      "type": "function"
    },
    {
      "inputs": [
        {
          "internalType": "bytes32",
          "name": "role",
          "type": "bytes32"
        },
        {
          "internalType": "address",
          "name": "account",
          "type": "address"
        }
      ],
      "name": "revokeRole",
      "outputs": [],
      "stateMutability": "nonpayable",
      "type": "function"
    },
    {
      "inputs": [
        {
          "internalType": "uint256",
          "name": "streamId",
          "type": "uint256"
        },
        {
          "internalType": "uint256",
          "name": "start",
          "type": "uint256"
        },
        {
          "internalType": "uint256",
          "name": "end",
          "type": "uint256"
        }
      ],
      "name": "rewardsSchedule",
      "outputs": [
        {
          "internalType": "uint256",
          "name": "",
          "type": "uint256"
        }
      ],
      "stateMutability": "view",
      "type": "function"
    },
    {
      "inputs": [
        {
          "internalType": "uint256",
          "name": "amount",
          "type": "uint256"
        }
      ],
      "name": "stake",
      "outputs": [],
      "stateMutability": "nonpayable",
      "type": "function"
    },
    {
      "inputs": [
        {
          "internalType": "address",
          "name": "account",
          "type": "address"
        },
        {
          "internalType": "uint256",
          "name": "amount",
          "type": "uint256"
        }
      ],
      "name": "stakeOnBehalfOfAnotherUser",
      "outputs": [],
      "stateMutability": "nonpayable",
      "type": "function"
    },
    {
      "inputs": [
        {
          "internalType": "address[]",
          "name": "accounts",
          "type": "address[]"
        },
        {
          "internalType": "uint256[]",
          "name": "amounts",
          "type": "uint256[]"
        },
        {
          "internalType": "uint256",
          "name": "batchAmount",
          "type": "uint256"
        }
      ],
      "name": "stakeOnBehalfOfOtherUsers",
      "outputs": [],
      "stateMutability": "nonpayable",
      "type": "function"
    },
    {
      "inputs": [
        {
          "internalType": "uint256",
          "name": "streamId",
          "type": "uint256"
        },
        {
          "internalType": "uint256",
          "name": "start",
          "type": "uint256"
        },
        {
          "internalType": "uint256",
          "name": "end",
          "type": "uint256"
        }
      ],
      "name": "startEndScheduleIndex",
      "outputs": [
        {
          "internalType": "uint256",
          "name": "startIndex",
          "type": "uint256"
        },
        {
          "internalType": "uint256",
          "name": "endIndex",
          "type": "uint256"
        }
      ],
      "stateMutability": "view",
      "type": "function"
    },
    {
      "inputs": [
        {
          "internalType": "bytes4",
          "name": "interfaceId",
          "type": "bytes4"
        }
      ],
      "name": "supportsInterface",
      "outputs": [
        {
          "internalType": "bool",
          "name": "",
          "type": "bool"
        }
      ],
      "stateMutability": "view",
      "type": "function"
    },
    {
      "inputs": [],
      "name": "totalAmountOfStakedAurora",
      "outputs": [
        {
          "internalType": "uint256",
          "name": "",
          "type": "uint256"
        }
      ],
      "stateMutability": "view",
      "type": "function"
    },
    {
      "inputs": [],
      "name": "totalAuroraShares",
      "outputs": [
        {
          "internalType": "uint256",
          "name": "",
          "type": "uint256"
        }
      ],
      "stateMutability": "view",
      "type": "function"
    },
    {
      "inputs": [],
      "name": "totalStreamShares",
      "outputs": [
        {
          "internalType": "uint256",
          "name": "",
          "type": "uint256"
        }
      ],
      "stateMutability": "view",
      "type": "function"
    },
    {
      "inputs": [],
      "name": "touchedAt",
      "outputs": [
        {
          "internalType": "uint256",
          "name": "",
          "type": "uint256"
        }
      ],
      "stateMutability": "view",
      "type": "function"
    },
    {
      "inputs": [
        {
          "internalType": "address",
          "name": "newAdmin",
          "type": "address"
        }
      ],
      "name": "transferOwnership",
      "outputs": [],
      "stateMutability": "nonpayable",
      "type": "function"
    },
    {
      "inputs": [],
      "name": "treasury",
      "outputs": [
        {
          "internalType": "address",
          "name": "",
          "type": "address"
        }
      ],
      "stateMutability": "view",
      "type": "function"
    },
    {
      "inputs": [
        {
          "internalType": "uint256",
          "name": "amount",
          "type": "uint256"
        }
      ],
      "name": "unstake",
      "outputs": [],
      "stateMutability": "nonpayable",
      "type": "function"
    },
    {
      "inputs": [],
      "name": "unstakeAll",
      "outputs": [],
      "stateMutability": "nonpayable",
      "type": "function"
    },
    {
      "inputs": [
        {
          "internalType": "address",
          "name": "_treasury",
          "type": "address"
        }
      ],
      "name": "updateTreasury",
      "outputs": [],
      "stateMutability": "nonpayable",
      "type": "function"
    },
    {
      "inputs": [
        {
          "internalType": "uint256",
          "name": "streamId",
          "type": "uint256"
        }
      ],
      "name": "withdraw",
      "outputs": [],
      "stateMutability": "nonpayable",
      "type": "function"
    },
    {
      "inputs": [],
      "name": "withdrawAll",
      "outputs": [],
      "stateMutability": "nonpayable",
      "type": "function"
    }
  ],
  "transactionHash": "0xa4e771ee4f267d4f1ef8538db5b336541b7e8810486190498ed866962861caea",
  "args": [],
  "solcInputHash": "c8ed407c5bc4742509ab73aae2d90b42",
  "bytecode": "0x60a06040523060805234801561001457600080fd5b506080516152c0610030600039600061413e01526152c06000f3fe6080604052600436106102ff5760003560e01c806301ffc9a71461030457806303687788146103395780630efd83101461036757806312dd67fe146103875780631c61e617146103a75780631dd00452146103c75780631e0fbfa21461040b5780631fd8c5f41461042d578063248a9ca3146104435780632692c59f1461046357806326cdddb91461048557806327571969146104a55780632ca783f3146104c55780632e17de78146104e55780632e1a7d4d146105055780632f2ff15d1461052557806335322f371461054557806336568abe1461055a57806336630cc71461057a5780633895a2751461059a578063389ed267146105b0578063396a6c14146105d25780633ba31abf146105f25780633e9a44cb146106125780633ea005c8146106325780634981912e14610654578063530208f21461068257806353a4cca0146106a257806355021b3a146106c25780635578fdb2146106e257806357baeac81461070f5780635c975abb1461072f57806361d027b3146107455780636458edd314610765578063687dd46c146107855780636c4624c3146107a55780636db8e53d146107c557806370bc770c146107db57806372e55399146108095780637f37df3b146108295780637f51bb1f1461086d578063853828b61461088d57806386c1b4eb146108a2578063894e9a0d146108c45780638bc34e77146109465780638d40bd031461095b578063904033221461097b57806391d148541461099b578063993b21c1146109bb5780639c52a920146109db578063a217fddf146109fb578063a4c828dc14610a10578063a694fc3a14610a46578063a81c6a1514610a66578063b8e9744c14610a86578063ba0cb22b14610aa6578063bb07ec1b14610adf578063be831a2e14610af5578063c892772314610b15578063cd5ba59014610b59578063d5050aed14610b6e578063d547741f14610b8e578063e335e79a14610bae578063ee13ad8e14610bc3578063f2fde38b14610be3578063f48ab4e014610483578063f851a44014610c03578063fbab974014610c23575b600080fd5b34801561031057600080fd5b5061032461031f36600461468b565b610c43565b60405190151581526020015b60405180910390f35b34801561034557600080fd5b506103596103543660046146b5565b610c7a565b604051908152602001610330565b34801561037357600080fd5b50610359610382366004614706565b61103c565b34801561039357600080fd5b506103596103a2366004614736565b611086565b3480156103b357600080fd5b506103596103c2366004614706565b611151565b3480156103d357600080fd5b506103596103e2366004614706565b6001600160a01b0316600090815260a16020908152604080832093835260059093019052205490565b34801561041757600080fd5b5061035960008051602061526b83398151915281565b34801561043957600080fd5b50610359609a5481565b34801561044f57600080fd5b5061035961045e366004614736565b6111c7565b34801561046f57600080fd5b5061048361047e366004614736565b6111dc565b005b34801561049157600080fd5b506104836104a0366004614887565b6111fb565b3480156104b157600080fd5b506104836104c03660046148ea565b611263565b3480156104d157600080fd5b506104836104e036600461491e565b6112c9565b3480156104f157600080fd5b50610483610500366004614736565b61134a565b34801561051157600080fd5b50610483610520366004614736565b6113c5565b34801561053157600080fd5b50610483610540366004614706565b61146c565b34801561055157600080fd5b50610483611489565b34801561056657600080fd5b50610483610575366004614706565b611504565b34801561058657600080fd5b5061035961059536600461494a565b61157e565b3480156105a657600080fd5b5061035960995481565b3480156105bc57600080fd5b5061035960008051602061520b83398151915281565b3480156105de57600080fd5b506103596105ed366004614736565b6116a8565b3480156105fe57600080fd5b5061048361060d366004614706565b611726565b34801561061e57600080fd5b5061048361062d36600461491e565b6119c6565b34801561063e57600080fd5b506103596000805160206151ab83398151915281565b34801561066057600080fd5b5061067461066f3660046146b5565b6119f1565b60405161033092919061496c565b34801561068e57600080fd5b5061048361069d36600461491e565b611ca0565b3480156106ae57600080fd5b506104836106bd36600461497a565b611ce2565b3480156106ce57600080fd5b506104836106dd3660046149e6565b611e72565b3480156106ee57600080fd5b50609e54610702906001600160a01b031681565b6040516103309190614a8b565b34801561071b57600080fd5b5061035961072a366004614a9f565b611ff6565b34801561073b57600080fd5b5061035960985481565b34801561075157600080fd5b50609d54610702906001600160a01b031681565b34801561077157600080fd5b50610483610780366004614abc565b61206a565b34801561079157600080fd5b506104836107a0366004614b01565b612095565b3480156107b157600080fd5b506104836107c03660046146b5565b6120de565b3480156107d157600080fd5b50610359609c5481565b3480156107e757600080fd5b506107fb6107f6366004614736565b6120f6565b604051610330929190614b70565b34801561081557600080fd5b50610483610824366004614b01565b6121f4565b34801561083557600080fd5b50610359610844366004614706565b6001600160a01b0316600090815260a16020908152604080832093835260039093019052205490565b34801561087957600080fd5b50610483610888366004614a9f565b6122ea565b34801561089957600080fd5b5061048361233f565b3480156108ae57600080fd5b5061035960008051602061522b83398151915281565b3480156108d057600080fd5b506108e46108df366004614736565b6123df565b604080516001600160a01b039c8d1681529b909a1660208c0152988a01979097526060890195909552608088019390935260a087019190915260c086015260e08501526101008401521515610120830152151561014082015261016001610330565b34801561095257600080fd5b506104836124b1565b34801561096757600080fd5b5061048361097636600461494a565b6124fc565b34801561098757600080fd5b50610483610996366004614736565b6127be565b3480156109a757600080fd5b506103246109b6366004614706565b6128ec565b3480156109c757600080fd5b506103596109d6366004614736565b612917565b3480156109e757600080fd5b506104836109f6366004614736565b612945565b348015610a0757600080fd5b50610359600081565b348015610a1c57600080fd5b50610359610a2b366004614a9f565b6001600160a01b0316600090815260a1602052604090205490565b348015610a5257600080fd5b50610483610a61366004614736565b612ad9565b348015610a7257600080fd5b50610483610a81366004614b95565b612b41565b610a99610a94366004614c55565b612fb9565b6040516103309190614d54565b348015610ab257600080fd5b50610359610ac1366004614a9f565b6001600160a01b0316600090815260a1602052604090206001015490565b348015610aeb57600080fd5b50610359609b5481565b348015610b0157600080fd5b50610483610b1036600461494a565b613042565b348015610b2157600080fd5b50610359610b30366004614706565b6001600160a01b0316600090815260a16020908152604080832093835260049093019052205490565b348015610b6557600080fd5b50610359613053565b348015610b7a57600080fd5b50610483610b89366004614a9f565b613085565b348015610b9a57600080fd5b50610483610ba9366004614706565b6130af565b348015610bba57600080fd5b5060a254610359565b348015610bcf57600080fd5b50610483610bde366004614736565b6130cc565b348015610bef57600080fd5b50610483610bfe366004614a9f565b613164565b348015610c0f57600080fd5b50609754610702906001600160a01b031681565b348015610c2f57600080fd5b50610483610c3e366004614736565b613264565b60006001600160e01b03198216637965db0b60e01b1480610c7457506301ffc9a760e01b6001600160e01b03198316145b92915050565b60008060a28581548110610c9057610c90614d67565b90600052602060002090600d0201600a019050600080610cb18787876119f1565b909250905060008083831415610d905784600101846001610cd29190614d93565b81548110610ce257610ce2614d67565b9060005260206000200154856001018581548110610d0257610d02614d67565b9060005260206000200154610d179190614dab565b9050846000018481548110610d2e57610d2e614d67565b60009182526020909120015485610d46866001614d93565b81548110610d5657610d56614d67565b9060005260206000200154610d6b9190614dab565b610d758989614dab565b610d7f9083614dc2565b610d899190614de1565b915061102e565b84600101846001610da19190614d93565b81548110610db157610db1614d67565b9060005260206000200154856001018581548110610dd157610dd1614d67565b9060005260206000200154610de69190614dab565b9050846000018481548110610dfd57610dfd614d67565b60009182526020909120015485610e15866001614d93565b81548110610e2557610e25614d67565b9060005260206000200154610e3a9190614dab565b8886610e47876001614d93565b81548110610e5757610e57614d67565b9060005260206000200154610e6c9190614dab565b610e769083614dc2565b610e809190614de1565b91506000610e8f856001614d93565b90505b83811015610f105785600101816001610eab9190614d93565b81548110610ebb57610ebb614d67565b9060005260206000200154866001018281548110610edb57610edb614d67565b9060005260206000200154610ef09190614dab565b9150610efc8284614d93565b925080610f0881614e03565b915050610e92565b50846000018381548110610f2657610f26614d67565b906000526020600020015487111561102e5784600101836001610f499190614d93565b81548110610f5957610f59614d67565b9060005260206000200154856001018481548110610f7957610f79614d67565b9060005260206000200154610f8e9190614dab565b9050846000018481548110610fa557610fa5614d67565b60009182526020909120015485610fbd866001614d93565b81548110610fcd57610fcd614d67565b9060005260206000200154610fe29190614dab565b856000018481548110610ff757610ff7614d67565b90600052602060002001548861100d9190614dab565b6110179083614dc2565b6110219190614de1565b61102b9083614d93565b91505b5093505050505b9392505050565b60008261106557506001600160a01b038116600090815260a16020526040902060010154610c74565b506001600160a01b0316600090815260a16020526040902060020154919050565b6000816110ae5760405162461bcd60e51b81526004016110a590614e1e565b60405180910390fd5b609c546110f25760405162461bcd60e51b81526020600482015260126024820152715a45524f5f53545245414d5f53484152455360701b60448201526064016110a5565b609c5468fc6f7c40458122964d601f1b61110e84609a5461157e565b6111189190614dc2565b6111229190614de1565b60a2838154811061113557611135614d67565b90600052602060002090600d020160090154610c749190614d93565b60008061115d84611086565b6001600160a01b038416600090815260a16020908152604080832088845260058101909252909120546002820154929350909168fc6f7c40458122964d601f1b816111a88487614dab565b6111b29190614dc2565b6111bc9190614de1565b979650505050505050565b60009081526065602052604090206001015490565b60008051602061520b8339815191526111f58133613306565b50609855565b60008051602061522b8339815191526112148133613306565b61121c61336a565b60005b835181101561125d5761124b84828151811061123d5761123d614d67565b602002602001015184613432565b8061125581614e03565b91505061121f565b50505050565b60008051602061522b83398151915261127c8133613306565b61128461336a565b60005b82518110156112c4576112b28382815181106112a5576112a5614d67565b60200260200101516134c3565b806112bc81614e03565b915050611287565b505050565b60018060985416600014806112e457506112e46000336128ec565b6113005760405162461bcd60e51b81526004016110a590614e4f565b60008051602061526b8339815191526113198133613306565b61132161336a565b61132b8484613523565b609d54609e5461125d916001600160a01b0391821691339116866136c6565b600180609854166000148061136557506113656000336128ec565b6113815760405162461bcd60e51b81526004016110a590614e4f565b61138961336a565b609b5433600090815260a160205260408120600101546099549192916113af9190614dc2565b6113b99190614de1565b90506112c4838261371e565b60018060985416600014806113e057506113e06000336128ec565b6113fc5760405162461bcd60e51b81526004016110a590614e4f565b33600090815260a160209081526040808320858452600401909152902054421161145f5760405162461bcd60e51b8152602060048201526014602482015273494e56414c49445f52454c454153455f54494d4560601b60448201526064016110a5565b61146882613918565b5050565b611475826111c7565b61147f8133613306565b6112c48383613a1c565b60018060985416600014806114a457506114a46000336128ec565b6114c05760405162461bcd60e51b81526004016110a590614e4f565b6114c861336a565b609b5433600090815260a160205260408120600101546099549192916114ee9190614dc2565b6114f89190614de1565b9050611468818261371e565b6001600160a01b03811633146115745760405162461bcd60e51b815260206004820152602f60248201527f416363657373436f6e74726f6c3a2063616e206f6e6c792072656e6f756e636560448201526e103937b632b9903337b91039b2b63360891b60648201526084016110a5565b6114688282613aa2565b60004282141561159057506000610c74565b600060a284815481106115a5576115a5614d67565b90600052602060002090600d0201600a016000016000815481106115cb576115cb614d67565b906000526020600020015490508042116115e9576000915050610c74565b600060a285815481106115fe576115fe614d67565b90600052602060002090600d0201600a01600001600160a2878154811061162757611627614d67565b60009182526020909120600a600d9092020101546116459190614dab565b8154811061165557611655614d67565b9060005260206000200154905080841061167457600092505050610c74565b600080838611156116875785915061168b565b8391505b8242101561169a57504261169d565b50815b6111bc878383610c7a565b60008060a283815481106116be576116be614d67565b90600052602060002090600d0201905080600c0160019054906101000a900460ff166116ed5750600092915050565b60006116fd84836007015461157e565b905081600401548260020154826117149190614dc2565b61171e9190614de1565b949350505050565b6000805160206151ab83398151915261173f8133613306565b8261178a5760405162461bcd60e51b815260206004820152601b60248201527a4155524f52415f53545245414d5f4e4f545f52454d4f5641424c4560281b60448201526064016110a5565b600060a2848154811061179f5761179f614d67565b90600052602060002090600d0201905080600c0160019054906101000a900460ff166118065760405162461bcd60e51b815260206004820152601660248201527514d51491505357d053149150511657d4915353d5915160521b60448201526064016110a5565b600c8101805461ffff1916905580546040514281526001600160a01b039091169085907f138a3f5239f6194312dabd3886690dd9204448e8dd2105abf6587f732041cbfe9060200160405180910390a360008160030154826002015461186c9190614dab565b90506000826005015483600401546118849190614dab565b609e5490915060009061189f906001600160a01b0316611ff6565b60018501549091506000906118bc906001600160a01b0316611ff6565b609d54609754609e549293506001600160a01b039182169263da0c1a88929182169116858811156118ed57856118ef565b875b6040518463ffffffff1660e01b815260040161190d93929190614e6f565b600060405180830381600087803b15801561192757600080fd5b505af115801561193b573d6000803e3d6000fd5b5050609d5460018801546001600160a01b03918216935063da0c1a8892508a91168487111561196a578461196c565b865b6040518463ffffffff1660e01b815260040161198a93929190614e6f565b600060405180830381600087803b1580156119a457600080fd5b505af11580156119b8573d6000803e3d6000fd5b505050505050505050505050565b60008051602061522b8339815191526119df8133613306565b6119e761336a565b6112c48383613b09565b600080600060a28681548110611a0957611a09614d67565b60009182526020909120600a600d90920201018054909150611a5b5760405162461bcd60e51b815260206004820152600b60248201526a4e4f5f5343484544554c4560a81b60448201526064016110a5565b848411611aa95760405162461bcd60e51b815260206004820152601c60248201527b494e56414c49445f5245574152445f51554552595f504552494f444560201b60448201526064016110a5565b80600001600081548110611abf57611abf614d67565b9060005260206000200154851015611b175760405162461bcd60e51b815260206004820152601b60248201527a145551549657d0915193d49157d4d0d2115115531157d4d5105495602a1b60448201526064016110a5565b80548190611b2790600190614dab565b81548110611b3757611b37614d67565b9060005260206000200154841115611b8c5760405162461bcd60e51b8152602060048201526018602482015277145551549657d05195115497d4d0d2115115531157d1539160421b60448201526064016110a5565b60005b8154611b9d90600190614dab565b811015611bef57816000018181548110611bb957611bb9614d67565b9060005260206000200154861015611bdd57611bd6600182614dab565b9350611bef565b80611be781614e03565b915050611b8f565b508054600090611c0190600190614dab565b90505b8015611c4a57816000018181548110611c1f57611c1f614d67565b90600052602060002001548510611c3857809250611c4a565b80611c4281614e93565b915050611c04565b5081831115611c975760405162461bcd60e51b815260206004820152601960248201527824a72b20a624a22fa4a72222ac2fa1a0a621aaa620aa24a7a760391b60448201526064016110a5565b50935093915050565b6000611cac8133613306565b6040516001600160a01b0384169083156108fc029084906000818181858888f1935050505015801561125d573d6000803e3d6000fd5b6001806098541660001480611cfd5750611cfd6000336128ec565b611d195760405162461bcd60e51b81526004016110a590614e4f565b60008051602061526b833981519152611d328133613306565b611d3a61336a565b8351855114611d825760405162461bcd60e51b81526020600482015260146024820152730929cac82989288be82a4a482b2be988a9c8ea8960631b60448201526064016110a5565b6000805b8551811015611e0457858181518110611da157611da1614d67565b602002602001015182611db49190614d93565b9150611df2878281518110611dcb57611dcb614d67565b6020026020010151878381518110611de557611de5614d67565b6020026020010151613523565b80611dfc81614e03565b915050611d86565b50838114611e4b5760405162461bcd60e51b81526020600482015260146024820152731253959053125117d0905510d217d05353d5539560621b60448201526064016110a5565b609d54609e54611e6a916001600160a01b0391821691339116876136c6565b505050505050565b6000805160206151ab833981519152611e8b8133613306565b611e99888887878787613ce6565b60a2805460018101808355600083815291929083908110611ebc57611ebc614d67565b600091825260208220600d9091020180546001600160a01b03808e166001600160a01b0319928316178355600183018054918e1691909216179055600281018a9055600381018290556006810189905560048101829055600581018290558751909250879190611f2e57611f2e614d67565b60209081029190910181015160078301556040805180820190915287815280820187905287519091600a840191611f6a918391908b019061462b565b506020828101518051611f83926001850192019061462b565b505050600c8101805461ffff19166001179055600881018490556040516001600160a01b038b169083906000805160206151cb83398151915290611fca9042815260200190565b60405180910390a3609e54611fea906001600160a01b031633308b6136c6565b50505050505050505050565b609d546040516370a0823160e01b81526000916001600160a01b03808516926370a0823192612029921690600401614a8b565b602060405180830381865afa158015612046573d6000803e3d6000fd5b505050506040513d601f19601f82011682018060405250810190610c749190614eaa565b60008051602061522b8339815191526120838133613306565b61208b61336a565b6112c48383613432565b60018060985416600014806120b057506120b06000336128ec565b6120cc5760405162461bcd60e51b81526004016110a590614e4f565b6120d461336a565b6114683383613432565b60006120ea8133613306565b50825491821816189055565b60608060a2838154811061210c5761210c614d67565b90600052602060002090600d0201600a0160000160a2848154811061213357612133614d67565b90600052602060002090600d0201600a016001018180548060200260200160405190810160405280929190818152602001828054801561219257602002820191906000526020600020905b81548152602001906001019080831161217e575b50505050509150808054806020026020016040519081016040528092919081815260200182805480156121e457602002820191906000526020600020905b8154815260200190600101908083116121d0575b5050505050905091509150915091565b600180609854166000148061220f575061220f6000336128ec565b61222b5760405162461bcd60e51b81526004016110a590614e4f565b33600090815260a160205260408120905b835181101561125d5781600301600085838151811061225d5761225d614d67565b60200260200101518152602001908152602001600020546000141580156122b1575081600401600085838151811061229757612297614d67565b602002602001015181526020019081526020016000205442115b156122d8576122d88482815181106122cb576122cb614d67565b6020026020010151613918565b806122e281614e03565b91505061223c565b60006122f68133613306565b6001600160a01b03821661231c5760405162461bcd60e51b81526004016110a590614ec3565b50609d80546001600160a01b0319166001600160a01b0392909216919091179055565b600180609854166000148061235a575061235a6000336128ec565b6123765760405162461bcd60e51b81526004016110a590614e4f565b33600090815260a160205260408120905b60a2548110156112c4576000818152600383016020526040902054158015906123bf5750600081815260048301602052604090205442115b156123cd576123cd81613918565b806123d781614e03565b915050612387565b60008060008060008060008060008060008060a28d8154811061240457612404614d67565b90600052602060002090600d020190508060000160009054906101000a90046001600160a01b03168160010160009054906101000a90046001600160a01b0316826002015483600301548460040154856005015486600601548760070154886008015489600c0160009054906101000a900460ff168a600c0160019054906101000a900460ff169b509b509b509b509b509b509b509b509b509b509b505091939597999b90929496989a50565b60018060985416600014806124cc57506124cc6000336128ec565b6124e85760405162461bcd60e51b81526004016110a590614e4f565b6124f061336a565b6124f9336134c3565b50565b600180609854166000148061251757506125176000336128ec565b6125335760405162461bcd60e51b81526004016110a590614e4f565b600060a2848154811061254857612548614d67565b60009182526020909120600d90910201600c81015490915060ff1661257f5760405162461bcd60e51b81526004016110a590614eec565b80546001600160a01b031633146125a85760405162461bcd60e51b81526004016110a590614f19565b600c810154610100900460ff16156125fa5760405162461bcd60e51b815260206004820152601560248201527453545245414d5f414c52454144595f45584953545360581b60448201526064016110a5565b4281600a0160000160008154811061261457612614614d67565b906000526020600020015410156126675760405162461bcd60e51b815260206004820152601760248201527614d51491505357d41493d413d4d05317d1561412549151604a1b60448201526064016110a5565b80600601548311156126b95760405162461bcd60e51b815260206004820152601b60248201527a1253959053125117d49155d0549117d513d2d15397d05353d55395602a1b60448201526064016110a5565b600c8101805461ff001916610100179055600481018390556040513390859060008051602061524b833981519152906126f59042815260200190565b60405180910390a3806006015483101561277a5760068101546002820154600091906127218683614dab565b61272b9190614dc2565b6127359190614de1565b90508082600201600082825461274b9190614dab565b9091555061275b90508585613fff565b609754609e54612778916001600160a01b03918216911683614103565b505b609d546002820154609e5461279d926001600160a01b0391821692911690614103565b609d54600182015461125d916001600160a01b0391821691339116866136c6565b6000805160206151ab8339815191526127d78133613306565b600060a283815481106127ec576127ec614d67565b60009182526020909120600d90910201600c81015490915060ff166128235760405162461bcd60e51b81526004016110a590614eec565b600c810154610100900460ff16156128755760405162461bcd60e51b815260206004820152601560248201527453545245414d5f414c52454144595f41435449564560581b60448201526064016110a5565b600c8101805460ff19169055600281018054600090915581546040514281526001600160a01b039091169085907f36bc74eb2ec224bdd93b3e3ba7a70e1802b4a876f1bd1fd7fdc15f41ccc12f239060200160405180910390a3609754609e5461125d916001600160a01b03918216911683614103565b60009182526065602090815260408084206001600160a01b0393909316845291905290205460ff1690565b600060a2828154811061292c5761292c614d67565b90600052602060002090600d0201600901549050919050565b600180609854166000148061296057506129606000336128ec565b61297c5760405162461bcd60e51b81526004016110a590614e4f565b600060a2838154811061299157612991614d67565b60009182526020909120600d9091020180549091506001600160a01b031633146129cd5760405162461bcd60e51b81526004016110a590614f19565b600c810154610100900460ff166129f65760405162461bcd60e51b81526004016110a590614f47565b82612a365760405162461bcd60e51b815260206004820152601060248201526f4155524f52415f53545245414d5f4e4160801b60448201526064016110a5565b6000612a41846116a8565b905042826007018190555080826003016000828254612a609190614d93565b9091555050609d548254609e54604051631b41835160e31b81526001600160a01b039384169363da0c1a8893612aa193908216929116908690600401614e6f565b600060405180830381600087803b158015612abb57600080fd5b505af1158015612acf573d6000803e3d6000fd5b5050505050505050565b6001806098541660001480612af45750612af46000336128ec565b612b105760405162461bcd60e51b81526004016110a590614e4f565b612b1861336a565b612b223383613523565b609d54609e54611468916001600160a01b0391821691339116856136c6565b600054610100900460ff16612b5c5760005460ff1615612b60565b303b155b612b7c5760405162461bcd60e51b81526004016110a590614f70565b600054610100900460ff16158015612b9e576000805461ffff19166101011790555b818311612bdf5760405162461bcd60e51b815260206004820152600f60248201526e494e56414c49445f5745494748545360881b60448201526064016110a5565b6001600160a01b038a1615801590612bff57506001600160a01b03841615155b8015612c1357506001600160a01b03891615155b612c2f5760405162461bcd60e51b81526004016110a590614ec3565b8651885114612c505760405162461bcd60e51b81526004016110a590614fbe565b85612c6d5760405162461bcd60e51b81526004016110a590614fef565b60015b8851811015612d425788612c85600183614dab565b81518110612c9557612c95614d67565b6020026020010151898281518110612caf57612caf614d67565b602002602001015111612cd45760405162461bcd60e51b81526004016110a59061501b565b87612ce0600183614dab565b81518110612cf057612cf0614d67565b6020026020010151888281518110612d0a57612d0a614d67565b60200260200101511115612d305760405162461bcd60e51b81526004016110a59061504b565b80612d3a81614e03565b915050612c70565b508660018851612d529190614dab565b81518110612d6257612d62614d67565b6020026020010151600014612d895760405162461bcd60e51b81526004016110a59061507d565b612d9285613264565b612daa60008051602061526b83398151915233613a1c565b612dc260008051602061522b83398151915233613a1c565b612dda6000805160206151ab83398151915233613a1c565b609d80546001600160a01b038087166001600160a01b031992831617909255609e8054928d1692909116919091179055609f83905560a082905560a2805460010180825560008281529182918290612e3457612e34614d67565b90600052602060002090600d020190508a8160000160006101000a8154816001600160a01b0302191690836001600160a01b031602179055508b8160010160006101000a8154816001600160a01b0302191690836001600160a01b03160217905550600081600201819055506000816003018190555060008160060181905550600081600401819055506000816005018190555042816007018190555060405180604001604052808b81526020018a81525081600a016000820151816000019080519060200190612f0692919061462b565b506020828101518051612f1f926001850192019061462b565b505050600c8101805461ffff1916610101179055600881018890556040514281526001600160a01b038c169083906000805160206151cb8339815191529060200160405180910390a38a6001600160a01b03168260008051602061524b83398151915242604051612f9291815260200190565b60405180910390a350508015611fea576000805461ff001916905550505050505050505050565b60606000612fc78133613306565b612fcf614133565b600080856001600160a01b031685604051612fea91906150b2565b600060405180830381855af49150503d8060008114613025576040519150601f19603f3d011682016040523d82523d6000602084013e61302a565b606091505b50915091508161303957600080fd5b95945050505050565b600061304e8133613306565b509055565b6000609a54600014156130665750600090565b6130736000609a5461157e565b6099546130809190614d93565b905090565b60008051602061522b83398151915261309e8133613306565b6130a661336a565b611468826134c3565b6130b8826111c7565b6130c28133613306565b6112c48383613aa2565b60018060985416600014806130e757506130e76000336128ec565b6131035760405162461bcd60e51b81526004016110a590614e4f565b8160a2818154811061311757613117614d67565b90600052602060002090600d0201600c0160019054906101000a900460ff166131525760405162461bcd60e51b81526004016110a590614f47565b61315a61336a565b6112c43384613b09565b60006131708133613306565b6001600160a01b0382166131965760405162461bcd60e51b81526004016110a590614ec3565b6097546001600160a01b03838116911614156131e95760405162461bcd60e51b815260206004820152601260248201527153414d455f41444d494e5f4144445245535360701b60448201526064016110a5565b6131f4600083613a1c565b609780546001600160a01b0319166001600160a01b03841617905561321a600033613aa2565b7f8be0079c531659141344cd1fd0a4f28419497f9722a3daafe3b4186f6b6457e033604080516001600160a01b03928316815291851660208301520160405180910390a15050565b565b600054610100900460ff1661327f5760005460ff1615613283565b303b155b61329f5760405162461bcd60e51b81526004016110a590614f70565b600054610100900460ff161580156132c1576000805461ffff19166101011790555b6132c9614169565b60988290556132d9600033613a1c565b6132f160008051602061520b83398151915233613a1c565b8015611468576000805461ff00191690555050565b61331082826128ec565b61146857613328816001600160a01b031660146141a8565b6133338360206141a8565b6040516020016133449291906150ce565b60408051601f198184030181529082905262461bcd60e51b82526110a591600401614d54565b42609a54141561337657565b609b541561342c5761338b6000609a5461157e565b6099600082825461339c9190614d93565b90915550600190505b60a25481101561342a5760a281815481106133c2576133c2614d67565b90600052602060002090600d0201600c0160019054906101000a900460ff1615613418576133ef81611086565b60a2828154811061340257613402614d67565b90600052602060002090600d0201600901819055505b8061342281614e03565b9150506133a5565b505b42609a55565b60005b81518110156112c45760a282828151811061345257613452614d67565b60200260200101518154811061346a5761346a614d67565b90600052602060002090600d0201600c0160019054906101000a900460ff16156134b1576134b1838383815181106134a4576134a4614d67565b6020026020010151613b09565b806134bb81614e03565b915050613435565b60015b60a2548110156114685760a281815481106134e3576134e3614d67565b90600052602060002090600d0201600c0160019054906101000a900460ff1615613511576135118282613b09565b8061351b81614e03565b9150506134c6565b6001600160a01b038216600090815260a160205260408120609b5490919061354c575081613574565b609954609b5461355c9085614dc2565b6135669190614de1565b613571906001614d93565b90505b808260010160008282546135889190614d93565b9250508190555080609b60008282546135a19190614d93565b9250508190555082609960008282546135ba9190614d93565b90915550508154839083906000906135d3908490614d93565b90915550600090506135e58242614343565b905080609c60008282546135f99190614d93565b92505081905550808360020160008282546136149190614d93565b90915550600190505b60a2548110156136735760a2818154811061363a5761363a614d67565b600091825260208083206009600d909302019190910154838352600587019091526040909120558061366b81614e03565b91505061361d565b506040805185815260208101849052428183015290516001600160a01b038716917fb4caaf29adda3eefee3ad552a8e85058589bf834c7466cae4ee58787f70589ed919081900360600190a25050505050565b61125d846323b872dd60e01b8585856040516024016136e793929190614e6f565b60408051601f198184030181529190526020810180516001600160e01b03166001600160e01b031990931692909217909152614437565b816137595760405162461bcd60e51b815260206004820152600b60248201526a16915493d7d05353d5539560aa1b60448201526064016110a5565b808211156137a45760405162461bcd60e51b81526020600482015260186024820152774e4f545f454e4f5547485f5354414b455f42414c414e434560401b60448201526064016110a5565b33600090815260a1602052604081206001810154609b8054929391929091906137ce908490614dab565b90915550506002810154609c80546000906137ea908490614dab565b90915550506000600182018190556002820181905560998054849290613811908490614dab565b9091555050600080825580805260038201602052604081208054859290613839908490614d93565b909155505060a2805460009061385157613851614d67565b90600052602060002090600d0201600801544261386e9190614d93565b600080805260048301602090815260408083209390935560038401905281812054915133926000805160206151eb833981519152916138af9190429061496c565b60405180910390a3336001600160a01b03167f7fc4727e062e336010f2c282598ef5f14facb3de68cf8195c2f23e1454b2b74e84426040516138f292919061496c565b60405180910390a260006139068484614dab565b9050801561125d5761125d3382613523565b33600081815260a1602090815260408083208584526003810190925280832080549390555190929084907ff86dbbaae73a38eba376327ec68def0678d91d952b4a18aa86d880f199632bd990613971908590429061496c565b60405180910390a3609d5460a280546001600160a01b039092169163da0c1a88913391879081106139a4576139a4614d67565b600091825260209091206001600d9092020101546040516001600160e01b031960e085901b1681526139e592916001600160a01b0316908690600401614e6f565b600060405180830381600087803b1580156139ff57600080fd5b505af1158015613a13573d6000803e3d6000fd5b50505050505050565b613a2682826128ec565b6114685760008281526065602090815260408083206001600160a01b03851684529091529020805460ff19166001179055613a5e3390565b6001600160a01b0316816001600160a01b0316837f2f8788117e7eff1d82e926ec794901d17c78024a50270940304540a733656f0d60405160405180910390a45050565b613aac82826128ec565b156114685760008281526065602090815260408083206001600160a01b0385168085529252808320805460ff1916905551339285917ff6391f5c32d9c69d2a47ea670b442974b53935d1edc7fd64eb21e047a839171b9190a45050565b80613b265760405162461bcd60e51b81526004016110a590614e1e565b6001600160a01b038216600090815260a1602090815260408083206002810154858552600582019093529083205460a2805492949368fc6f7c40458122964d601f1b939092919087908110613b7d57613b7d614d67565b90600052602060002090600d020160090154613b999190614dab565b613ba39190614dc2565b613bad9190614de1565b905080613bba5750505050565b600083815260038301602052604081208054839290613bda908490614d93565b909155505060a2805484908110613bf357613bf3614d67565b90600052602060002090600d0201600901548260050160008581526020019081526020016000208190555060a28381548110613c3157613c31614d67565b90600052602060002090600d02016008015442613c4e9190614d93565b600084815260048401602052604090205560a2805482919085908110613c7657613c76614d67565b90600052602060002090600d02016005016000828254613c969190614d93565b90915550506000838152600383016020526040908190205490516001600160a01b0386169185916000805160206151eb83398151915291613cd891429061496c565b60405180910390a350505050565b6001600160a01b038616613d3b5760405162461bcd60e51b815260206004820152601c60248201527b494e56414c49445f53545245414d5f4f574e45525f4144445245535360201b60448201526064016110a5565b6001600160a01b038516613d905760405162461bcd60e51b815260206004820152601c60248201527b494e56414c49445f5245574152445f544f4b454e5f4144445245535360201b60448201526064016110a5565b60008411613dd35760405162461bcd60e51b815260206004820152601060248201526f16915493d7d3505617d1115413d4d25560821b60448201526064016110a5565b81600081518110613de657613de6614d67565b60200260200101518414613e3c5760405162461bcd60e51b815260206004820152601f60248201527f4d41585f4445504f5349545f4d5553545f455155414c5f5343484544554c450060448201526064016110a5565b4283600081518110613e5057613e50614d67565b602002602001015111613ea55760405162461bcd60e51b815260206004820152601e60248201527f494e56414c49445f53545245414d5f45585049524154494f4e5f44415445000060448201526064016110a5565b8151835114613ec65760405162461bcd60e51b81526004016110a590614fbe565b80613ee35760405162461bcd60e51b81526004016110a590614fef565b60015b8351811015613fb85783613efb600183614dab565b81518110613f0b57613f0b614d67565b6020026020010151848281518110613f2557613f25614d67565b602002602001015111613f4a5760405162461bcd60e51b81526004016110a59061501b565b82613f56600183614dab565b81518110613f6657613f66614d67565b6020026020010151838281518110613f8057613f80614d67565b60200260200101511115613fa65760405162461bcd60e51b81526004016110a59061504b565b80613fb081614e03565b915050613ee6565b508160018351613fc89190614dab565b81518110613fd857613fd8614d67565b6020026020010151600014611e6a5760405162461bcd60e51b81526004016110a59061507d565b60005b60a2838154811061401557614015614d67565b60009182526020909120600b600d9092020101548110156112c45760a2838154811061404357614043614d67565b90600052602060002090600d0201600601548260a2858154811061406957614069614d67565b90600052602060002090600d0201600a01600101838154811061408e5761408e614d67565b90600052602060002001546140a39190614dc2565b6140ad9190614de1565b60a284815481106140c0576140c0614d67565b90600052602060002090600d0201600a0160010182815481106140e5576140e5614d67565b600091825260209091200155806140fb81614e03565b915050614002565b6040516001600160a01b0383166024820152604481018290526112c490849063a9059cbb60e01b906064016136e7565b306001600160a01b037f000000000000000000000000000000000000000000000000000000000000000016141561326257600080fd5b600054610100900460ff166141905760405162461bcd60e51b81526004016110a59061513d565b614198614509565b6141a0614509565b613262614509565b606060006141b7836002614dc2565b6141c2906002614d93565b6001600160401b038111156141d9576141d961474f565b6040519080825280601f01601f191660200182016040528015614203576020820181803683370190505b509050600360fc1b8160008151811061421e5761421e614d67565b60200101906001600160f81b031916908160001a905350600f60fb1b8160018151811061424d5761424d614d67565b60200101906001600160f81b031916908160001a9053506000614271846002614dc2565b61427c906001614d93565b90505b60018111156142f4576f181899199a1a9b1b9c1cb0b131b232b360811b85600f16601081106142b0576142b0614d67565b1a60f81b8282815181106142c6576142c6614d67565b60200101906001600160f81b031916908160001a90535060049490941c936142ed81614e93565b905061427f565b5083156110355760405162461bcd60e51b815260206004820181905260248201527f537472696e67733a20686578206c656e67746820696e73756666696369656e7460448201526064016110a5565b6000806228207260a260008154811061435e5761435e614d67565b90600052602060002090600d0201600a0160000160008154811061438457614384614d67565b90600052602060002001546143999190614d93565b905060006143ab63078614f883614d93565b90508184116143ca57609f546143c19086614dc2565b92505050610c74565b8084106143de5760a0546143c19086614dc2565b6143e88282614dab565b6143f28583614dab565b60a054609f546144029190614dab565b61440c9088614dc2565b6144169190614dc2565b6144209190614de1565b60a05461442d9087614dc2565b6130399190614d93565b600061448c826040518060400160405280602081526020017f5361666545524332303a206c6f772d6c6576656c2063616c6c206661696c6564815250856001600160a01b03166145309092919063ffffffff16565b8051909150156112c457808060200190518101906144aa9190615188565b6112c45760405162461bcd60e51b815260206004820152602a60248201527f5361666545524332303a204552433230206f7065726174696f6e20646964206e6044820152691bdd081cdd58d8d9595960b21b60648201526084016110a5565b600054610100900460ff166132625760405162461bcd60e51b81526004016110a59061513d565b606061171e848460008585843b6145895760405162461bcd60e51b815260206004820152601d60248201527f416464726573733a2063616c6c20746f206e6f6e2d636f6e747261637400000060448201526064016110a5565b600080866001600160a01b031685876040516145a591906150b2565b60006040518083038185875af1925050503d80600081146145e2576040519150601f19603f3d011682016040523d82523d6000602084013e6145e7565b606091505b50915091506111bc82828660608315614601575081611035565b8251156146115782518084602001fd5b8160405162461bcd60e51b81526004016110a59190614d54565b828054828255906000526020600020908101928215614666579160200282015b8281111561466657825182559160200191906001019061464b565b50614672929150614676565b5090565b5b808211156146725760008155600101614677565b60006020828403121561469d57600080fd5b81356001600160e01b03198116811461103557600080fd5b6000806000606084860312156146ca57600080fd5b505081359360208301359350604090920135919050565b6001600160a01b03811681146124f957600080fd5b8035614701816146e1565b919050565b6000806040838503121561471957600080fd5b82359150602083013561472b816146e1565b809150509250929050565b60006020828403121561474857600080fd5b5035919050565b634e487b7160e01b600052604160045260246000fd5b604051601f8201601f191681016001600160401b038111828210171561478d5761478d61474f565b604052919050565b60006001600160401b038211156147ae576147ae61474f565b5060051b60200190565b600082601f8301126147c957600080fd5b813560206147de6147d983614795565b614765565b82815260059290921b840181019181810190868411156147fd57600080fd5b8286015b84811015614821578035614814816146e1565b8352918301918301614801565b509695505050505050565b600082601f83011261483d57600080fd5b8135602061484d6147d983614795565b82815260059290921b8401810191818101908684111561486c57600080fd5b8286015b848110156148215780358352918301918301614870565b6000806040838503121561489a57600080fd5b82356001600160401b03808211156148b157600080fd5b6148bd868387016147b8565b935060208501359150808211156148d357600080fd5b506148e08582860161482c565b9150509250929050565b6000602082840312156148fc57600080fd5b81356001600160401b0381111561491257600080fd5b61171e848285016147b8565b6000806040838503121561493157600080fd5b823561493c816146e1565b946020939093013593505050565b6000806040838503121561495d57600080fd5b50508035926020909101359150565b918252602082015260400190565b60008060006060848603121561498f57600080fd5b83356001600160401b03808211156149a657600080fd5b6149b2878388016147b8565b945060208601359150808211156149c857600080fd5b506149d58682870161482c565b925050604084013590509250925092565b600080600080600080600060e0888a031215614a0157600080fd5b8735614a0c816146e1565b96506020880135614a1c816146e1565b9550604088013594506060880135935060808801356001600160401b0380821115614a4657600080fd5b614a528b838c0161482c565b945060a08a0135915080821115614a6857600080fd5b50614a758a828b0161482c565b92505060c0880135905092959891949750929550565b6001600160a01b0391909116815260200190565b600060208284031215614ab157600080fd5b8135611035816146e1565b60008060408385031215614acf57600080fd5b8235614ada816146e1565b915060208301356001600160401b03811115614af557600080fd5b6148e08582860161482c565b600060208284031215614b1357600080fd5b81356001600160401b03811115614b2957600080fd5b61171e8482850161482c565b600081518084526020808501945080840160005b83811015614b6557815187529582019590820190600101614b49565b509495945050505050565b604081526000614b836040830185614b35565b82810360208401526130398185614b35565b60008060008060008060008060006101208a8c031215614bb457600080fd5b8935614bbf816146e1565b985060208a0135614bcf816146e1565b975060408a01356001600160401b0380821115614beb57600080fd5b614bf78d838e0161482c565b985060608c0135915080821115614c0d57600080fd5b50614c1a8c828d0161482c565b96505060808a0135945060a08a01359350614c3760c08b016146f6565b925060e08a013591506101008a013590509295985092959850929598565b60008060408385031215614c6857600080fd5b8235614c73816146e1565b91506020838101356001600160401b0380821115614c9057600080fd5b818601915086601f830112614ca457600080fd5b813581811115614cb657614cb661474f565b614cc8601f8201601f19168501614765565b91508082528784828501011115614cde57600080fd5b80848401858401376000848284010152508093505050509250929050565b60005b83811015614d17578181015183820152602001614cff565b8381111561125d5750506000910152565b60008151808452614d40816020860160208601614cfc565b601f01601f19169290920160200192915050565b6020815260006110356020830184614d28565b634e487b7160e01b600052603260045260246000fd5b634e487b7160e01b600052601160045260246000fd5b60008219821115614da657614da6614d7d565b500190565b600082821015614dbd57614dbd614d7d565b500390565b6000816000190483118215151615614ddc57614ddc614d7d565b500290565b600082614dfe57634e487b7160e01b600052601260045260246000fd5b500490565b6000600019821415614e1757614e17614d7d565b5060010190565b60208082526017908201527610555493d49057d49155d0549114d7d0d3d35413d55391604a1b604082015260600190565b60208082526006908201526514185d5cd95960d21b604082015260600190565b6001600160a01b039384168152919092166020820152604081019190915260600190565b600081614ea257614ea2614d7d565b506000190190565b600060208284031215614ebc57600080fd5b5051919050565b6020808252600f908201526e494e56414c49445f4144445245535360881b604082015260600190565b60208082526013908201527214d51491505357d393d517d41493d413d4d151606a1b604082015260600190565b60208082526014908201527324a72b20a624a22fa9aa2922a0a6afa7aba722a960611b604082015260600190565b6020808252600f908201526e494e4143544956455f53545245414d60881b604082015260600190565b6020808252602e908201527f496e697469616c697a61626c653a20636f6e747261637420697320616c72656160408201526d191e481a5b9a5d1a585b1a5e995960921b606082015260800190565b602080825260179082015276494e56414c49445f5343484544554c455f56414c55455360481b604082015260600190565b6020808252601290820152711253959053125117d5105557d411549253d160721b604082015260600190565b602080825260169082015275494e56414c49445f5343484544554c455f54494d455360501b604082015260600190565b602080825260189082015277494e56414c49445f5343484544554c455f5245574152445360401b604082015260600190565b6020808252601b908201527a1253959053125117d4d0d2115115531157d1539117d49155d05491602a1b604082015260600190565b600082516150c4818460208701614cfc565b9190910192915050565b76020b1b1b2b9b9a1b7b73a3937b61d1030b1b1b7bab73a1604d1b815260008351615100816017850160208801614cfc565b7001034b99036b4b9b9b4b733903937b6329607d1b6017918401918201528351615131816028840160208801614cfc565b01602801949350505050565b6020808252602b908201527f496e697469616c697a61626c653a20636f6e7472616374206973206e6f74206960408201526a6e697469616c697a696e6760a81b606082015260800190565b60006020828403121561519a57600080fd5b8151801515811461103557600080fdfe930802d0eadfb856cb83e01d1c4daa3c89e9c6d9f74cfbe13124decf2b33128a46df4b1da61e3da1ea96646025835ed3c019e55199917ddcb47d906225732f46d841f13bd518db95a474f6d4b9fc7df1cfc116c841f91e218ff172d13f633b98139c2898040ef16910dc9f44dc697df79363da767d8bc92f2e310312b816e46df7db13299c8a9e501861f04c20f69a2444829a36a363cfad4b58864709c755609b75bb6b5d76707693bc56d2793d08ca515b19570eff8dcca55f2578b960beca3a2f235c9daaf33349d300aadff2f15078a89df81bcfdd45ba11c8f816bddc6fa26469706673582212206ec383790360f23f033df2cb623c20683965702df1d46dac80dcd21b13315d6664736f6c634300080a0033",
  "devdoc": {
    "author": "Aurora Team",
    "details": "Implementation of Jet staking contract      This contract implements the staking mechanics for AURORA ERC20 token.      A user can stake any amount of AURORA tokens, and get rewarded in both      AURORA and other stream tokens based on the rewards schedules.      Stream rewards can be claimed any time however AURORA can't be claimed      unless the user unstakes his full/partial amount of shares.      This contract is AdminControlled which has a tremendous power. However      hopfully it be governed by a community wallet.",
    "kind": "dev",
    "methods": {
      "__AdminControlled_init(uint256)": {
        "details": "__AdminControlled_init initializes this contract, setting pause flags and granting admin roles.",
        "params": {
          "_flags": "flags variable will be used for pausing this contract."
        }
      },
      "adminDelegatecall(address,bytes)": {
        "custom:oz-upgrades-unsafe-allow": "delegatecall",
        "details": "adminDelegatecall allows this contract to delegate calls to a target contract and execute it in the context of this contract. Only default admin role can call this function.",
        "params": {
          "data": "is the ABI encoded function signature and its values.",
          "target": "the target contract address"
        }
      },
      "adminPause(uint256)": {
        "details": "adminPause pauses this contract. Only pause role or default admin role can access this function.",
        "params": {
          "flags": "flags variable is used for pausing this contract."
        }
      },
      "adminReceiveEth()": {
        "details": "adminReceiveEth allows this contract to receive ETH anyone can call this function"
      },
      "adminSendEth(address,uint256)": {
        "details": "adminSendEth sends ETH from this contract to destination only default admin role can call this function",
        "params": {
          "amount": "of ETH",
          "destination": "is the receiver address"
        }
      },
      "adminSstore(uint256,uint256)": {
        "details": "adminSstore updates the state variable value. only default admin role can call this function.",
        "params": {
          "key": "is the storage slot of the state variable",
          "value": "is the state variable value"
        }
      },
      "adminSstoreWithMask(uint256,uint256,uint256)": {
        "details": "adminSstoreWithMask similar to adminSstore except it updates the state variable value after xor-ing this value with the old value and the mask, so the new value should be a result of xor(and(xor(value, oldval), mask), oldval). Only default admin role can call this function.",
        "params": {
          "key": "is the storage slot of the state variable",
          "mask": "this value is used in calculating the new value",
          "value": "is the state variable value"
        }
      },
      "batchClaimOnBehalfOfAnotherUser(address,uint256[])": {
        "details": "batchClaimOnBehalfOfAnotherUser when gas limits prevent users from claiming all.",
        "params": {
          "account": "the user account address.",
          "streamIds": "to claim."
        }
      },
      "batchClaimOnBehalfOfOtherUsers(address[],uint256[])": {
        "details": "Claim all stream rewards on behalf of other users.",
        "params": {
          "accounts": "the user account addresses."
        }
      },
      "batchMoveRewardsToPending(uint256[])": {
        "details": "moves a set of stream Id rewards to pending. Allows user to select stream ids to claim from UI.",
        "params": {
          "streamIds": "stream indexes"
        }
      },
      "batchWithdraw(uint256[])": {
        "details": "withdraw a set of stream Ids. Allows user to select stream ids to withdraw from UI.",
        "params": {
          "streamIds": "to withdraw."
        }
      },
      "cancelStreamProposal(uint256)": {
        "details": "cancelStreamProposal cancels a proposal any time before the stream becomes active (created).",
        "params": {
          "streamId": "the stream index"
        }
      },
      "claimAllOnBehalfOfAnotherUser(address)": {
        "details": "Claim all stream rewards on behalf of another user.",
        "params": {
          "account": "the user account address."
        }
      },
      "claimAllOnBehalfOfOtherUsers(address[])": {
        "details": "Claim all stream rewards on behalf of other users.",
        "params": {
          "accounts": "the user account addresses."
        }
      },
      "claimOnBehalfOfAnotherUser(address,uint256)": {
        "details": "Claim a stream's rewards on behalf of another user.",
        "params": {
          "account": "the user account address.",
          "streamId": "to claim."
        }
      },
      "createStream(uint256,uint256)": {
        "details": "create new stream (only stream owner) stream owner must approve reward tokens to this contract.",
        "params": {
          "streamId": "stream id"
        }
      },
      "getAmountOfShares(uint256,address)": {
        "details": "gets a user stream shares",
        "params": {
          "account": "the user address",
          "streamId": "stream index"
        },
        "returns": {
          "_0": "user stream shares"
        }
      },
      "getLatestRewardPerShare(uint256)": {
        "details": "calculates and gets the latest reward per share (RPS) for a stream",
        "params": {
          "streamId": "stream index"
        },
        "returns": {
          "_0": "streams[streamId].rps + scheduled reward up till now"
        }
      },
      "getPending(uint256,address)": {
        "details": "gets the user's stream pending reward",
        "params": {
          "account": "user account",
          "streamId": "stream index"
        },
        "returns": {
          "_0": "user.pendings[streamId]"
        }
      },
      "getReleaseTime(uint256,address)": {
        "details": "gets the user's stream reward release time",
        "params": {
          "account": "user account",
          "streamId": "stream index"
        },
        "returns": {
          "_0": "user.releaseTime[streamId]"
        }
      },
      "getRewardPerShare(uint256)": {
        "details": "gets reward per share (RPS) for a stream",
        "params": {
          "streamId": "stream index"
        },
        "returns": {
          "_0": "streams[streamId].rps"
        }
      },
      "getRewardPerShareForUser(uint256,address)": {
        "details": "gets the user's reward per share (RPS) for a stream",
        "params": {
          "streamId": "stream index"
        },
        "returns": {
          "_0": "user.rpsDuringLastClaim[streamId]"
        }
      },
      "getRewardsAmount(uint256,uint256)": {
        "details": "calculates and gets the latest released rewards.",
        "params": {
          "streamId": "stream index"
        },
        "returns": {
          "_0": "rewards released since last update."
        }
      },
      "getRoleAdmin(bytes32)": {
        "details": "Returns the admin role that controls `role`. See {grantRole} and {revokeRole}. To change a role's admin, use {_setRoleAdmin}."
      },
      "getStream(uint256)": {
        "details": "get the stream data",
        "params": {
          "streamId": "the stream index"
        }
      },
      "getStreamClaimableAmount(uint256,address)": {
        "details": "gets the user's stream claimable amount",
        "params": {
          "streamId": "stream index"
        },
        "returns": {
          "_0": "(latesRPS - user.rpsDuringLastClaim) * user.shares"
        }
      },
      "getStreamOwnerClaimableAmount(uint256)": {
        "details": "Stream owner claimable AURORA.",
        "params": {
          "streamId": "the stream index"
        }
      },
      "getStreamSchedule(uint256)": {
        "details": "get the stream schedule data",
        "params": {
          "streamId": "the stream index"
        }
      },
      "getStreamsCount()": {
        "details": "get the streams count",
        "returns": {
          "_0": "streams.length"
        }
      },
      "getTotalAmountOfStakedAurora()": {
        "details": "gets the total amount of staked aurora",
        "returns": {
          "_0": "totalAmountOfStakedAurora + latest reward schedule"
        }
      },
      "getTreasuryBalance(address)": {
        "details": "Get the treasury balance",
        "params": {
          "token": "the token address"
        }
      },
      "getUserShares(address)": {
        "details": "gets the user shares",
        "params": {
          "account": "the user address"
        },
        "returns": {
          "_0": "user shares"
        }
      },
      "getUserTotalDeposit(address)": {
        "details": "gets the total user deposit",
        "params": {
          "account": "the user address"
        },
        "returns": {
          "_0": "user total deposit in (AURORA)"
        }
      },
      "grantRole(bytes32,address)": {
        "details": "Grants `role` to `account`. If `account` had not been already granted `role`, emits a {RoleGranted} event. Requirements: - the caller must have ``role``'s admin role."
      },
      "hasRole(bytes32,address)": {
        "details": "Returns `true` if `account` has been granted `role`."
      },
      "initialize(address,address,uint256[],uint256[],uint256,uint256,address,uint256,uint256)": {
        "details": "initialize the contract and deploys the first stream (AURORA)",
        "params": {
          "_flags": "admin controlled contract flags",
          "_maxWeight": "max stream reward weighting coefficient",
          "_minWeight": "min stream reward weighting coefficient",
          "_treasury": "the Aurora treasury contract address",
          "aurora": "token contract address",
          "scheduleRewards": "init the schedule amounts",
          "scheduleTimes": "init the schedule time",
          "tauAuroraStream": "release time constant per stream (e.g AURORA stream)"
        }
      },
      "moveAllRewardsToPending()": {
        "details": "moves all the user rewards to pending reward."
      },
      "moveRewardsToPending(uint256)": {
        "details": "moves the reward for specific stream Id to pending rewards. It will require a waiting time untill it get released. Users call this in function in order to claim rewards.",
        "params": {
          "streamId": "stream index"
        }
      },
      "proposeStream(address,address,uint256,uint256,uint256[],uint256[],uint256)": {
        "details": "An admin of the staking contract can whitelist (propose) a stream. Whitelisting of the stream provides the option for the stream creator (presumably the issuing party of a specific token) to deposit some ERC-20 tokens on the staking contract and potentially get in return some AURORA tokens. Deposited ERC-20 tokens will be distributed to the stakers over some period of time.",
        "params": {
          "auroraDepositAmount": "Amount of the AURORA deposited by the Admin.",
          "maxDepositAmount": "The upper amount of the tokens that should be deposited by the stream owner",
          "rewardToken": "the address of the ERC-20 tokens to be deposited in the stream",
          "scheduleRewards": "array of reward amounts that are kept on the staking contract at each block height",
          "scheduleTimes": "array of block heights for each schedule time",
          "streamOwner": "only this account would be able to create a stream",
          "tau": "the tau is (pending release period) for this stream (e.g one day)"
        }
      },
      "releaseAuroraRewardsToStreamOwner(uint256)": {
        "details": "the release of AURORA tokens to the stream creator is subjected to the same schedule as rewards. Thus if for a specific moment in time 30% of the rewards are distributed, then it means that 30% of the AURORA deposit can be withdrawn by the stream creator too. called by the stream owner",
        "params": {
          "streamId": "the stream index"
        }
      },
      "removeStream(uint256,address)": {
        "details": "removes a stream (only default admin role)",
        "params": {
          "streamFundReceiver": "receives the rest of the reward tokens in the stream",
          "streamId": "stream index"
        }
      },
      "renounceRole(bytes32,address)": {
        "details": "Revokes `role` from the calling account. Roles are often managed via {grantRole} and {revokeRole}: this function's purpose is to provide a mechanism for accounts to lose their privileges if they are compromised (such as when a trusted device is misplaced). If the calling account had been revoked `role`, emits a {RoleRevoked} event. Requirements: - the caller must be `account`."
      },
      "revokeRole(bytes32,address)": {
        "details": "Revokes `role` from `account`. If `account` had been granted `role`, emits a {RoleRevoked} event. Requirements: - the caller must have ``role``'s admin role."
      },
      "rewardsSchedule(uint256,uint256,uint256)": {
        "details": "calculate the total amount of the released tokens within a period (start & end)",
        "params": {
          "end": "is the end timestamp (e.g block.timestamp .. now)",
          "start": "is the start timestamp within the schedule",
          "streamId": "the stream index"
        },
        "returns": {
          "_0": "amount of the released tokens for that period"
        }
      },
      "stake(uint256)": {
        "details": "a user stakes amount of AURORA tokens The user should approve these tokens to the treasury contract in order to complete the stake.",
        "params": {
          "amount": "is the AURORA amount."
        }
      },
      "stakeOnBehalfOfAnotherUser(address,uint256)": {
        "details": "stakeOnBehalfOfAnotherUser is called for airdropping Aurora users",
        "params": {
          "account": "the account address",
          "amount": "in AURORA tokens WARNING: rewards are not claimed during stake. Airdrop script must claim or only distribute to accounts without stake"
        }
      },
      "stakeOnBehalfOfOtherUsers(address[],uint256[],uint256)": {
        "details": "stakeOnBehalfOfOtherUsers called for airdropping Aurora users",
        "params": {
          "accounts": "the account address",
          "amounts": "in AURORA tokens",
          "batchAmount": "equals to the sum of amounts WARNING: rewards are not claimed during stake. Airdrop script must claim or only distribute to accounts without stake"
        }
      },
      "startEndScheduleIndex(uint256,uint256,uint256)": {
        "details": "gets start index and end index in a stream schedule",
        "params": {
          "end": "end time (in seconds)",
          "start": "start time (in seconds)",
          "streamId": "stream index"
        }
      },
      "supportsInterface(bytes4)": {
        "details": "See {IERC165-supportsInterface}."
      },
      "transferOwnership(address)": {
        "details": "transferOwnership updates the current admin address with a new one. This admin is used for colleting dust tokens, and releasing some locked funds. It is used by the staking contract. It must be assinged to the community treasury wallet that will be governed by DAO.",
        "params": {
          "newAdmin": "new admin address."
        }
      },
      "unstake(uint256)": {
        "details": "unstake amount from user shares value. The rest is re-staked",
        "params": {
          "amount": "to unstake"
        }
      },
      "unstakeAll()": {
        "details": "unstake all the user's shares"
      },
      "updateTreasury(address)": {
        "details": "restricted for the admin only. Admin should pause this contract before changing the treasury address by setting the pause =1 (for changing this variable, call adminPause(1))",
        "params": {
          "_treasury": "treasury contract address for the reward tokens"
        }
      },
      "withdraw(uint256)": {
        "details": "withdraw amount in the pending. User should wait for pending time (tau constant) in order to be able to withdraw.",
        "params": {
          "streamId": "stream index"
        }
      },
      "withdrawAll()": {
        "details": "withdraw all claimed balances which have passed pending periode. This function will reach gas limit with too many streams, so the frontend will allow individual stream withdrawals and disable withdrawAll."
      }
    },
    "title": "JetStakingV1",
    "version": 1
  },
  "userdoc": {
    "kind": "user",
    "methods": {
      "getStream(uint256)": {
        "notice": "this function doesn't return the stream schedule due to some stake slots limitations. To get the stream schedule, refer to getStreamSchedule"
      },
      "initialize(address,address,uint256[],uint256[],uint256,uint256,address,uint256,uint256)": {
        "notice": "By calling this function, the deployer of this contract must make sure that the AURORA reward amount was deposited to the treasury contract before initializing of the default AURORA stream."
      },
      "proposeStream(address,address,uint256,uint256,uint256[],uint256[],uint256)": {
        "notice": "treasury manager must call"
      },
      "updateTreasury(address)": {
        "notice": "updates treasury account"
      }
    },
    "version": 1
  },
  "storageLayout": {
    "storage": [
      {
        "astId": 416,
        "contract": "contracts/JetStakingV1.sol:JetStakingV1",
        "label": "_initialized",
        "offset": 0,
        "slot": "0",
        "type": "t_bool"
      },
      {
        "astId": 419,
        "contract": "contracts/JetStakingV1.sol:JetStakingV1",
        "label": "_initializing",
        "offset": 1,
        "slot": "0",
        "type": "t_bool"
      },
      {
        "astId": 1073,
        "contract": "contracts/JetStakingV1.sol:JetStakingV1",
        "label": "__gap",
        "offset": 0,
        "slot": "1",
        "type": "t_array(t_uint256)50_storage"
      },
      {
        "astId": 1322,
        "contract": "contracts/JetStakingV1.sol:JetStakingV1",
        "label": "__gap",
        "offset": 0,
        "slot": "51",
        "type": "t_array(t_uint256)50_storage"
      },
      {
        "astId": 48,
        "contract": "contracts/JetStakingV1.sol:JetStakingV1",
        "label": "_roles",
        "offset": 0,
        "slot": "101",
        "type": "t_mapping(t_bytes32,t_struct(RoleData)43_storage)"
      },
      {
        "astId": 335,
        "contract": "contracts/JetStakingV1.sol:JetStakingV1",
        "label": "__gap",
        "offset": 0,
        "slot": "102",
        "type": "t_array(t_uint256)49_storage"
      },
      {
        "astId": 1347,
        "contract": "contracts/JetStakingV1.sol:JetStakingV1",
        "label": "admin",
        "offset": 0,
        "slot": "151",
        "type": "t_address"
      },
      {
        "astId": 1349,
        "contract": "contracts/JetStakingV1.sol:JetStakingV1",
        "label": "paused",
        "offset": 0,
        "slot": "152",
        "type": "t_uint256"
      },
      {
        "astId": 1638,
        "contract": "contracts/JetStakingV1.sol:JetStakingV1",
        "label": "totalAmountOfStakedAurora",
        "offset": 0,
        "slot": "153",
        "type": "t_uint256"
      },
      {
        "astId": 1640,
        "contract": "contracts/JetStakingV1.sol:JetStakingV1",
        "label": "touchedAt",
        "offset": 0,
        "slot": "154",
        "type": "t_uint256"
      },
      {
        "astId": 1642,
        "contract": "contracts/JetStakingV1.sol:JetStakingV1",
        "label": "totalAuroraShares",
        "offset": 0,
        "slot": "155",
        "type": "t_uint256"
      },
      {
        "astId": 1644,
        "contract": "contracts/JetStakingV1.sol:JetStakingV1",
        "label": "totalStreamShares",
        "offset": 0,
        "slot": "156",
        "type": "t_uint256"
      },
      {
        "astId": 1646,
        "contract": "contracts/JetStakingV1.sol:JetStakingV1",
        "label": "treasury",
        "offset": 0,
        "slot": "157",
        "type": "t_address"
      },
      {
        "astId": 1648,
        "contract": "contracts/JetStakingV1.sol:JetStakingV1",
        "label": "auroraToken",
        "offset": 0,
        "slot": "158",
        "type": "t_address"
      },
      {
        "astId": 1650,
        "contract": "contracts/JetStakingV1.sol:JetStakingV1",
        "label": "maxWeight",
        "offset": 0,
        "slot": "159",
        "type": "t_uint256"
      },
      {
        "astId": 1652,
        "contract": "contracts/JetStakingV1.sol:JetStakingV1",
        "label": "minWeight",
        "offset": 0,
        "slot": "160",
        "type": "t_uint256"
      },
      {
        "astId": 1711,
        "contract": "contracts/JetStakingV1.sol:JetStakingV1",
        "label": "users",
        "offset": 0,
        "slot": "161",
        "type": "t_mapping(t_address,t_struct(User)1671_storage)"
      },
      {
        "astId": 1715,
        "contract": "contracts/JetStakingV1.sol:JetStakingV1",
        "label": "streams",
        "offset": 0,
        "slot": "162",
        "type": "t_array(t_struct(Stream)1706_storage)dyn_storage"
      }
    ],
    "types": {
      "t_address": {
        "encoding": "inplace",
        "label": "address",
        "numberOfBytes": "20"
      },
      "t_array(t_struct(Stream)1706_storage)dyn_storage": {
        "base": "t_struct(Stream)1706_storage",
        "encoding": "dynamic_array",
        "label": "struct JetStakingV1.Stream[]",
        "numberOfBytes": "32"
      },
      "t_array(t_uint256)49_storage": {
        "base": "t_uint256",
        "encoding": "inplace",
        "label": "uint256[49]",
        "numberOfBytes": "1568"
      },
      "t_array(t_uint256)50_storage": {
        "base": "t_uint256",
        "encoding": "inplace",
        "label": "uint256[50]",
        "numberOfBytes": "1600"
      },
      "t_array(t_uint256)dyn_storage": {
        "base": "t_uint256",
        "encoding": "dynamic_array",
        "label": "uint256[]",
        "numberOfBytes": "32"
      },
      "t_bool": {
        "encoding": "inplace",
        "label": "bool",
        "numberOfBytes": "1"
      },
      "t_bytes32": {
        "encoding": "inplace",
        "label": "bytes32",
        "numberOfBytes": "32"
      },
      "t_mapping(t_address,t_bool)": {
        "encoding": "mapping",
        "key": "t_address",
        "label": "mapping(address => bool)",
        "numberOfBytes": "32",
        "value": "t_bool"
      },
      "t_mapping(t_address,t_struct(User)1671_storage)": {
        "encoding": "mapping",
        "key": "t_address",
        "label": "mapping(address => struct JetStakingV1.User)",
        "numberOfBytes": "32",
        "value": "t_struct(User)1671_storage"
      },
      "t_mapping(t_bytes32,t_struct(RoleData)43_storage)": {
        "encoding": "mapping",
        "key": "t_bytes32",
        "label": "mapping(bytes32 => struct AccessControlUpgradeable.RoleData)",
        "numberOfBytes": "32",
        "value": "t_struct(RoleData)43_storage"
      },
      "t_mapping(t_uint256,t_uint256)": {
        "encoding": "mapping",
        "key": "t_uint256",
        "label": "mapping(uint256 => uint256)",
        "numberOfBytes": "32",
        "value": "t_uint256"
      },
      "t_struct(RoleData)43_storage": {
        "encoding": "inplace",
        "label": "struct AccessControlUpgradeable.RoleData",
        "members": [
          {
            "astId": 40,
            "contract": "contracts/JetStakingV1.sol:JetStakingV1",
            "label": "members",
            "offset": 0,
            "slot": "0",
            "type": "t_mapping(t_address,t_bool)"
          },
          {
            "astId": 42,
            "contract": "contracts/JetStakingV1.sol:JetStakingV1",
            "label": "adminRole",
            "offset": 0,
            "slot": "1",
            "type": "t_bytes32"
          }
        ],
        "numberOfBytes": "64"
      },
      "t_struct(Schedule)1678_storage": {
        "encoding": "inplace",
        "label": "struct JetStakingV1.Schedule",
        "members": [
          {
            "astId": 1674,
            "contract": "contracts/JetStakingV1.sol:JetStakingV1",
            "label": "time",
            "offset": 0,
            "slot": "0",
            "type": "t_array(t_uint256)dyn_storage"
          },
          {
            "astId": 1677,
            "contract": "contracts/JetStakingV1.sol:JetStakingV1",
            "label": "reward",
            "offset": 0,
            "slot": "1",
            "type": "t_array(t_uint256)dyn_storage"
          }
        ],
        "numberOfBytes": "64"
      },
      "t_struct(Stream)1706_storage": {
        "encoding": "inplace",
        "label": "struct JetStakingV1.Stream",
        "members": [
          {
            "astId": 1680,
            "contract": "contracts/JetStakingV1.sol:JetStakingV1",
            "label": "owner",
            "offset": 0,
            "slot": "0",
            "type": "t_address"
          },
          {
            "astId": 1682,
            "contract": "contracts/JetStakingV1.sol:JetStakingV1",
            "label": "rewardToken",
            "offset": 0,
            "slot": "1",
            "type": "t_address"
          },
          {
            "astId": 1684,
            "contract": "contracts/JetStakingV1.sol:JetStakingV1",
            "label": "auroraDepositAmount",
            "offset": 0,
            "slot": "2",
            "type": "t_uint256"
          },
          {
            "astId": 1686,
            "contract": "contracts/JetStakingV1.sol:JetStakingV1",
            "label": "auroraClaimedAmount",
            "offset": 0,
            "slot": "3",
            "type": "t_uint256"
          },
          {
            "astId": 1688,
            "contract": "contracts/JetStakingV1.sol:JetStakingV1",
            "label": "rewardDepositAmount",
            "offset": 0,
            "slot": "4",
            "type": "t_uint256"
          },
          {
            "astId": 1690,
            "contract": "contracts/JetStakingV1.sol:JetStakingV1",
            "label": "rewardClaimedAmount",
            "offset": 0,
            "slot": "5",
            "type": "t_uint256"
          },
          {
            "astId": 1692,
            "contract": "contracts/JetStakingV1.sol:JetStakingV1",
            "label": "maxDepositAmount",
            "offset": 0,
            "slot": "6",
            "type": "t_uint256"
          },
          {
            "astId": 1694,
            "contract": "contracts/JetStakingV1.sol:JetStakingV1",
            "label": "lastTimeOwnerClaimed",
            "offset": 0,
            "slot": "7",
            "type": "t_uint256"
          },
          {
            "astId": 1696,
            "contract": "contracts/JetStakingV1.sol:JetStakingV1",
            "label": "tau",
            "offset": 0,
            "slot": "8",
            "type": "t_uint256"
          },
          {
            "astId": 1698,
            "contract": "contracts/JetStakingV1.sol:JetStakingV1",
            "label": "rps",
            "offset": 0,
            "slot": "9",
            "type": "t_uint256"
          },
          {
            "astId": 1701,
            "contract": "contracts/JetStakingV1.sol:JetStakingV1",
            "label": "schedule",
            "offset": 0,
            "slot": "10",
            "type": "t_struct(Schedule)1678_storage"
          },
          {
            "astId": 1703,
            "contract": "contracts/JetStakingV1.sol:JetStakingV1",
            "label": "isProposed",
            "offset": 0,
            "slot": "12",
            "type": "t_bool"
          },
          {
            "astId": 1705,
            "contract": "contracts/JetStakingV1.sol:JetStakingV1",
            "label": "isActive",
            "offset": 1,
            "slot": "12",
            "type": "t_bool"
          }
        ],
        "numberOfBytes": "416"
      },
      "t_struct(User)1671_storage": {
        "encoding": "inplace",
        "label": "struct JetStakingV1.User",
        "members": [
          {
            "astId": 1654,
            "contract": "contracts/JetStakingV1.sol:JetStakingV1",
            "label": "deposit",
            "offset": 0,
            "slot": "0",
            "type": "t_uint256"
          },
          {
            "astId": 1656,
            "contract": "contracts/JetStakingV1.sol:JetStakingV1",
            "label": "auroraShares",
            "offset": 0,
            "slot": "1",
            "type": "t_uint256"
          },
          {
            "astId": 1658,
            "contract": "contracts/JetStakingV1.sol:JetStakingV1",
            "label": "streamShares",
            "offset": 0,
            "slot": "2",
            "type": "t_uint256"
          },
          {
            "astId": 1662,
            "contract": "contracts/JetStakingV1.sol:JetStakingV1",
            "label": "pendings",
            "offset": 0,
            "slot": "3",
            "type": "t_mapping(t_uint256,t_uint256)"
          },
          {
            "astId": 1666,
            "contract": "contracts/JetStakingV1.sol:JetStakingV1",
            "label": "releaseTime",
            "offset": 0,
            "slot": "4",
            "type": "t_mapping(t_uint256,t_uint256)"
          },
          {
            "astId": 1670,
            "contract": "contracts/JetStakingV1.sol:JetStakingV1",
            "label": "rpsDuringLastClaim",
            "offset": 0,
            "slot": "5",
            "type": "t_mapping(t_uint256,t_uint256)"
          }
        ],
        "numberOfBytes": "192"
      },
      "t_uint256": {
        "encoding": "inplace",
        "label": "uint256",
        "numberOfBytes": "32"
      }
    }
  }
}