{
  "address": "0x3fF6793cbba0669ab333972576b4f0422DBed56C",
  "abi": [
    {
      "anonymous": false,
      "inputs": [
        {
          "indexed": false,
          "internalType": "address",
          "name": "oldAdmin",
          "type": "address"
        },
        {
          "indexed": false,
          "internalType": "address",
          "name": "newAdmin",
          "type": "address"
        }
      ],
      "name": "OwnershipTransferred",
      "type": "event"
    },
    {
      "anonymous": false,
      "inputs": [
        {
          "indexed": true,
          "internalType": "uint256",
          "name": "streamId",
          "type": "uint256"
        },
        {
          "indexed": true,
          "internalType": "address",
          "name": "user",
          "type": "address"
        },
        {
          "indexed": false,
          "internalType": "uint256",
          "name": "amount",
          "type": "uint256"
        },
        {
          "indexed": false,
          "internalType": "uint256",
          "name": "timestamp",
          "type": "uint256"
        }
      ],
      "name": "Pending",
      "type": "event"
    },
    {
      "anonymous": false,
      "inputs": [
        {
          "indexed": true,
          "internalType": "uint256",
          "name": "streamId",
          "type": "uint256"
        },
        {
          "indexed": true,
          "internalType": "address",
          "name": "user",
          "type": "address"
        },
        {
          "indexed": false,
          "internalType": "uint256",
          "name": "amount",
          "type": "uint256"
        },
        {
          "indexed": false,
          "internalType": "uint256",
          "name": "timestamp",
          "type": "uint256"
        }
      ],
      "name": "Released",
      "type": "event"
    },
    {
      "anonymous": false,
      "inputs": [
        {
          "indexed": true,
          "internalType": "bytes32",
          "name": "role",
          "type": "bytes32"
        },
        {
          "indexed": true,
          "internalType": "bytes32",
          "name": "previousAdminRole",
          "type": "bytes32"
        },
        {
          "indexed": true,
          "internalType": "bytes32",
          "name": "newAdminRole",
          "type": "bytes32"
        }
      ],
      "name": "RoleAdminChanged",
      "type": "event"
    },
    {
      "anonymous": false,
      "inputs": [
        {
          "indexed": true,
          "internalType": "bytes32",
          "name": "role",
          "type": "bytes32"
        },
        {
          "indexed": true,
          "internalType": "address",
          "name": "account",
          "type": "address"
        },
        {
          "indexed": true,
          "internalType": "address",
          "name": "sender",
          "type": "address"
        }
      ],
      "name": "RoleGranted",
      "type": "event"
    },
    {
      "anonymous": false,
      "inputs": [
        {
          "indexed": true,
          "internalType": "bytes32",
          "name": "role",
          "type": "bytes32"
        },
        {
          "indexed": true,
          "internalType": "address",
          "name": "account",
          "type": "address"
        },
        {
          "indexed": true,
          "internalType": "address",
          "name": "sender",
          "type": "address"
        }
      ],
      "name": "RoleRevoked",
      "type": "event"
    },
    {
      "anonymous": false,
      "inputs": [
        {
          "indexed": true,
          "internalType": "address",
          "name": "user",
          "type": "address"
        },
        {
          "indexed": false,
          "internalType": "uint256",
          "name": "amount",
          "type": "uint256"
        },
        {
          "indexed": false,
          "internalType": "uint256",
          "name": "shares",
          "type": "uint256"
        },
        {
          "indexed": false,
          "internalType": "uint256",
          "name": "timestamp",
          "type": "uint256"
        }
      ],
      "name": "Staked",
      "type": "event"
    },
    {
      "anonymous": false,
      "inputs": [
        {
          "indexed": true,
          "internalType": "uint256",
          "name": "streamId",
          "type": "uint256"
        },
        {
          "indexed": true,
          "internalType": "address",
          "name": "owner",
          "type": "address"
        },
        {
          "indexed": false,
          "internalType": "uint256",
          "name": "timestamp",
          "type": "uint256"
        }
      ],
      "name": "StreamCreated",
      "type": "event"
    },
    {
      "anonymous": false,
      "inputs": [
        {
          "indexed": true,
          "internalType": "uint256",
          "name": "streamId",
          "type": "uint256"
        },
        {
          "indexed": true,
          "internalType": "address",
          "name": "owner",
          "type": "address"
        },
        {
          "indexed": false,
          "internalType": "uint256",
          "name": "timestamp",
          "type": "uint256"
        }
      ],
      "name": "StreamProposalCancelled",
      "type": "event"
    },
    {
      "anonymous": false,
      "inputs": [
        {
          "indexed": true,
          "internalType": "uint256",
          "name": "streamId",
          "type": "uint256"
        },
        {
          "indexed": true,
          "internalType": "address",
          "name": "owner",
          "type": "address"
        },
        {
          "indexed": false,
          "internalType": "uint256",
          "name": "timestamp",
          "type": "uint256"
        }
      ],
      "name": "StreamProposed",
      "type": "event"
    },
    {
      "anonymous": false,
      "inputs": [
        {
          "indexed": true,
          "internalType": "uint256",
          "name": "streamId",
          "type": "uint256"
        },
        {
          "indexed": true,
          "internalType": "address",
          "name": "owner",
          "type": "address"
        },
        {
          "indexed": false,
          "internalType": "uint256",
          "name": "timestamp",
          "type": "uint256"
        }
      ],
      "name": "StreamRemoved",
      "type": "event"
    },
    {
      "anonymous": false,
      "inputs": [
        {
          "indexed": true,
          "internalType": "address",
          "name": "user",
          "type": "address"
        },
        {
          "indexed": false,
          "internalType": "uint256",
          "name": "amount",
          "type": "uint256"
        },
        {
          "indexed": false,
          "internalType": "uint256",
          "name": "timestamp",
          "type": "uint256"
        }
      ],
      "name": "Unstaked",
      "type": "event"
    },
    {
      "inputs": [],
      "name": "AIRDROP_ROLE",
      "outputs": [
        {
          "internalType": "bytes32",
          "name": "",
          "type": "bytes32"
        }
      ],
      "stateMutability": "view",
      "type": "function"
    },
    {
      "inputs": [],
      "name": "CLAIM_ROLE",
      "outputs": [
        {
          "internalType": "bytes32",
          "name": "",
          "type": "bytes32"
        }
      ],
      "stateMutability": "view",
      "type": "function"
    },
    {
      "inputs": [],
      "name": "DEFAULT_ADMIN_ROLE",
      "outputs": [
        {
          "internalType": "bytes32",
          "name": "",
          "type": "bytes32"
        }
      ],
      "stateMutability": "view",
      "type": "function"
    },
    {
      "inputs": [],
      "name": "PAUSE_ROLE",
      "outputs": [
        {
          "internalType": "bytes32",
          "name": "",
          "type": "bytes32"
        }
      ],
      "stateMutability": "view",
      "type": "function"
    },
    {
      "inputs": [
        {
          "internalType": "uint256",
          "name": "_flags",
          "type": "uint256"
        }
      ],
      "name": "__AdminControlled_init",
      "outputs": [],
      "stateMutability": "nonpayable",
      "type": "function"
    },
    {
      "inputs": [],
      "name": "admin",
      "outputs": [
        {
          "internalType": "address",
          "name": "",
          "type": "address"
        }
      ],
      "stateMutability": "view",
      "type": "function"
    },
    {
      "inputs": [
        {
          "internalType": "address",
          "name": "target",
          "type": "address"
        },
        {
          "internalType": "bytes",
          "name": "data",
          "type": "bytes"
        }
      ],
      "name": "adminDelegatecall",
      "outputs": [
        {
          "internalType": "bytes",
          "name": "",
          "type": "bytes"
        }
      ],
      "stateMutability": "payable",
      "type": "function"
    },
    {
      "inputs": [
        {
          "internalType": "uint256",
          "name": "flags",
          "type": "uint256"
        }
      ],
      "name": "adminPause",
      "outputs": [],
      "stateMutability": "nonpayable",
      "type": "function"
    },
    {
      "inputs": [],
      "name": "adminReceiveEth",
      "outputs": [],
      "stateMutability": "payable",
      "type": "function"
    },
    {
      "inputs": [
        {
          "internalType": "address payable",
          "name": "destination",
          "type": "address"
        },
        {
          "internalType": "uint256",
          "name": "amount",
          "type": "uint256"
        }
      ],
      "name": "adminSendEth",
      "outputs": [],
      "stateMutability": "nonpayable",
      "type": "function"
    },
    {
      "inputs": [
        {
          "internalType": "uint256",
          "name": "key",
          "type": "uint256"
        },
        {
          "internalType": "uint256",
          "name": "value",
          "type": "uint256"
        }
      ],
      "name": "adminSstore",
      "outputs": [],
      "stateMutability": "nonpayable",
      "type": "function"
    },
    {
      "inputs": [
        {
          "internalType": "uint256",
          "name": "key",
          "type": "uint256"
        },
        {
          "internalType": "uint256",
          "name": "value",
          "type": "uint256"
        },
        {
          "internalType": "uint256",
          "name": "mask",
          "type": "uint256"
        }
      ],
      "name": "adminSstoreWithMask",
      "outputs": [],
      "stateMutability": "nonpayable",
      "type": "function"
    },
    {
      "inputs": [],
      "name": "auroraToken",
      "outputs": [
        {
          "internalType": "address",
          "name": "",
          "type": "address"
        }
      ],
      "stateMutability": "view",
      "type": "function"
    },
    {
      "inputs": [
        {
          "internalType": "address",
          "name": "account",
          "type": "address"
        },
        {
          "internalType": "uint256[]",
          "name": "streamIds",
          "type": "uint256[]"
        }
      ],
      "name": "batchClaimOnBehalfOfAnotherUser",
      "outputs": [],
      "stateMutability": "nonpayable",
      "type": "function"
    },
    {
      "inputs": [
        {
          "internalType": "address[]",
          "name": "accounts",
          "type": "address[]"
        },
        {
          "internalType": "uint256[]",
          "name": "streamIds",
          "type": "uint256[]"
        }
      ],
      "name": "batchClaimOnBehalfOfOtherUsers",
      "outputs": [],
      "stateMutability": "nonpayable",
      "type": "function"
    },
    {
      "inputs": [
        {
          "internalType": "uint256[]",
          "name": "streamIds",
          "type": "uint256[]"
        }
      ],
      "name": "batchMoveRewardsToPending",
      "outputs": [],
      "stateMutability": "nonpayable",
      "type": "function"
    },
    {
      "inputs": [
        {
          "internalType": "uint256[]",
          "name": "streamIds",
          "type": "uint256[]"
        }
      ],
      "name": "batchWithdraw",
      "outputs": [],
      "stateMutability": "nonpayable",
      "type": "function"
    },
    {
      "inputs": [
        {
          "internalType": "uint256",
          "name": "streamId",
          "type": "uint256"
        }
      ],
      "name": "cancelStreamProposal",
      "outputs": [],
      "stateMutability": "nonpayable",
      "type": "function"
    },
    {
      "inputs": [
        {
          "internalType": "address",
          "name": "account",
          "type": "address"
        }
      ],
      "name": "claimAllOnBehalfOfAnotherUser",
      "outputs": [],
      "stateMutability": "nonpayable",
      "type": "function"
    },
    {
      "inputs": [
        {
          "internalType": "address[]",
          "name": "accounts",
          "type": "address[]"
        }
      ],
      "name": "claimAllOnBehalfOfOtherUsers",
      "outputs": [],
      "stateMutability": "nonpayable",
      "type": "function"
    },
    {
      "inputs": [
        {
          "internalType": "address",
          "name": "account",
          "type": "address"
        },
        {
          "internalType": "uint256",
          "name": "streamId",
          "type": "uint256"
        }
      ],
      "name": "claimOnBehalfOfAnotherUser",
      "outputs": [],
      "stateMutability": "nonpayable",
      "type": "function"
    },
    {
      "inputs": [
        {
          "internalType": "uint256",
          "name": "streamId",
          "type": "uint256"
        },
        {
          "internalType": "uint256",
          "name": "rewardTokenAmount",
          "type": "uint256"
        }
      ],
      "name": "createStream",
      "outputs": [],
      "stateMutability": "nonpayable",
      "type": "function"
    },
    {
      "inputs": [
        {
          "internalType": "uint256",
          "name": "streamId",
          "type": "uint256"
        },
        {
          "internalType": "address",
          "name": "account",
          "type": "address"
        }
      ],
      "name": "getAmountOfShares",
      "outputs": [
        {
          "internalType": "uint256",
          "name": "",
          "type": "uint256"
        }
      ],
      "stateMutability": "view",
      "type": "function"
    },
    {
      "inputs": [
        {
          "internalType": "uint256",
          "name": "streamId",
          "type": "uint256"
        }
      ],
      "name": "getLatestRewardPerShare",
      "outputs": [
        {
          "internalType": "uint256",
          "name": "",
          "type": "uint256"
        }
      ],
      "stateMutability": "view",
      "type": "function"
    },
    {
      "inputs": [
        {
          "internalType": "uint256",
          "name": "streamId",
          "type": "uint256"
        },
        {
          "internalType": "address",
          "name": "account",
          "type": "address"
        }
      ],
      "name": "getPending",
      "outputs": [
        {
          "internalType": "uint256",
          "name": "",
          "type": "uint256"
        }
      ],
      "stateMutability": "view",
      "type": "function"
    },
    {
      "inputs": [
        {
          "internalType": "uint256",
          "name": "streamId",
          "type": "uint256"
        },
        {
          "internalType": "address",
          "name": "account",
          "type": "address"
        }
      ],
      "name": "getReleaseTime",
      "outputs": [
        {
          "internalType": "uint256",
          "name": "",
          "type": "uint256"
        }
      ],
      "stateMutability": "view",
      "type": "function"
    },
    {
      "inputs": [
        {
          "internalType": "uint256",
          "name": "streamId",
          "type": "uint256"
        }
      ],
      "name": "getRewardPerShare",
      "outputs": [
        {
          "internalType": "uint256",
          "name": "",
          "type": "uint256"
        }
      ],
      "stateMutability": "view",
      "type": "function"
    },
    {
      "inputs": [
        {
          "internalType": "uint256",
          "name": "streamId",
          "type": "uint256"
        },
        {
          "internalType": "address",
          "name": "account",
          "type": "address"
        }
      ],
      "name": "getRewardPerShareForUser",
      "outputs": [
        {
          "internalType": "uint256",
          "name": "",
          "type": "uint256"
        }
      ],
      "stateMutability": "view",
      "type": "function"
    },
    {
      "inputs": [
        {
          "internalType": "uint256",
          "name": "streamId",
          "type": "uint256"
        },
        {
          "internalType": "uint256",
          "name": "lastUpdate",
          "type": "uint256"
        }
      ],
      "name": "getRewardsAmount",
      "outputs": [
        {
          "internalType": "uint256",
          "name": "",
          "type": "uint256"
        }
      ],
      "stateMutability": "view",
      "type": "function"
    },
    {
      "inputs": [
        {
          "internalType": "bytes32",
          "name": "role",
          "type": "bytes32"
        }
      ],
      "name": "getRoleAdmin",
      "outputs": [
        {
          "internalType": "bytes32",
          "name": "",
          "type": "bytes32"
        }
      ],
      "stateMutability": "view",
      "type": "function"
    },
    {
      "inputs": [
        {
          "internalType": "uint256",
          "name": "streamId",
          "type": "uint256"
        }
      ],
      "name": "getStream",
      "outputs": [
        {
          "internalType": "address",
          "name": "streamOwner",
          "type": "address"
        },
        {
          "internalType": "address",
          "name": "rewardToken",
          "type": "address"
        },
        {
          "internalType": "uint256",
          "name": "auroraDepositAmount",
          "type": "uint256"
        },
        {
          "internalType": "uint256",
          "name": "auroraClaimedAmount",
          "type": "uint256"
        },
        {
          "internalType": "uint256",
          "name": "rewardDepositAmount",
          "type": "uint256"
        },
        {
          "internalType": "uint256",
          "name": "rewardClaimedAmount",
          "type": "uint256"
        },
        {
          "internalType": "uint256",
          "name": "maxDepositAmount",
          "type": "uint256"
        },
        {
          "internalType": "uint256",
          "name": "lastTimeOwnerClaimed",
          "type": "uint256"
        },
        {
          "internalType": "uint256",
          "name": "tau",
          "type": "uint256"
        },
        {
          "internalType": "bool",
          "name": "isProposed",
          "type": "bool"
        },
        {
          "internalType": "bool",
          "name": "isActive",
          "type": "bool"
        }
      ],
      "stateMutability": "view",
      "type": "function"
    },
    {
      "inputs": [
        {
          "internalType": "uint256",
          "name": "streamId",
          "type": "uint256"
        },
        {
          "internalType": "address",
          "name": "account",
          "type": "address"
        }
      ],
      "name": "getStreamClaimableAmount",
      "outputs": [
        {
          "internalType": "uint256",
          "name": "",
          "type": "uint256"
        }
      ],
      "stateMutability": "view",
      "type": "function"
    },
    {
      "inputs": [
        {
          "internalType": "uint256",
          "name": "streamId",
          "type": "uint256"
        }
      ],
      "name": "getStreamOwnerClaimableAmount",
      "outputs": [
        {
          "internalType": "uint256",
          "name": "",
          "type": "uint256"
        }
      ],
      "stateMutability": "view",
      "type": "function"
    },
    {
      "inputs": [
        {
          "internalType": "uint256",
          "name": "streamId",
          "type": "uint256"
        }
      ],
      "name": "getStreamSchedule",
      "outputs": [
        {
          "internalType": "uint256[]",
          "name": "scheduleTimes",
          "type": "uint256[]"
        },
        {
          "internalType": "uint256[]",
          "name": "scheduleRewards",
          "type": "uint256[]"
        }
      ],
      "stateMutability": "view",
      "type": "function"
    },
    {
      "inputs": [],
      "name": "getStreamsCount",
      "outputs": [
        {
          "internalType": "uint256",
          "name": "",
          "type": "uint256"
        }
      ],
      "stateMutability": "view",
      "type": "function"
    },
    {
      "inputs": [],
      "name": "getTotalAmountOfStakedAurora",
      "outputs": [
        {
          "internalType": "uint256",
          "name": "",
          "type": "uint256"
        }
      ],
      "stateMutability": "view",
      "type": "function"
    },
    {
      "inputs": [
        {
          "internalType": "address",
          "name": "token",
          "type": "address"
        }
      ],
      "name": "getTreasuryBalance",
      "outputs": [
        {
          "internalType": "uint256",
          "name": "",
          "type": "uint256"
        }
      ],
      "stateMutability": "view",
      "type": "function"
    },
    {
      "inputs": [
        {
          "internalType": "address",
          "name": "account",
          "type": "address"
        }
      ],
      "name": "getUserShares",
      "outputs": [
        {
          "internalType": "uint256",
          "name": "",
          "type": "uint256"
        }
      ],
      "stateMutability": "view",
      "type": "function"
    },
    {
      "inputs": [
        {
          "internalType": "address",
          "name": "account",
          "type": "address"
        }
      ],
      "name": "getUserTotalDeposit",
      "outputs": [
        {
          "internalType": "uint256",
          "name": "",
          "type": "uint256"
        }
      ],
      "stateMutability": "view",
      "type": "function"
    },
    {
      "inputs": [
        {
          "internalType": "bytes32",
          "name": "role",
          "type": "bytes32"
        },
        {
          "internalType": "address",
          "name": "account",
          "type": "address"
        }
      ],
      "name": "grantRole",
      "outputs": [],
      "stateMutability": "nonpayable",
      "type": "function"
    },
    {
      "inputs": [
        {
          "internalType": "bytes32",
          "name": "role",
          "type": "bytes32"
        },
        {
          "internalType": "address",
          "name": "account",
          "type": "address"
        }
      ],
      "name": "hasRole",
      "outputs": [
        {
          "internalType": "bool",
          "name": "",
          "type": "bool"
        }
      ],
      "stateMutability": "view",
      "type": "function"
    },
    {
      "inputs": [
        {
          "internalType": "address",
          "name": "aurora",
          "type": "address"
        },
        {
          "internalType": "address",
          "name": "streamOwner",
          "type": "address"
        },
        {
          "internalType": "uint256[]",
          "name": "scheduleTimes",
          "type": "uint256[]"
        },
        {
          "internalType": "uint256[]",
          "name": "scheduleRewards",
          "type": "uint256[]"
        },
        {
          "internalType": "uint256",
          "name": "tauAuroraStream",
          "type": "uint256"
        },
        {
          "internalType": "uint256",
          "name": "_flags",
          "type": "uint256"
        },
        {
          "internalType": "address",
          "name": "_treasury",
          "type": "address"
        },
        {
          "internalType": "uint256",
          "name": "_maxWeight",
          "type": "uint256"
        },
        {
          "internalType": "uint256",
          "name": "_minWeight",
          "type": "uint256"
        }
      ],
      "name": "initialize",
      "outputs": [],
      "stateMutability": "nonpayable",
      "type": "function"
    },
    {
      "inputs": [],
      "name": "moveAllRewardsToPending",
      "outputs": [],
      "stateMutability": "nonpayable",
      "type": "function"
    },
    {
      "inputs": [
        {
          "internalType": "uint256",
          "name": "streamId",
          "type": "uint256"
        }
      ],
      "name": "moveRewardsToPending",
      "outputs": [],
      "stateMutability": "nonpayable",
      "type": "function"
    },
    {
      "inputs": [],
      "name": "paused",
      "outputs": [
        {
          "internalType": "uint256",
          "name": "",
          "type": "uint256"
        }
      ],
      "stateMutability": "view",
      "type": "function"
    },
    {
      "inputs": [
        {
          "internalType": "address",
          "name": "streamOwner",
          "type": "address"
        },
        {
          "internalType": "address",
          "name": "rewardToken",
          "type": "address"
        },
        {
          "internalType": "uint256",
          "name": "auroraDepositAmount",
          "type": "uint256"
        },
        {
          "internalType": "uint256",
          "name": "maxDepositAmount",
          "type": "uint256"
        },
        {
          "internalType": "uint256[]",
          "name": "scheduleTimes",
          "type": "uint256[]"
        },
        {
          "internalType": "uint256[]",
          "name": "scheduleRewards",
          "type": "uint256[]"
        },
        {
          "internalType": "uint256",
          "name": "tau",
          "type": "uint256"
        }
      ],
      "name": "proposeStream",
      "outputs": [],
      "stateMutability": "nonpayable",
      "type": "function"
    },
    {
      "inputs": [
        {
          "internalType": "uint256",
          "name": "streamId",
          "type": "uint256"
        }
      ],
      "name": "releaseAuroraRewardsToStreamOwner",
      "outputs": [],
      "stateMutability": "nonpayable",
      "type": "function"
    },
    {
      "inputs": [
        {
          "internalType": "uint256",
          "name": "streamId",
          "type": "uint256"
        },
        {
          "internalType": "address",
          "name": "streamFundReceiver",
          "type": "address"
        }
      ],
      "name": "removeStream",
      "outputs": [],
      "stateMutability": "nonpayable",
      "type": "function"
    },
    {
      "inputs": [
        {
          "internalType": "bytes32",
          "name": "role",
          "type": "bytes32"
        },
        {
          "internalType": "address",
          "name": "account",
          "type": "address"
        }
      ],
      "name": "renounceRole",
      "outputs": [],
      "stateMutability": "nonpayable",
      "type": "function"
    },
    {
      "inputs": [
        {
          "internalType": "bytes32",
          "name": "role",
          "type": "bytes32"
        },
        {
          "internalType": "address",
          "name": "account",
          "type": "address"
        }
      ],
      "name": "revokeRole",
      "outputs": [],
      "stateMutability": "nonpayable",
      "type": "function"
    },
    {
      "inputs": [
        {
          "internalType": "uint256",
          "name": "streamId",
          "type": "uint256"
        },
        {
          "internalType": "uint256",
          "name": "start",
          "type": "uint256"
        },
        {
          "internalType": "uint256",
          "name": "end",
          "type": "uint256"
        }
      ],
      "name": "rewardsSchedule",
      "outputs": [
        {
          "internalType": "uint256",
          "name": "",
          "type": "uint256"
        }
      ],
      "stateMutability": "view",
      "type": "function"
    },
    {
      "inputs": [
        {
          "internalType": "uint256",
          "name": "amount",
          "type": "uint256"
        }
      ],
      "name": "stake",
      "outputs": [],
      "stateMutability": "nonpayable",
      "type": "function"
    },
    {
      "inputs": [
        {
          "internalType": "address",
          "name": "account",
          "type": "address"
        },
        {
          "internalType": "uint256",
          "name": "amount",
          "type": "uint256"
        }
      ],
      "name": "stakeOnBehalfOfAnotherUser",
      "outputs": [],
      "stateMutability": "nonpayable",
      "type": "function"
    },
    {
      "inputs": [
        {
          "internalType": "address[]",
          "name": "accounts",
          "type": "address[]"
        },
        {
          "internalType": "uint256[]",
          "name": "amounts",
          "type": "uint256[]"
        },
        {
          "internalType": "uint256",
          "name": "batchAmount",
          "type": "uint256"
        }
      ],
      "name": "stakeOnBehalfOfOtherUsers",
      "outputs": [],
      "stateMutability": "nonpayable",
      "type": "function"
    },
    {
      "inputs": [
        {
          "internalType": "uint256",
          "name": "streamId",
          "type": "uint256"
        },
        {
          "internalType": "uint256",
          "name": "start",
          "type": "uint256"
        },
        {
          "internalType": "uint256",
          "name": "end",
          "type": "uint256"
        }
      ],
      "name": "startEndScheduleIndex",
      "outputs": [
        {
          "internalType": "uint256",
          "name": "startIndex",
          "type": "uint256"
        },
        {
          "internalType": "uint256",
          "name": "endIndex",
          "type": "uint256"
        }
      ],
      "stateMutability": "view",
      "type": "function"
    },
    {
      "inputs": [
        {
          "internalType": "bytes4",
          "name": "interfaceId",
          "type": "bytes4"
        }
      ],
      "name": "supportsInterface",
      "outputs": [
        {
          "internalType": "bool",
          "name": "",
          "type": "bool"
        }
      ],
      "stateMutability": "view",
      "type": "function"
    },
    {
      "inputs": [],
      "name": "totalAmountOfStakedAurora",
      "outputs": [
        {
          "internalType": "uint256",
          "name": "",
          "type": "uint256"
        }
      ],
      "stateMutability": "view",
      "type": "function"
    },
    {
      "inputs": [],
      "name": "totalAuroraShares",
      "outputs": [
        {
          "internalType": "uint256",
          "name": "",
          "type": "uint256"
        }
      ],
      "stateMutability": "view",
      "type": "function"
    },
    {
      "inputs": [],
      "name": "totalStreamShares",
      "outputs": [
        {
          "internalType": "uint256",
          "name": "",
          "type": "uint256"
        }
      ],
      "stateMutability": "view",
      "type": "function"
    },
    {
      "inputs": [],
      "name": "touchedAt",
      "outputs": [
        {
          "internalType": "uint256",
          "name": "",
          "type": "uint256"
        }
      ],
      "stateMutability": "view",
      "type": "function"
    },
    {
      "inputs": [
        {
          "internalType": "address",
          "name": "newAdmin",
          "type": "address"
        }
      ],
      "name": "transferOwnership",
      "outputs": [],
      "stateMutability": "nonpayable",
      "type": "function"
    },
    {
      "inputs": [],
      "name": "treasury",
      "outputs": [
        {
          "internalType": "address",
          "name": "",
          "type": "address"
        }
      ],
      "stateMutability": "view",
      "type": "function"
    },
    {
      "inputs": [
        {
          "internalType": "uint256",
          "name": "amount",
          "type": "uint256"
        }
      ],
      "name": "unstake",
      "outputs": [],
      "stateMutability": "nonpayable",
      "type": "function"
    },
    {
      "inputs": [],
      "name": "unstakeAll",
      "outputs": [],
      "stateMutability": "nonpayable",
      "type": "function"
    },
    {
      "inputs": [
        {
          "internalType": "address",
          "name": "_treasury",
          "type": "address"
        }
      ],
      "name": "updateTreasury",
      "outputs": [],
      "stateMutability": "nonpayable",
      "type": "function"
    },
    {
      "inputs": [
        {
          "internalType": "uint256",
          "name": "streamId",
          "type": "uint256"
        }
      ],
      "name": "withdraw",
      "outputs": [],
      "stateMutability": "nonpayable",
      "type": "function"
    },
    {
      "inputs": [],
      "name": "withdrawAll",
      "outputs": [],
      "stateMutability": "nonpayable",
      "type": "function"
    }
  ],
  "transactionHash": "0x43e3fb8698e89b37cdb5bae9c2305ae03ae737d666f9e0b0078928f2e7205c14",
  "args": [],
  "solcInputHash": "5f7c522ad70c73c156b9a71ec3641b80",
  "bytecode": "0x60a06040523060805234801561001457600080fd5b50608051615242610030600039600061410d01526152426000f3fe6080604052600436106102f45760003560e01c806301ffc9a7146102f9578063036877881461032e5780630efd83101461035c57806312dd67fe1461037c5780631c61e6171461039c5780631dd00452146103bc5780631e0fbfa2146104005780631fd8c5f414610422578063248a9ca3146104385780632692c59f1461045857806326cdddb91461047a578063275719691461049a5780632ca783f3146104ba5780632e17de78146104da5780632e1a7d4d146104fa5780632f2ff15d1461051a57806335322f371461053a57806336568abe1461054f57806336630cc71461056f5780633895a2751461058f578063389ed267146105a5578063396a6c14146105c75780633ba31abf146105e75780633e9a44cb146106075780634981912e14610627578063530208f21461065557806353a4cca01461067557806355021b3a146106955780635578fdb2146106b557806357baeac8146106e25780635c975abb1461070257806361d027b3146107185780636458edd314610738578063687dd46c146107585780636c4624c3146107785780636db8e53d1461079857806370bc770c146107ae57806372e55399146107dc5780637f37df3b146107fc5780637f51bb1f14610840578063853828b61461086057806386c1b4eb14610875578063894e9a0d146108975780638bc34e77146109195780638d40bd031461092e578063904033221461094e57806391d148541461096e578063993b21c11461098e5780639c52a920146109ae578063a217fddf146109ce578063a4c828dc146109e3578063a694fc3a14610a19578063a81c6a1514610a39578063b8e9744c14610a59578063ba0cb22b14610a79578063bb07ec1b14610ab2578063be831a2e14610ac8578063c892772314610ae8578063cd5ba59014610b2c578063d5050aed14610b41578063d547741f14610b61578063e335e79a14610b81578063ee13ad8e14610b96578063f2fde38b14610bb6578063f48ab4e014610478578063f851a44014610bd6578063fbab974014610bf6575b600080fd5b34801561030557600080fd5b5061031961031436600461465a565b610c16565b60405190151581526020015b60405180910390f35b34801561033a57600080fd5b5061034e610349366004614684565b610c4d565b604051908152602001610325565b34801561036857600080fd5b5061034e6103773660046146d5565b611146565b34801561038857600080fd5b5061034e610397366004614705565b611190565b3480156103a857600080fd5b5061034e6103b73660046146d5565b611252565b3480156103c857600080fd5b5061034e6103d73660046146d5565b6001600160a01b0316600090815260a16020908152604080832093835260059093019052205490565b34801561040c57600080fd5b5061034e6000805160206151ed83398151915281565b34801561042e57600080fd5b5061034e609a5481565b34801561044457600080fd5b5061034e610453366004614705565b6112c8565b34801561046457600080fd5b50610478610473366004614705565b6112dd565b005b34801561048657600080fd5b50610478610495366004614856565b6112fc565b3480156104a657600080fd5b506104786104b53660046148b9565b611364565b3480156104c657600080fd5b506104786104d53660046148ed565b6113ca565b3480156104e657600080fd5b506104786104f5366004614705565b61144b565b34801561050657600080fd5b50610478610515366004614705565b6114c6565b34801561052657600080fd5b506104786105353660046146d5565b61156d565b34801561054657600080fd5b5061047861158a565b34801561055b57600080fd5b5061047861056a3660046146d5565b611605565b34801561057b57600080fd5b5061034e61058a366004614919565b61167f565b34801561059b57600080fd5b5061034e60995481565b3480156105b157600080fd5b5061034e60008051602061518d83398151915281565b3480156105d357600080fd5b5061034e6105e2366004614705565b6117a9565b3480156105f357600080fd5b506104786106023660046146d5565b611827565b34801561061357600080fd5b506104786106223660046148ed565b611aba565b34801561063357600080fd5b50610647610642366004614684565b611ae5565b60405161032592919061493b565b34801561066157600080fd5b506104786106703660046148ed565b611cc6565b34801561068157600080fd5b50610478610690366004614949565b611d08565b3480156106a157600080fd5b506104786106b03660046149b5565b611e98565b3480156106c157600080fd5b50609e546106d5906001600160a01b031681565b6040516103259190614a5a565b3480156106ee57600080fd5b5061034e6106fd366004614a6e565b61200f565b34801561070e57600080fd5b5061034e60985481565b34801561072457600080fd5b50609d546106d5906001600160a01b031681565b34801561074457600080fd5b50610478610753366004614a8b565b612083565b34801561076457600080fd5b50610478610773366004614ad0565b6120ae565b34801561078457600080fd5b50610478610793366004614684565b6120f7565b3480156107a457600080fd5b5061034e609c5481565b3480156107ba57600080fd5b506107ce6107c9366004614705565b61210f565b604051610325929190614b3f565b3480156107e857600080fd5b506104786107f7366004614ad0565b61220d565b34801561080857600080fd5b5061034e6108173660046146d5565b6001600160a01b0316600090815260a16020908152604080832093835260039093019052205490565b34801561084c57600080fd5b5061047861085b366004614a6e565b612303565b34801561086c57600080fd5b50610478612358565b34801561088157600080fd5b5061034e6000805160206151ad83398151915281565b3480156108a357600080fd5b506108b76108b2366004614705565b6123f8565b604080516001600160a01b039c8d1681529b909a1660208c0152988a01979097526060890195909552608088019390935260a087019190915260c086015260e08501526101008401521515610120830152151561014082015261016001610325565b34801561092557600080fd5b506104786124ca565b34801561093a57600080fd5b50610478610949366004614919565b612515565b34801561095a57600080fd5b50610478610969366004614705565b6127fd565b34801561097a57600080fd5b506103196109893660046146d5565b612940565b34801561099a57600080fd5b5061034e6109a9366004614705565b61296b565b3480156109ba57600080fd5b506104786109c9366004614705565b612999565b3480156109da57600080fd5b5061034e600081565b3480156109ef57600080fd5b5061034e6109fe366004614a6e565b6001600160a01b0316600090815260a1602052604090205490565b348015610a2557600080fd5b50610478610a34366004614705565b612aed565b348015610a4557600080fd5b50610478610a54366004614b64565b612b55565b610a6c610a67366004614c24565b612fb5565b6040516103259190614d23565b348015610a8557600080fd5b5061034e610a94366004614a6e565b6001600160a01b0316600090815260a1602052604090206001015490565b348015610abe57600080fd5b5061034e609b5481565b348015610ad457600080fd5b50610478610ae3366004614919565b61303e565b348015610af457600080fd5b5061034e610b033660046146d5565b6001600160a01b0316600090815260a16020908152604080832093835260049093019052205490565b348015610b3857600080fd5b5061034e61304f565b348015610b4d57600080fd5b50610478610b5c366004614a6e565b613081565b348015610b6d57600080fd5b50610478610b7c3660046146d5565b6130ab565b348015610b8d57600080fd5b5060a25461034e565b348015610ba257600080fd5b50610478610bb1366004614705565b6130c8565b348015610bc257600080fd5b50610478610bd1366004614a6e565b613160565b348015610be257600080fd5b506097546106d5906001600160a01b031681565b348015610c0257600080fd5b50610478610c11366004614705565b613260565b60006001600160e01b03198216637965db0b60e01b1480610c4757506301ffc9a760e01b6001600160e01b03198316145b92915050565b6000828211610ca25760405162461bcd60e51b815260206004820152601c60248201527b494e56414c49445f5245574152445f51554552595f504552494f444560201b60448201526064015b60405180910390fd5b600060a28581548110610cb757610cb7614d36565b90600052602060002090600d0201600a01905080600001600081548110610ce057610ce0614d36565b9060005260206000200154841015610d385760405162461bcd60e51b815260206004820152601b60248201527a145551549657d0915193d49157d4d0d2115115531157d4d5105495602a1b6044820152606401610c99565b80548190610d4890600190614d62565b81548110610d5857610d58614d36565b9060005260206000200154831115610dad5760405162461bcd60e51b8152602060048201526018602482015277145551549657d05195115497d4d0d2115115531157d1539160421b6044820152606401610c99565b600080610dbb878787611ae5565b909250905060008083831415610e9a5784600101846001610ddc9190614d79565b81548110610dec57610dec614d36565b9060005260206000200154856001018581548110610e0c57610e0c614d36565b9060005260206000200154610e219190614d62565b9050846000018481548110610e3857610e38614d36565b60009182526020909120015485610e50866001614d79565b81548110610e6057610e60614d36565b9060005260206000200154610e759190614d62565b610e7f8989614d62565b610e899083614d91565b610e939190614db0565b9150611138565b84600101846001610eab9190614d79565b81548110610ebb57610ebb614d36565b9060005260206000200154856001018581548110610edb57610edb614d36565b9060005260206000200154610ef09190614d62565b9050846000018481548110610f0757610f07614d36565b60009182526020909120015485610f1f866001614d79565b81548110610f2f57610f2f614d36565b9060005260206000200154610f449190614d62565b8886610f51876001614d79565b81548110610f6157610f61614d36565b9060005260206000200154610f769190614d62565b610f809083614d91565b610f8a9190614db0565b91506000610f99856001614d79565b90505b8381101561101a5785600101816001610fb59190614d79565b81548110610fc557610fc5614d36565b9060005260206000200154866001018281548110610fe557610fe5614d36565b9060005260206000200154610ffa9190614d62565b91506110068284614d79565b92508061101281614dd2565b915050610f9c565b5084600001838154811061103057611030614d36565b906000526020600020015487111561113857846001018360016110539190614d79565b8154811061106357611063614d36565b906000526020600020015485600101848154811061108357611083614d36565b90600052602060002001546110989190614d62565b90508460000184815481106110af576110af614d36565b600091825260209091200154856110c7866001614d79565b815481106110d7576110d7614d36565b90600052602060002001546110ec9190614d62565b85600001848154811061110157611101614d36565b9060005260206000200154886111179190614d62565b6111219083614d91565b61112b9190614db0565b6111359083614d79565b91505b5093505050505b9392505050565b60008261116f57506001600160a01b038116600090815260a16020526040902060010154610c47565b506001600160a01b0316600090815260a16020526040902060020154919050565b6000816111af5760405162461bcd60e51b8152600401610c9990614ded565b609c546111f35760405162461bcd60e51b81526020600482015260126024820152715a45524f5f53545245414d5f53484152455360701b6044820152606401610c99565b609c5468fc6f7c40458122964d601f1b61120f84609a5461167f565b6112199190614d91565b6112239190614db0565b60a2838154811061123657611236614d36565b90600052602060002090600d020160090154610c479190614d79565b60008061125e84611190565b6001600160a01b038416600090815260a16020908152604080832088845260058101909252909120546002820154929350909168fc6f7c40458122964d601f1b816112a98487614d62565b6112b39190614d91565b6112bd9190614db0565b979650505050505050565b60009081526065602052604090206001015490565b60008051602061518d8339815191526112f68133613302565b50609855565b6000805160206151ad8339815191526113158133613302565b61131d613366565b60005b835181101561135e5761134c84828151811061133e5761133e614d36565b60200260200101518461342e565b8061135681614dd2565b915050611320565b50505050565b6000805160206151ad83398151915261137d8133613302565b611385613366565b60005b82518110156113c5576113b38382815181106113a6576113a6614d36565b60200260200101516134bf565b806113bd81614dd2565b915050611388565b505050565b60018060985416600014806113e557506113e5600033612940565b6114015760405162461bcd60e51b8152600401610c9990614e1e565b6000805160206151ed83398151915261141a8133613302565b611422613366565b61142c848461351f565b609d54609e5461135e916001600160a01b0391821691339116866136c2565b60018060985416600014806114665750611466600033612940565b6114825760405162461bcd60e51b8152600401610c9990614e1e565b61148a613366565b609b5433600090815260a160205260408120600101546099549192916114b09190614d91565b6114ba9190614db0565b90506113c5838261371a565b60018060985416600014806114e157506114e1600033612940565b6114fd5760405162461bcd60e51b8152600401610c9990614e1e565b33600090815260a16020908152604080832085845260040190915290205442116115605760405162461bcd60e51b8152602060048201526014602482015273494e56414c49445f52454c454153455f54494d4560601b6044820152606401610c99565b61156982613914565b5050565b611576826112c8565b6115808133613302565b6113c58383613a18565b60018060985416600014806115a557506115a5600033612940565b6115c15760405162461bcd60e51b8152600401610c9990614e1e565b6115c9613366565b609b5433600090815260a160205260408120600101546099549192916115ef9190614d91565b6115f99190614db0565b9050611569818261371a565b6001600160a01b03811633146116755760405162461bcd60e51b815260206004820152602f60248201527f416363657373436f6e74726f6c3a2063616e206f6e6c792072656e6f756e636560448201526e103937b632b9903337b91039b2b63360891b6064820152608401610c99565b6115698282613a9e565b60004282141561169157506000610c47565b600060a284815481106116a6576116a6614d36565b90600052602060002090600d0201600a016000016000815481106116cc576116cc614d36565b906000526020600020015490508042116116ea576000915050610c47565b600060a285815481106116ff576116ff614d36565b90600052602060002090600d0201600a01600001600160a2878154811061172857611728614d36565b60009182526020909120600a600d9092020101546117469190614d62565b8154811061175657611756614d36565b9060005260206000200154905080841061177557600092505050610c47565b600080838611156117885785915061178c565b8391505b8242101561179b57504261179e565b50815b6112bd878383610c4d565b60008060a283815481106117bf576117bf614d36565b90600052602060002090600d0201905080600c0160019054906101000a900460ff166117ee5750600092915050565b60006117fe84836007015461167f565b905081600401548260020154826118159190614d91565b61181f9190614db0565b949350505050565b60006118338133613302565b8261187e5760405162461bcd60e51b815260206004820152601b60248201527a4155524f52415f53545245414d5f4e4f545f52454d4f5641424c4560281b6044820152606401610c99565b600060a2848154811061189357611893614d36565b90600052602060002090600d0201905080600c0160019054906101000a900460ff166118fa5760405162461bcd60e51b815260206004820152601660248201527514d51491505357d053149150511657d4915353d5915160521b6044820152606401610c99565b600c8101805461ffff1916905580546040514281526001600160a01b039091169085907f138a3f5239f6194312dabd3886690dd9204448e8dd2105abf6587f732041cbfe9060200160405180910390a36000816003015482600201546119609190614d62565b90506000826005015483600401546119789190614d62565b609e54909150600090611993906001600160a01b031661200f565b60018501549091506000906119b0906001600160a01b031661200f565b609d54609754609e549293506001600160a01b039182169263da0c1a88929182169116858811156119e157856119e3565b875b6040518463ffffffff1660e01b8152600401611a0193929190614e3e565b600060405180830381600087803b158015611a1b57600080fd5b505af1158015611a2f573d6000803e3d6000fd5b5050609d5460018801546001600160a01b03918216935063da0c1a8892508a911684871115611a5e5784611a60565b865b6040518463ffffffff1660e01b8152600401611a7e93929190614e3e565b600060405180830381600087803b158015611a9857600080fd5b505af1158015611aac573d6000803e3d6000fd5b505050505050505050505050565b6000805160206151ad833981519152611ad38133613302565b611adb613366565b6113c58383613b05565b600080600060a28681548110611afd57611afd614d36565b60009182526020909120600a600d90920201018054909150611b4f5760405162461bcd60e51b815260206004820152600b60248201526a4e4f5f5343484544554c4560a81b6044820152606401610c99565b8484118015611b7e575080600001600081548110611b6f57611b6f614d36565b90600052602060002001548510155b8015611bb4575080548190611b9590600190614d62565b81548110611ba557611ba5614d36565b90600052602060002001548411155b611bfe5760405162461bcd60e51b815260206004820152601b60248201527a494e56414c49445f5343484544554c455f504152414d455445525360281b6044820152606401610c99565b60005b8154611c0f90600190614d62565b811015611c6157816000018181548110611c2b57611c2b614d36565b9060005260206000200154861015611c4f57611c48600182614d62565b9350611c61565b80611c5981614dd2565b915050611c01565b508054600090611c7390600190614d62565b90505b8015611cbc57816000018181548110611c9157611c91614d36565b90600052602060002001548510611caa57809250611cbc565b80611cb481614e62565b915050611c76565b5050935093915050565b6000611cd28133613302565b6040516001600160a01b0384169083156108fc029084906000818181858888f1935050505015801561135e573d6000803e3d6000fd5b6001806098541660001480611d235750611d23600033612940565b611d3f5760405162461bcd60e51b8152600401610c9990614e1e565b6000805160206151ed833981519152611d588133613302565b611d60613366565b8351855114611da85760405162461bcd60e51b81526020600482015260146024820152730929cac82989288be82a4a482b2be988a9c8ea8960631b6044820152606401610c99565b6000805b8551811015611e2a57858181518110611dc757611dc7614d36565b602002602001015182611dda9190614d79565b9150611e18878281518110611df157611df1614d36565b6020026020010151878381518110611e0b57611e0b614d36565b602002602001015161351f565b80611e2281614dd2565b915050611dac565b50838114611e715760405162461bcd60e51b81526020600482015260146024820152731253959053125117d0905510d217d05353d5539560621b6044820152606401610c99565b609d54609e54611e90916001600160a01b0391821691339116876136c2565b505050505050565b6000611ea48133613302565b611eb2888887878787613ce2565b60a2805460018101808355600083815291929083908110611ed557611ed5614d36565b600091825260208220600d9091020180546001600160a01b03808e166001600160a01b0319928316178355600183018054918e1691909216179055600281018a9055600381018290556006810189905560048101829055600581018290558751909250879190611f4757611f47614d36565b60209081029190910181015160078301556040805180820190915287815280820187905287519091600a840191611f83918391908b01906145fa565b506020828101518051611f9c92600185019201906145fa565b505050600c8101805461ffff19166001179055600881018490556040516001600160a01b038b1690839060008051602061514d83398151915290611fe39042815260200190565b60405180910390a3609e54612003906001600160a01b031633308b6136c2565b50505050505050505050565b609d546040516370a0823160e01b81526000916001600160a01b03808516926370a0823192612042921690600401614a5a565b602060405180830381865afa15801561205f573d6000803e3d6000fd5b505050506040513d601f19601f82011682018060405250810190610c479190614e79565b6000805160206151ad83398151915261209c8133613302565b6120a4613366565b6113c5838361342e565b60018060985416600014806120c957506120c9600033612940565b6120e55760405162461bcd60e51b8152600401610c9990614e1e565b6120ed613366565b611569338361342e565b60006121038133613302565b50825491821816189055565b60608060a2838154811061212557612125614d36565b90600052602060002090600d0201600a0160000160a2848154811061214c5761214c614d36565b90600052602060002090600d0201600a01600101818054806020026020016040519081016040528092919081815260200182805480156121ab57602002820191906000526020600020905b815481526020019060010190808311612197575b50505050509150808054806020026020016040519081016040528092919081815260200182805480156121fd57602002820191906000526020600020905b8154815260200190600101908083116121e9575b5050505050905091509150915091565b60018060985416600014806122285750612228600033612940565b6122445760405162461bcd60e51b8152600401610c9990614e1e565b33600090815260a160205260408120905b835181101561135e5781600301600085838151811061227657612276614d36565b60200260200101518152602001908152602001600020546000141580156122ca57508160040160008583815181106122b0576122b0614d36565b602002602001015181526020019081526020016000205442115b156122f1576122f18482815181106122e4576122e4614d36565b6020026020010151613914565b806122fb81614dd2565b915050612255565b600061230f8133613302565b6001600160a01b0382166123355760405162461bcd60e51b8152600401610c9990614e92565b50609d80546001600160a01b0319166001600160a01b0392909216919091179055565b60018060985416600014806123735750612373600033612940565b61238f5760405162461bcd60e51b8152600401610c9990614e1e565b33600090815260a160205260408120905b60a2548110156113c5576000818152600383016020526040902054158015906123d85750600081815260048301602052604090205442115b156123e6576123e681613914565b806123f081614dd2565b9150506123a0565b60008060008060008060008060008060008060a28d8154811061241d5761241d614d36565b90600052602060002090600d020190508060000160009054906101000a90046001600160a01b03168160010160009054906101000a90046001600160a01b0316826002015483600301548460040154856005015486600601548760070154886008015489600c0160009054906101000a900460ff168a600c0160019054906101000a900460ff169b509b509b509b509b509b509b509b509b509b509b505091939597999b90929496989a50565b60018060985416600014806124e557506124e5600033612940565b6125015760405162461bcd60e51b8152600401610c9990614e1e565b612509613366565b612512336134bf565b50565b60018060985416600014806125305750612530600033612940565b61254c5760405162461bcd60e51b8152600401610c9990614e1e565b600060a2848154811061256157612561614d36565b60009182526020909120600d90910201600c81015490915060ff166125be5760405162461bcd60e51b815260206004820152601360248201527214d51491505357d393d517d41493d413d4d151606a1b6044820152606401610c99565b80546001600160a01b031633146125e75760405162461bcd60e51b8152600401610c9990614ebb565b600c810154610100900460ff16156126395760405162461bcd60e51b815260206004820152601560248201527453545245414d5f414c52454144595f45584953545360581b6044820152606401610c99565b4281600a0160000160008154811061265357612653614d36565b906000526020600020015410156126a65760405162461bcd60e51b815260206004820152601760248201527614d51491505357d41493d413d4d05317d1561412549151604a1b6044820152606401610c99565b80600601548311156126f85760405162461bcd60e51b815260206004820152601b60248201527a1253959053125117d49155d0549117d513d2d15397d05353d55395602a1b6044820152606401610c99565b600c8101805461ff00191661010017905560048101839055604051339085906000805160206151cd833981519152906127349042815260200190565b60405180910390a380600601548310156127b95760068101546002820154600091906127608683614d62565b61276a9190614d91565b6127749190614db0565b90508082600201600082825461278a9190614d62565b9091555061279a90508585613faa565b609754609e546127b7916001600160a01b039182169116836140d2565b505b609d546002820154609e546127dc926001600160a01b03918216929116906140d2565b609d54600182015461135e916001600160a01b0391821691339116866136c2565b60006128098133613302565b600060a2838154811061281e5761281e614d36565b90600052602060002090600d020190504260a2848154811061284257612842614d36565b90600052602060002090600d0201600a0160000160008154811061286857612868614d36565b9060005260206000200154111580156128855750600c81015460ff165b6128c95760405162461bcd60e51b815260206004820152601560248201527453545245414d5f4449445f4e4f545f45585049524560581b6044820152606401610c99565b600c8101805460ff19169055600281018054600090915581546040514281526001600160a01b039091169085907f36bc74eb2ec224bdd93b3e3ba7a70e1802b4a876f1bd1fd7fdc15f41ccc12f239060200160405180910390a3609754609e5461135e916001600160a01b039182169116836140d2565b60009182526065602090815260408084206001600160a01b0393909316845291905290205460ff1690565b600060a2828154811061298057612980614d36565b90600052602060002090600d0201600901549050919050565b60018060985416600014806129b457506129b4600033612940565b6129d05760405162461bcd60e51b8152600401610c9990614e1e565b600060a283815481106129e5576129e5614d36565b60009182526020909120600d9091020180549091506001600160a01b03163314612a215760405162461bcd60e51b8152600401610c9990614ebb565b600c810154610100900460ff16612a4a5760405162461bcd60e51b8152600401610c9990614ee9565b6000612a55846117a9565b905042826007018190555080826003016000828254612a749190614d79565b9091555050609d548254609e54604051631b41835160e31b81526001600160a01b039384169363da0c1a8893612ab593908216929116908690600401614e3e565b600060405180830381600087803b158015612acf57600080fd5b505af1158015612ae3573d6000803e3d6000fd5b5050505050505050565b6001806098541660001480612b085750612b08600033612940565b612b245760405162461bcd60e51b8152600401610c9990614e1e565b612b2c613366565b612b36338361351f565b609d54609e54611569916001600160a01b0391821691339116856136c2565b600054610100900460ff16612b705760005460ff1615612b74565b303b155b612b905760405162461bcd60e51b8152600401610c9990614f12565b600054610100900460ff16158015612bb2576000805461ffff19166101011790555b818311612bf35760405162461bcd60e51b815260206004820152600f60248201526e494e56414c49445f5745494748545360881b6044820152606401610c99565b6001600160a01b038a1615801590612c1357506001600160a01b03841615155b8015612c2757506001600160a01b03891615155b612c435760405162461bcd60e51b8152600401610c9990614e92565b8651885114612c645760405162461bcd60e51b8152600401610c9990614f60565b85612c815760405162461bcd60e51b8152600401610c9990614f91565b60015b8851811015612d565788612c99600183614d62565b81518110612ca957612ca9614d36565b6020026020010151898281518110612cc357612cc3614d36565b602002602001015111612ce85760405162461bcd60e51b8152600401610c9990614fbd565b87612cf4600183614d62565b81518110612d0457612d04614d36565b6020026020010151888281518110612d1e57612d1e614d36565b60200260200101511115612d445760405162461bcd60e51b8152600401610c9990614fed565b80612d4e81614dd2565b915050612c84565b508660018851612d669190614d62565b81518110612d7657612d76614d36565b6020026020010151600014612d9d5760405162461bcd60e51b8152600401610c999061501f565b612da685613260565b612dbe6000805160206151ed83398151915233613a18565b612dd66000805160206151ad83398151915233613a18565b609d80546001600160a01b038087166001600160a01b031992831617909255609e8054928d1692909116919091179055609f83905560a082905560a2805460010180825560008281529182918290612e3057612e30614d36565b90600052602060002090600d020190508a8160000160006101000a8154816001600160a01b0302191690836001600160a01b031602179055508b8160010160006101000a8154816001600160a01b0302191690836001600160a01b03160217905550600081600201819055506000816003018190555060008160060181905550600081600401819055506000816005018190555042816007018190555060405180604001604052808b81526020018a81525081600a016000820151816000019080519060200190612f029291906145fa565b506020828101518051612f1b92600185019201906145fa565b505050600c8101805461ffff1916610101179055600881018890556040514281526001600160a01b038c1690839060008051602061514d8339815191529060200160405180910390a38a6001600160a01b0316826000805160206151cd83398151915242604051612f8e91815260200190565b60405180910390a350508015612003576000805461ff001916905550505050505050505050565b60606000612fc38133613302565b612fcb614102565b600080856001600160a01b031685604051612fe69190615054565b600060405180830381855af49150503d8060008114613021576040519150601f19603f3d011682016040523d82523d6000602084013e613026565b606091505b50915091508161303557600080fd5b95945050505050565b600061304a8133613302565b509055565b6000609a54600014156130625750600090565b61306f6000609a5461167f565b60995461307c9190614d79565b905090565b6000805160206151ad83398151915261309a8133613302565b6130a2613366565b611569826134bf565b6130b4826112c8565b6130be8133613302565b6113c58383613a9e565b60018060985416600014806130e357506130e3600033612940565b6130ff5760405162461bcd60e51b8152600401610c9990614e1e565b8160a2818154811061311357613113614d36565b90600052602060002090600d0201600c0160019054906101000a900460ff1661314e5760405162461bcd60e51b8152600401610c9990614ee9565b613156613366565b6113c53384613b05565b600061316c8133613302565b6001600160a01b0382166131925760405162461bcd60e51b8152600401610c9990614e92565b6097546001600160a01b03838116911614156131e55760405162461bcd60e51b815260206004820152601260248201527153414d455f41444d494e5f4144445245535360701b6044820152606401610c99565b6131f0600083613a18565b609780546001600160a01b0319166001600160a01b038416179055613216600033613a9e565b7f8be0079c531659141344cd1fd0a4f28419497f9722a3daafe3b4186f6b6457e033604080516001600160a01b03928316815291851660208301520160405180910390a15050565b565b600054610100900460ff1661327b5760005460ff161561327f565b303b155b61329b5760405162461bcd60e51b8152600401610c9990614f12565b600054610100900460ff161580156132bd576000805461ffff19166101011790555b6132c5614138565b60988290556132d5600033613a18565b6132ed60008051602061518d83398151915233613a18565b8015611569576000805461ff00191690555050565b61330c8282612940565b61156957613324816001600160a01b03166014614177565b61332f836020614177565b604051602001613340929190615070565b60408051601f198184030181529082905262461bcd60e51b8252610c9991600401614d23565b42609a54141561337257565b609b5415613428576133876000609a5461167f565b609960008282546133989190614d79565b90915550600190505b60a2548110156134265760a281815481106133be576133be614d36565b90600052602060002090600d0201600c0160019054906101000a900460ff1615613414576133eb81611190565b60a282815481106133fe576133fe614d36565b90600052602060002090600d0201600901819055505b8061341e81614dd2565b9150506133a1565b505b42609a55565b60005b81518110156113c55760a282828151811061344e5761344e614d36565b60200260200101518154811061346657613466614d36565b90600052602060002090600d0201600c0160019054906101000a900460ff16156134ad576134ad838383815181106134a0576134a0614d36565b6020026020010151613b05565b806134b781614dd2565b915050613431565b60015b60a2548110156115695760a281815481106134df576134df614d36565b90600052602060002090600d0201600c0160019054906101000a900460ff161561350d5761350d8282613b05565b8061351781614dd2565b9150506134c2565b6001600160a01b038216600090815260a160205260408120609b54909190613548575081613570565b609954609b546135589085614d91565b6135629190614db0565b61356d906001614d79565b90505b808260010160008282546135849190614d79565b9250508190555080609b600082825461359d9190614d79565b9250508190555082609960008282546135b69190614d79565b90915550508154839083906000906135cf908490614d79565b90915550600090506135e18242614312565b905080609c60008282546135f59190614d79565b92505081905550808360020160008282546136109190614d79565b90915550600190505b60a25481101561366f5760a2818154811061363657613636614d36565b600091825260208083206009600d909302019190910154838352600587019091526040909120558061366781614dd2565b915050613619565b506040805185815260208101849052428183015290516001600160a01b038716917fb4caaf29adda3eefee3ad552a8e85058589bf834c7466cae4ee58787f70589ed919081900360600190a25050505050565b61135e846323b872dd60e01b8585856040516024016136e393929190614e3e565b60408051601f198184030181529190526020810180516001600160e01b03166001600160e01b031990931692909217909152614406565b816137555760405162461bcd60e51b815260206004820152600b60248201526a16915493d7d05353d5539560aa1b6044820152606401610c99565b808211156137a05760405162461bcd60e51b81526020600482015260186024820152774e4f545f454e4f5547485f5354414b455f42414c414e434560401b6044820152606401610c99565b33600090815260a1602052604081206001810154609b8054929391929091906137ca908490614d62565b90915550506002810154609c80546000906137e6908490614d62565b9091555050600060018201819055600282018190556099805484929061380d908490614d62565b9091555050600080825580805260038201602052604081208054859290613835908490614d79565b909155505060a2805460009061384d5761384d614d36565b90600052602060002090600d0201600801544261386a9190614d79565b6000808052600483016020908152604080832093909355600384019052818120549151339260008051602061516d833981519152916138ab9190429061493b565b60405180910390a3336001600160a01b03167f7fc4727e062e336010f2c282598ef5f14facb3de68cf8195c2f23e1454b2b74e84426040516138ee92919061493b565b60405180910390a260006139028484614d62565b9050801561135e5761135e338261351f565b33600081815260a1602090815260408083208584526003810190925280832080549390555190929084907ff86dbbaae73a38eba376327ec68def0678d91d952b4a18aa86d880f199632bd99061396d908590429061493b565b60405180910390a3609d5460a280546001600160a01b039092169163da0c1a88913391879081106139a0576139a0614d36565b600091825260209091206001600d9092020101546040516001600160e01b031960e085901b1681526139e192916001600160a01b0316908690600401614e3e565b600060405180830381600087803b1580156139fb57600080fd5b505af1158015613a0f573d6000803e3d6000fd5b50505050505050565b613a228282612940565b6115695760008281526065602090815260408083206001600160a01b03851684529091529020805460ff19166001179055613a5a3390565b6001600160a01b0316816001600160a01b0316837f2f8788117e7eff1d82e926ec794901d17c78024a50270940304540a733656f0d60405160405180910390a45050565b613aa88282612940565b156115695760008281526065602090815260408083206001600160a01b0385168085529252808320805460ff1916905551339285917ff6391f5c32d9c69d2a47ea670b442974b53935d1edc7fd64eb21e047a839171b9190a45050565b80613b225760405162461bcd60e51b8152600401610c9990614ded565b6001600160a01b038216600090815260a1602090815260408083206002810154858552600582019093529083205460a2805492949368fc6f7c40458122964d601f1b939092919087908110613b7957613b79614d36565b90600052602060002090600d020160090154613b959190614d62565b613b9f9190614d91565b613ba99190614db0565b905080613bb65750505050565b600083815260038301602052604081208054839290613bd6908490614d79565b909155505060a2805484908110613bef57613bef614d36565b90600052602060002090600d0201600901548260050160008581526020019081526020016000208190555060a28381548110613c2d57613c2d614d36565b90600052602060002090600d02016008015442613c4a9190614d79565b600084815260048401602052604090205560a2805482919085908110613c7257613c72614d36565b90600052602060002090600d02016005016000828254613c929190614d79565b90915550506000838152600383016020526040908190205490516001600160a01b03861691859160008051602061516d83398151915291613cd491429061493b565b60405180910390a350505050565b6001600160a01b038616613d375760405162461bcd60e51b815260206004820152601c60248201527b494e56414c49445f53545245414d5f4f574e45525f4144445245535360201b6044820152606401610c99565b6001600160a01b038516613d8c5760405162461bcd60e51b815260206004820152601c60248201527b494e56414c49445f5245574152445f544f4b454e5f4144445245535360201b6044820152606401610c99565b60008411613de75760405162461bcd60e51b815260206004820152602260248201527f494e56414c49445f4d41585f4445504f53495445445f414d4f554e545f56414c604482015261554560f01b6064820152608401610c99565b4283600081518110613dfb57613dfb614d36565b602002602001015111613e505760405162461bcd60e51b815260206004820152601e60248201527f494e56414c49445f53545245414d5f45585049524154494f4e5f4441544500006044820152606401610c99565b8151835114613e715760405162461bcd60e51b8152600401610c9990614f60565b80613e8e5760405162461bcd60e51b8152600401610c9990614f91565b60015b8351811015613f635783613ea6600183614d62565b81518110613eb657613eb6614d36565b6020026020010151848281518110613ed057613ed0614d36565b602002602001015111613ef55760405162461bcd60e51b8152600401610c9990614fbd565b82613f01600183614d62565b81518110613f1157613f11614d36565b6020026020010151838281518110613f2b57613f2b614d36565b60200260200101511115613f515760405162461bcd60e51b8152600401610c9990614fed565b80613f5b81614dd2565b915050613e91565b508160018351613f739190614d62565b81518110613f8357613f83614d36565b6020026020010151600014611e905760405162461bcd60e51b8152600401610c999061501f565b600060a28381548110613fbf57613fbf614d36565b90600052602060002090600d0201600a01600101600081548110613fe557613fe5614d36565b9060005260206000200154905060005b60a2848154811061400857614008614d36565b60009182526020909120600b600d90920201015481101561135e57818360a2868154811061403857614038614d36565b90600052602060002090600d0201600a01600101838154811061405d5761405d614d36565b90600052602060002001546140729190614d91565b61407c9190614db0565b60a2858154811061408f5761408f614d36565b90600052602060002090600d0201600a0160010182815481106140b4576140b4614d36565b600091825260209091200155806140ca81614dd2565b915050613ff5565b6040516001600160a01b0383166024820152604481018290526113c590849063a9059cbb60e01b906064016136e3565b306001600160a01b037f000000000000000000000000000000000000000000000000000000000000000016141561325e57600080fd5b600054610100900460ff1661415f5760405162461bcd60e51b8152600401610c99906150df565b6141676144d8565b61416f6144d8565b61325e6144d8565b60606000614186836002614d91565b614191906002614d79565b6001600160401b038111156141a8576141a861471e565b6040519080825280601f01601f1916602001820160405280156141d2576020820181803683370190505b509050600360fc1b816000815181106141ed576141ed614d36565b60200101906001600160f81b031916908160001a905350600f60fb1b8160018151811061421c5761421c614d36565b60200101906001600160f81b031916908160001a9053506000614240846002614d91565b61424b906001614d79565b90505b60018111156142c3576f181899199a1a9b1b9c1cb0b131b232b360811b85600f166010811061427f5761427f614d36565b1a60f81b82828151811061429557614295614d36565b60200101906001600160f81b031916908160001a90535060049490941c936142bc81614e62565b905061424e565b50831561113f5760405162461bcd60e51b815260206004820181905260248201527f537472696e67733a20686578206c656e67746820696e73756666696369656e746044820152606401610c99565b6000806228207260a260008154811061432d5761432d614d36565b90600052602060002090600d0201600a0160000160008154811061435357614353614d36565b90600052602060002001546143689190614d79565b9050600061437a63078614f883614d79565b905081841161439957609f546143909086614d91565b92505050610c47565b8084106143ad5760a0546143909086614d91565b6143b78282614d62565b6143c18583614d62565b60a054609f546143d19190614d62565b6143db9088614d91565b6143e59190614d91565b6143ef9190614db0565b60a0546143fc9087614d91565b6130359190614d79565b600061445b826040518060400160405280602081526020017f5361666545524332303a206c6f772d6c6576656c2063616c6c206661696c6564815250856001600160a01b03166144ff9092919063ffffffff16565b8051909150156113c55780806020019051810190614479919061512a565b6113c55760405162461bcd60e51b815260206004820152602a60248201527f5361666545524332303a204552433230206f7065726174696f6e20646964206e6044820152691bdd081cdd58d8d9595960b21b6064820152608401610c99565b600054610100900460ff1661325e5760405162461bcd60e51b8152600401610c99906150df565b606061181f848460008585843b6145585760405162461bcd60e51b815260206004820152601d60248201527f416464726573733a2063616c6c20746f206e6f6e2d636f6e74726163740000006044820152606401610c99565b600080866001600160a01b031685876040516145749190615054565b60006040518083038185875af1925050503d80600081146145b1576040519150601f19603f3d011682016040523d82523d6000602084013e6145b6565b606091505b50915091506112bd828286606083156145d057508161113f565b8251156145e05782518084602001fd5b8160405162461bcd60e51b8152600401610c999190614d23565b828054828255906000526020600020908101928215614635579160200282015b8281111561463557825182559160200191906001019061461a565b50614641929150614645565b5090565b5b808211156146415760008155600101614646565b60006020828403121561466c57600080fd5b81356001600160e01b03198116811461113f57600080fd5b60008060006060848603121561469957600080fd5b505081359360208301359350604090920135919050565b6001600160a01b038116811461251257600080fd5b80356146d0816146b0565b919050565b600080604083850312156146e857600080fd5b8235915060208301356146fa816146b0565b809150509250929050565b60006020828403121561471757600080fd5b5035919050565b634e487b7160e01b600052604160045260246000fd5b604051601f8201601f191681016001600160401b038111828210171561475c5761475c61471e565b604052919050565b60006001600160401b0382111561477d5761477d61471e565b5060051b60200190565b600082601f83011261479857600080fd5b813560206147ad6147a883614764565b614734565b82815260059290921b840181019181810190868411156147cc57600080fd5b8286015b848110156147f05780356147e3816146b0565b83529183019183016147d0565b509695505050505050565b600082601f83011261480c57600080fd5b8135602061481c6147a883614764565b82815260059290921b8401810191818101908684111561483b57600080fd5b8286015b848110156147f0578035835291830191830161483f565b6000806040838503121561486957600080fd5b82356001600160401b038082111561488057600080fd5b61488c86838701614787565b935060208501359150808211156148a257600080fd5b506148af858286016147fb565b9150509250929050565b6000602082840312156148cb57600080fd5b81356001600160401b038111156148e157600080fd5b61181f84828501614787565b6000806040838503121561490057600080fd5b823561490b816146b0565b946020939093013593505050565b6000806040838503121561492c57600080fd5b50508035926020909101359150565b918252602082015260400190565b60008060006060848603121561495e57600080fd5b83356001600160401b038082111561497557600080fd5b61498187838801614787565b9450602086013591508082111561499757600080fd5b506149a4868287016147fb565b925050604084013590509250925092565b600080600080600080600060e0888a0312156149d057600080fd5b87356149db816146b0565b965060208801356149eb816146b0565b9550604088013594506060880135935060808801356001600160401b0380821115614a1557600080fd5b614a218b838c016147fb565b945060a08a0135915080821115614a3757600080fd5b50614a448a828b016147fb565b92505060c0880135905092959891949750929550565b6001600160a01b0391909116815260200190565b600060208284031215614a8057600080fd5b813561113f816146b0565b60008060408385031215614a9e57600080fd5b8235614aa9816146b0565b915060208301356001600160401b03811115614ac457600080fd5b6148af858286016147fb565b600060208284031215614ae257600080fd5b81356001600160401b03811115614af857600080fd5b61181f848285016147fb565b600081518084526020808501945080840160005b83811015614b3457815187529582019590820190600101614b18565b509495945050505050565b604081526000614b526040830185614b04565b82810360208401526130358185614b04565b60008060008060008060008060006101208a8c031215614b8357600080fd5b8935614b8e816146b0565b985060208a0135614b9e816146b0565b975060408a01356001600160401b0380821115614bba57600080fd5b614bc68d838e016147fb565b985060608c0135915080821115614bdc57600080fd5b50614be98c828d016147fb565b96505060808a0135945060a08a01359350614c0660c08b016146c5565b925060e08a013591506101008a013590509295985092959850929598565b60008060408385031215614c3757600080fd5b8235614c42816146b0565b91506020838101356001600160401b0380821115614c5f57600080fd5b818601915086601f830112614c7357600080fd5b813581811115614c8557614c8561471e565b614c97601f8201601f19168501614734565b91508082528784828501011115614cad57600080fd5b80848401858401376000848284010152508093505050509250929050565b60005b83811015614ce6578181015183820152602001614cce565b8381111561135e5750506000910152565b60008151808452614d0f816020860160208601614ccb565b601f01601f19169290920160200192915050565b60208152600061113f6020830184614cf7565b634e487b7160e01b600052603260045260246000fd5b634e487b7160e01b600052601160045260246000fd5b600082821015614d7457614d74614d4c565b500390565b60008219821115614d8c57614d8c614d4c565b500190565b6000816000190483118215151615614dab57614dab614d4c565b500290565b600082614dcd57634e487b7160e01b600052601260045260246000fd5b500490565b6000600019821415614de657614de6614d4c565b5060010190565b60208082526017908201527610555493d49057d49155d0549114d7d0d3d35413d55391604a1b604082015260600190565b60208082526006908201526514185d5cd95960d21b604082015260600190565b6001600160a01b039384168152919092166020820152604081019190915260600190565b600081614e7157614e71614d4c565b506000190190565b600060208284031215614e8b57600080fd5b5051919050565b6020808252600f908201526e494e56414c49445f4144445245535360881b604082015260600190565b60208082526014908201527324a72b20a624a22fa9aa2922a0a6afa7aba722a960611b604082015260600190565b6020808252600f908201526e494e4143544956455f53545245414d60881b604082015260600190565b6020808252602e908201527f496e697469616c697a61626c653a20636f6e747261637420697320616c72656160408201526d191e481a5b9a5d1a585b1a5e995960921b606082015260800190565b602080825260179082015276494e56414c49445f5343484544554c455f56414c55455360481b604082015260600190565b6020808252601290820152711253959053125117d5105557d411549253d160721b604082015260600190565b602080825260169082015275494e56414c49445f5343484544554c455f54494d455360501b604082015260600190565b602080825260189082015277494e56414c49445f5343484544554c455f5245574152445360401b604082015260600190565b6020808252601b908201527a1253959053125117d4d0d2115115531157d1539117d49155d05491602a1b604082015260600190565b60008251615066818460208701614ccb565b9190910192915050565b76020b1b1b2b9b9a1b7b73a3937b61d1030b1b1b7bab73a1604d1b8152600083516150a2816017850160208801614ccb565b7001034b99036b4b9b9b4b733903937b6329607d1b60179184019182015283516150d3816028840160208801614ccb565b01602801949350505050565b6020808252602b908201527f496e697469616c697a61626c653a20636f6e7472616374206973206e6f74206960408201526a6e697469616c697a696e6760a81b606082015260800190565b60006020828403121561513c57600080fd5b8151801515811461113f57600080fdfe46df4b1da61e3da1ea96646025835ed3c019e55199917ddcb47d906225732f46d841f13bd518db95a474f6d4b9fc7df1cfc116c841f91e218ff172d13f633b98139c2898040ef16910dc9f44dc697df79363da767d8bc92f2e310312b816e46df7db13299c8a9e501861f04c20f69a2444829a36a363cfad4b58864709c755609b75bb6b5d76707693bc56d2793d08ca515b19570eff8dcca55f2578b960beca3a2f235c9daaf33349d300aadff2f15078a89df81bcfdd45ba11c8f816bddc6fa2646970667358221220bee17ca6c3883516c52b67ef3f6b1d529a1fc25708227fb31e81cdacb205b03464736f6c634300080a0033",
  "devdoc": {
    "author": "Aurora Team",
    "details": "Implementation of Jet staking contract      This contract implements the staking mechanics for AURORA ERC20 token.      A user can stake any amount of AURORA tokens, and get rewarded in both      AURORA and other stream tokens based on the rewards schedules.      Stream rewards can be claimed any time however AURORA can't be claimed      unless the user unstakes his full/partial amount of shares.      This contract is AdminControlled which has a tremendous power. However      hopfully it be governed by a community wallet.",
    "kind": "dev",
    "methods": {
      "adminDelegatecall(address,bytes)": {
        "custom:oz-upgrades-unsafe-allow": "delegatecall"
      },
      "batchClaimOnBehalfOfAnotherUser(address,uint256[])": {
        "details": "batchClaimOnBehalfOfAnotherUser when gas limits prevent users from claiming all.",
        "params": {
          "account": "the user account address.",
          "streamIds": "to claim."
        }
      },
      "batchClaimOnBehalfOfOtherUsers(address[],uint256[])": {
        "details": "Claim all stream rewards on behalf of other users.",
        "params": {
          "accounts": "the user account addresses."
        }
      },
      "batchMoveRewardsToPending(uint256[])": {
        "details": "moves a set of stream Id rewards to pending. Allows user to select stream ids to claim from UI.",
        "params": {
          "streamIds": "stream indexes"
        }
      },
      "batchWithdraw(uint256[])": {
        "details": "withdraw a set of stream Ids. Allows user to select stream ids to withdraw from UI.",
        "params": {
          "streamIds": "to withdraw."
        }
      },
      "cancelStreamProposal(uint256)": {
        "details": "cancelStreamProposal should only called if the stream owner never created the stream after the proposal expiry date (streams[streamId].schedule.time[0]).",
        "params": {
          "streamId": "the stream index"
        }
      },
      "claimAllOnBehalfOfAnotherUser(address)": {
        "details": "Claim all stream rewards on behalf of another user.",
        "params": {
          "account": "the user account address."
        }
      },
      "claimAllOnBehalfOfOtherUsers(address[])": {
        "details": "Claim all stream rewards on behalf of other users.",
        "params": {
          "accounts": "the user account addresses."
        }
      },
      "claimOnBehalfOfAnotherUser(address,uint256)": {
        "details": "Claim a stream's rewards on behalf of another user.",
        "params": {
          "account": "the user account address.",
          "streamId": "to claim."
        }
      },
      "createStream(uint256,uint256)": {
        "details": "create new stream (only stream owner) stream owner must approve reward tokens to this contract.",
        "params": {
          "streamId": "stream id"
        }
      },
      "getAmountOfShares(uint256,address)": {
        "details": "gets a user stream shares",
        "params": {
          "account": "the user address",
          "streamId": "stream index"
        },
        "returns": {
          "_0": "user stream shares"
        }
      },
      "getLatestRewardPerShare(uint256)": {
        "details": "calculates and gets the latest reward per share (RPS) for a stream",
        "params": {
          "streamId": "stream index"
        },
        "returns": {
          "_0": "streams[streamId].rps + scheduled reward up till now"
        }
      },
      "getPending(uint256,address)": {
        "details": "gets the user's stream pending reward",
        "params": {
          "account": "user account",
          "streamId": "stream index"
        },
        "returns": {
          "_0": "user.pendings[streamId]"
        }
      },
      "getReleaseTime(uint256,address)": {
        "details": "gets the user's stream reward release time",
        "params": {
          "account": "user account",
          "streamId": "stream index"
        },
        "returns": {
          "_0": "user.releaseTime[streamId]"
        }
      },
      "getRewardPerShare(uint256)": {
        "details": "gets reward per share (RPS) for a stream",
        "params": {
          "streamId": "stream index"
        },
        "returns": {
          "_0": "streams[streamId].rps"
        }
      },
      "getRewardPerShareForUser(uint256,address)": {
        "details": "gets the user's reward per share (RPS) for a stream",
        "params": {
          "streamId": "stream index"
        },
        "returns": {
          "_0": "user.rpsDuringLastWithdrawal[streamId]"
        }
      },
      "getRewardsAmount(uint256,uint256)": {
        "details": "calculates and gets the latest released rewards.",
        "params": {
          "streamId": "stream index"
        },
        "returns": {
          "_0": "rewards released since last update."
        }
      },
      "getRoleAdmin(bytes32)": {
        "details": "Returns the admin role that controls `role`. See {grantRole} and {revokeRole}. To change a role's admin, use {_setRoleAdmin}."
      },
      "getStream(uint256)": {
        "details": "get the stream data",
        "params": {
          "streamId": "the stream index"
        }
      },
      "getStreamClaimableAmount(uint256,address)": {
        "details": "gets the user's stream claimable amount",
        "params": {
          "streamId": "stream index"
        },
        "returns": {
          "_0": "(latesRPS - user.rpsDuringLastWithdrawal) * user.shares"
        }
      },
      "getStreamOwnerClaimableAmount(uint256)": {
        "details": "Stream owner claimable AURORA.",
        "params": {
          "streamId": "the stream index"
        }
      },
      "getStreamSchedule(uint256)": {
        "details": "get the stream schedule data",
        "params": {
          "streamId": "the stream index"
        }
      },
      "getStreamsCount()": {
        "details": "get the streams count",
        "returns": {
          "_0": "streams.length"
        }
      },
      "getTotalAmountOfStakedAurora()": {
        "details": "gets the total amount of staked aurora",
        "returns": {
          "_0": "totalAmountOfStakedAurora + latest reward schedule"
        }
      },
      "getTreasuryBalance(address)": {
        "details": "Get the treasury balance",
        "params": {
          "token": "the token address"
        }
      },
      "getUserShares(address)": {
        "details": "gets the user shares",
        "params": {
          "account": "the user address"
        },
        "returns": {
          "_0": "user shares"
        }
      },
      "getUserTotalDeposit(address)": {
        "details": "gets the total user deposit",
        "params": {
          "account": "the user address"
        },
        "returns": {
          "_0": "user total deposit in (AURORA)"
        }
      },
      "grantRole(bytes32,address)": {
        "details": "Grants `role` to `account`. If `account` had not been already granted `role`, emits a {RoleGranted} event. Requirements: - the caller must have ``role``'s admin role."
      },
      "hasRole(bytes32,address)": {
        "details": "Returns `true` if `account` has been granted `role`."
      },
      "initialize(address,address,uint256[],uint256[],uint256,uint256,address,uint256,uint256)": {
        "details": "initialize the contract and deploys the first stream (AURORA)",
        "params": {
          "_flags": "admin controlled contract flags",
          "_maxWeight": "max stream reward weighting coefficient",
          "_minWeight": "min stream reward weighting coefficient",
          "_treasury": "the Aurora treasury contract address",
          "aurora": "token contract address",
          "scheduleRewards": "init the schedule amounts",
          "scheduleTimes": "init the schedule time",
          "tauAuroraStream": "release time constant per stream (e.g AURORA stream)"
        }
      },
      "moveAllRewardsToPending()": {
        "details": "moves all the user rewards to pending reward."
      },
      "moveRewardsToPending(uint256)": {
        "details": "moves the reward for specific stream Id to pending rewards. It will require a waiting time untill it get released. Users call this in function in order to claim rewards.",
        "params": {
          "streamId": "stream index"
        }
      },
      "proposeStream(address,address,uint256,uint256,uint256[],uint256[],uint256)": {
        "details": "An admin of the staking contract can whitelist (propose) a stream. Whitelisting of the stream provides the option for the stream creator (presumably the issuing party of a specific token) to deposit some ERC-20 tokens on the staking contract and potentially get in return some AURORA tokens. Deposited ERC-20 tokens will be distributed to the stakers over some period of time.",
        "params": {
          "auroraDepositAmount": "Amount of the AURORA deposited by the Admin.",
          "maxDepositAmount": "The upper amount of the tokens that should be deposited by the stream owner",
          "rewardToken": "the address of the ERC-20 tokens to be deposited in the stream",
          "scheduleRewards": "array of reward amounts that are kept on the staking contract at each block height",
          "scheduleTimes": "array of block heights for each schedule time",
          "streamOwner": "only this account would be able to create a stream",
          "tau": "the tau is (pending release period) for this stream (e.g one day)"
        }
      },
      "releaseAuroraRewardsToStreamOwner(uint256)": {
        "details": "the release of AURORA tokens to the stream creator is subjected to the same schedule as rewards. Thus if for a specific moment in time 30% of the rewards are distributed, then it means that 30% of the AURORA deposit can be withdrawn by the stream creator too. called by the stream owner",
        "params": {
          "streamId": "the stream index"
        }
      },
      "removeStream(uint256,address)": {
        "details": "removes a stream (only default admin role)",
        "params": {
          "streamFundReceiver": "receives the rest of the reward tokens in the stream",
          "streamId": "stream index"
        }
      },
      "renounceRole(bytes32,address)": {
        "details": "Revokes `role` from the calling account. Roles are often managed via {grantRole} and {revokeRole}: this function's purpose is to provide a mechanism for accounts to lose their privileges if they are compromised (such as when a trusted device is misplaced). If the calling account had been revoked `role`, emits a {RoleRevoked} event. Requirements: - the caller must be `account`."
      },
      "revokeRole(bytes32,address)": {
        "details": "Revokes `role` from `account`. If `account` had been granted `role`, emits a {RoleRevoked} event. Requirements: - the caller must have ``role``'s admin role."
      },
      "rewardsSchedule(uint256,uint256,uint256)": {
        "details": "calculate the total amount of the released tokens within a period (start & end)",
        "params": {
          "end": "is the end timestamp (e.g block.timestamp .. now)",
          "start": "is the start timestamp within the schedule",
          "streamId": "the stream index"
        },
        "returns": {
          "_0": "amount of the released tokens for that period"
        }
      },
      "stake(uint256)": {
        "details": "a user stakes amount of AURORA tokens The user should approve these tokens to the treasury contract in order to complete the stake.",
        "params": {
          "amount": "is the AURORA amount."
        }
      },
      "stakeOnBehalfOfAnotherUser(address,uint256)": {
        "details": "stakeOnBehalfOfAnotherUser is called for airdropping Aurora users",
        "params": {
          "account": "the account address",
          "amount": "in AURORA tokens WARNING: rewards are not claimed during stake. Airdrop script must claim or only distribute to accounts without stake"
        }
      },
      "stakeOnBehalfOfOtherUsers(address[],uint256[],uint256)": {
        "details": "stakeOnBehalfOfOtherUsers called for airdropping Aurora users",
        "params": {
          "accounts": "the account address",
          "amounts": "in AURORA tokens",
          "batchAmount": "equals to the sum of amounts WARNING: rewards are not claimed during stake. Airdrop script must claim or only distribute to accounts without stake"
        }
      },
      "startEndScheduleIndex(uint256,uint256,uint256)": {
        "details": "gets start index and end index in a stream schedule",
        "params": {
          "end": "end time (in seconds)",
          "start": "start time (in seconds)",
          "streamId": "stream index"
        }
      },
      "supportsInterface(bytes4)": {
        "details": "See {IERC165-supportsInterface}."
      },
      "unstake(uint256)": {
        "details": "unstake amount from user shares value. The rest is re-staked",
        "params": {
          "amount": "to unstake"
        }
      },
      "unstakeAll()": {
        "details": "unstake all the user's shares"
      },
      "updateTreasury(address)": {
        "details": "restricted for the admin only. Admin should pause this contract before changing the treasury address by setting the pause =1 (for changing this variable, call adminPause(1))",
        "params": {
          "_treasury": "treasury contract address for the reward tokens"
        }
      },
      "withdraw(uint256)": {
        "details": "withdraw amount in the pending. User should wait for pending time (tau constant) in order to be able to withdraw.",
        "params": {
          "streamId": "stream index"
        }
      },
      "withdrawAll()": {
        "details": "withdraw all claimed balances which have passed pending periode. This function will reach gas limit with too many streams, so the frontend will allow individual stream withdrawals and disable withdrawAll."
      }
    },
    "title": "JetStakingV1",
    "version": 1
  },
  "userdoc": {
    "kind": "user",
    "methods": {
      "getStream(uint256)": {
        "notice": "this function doesn't return the stream schedule due to some stake slots limitations. To get the stream schedule, refer to getStreamSchedule"
      },
      "initialize(address,address,uint256[],uint256[],uint256,uint256,address,uint256,uint256)": {
        "notice": "By calling this function, the deployer of this contract must make sure that the AURORA reward amount was deposited to the treasury contract before initializing of the default AURORA stream."
      },
      "proposeStream(address,address,uint256,uint256,uint256[],uint256[],uint256)": {
        "notice": "treasury manager must call"
      },
      "updateTreasury(address)": {
        "notice": "updates treasury account"
      }
    },
    "version": 1
  },
  "storageLayout": {
    "storage": [
      {
        "astId": 416,
        "contract": "contracts/JetStakingV1.sol:JetStakingV1",
        "label": "_initialized",
        "offset": 0,
        "slot": "0",
        "type": "t_bool"
      },
      {
        "astId": 419,
        "contract": "contracts/JetStakingV1.sol:JetStakingV1",
        "label": "_initializing",
        "offset": 1,
        "slot": "0",
        "type": "t_bool"
      },
      {
        "astId": 1073,
        "contract": "contracts/JetStakingV1.sol:JetStakingV1",
        "label": "__gap",
        "offset": 0,
        "slot": "1",
        "type": "t_array(t_uint256)50_storage"
      },
      {
        "astId": 1322,
        "contract": "contracts/JetStakingV1.sol:JetStakingV1",
        "label": "__gap",
        "offset": 0,
        "slot": "51",
        "type": "t_array(t_uint256)50_storage"
      },
      {
        "astId": 48,
        "contract": "contracts/JetStakingV1.sol:JetStakingV1",
        "label": "_roles",
        "offset": 0,
        "slot": "101",
        "type": "t_mapping(t_bytes32,t_struct(RoleData)43_storage)"
      },
      {
        "astId": 335,
        "contract": "contracts/JetStakingV1.sol:JetStakingV1",
        "label": "__gap",
        "offset": 0,
        "slot": "102",
        "type": "t_array(t_uint256)49_storage"
      },
      {
        "astId": 1346,
        "contract": "contracts/JetStakingV1.sol:JetStakingV1",
        "label": "admin",
        "offset": 0,
        "slot": "151",
        "type": "t_address"
      },
      {
        "astId": 1348,
        "contract": "contracts/JetStakingV1.sol:JetStakingV1",
        "label": "paused",
        "offset": 0,
        "slot": "152",
        "type": "t_uint256"
      },
      {
        "astId": 1624,
        "contract": "contracts/JetStakingV1.sol:JetStakingV1",
        "label": "totalAmountOfStakedAurora",
        "offset": 0,
        "slot": "153",
        "type": "t_uint256"
      },
      {
        "astId": 1626,
        "contract": "contracts/JetStakingV1.sol:JetStakingV1",
        "label": "touchedAt",
        "offset": 0,
        "slot": "154",
        "type": "t_uint256"
      },
      {
        "astId": 1628,
        "contract": "contracts/JetStakingV1.sol:JetStakingV1",
        "label": "totalAuroraShares",
        "offset": 0,
        "slot": "155",
        "type": "t_uint256"
      },
      {
        "astId": 1630,
        "contract": "contracts/JetStakingV1.sol:JetStakingV1",
        "label": "totalStreamShares",
        "offset": 0,
        "slot": "156",
        "type": "t_uint256"
      },
      {
        "astId": 1632,
        "contract": "contracts/JetStakingV1.sol:JetStakingV1",
        "label": "treasury",
        "offset": 0,
        "slot": "157",
        "type": "t_address"
      },
      {
        "astId": 1634,
        "contract": "contracts/JetStakingV1.sol:JetStakingV1",
        "label": "auroraToken",
        "offset": 0,
        "slot": "158",
        "type": "t_address"
      },
      {
        "astId": 1636,
        "contract": "contracts/JetStakingV1.sol:JetStakingV1",
        "label": "maxWeight",
        "offset": 0,
        "slot": "159",
        "type": "t_uint256"
      },
      {
        "astId": 1638,
        "contract": "contracts/JetStakingV1.sol:JetStakingV1",
        "label": "minWeight",
        "offset": 0,
        "slot": "160",
        "type": "t_uint256"
      },
      {
        "astId": 1697,
        "contract": "contracts/JetStakingV1.sol:JetStakingV1",
        "label": "users",
        "offset": 0,
        "slot": "161",
        "type": "t_mapping(t_address,t_struct(User)1657_storage)"
      },
      {
        "astId": 1701,
        "contract": "contracts/JetStakingV1.sol:JetStakingV1",
        "label": "streams",
        "offset": 0,
        "slot": "162",
        "type": "t_array(t_struct(Stream)1692_storage)dyn_storage"
      }
    ],
    "types": {
      "t_address": {
        "encoding": "inplace",
        "label": "address",
        "numberOfBytes": "20"
      },
      "t_array(t_struct(Stream)1692_storage)dyn_storage": {
        "base": "t_struct(Stream)1692_storage",
        "encoding": "dynamic_array",
        "label": "struct JetStakingV1.Stream[]",
        "numberOfBytes": "32"
      },
      "t_array(t_uint256)49_storage": {
        "base": "t_uint256",
        "encoding": "inplace",
        "label": "uint256[49]",
        "numberOfBytes": "1568"
      },
      "t_array(t_uint256)50_storage": {
        "base": "t_uint256",
        "encoding": "inplace",
        "label": "uint256[50]",
        "numberOfBytes": "1600"
      },
      "t_array(t_uint256)dyn_storage": {
        "base": "t_uint256",
        "encoding": "dynamic_array",
        "label": "uint256[]",
        "numberOfBytes": "32"
      },
      "t_bool": {
        "encoding": "inplace",
        "label": "bool",
        "numberOfBytes": "1"
      },
      "t_bytes32": {
        "encoding": "inplace",
        "label": "bytes32",
        "numberOfBytes": "32"
      },
      "t_mapping(t_address,t_bool)": {
        "encoding": "mapping",
        "key": "t_address",
        "label": "mapping(address => bool)",
        "numberOfBytes": "32",
        "value": "t_bool"
      },
      "t_mapping(t_address,t_struct(User)1657_storage)": {
        "encoding": "mapping",
        "key": "t_address",
        "label": "mapping(address => struct JetStakingV1.User)",
        "numberOfBytes": "32",
        "value": "t_struct(User)1657_storage"
      },
      "t_mapping(t_bytes32,t_struct(RoleData)43_storage)": {
        "encoding": "mapping",
        "key": "t_bytes32",
        "label": "mapping(bytes32 => struct AccessControlUpgradeable.RoleData)",
        "numberOfBytes": "32",
        "value": "t_struct(RoleData)43_storage"
      },
      "t_mapping(t_uint256,t_uint256)": {
        "encoding": "mapping",
        "key": "t_uint256",
        "label": "mapping(uint256 => uint256)",
        "numberOfBytes": "32",
        "value": "t_uint256"
      },
      "t_struct(RoleData)43_storage": {
        "encoding": "inplace",
        "label": "struct AccessControlUpgradeable.RoleData",
        "members": [
          {
            "astId": 40,
            "contract": "contracts/JetStakingV1.sol:JetStakingV1",
            "label": "members",
            "offset": 0,
            "slot": "0",
            "type": "t_mapping(t_address,t_bool)"
          },
          {
            "astId": 42,
            "contract": "contracts/JetStakingV1.sol:JetStakingV1",
            "label": "adminRole",
            "offset": 0,
            "slot": "1",
            "type": "t_bytes32"
          }
        ],
        "numberOfBytes": "64"
      },
      "t_struct(Schedule)1664_storage": {
        "encoding": "inplace",
        "label": "struct JetStakingV1.Schedule",
        "members": [
          {
            "astId": 1660,
            "contract": "contracts/JetStakingV1.sol:JetStakingV1",
            "label": "time",
            "offset": 0,
            "slot": "0",
            "type": "t_array(t_uint256)dyn_storage"
          },
          {
            "astId": 1663,
            "contract": "contracts/JetStakingV1.sol:JetStakingV1",
            "label": "reward",
            "offset": 0,
            "slot": "1",
            "type": "t_array(t_uint256)dyn_storage"
          }
        ],
        "numberOfBytes": "64"
      },
      "t_struct(Stream)1692_storage": {
        "encoding": "inplace",
        "label": "struct JetStakingV1.Stream",
        "members": [
          {
            "astId": 1666,
            "contract": "contracts/JetStakingV1.sol:JetStakingV1",
            "label": "owner",
            "offset": 0,
            "slot": "0",
            "type": "t_address"
          },
          {
            "astId": 1668,
            "contract": "contracts/JetStakingV1.sol:JetStakingV1",
            "label": "rewardToken",
            "offset": 0,
            "slot": "1",
            "type": "t_address"
          },
          {
            "astId": 1670,
            "contract": "contracts/JetStakingV1.sol:JetStakingV1",
            "label": "auroraDepositAmount",
            "offset": 0,
            "slot": "2",
            "type": "t_uint256"
          },
          {
            "astId": 1672,
            "contract": "contracts/JetStakingV1.sol:JetStakingV1",
            "label": "auroraClaimedAmount",
            "offset": 0,
            "slot": "3",
            "type": "t_uint256"
          },
          {
            "astId": 1674,
            "contract": "contracts/JetStakingV1.sol:JetStakingV1",
            "label": "rewardDepositAmount",
            "offset": 0,
            "slot": "4",
            "type": "t_uint256"
          },
          {
            "astId": 1676,
            "contract": "contracts/JetStakingV1.sol:JetStakingV1",
            "label": "rewardClaimedAmount",
            "offset": 0,
            "slot": "5",
            "type": "t_uint256"
          },
          {
            "astId": 1678,
            "contract": "contracts/JetStakingV1.sol:JetStakingV1",
            "label": "maxDepositAmount",
            "offset": 0,
            "slot": "6",
            "type": "t_uint256"
          },
          {
            "astId": 1680,
            "contract": "contracts/JetStakingV1.sol:JetStakingV1",
            "label": "lastTimeOwnerClaimed",
            "offset": 0,
            "slot": "7",
            "type": "t_uint256"
          },
          {
            "astId": 1682,
            "contract": "contracts/JetStakingV1.sol:JetStakingV1",
            "label": "tau",
            "offset": 0,
            "slot": "8",
            "type": "t_uint256"
          },
          {
            "astId": 1684,
            "contract": "contracts/JetStakingV1.sol:JetStakingV1",
            "label": "rps",
            "offset": 0,
            "slot": "9",
            "type": "t_uint256"
          },
          {
            "astId": 1687,
            "contract": "contracts/JetStakingV1.sol:JetStakingV1",
            "label": "schedule",
            "offset": 0,
            "slot": "10",
            "type": "t_struct(Schedule)1664_storage"
          },
          {
            "astId": 1689,
            "contract": "contracts/JetStakingV1.sol:JetStakingV1",
            "label": "isProposed",
            "offset": 0,
            "slot": "12",
            "type": "t_bool"
          },
          {
            "astId": 1691,
            "contract": "contracts/JetStakingV1.sol:JetStakingV1",
            "label": "isActive",
            "offset": 1,
            "slot": "12",
            "type": "t_bool"
          }
        ],
        "numberOfBytes": "416"
      },
      "t_struct(User)1657_storage": {
        "encoding": "inplace",
        "label": "struct JetStakingV1.User",
        "members": [
          {
            "astId": 1640,
            "contract": "contracts/JetStakingV1.sol:JetStakingV1",
            "label": "deposit",
            "offset": 0,
            "slot": "0",
            "type": "t_uint256"
          },
          {
            "astId": 1642,
            "contract": "contracts/JetStakingV1.sol:JetStakingV1",
            "label": "auroraShares",
            "offset": 0,
            "slot": "1",
            "type": "t_uint256"
          },
          {
            "astId": 1644,
            "contract": "contracts/JetStakingV1.sol:JetStakingV1",
            "label": "streamShares",
            "offset": 0,
            "slot": "2",
            "type": "t_uint256"
          },
          {
            "astId": 1648,
            "contract": "contracts/JetStakingV1.sol:JetStakingV1",
            "label": "pendings",
            "offset": 0,
            "slot": "3",
            "type": "t_mapping(t_uint256,t_uint256)"
          },
          {
            "astId": 1652,
            "contract": "contracts/JetStakingV1.sol:JetStakingV1",
            "label": "releaseTime",
            "offset": 0,
            "slot": "4",
            "type": "t_mapping(t_uint256,t_uint256)"
          },
          {
            "astId": 1656,
            "contract": "contracts/JetStakingV1.sol:JetStakingV1",
            "label": "rpsDuringLastWithdrawal",
            "offset": 0,
            "slot": "5",
            "type": "t_mapping(t_uint256,t_uint256)"
          }
        ],
        "numberOfBytes": "192"
      },
      "t_uint256": {
        "encoding": "inplace",
        "label": "uint256",
        "numberOfBytes": "32"
      }
    }
  }
}