{
  "address": "0xDe1fA783F1f66AC293Cb1e8430d1ec52FEB6D1ee",
  "abi": [
    {
      "anonymous": false,
      "inputs": [
        {
          "indexed": true,
          "internalType": "address",
          "name": "manager",
          "type": "address"
        },
        {
          "indexed": true,
          "internalType": "address",
          "name": "addedBy",
          "type": "address"
        },
        {
          "indexed": false,
          "internalType": "uint256",
          "name": "timestamp",
          "type": "uint256"
        }
      ],
      "name": "ManagerAdded",
      "type": "event"
    },
    {
      "anonymous": false,
      "inputs": [
        {
          "indexed": true,
          "internalType": "address",
          "name": "manager",
          "type": "address"
        },
        {
          "indexed": true,
          "internalType": "address",
          "name": "removedBy",
          "type": "address"
        },
        {
          "indexed": false,
          "internalType": "uint256",
          "name": "timestamp",
          "type": "uint256"
        }
      ],
      "name": "ManagerRemoved",
      "type": "event"
    },
    {
      "anonymous": false,
      "inputs": [
        {
          "indexed": false,
          "internalType": "address",
          "name": "oldAdmin",
          "type": "address"
        },
        {
          "indexed": false,
          "internalType": "address",
          "name": "newAdmin",
          "type": "address"
        }
      ],
      "name": "OwnershipTransferred",
      "type": "event"
    },
    {
      "anonymous": false,
      "inputs": [
        {
          "indexed": true,
          "internalType": "bytes32",
          "name": "role",
          "type": "bytes32"
        },
        {
          "indexed": true,
          "internalType": "bytes32",
          "name": "previousAdminRole",
          "type": "bytes32"
        },
        {
          "indexed": true,
          "internalType": "bytes32",
          "name": "newAdminRole",
          "type": "bytes32"
        }
      ],
      "name": "RoleAdminChanged",
      "type": "event"
    },
    {
      "anonymous": false,
      "inputs": [
        {
          "indexed": true,
          "internalType": "bytes32",
          "name": "role",
          "type": "bytes32"
        },
        {
          "indexed": true,
          "internalType": "address",
          "name": "account",
          "type": "address"
        },
        {
          "indexed": true,
          "internalType": "address",
          "name": "sender",
          "type": "address"
        }
      ],
      "name": "RoleGranted",
      "type": "event"
    },
    {
      "anonymous": false,
      "inputs": [
        {
          "indexed": true,
          "internalType": "bytes32",
          "name": "role",
          "type": "bytes32"
        },
        {
          "indexed": true,
          "internalType": "address",
          "name": "account",
          "type": "address"
        },
        {
          "indexed": true,
          "internalType": "address",
          "name": "sender",
          "type": "address"
        }
      ],
      "name": "RoleRevoked",
      "type": "event"
    },
    {
      "anonymous": false,
      "inputs": [
        {
          "indexed": true,
          "internalType": "address",
          "name": "token",
          "type": "address"
        },
        {
          "indexed": true,
          "internalType": "address",
          "name": "addedBy",
          "type": "address"
        },
        {
          "indexed": false,
          "internalType": "uint256",
          "name": "timestamp",
          "type": "uint256"
        }
      ],
      "name": "TokenAdded",
      "type": "event"
    },
    {
      "anonymous": false,
      "inputs": [
        {
          "indexed": true,
          "internalType": "address",
          "name": "token",
          "type": "address"
        },
        {
          "indexed": true,
          "internalType": "address",
          "name": "addedBy",
          "type": "address"
        },
        {
          "indexed": false,
          "internalType": "uint256",
          "name": "timestamp",
          "type": "uint256"
        }
      ],
      "name": "TokenRemoved",
      "type": "event"
    },
    {
      "inputs": [],
      "name": "AIRDROP_ROLE",
      "outputs": [
        {
          "internalType": "bytes32",
          "name": "",
          "type": "bytes32"
        }
      ],
      "stateMutability": "view",
      "type": "function"
    },
    {
      "inputs": [],
      "name": "DEFAULT_ADMIN_ROLE",
      "outputs": [
        {
          "internalType": "bytes32",
          "name": "",
          "type": "bytes32"
        }
      ],
      "stateMutability": "view",
      "type": "function"
    },
    {
      "inputs": [],
      "name": "PAUSE_ROLE",
      "outputs": [
        {
          "internalType": "bytes32",
          "name": "",
          "type": "bytes32"
        }
      ],
      "stateMutability": "view",
      "type": "function"
    },
    {
      "inputs": [
        {
          "internalType": "uint256",
          "name": "_flags",
          "type": "uint256"
        }
      ],
      "name": "__AdminControlled_init",
      "outputs": [],
      "stateMutability": "nonpayable",
      "type": "function"
    },
    {
      "inputs": [
        {
          "internalType": "address",
          "name": "_manager",
          "type": "address"
        }
      ],
      "name": "addManager",
      "outputs": [],
      "stateMutability": "nonpayable",
      "type": "function"
    },
    {
      "inputs": [
        {
          "internalType": "address",
          "name": "_token",
          "type": "address"
        }
      ],
      "name": "addSupportedToken",
      "outputs": [],
      "stateMutability": "nonpayable",
      "type": "function"
    },
    {
      "inputs": [],
      "name": "admin",
      "outputs": [
        {
          "internalType": "address",
          "name": "",
          "type": "address"
        }
      ],
      "stateMutability": "view",
      "type": "function"
    },
    {
      "inputs": [
        {
          "internalType": "address",
          "name": "target",
          "type": "address"
        },
        {
          "internalType": "bytes",
          "name": "data",
          "type": "bytes"
        }
      ],
      "name": "adminDelegatecall",
      "outputs": [
        {
          "internalType": "bytes",
          "name": "",
          "type": "bytes"
        }
      ],
      "stateMutability": "payable",
      "type": "function"
    },
    {
      "inputs": [
        {
          "internalType": "uint256",
          "name": "flags",
          "type": "uint256"
        }
      ],
      "name": "adminPause",
      "outputs": [],
      "stateMutability": "nonpayable",
      "type": "function"
    },
    {
      "inputs": [],
      "name": "adminReceiveEth",
      "outputs": [],
      "stateMutability": "payable",
      "type": "function"
    },
    {
      "inputs": [
        {
          "internalType": "address payable",
          "name": "destination",
          "type": "address"
        },
        {
          "internalType": "uint256",
          "name": "amount",
          "type": "uint256"
        }
      ],
      "name": "adminSendEth",
      "outputs": [],
      "stateMutability": "nonpayable",
      "type": "function"
    },
    {
      "inputs": [
        {
          "internalType": "uint256",
          "name": "key",
          "type": "uint256"
        },
        {
          "internalType": "uint256",
          "name": "value",
          "type": "uint256"
        }
      ],
      "name": "adminSstore",
      "outputs": [],
      "stateMutability": "nonpayable",
      "type": "function"
    },
    {
      "inputs": [
        {
          "internalType": "uint256",
          "name": "key",
          "type": "uint256"
        },
        {
          "internalType": "uint256",
          "name": "value",
          "type": "uint256"
        },
        {
          "internalType": "uint256",
          "name": "mask",
          "type": "uint256"
        }
      ],
      "name": "adminSstoreWithMask",
      "outputs": [],
      "stateMutability": "nonpayable",
      "type": "function"
    },
    {
      "inputs": [
        {
          "internalType": "address[]",
          "name": "_supportedTokens",
          "type": "address[]"
        },
        {
          "internalType": "uint256[]",
          "name": "_amounts",
          "type": "uint256[]"
        },
        {
          "internalType": "address",
          "name": "_operator",
          "type": "address"
        }
      ],
      "name": "approveTokensTo",
      "outputs": [],
      "stateMutability": "nonpayable",
      "type": "function"
    },
    {
      "inputs": [
        {
          "internalType": "bytes32",
          "name": "role",
          "type": "bytes32"
        }
      ],
      "name": "getRoleAdmin",
      "outputs": [
        {
          "internalType": "bytes32",
          "name": "",
          "type": "bytes32"
        }
      ],
      "stateMutability": "view",
      "type": "function"
    },
    {
      "inputs": [
        {
          "internalType": "bytes32",
          "name": "role",
          "type": "bytes32"
        },
        {
          "internalType": "address",
          "name": "account",
          "type": "address"
        }
      ],
      "name": "grantRole",
      "outputs": [],
      "stateMutability": "nonpayable",
      "type": "function"
    },
    {
      "inputs": [
        {
          "internalType": "bytes32",
          "name": "role",
          "type": "bytes32"
        },
        {
          "internalType": "address",
          "name": "account",
          "type": "address"
        }
      ],
      "name": "hasRole",
      "outputs": [
        {
          "internalType": "bool",
          "name": "",
          "type": "bool"
        }
      ],
      "stateMutability": "view",
      "type": "function"
    },
    {
      "inputs": [
        {
          "internalType": "address[]",
          "name": "_managers",
          "type": "address[]"
        },
        {
          "internalType": "address[]",
          "name": "_supportedTokens",
          "type": "address[]"
        },
        {
          "internalType": "uint256",
          "name": "_flags",
          "type": "uint256"
        }
      ],
      "name": "initialize",
      "outputs": [],
      "stateMutability": "nonpayable",
      "type": "function"
    },
    {
      "inputs": [
        {
          "internalType": "address",
          "name": "",
          "type": "address"
        }
      ],
      "name": "isManager",
      "outputs": [
        {
          "internalType": "bool",
          "name": "",
          "type": "bool"
        }
      ],
      "stateMutability": "view",
      "type": "function"
    },
    {
      "inputs": [
        {
          "internalType": "address",
          "name": "",
          "type": "address"
        }
      ],
      "name": "isSupportedToken",
      "outputs": [
        {
          "internalType": "bool",
          "name": "",
          "type": "bool"
        }
      ],
      "stateMutability": "view",
      "type": "function"
    },
    {
      "inputs": [],
      "name": "paused",
      "outputs": [
        {
          "internalType": "uint256",
          "name": "",
          "type": "uint256"
        }
      ],
      "stateMutability": "view",
      "type": "function"
    },
    {
      "inputs": [
        {
          "internalType": "address",
          "name": "_user",
          "type": "address"
        },
        {
          "internalType": "address",
          "name": "_token",
          "type": "address"
        },
        {
          "internalType": "uint256",
          "name": "_amount",
          "type": "uint256"
        }
      ],
      "name": "payRewards",
      "outputs": [],
      "stateMutability": "nonpayable",
      "type": "function"
    },
    {
      "inputs": [
        {
          "internalType": "address",
          "name": "_manager",
          "type": "address"
        }
      ],
      "name": "removeManager",
      "outputs": [],
      "stateMutability": "nonpayable",
      "type": "function"
    },
    {
      "inputs": [
        {
          "internalType": "address",
          "name": "_token",
          "type": "address"
        }
      ],
      "name": "removeSupportedToken",
      "outputs": [],
      "stateMutability": "nonpayable",
      "type": "function"
    },
    {
      "inputs": [
        {
          "internalType": "bytes32",
          "name": "role",
          "type": "bytes32"
        },
        {
          "internalType": "address",
          "name": "account",
          "type": "address"
        }
      ],
      "name": "renounceRole",
      "outputs": [],
      "stateMutability": "nonpayable",
      "type": "function"
    },
    {
      "inputs": [
        {
          "internalType": "bytes32",
          "name": "role",
          "type": "bytes32"
        },
        {
          "internalType": "address",
          "name": "account",
          "type": "address"
        }
      ],
      "name": "revokeRole",
      "outputs": [],
      "stateMutability": "nonpayable",
      "type": "function"
    },
    {
      "inputs": [
        {
          "internalType": "bytes4",
          "name": "interfaceId",
          "type": "bytes4"
        }
      ],
      "name": "supportsInterface",
      "outputs": [
        {
          "internalType": "bool",
          "name": "",
          "type": "bool"
        }
      ],
      "stateMutability": "view",
      "type": "function"
    },
    {
      "inputs": [
        {
          "internalType": "address",
          "name": "newAdmin",
          "type": "address"
        }
      ],
      "name": "transferOwnership",
      "outputs": [],
      "stateMutability": "nonpayable",
      "type": "function"
    }
  ],
  "transactionHash": "0xbd24adf07c57094cd9c7b4dbabd3515a285c8637dccf7d99fc6f7e6850e3b42c",
  "args": [],
  "solcInputHash": "138c650b26490304da648ab149afc608",
  "bytecode": "0x60a06040523060805234801561001457600080fd5b50608051611ef161003060003960006112f10152611ef16000f3fe6080604052600436106101475760003560e01c806301ffc9a71461014c5780631e0fbfa214610181578063240028e8146101b1578063248a9ca3146101e15780632692c59f146102015780632d06177a146102235780632f2ff15d1461024357806336568abe14610263578063389ed26714610283578063530208f2146102a55780635c975abb146102c55780636c4624c3146102db5780636d69fcaf146102fb578063763191901461031b57806391d148541461033b578063a217fddf1461035b578063a54b868314610370578063ac18de4314610390578063b8e9744c146103b0578063be831a2e146103d0578063d547741f146103f0578063da0c1a8814610410578063f2fde38b14610430578063f3ae241514610450578063f48ab4e014610221578063f66c002714610480578063f851a440146104a0578063fbab9740146104d8575b600080fd5b34801561015857600080fd5b5061016c61016736600461178d565b6104f8565b60405190151581526020015b60405180910390f35b34801561018d57600080fd5b506101a3600080516020611e9c83398151915281565b604051908152602001610178565b3480156101bd57600080fd5b5061016c6101cc3660046117df565b60996020526000908152604090205460ff1681565b3480156101ed57600080fd5b506101a36101fc3660046117fc565b61052f565b34801561020d57600080fd5b5061022161021c3660046117fc565b610544565b005b34801561022f57600080fd5b5061022161023e3660046117df565b610563565b34801561024f57600080fd5b5061022161025e366004611815565b610660565b34801561026f57600080fd5b5061022161027e366004611815565b610682565b34801561028f57600080fd5b506101a3600080516020611e7c83398151915281565b3480156102b157600080fd5b506102216102c0366004611845565b610700565b3480156102d157600080fd5b506101a360985481565b3480156102e757600080fd5b506102216102f6366004611871565b610748565b34801561030757600080fd5b506102216103163660046117df565b610760565b34801561032757600080fd5b506102216103363660046117df565b610847565b34801561034757600080fd5b5061016c610356366004611815565b61092a565b34801561036757600080fd5b506101a3600081565b34801561037c57600080fd5b5061022161038b36600461197a565b610955565b34801561039c57600080fd5b506102216103ab3660046117df565b610a43565b6103c36103be366004611a44565b610b28565b6040516101789190611b43565b3480156103dc57600080fd5b506102216103eb366004611b56565b610bb1565b3480156103fc57600080fd5b5061022161040b366004611815565b610bc2565b34801561041c57600080fd5b5061022161042b366004611b78565b610bdf565b34801561043c57600080fd5b5061022161044b3660046117df565b610cb7565b34801561045c57600080fd5b5061016c61046b3660046117df565b609a6020526000908152604090205460ff1681565b34801561048c57600080fd5b5061022161049b366004611bb9565b610dce565b3480156104ac57600080fd5b506097546104c0906001600160a01b031681565b6040516001600160a01b039091168152602001610178565b3480156104e457600080fd5b506102216104f33660046117fc565b611007565b60006001600160e01b03198216637965db0b60e01b148061052957506301ffc9a760e01b6001600160e01b03198316145b92915050565b60009081526065602052604090206001015490565b600080516020611e7c83398151915261055d81336110c1565b50609855565b336000908152609a602052604090205460ff1661059b5760405162461bcd60e51b815260040161059290611c25565b60405180910390fd5b6001600160a01b0381166000908152609a602052604090205460ff16156105fd5760405162461bcd60e51b81526020600482015260166024820152754d414e414745525f414c52454144595f45584953545360501b6044820152606401610592565b6001600160a01b0381166000818152609a602052604090819020805460ff19166001179055513391907f3243a12fe9b9e120fc020a8816e3bc9af8f3eb4ec3ebd9ed10b6bf04d839625e906106559042815260200190565b60405180910390a350565b6106698261052f565b61067381336110c1565b61067d8383611125565b505050565b6001600160a01b03811633146106f25760405162461bcd60e51b815260206004820152602f60248201527f416363657373436f6e74726f6c3a2063616e206f6e6c792072656e6f756e636560448201526e103937b632b9903337b91039b2b63360891b6064820152608401610592565b6106fc82826111ab565b5050565b600061070c81336110c1565b6040516001600160a01b0384169083156108fc029084906000818181858888f19350505050158015610742573d6000803e3d6000fd5b50505050565b600061075481336110c1565b50825491821816189055565b336000908152609a602052604090205460ff1661078f5760405162461bcd60e51b815260040161059290611c25565b6001600160a01b03811660009081526099602052604090205460ff16156107ef5760405162461bcd60e51b8152602060048201526014602482015273544f4b454e5f414c52454144595f45584953545360601b6044820152606401610592565b6001600160a01b03811660008181526099602052604090819020805460ff19166001179055513391907f7156d0b8d9ed8d1117b97d76a15a304bad2749fc23251c2c7ed65a0698952850906106559042815260200190565b336000908152609a602052604090205460ff166108765760405162461bcd60e51b815260040161059290611c25565b6001600160a01b03811660009081526099602052604090205460ff166108d55760405162461bcd60e51b81526020600482015260146024820152731513d2d15397d113d154d7d393d517d1561254d560621b6044820152606401610592565b6001600160a01b03811660008181526099602052604090819020805460ff19169055513391907feddce3117927831e55f862ee4b16c60ba431908fc8404f5a2d40c2ac163c3b14906106559042815260200190565b60009182526065602090815260408084206001600160a01b0393909316845291905290205460ff1690565b336000908152609a602052604090205460ff166109845760405162461bcd60e51b815260040161059290611c25565b82518251146109d55760405162461bcd60e51b815260206004820181905260248201527f494e56414c49445f415050524f56455f544f4b454e5f504152414d45544552536044820152606401610592565b60005b835181101561074257610a31828483815181106109f7576109f7611c54565b6020026020010151868481518110610a1157610a11611c54565b60200260200101516001600160a01b03166112129092919063ffffffff16565b80610a3b81611c80565b9150506109d8565b336000908152609a602052604090205460ff16610a725760405162461bcd60e51b815260040161059290611c25565b6001600160a01b0381166000908152609a602052604090205460ff16610ad35760405162461bcd60e51b81526020600482015260166024820152751350539051d15497d113d154d7d393d517d1561254d560521b6044820152606401610592565b6001600160a01b0381166000818152609a602052604090819020805460ff19169055513391907f74394ebd318b134cbd40fd41cfde0db24c32aa32de82b114ccabcc28b3616dfd906106559042815260200190565b60606000610b3681336110c1565b610b3e6112e6565b600080856001600160a01b031685604051610b599190611c9b565b600060405180830381855af49150503d8060008114610b94576040519150601f19603f3d011682016040523d82523d6000602084013e610b99565b606091505b509150915081610ba857600080fd5b95945050505050565b6000610bbd81336110c1565b509055565b610bcb8261052f565b610bd581336110c1565b61067d83836111ab565b6001806098541660001480610bfa5750610bfa60003361092a565b610c2f5760405162461bcd60e51b815260206004820152600660248201526514185d5cd95960d21b6044820152606401610592565b6000610c3b81336110c1565b6001600160a01b03841660009081526099602052604090205460ff16610c9c5760405162461bcd60e51b81526020600482015260166024820152751513d2d15397d254d7d393d517d4d5541413d495115160521b6044820152606401610592565b610cb06001600160a01b038516868561131c565b5050505050565b6000610cc381336110c1565b6001600160a01b038216610d0b5760405162461bcd60e51b815260206004820152600f60248201526e494e56414c49445f4144445245535360881b6044820152606401610592565b6097546001600160a01b0383811691161415610d5e5760405162461bcd60e51b815260206004820152601260248201527153414d455f41444d494e5f4144445245535360701b6044820152606401610592565b610d69600083611125565b609780546001600160a01b0319166001600160a01b038416179055610d8f6000336111ab565b7f8be0079c531659141344cd1fd0a4f28419497f9722a3daafe3b4186f6b6457e03383604051610dc0929190611cb7565b60405180910390a15050565b565b600054610100900460ff16610de95760005460ff1615610ded565b303b155b610e095760405162461bcd60e51b815260040161059290611cd1565b600054610100900460ff16158015610e2b576000805461ffff19166101011790555b60005b8451811015610f095760006001600160a01b0316858281518110610e5457610e54611c54565b60200260200101516001600160a01b03161415610ead5760405162461bcd60e51b8152602060048201526017602482015276494e56414c49445f4d414e414745525f4144445245535360481b6044820152606401610592565b6001609a6000878481518110610ec557610ec5611c54565b6020908102919091018101516001600160a01b03168252810191909152604001600020805460ff191691151591909117905580610f0181611c80565b915050610e2e565b5060005b8351811015610fe65760006001600160a01b0316848281518110610f3357610f33611c54565b60200260200101516001600160a01b03161415610f8a5760405162461bcd60e51b8152602060048201526015602482015274494e56414c49445f544f4b454e5f4144445245535360581b6044820152606401610592565b600160996000868481518110610fa257610fa2611c54565b6020908102919091018101516001600160a01b03168252810191909152604001600020805460ff191691151591909117905580610fde81611c80565b915050610f0d565b50610ff082611007565b8015610742576000805461ff001916905550505050565b600054610100900460ff166110225760005460ff1615611026565b303b155b6110425760405162461bcd60e51b815260040161059290611cd1565b600054610100900460ff16158015611064576000805461ffff19166101011790555b61106c61133b565b609882905561107c600033611125565b611094600080516020611e7c83398151915233611125565b6110ac600080516020611e9c83398151915233611125565b80156106fc576000805461ff00191690555050565b6110cb828261092a565b6106fc576110e3816001600160a01b0316601461137a565b6110ee83602061137a565b6040516020016110ff929190611d1f565b60408051601f198184030181529082905262461bcd60e51b825261059291600401611b43565b61112f828261092a565b6106fc5760008281526065602090815260408083206001600160a01b03851684529091529020805460ff191660011790556111673390565b6001600160a01b0316816001600160a01b0316837f2f8788117e7eff1d82e926ec794901d17c78024a50270940304540a733656f0d60405160405180910390a45050565b6111b5828261092a565b156106fc5760008281526065602090815260408083206001600160a01b0385168085529252808320805460ff1916905551339285917ff6391f5c32d9c69d2a47ea670b442974b53935d1edc7fd64eb21e047a839171b9190a45050565b600081846001600160a01b031663dd62ed3e30866040518363ffffffff1660e01b8152600401611243929190611cb7565b602060405180830381865afa158015611260573d6000803e3d6000fd5b505050506040513d601f19601f820116820180604052508101906112849190611d8e565b61128e9190611da7565b90506107428463095ea7b360e01b85846040516024016112af929190611dbf565b60408051601f198184030181529190526020810180516001600160e01b03166001600160e01b03199093169290921790915261151c565b306001600160a01b037f0000000000000000000000000000000000000000000000000000000000000000161415610dcc57600080fd5b61067d8363a9059cbb60e01b84846040516024016112af929190611dbf565b600054610100900460ff166113625760405162461bcd60e51b815260040161059290611dd8565b61136a6115ee565b6113726115ee565b610dcc6115ee565b60606000611389836002611e23565b611394906002611da7565b6001600160401b038111156113ab576113ab61189d565b6040519080825280601f01601f1916602001820160405280156113d5576020820181803683370190505b509050600360fc1b816000815181106113f0576113f0611c54565b60200101906001600160f81b031916908160001a905350600f60fb1b8160018151811061141f5761141f611c54565b60200101906001600160f81b031916908160001a9053506000611443846002611e23565b61144e906001611da7565b90505b60018111156114c6576f181899199a1a9b1b9c1cb0b131b232b360811b85600f166010811061148257611482611c54565b1a60f81b82828151811061149857611498611c54565b60200101906001600160f81b031916908160001a90535060049490941c936114bf81611e42565b9050611451565b5083156115155760405162461bcd60e51b815260206004820181905260248201527f537472696e67733a20686578206c656e67746820696e73756666696369656e746044820152606401610592565b9392505050565b6000611571826040518060400160405280602081526020017f5361666545524332303a206c6f772d6c6576656c2063616c6c206661696c6564815250856001600160a01b03166116159092919063ffffffff16565b80519091501561067d578080602001905181019061158f9190611e59565b61067d5760405162461bcd60e51b815260206004820152602a60248201527f5361666545524332303a204552433230206f7065726174696f6e20646964206e6044820152691bdd081cdd58d8d9595960b21b6064820152608401610592565b600054610100900460ff16610dcc5760405162461bcd60e51b815260040161059290611dd8565b6060611624848460008561162c565b949350505050565b60608247101561168d5760405162461bcd60e51b815260206004820152602660248201527f416464726573733a20696e73756666696369656e742062616c616e636520666f6044820152651c8818d85b1b60d21b6064820152608401610592565b843b6116db5760405162461bcd60e51b815260206004820152601d60248201527f416464726573733a2063616c6c20746f206e6f6e2d636f6e74726163740000006044820152606401610592565b600080866001600160a01b031685876040516116f79190611c9b565b60006040518083038185875af1925050503d8060008114611734576040519150601f19603f3d011682016040523d82523d6000602084013e611739565b606091505b5091509150611749828286611754565b979650505050505050565b60608315611763575081611515565b8251156117735782518084602001fd5b8160405162461bcd60e51b81526004016105929190611b43565b60006020828403121561179f57600080fd5b81356001600160e01b03198116811461151557600080fd5b6001600160a01b03811681146117cc57600080fd5b50565b80356117da816117b7565b919050565b6000602082840312156117f157600080fd5b8135611515816117b7565b60006020828403121561180e57600080fd5b5035919050565b6000806040838503121561182857600080fd5b82359150602083013561183a816117b7565b809150509250929050565b6000806040838503121561185857600080fd5b8235611863816117b7565b946020939093013593505050565b60008060006060848603121561188657600080fd5b505081359360208301359350604090920135919050565b634e487b7160e01b600052604160045260246000fd5b604051601f8201601f191681016001600160401b03811182821017156118db576118db61189d565b604052919050565b60006001600160401b038211156118fc576118fc61189d565b5060051b60200190565b600082601f83011261191757600080fd5b8135602061192c611927836118e3565b6118b3565b82815260059290921b8401810191818101908684111561194b57600080fd5b8286015b8481101561196f578035611962816117b7565b835291830191830161194f565b509695505050505050565b60008060006060848603121561198f57600080fd5b83356001600160401b03808211156119a657600080fd5b6119b287838801611906565b94506020915081860135818111156119c957600080fd5b86019050601f810187136119dc57600080fd5b80356119ea611927826118e3565b81815260059190911b82018301908381019089831115611a0957600080fd5b928401925b82841015611a2757833582529284019290840190611a0e565b8096505050505050611a3b604085016117cf565b90509250925092565b60008060408385031215611a5757600080fd5b8235611a62816117b7565b91506020838101356001600160401b0380821115611a7f57600080fd5b818601915086601f830112611a9357600080fd5b813581811115611aa557611aa561189d565b611ab7601f8201601f191685016118b3565b91508082528784828501011115611acd57600080fd5b80848401858401376000848284010152508093505050509250929050565b60005b83811015611b06578181015183820152602001611aee565b838111156107425750506000910152565b60008151808452611b2f816020860160208601611aeb565b601f01601f19169290920160200192915050565b6020815260006115156020830184611b17565b60008060408385031215611b6957600080fd5b50508035926020909101359150565b600080600060608486031215611b8d57600080fd5b8335611b98816117b7565b92506020840135611ba8816117b7565b929592945050506040919091013590565b600080600060608486031215611bce57600080fd5b83356001600160401b0380821115611be557600080fd5b611bf187838801611906565b94506020860135915080821115611c0757600080fd5b50611c1486828701611906565b925050604084013590509250925092565b60208082526015908201527429a2a72222a92fa4a9afa727aa2fa6a0a720a3a2a960591b604082015260600190565b634e487b7160e01b600052603260045260246000fd5b634e487b7160e01b600052601160045260246000fd5b6000600019821415611c9457611c94611c6a565b5060010190565b60008251611cad818460208701611aeb565b9190910192915050565b6001600160a01b0392831681529116602082015260400190565b6020808252602e908201527f496e697469616c697a61626c653a20636f6e747261637420697320616c72656160408201526d191e481a5b9a5d1a585b1a5e995960921b606082015260800190565b76020b1b1b2b9b9a1b7b73a3937b61d1030b1b1b7bab73a1604d1b815260008351611d51816017850160208801611aeb565b7001034b99036b4b9b9b4b733903937b6329607d1b6017918401918201528351611d82816028840160208801611aeb565b01602801949350505050565b600060208284031215611da057600080fd5b5051919050565b60008219821115611dba57611dba611c6a565b500190565b6001600160a01b03929092168252602082015260400190565b6020808252602b908201527f496e697469616c697a61626c653a20636f6e7472616374206973206e6f74206960408201526a6e697469616c697a696e6760a81b606082015260800190565b6000816000190483118215151615611e3d57611e3d611c6a565b500290565b600081611e5157611e51611c6a565b506000190190565b600060208284031215611e6b57600080fd5b8151801515811461151557600080fdfe139c2898040ef16910dc9f44dc697df79363da767d8bc92f2e310312b816e46d3a2f235c9daaf33349d300aadff2f15078a89df81bcfdd45ba11c8f816bddc6fa2646970667358221220e846215b33da3843bf7204afd5388958c4940a615cb05966b34eab58796816c064736f6c634300080a0033",
  "devdoc": {
    "kind": "dev",
    "methods": {
      "addManager(address)": {
        "params": {
          "_manager": "any ethereum account"
        }
      },
      "addSupportedToken(address)": {
        "params": {
          "_token": "ERC20 token address"
        }
      },
      "adminDelegatecall(address,bytes)": {
        "custom:oz-upgrades-unsafe-allow": "delegatecall"
      },
      "approveTokensTo(address[],uint256[],address)": {
        "details": "used to allow jet staking contract to pay reverds from Treasury balance",
        "params": {
          "_operator": "operator",
          "_supportedTokens": "list of supported tokens to approve"
        }
      },
      "getRoleAdmin(bytes32)": {
        "details": "Returns the admin role that controls `role`. See {grantRole} and {revokeRole}. To change a role's admin, use {_setRoleAdmin}."
      },
      "grantRole(bytes32,address)": {
        "details": "Grants `role` to `account`. If `account` had not been already granted `role`, emits a {RoleGranted} event. Requirements: - the caller must have ``role``'s admin role."
      },
      "hasRole(bytes32,address)": {
        "details": "Returns `true` if `account` has been granted `role`."
      },
      "initialize(address[],address[],uint256)": {
        "params": {
          "_managers": "list of managers",
          "_supportedTokens": "list of supported tokens"
        }
      },
      "payRewards(address,address,uint256)": {
        "details": "Used by jet staking contracts",
        "params": {
          "_amount": "token to transfer to user",
          "_token": "token to transfer to user",
          "_user": "user to transfer tokens to"
        }
      },
      "removeManager(address)": {
        "params": {
          "_manager": "any active manager"
        }
      },
      "removeSupportedToken(address)": {
        "params": {
          "_token": "ERC20 token address"
        }
      },
      "renounceRole(bytes32,address)": {
        "details": "Revokes `role` from the calling account. Roles are often managed via {grantRole} and {revokeRole}: this function's purpose is to provide a mechanism for accounts to lose their privileges if they are compromised (such as when a trusted device is misplaced). If the calling account had been revoked `role`, emits a {RoleRevoked} event. Requirements: - the caller must be `account`."
      },
      "revokeRole(bytes32,address)": {
        "details": "Revokes `role` from `account`. If `account` had been granted `role`, emits a {RoleRevoked} event. Requirements: - the caller must have ``role``'s admin role."
      },
      "supportsInterface(bytes4)": {
        "details": "See {IERC165-supportsInterface}."
      }
    },
    "version": 1
  },
  "userdoc": {
    "kind": "user",
    "methods": {
      "addManager(address)": {
        "notice": "adds address to list of owners"
      },
      "addSupportedToken(address)": {
        "notice": "adds token as a supproted rewards token by Treasury"
      },
      "approveTokensTo(address[],uint256[],address)": {
        "notice": "allows operator to transfer supported tokens on befalf of Treasury"
      },
      "initialize(address[],address[],uint256)": {
        "notice": "initializes ownable Treasury with list of managers and supported tokens"
      },
      "payRewards(address,address,uint256)": {
        "notice": "transfers token amount from Treasury balance to user."
      },
      "removeManager(address)": {
        "notice": "removes address from list of owners"
      },
      "removeSupportedToken(address)": {
        "notice": "removed token as a supproted rewards token by Treasury"
      }
    },
    "version": 1
  },
  "storageLayout": {
    "storage": [
      {
        "astId": 416,
        "contract": "contracts/Treasury.sol:Treasury",
        "label": "_initialized",
        "offset": 0,
        "slot": "0",
        "type": "t_bool"
      },
      {
        "astId": 419,
        "contract": "contracts/Treasury.sol:Treasury",
        "label": "_initializing",
        "offset": 1,
        "slot": "0",
        "type": "t_bool"
      },
      {
        "astId": 1073,
        "contract": "contracts/Treasury.sol:Treasury",
        "label": "__gap",
        "offset": 0,
        "slot": "1",
        "type": "t_array(t_uint256)50_storage"
      },
      {
        "astId": 1322,
        "contract": "contracts/Treasury.sol:Treasury",
        "label": "__gap",
        "offset": 0,
        "slot": "51",
        "type": "t_array(t_uint256)50_storage"
      },
      {
        "astId": 48,
        "contract": "contracts/Treasury.sol:Treasury",
        "label": "_roles",
        "offset": 0,
        "slot": "101",
        "type": "t_mapping(t_bytes32,t_struct(RoleData)43_storage)"
      },
      {
        "astId": 335,
        "contract": "contracts/Treasury.sol:Treasury",
        "label": "__gap",
        "offset": 0,
        "slot": "102",
        "type": "t_array(t_uint256)49_storage"
      },
      {
        "astId": 1346,
        "contract": "contracts/Treasury.sol:Treasury",
        "label": "admin",
        "offset": 0,
        "slot": "151",
        "type": "t_address"
      },
      {
        "astId": 1348,
        "contract": "contracts/Treasury.sol:Treasury",
        "label": "paused",
        "offset": 0,
        "slot": "152",
        "type": "t_uint256"
      },
      {
        "astId": 4488,
        "contract": "contracts/Treasury.sol:Treasury",
        "label": "isSupportedToken",
        "offset": 0,
        "slot": "153",
        "type": "t_mapping(t_address,t_bool)"
      },
      {
        "astId": 4492,
        "contract": "contracts/Treasury.sol:Treasury",
        "label": "isManager",
        "offset": 0,
        "slot": "154",
        "type": "t_mapping(t_address,t_bool)"
      }
    ],
    "types": {
      "t_address": {
        "encoding": "inplace",
        "label": "address",
        "numberOfBytes": "20"
      },
      "t_array(t_uint256)49_storage": {
        "base": "t_uint256",
        "encoding": "inplace",
        "label": "uint256[49]",
        "numberOfBytes": "1568"
      },
      "t_array(t_uint256)50_storage": {
        "base": "t_uint256",
        "encoding": "inplace",
        "label": "uint256[50]",
        "numberOfBytes": "1600"
      },
      "t_bool": {
        "encoding": "inplace",
        "label": "bool",
        "numberOfBytes": "1"
      },
      "t_bytes32": {
        "encoding": "inplace",
        "label": "bytes32",
        "numberOfBytes": "32"
      },
      "t_mapping(t_address,t_bool)": {
        "encoding": "mapping",
        "key": "t_address",
        "label": "mapping(address => bool)",
        "numberOfBytes": "32",
        "value": "t_bool"
      },
      "t_mapping(t_bytes32,t_struct(RoleData)43_storage)": {
        "encoding": "mapping",
        "key": "t_bytes32",
        "label": "mapping(bytes32 => struct AccessControlUpgradeable.RoleData)",
        "numberOfBytes": "32",
        "value": "t_struct(RoleData)43_storage"
      },
      "t_struct(RoleData)43_storage": {
        "encoding": "inplace",
        "label": "struct AccessControlUpgradeable.RoleData",
        "members": [
          {
            "astId": 40,
            "contract": "contracts/Treasury.sol:Treasury",
            "label": "members",
            "offset": 0,
            "slot": "0",
            "type": "t_mapping(t_address,t_bool)"
          },
          {
            "astId": 42,
            "contract": "contracts/Treasury.sol:Treasury",
            "label": "adminRole",
            "offset": 0,
            "slot": "1",
            "type": "t_bytes32"
          }
        ],
        "numberOfBytes": "64"
      },
      "t_uint256": {
        "encoding": "inplace",
        "label": "uint256",
        "numberOfBytes": "32"
      }
    }
  }
}