{
  "address": "0xe4f6088E5BCC7f3C83FB76E99D9C594D9aC863eD",
  "abi": [
    {
      "anonymous": false,
      "inputs": [
        {
          "indexed": true,
          "internalType": "address",
          "name": "manager",
          "type": "address"
        },
        {
          "indexed": true,
          "internalType": "address",
          "name": "addedBy",
          "type": "address"
        },
        {
          "indexed": false,
          "internalType": "uint256",
          "name": "timestamp",
          "type": "uint256"
        }
      ],
      "name": "ManagerAdded",
      "type": "event"
    },
    {
      "anonymous": false,
      "inputs": [
        {
          "indexed": true,
          "internalType": "address",
          "name": "manager",
          "type": "address"
        },
        {
          "indexed": true,
          "internalType": "address",
          "name": "removedBy",
          "type": "address"
        },
        {
          "indexed": false,
          "internalType": "uint256",
          "name": "timestamp",
          "type": "uint256"
        }
      ],
      "name": "ManagerRemoved",
      "type": "event"
    },
    {
      "anonymous": false,
      "inputs": [
        {
          "indexed": false,
          "internalType": "address",
          "name": "oldAdmin",
          "type": "address"
        },
        {
          "indexed": false,
          "internalType": "address",
          "name": "newAdmin",
          "type": "address"
        }
      ],
      "name": "OwnershipTransferred",
      "type": "event"
    },
    {
      "anonymous": false,
      "inputs": [
        {
          "indexed": true,
          "internalType": "bytes32",
          "name": "role",
          "type": "bytes32"
        },
        {
          "indexed": true,
          "internalType": "bytes32",
          "name": "previousAdminRole",
          "type": "bytes32"
        },
        {
          "indexed": true,
          "internalType": "bytes32",
          "name": "newAdminRole",
          "type": "bytes32"
        }
      ],
      "name": "RoleAdminChanged",
      "type": "event"
    },
    {
      "anonymous": false,
      "inputs": [
        {
          "indexed": true,
          "internalType": "bytes32",
          "name": "role",
          "type": "bytes32"
        },
        {
          "indexed": true,
          "internalType": "address",
          "name": "account",
          "type": "address"
        },
        {
          "indexed": true,
          "internalType": "address",
          "name": "sender",
          "type": "address"
        }
      ],
      "name": "RoleGranted",
      "type": "event"
    },
    {
      "anonymous": false,
      "inputs": [
        {
          "indexed": true,
          "internalType": "bytes32",
          "name": "role",
          "type": "bytes32"
        },
        {
          "indexed": true,
          "internalType": "address",
          "name": "account",
          "type": "address"
        },
        {
          "indexed": true,
          "internalType": "address",
          "name": "sender",
          "type": "address"
        }
      ],
      "name": "RoleRevoked",
      "type": "event"
    },
    {
      "anonymous": false,
      "inputs": [
        {
          "indexed": true,
          "internalType": "address",
          "name": "token",
          "type": "address"
        },
        {
          "indexed": true,
          "internalType": "address",
          "name": "addedBy",
          "type": "address"
        },
        {
          "indexed": false,
          "internalType": "uint256",
          "name": "timestamp",
          "type": "uint256"
        }
      ],
      "name": "TokenAdded",
      "type": "event"
    },
    {
      "anonymous": false,
      "inputs": [
        {
          "indexed": true,
          "internalType": "address",
          "name": "token",
          "type": "address"
        },
        {
          "indexed": true,
          "internalType": "address",
          "name": "addedBy",
          "type": "address"
        },
        {
          "indexed": false,
          "internalType": "uint256",
          "name": "timestamp",
          "type": "uint256"
        }
      ],
      "name": "TokenRemoved",
      "type": "event"
    },
    {
      "inputs": [],
      "name": "DEFAULT_ADMIN_ROLE",
      "outputs": [
        {
          "internalType": "bytes32",
          "name": "",
          "type": "bytes32"
        }
      ],
      "stateMutability": "view",
      "type": "function"
    },
    {
      "inputs": [],
      "name": "PAUSE_ROLE",
      "outputs": [
        {
          "internalType": "bytes32",
          "name": "",
          "type": "bytes32"
        }
      ],
      "stateMutability": "view",
      "type": "function"
    },
    {
      "inputs": [],
      "name": "SUPER_ADMIN_ROLE",
      "outputs": [
        {
          "internalType": "bytes32",
          "name": "",
          "type": "bytes32"
        }
      ],
      "stateMutability": "view",
      "type": "function"
    },
    {
      "inputs": [
        {
          "internalType": "uint256",
          "name": "_flags",
          "type": "uint256"
        }
      ],
      "name": "__AdminControlled_init",
      "outputs": [],
      "stateMutability": "nonpayable",
      "type": "function"
    },
    {
      "inputs": [
        {
          "internalType": "address",
          "name": "_manager",
          "type": "address"
        }
      ],
      "name": "addManager",
      "outputs": [],
      "stateMutability": "nonpayable",
      "type": "function"
    },
    {
      "inputs": [
        {
          "internalType": "address",
          "name": "_token",
          "type": "address"
        }
      ],
      "name": "addSupportedToken",
      "outputs": [],
      "stateMutability": "nonpayable",
      "type": "function"
    },
    {
      "inputs": [
        {
          "internalType": "address",
          "name": "target",
          "type": "address"
        },
        {
          "internalType": "bytes",
          "name": "data",
          "type": "bytes"
        }
      ],
      "name": "adminDelegatecall",
      "outputs": [
        {
          "internalType": "bytes",
          "name": "",
          "type": "bytes"
        }
      ],
      "stateMutability": "payable",
      "type": "function"
    },
    {
      "inputs": [
        {
          "internalType": "uint256",
          "name": "flags",
          "type": "uint256"
        }
      ],
      "name": "adminPause",
      "outputs": [],
      "stateMutability": "nonpayable",
      "type": "function"
    },
    {
      "inputs": [],
      "name": "adminReceiveEth",
      "outputs": [],
      "stateMutability": "payable",
      "type": "function"
    },
    {
      "inputs": [
        {
          "internalType": "address payable",
          "name": "destination",
          "type": "address"
        },
        {
          "internalType": "uint256",
          "name": "amount",
          "type": "uint256"
        }
      ],
      "name": "adminSendEth",
      "outputs": [],
      "stateMutability": "nonpayable",
      "type": "function"
    },
    {
      "inputs": [
        {
          "internalType": "uint256",
          "name": "key",
          "type": "uint256"
        },
        {
          "internalType": "uint256",
          "name": "value",
          "type": "uint256"
        }
      ],
      "name": "adminSstore",
      "outputs": [],
      "stateMutability": "nonpayable",
      "type": "function"
    },
    {
      "inputs": [
        {
          "internalType": "uint256",
          "name": "key",
          "type": "uint256"
        },
        {
          "internalType": "uint256",
          "name": "value",
          "type": "uint256"
        },
        {
          "internalType": "uint256",
          "name": "mask",
          "type": "uint256"
        }
      ],
      "name": "adminSstoreWithMask",
      "outputs": [],
      "stateMutability": "nonpayable",
      "type": "function"
    },
    {
      "inputs": [
        {
          "internalType": "address[]",
          "name": "_supportedTokens",
          "type": "address[]"
        },
        {
          "internalType": "uint256[]",
          "name": "_amounts",
          "type": "uint256[]"
        },
        {
          "internalType": "address",
          "name": "_operator",
          "type": "address"
        }
      ],
      "name": "approveTokensTo",
      "outputs": [],
      "stateMutability": "nonpayable",
      "type": "function"
    },
    {
      "inputs": [
        {
          "internalType": "bytes32",
          "name": "role",
          "type": "bytes32"
        }
      ],
      "name": "getRoleAdmin",
      "outputs": [
        {
          "internalType": "bytes32",
          "name": "",
          "type": "bytes32"
        }
      ],
      "stateMutability": "view",
      "type": "function"
    },
    {
      "inputs": [
        {
          "internalType": "bytes32",
          "name": "role",
          "type": "bytes32"
        },
        {
          "internalType": "address",
          "name": "account",
          "type": "address"
        }
      ],
      "name": "grantRole",
      "outputs": [],
      "stateMutability": "nonpayable",
      "type": "function"
    },
    {
      "inputs": [
        {
          "internalType": "bytes32",
          "name": "role",
          "type": "bytes32"
        },
        {
          "internalType": "address",
          "name": "account",
          "type": "address"
        }
      ],
      "name": "hasRole",
      "outputs": [
        {
          "internalType": "bool",
          "name": "",
          "type": "bool"
        }
      ],
      "stateMutability": "view",
      "type": "function"
    },
    {
      "inputs": [
        {
          "internalType": "address[]",
          "name": "_managers",
          "type": "address[]"
        },
        {
          "internalType": "address[]",
          "name": "_supportedTokens",
          "type": "address[]"
        },
        {
          "internalType": "uint256",
          "name": "_flags",
          "type": "uint256"
        }
      ],
      "name": "initialize",
      "outputs": [],
      "stateMutability": "nonpayable",
      "type": "function"
    },
    {
      "inputs": [
        {
          "internalType": "address",
          "name": "",
          "type": "address"
        }
      ],
      "name": "isManager",
      "outputs": [
        {
          "internalType": "bool",
          "name": "",
          "type": "bool"
        }
      ],
      "stateMutability": "view",
      "type": "function"
    },
    {
      "inputs": [
        {
          "internalType": "address",
          "name": "",
          "type": "address"
        }
      ],
      "name": "isSupportedToken",
      "outputs": [
        {
          "internalType": "bool",
          "name": "",
          "type": "bool"
        }
      ],
      "stateMutability": "view",
      "type": "function"
    },
    {
      "inputs": [],
      "name": "paused",
      "outputs": [
        {
          "internalType": "uint256",
          "name": "",
          "type": "uint256"
        }
      ],
      "stateMutability": "view",
      "type": "function"
    },
    {
      "inputs": [
        {
          "internalType": "address",
          "name": "_user",
          "type": "address"
        },
        {
          "internalType": "address",
          "name": "_token",
          "type": "address"
        },
        {
          "internalType": "uint256",
          "name": "_amount",
          "type": "uint256"
        }
      ],
      "name": "payRewards",
      "outputs": [],
      "stateMutability": "nonpayable",
      "type": "function"
    },
    {
      "inputs": [
        {
          "internalType": "address",
          "name": "_manager",
          "type": "address"
        }
      ],
      "name": "removeManager",
      "outputs": [],
      "stateMutability": "nonpayable",
      "type": "function"
    },
    {
      "inputs": [
        {
          "internalType": "address",
          "name": "_token",
          "type": "address"
        }
      ],
      "name": "removeSupportedToken",
      "outputs": [],
      "stateMutability": "nonpayable",
      "type": "function"
    },
    {
      "inputs": [
        {
          "internalType": "bytes32",
          "name": "role",
          "type": "bytes32"
        },
        {
          "internalType": "address",
          "name": "account",
          "type": "address"
        }
      ],
      "name": "renounceRole",
      "outputs": [],
      "stateMutability": "nonpayable",
      "type": "function"
    },
    {
      "inputs": [
        {
          "internalType": "bytes32",
          "name": "role",
          "type": "bytes32"
        },
        {
          "internalType": "address",
          "name": "account",
          "type": "address"
        }
      ],
      "name": "revokeRole",
      "outputs": [],
      "stateMutability": "nonpayable",
      "type": "function"
    },
    {
      "inputs": [],
      "name": "superAdmin",
      "outputs": [
        {
          "internalType": "address",
          "name": "",
          "type": "address"
        }
      ],
      "stateMutability": "view",
      "type": "function"
    },
    {
      "inputs": [
        {
          "internalType": "bytes4",
          "name": "interfaceId",
          "type": "bytes4"
        }
      ],
      "name": "supportsInterface",
      "outputs": [
        {
          "internalType": "bool",
          "name": "",
          "type": "bool"
        }
      ],
      "stateMutability": "view",
      "type": "function"
    },
    {
      "inputs": [
        {
          "internalType": "address",
          "name": "newAdmin",
          "type": "address"
        }
      ],
      "name": "updateSuperAdmin",
      "outputs": [],
      "stateMutability": "nonpayable",
      "type": "function"
    }
  ],
  "transactionHash": "0x1fd2f7571ae9ef6da71d00093a840890004407f3bb7d42e594a22ada57d8145d",
  "args": [],
  "solcInputHash": "aff3002eb8fce3bbf57972c233485570",
  "bytecode": "0x60a06040523060805234801561001457600080fd5b50608051611f1a61003060003960006113340152611f1a6000f3fe6080604052600436106101475760003560e01c806301ffc9a71461014c578063240028e814610181578063248a9ca3146101b15780632692c59f146101df57806329575f6a146102015780632d06177a146102395780632f2ff15d1461025957806336568abe14610279578063389ed267146102995780634460bdd6146102bb578063530208f2146102dd5780635c975abb146102fd5780636c4624c3146103135780636d69fcaf14610333578063763191901461035357806391d1485414610373578063a217fddf14610393578063a54b8683146103a8578063ac18de43146103c8578063b8e9744c146103e8578063be831a2e14610408578063cae43fd814610428578063d547741f14610448578063da0c1a8814610468578063f3ae241514610488578063f48ab4e0146101ff578063f66c0027146104b8578063fbab9740146104d8575b600080fd5b34801561015857600080fd5b5061016c6101673660046117d0565b6104f8565b60405190151581526020015b60405180910390f35b34801561018d57600080fd5b5061016c61019c366004611822565b60996020526000908152604090205460ff1681565b3480156101bd57600080fd5b506101d16101cc36600461183f565b61052f565b604051908152602001610178565b3480156101eb57600080fd5b506101ff6101fa36600461183f565b610544565b005b34801561020d57600080fd5b50609754610221906001600160a01b031681565b6040516001600160a01b039091168152602001610178565b34801561024557600080fd5b506101ff610254366004611822565b610563565b34801561026557600080fd5b506101ff610274366004611858565b610660565b34801561028557600080fd5b506101ff610294366004611858565b610682565b3480156102a557600080fd5b506101d1600080516020611ec583398151915281565b3480156102c757600080fd5b506101d1600080516020611ea583398151915281565b3480156102e957600080fd5b506101ff6102f8366004611888565b610700565b34801561030957600080fd5b506101d160985481565b34801561031f57600080fd5b506101ff61032e3660046118b4565b610748565b34801561033f57600080fd5b506101ff61034e366004611822565b610760565b34801561035f57600080fd5b506101ff61036e366004611822565b610847565b34801561037f57600080fd5b5061016c61038e366004611858565b61092a565b34801561039f57600080fd5b506101d1600081565b3480156103b457600080fd5b506101ff6103c33660046119bd565b610955565b3480156103d457600080fd5b506101ff6103e3366004611822565b610a43565b6103fb6103f6366004611a87565b610b28565b6040516101789190611b86565b34801561041457600080fd5b506101ff610423366004611b99565b610bb1565b34801561043457600080fd5b506101ff610443366004611822565b610bc2565b34801561045457600080fd5b506101ff610463366004611858565b610d01565b34801561047457600080fd5b506101ff610483366004611bbb565b610d1e565b34801561049457600080fd5b5061016c6104a3366004611822565b609a6020526000908152604090205460ff1681565b3480156104c457600080fd5b506101ff6104d3366004611bfc565b610df8565b3480156104e457600080fd5b506101ff6104f336600461183f565b611031565b60006001600160e01b03198216637965db0b60e01b148061052957506301ffc9a760e01b6001600160e01b03198316145b92915050565b60009081526065602052604090206001015490565b600080516020611ec583398151915261055d8133611101565b50609855565b336000908152609a602052604090205460ff1661059b5760405162461bcd60e51b815260040161059290611c68565b60405180910390fd5b6001600160a01b0381166000908152609a602052604090205460ff16156105fd5760405162461bcd60e51b81526020600482015260166024820152754d414e414745525f414c52454144595f45584953545360501b6044820152606401610592565b6001600160a01b0381166000818152609a602052604090819020805460ff19166001179055513391907f3243a12fe9b9e120fc020a8816e3bc9af8f3eb4ec3ebd9ed10b6bf04d839625e906106559042815260200190565b60405180910390a350565b6106698261052f565b6106738133611101565b61067d8383611165565b505050565b6001600160a01b03811633146106f25760405162461bcd60e51b815260206004820152602f60248201527f416363657373436f6e74726f6c3a2063616e206f6e6c792072656e6f756e636560448201526e103937b632b9903337b91039b2b63360891b6064820152608401610592565b6106fc82826111eb565b5050565b600061070c8133611101565b6040516001600160a01b0384169083156108fc029084906000818181858888f19350505050158015610742573d6000803e3d6000fd5b50505050565b60006107548133611101565b50825491821816189055565b336000908152609a602052604090205460ff1661078f5760405162461bcd60e51b815260040161059290611c68565b6001600160a01b03811660009081526099602052604090205460ff16156107ef5760405162461bcd60e51b8152602060048201526014602482015273544f4b454e5f414c52454144595f45584953545360601b6044820152606401610592565b6001600160a01b03811660008181526099602052604090819020805460ff19166001179055513391907f7156d0b8d9ed8d1117b97d76a15a304bad2749fc23251c2c7ed65a0698952850906106559042815260200190565b336000908152609a602052604090205460ff166108765760405162461bcd60e51b815260040161059290611c68565b6001600160a01b03811660009081526099602052604090205460ff166108d55760405162461bcd60e51b81526020600482015260146024820152731513d2d15397d113d154d7d393d517d1561254d560621b6044820152606401610592565b6001600160a01b03811660008181526099602052604090819020805460ff19169055513391907feddce3117927831e55f862ee4b16c60ba431908fc8404f5a2d40c2ac163c3b14906106559042815260200190565b60009182526065602090815260408084206001600160a01b0393909316845291905290205460ff1690565b336000908152609a602052604090205460ff166109845760405162461bcd60e51b815260040161059290611c68565b82518251146109d55760405162461bcd60e51b815260206004820181905260248201527f494e56414c49445f415050524f56455f544f4b454e5f504152414d45544552536044820152606401610592565b60005b835181101561074257610a31828483815181106109f7576109f7611c97565b6020026020010151868481518110610a1157610a11611c97565b60200260200101516001600160a01b03166112529092919063ffffffff16565b80610a3b81611cc3565b9150506109d8565b336000908152609a602052604090205460ff16610a725760405162461bcd60e51b815260040161059290611c68565b6001600160a01b0381166000908152609a602052604090205460ff16610ad35760405162461bcd60e51b81526020600482015260166024820152751350539051d15497d113d154d7d393d517d1561254d560521b6044820152606401610592565b6001600160a01b0381166000818152609a602052604090819020805460ff19169055513391907f74394ebd318b134cbd40fd41cfde0db24c32aa32de82b114ccabcc28b3616dfd906106559042815260200190565b60606000610b368133611101565b610b3e611329565b600080856001600160a01b031685604051610b599190611cde565b600060405180830381855af49150503d8060008114610b94576040519150601f19603f3d011682016040523d82523d6000602084013e610b99565b606091505b509150915081610ba857600080fd5b95945050505050565b6000610bbd8133611101565b509055565b600080516020611ea5833981519152610bdb8133611101565b6001600160a01b038216610c235760405162461bcd60e51b815260206004820152600f60248201526e494e56414c49445f4144445245535360881b6044820152606401610592565b6097546001600160a01b0383811691161415610c705760405162461bcd60e51b815260206004820152600c60248201526b53414d455f4144445245535360a01b6044820152606401610592565b609780546001600160a01b0319166001600160a01b038416179055610ca3600080516020611ea583398151915283611165565b610cae600083611165565b610cc6600080516020611ec583398151915283611165565b610cde600080516020611ea5833981519152336111eb565b610ce96000336111eb565b6106fc600080516020611ec5833981519152336111eb565b610d0a8261052f565b610d148133611101565b61067d83836111eb565b6001806098541660001480610d395750610d3960003361092a565b610d6e5760405162461bcd60e51b815260206004820152600660248201526514185d5cd95960d21b6044820152606401610592565b6000610d7a8133611101565b6001600160a01b03841660009081526099602052604090205460ff16610ddb5760405162461bcd60e51b81526020600482015260166024820152751513d2d15397d254d7d393d517d4d5541413d495115160521b6044820152606401610592565b610def6001600160a01b038516868561135f565b5050505050565b565b600054610100900460ff16610e135760005460ff1615610e17565b303b155b610e335760405162461bcd60e51b815260040161059290611cfa565b600054610100900460ff16158015610e55576000805461ffff19166101011790555b60005b8451811015610f335760006001600160a01b0316858281518110610e7e57610e7e611c97565b60200260200101516001600160a01b03161415610ed75760405162461bcd60e51b8152602060048201526017602482015276494e56414c49445f4d414e414745525f4144445245535360481b6044820152606401610592565b6001609a6000878481518110610eef57610eef611c97565b6020908102919091018101516001600160a01b03168252810191909152604001600020805460ff191691151591909117905580610f2b81611cc3565b915050610e58565b5060005b83518110156110105760006001600160a01b0316848281518110610f5d57610f5d611c97565b60200260200101516001600160a01b03161415610fb45760405162461bcd60e51b8152602060048201526015602482015274494e56414c49445f544f4b454e5f4144445245535360581b6044820152606401610592565b600160996000868481518110610fcc57610fcc611c97565b6020908102919091018101516001600160a01b03168252810191909152604001600020805460ff19169115159190911790558061100881611cc3565b915050610f37565b5061101a82611031565b8015610742576000805461ff001916905550505050565b600054610100900460ff1661104c5760005460ff1615611050565b303b155b61106c5760405162461bcd60e51b815260040161059290611cfa565b600054610100900460ff1615801561108e576000805461ffff19166101011790555b61109661137e565b6098829055609780546001600160a01b031916339081179091556110c990600080516020611ea583398151915290611165565b6110d4600033611165565b6110ec600080516020611ec583398151915233611165565b80156106fc576000805461ff00191690555050565b61110b828261092a565b6106fc57611123816001600160a01b031660146113bd565b61112e8360206113bd565b60405160200161113f929190611d48565b60408051601f198184030181529082905262461bcd60e51b825261059291600401611b86565b61116f828261092a565b6106fc5760008281526065602090815260408083206001600160a01b03851684529091529020805460ff191660011790556111a73390565b6001600160a01b0316816001600160a01b0316837f2f8788117e7eff1d82e926ec794901d17c78024a50270940304540a733656f0d60405160405180910390a45050565b6111f5828261092a565b156106fc5760008281526065602090815260408083206001600160a01b0385168085529252808320805460ff1916905551339285917ff6391f5c32d9c69d2a47ea670b442974b53935d1edc7fd64eb21e047a839171b9190a45050565b604051636eb1769f60e11b81523060048201526001600160a01b038381166024830152600091839186169063dd62ed3e90604401602060405180830381865afa1580156112a3573d6000803e3d6000fd5b505050506040513d601f19601f820116820180604052508101906112c79190611db7565b6112d19190611dd0565b90506107428463095ea7b360e01b85846040516024016112f2929190611de8565b60408051601f198184030181529190526020810180516001600160e01b03166001600160e01b03199093169290921790915261155f565b306001600160a01b037f0000000000000000000000000000000000000000000000000000000000000000161415610df657600080fd5b61067d8363a9059cbb60e01b84846040516024016112f2929190611de8565b600054610100900460ff166113a55760405162461bcd60e51b815260040161059290611e01565b6113ad611631565b6113b5611631565b610df6611631565b606060006113cc836002611e4c565b6113d7906002611dd0565b6001600160401b038111156113ee576113ee6118e0565b6040519080825280601f01601f191660200182016040528015611418576020820181803683370190505b509050600360fc1b8160008151811061143357611433611c97565b60200101906001600160f81b031916908160001a905350600f60fb1b8160018151811061146257611462611c97565b60200101906001600160f81b031916908160001a9053506000611486846002611e4c565b611491906001611dd0565b90505b6001811115611509576f181899199a1a9b1b9c1cb0b131b232b360811b85600f16601081106114c5576114c5611c97565b1a60f81b8282815181106114db576114db611c97565b60200101906001600160f81b031916908160001a90535060049490941c9361150281611e6b565b9050611494565b5083156115585760405162461bcd60e51b815260206004820181905260248201527f537472696e67733a20686578206c656e67746820696e73756666696369656e746044820152606401610592565b9392505050565b60006115b4826040518060400160405280602081526020017f5361666545524332303a206c6f772d6c6576656c2063616c6c206661696c6564815250856001600160a01b03166116589092919063ffffffff16565b80519091501561067d57808060200190518101906115d29190611e82565b61067d5760405162461bcd60e51b815260206004820152602a60248201527f5361666545524332303a204552433230206f7065726174696f6e20646964206e6044820152691bdd081cdd58d8d9595960b21b6064820152608401610592565b600054610100900460ff16610df65760405162461bcd60e51b815260040161059290611e01565b6060611667848460008561166f565b949350505050565b6060824710156116d05760405162461bcd60e51b815260206004820152602660248201527f416464726573733a20696e73756666696369656e742062616c616e636520666f6044820152651c8818d85b1b60d21b6064820152608401610592565b843b61171e5760405162461bcd60e51b815260206004820152601d60248201527f416464726573733a2063616c6c20746f206e6f6e2d636f6e74726163740000006044820152606401610592565b600080866001600160a01b0316858760405161173a9190611cde565b60006040518083038185875af1925050503d8060008114611777576040519150601f19603f3d011682016040523d82523d6000602084013e61177c565b606091505b509150915061178c828286611797565b979650505050505050565b606083156117a6575081611558565b8251156117b65782518084602001fd5b8160405162461bcd60e51b81526004016105929190611b86565b6000602082840312156117e257600080fd5b81356001600160e01b03198116811461155857600080fd5b6001600160a01b038116811461180f57600080fd5b50565b803561181d816117fa565b919050565b60006020828403121561183457600080fd5b8135611558816117fa565b60006020828403121561185157600080fd5b5035919050565b6000806040838503121561186b57600080fd5b82359150602083013561187d816117fa565b809150509250929050565b6000806040838503121561189b57600080fd5b82356118a6816117fa565b946020939093013593505050565b6000806000606084860312156118c957600080fd5b505081359360208301359350604090920135919050565b634e487b7160e01b600052604160045260246000fd5b604051601f8201601f191681016001600160401b038111828210171561191e5761191e6118e0565b604052919050565b60006001600160401b0382111561193f5761193f6118e0565b5060051b60200190565b600082601f83011261195a57600080fd5b8135602061196f61196a83611926565b6118f6565b82815260059290921b8401810191818101908684111561198e57600080fd5b8286015b848110156119b25780356119a5816117fa565b8352918301918301611992565b509695505050505050565b6000806000606084860312156119d257600080fd5b83356001600160401b03808211156119e957600080fd5b6119f587838801611949565b9450602091508186013581811115611a0c57600080fd5b86019050601f81018713611a1f57600080fd5b8035611a2d61196a82611926565b81815260059190911b82018301908381019089831115611a4c57600080fd5b928401925b82841015611a6a57833582529284019290840190611a51565b8096505050505050611a7e60408501611812565b90509250925092565b60008060408385031215611a9a57600080fd5b8235611aa5816117fa565b91506020838101356001600160401b0380821115611ac257600080fd5b818601915086601f830112611ad657600080fd5b813581811115611ae857611ae86118e0565b611afa601f8201601f191685016118f6565b91508082528784828501011115611b1057600080fd5b80848401858401376000848284010152508093505050509250929050565b60005b83811015611b49578181015183820152602001611b31565b838111156107425750506000910152565b60008151808452611b72816020860160208601611b2e565b601f01601f19169290920160200192915050565b6020815260006115586020830184611b5a565b60008060408385031215611bac57600080fd5b50508035926020909101359150565b600080600060608486031215611bd057600080fd5b8335611bdb816117fa565b92506020840135611beb816117fa565b929592945050506040919091013590565b600080600060608486031215611c1157600080fd5b83356001600160401b0380821115611c2857600080fd5b611c3487838801611949565b94506020860135915080821115611c4a57600080fd5b50611c5786828701611949565b925050604084013590509250925092565b60208082526015908201527429a2a72222a92fa4a9afa727aa2fa6a0a720a3a2a960591b604082015260600190565b634e487b7160e01b600052603260045260246000fd5b634e487b7160e01b600052601160045260246000fd5b6000600019821415611cd757611cd7611cad565b5060010190565b60008251611cf0818460208701611b2e565b9190910192915050565b6020808252602e908201527f496e697469616c697a61626c653a20636f6e747261637420697320616c72656160408201526d191e481a5b9a5d1a585b1a5e995960921b606082015260800190565b76020b1b1b2b9b9a1b7b73a3937b61d1030b1b1b7bab73a1604d1b815260008351611d7a816017850160208801611b2e565b7001034b99036b4b9b9b4b733903937b6329607d1b6017918401918201528351611dab816028840160208801611b2e565b01602801949350505050565b600060208284031215611dc957600080fd5b5051919050565b60008219821115611de357611de3611cad565b500190565b6001600160a01b03929092168252602082015260400190565b6020808252602b908201527f496e697469616c697a61626c653a20636f6e7472616374206973206e6f74206960408201526a6e697469616c697a696e6760a81b606082015260800190565b6000816000190483118215151615611e6657611e66611cad565b500290565b600081611e7a57611e7a611cad565b506000190190565b600060208284031215611e9457600080fd5b8151801515811461155857600080fdfe7613a25ecc738585a232ad50a301178f12b3ba8887d13e138b523c4269c47689139c2898040ef16910dc9f44dc697df79363da767d8bc92f2e310312b816e46da264697066735822122069389605bd2036deb74944bb0297b6a787221cad5adc7548201fb48130754ca164736f6c634300080a0033",
  "devdoc": {
    "kind": "dev",
    "methods": {
      "addManager(address)": {
        "params": {
          "_manager": "any ethereum account"
        }
      },
      "addSupportedToken(address)": {
        "params": {
          "_token": "ERC20 token address"
        }
      },
      "adminDelegatecall(address,bytes)": {
        "custom:oz-upgrades-unsafe-allow": "delegatecall"
      },
      "approveTokensTo(address[],uint256[],address)": {
        "details": "used to allow jet staking contract to pay reverds from Treasury balance",
        "params": {
          "_operator": "operator",
          "_supportedTokens": "list of supported tokens to approve"
        }
      },
      "getRoleAdmin(bytes32)": {
        "details": "Returns the admin role that controls `role`. See {grantRole} and {revokeRole}. To change a role's admin, use {_setRoleAdmin}."
      },
      "grantRole(bytes32,address)": {
        "details": "Grants `role` to `account`. If `account` had not been already granted `role`, emits a {RoleGranted} event. Requirements: - the caller must have ``role``'s admin role."
      },
      "hasRole(bytes32,address)": {
        "details": "Returns `true` if `account` has been granted `role`."
      },
      "initialize(address[],address[],uint256)": {
        "params": {
          "_managers": "list of managers",
          "_supportedTokens": "list of supported tokens"
        }
      },
      "payRewards(address,address,uint256)": {
        "details": "Used by jet staking contracts",
        "params": {
          "_amount": "token to transfer to user",
          "_token": "token to transfer to user",
          "_user": "user to transfer tokens to"
        }
      },
      "removeManager(address)": {
        "params": {
          "_manager": "any active manager"
        }
      },
      "removeSupportedToken(address)": {
        "params": {
          "_token": "ERC20 token address"
        }
      },
      "renounceRole(bytes32,address)": {
        "details": "Revokes `role` from the calling account. Roles are often managed via {grantRole} and {revokeRole}: this function's purpose is to provide a mechanism for accounts to lose their privileges if they are compromised (such as when a trusted device is misplaced). If the calling account had been revoked `role`, emits a {RoleRevoked} event. Requirements: - the caller must be `account`."
      },
      "revokeRole(bytes32,address)": {
        "details": "Revokes `role` from `account`. If `account` had been granted `role`, emits a {RoleRevoked} event. Requirements: - the caller must have ``role``'s admin role."
      },
      "supportsInterface(bytes4)": {
        "details": "See {IERC165-supportsInterface}."
      }
    },
    "version": 1
  },
  "userdoc": {
    "kind": "user",
    "methods": {
      "addManager(address)": {
        "notice": "adds address to list of owners"
      },
      "addSupportedToken(address)": {
        "notice": "adds token as a supproted rewards token by Treasury"
      },
      "approveTokensTo(address[],uint256[],address)": {
        "notice": "allows operator to transfer supported tokens on befalf of Treasury"
      },
      "initialize(address[],address[],uint256)": {
        "notice": "initializes ownable Treasury with list of managers and supported tokens"
      },
      "payRewards(address,address,uint256)": {
        "notice": "transfers token amount from Treasury balance to user."
      },
      "removeManager(address)": {
        "notice": "removes address from list of owners"
      },
      "removeSupportedToken(address)": {
        "notice": "removed token as a supproted rewards token by Treasury"
      }
    },
    "version": 1
  },
  "storageLayout": {
    "storage": [
      {
        "astId": 416,
        "contract": "contracts/Treasury.sol:Treasury",
        "label": "_initialized",
        "offset": 0,
        "slot": "0",
        "type": "t_bool"
      },
      {
        "astId": 419,
        "contract": "contracts/Treasury.sol:Treasury",
        "label": "_initializing",
        "offset": 1,
        "slot": "0",
        "type": "t_bool"
      },
      {
        "astId": 1073,
        "contract": "contracts/Treasury.sol:Treasury",
        "label": "__gap",
        "offset": 0,
        "slot": "1",
        "type": "t_array(t_uint256)50_storage"
      },
      {
        "astId": 1322,
        "contract": "contracts/Treasury.sol:Treasury",
        "label": "__gap",
        "offset": 0,
        "slot": "51",
        "type": "t_array(t_uint256)50_storage"
      },
      {
        "astId": 48,
        "contract": "contracts/Treasury.sol:Treasury",
        "label": "_roles",
        "offset": 0,
        "slot": "101",
        "type": "t_mapping(t_bytes32,t_struct(RoleData)43_storage)"
      },
      {
        "astId": 335,
        "contract": "contracts/Treasury.sol:Treasury",
        "label": "__gap",
        "offset": 0,
        "slot": "102",
        "type": "t_array(t_uint256)49_storage"
      },
      {
        "astId": 1346,
        "contract": "contracts/Treasury.sol:Treasury",
        "label": "superAdmin",
        "offset": 0,
        "slot": "151",
        "type": "t_address"
      },
      {
        "astId": 1348,
        "contract": "contracts/Treasury.sol:Treasury",
        "label": "paused",
        "offset": 0,
        "slot": "152",
        "type": "t_uint256"
      },
      {
        "astId": 4368,
        "contract": "contracts/Treasury.sol:Treasury",
        "label": "isSupportedToken",
        "offset": 0,
        "slot": "153",
        "type": "t_mapping(t_address,t_bool)"
      },
      {
        "astId": 4372,
        "contract": "contracts/Treasury.sol:Treasury",
        "label": "isManager",
        "offset": 0,
        "slot": "154",
        "type": "t_mapping(t_address,t_bool)"
      }
    ],
    "types": {
      "t_address": {
        "encoding": "inplace",
        "label": "address",
        "numberOfBytes": "20"
      },
      "t_array(t_uint256)49_storage": {
        "base": "t_uint256",
        "encoding": "inplace",
        "label": "uint256[49]",
        "numberOfBytes": "1568"
      },
      "t_array(t_uint256)50_storage": {
        "base": "t_uint256",
        "encoding": "inplace",
        "label": "uint256[50]",
        "numberOfBytes": "1600"
      },
      "t_bool": {
        "encoding": "inplace",
        "label": "bool",
        "numberOfBytes": "1"
      },
      "t_bytes32": {
        "encoding": "inplace",
        "label": "bytes32",
        "numberOfBytes": "32"
      },
      "t_mapping(t_address,t_bool)": {
        "encoding": "mapping",
        "key": "t_address",
        "label": "mapping(address => bool)",
        "numberOfBytes": "32",
        "value": "t_bool"
      },
      "t_mapping(t_bytes32,t_struct(RoleData)43_storage)": {
        "encoding": "mapping",
        "key": "t_bytes32",
        "label": "mapping(bytes32 => struct AccessControlUpgradeable.RoleData)",
        "numberOfBytes": "32",
        "value": "t_struct(RoleData)43_storage"
      },
      "t_struct(RoleData)43_storage": {
        "encoding": "inplace",
        "label": "struct AccessControlUpgradeable.RoleData",
        "members": [
          {
            "astId": 40,
            "contract": "contracts/Treasury.sol:Treasury",
            "label": "members",
            "offset": 0,
            "slot": "0",
            "type": "t_mapping(t_address,t_bool)"
          },
          {
            "astId": 42,
            "contract": "contracts/Treasury.sol:Treasury",
            "label": "adminRole",
            "offset": 0,
            "slot": "1",
            "type": "t_bytes32"
          }
        ],
        "numberOfBytes": "64"
      },
      "t_uint256": {
        "encoding": "inplace",
        "label": "uint256",
        "numberOfBytes": "32"
      }
    }
  }
}