{
  "address": "0x83Cd36803bD5EE8879B4304214beaFeA4f62B005",
  "abi": [
    {
      "anonymous": false,
      "inputs": [
        {
          "indexed": false,
          "internalType": "address",
          "name": "oldAdmin",
          "type": "address"
        },
        {
          "indexed": false,
          "internalType": "address",
          "name": "newAdmin",
          "type": "address"
        }
      ],
      "name": "OwnershipTransferred",
      "type": "event"
    },
    {
      "anonymous": false,
      "inputs": [
        {
          "indexed": true,
          "internalType": "bytes32",
          "name": "role",
          "type": "bytes32"
        },
        {
          "indexed": true,
          "internalType": "bytes32",
          "name": "previousAdminRole",
          "type": "bytes32"
        },
        {
          "indexed": true,
          "internalType": "bytes32",
          "name": "newAdminRole",
          "type": "bytes32"
        }
      ],
      "name": "RoleAdminChanged",
      "type": "event"
    },
    {
      "anonymous": false,
      "inputs": [
        {
          "indexed": true,
          "internalType": "bytes32",
          "name": "role",
          "type": "bytes32"
        },
        {
          "indexed": true,
          "internalType": "address",
          "name": "account",
          "type": "address"
        },
        {
          "indexed": true,
          "internalType": "address",
          "name": "sender",
          "type": "address"
        }
      ],
      "name": "RoleGranted",
      "type": "event"
    },
    {
      "anonymous": false,
      "inputs": [
        {
          "indexed": true,
          "internalType": "bytes32",
          "name": "role",
          "type": "bytes32"
        },
        {
          "indexed": true,
          "internalType": "address",
          "name": "account",
          "type": "address"
        },
        {
          "indexed": true,
          "internalType": "address",
          "name": "sender",
          "type": "address"
        }
      ],
      "name": "RoleRevoked",
      "type": "event"
    },
    {
      "anonymous": false,
      "inputs": [
        {
          "indexed": true,
          "internalType": "address",
          "name": "token",
          "type": "address"
        },
        {
          "indexed": true,
          "internalType": "address",
          "name": "addedBy",
          "type": "address"
        },
        {
          "indexed": false,
          "internalType": "uint256",
          "name": "timestamp",
          "type": "uint256"
        }
      ],
      "name": "TokenAdded",
      "type": "event"
    },
    {
      "anonymous": false,
      "inputs": [
        {
          "indexed": true,
          "internalType": "address",
          "name": "token",
          "type": "address"
        },
        {
          "indexed": true,
          "internalType": "address",
          "name": "addedBy",
          "type": "address"
        },
        {
          "indexed": false,
          "internalType": "uint256",
          "name": "timestamp",
          "type": "uint256"
        }
      ],
      "name": "TokenRemoved",
      "type": "event"
    },
    {
      "inputs": [],
      "name": "DEFAULT_ADMIN_ROLE",
      "outputs": [
        {
          "internalType": "bytes32",
          "name": "",
          "type": "bytes32"
        }
      ],
      "stateMutability": "view",
      "type": "function"
    },
    {
      "inputs": [],
      "name": "PAUSE_ROLE",
      "outputs": [
        {
          "internalType": "bytes32",
          "name": "",
          "type": "bytes32"
        }
      ],
      "stateMutability": "view",
      "type": "function"
    },
    {
      "inputs": [],
      "name": "TREASURY_MANAGER_ROLE",
      "outputs": [
        {
          "internalType": "bytes32",
          "name": "",
          "type": "bytes32"
        }
      ],
      "stateMutability": "view",
      "type": "function"
    },
    {
      "inputs": [
        {
          "internalType": "uint256",
          "name": "_flags",
          "type": "uint256"
        }
      ],
      "name": "__AdminControlled_init",
      "outputs": [],
      "stateMutability": "nonpayable",
      "type": "function"
    },
    {
      "inputs": [
        {
          "internalType": "address",
          "name": "_token",
          "type": "address"
        }
      ],
      "name": "addSupportedToken",
      "outputs": [],
      "stateMutability": "nonpayable",
      "type": "function"
    },
    {
      "inputs": [],
      "name": "admin",
      "outputs": [
        {
          "internalType": "address",
          "name": "",
          "type": "address"
        }
      ],
      "stateMutability": "view",
      "type": "function"
    },
    {
      "inputs": [
        {
          "internalType": "address",
          "name": "target",
          "type": "address"
        },
        {
          "internalType": "bytes",
          "name": "data",
          "type": "bytes"
        }
      ],
      "name": "adminDelegatecall",
      "outputs": [
        {
          "internalType": "bytes",
          "name": "",
          "type": "bytes"
        }
      ],
      "stateMutability": "payable",
      "type": "function"
    },
    {
      "inputs": [
        {
          "internalType": "uint256",
          "name": "flags",
          "type": "uint256"
        }
      ],
      "name": "adminPause",
      "outputs": [],
      "stateMutability": "nonpayable",
      "type": "function"
    },
    {
      "inputs": [],
      "name": "adminReceiveEth",
      "outputs": [],
      "stateMutability": "payable",
      "type": "function"
    },
    {
      "inputs": [
        {
          "internalType": "address payable",
          "name": "destination",
          "type": "address"
        },
        {
          "internalType": "uint256",
          "name": "amount",
          "type": "uint256"
        }
      ],
      "name": "adminSendEth",
      "outputs": [],
      "stateMutability": "nonpayable",
      "type": "function"
    },
    {
      "inputs": [
        {
          "internalType": "uint256",
          "name": "key",
          "type": "uint256"
        },
        {
          "internalType": "uint256",
          "name": "value",
          "type": "uint256"
        }
      ],
      "name": "adminSstore",
      "outputs": [],
      "stateMutability": "nonpayable",
      "type": "function"
    },
    {
      "inputs": [
        {
          "internalType": "uint256",
          "name": "key",
          "type": "uint256"
        },
        {
          "internalType": "uint256",
          "name": "value",
          "type": "uint256"
        },
        {
          "internalType": "uint256",
          "name": "mask",
          "type": "uint256"
        }
      ],
      "name": "adminSstoreWithMask",
      "outputs": [],
      "stateMutability": "nonpayable",
      "type": "function"
    },
    {
      "inputs": [
        {
          "internalType": "bytes32",
          "name": "role",
          "type": "bytes32"
        }
      ],
      "name": "getRoleAdmin",
      "outputs": [
        {
          "internalType": "bytes32",
          "name": "",
          "type": "bytes32"
        }
      ],
      "stateMutability": "view",
      "type": "function"
    },
    {
      "inputs": [
        {
          "internalType": "bytes32",
          "name": "role",
          "type": "bytes32"
        },
        {
          "internalType": "address",
          "name": "account",
          "type": "address"
        }
      ],
      "name": "grantRole",
      "outputs": [],
      "stateMutability": "nonpayable",
      "type": "function"
    },
    {
      "inputs": [
        {
          "internalType": "bytes32",
          "name": "role",
          "type": "bytes32"
        },
        {
          "internalType": "address",
          "name": "account",
          "type": "address"
        }
      ],
      "name": "hasRole",
      "outputs": [
        {
          "internalType": "bool",
          "name": "",
          "type": "bool"
        }
      ],
      "stateMutability": "view",
      "type": "function"
    },
    {
      "inputs": [
        {
          "internalType": "address[]",
          "name": "_supportedTokens",
          "type": "address[]"
        },
        {
          "internalType": "uint256",
          "name": "_flags",
          "type": "uint256"
        }
      ],
      "name": "initialize",
      "outputs": [],
      "stateMutability": "nonpayable",
      "type": "function"
    },
    {
      "inputs": [
        {
          "internalType": "address",
          "name": "",
          "type": "address"
        }
      ],
      "name": "isSupportedToken",
      "outputs": [
        {
          "internalType": "bool",
          "name": "",
          "type": "bool"
        }
      ],
      "stateMutability": "view",
      "type": "function"
    },
    {
      "inputs": [],
      "name": "paused",
      "outputs": [
        {
          "internalType": "uint256",
          "name": "",
          "type": "uint256"
        }
      ],
      "stateMutability": "view",
      "type": "function"
    },
    {
      "inputs": [
        {
          "internalType": "address",
          "name": "_user",
          "type": "address"
        },
        {
          "internalType": "address",
          "name": "_token",
          "type": "address"
        },
        {
          "internalType": "uint256",
          "name": "_amount",
          "type": "uint256"
        }
      ],
      "name": "payRewards",
      "outputs": [],
      "stateMutability": "nonpayable",
      "type": "function"
    },
    {
      "inputs": [
        {
          "internalType": "address",
          "name": "_token",
          "type": "address"
        }
      ],
      "name": "removeSupportedToken",
      "outputs": [],
      "stateMutability": "nonpayable",
      "type": "function"
    },
    {
      "inputs": [
        {
          "internalType": "bytes32",
          "name": "role",
          "type": "bytes32"
        },
        {
          "internalType": "address",
          "name": "account",
          "type": "address"
        }
      ],
      "name": "renounceRole",
      "outputs": [],
      "stateMutability": "nonpayable",
      "type": "function"
    },
    {
      "inputs": [
        {
          "internalType": "bytes32",
          "name": "role",
          "type": "bytes32"
        },
        {
          "internalType": "address",
          "name": "account",
          "type": "address"
        }
      ],
      "name": "revokeRole",
      "outputs": [],
      "stateMutability": "nonpayable",
      "type": "function"
    },
    {
      "inputs": [
        {
          "internalType": "bytes4",
          "name": "interfaceId",
          "type": "bytes4"
        }
      ],
      "name": "supportsInterface",
      "outputs": [
        {
          "internalType": "bool",
          "name": "",
          "type": "bool"
        }
      ],
      "stateMutability": "view",
      "type": "function"
    },
    {
      "inputs": [
        {
          "internalType": "address",
          "name": "newAdmin",
          "type": "address"
        }
      ],
      "name": "transferOwnership",
      "outputs": [],
      "stateMutability": "nonpayable",
      "type": "function"
    }
  ],
  "transactionHash": "0x0474c5a58c30f6a3375283a44d829a998b1405d741f8f4e06db1a9c665a39b36",
  "args": [],
  "solcInputHash": "c8ed407c5bc4742509ab73aae2d90b42",
  "bytecode": "0x60a06040523060805234801561001457600080fd5b506080516118336100306000396000610da101526118336000f3fe60806040526004361061011b5760003560e01c806301ffc9a714610120578063240028e814610155578063248a9ca3146101855780632692c59f146101b35780632f2ff15d146101d557806336568abe146101f5578063389ed26714610215578063530208f2146102375780635c975abb1461025757806360b5bb3f1461026d5780636c4624c31461028d5780636d69fcaf146102ad57806376319190146102cd57806391d14854146102ed578063a217fddf1461030d578063b8e9744c14610322578063be831a2e14610342578063d547741f14610362578063da0c1a8814610382578063ebdf690f146103a2578063f2fde38b146103c4578063f48ab4e0146101d3578063f851a440146103e4578063fbab97401461041c575b600080fd5b34801561012c57600080fd5b5061014061013b366004611270565b61043c565b60405190151581526020015b60405180910390f35b34801561016157600080fd5b506101406101703660046112b2565b60996020526000908152604090205460ff1681565b34801561019157600080fd5b506101a56101a03660046112cf565b610473565b60405190815260200161014c565b3480156101bf57600080fd5b506101d36101ce3660046112cf565b610488565b005b3480156101e157600080fd5b506101d36101f03660046112e8565b6104a7565b34801561020157600080fd5b506101d36102103660046112e8565b6104c9565b34801561022157600080fd5b506101a56000805160206117de83398151915281565b34801561024357600080fd5b506101d3610252366004611318565b61054c565b34801561026357600080fd5b506101a560985481565b34801561027957600080fd5b506101d361028836600461138a565b610594565b34801561029957600080fd5b506101d36102a8366004611441565b610705565b3480156102b957600080fd5b506101d36102c83660046112b2565b61071d565b3480156102d957600080fd5b506101d36102e83660046112b2565b6107fa565b3480156102f957600080fd5b506101406103083660046112e8565b6108c7565b34801561031957600080fd5b506101a5600081565b61033561033036600461146d565b6108f2565b60405161014c919061156c565b34801561034e57600080fd5b506101d361035d36600461157f565b61097b565b34801561036e57600080fd5b506101d361037d3660046112e8565b61098c565b34801561038e57600080fd5b506101d361039d3660046115a1565b6109a9565b3480156103ae57600080fd5b506101a56000805160206117be83398151915281565b3480156103d057600080fd5b506101d36103df3660046112b2565b610a81565b3480156103f057600080fd5b50609754610404906001600160a01b031681565b6040516001600160a01b03909116815260200161014c565b34801561042857600080fd5b506101d36104373660046112cf565b610ba3565b60006001600160e01b03198216637965db0b60e01b148061046d57506301ffc9a760e01b6001600160e01b03198316145b92915050565b60009081526065602052604090206001015490565b6000805160206117de8339815191526104a18133610c45565b50609855565b6104b082610473565b6104ba8133610c45565b6104c48383610ca9565b505050565b6001600160a01b038116331461053e5760405162461bcd60e51b815260206004820152602f60248201527f416363657373436f6e74726f6c3a2063616e206f6e6c792072656e6f756e636560448201526e103937b632b9903337b91039b2b63360891b60648201526084015b60405180910390fd5b6105488282610d2f565b5050565b60006105588133610c45565b6040516001600160a01b0384169083156108fc029084906000818181858888f1935050505015801561058e573d6000803e3d6000fd5b50505050565b600054610100900460ff166105af5760005460ff16156105b3565b303b155b6105cf5760405162461bcd60e51b8152600401610535906115e2565b600054610100900460ff161580156105f1576000805461ffff19166101011790555b60005b83518110156106cd5760006001600160a01b031684828151811061061a5761061a611630565b60200260200101516001600160a01b031614156106715760405162461bcd60e51b8152602060048201526015602482015274494e56414c49445f544f4b454e5f4144445245535360581b6044820152606401610535565b60016099600086848151811061068957610689611630565b6020908102919091018101516001600160a01b03168252810191909152604001600020805460ff1916911515919091179055806106c58161165c565b9150506105f4565b506106d782610ba3565b6106ef6000805160206117be83398151915233610ca9565b80156104c4576000805461ff0019169055505050565b60006107118133610c45565b50825491821816189055565b6000805160206117be8339815191526107368133610c45565b6001600160a01b03821660009081526099602052604090205460ff16156107965760405162461bcd60e51b8152602060048201526014602482015273544f4b454e5f414c52454144595f45584953545360601b6044820152606401610535565b6001600160a01b03821660008181526099602052604090819020805460ff19166001179055513391907f7156d0b8d9ed8d1117b97d76a15a304bad2749fc23251c2c7ed65a0698952850906107ee9042815260200190565b60405180910390a35050565b6000805160206117be8339815191526108138133610c45565b6001600160a01b03821660009081526099602052604090205460ff166108725760405162461bcd60e51b81526020600482015260146024820152731513d2d15397d113d154d7d393d517d1561254d560621b6044820152606401610535565b6001600160a01b03821660008181526099602052604090819020805460ff19169055513391907feddce3117927831e55f862ee4b16c60ba431908fc8404f5a2d40c2ac163c3b14906107ee9042815260200190565b60009182526065602090815260408084206001600160a01b0393909316845291905290205460ff1690565b606060006109008133610c45565b610908610d96565b600080856001600160a01b0316856040516109239190611677565b600060405180830381855af49150503d806000811461095e576040519150601f19603f3d011682016040523d82523d6000602084013e610963565b606091505b50915091508161097257600080fd5b95945050505050565b60006109878133610c45565b509055565b61099582610473565b61099f8133610c45565b6104c48383610d2f565b60018060985416600014806109c457506109c46000336108c7565b6109f95760405162461bcd60e51b815260206004820152600660248201526514185d5cd95960d21b6044820152606401610535565b6000610a058133610c45565b6001600160a01b03841660009081526099602052604090205460ff16610a665760405162461bcd60e51b81526020600482015260166024820152751513d2d15397d254d7d393d517d4d5541413d495115160521b6044820152606401610535565b610a7a6001600160a01b0385168685610dcc565b5050505050565b6000610a8d8133610c45565b6001600160a01b038216610ad55760405162461bcd60e51b815260206004820152600f60248201526e494e56414c49445f4144445245535360881b6044820152606401610535565b6097546001600160a01b0383811691161415610b285760405162461bcd60e51b815260206004820152601260248201527153414d455f41444d494e5f4144445245535360701b6044820152606401610535565b610b33600083610ca9565b609780546001600160a01b0319166001600160a01b038416179055610b59600033610d2f565b7f8be0079c531659141344cd1fd0a4f28419497f9722a3daafe3b4186f6b6457e033604080516001600160a01b03928316815291851660208301520160405180910390a15050565b565b600054610100900460ff16610bbe5760005460ff1615610bc2565b303b155b610bde5760405162461bcd60e51b8152600401610535906115e2565b600054610100900460ff16158015610c00576000805461ffff19166101011790555b610c08610e1e565b6098829055610c18600033610ca9565b610c306000805160206117de83398151915233610ca9565b8015610548576000805461ff00191690555050565b610c4f82826108c7565b61054857610c67816001600160a01b03166014610e5d565b610c72836020610e5d565b604051602001610c83929190611693565b60408051601f198184030181529082905262461bcd60e51b82526105359160040161156c565b610cb382826108c7565b6105485760008281526065602090815260408083206001600160a01b03851684529091529020805460ff19166001179055610ceb3390565b6001600160a01b0316816001600160a01b0316837f2f8788117e7eff1d82e926ec794901d17c78024a50270940304540a733656f0d60405160405180910390a45050565b610d3982826108c7565b156105485760008281526065602090815260408083206001600160a01b0385168085529252808320805460ff1916905551339285917ff6391f5c32d9c69d2a47ea670b442974b53935d1edc7fd64eb21e047a839171b9190a45050565b306001600160a01b037f0000000000000000000000000000000000000000000000000000000000000000161415610ba157600080fd5b604080516001600160a01b038416602482015260448082018490528251808303909101815260649091019091526020810180516001600160e01b031663a9059cbb60e01b1790526104c4908490610fff565b600054610100900460ff16610e455760405162461bcd60e51b815260040161053590611702565b610e4d6110d1565b610e556110d1565b610ba16110d1565b60606000610e6c83600261174d565b610e7790600261176c565b6001600160401b03811115610e8e57610e8e611344565b6040519080825280601f01601f191660200182016040528015610eb8576020820181803683370190505b509050600360fc1b81600081518110610ed357610ed3611630565b60200101906001600160f81b031916908160001a905350600f60fb1b81600181518110610f0257610f02611630565b60200101906001600160f81b031916908160001a9053506000610f2684600261174d565b610f3190600161176c565b90505b6001811115610fa9576f181899199a1a9b1b9c1cb0b131b232b360811b85600f1660108110610f6557610f65611630565b1a60f81b828281518110610f7b57610f7b611630565b60200101906001600160f81b031916908160001a90535060049490941c93610fa281611784565b9050610f34565b508315610ff85760405162461bcd60e51b815260206004820181905260248201527f537472696e67733a20686578206c656e67746820696e73756666696369656e746044820152606401610535565b9392505050565b6000611054826040518060400160405280602081526020017f5361666545524332303a206c6f772d6c6576656c2063616c6c206661696c6564815250856001600160a01b03166110f89092919063ffffffff16565b8051909150156104c45780806020019051810190611072919061179b565b6104c45760405162461bcd60e51b815260206004820152602a60248201527f5361666545524332303a204552433230206f7065726174696f6e20646964206e6044820152691bdd081cdd58d8d9595960b21b6064820152608401610535565b600054610100900460ff16610ba15760405162461bcd60e51b815260040161053590611702565b6060611107848460008561110f565b949350505050565b6060824710156111705760405162461bcd60e51b815260206004820152602660248201527f416464726573733a20696e73756666696369656e742062616c616e636520666f6044820152651c8818d85b1b60d21b6064820152608401610535565b843b6111be5760405162461bcd60e51b815260206004820152601d60248201527f416464726573733a2063616c6c20746f206e6f6e2d636f6e74726163740000006044820152606401610535565b600080866001600160a01b031685876040516111da9190611677565b60006040518083038185875af1925050503d8060008114611217576040519150601f19603f3d011682016040523d82523d6000602084013e61121c565b606091505b509150915061122c828286611237565b979650505050505050565b60608315611246575081610ff8565b8251156112565782518084602001fd5b8160405162461bcd60e51b8152600401610535919061156c565b60006020828403121561128257600080fd5b81356001600160e01b031981168114610ff857600080fd5b6001600160a01b03811681146112af57600080fd5b50565b6000602082840312156112c457600080fd5b8135610ff88161129a565b6000602082840312156112e157600080fd5b5035919050565b600080604083850312156112fb57600080fd5b82359150602083013561130d8161129a565b809150509250929050565b6000806040838503121561132b57600080fd5b82356113368161129a565b946020939093013593505050565b634e487b7160e01b600052604160045260246000fd5b604051601f8201601f191681016001600160401b038111828210171561138257611382611344565b604052919050565b6000806040838503121561139d57600080fd5b82356001600160401b03808211156113b457600080fd5b818501915085601f8301126113c857600080fd5b81356020828211156113dc576113dc611344565b8160051b92506113ed81840161135a565b828152928401810192818101908985111561140757600080fd5b948201945b8486101561143157853593506114218461129a565b838252948201949082019061140c565b9997909101359750505050505050565b60008060006060848603121561145657600080fd5b505081359360208301359350604090920135919050565b6000806040838503121561148057600080fd5b823561148b8161129a565b91506020838101356001600160401b03808211156114a857600080fd5b818601915086601f8301126114bc57600080fd5b8135818111156114ce576114ce611344565b6114e0601f8201601f1916850161135a565b915080825287848285010111156114f657600080fd5b80848401858401376000848284010152508093505050509250929050565b60005b8381101561152f578181015183820152602001611517565b8381111561058e5750506000910152565b60008151808452611558816020860160208601611514565b601f01601f19169290920160200192915050565b602081526000610ff86020830184611540565b6000806040838503121561159257600080fd5b50508035926020909101359150565b6000806000606084860312156115b657600080fd5b83356115c18161129a565b925060208401356115d18161129a565b929592945050506040919091013590565b6020808252602e908201527f496e697469616c697a61626c653a20636f6e747261637420697320616c72656160408201526d191e481a5b9a5d1a585b1a5e995960921b606082015260800190565b634e487b7160e01b600052603260045260246000fd5b634e487b7160e01b600052601160045260246000fd5b600060001982141561167057611670611646565b5060010190565b60008251611689818460208701611514565b9190910192915050565b76020b1b1b2b9b9a1b7b73a3937b61d1030b1b1b7bab73a1604d1b8152600083516116c5816017850160208801611514565b7001034b99036b4b9b9b4b733903937b6329607d1b60179184019182015283516116f6816028840160208801611514565b01602801949350505050565b6020808252602b908201527f496e697469616c697a61626c653a20636f6e7472616374206973206e6f74206960408201526a6e697469616c697a696e6760a81b606082015260800190565b600081600019048311821515161561176757611767611646565b500290565b6000821982111561177f5761177f611646565b500190565b60008161179357611793611646565b506000190190565b6000602082840312156117ad57600080fd5b81518015158114610ff857600080fdfeede9dcdb0ce99dc7cec9c7be9246ad08b37853683ad91569c187b647ddf5e21c139c2898040ef16910dc9f44dc697df79363da767d8bc92f2e310312b816e46da26469706673582212200662e0aee59e111c353dbbabee4e5dbdf1ba72c83523364d7faca2c091542fa464736f6c634300080a0033",
  "devdoc": {
    "author": "Aurora Team",
    "details": "Implementation of the treasury contract      This contract is holding all the aurora staking and streams funds.      It inherits adminControlled which gives admin more privilegs over this      this contract.",
    "kind": "dev",
    "methods": {
      "__AdminControlled_init(uint256)": {
        "details": "__AdminControlled_init initializes this contract, setting pause flags and granting admin roles.",
        "params": {
          "_flags": "flags variable will be used for pausing this contract."
        }
      },
      "addSupportedToken(address)": {
        "params": {
          "_token": "stream ERC20 token address"
        }
      },
      "adminDelegatecall(address,bytes)": {
        "custom:oz-upgrades-unsafe-allow": "delegatecall",
        "details": "adminDelegatecall allows this contract to delegate calls to a target contract and execute it in the context of this contract. Only default admin role can call this function.",
        "params": {
          "data": "is the ABI encoded function signature and its values.",
          "target": "the target contract address"
        }
      },
      "adminPause(uint256)": {
        "details": "adminPause pauses this contract. Only pause role or default admin role can access this function.",
        "params": {
          "flags": "flags variable is used for pausing this contract."
        }
      },
      "adminReceiveEth()": {
        "details": "adminReceiveEth allows this contract to receive ETH anyone can call this function"
      },
      "adminSendEth(address,uint256)": {
        "details": "adminSendEth sends ETH from this contract to destination only default admin role can call this function",
        "params": {
          "amount": "of ETH",
          "destination": "is the receiver address"
        }
      },
      "adminSstore(uint256,uint256)": {
        "details": "adminSstore updates the state variable value. only default admin role can call this function.",
        "params": {
          "key": "is the storage slot of the state variable",
          "value": "is the state variable value"
        }
      },
      "adminSstoreWithMask(uint256,uint256,uint256)": {
        "details": "adminSstoreWithMask similar to adminSstore except it updates the state variable value after xor-ing this value with the old value and the mask, so the new value should be a result of xor(and(xor(value, oldval), mask), oldval). Only default admin role can call this function.",
        "params": {
          "key": "is the storage slot of the state variable",
          "mask": "this value is used in calculating the new value",
          "value": "is the state variable value"
        }
      },
      "getRoleAdmin(bytes32)": {
        "details": "Returns the admin role that controls `role`. See {grantRole} and {revokeRole}. To change a role's admin, use {_setRoleAdmin}."
      },
      "grantRole(bytes32,address)": {
        "details": "Grants `role` to `account`. If `account` had not been already granted `role`, emits a {RoleGranted} event. Requirements: - the caller must have ``role``'s admin role."
      },
      "hasRole(bytes32,address)": {
        "details": "Returns `true` if `account` has been granted `role`."
      },
      "initialize(address[],uint256)": {
        "params": {
          "_supportedTokens": "list of supported tokens"
        }
      },
      "payRewards(address,address,uint256)": {
        "details": "Used by jet staking contracts",
        "params": {
          "_amount": "token to transfer to user",
          "_token": "token to transfer to user",
          "_user": "user to transfer tokens to"
        }
      },
      "removeSupportedToken(address)": {
        "params": {
          "_token": "stream ERC20 token address"
        }
      },
      "renounceRole(bytes32,address)": {
        "details": "Revokes `role` from the calling account. Roles are often managed via {grantRole} and {revokeRole}: this function's purpose is to provide a mechanism for accounts to lose their privileges if they are compromised (such as when a trusted device is misplaced). If the calling account had been revoked `role`, emits a {RoleRevoked} event. Requirements: - the caller must be `account`."
      },
      "revokeRole(bytes32,address)": {
        "details": "Revokes `role` from `account`. If `account` had been granted `role`, emits a {RoleRevoked} event. Requirements: - the caller must have ``role``'s admin role."
      },
      "supportsInterface(bytes4)": {
        "details": "See {IERC165-supportsInterface}."
      },
      "transferOwnership(address)": {
        "details": "transferOwnership updates the current admin address with a new one. This admin is used for colleting dust tokens, and releasing some locked funds. It is used by the staking contract. It must be assinged to the community treasury wallet that will be governed by DAO.",
        "params": {
          "newAdmin": "new admin address."
        }
      }
    },
    "title": "Treasury",
    "version": 1
  },
  "userdoc": {
    "kind": "user",
    "methods": {
      "addSupportedToken(address)": {
        "notice": "adds token as a supproted rewards token by Treasury supported tokens means any future stream token should be whitelisted here"
      },
      "initialize(address[],uint256)": {
        "notice": "initializes ownable Treasury with list of managers and supported tokens"
      },
      "payRewards(address,address,uint256)": {
        "notice": "transfers token amount from Treasury balance to user."
      },
      "removeSupportedToken(address)": {
        "notice": "removed token as a supproted rewards token by Treasury"
      }
    },
    "version": 1
  },
  "storageLayout": {
    "storage": [
      {
        "astId": 416,
        "contract": "contracts/Treasury.sol:Treasury",
        "label": "_initialized",
        "offset": 0,
        "slot": "0",
        "type": "t_bool"
      },
      {
        "astId": 419,
        "contract": "contracts/Treasury.sol:Treasury",
        "label": "_initializing",
        "offset": 1,
        "slot": "0",
        "type": "t_bool"
      },
      {
        "astId": 1073,
        "contract": "contracts/Treasury.sol:Treasury",
        "label": "__gap",
        "offset": 0,
        "slot": "1",
        "type": "t_array(t_uint256)50_storage"
      },
      {
        "astId": 1322,
        "contract": "contracts/Treasury.sol:Treasury",
        "label": "__gap",
        "offset": 0,
        "slot": "51",
        "type": "t_array(t_uint256)50_storage"
      },
      {
        "astId": 48,
        "contract": "contracts/Treasury.sol:Treasury",
        "label": "_roles",
        "offset": 0,
        "slot": "101",
        "type": "t_mapping(t_bytes32,t_struct(RoleData)43_storage)"
      },
      {
        "astId": 335,
        "contract": "contracts/Treasury.sol:Treasury",
        "label": "__gap",
        "offset": 0,
        "slot": "102",
        "type": "t_array(t_uint256)49_storage"
      },
      {
        "astId": 1347,
        "contract": "contracts/Treasury.sol:Treasury",
        "label": "admin",
        "offset": 0,
        "slot": "151",
        "type": "t_address"
      },
      {
        "astId": 1349,
        "contract": "contracts/Treasury.sol:Treasury",
        "label": "paused",
        "offset": 0,
        "slot": "152",
        "type": "t_uint256"
      },
      {
        "astId": 4757,
        "contract": "contracts/Treasury.sol:Treasury",
        "label": "isSupportedToken",
        "offset": 0,
        "slot": "153",
        "type": "t_mapping(t_address,t_bool)"
      }
    ],
    "types": {
      "t_address": {
        "encoding": "inplace",
        "label": "address",
        "numberOfBytes": "20"
      },
      "t_array(t_uint256)49_storage": {
        "base": "t_uint256",
        "encoding": "inplace",
        "label": "uint256[49]",
        "numberOfBytes": "1568"
      },
      "t_array(t_uint256)50_storage": {
        "base": "t_uint256",
        "encoding": "inplace",
        "label": "uint256[50]",
        "numberOfBytes": "1600"
      },
      "t_bool": {
        "encoding": "inplace",
        "label": "bool",
        "numberOfBytes": "1"
      },
      "t_bytes32": {
        "encoding": "inplace",
        "label": "bytes32",
        "numberOfBytes": "32"
      },
      "t_mapping(t_address,t_bool)": {
        "encoding": "mapping",
        "key": "t_address",
        "label": "mapping(address => bool)",
        "numberOfBytes": "32",
        "value": "t_bool"
      },
      "t_mapping(t_bytes32,t_struct(RoleData)43_storage)": {
        "encoding": "mapping",
        "key": "t_bytes32",
        "label": "mapping(bytes32 => struct AccessControlUpgradeable.RoleData)",
        "numberOfBytes": "32",
        "value": "t_struct(RoleData)43_storage"
      },
      "t_struct(RoleData)43_storage": {
        "encoding": "inplace",
        "label": "struct AccessControlUpgradeable.RoleData",
        "members": [
          {
            "astId": 40,
            "contract": "contracts/Treasury.sol:Treasury",
            "label": "members",
            "offset": 0,
            "slot": "0",
            "type": "t_mapping(t_address,t_bool)"
          },
          {
            "astId": 42,
            "contract": "contracts/Treasury.sol:Treasury",
            "label": "adminRole",
            "offset": 0,
            "slot": "1",
            "type": "t_bytes32"
          }
        ],
        "numberOfBytes": "64"
      },
      "t_uint256": {
        "encoding": "inplace",
        "label": "uint256",
        "numberOfBytes": "32"
      }
    }
  }
}