{
  "abi": [
    {
      "anonymous": false,
      "inputs": [
        {
          "indexed": false,
          "internalType": "address",
          "name": "previousAdmin",
          "type": "address"
        },
        {
          "indexed": false,
          "internalType": "address",
          "name": "newAdmin",
          "type": "address"
        }
      ],
      "name": "AdminChanged",
      "type": "event"
    },
    {
      "anonymous": false,
      "inputs": [
        {
          "indexed": true,
          "internalType": "address",
          "name": "beacon",
          "type": "address"
        }
      ],
      "name": "BeaconUpgraded",
      "type": "event"
    },
    {
      "anonymous": false,
      "inputs": [
        {
          "indexed": true,
          "internalType": "uint256",
          "name": "streamId",
          "type": "uint256"
        },
        {
          "indexed": true,
          "internalType": "address",
          "name": "user",
          "type": "address"
        },
        {
          "indexed": false,
          "internalType": "uint256",
          "name": "amount",
          "type": "uint256"
        }
      ],
      "name": "Pending",
      "type": "event"
    },
    {
      "anonymous": false,
      "inputs": [
        {
          "indexed": true,
          "internalType": "uint256",
          "name": "streamId",
          "type": "uint256"
        },
        {
          "indexed": true,
          "internalType": "address",
          "name": "user",
          "type": "address"
        },
        {
          "indexed": false,
          "internalType": "uint256",
          "name": "amount",
          "type": "uint256"
        }
      ],
      "name": "Released",
      "type": "event"
    },
    {
      "anonymous": false,
      "inputs": [
        {
          "indexed": true,
          "internalType": "bytes32",
          "name": "role",
          "type": "bytes32"
        },
        {
          "indexed": true,
          "internalType": "bytes32",
          "name": "previousAdminRole",
          "type": "bytes32"
        },
        {
          "indexed": true,
          "internalType": "bytes32",
          "name": "newAdminRole",
          "type": "bytes32"
        }
      ],
      "name": "RoleAdminChanged",
      "type": "event"
    },
    {
      "anonymous": false,
      "inputs": [
        {
          "indexed": true,
          "internalType": "bytes32",
          "name": "role",
          "type": "bytes32"
        },
        {
          "indexed": true,
          "internalType": "address",
          "name": "account",
          "type": "address"
        },
        {
          "indexed": true,
          "internalType": "address",
          "name": "sender",
          "type": "address"
        }
      ],
      "name": "RoleGranted",
      "type": "event"
    },
    {
      "anonymous": false,
      "inputs": [
        {
          "indexed": true,
          "internalType": "bytes32",
          "name": "role",
          "type": "bytes32"
        },
        {
          "indexed": true,
          "internalType": "address",
          "name": "account",
          "type": "address"
        },
        {
          "indexed": true,
          "internalType": "address",
          "name": "sender",
          "type": "address"
        }
      ],
      "name": "RoleRevoked",
      "type": "event"
    },
    {
      "anonymous": false,
      "inputs": [
        {
          "indexed": true,
          "internalType": "address",
          "name": "user",
          "type": "address"
        },
        {
          "indexed": false,
          "internalType": "uint256",
          "name": "amount",
          "type": "uint256"
        },
        {
          "indexed": false,
          "internalType": "uint256",
          "name": "shares",
          "type": "uint256"
        }
      ],
      "name": "Staked",
      "type": "event"
    },
    {
      "anonymous": false,
      "inputs": [
        {
          "indexed": true,
          "internalType": "uint256",
          "name": "streamId",
          "type": "uint256"
        },
        {
          "indexed": true,
          "internalType": "address",
          "name": "owner",
          "type": "address"
        },
        {
          "indexed": true,
          "internalType": "address",
          "name": "token",
          "type": "address"
        },
        {
          "indexed": false,
          "internalType": "uint256",
          "name": "tokenAmount",
          "type": "uint256"
        },
        {
          "indexed": false,
          "internalType": "uint256",
          "name": "auroraAmount",
          "type": "uint256"
        }
      ],
      "name": "StreamCreated",
      "type": "event"
    },
    {
      "anonymous": false,
      "inputs": [
        {
          "indexed": true,
          "internalType": "uint256",
          "name": "streamId",
          "type": "uint256"
        },
        {
          "indexed": true,
          "internalType": "address",
          "name": "owner",
          "type": "address"
        },
        {
          "indexed": false,
          "internalType": "uint256",
          "name": "amount",
          "type": "uint256"
        }
      ],
      "name": "StreamOwnerRewardReleased",
      "type": "event"
    },
    {
      "anonymous": false,
      "inputs": [
        {
          "indexed": true,
          "internalType": "uint256",
          "name": "streamId",
          "type": "uint256"
        },
        {
          "indexed": true,
          "internalType": "address",
          "name": "owner",
          "type": "address"
        },
        {
          "indexed": true,
          "internalType": "address",
          "name": "token",
          "type": "address"
        }
      ],
      "name": "StreamProposalCancelled",
      "type": "event"
    },
    {
      "anonymous": false,
      "inputs": [
        {
          "indexed": true,
          "internalType": "uint256",
          "name": "streamId",
          "type": "uint256"
        },
        {
          "indexed": true,
          "internalType": "address",
          "name": "owner",
          "type": "address"
        },
        {
          "indexed": true,
          "internalType": "address",
          "name": "token",
          "type": "address"
        },
        {
          "indexed": false,
          "internalType": "uint256",
          "name": "maxDepositAmount",
          "type": "uint256"
        },
        {
          "indexed": false,
          "internalType": "uint256",
          "name": "auroraDepositAmount",
          "type": "uint256"
        }
      ],
      "name": "StreamProposed",
      "type": "event"
    },
    {
      "anonymous": false,
      "inputs": [
        {
          "indexed": true,
          "internalType": "uint256",
          "name": "streamId",
          "type": "uint256"
        },
        {
          "indexed": true,
          "internalType": "address",
          "name": "owner",
          "type": "address"
        },
        {
          "indexed": true,
          "internalType": "address",
          "name": "token",
          "type": "address"
        }
      ],
      "name": "StreamRemoved",
      "type": "event"
    },
    {
      "anonymous": false,
      "inputs": [
        {
          "indexed": true,
          "internalType": "address",
          "name": "user",
          "type": "address"
        },
        {
          "indexed": false,
          "internalType": "uint256",
          "name": "amount",
          "type": "uint256"
        }
      ],
      "name": "Unstaked",
      "type": "event"
    },
    {
      "anonymous": false,
      "inputs": [
        {
          "indexed": true,
          "internalType": "address",
          "name": "implementation",
          "type": "address"
        }
      ],
      "name": "Upgraded",
      "type": "event"
    },
    {
      "inputs": [],
      "name": "AIRDROP_ROLE",
      "outputs": [
        {
          "internalType": "bytes32",
          "name": "",
          "type": "bytes32"
        }
      ],
      "stateMutability": "view",
      "type": "function"
    },
    {
      "inputs": [],
      "name": "CLAIM_ROLE",
      "outputs": [
        {
          "internalType": "bytes32",
          "name": "",
          "type": "bytes32"
        }
      ],
      "stateMutability": "view",
      "type": "function"
    },
    {
      "inputs": [],
      "name": "DEFAULT_ADMIN_ROLE",
      "outputs": [
        {
          "internalType": "bytes32",
          "name": "",
          "type": "bytes32"
        }
      ],
      "stateMutability": "view",
      "type": "function"
    },
    {
      "inputs": [],
      "name": "FOUR_YEARS",
      "outputs": [
        {
          "internalType": "uint256",
          "name": "",
          "type": "uint256"
        }
      ],
      "stateMutability": "view",
      "type": "function"
    },
    {
      "inputs": [],
      "name": "ONE_MONTH",
      "outputs": [
        {
          "internalType": "uint256",
          "name": "",
          "type": "uint256"
        }
      ],
      "stateMutability": "view",
      "type": "function"
    },
    {
      "inputs": [],
      "name": "PAUSE_ROLE",
      "outputs": [
        {
          "internalType": "bytes32",
          "name": "",
          "type": "bytes32"
        }
      ],
      "stateMutability": "view",
      "type": "function"
    },
    {
      "inputs": [],
      "name": "STREAM_MANAGER_ROLE",
      "outputs": [
        {
          "internalType": "bytes32",
          "name": "",
          "type": "bytes32"
        }
      ],
      "stateMutability": "view",
      "type": "function"
    },
    {
      "inputs": [
        {
          "internalType": "address",
          "name": "target",
          "type": "address"
        },
        {
          "internalType": "bytes",
          "name": "data",
          "type": "bytes"
        }
      ],
      "name": "adminDelegatecall",
      "outputs": [
        {
          "internalType": "bytes",
          "name": "",
          "type": "bytes"
        }
      ],
      "stateMutability": "payable",
      "type": "function"
    },
    {
      "inputs": [
        {
          "internalType": "uint256",
          "name": "flags",
          "type": "uint256"
        }
      ],
      "name": "adminPause",
      "outputs": [],
      "stateMutability": "nonpayable",
      "type": "function"
    },
    {
      "inputs": [
        {
          "internalType": "uint256",
          "name": "key",
          "type": "uint256"
        },
        {
          "internalType": "uint256",
          "name": "value",
          "type": "uint256"
        }
      ],
      "name": "adminSstore",
      "outputs": [],
      "stateMutability": "nonpayable",
      "type": "function"
    },
    {
      "inputs": [
        {
          "internalType": "uint256",
          "name": "key",
          "type": "uint256"
        },
        {
          "internalType": "uint256",
          "name": "value",
          "type": "uint256"
        },
        {
          "internalType": "uint256",
          "name": "mask",
          "type": "uint256"
        }
      ],
      "name": "adminSstoreWithMask",
      "outputs": [],
      "stateMutability": "nonpayable",
      "type": "function"
    },
    {
      "inputs": [],
      "name": "auroraToken",
      "outputs": [
        {
          "internalType": "address",
          "name": "",
          "type": "address"
        }
      ],
      "stateMutability": "view",
      "type": "function"
    },
    {
      "inputs": [
        {
          "internalType": "address",
          "name": "account",
          "type": "address"
        },
        {
          "internalType": "uint256[]",
          "name": "streamIds",
          "type": "uint256[]"
        }
      ],
      "name": "batchClaimOnBehalfOfAnotherUser",
      "outputs": [],
      "stateMutability": "nonpayable",
      "type": "function"
    },
    {
      "inputs": [
        {
          "internalType": "address[]",
          "name": "accounts",
          "type": "address[]"
        },
        {
          "internalType": "uint256[]",
          "name": "streamIds",
          "type": "uint256[]"
        }
      ],
      "name": "batchClaimOnBehalfOfOtherUsers",
      "outputs": [],
      "stateMutability": "nonpayable",
      "type": "function"
    },
    {
      "inputs": [
        {
          "internalType": "uint256[]",
          "name": "streamIds",
          "type": "uint256[]"
        }
      ],
      "name": "batchMoveRewardsToPending",
      "outputs": [],
      "stateMutability": "nonpayable",
      "type": "function"
    },
    {
      "inputs": [
        {
          "internalType": "uint256[]",
          "name": "streamIds",
          "type": "uint256[]"
        }
      ],
      "name": "batchWithdraw",
      "outputs": [],
      "stateMutability": "nonpayable",
      "type": "function"
    },
    {
      "inputs": [
        {
          "internalType": "uint256",
          "name": "streamId",
          "type": "uint256"
        }
      ],
      "name": "cancelStreamProposal",
      "outputs": [],
      "stateMutability": "nonpayable",
      "type": "function"
    },
    {
      "inputs": [
        {
          "internalType": "address",
          "name": "account",
          "type": "address"
        }
      ],
      "name": "claimAllOnBehalfOfAnotherUser",
      "outputs": [],
      "stateMutability": "nonpayable",
      "type": "function"
    },
    {
      "inputs": [
        {
          "internalType": "address[]",
          "name": "accounts",
          "type": "address[]"
        }
      ],
      "name": "claimAllOnBehalfOfOtherUsers",
      "outputs": [],
      "stateMutability": "nonpayable",
      "type": "function"
    },
    {
      "inputs": [
        {
          "internalType": "address",
          "name": "account",
          "type": "address"
        },
        {
          "internalType": "uint256",
          "name": "streamId",
          "type": "uint256"
        }
      ],
      "name": "claimOnBehalfOfAnotherUser",
      "outputs": [],
      "stateMutability": "nonpayable",
      "type": "function"
    },
    {
      "inputs": [
        {
          "internalType": "uint256",
          "name": "streamId",
          "type": "uint256"
        },
        {
          "internalType": "uint256",
          "name": "rewardTokenAmount",
          "type": "uint256"
        }
      ],
      "name": "createStream",
      "outputs": [],
      "stateMutability": "nonpayable",
      "type": "function"
    },
    {
      "inputs": [
        {
          "internalType": "uint256",
          "name": "streamId",
          "type": "uint256"
        },
        {
          "internalType": "address",
          "name": "account",
          "type": "address"
        }
      ],
      "name": "getAmountOfShares",
      "outputs": [
        {
          "internalType": "uint256",
          "name": "",
          "type": "uint256"
        }
      ],
      "stateMutability": "view",
      "type": "function"
    },
    {
      "inputs": [
        {
          "internalType": "uint256",
          "name": "streamId",
          "type": "uint256"
        }
      ],
      "name": "getLatestRewardPerShare",
      "outputs": [
        {
          "internalType": "uint256",
          "name": "",
          "type": "uint256"
        }
      ],
      "stateMutability": "view",
      "type": "function"
    },
    {
      "inputs": [
        {
          "internalType": "uint256",
          "name": "streamId",
          "type": "uint256"
        },
        {
          "internalType": "address",
          "name": "account",
          "type": "address"
        }
      ],
      "name": "getPending",
      "outputs": [
        {
          "internalType": "uint256",
          "name": "",
          "type": "uint256"
        }
      ],
      "stateMutability": "view",
      "type": "function"
    },
    {
      "inputs": [
        {
          "internalType": "uint256",
          "name": "streamId",
          "type": "uint256"
        },
        {
          "internalType": "address",
          "name": "account",
          "type": "address"
        }
      ],
      "name": "getReleaseTime",
      "outputs": [
        {
          "internalType": "uint256",
          "name": "",
          "type": "uint256"
        }
      ],
      "stateMutability": "view",
      "type": "function"
    },
    {
      "inputs": [
        {
          "internalType": "uint256",
          "name": "streamId",
          "type": "uint256"
        }
      ],
      "name": "getRewardPerShare",
      "outputs": [
        {
          "internalType": "uint256",
          "name": "",
          "type": "uint256"
        }
      ],
      "stateMutability": "view",
      "type": "function"
    },
    {
      "inputs": [
        {
          "internalType": "uint256",
          "name": "streamId",
          "type": "uint256"
        },
        {
          "internalType": "address",
          "name": "account",
          "type": "address"
        }
      ],
      "name": "getRewardPerShareForUser",
      "outputs": [
        {
          "internalType": "uint256",
          "name": "",
          "type": "uint256"
        }
      ],
      "stateMutability": "view",
      "type": "function"
    },
    {
      "inputs": [
        {
          "internalType": "uint256",
          "name": "streamId",
          "type": "uint256"
        },
        {
          "internalType": "uint256",
          "name": "lastUpdate",
          "type": "uint256"
        }
      ],
      "name": "getRewardsAmount",
      "outputs": [
        {
          "internalType": "uint256",
          "name": "",
          "type": "uint256"
        }
      ],
      "stateMutability": "view",
      "type": "function"
    },
    {
      "inputs": [
        {
          "internalType": "bytes32",
          "name": "role",
          "type": "bytes32"
        }
      ],
      "name": "getRoleAdmin",
      "outputs": [
        {
          "internalType": "bytes32",
          "name": "",
          "type": "bytes32"
        }
      ],
      "stateMutability": "view",
      "type": "function"
    },
    {
      "inputs": [
        {
          "internalType": "uint256",
          "name": "streamId",
          "type": "uint256"
        }
      ],
      "name": "getStream",
      "outputs": [
        {
          "internalType": "address",
          "name": "streamOwner",
          "type": "address"
        },
        {
          "internalType": "address",
          "name": "rewardToken",
          "type": "address"
        },
        {
          "internalType": "uint256",
          "name": "auroraDepositAmount",
          "type": "uint256"
        },
        {
          "internalType": "uint256",
          "name": "auroraClaimedAmount",
          "type": "uint256"
        },
        {
          "internalType": "uint256",
          "name": "rewardDepositAmount",
          "type": "uint256"
        },
        {
          "internalType": "uint256",
          "name": "rewardClaimedAmount",
          "type": "uint256"
        },
        {
          "internalType": "uint256",
          "name": "maxDepositAmount",
          "type": "uint256"
        },
        {
          "internalType": "uint256",
          "name": "lastTimeOwnerClaimed",
          "type": "uint256"
        },
        {
          "internalType": "uint256",
          "name": "rps",
          "type": "uint256"
        },
        {
          "internalType": "uint256",
          "name": "tau",
          "type": "uint256"
        },
        {
          "internalType": "enum JetStakingV1.StreamStatus",
          "name": "status",
          "type": "uint8"
        }
      ],
      "stateMutability": "view",
      "type": "function"
    },
    {
      "inputs": [
        {
          "internalType": "uint256",
          "name": "streamId",
          "type": "uint256"
        },
        {
          "internalType": "address",
          "name": "account",
          "type": "address"
        }
      ],
      "name": "getStreamClaimableAmount",
      "outputs": [
        {
          "internalType": "uint256",
          "name": "",
          "type": "uint256"
        }
      ],
      "stateMutability": "view",
      "type": "function"
    },
    {
      "inputs": [
        {
          "internalType": "uint256",
          "name": "streamId",
          "type": "uint256"
        }
      ],
      "name": "getStreamOwnerClaimableAmount",
      "outputs": [
        {
          "internalType": "uint256",
          "name": "",
          "type": "uint256"
        }
      ],
      "stateMutability": "view",
      "type": "function"
    },
    {
      "inputs": [
        {
          "internalType": "uint256",
          "name": "streamId",
          "type": "uint256"
        }
      ],
      "name": "getStreamSchedule",
      "outputs": [
        {
          "internalType": "uint256[]",
          "name": "scheduleTimes",
          "type": "uint256[]"
        },
        {
          "internalType": "uint256[]",
          "name": "scheduleRewards",
          "type": "uint256[]"
        }
      ],
      "stateMutability": "view",
      "type": "function"
    },
    {
      "inputs": [],
      "name": "getStreamsCount",
      "outputs": [
        {
          "internalType": "uint256",
          "name": "",
          "type": "uint256"
        }
      ],
      "stateMutability": "view",
      "type": "function"
    },
    {
      "inputs": [],
      "name": "getTotalAmountOfStakedAurora",
      "outputs": [
        {
          "internalType": "uint256",
          "name": "",
          "type": "uint256"
        }
      ],
      "stateMutability": "view",
      "type": "function"
    },
    {
      "inputs": [
        {
          "internalType": "address",
          "name": "token",
          "type": "address"
        }
      ],
      "name": "getTreasuryBalance",
      "outputs": [
        {
          "internalType": "uint256",
          "name": "",
          "type": "uint256"
        }
      ],
      "stateMutability": "view",
      "type": "function"
    },
    {
      "inputs": [
        {
          "internalType": "address",
          "name": "account",
          "type": "address"
        }
      ],
      "name": "getUserShares",
      "outputs": [
        {
          "internalType": "uint256",
          "name": "",
          "type": "uint256"
        }
      ],
      "stateMutability": "view",
      "type": "function"
    },
    {
      "inputs": [
        {
          "internalType": "address",
          "name": "account",
          "type": "address"
        }
      ],
      "name": "getUserTotalDeposit",
      "outputs": [
        {
          "internalType": "uint256",
          "name": "",
          "type": "uint256"
        }
      ],
      "stateMutability": "view",
      "type": "function"
    },
    {
      "inputs": [
        {
          "internalType": "bytes32",
          "name": "role",
          "type": "bytes32"
        },
        {
          "internalType": "address",
          "name": "account",
          "type": "address"
        }
      ],
      "name": "grantRole",
      "outputs": [],
      "stateMutability": "nonpayable",
      "type": "function"
    },
    {
      "inputs": [
        {
          "internalType": "bytes32",
          "name": "role",
          "type": "bytes32"
        },
        {
          "internalType": "address",
          "name": "account",
          "type": "address"
        }
      ],
      "name": "hasRole",
      "outputs": [
        {
          "internalType": "bool",
          "name": "",
          "type": "bool"
        }
      ],
      "stateMutability": "view",
      "type": "function"
    },
    {
      "inputs": [
        {
          "internalType": "address",
          "name": "aurora",
          "type": "address"
        },
        {
          "internalType": "address",
          "name": "streamOwner",
          "type": "address"
        },
        {
          "internalType": "uint256[]",
          "name": "scheduleTimes",
          "type": "uint256[]"
        },
        {
          "internalType": "uint256[]",
          "name": "scheduleRewards",
          "type": "uint256[]"
        },
        {
          "internalType": "uint256",
          "name": "tauAuroraStream",
          "type": "uint256"
        },
        {
          "internalType": "uint256",
          "name": "_flags",
          "type": "uint256"
        },
        {
          "internalType": "address",
          "name": "_treasury",
          "type": "address"
        },
        {
          "internalType": "uint256",
          "name": "_maxWeight",
          "type": "uint256"
        },
        {
          "internalType": "uint256",
          "name": "_minWeight",
          "type": "uint256"
        }
      ],
      "name": "initialize",
      "outputs": [],
      "stateMutability": "nonpayable",
      "type": "function"
    },
    {
      "inputs": [],
      "name": "maxWeight",
      "outputs": [
        {
          "internalType": "uint256",
          "name": "",
          "type": "uint256"
        }
      ],
      "stateMutability": "view",
      "type": "function"
    },
    {
      "inputs": [],
      "name": "minWeight",
      "outputs": [
        {
          "internalType": "uint256",
          "name": "",
          "type": "uint256"
        }
      ],
      "stateMutability": "view",
      "type": "function"
    },
    {
      "inputs": [],
      "name": "moveAllRewardsToPending",
      "outputs": [],
      "stateMutability": "nonpayable",
      "type": "function"
    },
    {
      "inputs": [
        {
          "internalType": "uint256",
          "name": "streamId",
          "type": "uint256"
        }
      ],
      "name": "moveRewardsToPending",
      "outputs": [],
      "stateMutability": "nonpayable",
      "type": "function"
    },
    {
      "inputs": [],
      "name": "paused",
      "outputs": [
        {
          "internalType": "uint256",
          "name": "",
          "type": "uint256"
        }
      ],
      "stateMutability": "view",
      "type": "function"
    },
    {
      "inputs": [
        {
          "internalType": "address",
          "name": "streamOwner",
          "type": "address"
        },
        {
          "internalType": "address",
          "name": "rewardToken",
          "type": "address"
        },
        {
          "internalType": "uint256",
          "name": "auroraDepositAmount",
          "type": "uint256"
        },
        {
          "internalType": "uint256",
          "name": "maxDepositAmount",
          "type": "uint256"
        },
        {
          "internalType": "uint256",
          "name": "minDepositAmount",
          "type": "uint256"
        },
        {
          "internalType": "uint256[]",
          "name": "scheduleTimes",
          "type": "uint256[]"
        },
        {
          "internalType": "uint256[]",
          "name": "scheduleRewards",
          "type": "uint256[]"
        },
        {
          "internalType": "uint256",
          "name": "tau",
          "type": "uint256"
        }
      ],
      "name": "proposeStream",
      "outputs": [],
      "stateMutability": "nonpayable",
      "type": "function"
    },
    {
      "inputs": [
        {
          "internalType": "uint256",
          "name": "streamId",
          "type": "uint256"
        }
      ],
      "name": "releaseAuroraRewardsToStreamOwner",
      "outputs": [],
      "stateMutability": "nonpayable",
      "type": "function"
    },
    {
      "inputs": [
        {
          "internalType": "uint256",
          "name": "streamId",
          "type": "uint256"
        },
        {
          "internalType": "address",
          "name": "streamFundReceiver",
          "type": "address"
        }
      ],
      "name": "removeStream",
      "outputs": [],
      "stateMutability": "nonpayable",
      "type": "function"
    },
    {
      "inputs": [
        {
          "internalType": "bytes32",
          "name": "role",
          "type": "bytes32"
        },
        {
          "internalType": "address",
          "name": "account",
          "type": "address"
        }
      ],
      "name": "renounceRole",
      "outputs": [],
      "stateMutability": "nonpayable",
      "type": "function"
    },
    {
      "inputs": [
        {
          "internalType": "bytes32",
          "name": "role",
          "type": "bytes32"
        },
        {
          "internalType": "address",
          "name": "account",
          "type": "address"
        }
      ],
      "name": "revokeRole",
      "outputs": [],
      "stateMutability": "nonpayable",
      "type": "function"
    },
    {
      "inputs": [
        {
          "internalType": "uint256",
          "name": "streamId",
          "type": "uint256"
        },
        {
          "internalType": "uint256",
          "name": "start",
          "type": "uint256"
        },
        {
          "internalType": "uint256",
          "name": "end",
          "type": "uint256"
        }
      ],
      "name": "rewardsSchedule",
      "outputs": [
        {
          "internalType": "uint256",
          "name": "",
          "type": "uint256"
        }
      ],
      "stateMutability": "view",
      "type": "function"
    },
    {
      "inputs": [
        {
          "internalType": "uint256",
          "name": "amount",
          "type": "uint256"
        }
      ],
      "name": "stake",
      "outputs": [],
      "stateMutability": "nonpayable",
      "type": "function"
    },
    {
      "inputs": [
        {
          "internalType": "address",
          "name": "account",
          "type": "address"
        },
        {
          "internalType": "uint256",
          "name": "amount",
          "type": "uint256"
        }
      ],
      "name": "stakeOnBehalfOfAnotherUser",
      "outputs": [],
      "stateMutability": "nonpayable",
      "type": "function"
    },
    {
      "inputs": [
        {
          "internalType": "address[]",
          "name": "accounts",
          "type": "address[]"
        },
        {
          "internalType": "uint256[]",
          "name": "amounts",
          "type": "uint256[]"
        },
        {
          "internalType": "uint256",
          "name": "batchAmount",
          "type": "uint256"
        }
      ],
      "name": "stakeOnBehalfOfOtherUsers",
      "outputs": [],
      "stateMutability": "nonpayable",
      "type": "function"
    },
    {
      "inputs": [
        {
          "internalType": "uint256",
          "name": "streamId",
          "type": "uint256"
        },
        {
          "internalType": "uint256",
          "name": "start",
          "type": "uint256"
        },
        {
          "internalType": "uint256",
          "name": "end",
          "type": "uint256"
        }
      ],
      "name": "startEndScheduleIndex",
      "outputs": [
        {
          "internalType": "uint256",
          "name": "startIndex",
          "type": "uint256"
        },
        {
          "internalType": "uint256",
          "name": "endIndex",
          "type": "uint256"
        }
      ],
      "stateMutability": "view",
      "type": "function"
    },
    {
      "inputs": [],
      "name": "storageVar",
      "outputs": [
        {
          "internalType": "uint256",
          "name": "",
          "type": "uint256"
        }
      ],
      "stateMutability": "view",
      "type": "function"
    },
    {
      "inputs": [
        {
          "internalType": "bytes4",
          "name": "interfaceId",
          "type": "bytes4"
        }
      ],
      "name": "supportsInterface",
      "outputs": [
        {
          "internalType": "bool",
          "name": "",
          "type": "bool"
        }
      ],
      "stateMutability": "view",
      "type": "function"
    },
    {
      "inputs": [],
      "name": "totalAmountOfStakedAurora",
      "outputs": [
        {
          "internalType": "uint256",
          "name": "",
          "type": "uint256"
        }
      ],
      "stateMutability": "view",
      "type": "function"
    },
    {
      "inputs": [],
      "name": "totalAuroraShares",
      "outputs": [
        {
          "internalType": "uint256",
          "name": "",
          "type": "uint256"
        }
      ],
      "stateMutability": "view",
      "type": "function"
    },
    {
      "inputs": [],
      "name": "totalStreamShares",
      "outputs": [
        {
          "internalType": "uint256",
          "name": "",
          "type": "uint256"
        }
      ],
      "stateMutability": "view",
      "type": "function"
    },
    {
      "inputs": [],
      "name": "touchedAt",
      "outputs": [
        {
          "internalType": "uint256",
          "name": "",
          "type": "uint256"
        }
      ],
      "stateMutability": "view",
      "type": "function"
    },
    {
      "inputs": [],
      "name": "treasury",
      "outputs": [
        {
          "internalType": "address",
          "name": "",
          "type": "address"
        }
      ],
      "stateMutability": "view",
      "type": "function"
    },
    {
      "inputs": [
        {
          "internalType": "uint256",
          "name": "amount",
          "type": "uint256"
        }
      ],
      "name": "unstake",
      "outputs": [],
      "stateMutability": "nonpayable",
      "type": "function"
    },
    {
      "inputs": [],
      "name": "unstakeAll",
      "outputs": [],
      "stateMutability": "nonpayable",
      "type": "function"
    },
    {
      "inputs": [
        {
          "internalType": "address",
          "name": "_treasury",
          "type": "address"
        }
      ],
      "name": "updateTreasury",
      "outputs": [],
      "stateMutability": "nonpayable",
      "type": "function"
    },
    {
      "inputs": [
        {
          "internalType": "address",
          "name": "newImplementation",
          "type": "address"
        }
      ],
      "name": "upgradeTo",
      "outputs": [],
      "stateMutability": "nonpayable",
      "type": "function"
    },
    {
      "inputs": [
        {
          "internalType": "address",
          "name": "newImplementation",
          "type": "address"
        },
        {
          "internalType": "bytes",
          "name": "data",
          "type": "bytes"
        }
      ],
      "name": "upgradeToAndCall",
      "outputs": [],
      "stateMutability": "payable",
      "type": "function"
    },
    {
      "inputs": [
        {
          "internalType": "address",
          "name": "",
          "type": "address"
        }
      ],
      "name": "users",
      "outputs": [
        {
          "internalType": "uint256",
          "name": "deposit",
          "type": "uint256"
        },
        {
          "internalType": "uint256",
          "name": "auroraShares",
          "type": "uint256"
        },
        {
          "internalType": "uint256",
          "name": "streamShares",
          "type": "uint256"
        }
      ],
      "stateMutability": "view",
      "type": "function"
    },
    {
      "inputs": [
        {
          "internalType": "uint256",
          "name": "streamId",
          "type": "uint256"
        }
      ],
      "name": "withdraw",
      "outputs": [],
      "stateMutability": "nonpayable",
      "type": "function"
    },
    {
      "inputs": [],
      "name": "withdrawAll",
      "outputs": [],
      "stateMutability": "nonpayable",
      "type": "function"
    }
  ],
  "bytecode": {
    "object": "0x60a0604052306080523480156200001557600080fd5b50600054610100900460ff16620000335760005460ff16156200003d565b6200003d620000e2565b620000a55760405162461bcd60e51b815260206004820152602e60248201527f496e697469616c697a61626c653a20636f6e747261637420697320616c72656160448201526d191e481a5b9a5d1a585b1a5e995960921b606482015260840160405180910390fd5b600054610100900460ff16158015620000c8576000805461ffff19166101011790555b8015620000db576000805461ff00191690555b5062000106565b6000620000fa306200010060201b62003cf21760201c565b15905090565b3b151590565b60805161621c6200013760003960008181611c8001528181611cc0015281816125530152612593015261621c6000f3fe6080604052600436106104105760003560e01c806361d027b31161021e5780639c52a92011610123578063bb07ec1b116100ab578063d5050aed1161007a578063d5050aed14610d36578063d547741f14610d56578063e335e79a14610d76578063ee13ad8e14610d8c578063fe904b7a14610dac57600080fd5b8063bb07ec1b14610ca6578063be831a2e14610cbc578063c892772314610cdc578063cd5ba59014610d2157600080fd5b8063a81c6a15116100f2578063a81c6a1514610bbd578063a87430ba14610bdd578063a8b0bb8314610c35578063b8e9744c14610c4c578063ba0cb22b14610c6c57600080fd5b80639c52a92014610b31578063a217fddf14610b51578063a4c828dc14610b66578063a694fc3a14610b9d57600080fd5b80637f51bb1f116101a65780638bc34e77116101755780638bc34e7714610a9c5780638d40bd0314610ab15780639040332214610ad157806391d1485414610af1578063993b21c114610b1157600080fd5b80637f51bb1f14610a0e578063853828b614610a2e57806386c1b4eb14610a43578063894e9a0d14610a6557600080fd5b80636c827cb1116101ed5780636c827cb11461094e5780636db8e53d1461096557806370bc770c1461097b57806372e55399146109a95780637f37df3b146109c957600080fd5b806361d027b3146108cd5780636458edd3146108ee578063687dd46c1461090e5780636c4624c31461092e57600080fd5b80632e1a7d4d116103245780633ba31abf116102ac5780634f1ef2861161027b5780634f1ef2861461082b57806353a4cca01461083e5780635578fdb21461085e57806357baeac8146108975780635c975abb146108b757600080fd5b80633ba31abf146107945780633e9a44cb146107b45780633ea005c8146107d45780634981912e146107f657600080fd5b80633659cfe6116102f35780633659cfe6146106ea57806336630cc71461070a5780633895a2751461072a578063389ed26714610740578063396a6c141461077457600080fd5b80632e1a7d4d146106755780632f2ff15d1461069557806335322f37146106b557806336568abe146106ca57600080fd5b80631e0fbfa2116103a75780632692c59f116103765780632692c59f146105d557806326cdddb9146105f557806327571969146106155780632ca783f3146106355780632e17de781461065557600080fd5b80631e0fbfa2146105565780631fd8c5f41461057857806320988cef1461058e578063248a9ca3146105a557600080fd5b80631194ebeb116103e35780631194ebeb146104af57806312dd67fe146104d15780631c61e617146104f15780631dd004521461051157600080fd5b806301ffc9a714610415578063036877881461044a5780630c2ee55e146104785780630efd83101461048f575b600080fd5b34801561042157600080fd5b5061043561043036600461577f565b610dc4565b60405190151581526020015b60405180910390f35b34801561045657600080fd5b5061046a6104653660046157a9565b610dfb565b604051908152602001610441565b34801561048457600080fd5b5061046a6101035481565b34801561049b57600080fd5b5061046a6104aa3660046157f1565b61116a565b3480156104bb57600080fd5b506104cf6104ca3660046158d9565b6111b6565b005b3480156104dd57600080fd5b5061046a6104ec366004615985565b611514565b3480156104fd57600080fd5b5061046a61050c3660046157f1565b611602565b34801561051d57600080fd5b5061046a61052c3660046157f1565b6001600160a01b031660009081526101046020908152604080832093835260059093019052205490565b34801561056257600080fd5b5061046a6000805160206161c783398151915281565b34801561058457600080fd5b5061046a60fd5481565b34801561059a57600080fd5b5061046a6228207281565b3480156105b157600080fd5b5061046a6105c0366004615985565b600090815260c9602052604090206001015490565b3480156105e157600080fd5b506104cf6105f0366004615985565b61167a565b34801561060157600080fd5b506104cf6106103660046159ea565b61170f565b34801561062157600080fd5b506104cf610630366004615a56565b6117c0565b34801561064157600080fd5b506104cf610650366004615a98565b61186d565b34801561066157600080fd5b506104cf610670366004615985565b6118f6565b34801561068157600080fd5b506104cf610690366004615985565b611a14565b3480156106a157600080fd5b506104cf6106b03660046157f1565b611abc565b3480156106c157600080fd5b506104cf611ae2565b3480156106d657600080fd5b506104cf6106e53660046157f1565b611bfb565b3480156106f657600080fd5b506104cf610705366004615ac2565b611c75565b34801561071657600080fd5b5061046a610725366004615add565b611d3e565b34801561073657600080fd5b5061046a60fc5481565b34801561074c57600080fd5b5061046a7f139c2898040ef16910dc9f44dc697df79363da767d8bc92f2e310312b816e46d81565b34801561078057600080fd5b5061046a61078f366004615985565b611eb1565b3480156107a057600080fd5b506104cf6107af3660046157f1565b611f3c565b3480156107c057600080fd5b506104cf6107cf366004615a98565b6121ef565b3480156107e057600080fd5b5061046a60008051602061616083398151915281565b34801561080257600080fd5b506108166108113660046157a9565b612251565b60408051928352602083019190915201610441565b6104cf610839366004615aff565b612548565b34801561084a57600080fd5b506104cf610859366004615ba5565b6125fe565b34801561086a57600080fd5b506101015461087f906001600160a01b031681565b6040516001600160a01b039091168152602001610441565b3480156108a357600080fd5b5061046a6108b2366004615ac2565b61279c565b3480156108c357600080fd5b5061046a60fb5481565b3480156108d957600080fd5b506101005461087f906001600160a01b031681565b3480156108fa57600080fd5b506104cf610909366004615c19565b61280d565b34801561091a57600080fd5b506104cf610929366004615a56565b612877565b34801561093a57600080fd5b506104cf6109493660046157a9565b6128c1565b34801561095a57600080fd5b5061046a6101065481565b34801561097157600080fd5b5061046a60ff5481565b34801561098757600080fd5b5061099b610996366004615985565b6128d9565b604051610441929190615ca7565b3480156109b557600080fd5b506104cf6109c4366004615a56565b6129d9565b3480156109d557600080fd5b5061046a6109e43660046157f1565b6001600160a01b031660009081526101046020908152604080832093835260039093019052205490565b348015610a1a57600080fd5b506104cf610a29366004615ac2565b612acc565b348015610a3a57600080fd5b506104cf612bd1565b348015610a4f57600080fd5b5061046a6000805160206161a783398151915281565b348015610a7157600080fd5b50610a85610a80366004615985565b612c75565b6040516104419b9a99989796959493929190615ce2565b348015610aa857600080fd5b506104cf612d3b565b348015610abd57600080fd5b506104cf610acc366004615add565b612d83565b348015610add57600080fd5b506104cf610aec366004615985565b613132565b348015610afd57600080fd5b50610435610b0c3660046157f1565b61324b565b348015610b1d57600080fd5b5061046a610b2c366004615985565b613276565b348015610b3d57600080fd5b506104cf610b4c366004615985565b6132a5565b348015610b5d57600080fd5b5061046a600081565b348015610b7257600080fd5b5061046a610b81366004615ac2565b6001600160a01b03166000908152610104602052604090205490565b348015610ba957600080fd5b506104cf610bb8366004615985565b61351a565b348015610bc957600080fd5b506104cf610bd8366004615d6a565b613584565b348015610be957600080fd5b50610c1a610bf8366004615ac2565b6101046020526000908152604090208054600182015460029092015490919083565b60408051938452602084019290925290820152606001610441565b348015610c4157600080fd5b5061046a6101025481565b610c5f610c5a366004615aff565b613b19565b6040516104419190615e7f565b348015610c7857600080fd5b5061046a610c87366004615ac2565b6001600160a01b03166000908152610104602052604090206001015490565b348015610cb257600080fd5b5061046a60fe5481565b348015610cc857600080fd5b506104cf610cd7366004615add565b613bdf565b348015610ce857600080fd5b5061046a610cf73660046157f1565b6001600160a01b031660009081526101046020908152604080832093835260049093019052205490565b348015610d2d57600080fd5b5061046a613bf0565b348015610d4257600080fd5b506104cf610d51366004615ac2565b613c22565b348015610d6257600080fd5b506104cf610d713660046157f1565b613c83565b348015610d8257600080fd5b506101055461046a565b348015610d9857600080fd5b506104cf610da7366004615985565b613ca9565b348015610db857600080fd5b5061046a630786156081565b60006001600160e01b03198216637965db0b60e01b1480610df557506301ffc9a760e01b6001600160e01b03198316145b92915050565b6000806101058581548110610e1257610e12615e92565b90600052602060002090600f0201600c019050600080610e33878787612251565b909250905060008083831415610f125784600101846001610e549190615ebe565b81548110610e6457610e64615e92565b9060005260206000200154856001018581548110610e8457610e84615e92565b9060005260206000200154610e999190615ed6565b9050846000018481548110610eb057610eb0615e92565b60009182526020909120015485610ec8866001615ebe565b81548110610ed857610ed8615e92565b9060005260206000200154610eed9190615ed6565b610ef78989615ed6565b610f019083615eed565b610f0b9190615f0c565b915061115c565b84600101846001610f239190615ebe565b81548110610f3357610f33615e92565b9060005260206000200154856001018581548110610f5357610f53615e92565b9060005260206000200154610f689190615ed6565b9050846000018481548110610f7f57610f7f615e92565b60009182526020909120015485610f97866001615ebe565b81548110610fa757610fa7615e92565b9060005260206000200154610fbc9190615ed6565b8886610fc9876001615ebe565b81548110610fd957610fd9615e92565b9060005260206000200154610fee9190615ed6565b610ff89083615eed565b6110029190615f0c565b915084600101838154811061101957611019615e92565b9060005260206000200154856001018560016110359190615ebe565b8154811061104557611045615e92565b906000526020600020015461105a9190615ed6565b6110649083615ebe565b9150846001018360016110779190615ebe565b8154811061108757611087615e92565b90600052602060002001548560010184815481106110a7576110a7615e92565b90600052602060002001546110bc9190615ed6565b90508460000183815481106110d3576110d3615e92565b600091825260209091200154856110eb856001615ebe565b815481106110fb576110fb615e92565b90600052602060002001546111109190615ed6565b85600001848154811061112557611125615e92565b90600052602060002001548861113b9190615ed6565b6111459083615eed565b61114f9190615f0c565b6111599083615ebe565b91505b5093505050505b9392505050565b60008261119457506001600160a01b03811660009081526101046020526040902060010154610df5565b506001600160a01b031660009081526101046020526040902060020154919050565b6000805160206161608339815191526111cf8133613cf8565b6111de89898888888888613d5c565b61010054604051630480051d60e31b81526001600160a01b038a811660048301529091169063240028e890602401602060405180830381865afa158015611229573d6000803e3d6000fd5b505050506040513d601f19601f8201168201806040525081019061124d9190615f2e565b61129e5760405162461bcd60e51b815260206004820152601f60248201527f494e56414c49445f535550504f525445445f544f4b454e5f414444524553530060448201526064015b60405180910390fd5b600060405180604001604052808681526020018581525090506000610105805490509050610105604051806101c001604052808d6001600160a01b03168152602001336001600160a01b031681526020018c6001600160a01b031681526020018b81526020016000815260200160008152602001600081526020018a81526020018981526020018860008151811061133857611338615e92565b60200260200101518152602001868152602001600081526020018481526020016001600281111561136b5761136b615ccc565b905281546001808201845560009384526020938490208351600f9093020180546001600160a01b03199081166001600160a01b0394851617825584860151928201805482169385169390931790925560408401516002820180549093169316929092179055606082015160038201556080820151600482015560a0820151600582015560c0820151600682015560e0820151600782015561010082015160088201556101208201516009820155610140820151600a820155610160820151600b82015561018082015180518051939492939192600c850192611450928492019061571f565b506020828101518051611469926001850192019061571f565b5050506101a0820151600e8201805460ff1916600183600281111561149057611490615ccc565b02179055505050896001600160a01b03168b6001600160a01b0316827fe843b72f047599c26dfdab8a31d1b5f353799cab6a8482518a21f1b17871dd758b8d6040516114e6929190918252602082015260400190565b60405180910390a461010154611507906001600160a01b031633308c61422e565b5050505050505050505050565b60008161155d5760405162461bcd60e51b815260206004820152601760248201527610555493d49057d49155d0549114d7d0d3d35413d55391604a1b6044820152606401611295565b60ff546115a15760405162461bcd60e51b81526020600482015260126024820152715a45524f5f53545245414d5f53484152455360701b6044820152606401611295565b60ff546c7e37be2022c0914b26800000006115be8460fd54611d3e565b6115c89190615eed565b6115d29190615f0c565b61010583815481106115e6576115e6615e92565b90600052602060002090600f0201600b0154610df59190615ebe565b60008061160e84611514565b6001600160a01b0384166000908152610104602090815260408083208884526005810190925290912054600282015492935090916c7e37be2022c0914b26800000008161165b8487615ed6565b6116659190615eed565b61166f9190615f0c565b979650505050505050565b7f139c2898040ef16910dc9f44dc697df79363da767d8bc92f2e310312b816e46d6116a58133613cf8565b60fb5482811614806116bd57506116bd60003361324b565b6117095760405162461bcd60e51b815260206004820152601e60248201527f4f4e4c595f44454641554c545f41444d494e5f43414e5f554e504155534500006044820152606401611295565b5060fb55565b60018060fb54166000148061172a575061172a60003361324b565b6117465760405162461bcd60e51b815260040161129590615f50565b6000805160206161a783398151915261175f8133613cf8565b611767614286565b8460005b818110156117b6576117a488888381811061178857611788615e92565b905060200201602081019061179d9190615ac2565b878761435e565b806117ae81615f7c565b91505061176b565b5050505050505050565b60018060fb5416600014806117db57506117db60003361324b565b6117f75760405162461bcd60e51b815260040161129590615f50565b6000805160206161a78339815191526118108133613cf8565b611818614286565b8260005b818110156118655761185386868381811061183957611839615e92565b905060200201602081019061184e9190615ac2565b6143f9565b8061185d81615f7c565b91505061181c565b505050505050565b60018060fb541660001480611888575061188860003361324b565b6118a45760405162461bcd60e51b815260040161129590615f50565b6000805160206161c78339815191526118bd8133613cf8565b6118c5614286565b6118cf8484614468565b61010054610101546118f0916001600160a01b03918216913391168661422e565b50505050565b60018060fb541660001480611911575061191160003361324b565b61192d5760405162461bcd60e51b815260040161129590615f50565b60fe546119775760405162461bcd60e51b81526020600482015260186024820152775a45524f5f544f54414c5f4155524f52415f53484152455360401b6044820152606401611295565b33600090815261010460205260409020600101546119ca5760405162461bcd60e51b815260206004820152601060248201526f5a45524f5f555345525f53484152455360801b6044820152606401611295565b6119d2614286565b60fe54336000908152610104602052604081206001015460fc549192916119f99190615eed565b611a039190615f0c565b9050611a0f8382614627565b505050565b60018060fb541660001480611a2f5750611a2f60003361324b565b611a4b5760405162461bcd60e51b815260040161129590615f50565b336000908152610104602090815260408083208584526004019091529020544211611aaf5760405162461bcd60e51b8152602060048201526014602482015273494e56414c49445f52454c454153455f54494d4560601b6044820152606401611295565b611ab882614824565b5050565b600082815260c96020526040902060010154611ad88133613cf8565b611a0f8383614919565b60018060fb541660001480611afd5750611afd60003361324b565b611b195760405162461bcd60e51b815260040161129590615f50565b60fe54611b635760405162461bcd60e51b81526020600482015260186024820152775a45524f5f544f54414c5f4155524f52415f53484152455360401b6044820152606401611295565b3360009081526101046020526040902060010154611bb65760405162461bcd60e51b815260206004820152601060248201526f5a45524f5f555345525f53484152455360801b6044820152606401611295565b611bbe614286565b60fe54336000908152610104602052604081206001015460fc54919291611be59190615eed565b611bef9190615f0c565b9050611ab88182614627565b6001600160a01b0381163314611c6b5760405162461bcd60e51b815260206004820152602f60248201527f416363657373436f6e74726f6c3a2063616e206f6e6c792072656e6f756e636560448201526e103937b632b9903337b91039b2b63360891b6064820152608401611295565b611ab8828261499f565b306001600160a01b037f0000000000000000000000000000000000000000000000000000000000000000161415611cbe5760405162461bcd60e51b815260040161129590615f97565b7f00000000000000000000000000000000000000000000000000000000000000006001600160a01b0316611cf0614a06565b6001600160a01b031614611d165760405162461bcd60e51b815260040161129590615fe3565b611d1f81614a34565b60408051600080825260208201909252611d3b91839190614a40565b50565b600042821115611d865760405162461bcd60e51b8152602060048201526013602482015272494e56414c49445f4c4153545f55504441544560681b6044820152606401611295565b42821415611d9657506000610df5565b60006101058481548110611dac57611dac615e92565b90600052602060002090600f0201600c01600001600081548110611dd257611dd2615e92565b90600052602060002001549050804211611df0576000915050610df5565b60006101058581548110611e0657611e06615e92565b90600052602060002090600f0201600c0160000160016101058781548110611e3057611e30615e92565b60009182526020909120600c600f909202010154611e4e9190615ed6565b81548110611e5e57611e5e615e92565b90600052602060002001549050808410611e7d57600092505050610df5565b60008083861115611e9057859150611e94565b8391505b82421015611ea3575042611ea6565b50815b61166f878383610dfb565b6000806101058381548110611ec857611ec8615e92565b60009182526020909120600f9091020190506002600e82015460ff166002811115611ef557611ef5615ccc565b14611f035750600092915050565b6000611f13848360090154611d3e565b90508160050154826003015482611f2a9190615eed565b611f349190615f0c565b949350505050565b600080516020616160833981519152611f558133613cf8565b82611fa25760405162461bcd60e51b815260206004820152601b60248201527f4155524f52415f53545245414d5f4e4f545f52454d4f5641424c4500000000006044820152606401611295565b60006101058481548110611fb857611fb8615e92565b60009182526020909120600f9091020190506002600e82015460ff166002811115611fe557611fe5615ccc565b1461202b5760405162461bcd60e51b815260206004820152601660248201527514d51491505357d053149150511657d4915353d5915160521b6044820152606401611295565b600e8101805460ff19169055600281015481546040516001600160a01b03928316929091169086907f661da9ced4b5d786f5b5f451a5f68af24721a01b0a65bb47fa4fdf70b80b887c90600090a460008160040154826003015461208f9190615ed6565b90506000826006015483600501546120a79190615ed6565b610101549091506000906120c3906001600160a01b031661279c565b60028501549091506000906120e0906001600160a01b031661279c565b610100546001870154610101549293506001600160a01b039182169263da0c1a88929182169116858811156121155785612117565b875b6040518463ffffffff1660e01b81526004016121359392919061602f565b600060405180830381600087803b15801561214f57600080fd5b505af1158015612163573d6000803e3d6000fd5b50506101005460028801546001600160a01b03918216935063da0c1a8892508a9116848711156121935784612195565b865b6040518463ffffffff1660e01b81526004016121b39392919061602f565b600060405180830381600087803b1580156121cd57600080fd5b505af11580156121e1573d6000803e3d6000fd5b505050505050505050505050565b60018060fb54166000148061220a575061220a60003361324b565b6122265760405162461bcd60e51b815260040161129590615f50565b6000805160206161a783398151915261223f8133613cf8565b612247614286565b6118f08484614b84565b6000806000610105868154811061226a5761226a615e92565b60009182526020909120600c600f90920201018054909150806122bd5760405162461bcd60e51b815260206004820152600b60248201526a4e4f5f5343484544554c4560a81b6044820152606401611295565b85851161230c5760405162461bcd60e51b815260206004820152601b60248201527f494e56414c49445f5245574152445f51554552595f504552494f4400000000006044820152606401611295565b8160000160008154811061232257612322615e92565b906000526020600020015486101561237c5760405162461bcd60e51b815260206004820152601b60248201527f51554552595f4245464f52455f5343484544554c455f535441525400000000006044820152606401611295565b81612388600183615ed6565b8154811061239857612398615e92565b90600052602060002001548511156123f25760405162461bcd60e51b815260206004820152601860248201527f51554552595f41465445525f5343484544554c455f454e4400000000000000006044820152606401611295565b60015b818110156124485782600001818154811061241257612412615e92565b90600052602060002001548710156124365761242f600182615ed6565b9450612448565b8061244081615f7c565b9150506123f5565b5081612455600183615ed6565b8154811061246557612465615e92565b906000526020600020015485141561248957612482600282615ed6565b92506124ee565b6000612496856001615ebe565b90505b818110156124ec578260000181815481106124b6576124b6615e92565b90600052602060002001548610156124da576124d3600182615ed6565b93506124ec565b806124e481615f7c565b915050612499565b505b8284111561253e5760405162461bcd60e51b815260206004820152601960248201527f494e56414c49445f494e4445585f43414c43554c4154494f4e000000000000006044820152606401611295565b5050935093915050565b306001600160a01b037f00000000000000000000000000000000000000000000000000000000000000001614156125915760405162461bcd60e51b815260040161129590615f97565b7f00000000000000000000000000000000000000000000000000000000000000006001600160a01b03166125c3614a06565b6001600160a01b0316146125e95760405162461bcd60e51b815260040161129590615fe3565b6125f282614a34565b611ab882826001614a40565b60018060fb541660001480612619575061261960003361324b565b6126355760405162461bcd60e51b815260040161129590615f50565b6000805160206161c783398151915261264e8133613cf8565b858481146126955760405162461bcd60e51b81526020600482015260146024820152730929cac82989288be82a4a482b2be988a9c8ea8960631b6044820152606401611295565b61269d614286565b6000805b82811015612729578787828181106126bb576126bb615e92565b90506020020135826126cd9190615ebe565b91506127178a8a838181106126e4576126e4615e92565b90506020020160208101906126f99190615ac2565b89898481811061270b5761270b615e92565b90506020020135614468565b8061272181615f7c565b9150506126a1565b508481146127705760405162461bcd60e51b81526020600482015260146024820152731253959053125117d0905510d217d05353d5539560621b6044820152606401611295565b6101005461010154612791916001600160a01b03918216913391168861422e565b505050505050505050565b610100546040516370a0823160e01b81526001600160a01b0391821660048201526000918316906370a0823190602401602060405180830381865afa1580156127e9573d6000803e3d6000fd5b505050506040513d601f19601f82011682018060405250810190610df59190616053565b60018060fb541660001480612828575061282860003361324b565b6128445760405162461bcd60e51b815260040161129590615f50565b6000805160206161a783398151915261285d8133613cf8565b612865614286565b61287085858561435e565b5050505050565b60018060fb541660001480612892575061289260003361324b565b6128ae5760405162461bcd60e51b815260040161129590615f50565b6128b6614286565b611a0f33848461435e565b60006128cd8133613cf8565b50825491821816189055565b60608061010583815481106128f0576128f0615e92565b90600052602060002090600f0201600c01600001610105848154811061291857612918615e92565b90600052602060002090600f0201600c016001018180548060200260200160405190810160405280929190818152602001828054801561297757602002820191906000526020600020905b815481526020019060010190808311612963575b50505050509150808054806020026020016040519081016040528092919081815260200182805480156129c957602002820191906000526020600020905b8154815260200190600101908083116129b5575b5050505050905091509150915091565b60018060fb5416600014806129f457506129f460003361324b565b612a105760405162461bcd60e51b815260040161129590615f50565b33600090815261010460205260408120905b8381101561287057816003016000868684818110612a4257612a42615e92565b90506020020135815260200190815260200160002054600014158015612a945750816004016000868684818110612a7b57612a7b615e92565b9050602002013581526020019081526020016000205442115b15612aba57612aba858583818110612aae57612aae615e92565b90506020020135614824565b80612ac481615f7c565b915050612a22565b6000612ad88133613cf8565b60fb54612b175760405162461bcd60e51b815260206004820152600d60248201526c524551554952455f504155534560981b6044820152606401611295565b6001600160a01b038216612b5f5760405162461bcd60e51b815260206004820152600f60248201526e494e56414c49445f4144445245535360881b6044820152606401611295565b610100546001600160a01b0383811691161415612bad5760405162461bcd60e51b815260206004820152600c60248201526b53414d455f4144445245535360a01b6044820152606401611295565b5061010080546001600160a01b0319166001600160a01b0392909216919091179055565b60018060fb541660001480612bec5750612bec60003361324b565b612c085760405162461bcd60e51b815260040161129590615f50565b336000908152610104602052604081206101055490915b818110156118f057600081815260038401602052604090205415801590612c555750600081815260048401602052604090205442115b15612c6357612c6381614824565b80612c6d81615f7c565b915050612c1f565b6000806000806000806000806000806000806101058d81548110612c9b57612c9b615e92565b90600052602060002090600f020190508060000160009054906101000a90046001600160a01b03168160020160009054906101000a90046001600160a01b031682600301548360040154846005015485600601548660070154876009015488600b015489600a01548a600e0160009054906101000a900460ff169b509b509b509b509b509b509b509b509b509b509b505091939597999b90929496989a50565b60018060fb541660001480612d565750612d5660003361324b565b612d725760405162461bcd60e51b815260040161129590615f50565b612d7a614286565b611d3b336143f9565b60018060fb541660001480612d9e5750612d9e60003361324b565b612dba5760405162461bcd60e51b815260040161129590615f50565b60006101058481548110612dd057612dd0615e92565b60009182526020909120600f9091020190506001600e82015460ff166002811115612dfd57612dfd615ccc565b14612e405760405162461bcd60e51b815260206004820152601360248201527214d51491505357d393d517d41493d413d4d151606a1b6044820152606401611295565b80546001600160a01b03163314612e905760405162461bcd60e51b815260206004820152601460248201527324a72b20a624a22fa9aa2922a0a6afa7aba722a960611b6044820152606401611295565b4281600c01600001600081548110612eaa57612eaa615e92565b90600052602060002001541015612f035760405162461bcd60e51b815260206004820152601760248201527f53545245414d5f50524f504f53414c5f455850495245440000000000000000006044820152606401611295565b8060070154831115612f495760405162461bcd60e51b815260206004820152600f60248201526e0a48aae82a488bea89e9ebe90928e9608b1b6044820152606401611295565b8060080154831015612f8e5760405162461bcd60e51b815260206004820152600e60248201526d5245574152445f544f4f5f4c4f5760901b6044820152606401611295565b600e8101805460ff1916600217905560058101839055600781015483101561301b5760008160070154826003015485612fc79190615eed565b612fd19190615f0c565b90506000818360030154612fe59190615ed6565b600384018390559050612ff88686614e78565b600183015461010154613018916001600160a01b03918216911683614f82565b50505b6002810154815460038301546040516001600160a01b0393841693929092169187917f3062262d3b7b7b5292387920111bfa3e0597dc070a8f10f1be710f15868c22e09161307191898252602082015260400190565b60405180910390a46005810154600d8201805460009061309357613093615e92565b9060005260206000200154146130eb5760405162461bcd60e51b815260206004820152601760248201527f494e56414c49445f5354415254494e475f5245574152440000000000000000006044820152606401611295565b61010054600382015461010154613110926001600160a01b0391821692911690614f82565b6101005460028201546118f0916001600160a01b03918216913391168661422e565b60008051602061616083398151915261314b8133613cf8565b6000610105838154811061316157613161615e92565b60009182526020909120600f9091020190506001600e82015460ff16600281111561318e5761318e615ccc565b146131d15760405162461bcd60e51b815260206004820152601360248201527214d51491505357d393d517d41493d413d4d151606a1b6044820152606401611295565b600e8101805460ff191690556003810180546000918290556002830154835460405192936001600160a01b0392831693929091169187917ffadbcbd495527ce5e10fd0cceba57d404a4625dd6ce0499c254ac523789ef3ad91a46001820154610101546118f0916001600160a01b03918216911683614f82565b600091825260c9602090815260408084206001600160a01b0393909316845291905290205460ff1690565b6000610105828154811061328c5761328c615e92565b90600052602060002090600f0201600b01549050919050565b60018060fb5416600014806132c057506132c060003361324b565b6132dc5760405162461bcd60e51b815260040161129590615f50565b8161331c5760405162461bcd60e51b815260206004820152601060248201526f4155524f52415f53545245414d5f4e4160801b6044820152606401611295565b6000610105838154811061333257613332615e92565b60009182526020909120600f9091020180549091506001600160a01b031633146133955760405162461bcd60e51b815260206004820152601460248201527324a72b20a624a22fa9aa2922a0a6afa7aba722a960611b6044820152606401611295565b6002600e82015460ff1660028111156133b0576133b0615ccc565b146133fd5760405162461bcd60e51b815260206004820152601b60248201527f494e4143544956455f4f525f50524f504f5345445f53545245414d00000000006044820152606401611295565b600061340884611eb1565b9050600081116134495760405162461bcd60e51b815260206004820152600c60248201526b5a45524f5f5245574152445360a01b6044820152606401611295565b428260090181905550808260040160008282546134669190615ebe565b909155505081546040518281526001600160a01b039091169085907fd8dbc00678cdeb812d1660863c3d845d199d828cd02c9278b1ac8f359a1394369060200160405180910390a361010054825461010154604051631b41835160e31b81526001600160a01b039384169363da0c1a88936134ec9390821692911690869060040161602f565b600060405180830381600087803b15801561350657600080fd5b505af11580156117b6573d6000803e3d6000fd5b60018060fb541660001480613535575061353560003361324b565b6135515760405162461bcd60e51b815260040161129590615f50565b613559614286565b6135633383614468565b6101005461010154611ab8916001600160a01b03918216913391168561422e565b600054610100900460ff1661359f5760005460ff16156135a3565b303b155b6136065760405162461bcd60e51b815260206004820152602e60248201527f496e697469616c697a61626c653a20636f6e747261637420697320616c72656160448201526d191e481a5b9a5d1a585b1a5e995960921b6064820152608401611295565b600054610100900460ff16158015613628576000805461ffff19166101011790555b8183116136695760405162461bcd60e51b815260206004820152600f60248201526e494e56414c49445f5745494748545360881b6044820152606401611295565b6001600160a01b0384166136b15760405162461bcd60e51b815260206004820152600f60248201526e494e56414c49445f4144445245535360881b6044820152606401611295565b6136f4898b896000815181106136c9576136c9615e92565b60200260200101518a6000815181106136e4576136e4615e92565b60200260200101518c8c8c613d5c565b604051630480051d60e31b81526001600160a01b038b8116600483015285169063240028e890602401602060405180830381865afa15801561373a573d6000803e3d6000fd5b505050506040513d601f19601f8201168201806040525081019061375e9190615f2e565b6137aa5760405162461bcd60e51b815260206004820152601f60248201527f494e56414c49445f535550504f525445445f544f4b454e5f41444452455353006044820152606401611295565b6137b385614fb2565b6137cb6000805160206161c783398151915233614919565b6137e36000805160206161a783398151915233614919565b6137fb60008051602061616083398151915233614919565b61010080546001600160a01b038087166001600160a01b031992831617835561010180548e83169316831790556101028690556101038590556040805180820182528c815260208082018d905282516101c081018452938f1680855290840152908201929092526000606082018190526080820181905260a0820181905260c0820181905260e0820181905292810183905242610120820152610140810189905261016081018390526101808101829052610105906101a081016002905281546001808201845560009384526020938490208351600f9093020180546001600160a01b03199081166001600160a01b0394851617825584860151928201805482169385169390931790925560408401516002820180549093169316929092179055606082015160038201556080820151600482015560a0820151600582015560c0820151600682015560e0820151600782015561010082015160088201556101208201516009820155610140820151600a820155610160820151600b82015561018082015180518051939492939192600c85019261399c928492019061571f565b5060208281015180516139b5926001850192019061571f565b5050506101a0820151600e8201805460ff191660018360028111156139dc576139dc615ccc565b021790555050508b6001600160a01b03168b6001600160a01b0316837fe843b72f047599c26dfdab8a31d1b5f353799cab6a8482518a21f1b17871dd758c600081518110613a2c57613a2c615e92565b60200260200101518d600081518110613a4757613a47615e92565b6020026020010151604051613a66929190918252602082015260400190565b60405180910390a48b6001600160a01b03168b6001600160a01b0316837f3062262d3b7b7b5292387920111bfa3e0597dc070a8f10f1be710f15868c22e08c600081518110613ab757613ab7615e92565b60200260200101518d600081518110613ad257613ad2615e92565b6020026020010151604051613af1929190918252602082015260400190565b60405180910390a450508015613b0d576000805461ff00191690555b50505050505050505050565b60606000613b278133613cf8565b6001600160a01b038416613b6c5760405162461bcd60e51b815260206004820152600c60248201526b5a45524f5f4144445245535360a01b6044820152606401611295565b600080856001600160a01b031685604051613b87919061606c565b600060405180830381855af49150503d8060008114613bc2576040519150601f19603f3d011682016040523d82523d6000602084013e613bc7565b606091505b509150915081613bd657600080fd5b95945050505050565b6000613beb8133613cf8565b509055565b600060fd5460001415613c035750600090565b613c10600060fd54611d3e565b60fc54613c1d9190615ebe565b905090565b60018060fb541660001480613c3d5750613c3d60003361324b565b613c595760405162461bcd60e51b815260040161129590615f50565b6000805160206161a7833981519152613c728133613cf8565b613c7a614286565b611a0f836143f9565b600082815260c96020526040902060010154613c9f8133613cf8565b611a0f838361499f565b60018060fb541660001480613cc45750613cc460003361324b565b613ce05760405162461bcd60e51b815260040161129590615f50565b613ce8614286565b611ab83383614b84565b3b151590565b613d02828261324b565b611ab857613d1a816001600160a01b03166014614ffc565b613d25836020614ffc565b604051602001613d36929190616088565b60408051601f198184030181529082905262461bcd60e51b825261129591600401615e7f565b6001600160a01b038716613db25760405162461bcd60e51b815260206004820152601c60248201527f494e56414c49445f53545245414d5f4f574e45525f41444452455353000000006044820152606401611295565b6001600160a01b038616613e085760405162461bcd60e51b815260206004820152601c60248201527f494e56414c49445f5245574152445f544f4b454e5f41444452455353000000006044820152606401611295565b60008511613e4b5760405162461bcd60e51b815260206004820152601060248201526f16915493d7d3505617d1115413d4d25560821b6044820152606401611295565b60008411613e8e5760405162461bcd60e51b815260206004820152601060248201526f16915493d7d3525397d1115413d4d25560821b6044820152606401611295565b84841115613ed45760405162461bcd60e51b81526020600482015260136024820152721253959053125117d3525397d1115413d4d255606a1b6044820152606401611295565b81600081518110613ee757613ee7615e92565b60200260200101518514613f3d5760405162461bcd60e51b815260206004820152601f60248201527f4d41585f4445504f5349545f4d5553545f455155414c5f5343484544554c45006044820152606401611295565b4283600081518110613f5157613f51615e92565b602002602001015111613fa65760405162461bcd60e51b815260206004820152601e60248201527f494e56414c49445f53545245414d5f45585049524154494f4e5f4441544500006044820152606401611295565b8151835114613ff75760405162461bcd60e51b815260206004820152601760248201527f494e56414c49445f5343484544554c455f56414c5545530000000000000000006044820152606401611295565b60028351101561403e5760405162461bcd60e51b815260206004820152601260248201527114d0d2115115531157d513d3d7d4d213d49560721b6044820152606401611295565b806140805760405162461bcd60e51b81526020600482015260126024820152711253959053125117d5105557d411549253d160721b6044820152606401611295565b60015b83518110156141ae5783614098600183615ed6565b815181106140a8576140a8615e92565b60200260200101518482815181106140c2576140c2615e92565b6020026020010151116141105760405162461bcd60e51b8152602060048201526016602482015275494e56414c49445f5343484544554c455f54494d455360501b6044820152606401611295565b8261411c600183615ed6565b8151811061412c5761412c615e92565b602002602001015183828151811061414657614146615e92565b6020026020010151111561419c5760405162461bcd60e51b815260206004820152601860248201527f494e56414c49445f5343484544554c455f5245574152445300000000000000006044820152606401611295565b806141a681615f7c565b915050614083565b5081600183516141be9190615ed6565b815181106141ce576141ce615e92565b60200260200101516000146142255760405162461bcd60e51b815260206004820152601b60248201527f494e56414c49445f5343484544554c455f454e445f52455741524400000000006044820152606401611295565b50505050505050565b6118f0846323b872dd60e01b85858560405160240161424f9392919061602f565b60408051601f198184030181529190526020810180516001600160e01b03166001600160e01b031990931692909217909152615198565b4260fd54141561429257565b60fe5415614358576142a7600060fd54611d3e565b60fc60008282546142b89190615ebe565b90915550506101055460015b8181101561435557600261010582815481106142e2576142e2615e92565b60009182526020909120600e600f90920201015460ff16600281111561430a5761430a615ccc565b14156143435761431981611514565b610105828154811061432d5761432d615e92565b90600052602060002090600f0201600b01819055505b8061434d81615f7c565b9150506142c4565b50505b4260fd55565b60005b818110156118f057600261010584848481811061438057614380615e92565b905060200201358154811061439757614397615e92565b60009182526020909120600e600f90920201015460ff1660028111156143bf576143bf615ccc565b14156143e7576143e7848484848181106143db576143db615e92565b90506020020135614b84565b806143f181615f7c565b915050614361565b6101055460015b81811015611a0f576002610105828154811061441e5761441e615e92565b60009182526020909120600e600f90920201015460ff16600281111561444657614446615ccc565b1415614456576144568382614b84565b8061446081615f7c565b915050614400565b6001600160a01b03821660009081526101046020526040812060fe549091906144925750816144d9565b600060fe54846144a29190615eed565b905060fc54816144b29190615f0c565b91508060fc54836144c39190615eed565b10156144d7576144d4600183615ebe565b91505b505b808260010160008282546144ed9190615ebe565b925050819055508060fe60008282546145069190615ebe565b925050819055508260fc600082825461451f9190615ebe565b9091555050815483908390600090614538908490615ebe565b909155506000905061454a824261526a565b90508060ff600082825461455e9190615ebe565b92505081905550808360020160008282546145799190615ebe565b90915550506101055460015b818110156145da5761010581815481106145a1576145a1615e92565b60009182526020808320600b600f90930201919091015483835260058801909152604090912055806145d281615f7c565b915050614585565b5060408051868152602081018590526001600160a01b038816917f1449c6dd7851abc30abf37f57715f492010519147cc2652fbc38202c18a6ee90910160405180910390a2505050505050565b816146625760405162461bcd60e51b815260206004820152600b60248201526a16915493d7d05353d5539560aa1b6044820152606401611295565b808211156146b25760405162461bcd60e51b815260206004820152601860248201527f4e4f545f454e4f5547485f5354414b455f42414c414e434500000000000000006044820152606401611295565b33600090815261010460205260408120600181015460fe8054929391929091906146dd908490615ed6565b9091555050600281015460ff80546000906146f9908490615ed6565b90915550506000600182018190556002820181905560fc8054849290614720908490615ed6565b9091555050600080825580805260038201602052604081208054859290614748908490615ebe565b9091555050610105805460009061476157614761615e92565b90600052602060002090600f0201600a01544261477e9190615ebe565b600080805260048301602090815260408083209390935560038401815282822054925192835233927f5f1c6be51c8ec7fa7e7ddd9f798ec55927b06cfc8d9159987d1ae3358cb10b59910160405180910390a360405183815233907f0f5bb82176feb1b5e747e28471aa92156a04d9f3ab9f45f28e2d704232b93f759060200160405180910390a260006148128484615ed6565b905080156118f0576118f03382614468565b336000818152610104602090815260408083208584526003810183528184208054949055905183815290939185917f3bfce8de0db7450cc169b94323c210e69a36c6a4a58c9f5d96bec4973adce392910160405180910390a36101005461010580546001600160a01b039092169163da0c1a88913391879081106148aa576148aa615e92565b600091825260209091206002600f9092020101546040516001600160e01b031960e085901b1681526148eb92916001600160a01b031690869060040161602f565b600060405180830381600087803b15801561490557600080fd5b505af1158015614225573d6000803e3d6000fd5b614923828261324b565b611ab857600082815260c9602090815260408083206001600160a01b03851684529091529020805460ff1916600117905561495b3390565b6001600160a01b0316816001600160a01b0316837f2f8788117e7eff1d82e926ec794901d17c78024a50270940304540a733656f0d60405160405180910390a45050565b6149a9828261324b565b15611ab857600082815260c9602090815260408083206001600160a01b0385168085529252808320805460ff1916905551339285917ff6391f5c32d9c69d2a47ea670b442974b53935d1edc7fd64eb21e047a839171b9190a45050565b7f360894a13ba1a3210667c828492db98dca3e2076cc3735a920a3ca505d382bbc546001600160a01b031690565b6000611ab88133613cf8565b6000614a4a614a06565b9050614a5584615364565b600083511180614a625750815b15614a7357614a718484615409565b505b7f4910fdfa16fed3260ed0e7147f7cc6da11a60208b5b9406d12a635614ffd9143805460ff1661287057805460ff191660011781556040516001600160a01b0383166024820152614af290869060440160408051601f198184030181529190526020810180516001600160e01b0316631b2ce7f360e11b179052615409565b50805460ff19168155614b03614a06565b6001600160a01b0316826001600160a01b031614614b7b5760405162461bcd60e51b815260206004820152602f60248201527f45524331393637557067726164653a207570677261646520627265616b73206660448201526e75727468657220757067726164657360881b6064820152608401611295565b612870856154eb565b80614bcb5760405162461bcd60e51b815260206004820152601760248201527610555493d49057d49155d0549114d7d0d3d35413d55391604a1b6044820152606401611295565b60026101058281548110614be157614be1615e92565b60009182526020909120600e600f90920201015460ff166002811115614c0957614c09615ccc565b14614c565760405162461bcd60e51b815260206004820152601b60248201527f494e4143544956455f4f525f50524f504f5345445f53545245414d00000000006044820152606401611295565b6001600160a01b0382166000908152610104602052604090206001810154614cc05760405162461bcd60e51b815260206004820152601f60248201527f555345525f444f45535f4e4f545f484156455f41435455414c5f5354414b45006044820152606401611295565b60006c7e37be2022c0914b26800000008260020154836005016000868152602001908152602001600020546101058681548110614cff57614cff615e92565b90600052602060002090600f0201600b0154614d1b9190615ed6565b614d259190615eed565b614d2f9190615f0c565b905080614d3c5750505050565b600083815260038301602052604081208054839290614d5c908490615ebe565b9091555050610105805484908110614d7657614d76615e92565b90600052602060002090600f0201600b0154826005016000858152602001908152602001600020819055506101058381548110614db557614db5615e92565b90600052602060002090600f0201600a015442614dd29190615ebe565b6000848152600484016020526040902055610105805482919085908110614dfb57614dfb615e92565b90600052602060002090600f02016006016000828254614e1b9190615ebe565b909155505060008381526003830160209081526040918290205491519182526001600160a01b0386169185917f5f1c6be51c8ec7fa7e7ddd9f798ec55927b06cfc8d9159987d1ae3358cb10b59910160405180910390a350505050565b60006101058381548110614e8e57614e8e615e92565b600091825260208220600d600f90920201015491505b818110156118f0576101058481548110614ec057614ec0615e92565b90600052602060002090600f020160070154836101058681548110614ee757614ee7615e92565b90600052602060002090600f0201600c016001018381548110614f0c57614f0c615e92565b9060005260206000200154614f219190615eed565b614f2b9190615f0c565b6101058581548110614f3f57614f3f615e92565b90600052602060002090600f0201600c016001018281548110614f6457614f64615e92565b60009182526020909120015580614f7a81615f7c565b915050614ea4565b6040516001600160a01b038316602482015260448101829052611a0f90849063a9059cbb60e01b9060640161424f565b614fba61552b565b614fc2615564565b614fcd600033614919565b614ff77f139c2898040ef16910dc9f44dc697df79363da767d8bc92f2e310312b816e46d33614919565b60fb55565b6060600061500b836002615eed565b615016906002615ebe565b67ffffffffffffffff81111561502e5761502e61581d565b6040519080825280601f01601f191660200182016040528015615058576020820181803683370190505b509050600360fc1b8160008151811061507357615073615e92565b60200101906001600160f81b031916908160001a905350600f60fb1b816001815181106150a2576150a2615e92565b60200101906001600160f81b031916908160001a90535060006150c6846002615eed565b6150d1906001615ebe565b90505b6001811115615149576f181899199a1a9b1b9c1cb0b131b232b360811b85600f166010811061510557615105615e92565b1a60f81b82828151811061511b5761511b615e92565b60200101906001600160f81b031916908160001a90535060049490941c93615142816160fd565b90506150d4565b5083156111635760405162461bcd60e51b815260206004820181905260248201527f537472696e67733a20686578206c656e67746820696e73756666696369656e746044820152606401611295565b60006151ed826040518060400160405280602081526020017f5361666545524332303a206c6f772d6c6576656c2063616c6c206661696c6564815250856001600160a01b03166155939092919063ffffffff16565b805190915015611a0f578080602001905181019061520b9190615f2e565b611a0f5760405162461bcd60e51b815260206004820152602a60248201527f5361666545524332303a204552433230206f7065726174696f6e20646964206e6044820152691bdd081cdd58d8d9595960b21b6064820152608401611295565b6000806228207261010560008154811061528657615286615e92565b90600052602060002090600f0201600c016000016000815481106152ac576152ac615e92565b90600052602060002001546152c19190615ebe565b905060006152d3630786156083615ebe565b90508184116152f357610102546152ea9086615eed565b92505050610df5565b80841061530857610103546152ea9086615eed565b6153128282615ed6565b61531c8583615ed6565b610103546101025461532e9190615ed6565b6153389088615eed565b6153429190615eed565b61534c9190615f0c565b6101035461535a9087615eed565b613bd69190615ebe565b803b6153c85760405162461bcd60e51b815260206004820152602d60248201527f455243313936373a206e657720696d706c656d656e746174696f6e206973206e60448201526c1bdd08184818dbdb9d1c9858dd609a1b6064820152608401611295565b7f360894a13ba1a3210667c828492db98dca3e2076cc3735a920a3ca505d382bbc80546001600160a01b0319166001600160a01b0392909216919091179055565b6060823b6154685760405162461bcd60e51b815260206004820152602660248201527f416464726573733a2064656c65676174652063616c6c20746f206e6f6e2d636f6044820152651b9d1c9858dd60d21b6064820152608401611295565b600080846001600160a01b031684604051615483919061606c565b600060405180830381855af49150503d80600081146154be576040519150601f19603f3d011682016040523d82523d6000602084013e6154c3565b606091505b5091509150613bd68282604051806060016040528060278152602001616180602791396155a2565b6154f481615364565b6040516001600160a01b038216907fbc7cd75a20ee27fd9adebab32041f755214dbc6bffa90cc0225b39da2e5c2d3b90600090a250565b600054610100900460ff166155525760405162461bcd60e51b815260040161129590616114565b61555a6155db565b6155626155db565b565b600054610100900460ff1661558b5760405162461bcd60e51b815260040161129590616114565b6155526155db565b6060611f348484600085615602565b606083156155b1575081611163565b8251156155c15782518084602001fd5b8160405162461bcd60e51b81526004016112959190615e7f565b600054610100900460ff166155625760405162461bcd60e51b815260040161129590616114565b6060824710156156635760405162461bcd60e51b815260206004820152602660248201527f416464726573733a20696e73756666696369656e742062616c616e636520666f6044820152651c8818d85b1b60d21b6064820152608401611295565b843b6156b15760405162461bcd60e51b815260206004820152601d60248201527f416464726573733a2063616c6c20746f206e6f6e2d636f6e74726163740000006044820152606401611295565b600080866001600160a01b031685876040516156cd919061606c565b60006040518083038185875af1925050503d806000811461570a576040519150601f19603f3d011682016040523d82523d6000602084013e61570f565b606091505b509150915061166f8282866155a2565b82805482825590600052602060002090810192821561575a579160200282015b8281111561575a57825182559160200191906001019061573f565b5061576692915061576a565b5090565b5b80821115615766576000815560010161576b565b60006020828403121561579157600080fd5b81356001600160e01b03198116811461116357600080fd5b6000806000606084860312156157be57600080fd5b505081359360208301359350604090920135919050565b80356001600160a01b03811681146157ec57600080fd5b919050565b6000806040838503121561580457600080fd5b82359150615814602084016157d5565b90509250929050565b634e487b7160e01b600052604160045260246000fd5b604051601f8201601f1916810167ffffffffffffffff8111828210171561585c5761585c61581d565b604052919050565b600082601f83011261587557600080fd5b8135602067ffffffffffffffff8211156158915761589161581d565b8160051b6158a0828201615833565b92835284810182019282810190878511156158ba57600080fd5b83870192505b8483101561166f578235825291830191908301906158c0565b600080600080600080600080610100898b0312156158f657600080fd5b6158ff896157d5565b975061590d60208a016157d5565b965060408901359550606089013594506080890135935060a089013567ffffffffffffffff8082111561593f57600080fd5b61594b8c838d01615864565b945060c08b013591508082111561596157600080fd5b5061596e8b828c01615864565b92505060e089013590509295985092959890939650565b60006020828403121561599757600080fd5b5035919050565b60008083601f8401126159b057600080fd5b50813567ffffffffffffffff8111156159c857600080fd5b6020830191508360208260051b85010111156159e357600080fd5b9250929050565b60008060008060408587031215615a0057600080fd5b843567ffffffffffffffff80821115615a1857600080fd5b615a248883890161599e565b90965094506020870135915080821115615a3d57600080fd5b50615a4a8782880161599e565b95989497509550505050565b60008060208385031215615a6957600080fd5b823567ffffffffffffffff811115615a8057600080fd5b615a8c8582860161599e565b90969095509350505050565b60008060408385031215615aab57600080fd5b615ab4836157d5565b946020939093013593505050565b600060208284031215615ad457600080fd5b611163826157d5565b60008060408385031215615af057600080fd5b50508035926020909101359150565b60008060408385031215615b1257600080fd5b615b1b836157d5565b915060208084013567ffffffffffffffff80821115615b3957600080fd5b818601915086601f830112615b4d57600080fd5b813581811115615b5f57615b5f61581d565b615b71601f8201601f19168501615833565b91508082528784828501011115615b8757600080fd5b80848401858401376000848284010152508093505050509250929050565b600080600080600060608688031215615bbd57600080fd5b853567ffffffffffffffff80821115615bd557600080fd5b615be189838a0161599e565b90975095506020880135915080821115615bfa57600080fd5b50615c078882890161599e565b96999598509660400135949350505050565b600080600060408486031215615c2e57600080fd5b615c37846157d5565b9250602084013567ffffffffffffffff811115615c5357600080fd5b615c5f8682870161599e565b9497909650939450505050565b600081518084526020808501945080840160005b83811015615c9c57815187529582019590820190600101615c80565b509495945050505050565b604081526000615cba6040830185615c6c565b8281036020840152613bd68185615c6c565b634e487b7160e01b600052602160045260246000fd5b6001600160a01b038c811682528b166020820152604081018a9052606081018990526080810188905260a0810187905260c0810186905260e0810185905261010081018490526101208101839052610160810160038310615d5357634e487b7160e01b600052602160045260246000fd5b826101408301529c9b505050505050505050505050565b60008060008060008060008060006101208a8c031215615d8957600080fd5b615d928a6157d5565b9850615da060208b016157d5565b975060408a013567ffffffffffffffff80821115615dbd57600080fd5b615dc98d838e01615864565b985060608c0135915080821115615ddf57600080fd5b50615dec8c828d01615864565b96505060808a0135945060a08a01359350615e0960c08b016157d5565b925060e08a013591506101008a013590509295985092959850929598565b60005b83811015615e42578181015183820152602001615e2a565b838111156118f05750506000910152565b60008151808452615e6b816020860160208601615e27565b601f01601f19169290920160200192915050565b6020815260006111636020830184615e53565b634e487b7160e01b600052603260045260246000fd5b634e487b7160e01b600052601160045260246000fd5b60008219821115615ed157615ed1615ea8565b500190565b600082821015615ee857615ee8615ea8565b500390565b6000816000190483118215151615615f0757615f07615ea8565b500290565b600082615f2957634e487b7160e01b600052601260045260246000fd5b500490565b600060208284031215615f4057600080fd5b8151801515811461116357600080fd5b60208082526012908201527110d3d395149050d517d254d7d4105554d15160721b604082015260600190565b6000600019821415615f9057615f90615ea8565b5060010190565b6020808252602c908201527f46756e6374696f6e206d7573742062652063616c6c6564207468726f7567682060408201526b19195b1959d85d1958d85b1b60a21b606082015260800190565b6020808252602c908201527f46756e6374696f6e206d7573742062652063616c6c6564207468726f7567682060408201526b6163746976652070726f787960a01b606082015260800190565b6001600160a01b039384168152919092166020820152604081019190915260600190565b60006020828403121561606557600080fd5b5051919050565b6000825161607e818460208701615e27565b9190910192915050565b7f416363657373436f6e74726f6c3a206163636f756e74200000000000000000008152600083516160c0816017850160208801615e27565b7001034b99036b4b9b9b4b733903937b6329607d1b60179184019182015283516160f1816028840160208801615e27565b01602801949350505050565b60008161610c5761610c615ea8565b506000190190565b6020808252602b908201527f496e697469616c697a61626c653a20636f6e7472616374206973206e6f74206960408201526a6e697469616c697a696e6760a81b60608201526080019056fe930802d0eadfb856cb83e01d1c4daa3c89e9c6d9f74cfbe13124decf2b33128a416464726573733a206c6f772d6c6576656c2064656c65676174652063616c6c206661696c6564f7db13299c8a9e501861f04c20f69a2444829a36a363cfad4b58864709c755603a2f235c9daaf33349d300aadff2f15078a89df81bcfdd45ba11c8f816bddc6fa2646970667358221220514396b8224633d2377fc7b3e578adb2eb8b344604d6746d6fd3d2c19d4854f764736f6c634300080a0033",
    "linkReferences": {}
  },
  "methodIdentifiers": {
    "AIRDROP_ROLE()": "1e0fbfa2",
    "CLAIM_ROLE()": "86c1b4eb",
    "DEFAULT_ADMIN_ROLE()": "a217fddf",
    "FOUR_YEARS()": "fe904b7a",
    "ONE_MONTH()": "20988cef",
    "PAUSE_ROLE()": "389ed267",
    "STREAM_MANAGER_ROLE()": "3ea005c8",
    "adminDelegatecall(address,bytes)": "b8e9744c",
    "adminPause(uint256)": "2692c59f",
    "adminSstore(uint256,uint256)": "be831a2e",
    "adminSstoreWithMask(uint256,uint256,uint256)": "6c4624c3",
    "auroraToken()": "5578fdb2",
    "batchClaimOnBehalfOfAnotherUser(address,uint256[])": "6458edd3",
    "batchClaimOnBehalfOfOtherUsers(address[],uint256[])": "26cdddb9",
    "batchMoveRewardsToPending(uint256[])": "687dd46c",
    "batchWithdraw(uint256[])": "72e55399",
    "cancelStreamProposal(uint256)": "90403322",
    "claimAllOnBehalfOfAnotherUser(address)": "d5050aed",
    "claimAllOnBehalfOfOtherUsers(address[])": "27571969",
    "claimOnBehalfOfAnotherUser(address,uint256)": "3e9a44cb",
    "createStream(uint256,uint256)": "8d40bd03",
    "getAmountOfShares(uint256,address)": "0efd8310",
    "getLatestRewardPerShare(uint256)": "12dd67fe",
    "getPending(uint256,address)": "7f37df3b",
    "getReleaseTime(uint256,address)": "c8927723",
    "getRewardPerShare(uint256)": "993b21c1",
    "getRewardPerShareForUser(uint256,address)": "1dd00452",
    "getRewardsAmount(uint256,uint256)": "36630cc7",
    "getRoleAdmin(bytes32)": "248a9ca3",
    "getStream(uint256)": "894e9a0d",
    "getStreamClaimableAmount(uint256,address)": "1c61e617",
    "getStreamOwnerClaimableAmount(uint256)": "396a6c14",
    "getStreamSchedule(uint256)": "70bc770c",
    "getStreamsCount()": "e335e79a",
    "getTotalAmountOfStakedAurora()": "cd5ba590",
    "getTreasuryBalance(address)": "57baeac8",
    "getUserShares(address)": "ba0cb22b",
    "getUserTotalDeposit(address)": "a4c828dc",
    "grantRole(bytes32,address)": "2f2ff15d",
    "hasRole(bytes32,address)": "91d14854",
    "initialize(address,address,uint256[],uint256[],uint256,uint256,address,uint256,uint256)": "a81c6a15",
    "maxWeight()": "a8b0bb83",
    "minWeight()": "0c2ee55e",
    "moveAllRewardsToPending()": "8bc34e77",
    "moveRewardsToPending(uint256)": "ee13ad8e",
    "paused()": "5c975abb",
    "proposeStream(address,address,uint256,uint256,uint256,uint256[],uint256[],uint256)": "1194ebeb",
    "releaseAuroraRewardsToStreamOwner(uint256)": "9c52a920",
    "removeStream(uint256,address)": "3ba31abf",
    "renounceRole(bytes32,address)": "36568abe",
    "revokeRole(bytes32,address)": "d547741f",
    "rewardsSchedule(uint256,uint256,uint256)": "03687788",
    "stake(uint256)": "a694fc3a",
    "stakeOnBehalfOfAnotherUser(address,uint256)": "2ca783f3",
    "stakeOnBehalfOfOtherUsers(address[],uint256[],uint256)": "53a4cca0",
    "startEndScheduleIndex(uint256,uint256,uint256)": "4981912e",
    "storageVar()": "6c827cb1",
    "supportsInterface(bytes4)": "01ffc9a7",
    "totalAmountOfStakedAurora()": "3895a275",
    "totalAuroraShares()": "bb07ec1b",
    "totalStreamShares()": "6db8e53d",
    "touchedAt()": "1fd8c5f4",
    "treasury()": "61d027b3",
    "unstake(uint256)": "2e17de78",
    "unstakeAll()": "35322f37",
    "updateTreasury(address)": "7f51bb1f",
    "upgradeTo(address)": "3659cfe6",
    "upgradeToAndCall(address,bytes)": "4f1ef286",
    "users(address)": "a87430ba",
    "withdraw(uint256)": "2e1a7d4d",
    "withdrawAll()": "853828b6"
  },
  "id": 8
}