{
  "abi": [
    {
      "anonymous": false,
      "inputs": [
        {
          "indexed": false,
          "internalType": "address",
          "name": "previousAdmin",
          "type": "address"
        },
        {
          "indexed": false,
          "internalType": "address",
          "name": "newAdmin",
          "type": "address"
        }
      ],
      "name": "AdminChanged",
      "type": "event"
    },
    {
      "anonymous": false,
      "inputs": [
        {
          "indexed": true,
          "internalType": "address",
          "name": "beacon",
          "type": "address"
        }
      ],
      "name": "BeaconUpgraded",
      "type": "event"
    },
    {
      "anonymous": false,
      "inputs": [
        {
          "indexed": true,
          "internalType": "uint256",
          "name": "streamId",
          "type": "uint256"
        },
        {
          "indexed": true,
          "internalType": "address",
          "name": "user",
          "type": "address"
        },
        {
          "indexed": false,
          "internalType": "uint256",
          "name": "amount",
          "type": "uint256"
        }
      ],
      "name": "Pending",
      "type": "event"
    },
    {
      "anonymous": false,
      "inputs": [
        {
          "indexed": true,
          "internalType": "uint256",
          "name": "streamId",
          "type": "uint256"
        },
        {
          "indexed": true,
          "internalType": "address",
          "name": "user",
          "type": "address"
        },
        {
          "indexed": false,
          "internalType": "uint256",
          "name": "amount",
          "type": "uint256"
        }
      ],
      "name": "Released",
      "type": "event"
    },
    {
      "anonymous": false,
      "inputs": [
        {
          "indexed": true,
          "internalType": "bytes32",
          "name": "role",
          "type": "bytes32"
        },
        {
          "indexed": true,
          "internalType": "bytes32",
          "name": "previousAdminRole",
          "type": "bytes32"
        },
        {
          "indexed": true,
          "internalType": "bytes32",
          "name": "newAdminRole",
          "type": "bytes32"
        }
      ],
      "name": "RoleAdminChanged",
      "type": "event"
    },
    {
      "anonymous": false,
      "inputs": [
        {
          "indexed": true,
          "internalType": "bytes32",
          "name": "role",
          "type": "bytes32"
        },
        {
          "indexed": true,
          "internalType": "address",
          "name": "account",
          "type": "address"
        },
        {
          "indexed": true,
          "internalType": "address",
          "name": "sender",
          "type": "address"
        }
      ],
      "name": "RoleGranted",
      "type": "event"
    },
    {
      "anonymous": false,
      "inputs": [
        {
          "indexed": true,
          "internalType": "bytes32",
          "name": "role",
          "type": "bytes32"
        },
        {
          "indexed": true,
          "internalType": "address",
          "name": "account",
          "type": "address"
        },
        {
          "indexed": true,
          "internalType": "address",
          "name": "sender",
          "type": "address"
        }
      ],
      "name": "RoleRevoked",
      "type": "event"
    },
    {
      "anonymous": false,
      "inputs": [
        {
          "indexed": true,
          "internalType": "address",
          "name": "user",
          "type": "address"
        },
        {
          "indexed": false,
          "internalType": "uint256",
          "name": "amount",
          "type": "uint256"
        },
        {
          "indexed": false,
          "internalType": "uint256",
          "name": "shares",
          "type": "uint256"
        }
      ],
      "name": "Staked",
      "type": "event"
    },
    {
      "anonymous": false,
      "inputs": [
        {
          "indexed": true,
          "internalType": "uint256",
          "name": "streamId",
          "type": "uint256"
        },
        {
          "indexed": true,
          "internalType": "address",
          "name": "owner",
          "type": "address"
        },
        {
          "indexed": true,
          "internalType": "address",
          "name": "token",
          "type": "address"
        },
        {
          "indexed": false,
          "internalType": "uint256",
          "name": "tokenAmount",
          "type": "uint256"
        },
        {
          "indexed": false,
          "internalType": "uint256",
          "name": "auroraAmount",
          "type": "uint256"
        }
      ],
      "name": "StreamCreated",
      "type": "event"
    },
    {
      "anonymous": false,
      "inputs": [
        {
          "indexed": true,
          "internalType": "uint256",
          "name": "streamId",
          "type": "uint256"
        },
        {
          "indexed": true,
          "internalType": "address",
          "name": "owner",
          "type": "address"
        },
        {
          "indexed": false,
          "internalType": "uint256",
          "name": "amount",
          "type": "uint256"
        }
      ],
      "name": "StreamOwnerRewardReleased",
      "type": "event"
    },
    {
      "anonymous": false,
      "inputs": [
        {
          "indexed": true,
          "internalType": "uint256",
          "name": "streamId",
          "type": "uint256"
        },
        {
          "indexed": true,
          "internalType": "address",
          "name": "owner",
          "type": "address"
        },
        {
          "indexed": true,
          "internalType": "address",
          "name": "token",
          "type": "address"
        }
      ],
      "name": "StreamProposalCancelled",
      "type": "event"
    },
    {
      "anonymous": false,
      "inputs": [
        {
          "indexed": true,
          "internalType": "uint256",
          "name": "streamId",
          "type": "uint256"
        },
        {
          "indexed": true,
          "internalType": "address",
          "name": "owner",
          "type": "address"
        },
        {
          "indexed": true,
          "internalType": "address",
          "name": "token",
          "type": "address"
        },
        {
          "indexed": false,
          "internalType": "uint256",
          "name": "maxDepositAmount",
          "type": "uint256"
        },
        {
          "indexed": false,
          "internalType": "uint256",
          "name": "auroraDepositAmount",
          "type": "uint256"
        }
      ],
      "name": "StreamProposed",
      "type": "event"
    },
    {
      "anonymous": false,
      "inputs": [
        {
          "indexed": true,
          "internalType": "uint256",
          "name": "streamId",
          "type": "uint256"
        },
        {
          "indexed": true,
          "internalType": "address",
          "name": "owner",
          "type": "address"
        },
        {
          "indexed": true,
          "internalType": "address",
          "name": "token",
          "type": "address"
        }
      ],
      "name": "StreamRemoved",
      "type": "event"
    },
    {
      "anonymous": false,
      "inputs": [
        {
          "indexed": true,
          "internalType": "address",
          "name": "user",
          "type": "address"
        },
        {
          "indexed": false,
          "internalType": "uint256",
          "name": "amount",
          "type": "uint256"
        }
      ],
      "name": "Unstaked",
      "type": "event"
    },
    {
      "anonymous": false,
      "inputs": [
        {
          "indexed": true,
          "internalType": "address",
          "name": "implementation",
          "type": "address"
        }
      ],
      "name": "Upgraded",
      "type": "event"
    },
    {
      "inputs": [],
      "name": "AIRDROP_ROLE",
      "outputs": [
        {
          "internalType": "bytes32",
          "name": "",
          "type": "bytes32"
        }
      ],
      "stateMutability": "view",
      "type": "function"
    },
    {
      "inputs": [],
      "name": "CLAIM_ROLE",
      "outputs": [
        {
          "internalType": "bytes32",
          "name": "",
          "type": "bytes32"
        }
      ],
      "stateMutability": "view",
      "type": "function"
    },
    {
      "inputs": [],
      "name": "DEFAULT_ADMIN_ROLE",
      "outputs": [
        {
          "internalType": "bytes32",
          "name": "",
          "type": "bytes32"
        }
      ],
      "stateMutability": "view",
      "type": "function"
    },
    {
      "inputs": [],
      "name": "FOUR_YEARS",
      "outputs": [
        {
          "internalType": "uint256",
          "name": "",
          "type": "uint256"
        }
      ],
      "stateMutability": "view",
      "type": "function"
    },
    {
      "inputs": [],
      "name": "ONE_MONTH",
      "outputs": [
        {
          "internalType": "uint256",
          "name": "",
          "type": "uint256"
        }
      ],
      "stateMutability": "view",
      "type": "function"
    },
    {
      "inputs": [],
      "name": "PAUSE_ROLE",
      "outputs": [
        {
          "internalType": "bytes32",
          "name": "",
          "type": "bytes32"
        }
      ],
      "stateMutability": "view",
      "type": "function"
    },
    {
      "inputs": [],
      "name": "STREAM_MANAGER_ROLE",
      "outputs": [
        {
          "internalType": "bytes32",
          "name": "",
          "type": "bytes32"
        }
      ],
      "stateMutability": "view",
      "type": "function"
    },
    {
      "inputs": [
        {
          "internalType": "address",
          "name": "target",
          "type": "address"
        },
        {
          "internalType": "bytes",
          "name": "data",
          "type": "bytes"
        }
      ],
      "name": "adminDelegatecall",
      "outputs": [
        {
          "internalType": "bytes",
          "name": "",
          "type": "bytes"
        }
      ],
      "stateMutability": "payable",
      "type": "function"
    },
    {
      "inputs": [
        {
          "internalType": "uint256",
          "name": "flags",
          "type": "uint256"
        }
      ],
      "name": "adminPause",
      "outputs": [],
      "stateMutability": "nonpayable",
      "type": "function"
    },
    {
      "inputs": [
        {
          "internalType": "uint256",
          "name": "key",
          "type": "uint256"
        },
        {
          "internalType": "uint256",
          "name": "value",
          "type": "uint256"
        }
      ],
      "name": "adminSstore",
      "outputs": [],
      "stateMutability": "nonpayable",
      "type": "function"
    },
    {
      "inputs": [
        {
          "internalType": "uint256",
          "name": "key",
          "type": "uint256"
        },
        {
          "internalType": "uint256",
          "name": "value",
          "type": "uint256"
        },
        {
          "internalType": "uint256",
          "name": "mask",
          "type": "uint256"
        }
      ],
      "name": "adminSstoreWithMask",
      "outputs": [],
      "stateMutability": "nonpayable",
      "type": "function"
    },
    {
      "inputs": [],
      "name": "auroraToken",
      "outputs": [
        {
          "internalType": "address",
          "name": "",
          "type": "address"
        }
      ],
      "stateMutability": "view",
      "type": "function"
    },
    {
      "inputs": [
        {
          "internalType": "address",
          "name": "account",
          "type": "address"
        },
        {
          "internalType": "uint256[]",
          "name": "streamIds",
          "type": "uint256[]"
        }
      ],
      "name": "batchClaimOnBehalfOfAnotherUser",
      "outputs": [],
      "stateMutability": "nonpayable",
      "type": "function"
    },
    {
      "inputs": [
        {
          "internalType": "address[]",
          "name": "accounts",
          "type": "address[]"
        },
        {
          "internalType": "uint256[]",
          "name": "streamIds",
          "type": "uint256[]"
        }
      ],
      "name": "batchClaimOnBehalfOfOtherUsers",
      "outputs": [],
      "stateMutability": "nonpayable",
      "type": "function"
    },
    {
      "inputs": [
        {
          "internalType": "uint256[]",
          "name": "streamIds",
          "type": "uint256[]"
        }
      ],
      "name": "batchMoveRewardsToPending",
      "outputs": [],
      "stateMutability": "nonpayable",
      "type": "function"
    },
    {
      "inputs": [
        {
          "internalType": "uint256[]",
          "name": "streamIds",
          "type": "uint256[]"
        }
      ],
      "name": "batchWithdraw",
      "outputs": [],
      "stateMutability": "nonpayable",
      "type": "function"
    },
    {
      "inputs": [
        {
          "internalType": "uint256",
          "name": "startTime",
          "type": "uint256"
        },
        {
          "internalType": "uint256",
          "name": "endTime",
          "type": "uint256"
        }
      ],
      "name": "before",
      "outputs": [
        {
          "internalType": "uint256",
          "name": "total",
          "type": "uint256"
        },
        {
          "internalType": "uint256",
          "name": "rewardPerShareAurora",
          "type": "uint256"
        },
        {
          "internalType": "uint256",
          "name": "scheduleCalculated",
          "type": "uint256"
        }
      ],
      "stateMutability": "view",
      "type": "function"
    },
    {
      "inputs": [
        {
          "internalType": "uint256",
          "name": "shares",
          "type": "uint256"
        },
        {
          "internalType": "uint256",
          "name": "timestamp",
          "type": "uint256"
        }
      ],
      "name": "calculateWeightedShares",
      "outputs": [
        {
          "internalType": "uint256",
          "name": "",
          "type": "uint256"
        }
      ],
      "stateMutability": "view",
      "type": "function"
    },
    {
      "inputs": [],
      "name": "callBeforeTwice",
      "outputs": [],
      "stateMutability": "nonpayable",
      "type": "function"
    },
    {
      "inputs": [
        {
          "internalType": "uint256",
          "name": "streamId",
          "type": "uint256"
        }
      ],
      "name": "cancelStreamProposal",
      "outputs": [],
      "stateMutability": "nonpayable",
      "type": "function"
    },
    {
      "inputs": [
        {
          "internalType": "address",
          "name": "account",
          "type": "address"
        }
      ],
      "name": "claimAllOnBehalfOfAnotherUser",
      "outputs": [],
      "stateMutability": "nonpayable",
      "type": "function"
    },
    {
      "inputs": [
        {
          "internalType": "address[]",
          "name": "accounts",
          "type": "address[]"
        }
      ],
      "name": "claimAllOnBehalfOfOtherUsers",
      "outputs": [],
      "stateMutability": "nonpayable",
      "type": "function"
    },
    {
      "inputs": [
        {
          "internalType": "address",
          "name": "account",
          "type": "address"
        },
        {
          "internalType": "uint256",
          "name": "streamId",
          "type": "uint256"
        }
      ],
      "name": "claimOnBehalfOfAnotherUser",
      "outputs": [],
      "stateMutability": "nonpayable",
      "type": "function"
    },
    {
      "inputs": [
        {
          "internalType": "uint256",
          "name": "streamId",
          "type": "uint256"
        },
        {
          "internalType": "uint256",
          "name": "rewardTokenAmount",
          "type": "uint256"
        }
      ],
      "name": "createStream",
      "outputs": [],
      "stateMutability": "nonpayable",
      "type": "function"
    },
    {
      "inputs": [
        {
          "internalType": "uint256",
          "name": "streamId",
          "type": "uint256"
        },
        {
          "internalType": "address",
          "name": "account",
          "type": "address"
        }
      ],
      "name": "getAmountOfShares",
      "outputs": [
        {
          "internalType": "uint256",
          "name": "",
          "type": "uint256"
        }
      ],
      "stateMutability": "view",
      "type": "function"
    },
    {
      "inputs": [
        {
          "internalType": "uint256",
          "name": "streamId",
          "type": "uint256"
        }
      ],
      "name": "getLatestRewardPerShare",
      "outputs": [
        {
          "internalType": "uint256",
          "name": "",
          "type": "uint256"
        }
      ],
      "stateMutability": "view",
      "type": "function"
    },
    {
      "inputs": [
        {
          "internalType": "uint256",
          "name": "streamId",
          "type": "uint256"
        },
        {
          "internalType": "address",
          "name": "account",
          "type": "address"
        }
      ],
      "name": "getPending",
      "outputs": [
        {
          "internalType": "uint256",
          "name": "",
          "type": "uint256"
        }
      ],
      "stateMutability": "view",
      "type": "function"
    },
    {
      "inputs": [
        {
          "internalType": "uint256",
          "name": "streamId",
          "type": "uint256"
        },
        {
          "internalType": "address",
          "name": "account",
          "type": "address"
        }
      ],
      "name": "getReleaseTime",
      "outputs": [
        {
          "internalType": "uint256",
          "name": "",
          "type": "uint256"
        }
      ],
      "stateMutability": "view",
      "type": "function"
    },
    {
      "inputs": [
        {
          "internalType": "uint256",
          "name": "streamId",
          "type": "uint256"
        }
      ],
      "name": "getRewardPerShare",
      "outputs": [
        {
          "internalType": "uint256",
          "name": "",
          "type": "uint256"
        }
      ],
      "stateMutability": "view",
      "type": "function"
    },
    {
      "inputs": [
        {
          "internalType": "uint256",
          "name": "streamId",
          "type": "uint256"
        },
        {
          "internalType": "address",
          "name": "account",
          "type": "address"
        }
      ],
      "name": "getRewardPerShareForUser",
      "outputs": [
        {
          "internalType": "uint256",
          "name": "",
          "type": "uint256"
        }
      ],
      "stateMutability": "view",
      "type": "function"
    },
    {
      "inputs": [
        {
          "internalType": "uint256",
          "name": "streamId",
          "type": "uint256"
        },
        {
          "internalType": "uint256",
          "name": "lastUpdate",
          "type": "uint256"
        }
      ],
      "name": "getRewardsAmount",
      "outputs": [
        {
          "internalType": "uint256",
          "name": "",
          "type": "uint256"
        }
      ],
      "stateMutability": "view",
      "type": "function"
    },
    {
      "inputs": [
        {
          "internalType": "bytes32",
          "name": "role",
          "type": "bytes32"
        }
      ],
      "name": "getRoleAdmin",
      "outputs": [
        {
          "internalType": "bytes32",
          "name": "",
          "type": "bytes32"
        }
      ],
      "stateMutability": "view",
      "type": "function"
    },
    {
      "inputs": [
        {
          "internalType": "uint256",
          "name": "streamId",
          "type": "uint256"
        }
      ],
      "name": "getStream",
      "outputs": [
        {
          "internalType": "address",
          "name": "streamOwner",
          "type": "address"
        },
        {
          "internalType": "address",
          "name": "rewardToken",
          "type": "address"
        },
        {
          "internalType": "uint256",
          "name": "auroraDepositAmount",
          "type": "uint256"
        },
        {
          "internalType": "uint256",
          "name": "auroraClaimedAmount",
          "type": "uint256"
        },
        {
          "internalType": "uint256",
          "name": "rewardDepositAmount",
          "type": "uint256"
        },
        {
          "internalType": "uint256",
          "name": "rewardClaimedAmount",
          "type": "uint256"
        },
        {
          "internalType": "uint256",
          "name": "maxDepositAmount",
          "type": "uint256"
        },
        {
          "internalType": "uint256",
          "name": "lastTimeOwnerClaimed",
          "type": "uint256"
        },
        {
          "internalType": "uint256",
          "name": "rps",
          "type": "uint256"
        },
        {
          "internalType": "uint256",
          "name": "tau",
          "type": "uint256"
        },
        {
          "internalType": "enum JetStakingV1.StreamStatus",
          "name": "status",
          "type": "uint8"
        }
      ],
      "stateMutability": "view",
      "type": "function"
    },
    {
      "inputs": [
        {
          "internalType": "uint256",
          "name": "streamId",
          "type": "uint256"
        },
        {
          "internalType": "address",
          "name": "account",
          "type": "address"
        }
      ],
      "name": "getStreamClaimableAmount",
      "outputs": [
        {
          "internalType": "uint256",
          "name": "",
          "type": "uint256"
        }
      ],
      "stateMutability": "view",
      "type": "function"
    },
    {
      "inputs": [
        {
          "internalType": "uint256",
          "name": "streamId",
          "type": "uint256"
        }
      ],
      "name": "getStreamOwnerClaimableAmount",
      "outputs": [
        {
          "internalType": "uint256",
          "name": "",
          "type": "uint256"
        }
      ],
      "stateMutability": "view",
      "type": "function"
    },
    {
      "inputs": [
        {
          "internalType": "uint256",
          "name": "streamId",
          "type": "uint256"
        }
      ],
      "name": "getStreamSchedule",
      "outputs": [
        {
          "internalType": "uint256[]",
          "name": "scheduleTimes",
          "type": "uint256[]"
        },
        {
          "internalType": "uint256[]",
          "name": "scheduleRewards",
          "type": "uint256[]"
        }
      ],
      "stateMutability": "view",
      "type": "function"
    },
    {
      "inputs": [],
      "name": "getStreamsCount",
      "outputs": [
        {
          "internalType": "uint256",
          "name": "",
          "type": "uint256"
        }
      ],
      "stateMutability": "view",
      "type": "function"
    },
    {
      "inputs": [],
      "name": "getTotalAmountOfStakedAurora",
      "outputs": [
        {
          "internalType": "uint256",
          "name": "",
          "type": "uint256"
        }
      ],
      "stateMutability": "view",
      "type": "function"
    },
    {
      "inputs": [
        {
          "internalType": "address",
          "name": "token",
          "type": "address"
        }
      ],
      "name": "getTreasuryBalance",
      "outputs": [
        {
          "internalType": "uint256",
          "name": "",
          "type": "uint256"
        }
      ],
      "stateMutability": "view",
      "type": "function"
    },
    {
      "inputs": [
        {
          "internalType": "address",
          "name": "account",
          "type": "address"
        }
      ],
      "name": "getUserShares",
      "outputs": [
        {
          "internalType": "uint256",
          "name": "",
          "type": "uint256"
        }
      ],
      "stateMutability": "view",
      "type": "function"
    },
    {
      "inputs": [
        {
          "internalType": "address",
          "name": "account",
          "type": "address"
        }
      ],
      "name": "getUserTotalDeposit",
      "outputs": [
        {
          "internalType": "uint256",
          "name": "",
          "type": "uint256"
        }
      ],
      "stateMutability": "view",
      "type": "function"
    },
    {
      "inputs": [
        {
          "internalType": "bytes32",
          "name": "role",
          "type": "bytes32"
        },
        {
          "internalType": "address",
          "name": "account",
          "type": "address"
        }
      ],
      "name": "grantRole",
      "outputs": [],
      "stateMutability": "nonpayable",
      "type": "function"
    },
    {
      "inputs": [
        {
          "internalType": "bytes32",
          "name": "role",
          "type": "bytes32"
        },
        {
          "internalType": "address",
          "name": "account",
          "type": "address"
        }
      ],
      "name": "hasRole",
      "outputs": [
        {
          "internalType": "bool",
          "name": "",
          "type": "bool"
        }
      ],
      "stateMutability": "view",
      "type": "function"
    },
    {
      "inputs": [
        {
          "internalType": "address",
          "name": "aurora",
          "type": "address"
        },
        {
          "internalType": "address",
          "name": "streamOwner",
          "type": "address"
        },
        {
          "internalType": "uint256[]",
          "name": "scheduleTimes",
          "type": "uint256[]"
        },
        {
          "internalType": "uint256[]",
          "name": "scheduleRewards",
          "type": "uint256[]"
        },
        {
          "internalType": "uint256",
          "name": "tauAuroraStream",
          "type": "uint256"
        },
        {
          "internalType": "uint256",
          "name": "_flags",
          "type": "uint256"
        },
        {
          "internalType": "address",
          "name": "_treasury",
          "type": "address"
        },
        {
          "internalType": "uint256",
          "name": "_maxWeight",
          "type": "uint256"
        },
        {
          "internalType": "uint256",
          "name": "_minWeight",
          "type": "uint256"
        }
      ],
      "name": "initialize",
      "outputs": [],
      "stateMutability": "nonpayable",
      "type": "function"
    },
    {
      "inputs": [],
      "name": "maxWeight",
      "outputs": [
        {
          "internalType": "uint256",
          "name": "",
          "type": "uint256"
        }
      ],
      "stateMutability": "view",
      "type": "function"
    },
    {
      "inputs": [],
      "name": "minWeight",
      "outputs": [
        {
          "internalType": "uint256",
          "name": "",
          "type": "uint256"
        }
      ],
      "stateMutability": "view",
      "type": "function"
    },
    {
      "inputs": [],
      "name": "moveAllRewardsToPending",
      "outputs": [],
      "stateMutability": "nonpayable",
      "type": "function"
    },
    {
      "inputs": [
        {
          "internalType": "uint256",
          "name": "streamId",
          "type": "uint256"
        }
      ],
      "name": "moveRewardsToPending",
      "outputs": [],
      "stateMutability": "nonpayable",
      "type": "function"
    },
    {
      "inputs": [],
      "name": "paused",
      "outputs": [
        {
          "internalType": "uint256",
          "name": "",
          "type": "uint256"
        }
      ],
      "stateMutability": "view",
      "type": "function"
    },
    {
      "inputs": [
        {
          "internalType": "address",
          "name": "streamOwner",
          "type": "address"
        },
        {
          "internalType": "address",
          "name": "rewardToken",
          "type": "address"
        },
        {
          "internalType": "uint256",
          "name": "auroraDepositAmount",
          "type": "uint256"
        },
        {
          "internalType": "uint256",
          "name": "maxDepositAmount",
          "type": "uint256"
        },
        {
          "internalType": "uint256",
          "name": "minDepositAmount",
          "type": "uint256"
        },
        {
          "internalType": "uint256[]",
          "name": "scheduleTimes",
          "type": "uint256[]"
        },
        {
          "internalType": "uint256[]",
          "name": "scheduleRewards",
          "type": "uint256[]"
        },
        {
          "internalType": "uint256",
          "name": "tau",
          "type": "uint256"
        }
      ],
      "name": "proposeStream",
      "outputs": [],
      "stateMutability": "nonpayable",
      "type": "function"
    },
    {
      "inputs": [
        {
          "internalType": "uint256",
          "name": "streamId",
          "type": "uint256"
        }
      ],
      "name": "releaseAuroraRewardsToStreamOwner",
      "outputs": [],
      "stateMutability": "nonpayable",
      "type": "function"
    },
    {
      "inputs": [
        {
          "internalType": "uint256",
          "name": "streamId",
          "type": "uint256"
        },
        {
          "internalType": "address",
          "name": "streamFundReceiver",
          "type": "address"
        }
      ],
      "name": "removeStream",
      "outputs": [],
      "stateMutability": "nonpayable",
      "type": "function"
    },
    {
      "inputs": [
        {
          "internalType": "bytes32",
          "name": "role",
          "type": "bytes32"
        },
        {
          "internalType": "address",
          "name": "account",
          "type": "address"
        }
      ],
      "name": "renounceRole",
      "outputs": [],
      "stateMutability": "nonpayable",
      "type": "function"
    },
    {
      "inputs": [
        {
          "internalType": "bytes32",
          "name": "role",
          "type": "bytes32"
        },
        {
          "internalType": "address",
          "name": "account",
          "type": "address"
        }
      ],
      "name": "revokeRole",
      "outputs": [],
      "stateMutability": "nonpayable",
      "type": "function"
    },
    {
      "inputs": [
        {
          "internalType": "uint256",
          "name": "streamId",
          "type": "uint256"
        },
        {
          "internalType": "uint256",
          "name": "start",
          "type": "uint256"
        },
        {
          "internalType": "uint256",
          "name": "end",
          "type": "uint256"
        }
      ],
      "name": "rewardsSchedule",
      "outputs": [
        {
          "internalType": "uint256",
          "name": "",
          "type": "uint256"
        }
      ],
      "stateMutability": "view",
      "type": "function"
    },
    {
      "inputs": [
        {
          "internalType": "uint256",
          "name": "amount",
          "type": "uint256"
        }
      ],
      "name": "stake",
      "outputs": [],
      "stateMutability": "nonpayable",
      "type": "function"
    },
    {
      "inputs": [
        {
          "internalType": "address",
          "name": "account",
          "type": "address"
        },
        {
          "internalType": "uint256",
          "name": "amount",
          "type": "uint256"
        }
      ],
      "name": "stakeOnBehalfOfAnotherUser",
      "outputs": [],
      "stateMutability": "nonpayable",
      "type": "function"
    },
    {
      "inputs": [
        {
          "internalType": "address[]",
          "name": "accounts",
          "type": "address[]"
        },
        {
          "internalType": "uint256[]",
          "name": "amounts",
          "type": "uint256[]"
        },
        {
          "internalType": "uint256",
          "name": "batchAmount",
          "type": "uint256"
        }
      ],
      "name": "stakeOnBehalfOfOtherUsers",
      "outputs": [],
      "stateMutability": "nonpayable",
      "type": "function"
    },
    {
      "inputs": [
        {
          "internalType": "uint256",
          "name": "streamId",
          "type": "uint256"
        },
        {
          "internalType": "uint256",
          "name": "start",
          "type": "uint256"
        },
        {
          "internalType": "uint256",
          "name": "end",
          "type": "uint256"
        }
      ],
      "name": "startEndScheduleIndex",
      "outputs": [
        {
          "internalType": "uint256",
          "name": "startIndex",
          "type": "uint256"
        },
        {
          "internalType": "uint256",
          "name": "endIndex",
          "type": "uint256"
        }
      ],
      "stateMutability": "view",
      "type": "function"
    },
    {
      "inputs": [
        {
          "internalType": "bytes4",
          "name": "interfaceId",
          "type": "bytes4"
        }
      ],
      "name": "supportsInterface",
      "outputs": [
        {
          "internalType": "bool",
          "name": "",
          "type": "bool"
        }
      ],
      "stateMutability": "view",
      "type": "function"
    },
    {
      "inputs": [
        {
          "internalType": "address",
          "name": "account",
          "type": "address"
        },
        {
          "internalType": "uint256",
          "name": "streamId",
          "type": "uint256"
        }
      ],
      "name": "tempMoveRewardsToPending",
      "outputs": [],
      "stateMutability": "nonpayable",
      "type": "function"
    },
    {
      "inputs": [],
      "name": "totalAmountOfStakedAurora",
      "outputs": [
        {
          "internalType": "uint256",
          "name": "",
          "type": "uint256"
        }
      ],
      "stateMutability": "view",
      "type": "function"
    },
    {
      "inputs": [],
      "name": "totalAuroraShares",
      "outputs": [
        {
          "internalType": "uint256",
          "name": "",
          "type": "uint256"
        }
      ],
      "stateMutability": "view",
      "type": "function"
    },
    {
      "inputs": [],
      "name": "totalStreamShares",
      "outputs": [
        {
          "internalType": "uint256",
          "name": "",
          "type": "uint256"
        }
      ],
      "stateMutability": "view",
      "type": "function"
    },
    {
      "inputs": [],
      "name": "touchedAt",
      "outputs": [
        {
          "internalType": "uint256",
          "name": "",
          "type": "uint256"
        }
      ],
      "stateMutability": "view",
      "type": "function"
    },
    {
      "inputs": [],
      "name": "treasury",
      "outputs": [
        {
          "internalType": "address",
          "name": "",
          "type": "address"
        }
      ],
      "stateMutability": "view",
      "type": "function"
    },
    {
      "inputs": [
        {
          "internalType": "uint256",
          "name": "amount",
          "type": "uint256"
        }
      ],
      "name": "unstake",
      "outputs": [],
      "stateMutability": "nonpayable",
      "type": "function"
    },
    {
      "inputs": [],
      "name": "unstakeAll",
      "outputs": [],
      "stateMutability": "nonpayable",
      "type": "function"
    },
    {
      "inputs": [
        {
          "internalType": "address[]",
          "name": "accounts",
          "type": "address[]"
        }
      ],
      "name": "unstakeAllOnBehalfOfOthers",
      "outputs": [],
      "stateMutability": "nonpayable",
      "type": "function"
    },
    {
      "inputs": [
        {
          "internalType": "address",
          "name": "_treasury",
          "type": "address"
        }
      ],
      "name": "updateTreasury",
      "outputs": [],
      "stateMutability": "nonpayable",
      "type": "function"
    },
    {
      "inputs": [],
      "name": "updateUserCalculation",
      "outputs": [],
      "stateMutability": "nonpayable",
      "type": "function"
    },
    {
      "inputs": [
        {
          "internalType": "address",
          "name": "newImplementation",
          "type": "address"
        }
      ],
      "name": "upgradeTo",
      "outputs": [],
      "stateMutability": "nonpayable",
      "type": "function"
    },
    {
      "inputs": [
        {
          "internalType": "address",
          "name": "newImplementation",
          "type": "address"
        },
        {
          "internalType": "bytes",
          "name": "data",
          "type": "bytes"
        }
      ],
      "name": "upgradeToAndCall",
      "outputs": [],
      "stateMutability": "payable",
      "type": "function"
    },
    {
      "inputs": [
        {
          "internalType": "address",
          "name": "",
          "type": "address"
        }
      ],
      "name": "users",
      "outputs": [
        {
          "internalType": "uint256",
          "name": "deposit",
          "type": "uint256"
        },
        {
          "internalType": "uint256",
          "name": "auroraShares",
          "type": "uint256"
        },
        {
          "internalType": "uint256",
          "name": "streamShares",
          "type": "uint256"
        }
      ],
      "stateMutability": "view",
      "type": "function"
    },
    {
      "inputs": [
        {
          "internalType": "uint256",
          "name": "streamId",
          "type": "uint256"
        }
      ],
      "name": "withdraw",
      "outputs": [],
      "stateMutability": "nonpayable",
      "type": "function"
    },
    {
      "inputs": [],
      "name": "withdrawAll",
      "outputs": [],
      "stateMutability": "nonpayable",
      "type": "function"
    }
  ],
  "bytecode": {
    "object": "0x60a0604052306080523480156200001557600080fd5b50600054610100900460ff16620000335760005460ff16156200003d565b6200003d620000e2565b620000a55760405162461bcd60e51b815260206004820152602e60248201527f496e697469616c697a61626c653a20636f6e747261637420697320616c72656160448201526d191e481a5b9a5d1a585b1a5e995960921b606482015260840160405180910390fd5b600054610100900460ff16158015620000c8576000805461ffff19166101011790555b8015620000db576000805461ff00191690555b5062000106565b6000620000fa306200010060201b62003e811760201c565b15905090565b3b151590565b60805161660c6200013760003960008181611d9c01528181611ddc0152818161267901526126b9015261660c6000f3fe6080604052600436106104475760003560e01c80635c975abb116102345780639c52a9201161012e578063ba0cb22b116100b6578063d5050aed1161007a578063d5050aed14610e00578063d547741f14610e20578063e335e79a14610e40578063ee13ad8e14610e56578063fe904b7a14610e7657600080fd5b8063ba0cb22b14610d36578063bb07ec1b14610d70578063be831a2e14610d86578063c892772314610da6578063cd5ba59014610deb57600080fd5b8063a81c6a15116100fd578063a81c6a1514610c82578063a87430ba14610ca2578063a8b0bb8314610cdf578063b77b183e14610cf6578063b8e9744c14610d1657600080fd5b80639c52a92014610bf6578063a217fddf14610c16578063a4c828dc14610c2b578063a694fc3a14610c6257600080fd5b80637f37df3b116101bc5780638bc34e77116101805780638bc34e7714610b615780638d40bd0314610b765780639040332214610b9657806391d1485414610bb6578063993b21c114610bd657600080fd5b80637f37df3b14610a8e5780637f51bb1f14610ad3578063853828b614610af357806386c1b4eb14610b08578063894e9a0d14610b2a57600080fd5b8063687dd46c11610203578063687dd46c146109ea5780636c4624c314610a0a5780636db8e53d14610a2a57806370bc770c14610a4057806372e5539914610a6e57600080fd5b80635c975abb1461095857806361d027b31461096e5780636458edd31461098f5780636826747c146109af57600080fd5b80632e17de7811610345578063396a6c14116102cd5780634981912e116102915780634981912e146108975780634f1ef286146108cc57806353a4cca0146108df5780635578fdb2146108ff57806357baeac81461093857600080fd5b8063396a6c14146107f55780633ba31abf146108155780633e9a44cb146108355780633ea005c81461085557806345defb321461087757600080fd5b806336568abe1161031457806336568abe1461074b5780633659cfe61461076b57806336630cc71461078b5780633895a275146107ab578063389ed267146107c157600080fd5b80632e17de78146106d65780632e1a7d4d146106f65780632f2ff15d1461071657806335322f371461073657600080fd5b80631dd00452116103d35780632692c59f116103975780632692c59f1461063657806326cdddb91461065657806327571969146106765780632ca783f3146106965780632d0b615c146106b657600080fd5b80631dd00452146105725780631e0fbfa2146105b75780631fd8c5f4146105d957806320988cef146105ef578063248a9ca31461060657600080fd5b80630efd83101161041a5780630efd8310146104dd5780631194ebeb146104fd57806312dd67fe1461051d57806315cf64fd1461053d5780631c61e6171461055257600080fd5b806301ffc9a71461044c57806303687788146104815780630a44b773146104af5780630c2ee55e146104c6575b600080fd5b34801561045857600080fd5b5061046c610467366004615ac8565b610e8e565b60405190151581526020015b60405180910390f35b34801561048d57600080fd5b506104a161049c366004615af2565b610ec5565b604051908152602001610478565b3480156104bb57600080fd5b506104c4611234565b005b3480156104d257600080fd5b506104a16101035481565b3480156104e957600080fd5b506104a16104f8366004615b3a565b61123e565b34801561050957600080fd5b506104c4610518366004615c3c565b61128a565b34801561052957600080fd5b506104a1610538366004615ce8565b6115e8565b34801561054957600080fd5b506104c46116d6565b34801561055e57600080fd5b506104a161056d366004615b3a565b6116de565b34801561057e57600080fd5b506104a161058d366004615b3a565b6001600160a01b031660009081526101046020908152604080832093835260059093019052205490565b3480156105c357600080fd5b506104a16000805160206165b783398151915281565b3480156105e557600080fd5b506104a160fd5481565b3480156105fb57600080fd5b506104a16228207281565b34801561061257600080fd5b506104a1610621366004615ce8565b600090815260c9602052604090206001015490565b34801561064257600080fd5b506104c4610651366004615ce8565b611756565b34801561066257600080fd5b506104c4610671366004615d4d565b6117eb565b34801561068257600080fd5b506104c4610691366004615db9565b61189c565b3480156106a257600080fd5b506104c46106b1366004615dfb565b611949565b3480156106c257600080fd5b506104c46106d1366004615e25565b6119d2565b3480156106e257600080fd5b506104c46106f1366004615ce8565b611a16565b34801561070257600080fd5b506104c4610711366004615ce8565b611b34565b34801561072257600080fd5b506104c4610731366004615b3a565b611bd8565b34801561074257600080fd5b506104c4611bfe565b34801561075757600080fd5b506104c4610766366004615b3a565b611d17565b34801561077757600080fd5b506104c4610786366004615eb2565b611d91565b34801561079757600080fd5b506104a16107a6366004615ecd565b611e5a565b3480156107b757600080fd5b506104a160fc5481565b3480156107cd57600080fd5b506104a17f139c2898040ef16910dc9f44dc697df79363da767d8bc92f2e310312b816e46d81565b34801561080157600080fd5b506104a1610810366004615ce8565b611fcd565b34801561082157600080fd5b506104c4610830366004615b3a565b612058565b34801561084157600080fd5b506104c4610850366004615dfb565b61230b565b34801561086157600080fd5b506104a160008051602061655083398151915281565b34801561088357600080fd5b506104c4610892366004615dfb565b61236d565b3480156108a357600080fd5b506108b76108b2366004615af2565b612377565b60408051928352602083019190915201610478565b6104c46108da366004615eef565b61266e565b3480156108eb57600080fd5b506104c46108fa366004615f95565b612724565b34801561090b57600080fd5b5061010154610920906001600160a01b031681565b6040516001600160a01b039091168152602001610478565b34801561094457600080fd5b506104a1610953366004615eb2565b6128c2565b34801561096457600080fd5b506104a160fb5481565b34801561097a57600080fd5b5061010054610920906001600160a01b031681565b34801561099b57600080fd5b506104c46109aa366004616009565b612933565b3480156109bb57600080fd5b506109cf6109ca366004615ecd565b61299d565b60408051938452602084019290925290820152606001610478565b3480156109f657600080fd5b506104c4610a05366004615db9565b6129fa565b348015610a1657600080fd5b506104c4610a25366004615af2565b612a44565b348015610a3657600080fd5b506104a160ff5481565b348015610a4c57600080fd5b50610a60610a5b366004615ce8565b612a5c565b604051610478929190616097565b348015610a7a57600080fd5b506104c4610a89366004615db9565b612b5c565b348015610a9a57600080fd5b506104a1610aa9366004615b3a565b6001600160a01b031660009081526101046020908152604080832093835260039093019052205490565b348015610adf57600080fd5b506104c4610aee366004615eb2565b612c4f565b348015610aff57600080fd5b506104c4612d54565b348015610b1457600080fd5b506104a160008051602061659783398151915281565b348015610b3657600080fd5b50610b4a610b45366004615ce8565b612df8565b6040516104789b9a999897969594939291906160d2565b348015610b6d57600080fd5b506104c4612ebe565b348015610b8257600080fd5b506104c4610b91366004615ecd565b612f06565b348015610ba257600080fd5b506104c4610bb1366004615ce8565b6132b5565b348015610bc257600080fd5b5061046c610bd1366004615b3a565b6133ce565b348015610be257600080fd5b506104a1610bf1366004615ce8565b6133f9565b348015610c0257600080fd5b506104c4610c11366004615ce8565b613428565b348015610c2257600080fd5b506104a1600081565b348015610c3757600080fd5b506104a1610c46366004615eb2565b6001600160a01b03166000908152610104602052604090205490565b348015610c6e57600080fd5b506104c4610c7d366004615ce8565b61369d565b348015610c8e57600080fd5b506104c4610c9d36600461615a565b613707565b348015610cae57600080fd5b506109cf610cbd366004615eb2565b6101046020526000908152604090208054600182015460029092015490919083565b348015610ceb57600080fd5b506104a16101025481565b348015610d0257600080fd5b506104a1610d11366004615ecd565b613c9c565b610d29610d24366004615eef565b613ca8565b604051610478919061626f565b348015610d4257600080fd5b506104a1610d51366004615eb2565b6001600160a01b03166000908152610104602052604090206001015490565b348015610d7c57600080fd5b506104a160fe5481565b348015610d9257600080fd5b506104c4610da1366004615ecd565b613d6e565b348015610db257600080fd5b506104a1610dc1366004615b3a565b6001600160a01b031660009081526101046020908152604080832093835260049093019052205490565b348015610df757600080fd5b506104a1613d7f565b348015610e0c57600080fd5b506104c4610e1b366004615eb2565b613db1565b348015610e2c57600080fd5b506104c4610e3b366004615b3a565b613e12565b348015610e4c57600080fd5b50610105546104a1565b348015610e6257600080fd5b506104c4610e71366004615ce8565b613e38565b348015610e8257600080fd5b506104a1630786156081565b60006001600160e01b03198216637965db0b60e01b1480610ebf57506301ffc9a760e01b6001600160e01b03198316145b92915050565b6000806101058581548110610edc57610edc616282565b90600052602060002090600f0201600c019050600080610efd878787612377565b909250905060008083831415610fdc5784600101846001610f1e91906162ae565b81548110610f2e57610f2e616282565b9060005260206000200154856001018581548110610f4e57610f4e616282565b9060005260206000200154610f6391906162c6565b9050846000018481548110610f7a57610f7a616282565b60009182526020909120015485610f928660016162ae565b81548110610fa257610fa2616282565b9060005260206000200154610fb791906162c6565b610fc189896162c6565b610fcb90836162dd565b610fd591906162fc565b9150611226565b84600101846001610fed91906162ae565b81548110610ffd57610ffd616282565b906000526020600020015485600101858154811061101d5761101d616282565b906000526020600020015461103291906162c6565b905084600001848154811061104957611049616282565b600091825260209091200154856110618660016162ae565b8154811061107157611071616282565b906000526020600020015461108691906162c6565b88866110938760016162ae565b815481106110a3576110a3616282565b90600052602060002001546110b891906162c6565b6110c290836162dd565b6110cc91906162fc565b91508460010183815481106110e3576110e3616282565b9060005260206000200154856001018560016110ff91906162ae565b8154811061110f5761110f616282565b906000526020600020015461112491906162c6565b61112e90836162ae565b91508460010183600161114191906162ae565b8154811061115157611151616282565b906000526020600020015485600101848154811061117157611171616282565b906000526020600020015461118691906162c6565b905084600001838154811061119d5761119d616282565b600091825260209091200154856111b58560016162ae565b815481106111c5576111c5616282565b90600052602060002001546111da91906162c6565b8560000184815481106111ef576111ef616282565b90600052602060002001548861120591906162c6565b61120f90836162dd565b61121991906162fc565b61122390836162ae565b91505b5093505050505b9392505050565b61123c613e87565b565b60008261126857506001600160a01b03811660009081526101046020526040902060010154610ebf565b506001600160a01b031660009081526101046020526040902060020154919050565b6000805160206165508339815191526112a38133613f5f565b6112b289898888888888613fc3565b61010054604051630480051d60e31b81526001600160a01b038a811660048301529091169063240028e890602401602060405180830381865afa1580156112fd573d6000803e3d6000fd5b505050506040513d601f19601f82011682018060405250810190611321919061631e565b6113725760405162461bcd60e51b815260206004820152601f60248201527f494e56414c49445f535550504f525445445f544f4b454e5f414444524553530060448201526064015b60405180910390fd5b600060405180604001604052808681526020018581525090506000610105805490509050610105604051806101c001604052808d6001600160a01b03168152602001336001600160a01b031681526020018c6001600160a01b031681526020018b81526020016000815260200160008152602001600081526020018a81526020018981526020018860008151811061140c5761140c616282565b60200260200101518152602001868152602001600081526020018481526020016001600281111561143f5761143f6160bc565b905281546001808201845560009384526020938490208351600f9093020180546001600160a01b03199081166001600160a01b0394851617825584860151928201805482169385169390931790925560408401516002820180549093169316929092179055606082015160038201556080820151600482015560a0820151600582015560c0820151600682015560e0820151600782015561010082015160088201556101208201516009820155610140820151600a820155610160820151600b82015561018082015180518051939492939192600c8501926115249284920190615a68565b50602082810151805161153d9260018501920190615a68565b5050506101a0820151600e8201805460ff19166001836002811115611564576115646160bc565b02179055505050896001600160a01b03168b6001600160a01b0316827fe843b72f047599c26dfdab8a31d1b5f353799cab6a8482518a21f1b17871dd758b8d6040516115ba929190918252602082015260400190565b60405180910390a4610101546115db906001600160a01b031633308c614495565b5050505050505050505050565b6000816116315760405162461bcd60e51b815260206004820152601760248201527610555493d49057d49155d0549114d7d0d3d35413d55391604a1b6044820152606401611369565b60ff546116755760405162461bcd60e51b81526020600482015260126024820152715a45524f5f53545245414d5f53484152455360701b6044820152606401611369565b60ff546c7e37be2022c0914b26800000006116928460fd54611e5a565b61169c91906162dd565b6116a691906162fc565b61010583815481106116ba576116ba616282565b90600052602060002090600f0201600b0154610ebf91906162ae565b611234613e87565b6000806116ea846115e8565b6001600160a01b0384166000908152610104602090815260408083208884526005810190925290912054600282015492935090916c7e37be2022c0914b26800000008161173784876162c6565b61174191906162dd565b61174b91906162fc565b979650505050505050565b7f139c2898040ef16910dc9f44dc697df79363da767d8bc92f2e310312b816e46d6117818133613f5f565b60fb54828116148061179957506117996000336133ce565b6117e55760405162461bcd60e51b815260206004820152601e60248201527f4f4e4c595f44454641554c545f41444d494e5f43414e5f554e504155534500006044820152606401611369565b5060fb55565b60018060fb54166000148061180657506118066000336133ce565b6118225760405162461bcd60e51b815260040161136990616340565b60008051602061659783398151915261183b8133613f5f565b611843613e87565b8460005b818110156118925761188088888381811061186457611864616282565b90506020020160208101906118799190615eb2565b87876144ed565b8061188a8161636c565b915050611847565b5050505050505050565b60018060fb5416600014806118b757506118b76000336133ce565b6118d35760405162461bcd60e51b815260040161136990616340565b6000805160206165978339815191526118ec8133613f5f565b6118f4613e87565b8260005b818110156119415761192f86868381811061191557611915616282565b905060200201602081019061192a9190615eb2565b614588565b806119398161636c565b9150506118f8565b505050505050565b60018060fb54166000148061196457506119646000336133ce565b6119805760405162461bcd60e51b815260040161136990616340565b6000805160206165b78339815191526119998133613f5f565b6119a1613e87565b6119ab84846145f7565b61010054610101546119cc916001600160a01b039182169133911686614495565b50505050565b60005b8151811015611a1257611a008282815181106119f3576119f3616282565b60200260200101516147b6565b80611a0a8161636c565b9150506119d5565b5050565b60018060fb541660001480611a315750611a316000336133ce565b611a4d5760405162461bcd60e51b815260040161136990616340565b60fe54611a975760405162461bcd60e51b81526020600482015260186024820152775a45524f5f544f54414c5f4155524f52415f53484152455360401b6044820152606401611369565b3360009081526101046020526040902060010154611aea5760405162461bcd60e51b815260206004820152601060248201526f5a45524f5f555345525f53484152455360801b6044820152606401611369565b611af2613e87565b60fe54336000908152610104602052604081206001015460fc54919291611b1991906162dd565b611b2391906162fc565b9050611b2f8382614972565b505050565b60018060fb541660001480611b4f5750611b4f6000336133ce565b611b6b5760405162461bcd60e51b815260040161136990616340565b336000908152610104602090815260408083208584526004019091529020544211611bcf5760405162461bcd60e51b8152602060048201526014602482015273494e56414c49445f52454c454153455f54494d4560601b6044820152606401611369565b611a1282614b6f565b600082815260c96020526040902060010154611bf48133613f5f565b611b2f8383614c64565b60018060fb541660001480611c195750611c196000336133ce565b611c355760405162461bcd60e51b815260040161136990616340565b60fe54611c7f5760405162461bcd60e51b81526020600482015260186024820152775a45524f5f544f54414c5f4155524f52415f53484152455360401b6044820152606401611369565b3360009081526101046020526040902060010154611cd25760405162461bcd60e51b815260206004820152601060248201526f5a45524f5f555345525f53484152455360801b6044820152606401611369565b611cda613e87565b60fe54336000908152610104602052604081206001015460fc54919291611d0191906162dd565b611d0b91906162fc565b9050611a128182614972565b6001600160a01b0381163314611d875760405162461bcd60e51b815260206004820152602f60248201527f416363657373436f6e74726f6c3a2063616e206f6e6c792072656e6f756e636560448201526e103937b632b9903337b91039b2b63360891b6064820152608401611369565b611a128282614cea565b306001600160a01b037f0000000000000000000000000000000000000000000000000000000000000000161415611dda5760405162461bcd60e51b815260040161136990616387565b7f00000000000000000000000000000000000000000000000000000000000000006001600160a01b0316611e0c614d51565b6001600160a01b031614611e325760405162461bcd60e51b8152600401611369906163d3565b611e3b81614d7f565b60408051600080825260208201909252611e5791839190614d8b565b50565b600042821115611ea25760405162461bcd60e51b8152602060048201526013602482015272494e56414c49445f4c4153545f55504441544560681b6044820152606401611369565b42821415611eb257506000610ebf565b60006101058481548110611ec857611ec8616282565b90600052602060002090600f0201600c01600001600081548110611eee57611eee616282565b90600052602060002001549050804211611f0c576000915050610ebf565b60006101058581548110611f2257611f22616282565b90600052602060002090600f0201600c0160000160016101058781548110611f4c57611f4c616282565b60009182526020909120600c600f909202010154611f6a91906162c6565b81548110611f7a57611f7a616282565b90600052602060002001549050808410611f9957600092505050610ebf565b60008083861115611fac57859150611fb0565b8391505b82421015611fbf575042611fc2565b50815b61174b878383610ec5565b6000806101058381548110611fe457611fe4616282565b60009182526020909120600f9091020190506002600e82015460ff166002811115612011576120116160bc565b1461201f5750600092915050565b600061202f848360090154611e5a565b9050816005015482600301548261204691906162dd565b61205091906162fc565b949350505050565b6000805160206165508339815191526120718133613f5f565b826120be5760405162461bcd60e51b815260206004820152601b60248201527f4155524f52415f53545245414d5f4e4f545f52454d4f5641424c4500000000006044820152606401611369565b600061010584815481106120d4576120d4616282565b60009182526020909120600f9091020190506002600e82015460ff166002811115612101576121016160bc565b146121475760405162461bcd60e51b815260206004820152601660248201527514d51491505357d053149150511657d4915353d5915160521b6044820152606401611369565b600e8101805460ff19169055600281015481546040516001600160a01b03928316929091169086907f661da9ced4b5d786f5b5f451a5f68af24721a01b0a65bb47fa4fdf70b80b887c90600090a46000816004015482600301546121ab91906162c6565b90506000826006015483600501546121c391906162c6565b610101549091506000906121df906001600160a01b03166128c2565b60028501549091506000906121fc906001600160a01b03166128c2565b610100546001870154610101549293506001600160a01b039182169263da0c1a88929182169116858811156122315785612233565b875b6040518463ffffffff1660e01b81526004016122519392919061641f565b600060405180830381600087803b15801561226b57600080fd5b505af115801561227f573d6000803e3d6000fd5b50506101005460028801546001600160a01b03918216935063da0c1a8892508a9116848711156122af57846122b1565b865b6040518463ffffffff1660e01b81526004016122cf9392919061641f565b600060405180830381600087803b1580156122e957600080fd5b505af11580156122fd573d6000803e3d6000fd5b505050505050505050505050565b60018060fb54166000148061232657506123266000336133ce565b6123425760405162461bcd60e51b815260040161136990616340565b60008051602061659783398151915261235b8133613f5f565b612363613e87565b6119cc8484614ecf565b611a128282614ecf565b6000806000610105868154811061239057612390616282565b60009182526020909120600c600f90920201018054909150806123e35760405162461bcd60e51b815260206004820152600b60248201526a4e4f5f5343484544554c4560a81b6044820152606401611369565b8585116124325760405162461bcd60e51b815260206004820152601b60248201527f494e56414c49445f5245574152445f51554552595f504552494f4400000000006044820152606401611369565b8160000160008154811061244857612448616282565b90600052602060002001548610156124a25760405162461bcd60e51b815260206004820152601b60248201527f51554552595f4245464f52455f5343484544554c455f535441525400000000006044820152606401611369565b816124ae6001836162c6565b815481106124be576124be616282565b90600052602060002001548511156125185760405162461bcd60e51b815260206004820152601860248201527f51554552595f41465445525f5343484544554c455f454e4400000000000000006044820152606401611369565b60015b8181101561256e5782600001818154811061253857612538616282565b906000526020600020015487101561255c576125556001826162c6565b945061256e565b806125668161636c565b91505061251b565b508161257b6001836162c6565b8154811061258b5761258b616282565b90600052602060002001548514156125af576125a86002826162c6565b9250612614565b60006125bc8560016162ae565b90505b81811015612612578260000181815481106125dc576125dc616282565b9060005260206000200154861015612600576125f96001826162c6565b9350612612565b8061260a8161636c565b9150506125bf565b505b828411156126645760405162461bcd60e51b815260206004820152601960248201527f494e56414c49445f494e4445585f43414c43554c4154494f4e000000000000006044820152606401611369565b5050935093915050565b306001600160a01b037f00000000000000000000000000000000000000000000000000000000000000001614156126b75760405162461bcd60e51b815260040161136990616387565b7f00000000000000000000000000000000000000000000000000000000000000006001600160a01b03166126e9614d51565b6001600160a01b03161461270f5760405162461bcd60e51b8152600401611369906163d3565b61271882614d7f565b611a1282826001614d8b565b60018060fb54166000148061273f575061273f6000336133ce565b61275b5760405162461bcd60e51b815260040161136990616340565b6000805160206165b78339815191526127748133613f5f565b858481146127bb5760405162461bcd60e51b81526020600482015260146024820152730929cac82989288be82a4a482b2be988a9c8ea8960631b6044820152606401611369565b6127c3613e87565b6000805b8281101561284f578787828181106127e1576127e1616282565b90506020020135826127f391906162ae565b915061283d8a8a8381811061280a5761280a616282565b905060200201602081019061281f9190615eb2565b89898481811061283157612831616282565b905060200201356145f7565b806128478161636c565b9150506127c7565b508481146128965760405162461bcd60e51b81526020600482015260146024820152731253959053125117d0905510d217d05353d5539560621b6044820152606401611369565b61010054610101546128b7916001600160a01b039182169133911688614495565b505050505050505050565b610100546040516370a0823160e01b81526001600160a01b0391821660048201526000918316906370a0823190602401602060405180830381865afa15801561290f573d6000803e3d6000fd5b505050506040513d601f19601f82011682018060405250810190610ebf9190616443565b60018060fb54166000148061294e575061294e6000336133ce565b61296a5760405162461bcd60e51b815260040161136990616340565b6000805160206165978339815191526129838133613f5f565b61298b613e87565b6129968585856144ed565b5050505050565b60008060006129ae60008686610ec5565b9250670de0b6b3a76400006129c560008787610ec5565b6129cf91906162fc565b905060fe546000146129ef5760fe546129e890846162fc565b91506129f3565b8291505b9250925092565b60018060fb541660001480612a155750612a156000336133ce565b612a315760405162461bcd60e51b815260040161136990616340565b612a39613e87565b611b2f3384846144ed565b6000612a508133613f5f565b50825491821816189055565b6060806101058381548110612a7357612a73616282565b90600052602060002090600f0201600c016000016101058481548110612a9b57612a9b616282565b90600052602060002090600f0201600c0160010181805480602002602001604051908101604052809291908181526020018280548015612afa57602002820191906000526020600020905b815481526020019060010190808311612ae6575b5050505050915080805480602002602001604051908101604052809291908181526020018280548015612b4c57602002820191906000526020600020905b815481526020019060010190808311612b38575b5050505050905091509150915091565b60018060fb541660001480612b775750612b776000336133ce565b612b935760405162461bcd60e51b815260040161136990616340565b33600090815261010460205260408120905b8381101561299657816003016000868684818110612bc557612bc5616282565b90506020020135815260200190815260200160002054600014158015612c175750816004016000868684818110612bfe57612bfe616282565b9050602002013581526020019081526020016000205442115b15612c3d57612c3d858583818110612c3157612c31616282565b90506020020135614b6f565b80612c478161636c565b915050612ba5565b6000612c5b8133613f5f565b60fb54612c9a5760405162461bcd60e51b815260206004820152600d60248201526c524551554952455f504155534560981b6044820152606401611369565b6001600160a01b038216612ce25760405162461bcd60e51b815260206004820152600f60248201526e494e56414c49445f4144445245535360881b6044820152606401611369565b610100546001600160a01b0383811691161415612d305760405162461bcd60e51b815260206004820152600c60248201526b53414d455f4144445245535360a01b6044820152606401611369565b5061010080546001600160a01b0319166001600160a01b0392909216919091179055565b60018060fb541660001480612d6f5750612d6f6000336133ce565b612d8b5760405162461bcd60e51b815260040161136990616340565b336000908152610104602052604081206101055490915b818110156119cc57600081815260038401602052604090205415801590612dd85750600081815260048401602052604090205442115b15612de657612de681614b6f565b80612df08161636c565b915050612da2565b6000806000806000806000806000806000806101058d81548110612e1e57612e1e616282565b90600052602060002090600f020190508060000160009054906101000a90046001600160a01b03168160020160009054906101000a90046001600160a01b031682600301548360040154846005015485600601548660070154876009015488600b015489600a01548a600e0160009054906101000a900460ff169b509b509b509b509b509b509b509b509b509b509b505091939597999b90929496989a50565b60018060fb541660001480612ed95750612ed96000336133ce565b612ef55760405162461bcd60e51b815260040161136990616340565b612efd613e87565b611e5733614588565b60018060fb541660001480612f215750612f216000336133ce565b612f3d5760405162461bcd60e51b815260040161136990616340565b60006101058481548110612f5357612f53616282565b60009182526020909120600f9091020190506001600e82015460ff166002811115612f8057612f806160bc565b14612fc35760405162461bcd60e51b815260206004820152601360248201527214d51491505357d393d517d41493d413d4d151606a1b6044820152606401611369565b80546001600160a01b031633146130135760405162461bcd60e51b815260206004820152601460248201527324a72b20a624a22fa9aa2922a0a6afa7aba722a960611b6044820152606401611369565b4281600c0160000160008154811061302d5761302d616282565b906000526020600020015410156130865760405162461bcd60e51b815260206004820152601760248201527f53545245414d5f50524f504f53414c5f455850495245440000000000000000006044820152606401611369565b80600701548311156130cc5760405162461bcd60e51b815260206004820152600f60248201526e0a48aae82a488bea89e9ebe90928e9608b1b6044820152606401611369565b80600801548310156131115760405162461bcd60e51b815260206004820152600e60248201526d5245574152445f544f4f5f4c4f5760901b6044820152606401611369565b600e8101805460ff1916600217905560058101839055600781015483101561319e576000816007015482600301548561314a91906162dd565b61315491906162fc565b9050600081836003015461316891906162c6565b60038401839055905061317b86866151c3565b60018301546101015461319b916001600160a01b039182169116836152cd565b50505b6002810154815460038301546040516001600160a01b0393841693929092169187917f3062262d3b7b7b5292387920111bfa3e0597dc070a8f10f1be710f15868c22e0916131f491898252602082015260400190565b60405180910390a46005810154600d8201805460009061321657613216616282565b90600052602060002001541461326e5760405162461bcd60e51b815260206004820152601760248201527f494e56414c49445f5354415254494e475f5245574152440000000000000000006044820152606401611369565b61010054600382015461010154613293926001600160a01b03918216929116906152cd565b6101005460028201546119cc916001600160a01b039182169133911686614495565b6000805160206165508339815191526132ce8133613f5f565b600061010583815481106132e4576132e4616282565b60009182526020909120600f9091020190506001600e82015460ff166002811115613311576133116160bc565b146133545760405162461bcd60e51b815260206004820152601360248201527214d51491505357d393d517d41493d413d4d151606a1b6044820152606401611369565b600e8101805460ff191690556003810180546000918290556002830154835460405192936001600160a01b0392831693929091169187917ffadbcbd495527ce5e10fd0cceba57d404a4625dd6ce0499c254ac523789ef3ad91a46001820154610101546119cc916001600160a01b039182169116836152cd565b600091825260c9602090815260408084206001600160a01b0393909316845291905290205460ff1690565b6000610105828154811061340f5761340f616282565b90600052602060002090600f0201600b01549050919050565b60018060fb54166000148061344357506134436000336133ce565b61345f5760405162461bcd60e51b815260040161136990616340565b8161349f5760405162461bcd60e51b815260206004820152601060248201526f4155524f52415f53545245414d5f4e4160801b6044820152606401611369565b600061010583815481106134b5576134b5616282565b60009182526020909120600f9091020180549091506001600160a01b031633146135185760405162461bcd60e51b815260206004820152601460248201527324a72b20a624a22fa9aa2922a0a6afa7aba722a960611b6044820152606401611369565b6002600e82015460ff166002811115613533576135336160bc565b146135805760405162461bcd60e51b815260206004820152601b60248201527f494e4143544956455f4f525f50524f504f5345445f53545245414d00000000006044820152606401611369565b600061358b84611fcd565b9050600081116135cc5760405162461bcd60e51b815260206004820152600c60248201526b5a45524f5f5245574152445360a01b6044820152606401611369565b428260090181905550808260040160008282546135e991906162ae565b909155505081546040518281526001600160a01b039091169085907fd8dbc00678cdeb812d1660863c3d845d199d828cd02c9278b1ac8f359a1394369060200160405180910390a361010054825461010154604051631b41835160e31b81526001600160a01b039384169363da0c1a889361366f9390821692911690869060040161641f565b600060405180830381600087803b15801561368957600080fd5b505af1158015611892573d6000803e3d6000fd5b60018060fb5416600014806136b857506136b86000336133ce565b6136d45760405162461bcd60e51b815260040161136990616340565b6136dc613e87565b6136e633836145f7565b6101005461010154611a12916001600160a01b039182169133911685614495565b600054610100900460ff166137225760005460ff1615613726565b303b155b6137895760405162461bcd60e51b815260206004820152602e60248201527f496e697469616c697a61626c653a20636f6e747261637420697320616c72656160448201526d191e481a5b9a5d1a585b1a5e995960921b6064820152608401611369565b600054610100900460ff161580156137ab576000805461ffff19166101011790555b8183116137ec5760405162461bcd60e51b815260206004820152600f60248201526e494e56414c49445f5745494748545360881b6044820152606401611369565b6001600160a01b0384166138345760405162461bcd60e51b815260206004820152600f60248201526e494e56414c49445f4144445245535360881b6044820152606401611369565b613877898b8960008151811061384c5761384c616282565b60200260200101518a60008151811061386757613867616282565b60200260200101518c8c8c613fc3565b604051630480051d60e31b81526001600160a01b038b8116600483015285169063240028e890602401602060405180830381865afa1580156138bd573d6000803e3d6000fd5b505050506040513d601f19601f820116820180604052508101906138e1919061631e565b61392d5760405162461bcd60e51b815260206004820152601f60248201527f494e56414c49445f535550504f525445445f544f4b454e5f41444452455353006044820152606401611369565b613936856152fd565b61394e6000805160206165b783398151915233614c64565b61396660008051602061659783398151915233614c64565b61397e60008051602061655083398151915233614c64565b61010080546001600160a01b038087166001600160a01b031992831617835561010180548e83169316831790556101028690556101038590556040805180820182528c815260208082018d905282516101c081018452938f1680855290840152908201929092526000606082018190526080820181905260a0820181905260c0820181905260e0820181905292810183905242610120820152610140810189905261016081018390526101808101829052610105906101a081016002905281546001808201845560009384526020938490208351600f9093020180546001600160a01b03199081166001600160a01b0394851617825584860151928201805482169385169390931790925560408401516002820180549093169316929092179055606082015160038201556080820151600482015560a0820151600582015560c0820151600682015560e0820151600782015561010082015160088201556101208201516009820155610140820151600a820155610160820151600b82015561018082015180518051939492939192600c850192613b1f9284920190615a68565b506020828101518051613b389260018501920190615a68565b5050506101a0820151600e8201805460ff19166001836002811115613b5f57613b5f6160bc565b021790555050508b6001600160a01b03168b6001600160a01b0316837fe843b72f047599c26dfdab8a31d1b5f353799cab6a8482518a21f1b17871dd758c600081518110613baf57613baf616282565b60200260200101518d600081518110613bca57613bca616282565b6020026020010151604051613be9929190918252602082015260400190565b60405180910390a48b6001600160a01b03168b6001600160a01b0316837f3062262d3b7b7b5292387920111bfa3e0597dc070a8f10f1be710f15868c22e08c600081518110613c3a57613c3a616282565b60200260200101518d600081518110613c5557613c55616282565b6020026020010151604051613c74929190918252602082015260400190565b60405180910390a450508015613c90576000805461ff00191690555b50505050505050505050565b600061122d8383615347565b60606000613cb68133613f5f565b6001600160a01b038416613cfb5760405162461bcd60e51b815260206004820152600c60248201526b5a45524f5f4144445245535360a01b6044820152606401611369565b600080856001600160a01b031685604051613d16919061645c565b600060405180830381855af49150503d8060008114613d51576040519150601f19603f3d011682016040523d82523d6000602084013e613d56565b606091505b509150915081613d6557600080fd5b95945050505050565b6000613d7a8133613f5f565b509055565b600060fd5460001415613d925750600090565b613d9f600060fd54611e5a565b60fc54613dac91906162ae565b905090565b60018060fb541660001480613dcc5750613dcc6000336133ce565b613de85760405162461bcd60e51b815260040161136990616340565b600080516020616597833981519152613e018133613f5f565b613e09613e87565b611b2f83614588565b600082815260c96020526040902060010154613e2e8133613f5f565b611b2f8383614cea565b60018060fb541660001480613e535750613e536000336133ce565b613e6f5760405162461bcd60e51b815260040161136990616340565b613e77613e87565b611a123383614ecf565b3b151590565b4260fd541415613e9357565b60fe5415613f5957613ea8600060fd54611e5a565b60fc6000828254613eb991906162ae565b90915550506101055460015b81811015613f565760026101058281548110613ee357613ee3616282565b60009182526020909120600e600f90920201015460ff166002811115613f0b57613f0b6160bc565b1415613f4457613f1a816115e8565b6101058281548110613f2e57613f2e616282565b90600052602060002090600f0201600b01819055505b80613f4e8161636c565b915050613ec5565b50505b4260fd55565b613f6982826133ce565b611a1257613f81816001600160a01b03166014615441565b613f8c836020615441565b604051602001613f9d929190616478565b60408051601f198184030181529082905262461bcd60e51b82526113699160040161626f565b6001600160a01b0387166140195760405162461bcd60e51b815260206004820152601c60248201527f494e56414c49445f53545245414d5f4f574e45525f41444452455353000000006044820152606401611369565b6001600160a01b03861661406f5760405162461bcd60e51b815260206004820152601c60248201527f494e56414c49445f5245574152445f544f4b454e5f41444452455353000000006044820152606401611369565b600085116140b25760405162461bcd60e51b815260206004820152601060248201526f16915493d7d3505617d1115413d4d25560821b6044820152606401611369565b600084116140f55760405162461bcd60e51b815260206004820152601060248201526f16915493d7d3525397d1115413d4d25560821b6044820152606401611369565b8484111561413b5760405162461bcd60e51b81526020600482015260136024820152721253959053125117d3525397d1115413d4d255606a1b6044820152606401611369565b8160008151811061414e5761414e616282565b602002602001015185146141a45760405162461bcd60e51b815260206004820152601f60248201527f4d41585f4445504f5349545f4d5553545f455155414c5f5343484544554c45006044820152606401611369565b42836000815181106141b8576141b8616282565b60200260200101511161420d5760405162461bcd60e51b815260206004820152601e60248201527f494e56414c49445f53545245414d5f45585049524154494f4e5f4441544500006044820152606401611369565b815183511461425e5760405162461bcd60e51b815260206004820152601760248201527f494e56414c49445f5343484544554c455f56414c5545530000000000000000006044820152606401611369565b6002835110156142a55760405162461bcd60e51b815260206004820152601260248201527114d0d2115115531157d513d3d7d4d213d49560721b6044820152606401611369565b806142e75760405162461bcd60e51b81526020600482015260126024820152711253959053125117d5105557d411549253d160721b6044820152606401611369565b60015b835181101561441557836142ff6001836162c6565b8151811061430f5761430f616282565b602002602001015184828151811061432957614329616282565b6020026020010151116143775760405162461bcd60e51b8152602060048201526016602482015275494e56414c49445f5343484544554c455f54494d455360501b6044820152606401611369565b826143836001836162c6565b8151811061439357614393616282565b60200260200101518382815181106143ad576143ad616282565b602002602001015111156144035760405162461bcd60e51b815260206004820152601860248201527f494e56414c49445f5343484544554c455f5245574152445300000000000000006044820152606401611369565b8061440d8161636c565b9150506142ea565b50816001835161442591906162c6565b8151811061443557614435616282565b602002602001015160001461448c5760405162461bcd60e51b815260206004820152601b60248201527f494e56414c49445f5343484544554c455f454e445f52455741524400000000006044820152606401611369565b50505050505050565b6119cc846323b872dd60e01b8585856040516024016144b69392919061641f565b60408051601f198184030181529190526020810180516001600160e01b03166001600160e01b0319909316929092179091526155dd565b60005b818110156119cc57600261010584848481811061450f5761450f616282565b905060200201358154811061452657614526616282565b60009182526020909120600e600f90920201015460ff16600281111561454e5761454e6160bc565b1415614576576145768484848481811061456a5761456a616282565b90506020020135614ecf565b806145808161636c565b9150506144f0565b6101055460015b81811015611b2f57600261010582815481106145ad576145ad616282565b60009182526020909120600e600f90920201015460ff1660028111156145d5576145d56160bc565b14156145e5576145e58382614ecf565b806145ef8161636c565b91505061458f565b6001600160a01b03821660009081526101046020526040812060fe54909190614621575081614668565b600060fe548461463191906162dd565b905060fc548161464191906162fc565b91508060fc548361465291906162dd565b1015614666576146636001836162ae565b91505b505b8082600101600082825461467c91906162ae565b925050819055508060fe600082825461469591906162ae565b925050819055508260fc60008282546146ae91906162ae565b90915550508154839083906000906146c79084906162ae565b90915550600090506146d98242615347565b90508060ff60008282546146ed91906162ae565b925050819055508083600201600082825461470891906162ae565b90915550506101055460015b8181101561476957610105818154811061473057614730616282565b60009182526020808320600b600f90930201919091015483835260058801909152604090912055806147618161636c565b915050614714565b5060408051868152602081018590526001600160a01b038816917f1449c6dd7851abc30abf37f57715f492010519147cc2652fbc38202c18a6ee90910160405180910390a2505050505050565b6147be613e87565b60fe546001600160a01b0382166000908152610104602052604081206001015460fc549192916147ee91906162dd565b6147f891906162fc565b6001600160a01b038316600090815261010460205260408120600181015460fe8054949550919390929061482d9084906162c6565b9091555050600281015460ff80546000906148499084906162c6565b90915550506000600182018190556002820181905560fc80548492906148709084906162c6565b90915550506000808255808052600382016020526040812080548492906148989084906162ae565b909155505061010580546000906148b1576148b1616282565b90600052602060002090600f0201600a0154426148ce91906162ae565b60008080526004830160209081526040808320939093556003840181528282205492519283526001600160a01b038616927f5f1c6be51c8ec7fa7e7ddd9f798ec55927b06cfc8d9159987d1ae3358cb10b59910160405180910390a3826001600160a01b03167f0f5bb82176feb1b5e747e28471aa92156a04d9f3ab9f45f28e2d704232b93f758360405161496591815260200190565b60405180910390a2505050565b816149ad5760405162461bcd60e51b815260206004820152600b60248201526a16915493d7d05353d5539560aa1b6044820152606401611369565b808211156149fd5760405162461bcd60e51b815260206004820152601860248201527f4e4f545f454e4f5547485f5354414b455f42414c414e434500000000000000006044820152606401611369565b33600090815261010460205260408120600181015460fe805492939192909190614a289084906162c6565b9091555050600281015460ff8054600090614a449084906162c6565b90915550506000600182018190556002820181905560fc8054849290614a6b9084906162c6565b9091555050600080825580805260038201602052604081208054859290614a939084906162ae565b90915550506101058054600090614aac57614aac616282565b90600052602060002090600f0201600a015442614ac991906162ae565b600080805260048301602090815260408083209390935560038401815282822054925192835233927f5f1c6be51c8ec7fa7e7ddd9f798ec55927b06cfc8d9159987d1ae3358cb10b59910160405180910390a360405183815233907f0f5bb82176feb1b5e747e28471aa92156a04d9f3ab9f45f28e2d704232b93f759060200160405180910390a26000614b5d84846162c6565b905080156119cc576119cc33826145f7565b336000818152610104602090815260408083208584526003810183528184208054949055905183815290939185917f3bfce8de0db7450cc169b94323c210e69a36c6a4a58c9f5d96bec4973adce392910160405180910390a36101005461010580546001600160a01b039092169163da0c1a8891339187908110614bf557614bf5616282565b600091825260209091206002600f9092020101546040516001600160e01b031960e085901b168152614c3692916001600160a01b031690869060040161641f565b600060405180830381600087803b158015614c5057600080fd5b505af115801561448c573d6000803e3d6000fd5b614c6e82826133ce565b611a1257600082815260c9602090815260408083206001600160a01b03851684529091529020805460ff19166001179055614ca63390565b6001600160a01b0316816001600160a01b0316837f2f8788117e7eff1d82e926ec794901d17c78024a50270940304540a733656f0d60405160405180910390a45050565b614cf482826133ce565b15611a1257600082815260c9602090815260408083206001600160a01b0385168085529252808320805460ff1916905551339285917ff6391f5c32d9c69d2a47ea670b442974b53935d1edc7fd64eb21e047a839171b9190a45050565b7f360894a13ba1a3210667c828492db98dca3e2076cc3735a920a3ca505d382bbc546001600160a01b031690565b6000611a128133613f5f565b6000614d95614d51565b9050614da0846156af565b600083511180614dad5750815b15614dbe57614dbc8484615754565b505b7f4910fdfa16fed3260ed0e7147f7cc6da11a60208b5b9406d12a635614ffd9143805460ff1661299657805460ff191660011781556040516001600160a01b0383166024820152614e3d90869060440160408051601f198184030181529190526020810180516001600160e01b0316631b2ce7f360e11b179052615754565b50805460ff19168155614e4e614d51565b6001600160a01b0316826001600160a01b031614614ec65760405162461bcd60e51b815260206004820152602f60248201527f45524331393637557067726164653a207570677261646520627265616b73206660448201526e75727468657220757067726164657360881b6064820152608401611369565b61299685615836565b80614f165760405162461bcd60e51b815260206004820152601760248201527610555493d49057d49155d0549114d7d0d3d35413d55391604a1b6044820152606401611369565b60026101058281548110614f2c57614f2c616282565b60009182526020909120600e600f90920201015460ff166002811115614f5457614f546160bc565b14614fa15760405162461bcd60e51b815260206004820152601b60248201527f494e4143544956455f4f525f50524f504f5345445f53545245414d00000000006044820152606401611369565b6001600160a01b038216600090815261010460205260409020600181015461500b5760405162461bcd60e51b815260206004820152601f60248201527f555345525f444f45535f4e4f545f484156455f41435455414c5f5354414b45006044820152606401611369565b60006c7e37be2022c0914b2680000000826002015483600501600086815260200190815260200160002054610105868154811061504a5761504a616282565b90600052602060002090600f0201600b015461506691906162c6565b61507091906162dd565b61507a91906162fc565b9050806150875750505050565b6000838152600383016020526040812080548392906150a79084906162ae565b90915550506101058054849081106150c1576150c1616282565b90600052602060002090600f0201600b015482600501600085815260200190815260200160002081905550610105838154811061510057615100616282565b90600052602060002090600f0201600a01544261511d91906162ae565b600084815260048401602052604090205561010580548291908590811061514657615146616282565b90600052602060002090600f0201600601600082825461516691906162ae565b909155505060008381526003830160209081526040918290205491519182526001600160a01b0386169185917f5f1c6be51c8ec7fa7e7ddd9f798ec55927b06cfc8d9159987d1ae3358cb10b59910160405180910390a350505050565b600061010583815481106151d9576151d9616282565b600091825260208220600d600f90920201015491505b818110156119cc57610105848154811061520b5761520b616282565b90600052602060002090600f02016007015483610105868154811061523257615232616282565b90600052602060002090600f0201600c01600101838154811061525757615257616282565b906000526020600020015461526c91906162dd565b61527691906162fc565b610105858154811061528a5761528a616282565b90600052602060002090600f0201600c0160010182815481106152af576152af616282565b600091825260209091200155806152c58161636c565b9150506151ef565b6040516001600160a01b038316602482015260448101829052611b2f90849063a9059cbb60e01b906064016144b6565b615305615876565b61530d6158ad565b615318600033614c64565b6153427f139c2898040ef16910dc9f44dc697df79363da767d8bc92f2e310312b816e46d33614c64565b60fb55565b6000806228207261010560008154811061536357615363616282565b90600052602060002090600f0201600c0160000160008154811061538957615389616282565b906000526020600020015461539e91906162ae565b905060006153b06307861560836162ae565b90508184116153d057610102546153c790866162dd565b92505050610ebf565b8084106153e557610103546153c790866162dd565b6153ef82826162c6565b6153f985836162c6565b610103546101025461540b91906162c6565b61541590886162dd565b61541f91906162dd565b61542991906162fc565b6101035461543790876162dd565b613d6591906162ae565b606060006154508360026162dd565b61545b9060026162ae565b67ffffffffffffffff81111561547357615473615b66565b6040519080825280601f01601f19166020018201604052801561549d576020820181803683370190505b509050600360fc1b816000815181106154b8576154b8616282565b60200101906001600160f81b031916908160001a905350600f60fb1b816001815181106154e7576154e7616282565b60200101906001600160f81b031916908160001a905350600061550b8460026162dd565b6155169060016162ae565b90505b600181111561558e576f181899199a1a9b1b9c1cb0b131b232b360811b85600f166010811061554a5761554a616282565b1a60f81b82828151811061556057615560616282565b60200101906001600160f81b031916908160001a90535060049490941c93615587816164ed565b9050615519565b50831561122d5760405162461bcd60e51b815260206004820181905260248201527f537472696e67733a20686578206c656e67746820696e73756666696369656e746044820152606401611369565b6000615632826040518060400160405280602081526020017f5361666545524332303a206c6f772d6c6576656c2063616c6c206661696c6564815250856001600160a01b03166158dc9092919063ffffffff16565b805190915015611b2f5780806020019051810190615650919061631e565b611b2f5760405162461bcd60e51b815260206004820152602a60248201527f5361666545524332303a204552433230206f7065726174696f6e20646964206e6044820152691bdd081cdd58d8d9595960b21b6064820152608401611369565b803b6157135760405162461bcd60e51b815260206004820152602d60248201527f455243313936373a206e657720696d706c656d656e746174696f6e206973206e60448201526c1bdd08184818dbdb9d1c9858dd609a1b6064820152608401611369565b7f360894a13ba1a3210667c828492db98dca3e2076cc3735a920a3ca505d382bbc80546001600160a01b0319166001600160a01b0392909216919091179055565b6060823b6157b35760405162461bcd60e51b815260206004820152602660248201527f416464726573733a2064656c65676174652063616c6c20746f206e6f6e2d636f6044820152651b9d1c9858dd60d21b6064820152608401611369565b600080846001600160a01b0316846040516157ce919061645c565b600060405180830381855af49150503d8060008114615809576040519150601f19603f3d011682016040523d82523d6000602084013e61580e565b606091505b5091509150613d658282604051806060016040528060278152602001616570602791396158eb565b61583f816156af565b6040516001600160a01b038216907fbc7cd75a20ee27fd9adebab32041f755214dbc6bffa90cc0225b39da2e5c2d3b90600090a250565b600054610100900460ff1661589d5760405162461bcd60e51b815260040161136990616504565b6158a5615924565b61123c615924565b600054610100900460ff166158d45760405162461bcd60e51b815260040161136990616504565b61589d615924565b6060612050848460008561594b565b606083156158fa57508161122d565b82511561590a5782518084602001fd5b8160405162461bcd60e51b8152600401611369919061626f565b600054610100900460ff1661123c5760405162461bcd60e51b815260040161136990616504565b6060824710156159ac5760405162461bcd60e51b815260206004820152602660248201527f416464726573733a20696e73756666696369656e742062616c616e636520666f6044820152651c8818d85b1b60d21b6064820152608401611369565b843b6159fa5760405162461bcd60e51b815260206004820152601d60248201527f416464726573733a2063616c6c20746f206e6f6e2d636f6e74726163740000006044820152606401611369565b600080866001600160a01b03168587604051615a16919061645c565b60006040518083038185875af1925050503d8060008114615a53576040519150601f19603f3d011682016040523d82523d6000602084013e615a58565b606091505b509150915061174b8282866158eb565b828054828255906000526020600020908101928215615aa3579160200282015b82811115615aa3578251825591602001919060010190615a88565b50615aaf929150615ab3565b5090565b5b80821115615aaf5760008155600101615ab4565b600060208284031215615ada57600080fd5b81356001600160e01b03198116811461122d57600080fd5b600080600060608486031215615b0757600080fd5b505081359360208301359350604090920135919050565b80356001600160a01b0381168114615b3557600080fd5b919050565b60008060408385031215615b4d57600080fd5b82359150615b5d60208401615b1e565b90509250929050565b634e487b7160e01b600052604160045260246000fd5b604051601f8201601f1916810167ffffffffffffffff81118282101715615ba557615ba5615b66565b604052919050565b600067ffffffffffffffff821115615bc757615bc7615b66565b5060051b60200190565b600082601f830112615be257600080fd5b81356020615bf7615bf283615bad565b615b7c565b82815260059290921b84018101918181019086841115615c1657600080fd5b8286015b84811015615c315780358352918301918301615c1a565b509695505050505050565b600080600080600080600080610100898b031215615c5957600080fd5b615c6289615b1e565b9750615c7060208a01615b1e565b965060408901359550606089013594506080890135935060a089013567ffffffffffffffff80821115615ca257600080fd5b615cae8c838d01615bd1565b945060c08b0135915080821115615cc457600080fd5b50615cd18b828c01615bd1565b92505060e089013590509295985092959890939650565b600060208284031215615cfa57600080fd5b5035919050565b60008083601f840112615d1357600080fd5b50813567ffffffffffffffff811115615d2b57600080fd5b6020830191508360208260051b8501011115615d4657600080fd5b9250929050565b60008060008060408587031215615d6357600080fd5b843567ffffffffffffffff80821115615d7b57600080fd5b615d8788838901615d01565b90965094506020870135915080821115615da057600080fd5b50615dad87828801615d01565b95989497509550505050565b60008060208385031215615dcc57600080fd5b823567ffffffffffffffff811115615de357600080fd5b615def85828601615d01565b90969095509350505050565b60008060408385031215615e0e57600080fd5b615e1783615b1e565b946020939093013593505050565b60006020808385031215615e3857600080fd5b823567ffffffffffffffff811115615e4f57600080fd5b8301601f81018513615e6057600080fd5b8035615e6e615bf282615bad565b81815260059190911b82018301908381019087831115615e8d57600080fd5b928401925b8284101561174b57615ea384615b1e565b82529284019290840190615e92565b600060208284031215615ec457600080fd5b61122d82615b1e565b60008060408385031215615ee057600080fd5b50508035926020909101359150565b60008060408385031215615f0257600080fd5b615f0b83615b1e565b915060208084013567ffffffffffffffff80821115615f2957600080fd5b818601915086601f830112615f3d57600080fd5b813581811115615f4f57615f4f615b66565b615f61601f8201601f19168501615b7c565b91508082528784828501011115615f7757600080fd5b80848401858401376000848284010152508093505050509250929050565b600080600080600060608688031215615fad57600080fd5b853567ffffffffffffffff80821115615fc557600080fd5b615fd189838a01615d01565b90975095506020880135915080821115615fea57600080fd5b50615ff788828901615d01565b96999598509660400135949350505050565b60008060006040848603121561601e57600080fd5b61602784615b1e565b9250602084013567ffffffffffffffff81111561604357600080fd5b61604f86828701615d01565b9497909650939450505050565b600081518084526020808501945080840160005b8381101561608c57815187529582019590820190600101616070565b509495945050505050565b6040815260006160aa604083018561605c565b8281036020840152613d65818561605c565b634e487b7160e01b600052602160045260246000fd5b6001600160a01b038c811682528b166020820152604081018a9052606081018990526080810188905260a0810187905260c0810186905260e081018590526101008101849052610120810183905261016081016003831061614357634e487b7160e01b600052602160045260246000fd5b826101408301529c9b505050505050505050505050565b60008060008060008060008060006101208a8c03121561617957600080fd5b6161828a615b1e565b985061619060208b01615b1e565b975060408a013567ffffffffffffffff808211156161ad57600080fd5b6161b98d838e01615bd1565b985060608c01359150808211156161cf57600080fd5b506161dc8c828d01615bd1565b96505060808a0135945060a08a013593506161f960c08b01615b1e565b925060e08a013591506101008a013590509295985092959850929598565b60005b8381101561623257818101518382015260200161621a565b838111156119cc5750506000910152565b6000815180845261625b816020860160208601616217565b601f01601f19169290920160200192915050565b60208152600061122d6020830184616243565b634e487b7160e01b600052603260045260246000fd5b634e487b7160e01b600052601160045260246000fd5b600082198211156162c1576162c1616298565b500190565b6000828210156162d8576162d8616298565b500390565b60008160001904831182151516156162f7576162f7616298565b500290565b60008261631957634e487b7160e01b600052601260045260246000fd5b500490565b60006020828403121561633057600080fd5b8151801515811461122d57600080fd5b60208082526012908201527110d3d395149050d517d254d7d4105554d15160721b604082015260600190565b600060001982141561638057616380616298565b5060010190565b6020808252602c908201527f46756e6374696f6e206d7573742062652063616c6c6564207468726f7567682060408201526b19195b1959d85d1958d85b1b60a21b606082015260800190565b6020808252602c908201527f46756e6374696f6e206d7573742062652063616c6c6564207468726f7567682060408201526b6163746976652070726f787960a01b606082015260800190565b6001600160a01b039384168152919092166020820152604081019190915260600190565b60006020828403121561645557600080fd5b5051919050565b6000825161646e818460208701616217565b9190910192915050565b7f416363657373436f6e74726f6c3a206163636f756e74200000000000000000008152600083516164b0816017850160208801616217565b7001034b99036b4b9b9b4b733903937b6329607d1b60179184019182015283516164e1816028840160208801616217565b01602801949350505050565b6000816164fc576164fc616298565b506000190190565b6020808252602b908201527f496e697469616c697a61626c653a20636f6e7472616374206973206e6f74206960408201526a6e697469616c697a696e6760a81b60608201526080019056fe930802d0eadfb856cb83e01d1c4daa3c89e9c6d9f74cfbe13124decf2b33128a416464726573733a206c6f772d6c6576656c2064656c65676174652063616c6c206661696c6564f7db13299c8a9e501861f04c20f69a2444829a36a363cfad4b58864709c755603a2f235c9daaf33349d300aadff2f15078a89df81bcfdd45ba11c8f816bddc6fa26469706673582212203c6dc9d7c04cb64bbdaa338d1bb68f08fc8b5ca1d71dbdbedab0bd1184d0258364736f6c634300080a0033",
    "linkReferences": {}
  },
  "methodIdentifiers": {
    "AIRDROP_ROLE()": "1e0fbfa2",
    "CLAIM_ROLE()": "86c1b4eb",
    "DEFAULT_ADMIN_ROLE()": "a217fddf",
    "FOUR_YEARS()": "fe904b7a",
    "ONE_MONTH()": "20988cef",
    "PAUSE_ROLE()": "389ed267",
    "STREAM_MANAGER_ROLE()": "3ea005c8",
    "adminDelegatecall(address,bytes)": "b8e9744c",
    "adminPause(uint256)": "2692c59f",
    "adminSstore(uint256,uint256)": "be831a2e",
    "adminSstoreWithMask(uint256,uint256,uint256)": "6c4624c3",
    "auroraToken()": "5578fdb2",
    "batchClaimOnBehalfOfAnotherUser(address,uint256[])": "6458edd3",
    "batchClaimOnBehalfOfOtherUsers(address[],uint256[])": "26cdddb9",
    "batchMoveRewardsToPending(uint256[])": "687dd46c",
    "batchWithdraw(uint256[])": "72e55399",
    "before(uint256,uint256)": "6826747c",
    "calculateWeightedShares(uint256,uint256)": "b77b183e",
    "callBeforeTwice()": "15cf64fd",
    "cancelStreamProposal(uint256)": "90403322",
    "claimAllOnBehalfOfAnotherUser(address)": "d5050aed",
    "claimAllOnBehalfOfOtherUsers(address[])": "27571969",
    "claimOnBehalfOfAnotherUser(address,uint256)": "3e9a44cb",
    "createStream(uint256,uint256)": "8d40bd03",
    "getAmountOfShares(uint256,address)": "0efd8310",
    "getLatestRewardPerShare(uint256)": "12dd67fe",
    "getPending(uint256,address)": "7f37df3b",
    "getReleaseTime(uint256,address)": "c8927723",
    "getRewardPerShare(uint256)": "993b21c1",
    "getRewardPerShareForUser(uint256,address)": "1dd00452",
    "getRewardsAmount(uint256,uint256)": "36630cc7",
    "getRoleAdmin(bytes32)": "248a9ca3",
    "getStream(uint256)": "894e9a0d",
    "getStreamClaimableAmount(uint256,address)": "1c61e617",
    "getStreamOwnerClaimableAmount(uint256)": "396a6c14",
    "getStreamSchedule(uint256)": "70bc770c",
    "getStreamsCount()": "e335e79a",
    "getTotalAmountOfStakedAurora()": "cd5ba590",
    "getTreasuryBalance(address)": "57baeac8",
    "getUserShares(address)": "ba0cb22b",
    "getUserTotalDeposit(address)": "a4c828dc",
    "grantRole(bytes32,address)": "2f2ff15d",
    "hasRole(bytes32,address)": "91d14854",
    "initialize(address,address,uint256[],uint256[],uint256,uint256,address,uint256,uint256)": "a81c6a15",
    "maxWeight()": "a8b0bb83",
    "minWeight()": "0c2ee55e",
    "moveAllRewardsToPending()": "8bc34e77",
    "moveRewardsToPending(uint256)": "ee13ad8e",
    "paused()": "5c975abb",
    "proposeStream(address,address,uint256,uint256,uint256,uint256[],uint256[],uint256)": "1194ebeb",
    "releaseAuroraRewardsToStreamOwner(uint256)": "9c52a920",
    "removeStream(uint256,address)": "3ba31abf",
    "renounceRole(bytes32,address)": "36568abe",
    "revokeRole(bytes32,address)": "d547741f",
    "rewardsSchedule(uint256,uint256,uint256)": "03687788",
    "stake(uint256)": "a694fc3a",
    "stakeOnBehalfOfAnotherUser(address,uint256)": "2ca783f3",
    "stakeOnBehalfOfOtherUsers(address[],uint256[],uint256)": "53a4cca0",
    "startEndScheduleIndex(uint256,uint256,uint256)": "4981912e",
    "supportsInterface(bytes4)": "01ffc9a7",
    "tempMoveRewardsToPending(address,uint256)": "45defb32",
    "totalAmountOfStakedAurora()": "3895a275",
    "totalAuroraShares()": "bb07ec1b",
    "totalStreamShares()": "6db8e53d",
    "touchedAt()": "1fd8c5f4",
    "treasury()": "61d027b3",
    "unstake(uint256)": "2e17de78",
    "unstakeAll()": "35322f37",
    "unstakeAllOnBehalfOfOthers(address[])": "2d0b615c",
    "updateTreasury(address)": "7f51bb1f",
    "updateUserCalculation()": "0a44b773",
    "upgradeTo(address)": "3659cfe6",
    "upgradeToAndCall(address,bytes)": "4f1ef286",
    "users(address)": "a87430ba",
    "withdraw(uint256)": "2e1a7d4d",
    "withdrawAll()": "853828b6"
  },
  "id": 5
}