{
  "_format": "hh-sol-artifact-1",
  "contractName": "JetStakingV3",
  "sourceName": "contracts/JetStaking/JetStakingV3.sol",
  "abi": [
    {
      "anonymous": false,
      "inputs": [
        {
          "indexed": false,
          "internalType": "address",
          "name": "previousAdmin",
          "type": "address"
        },
        {
          "indexed": false,
          "internalType": "address",
          "name": "newAdmin",
          "type": "address"
        }
      ],
      "name": "AdminChanged",
      "type": "event"
    },
    {
      "anonymous": false,
      "inputs": [
        {
          "indexed": true,
          "internalType": "address",
          "name": "beacon",
          "type": "address"
        }
      ],
      "name": "BeaconUpgraded",
      "type": "event"
    },
    {
      "anonymous": false,
      "inputs": [
        {
          "indexed": true,
          "internalType": "uint256",
          "name": "streamId",
          "type": "uint256"
        },
        {
          "indexed": true,
          "internalType": "address",
          "name": "user",
          "type": "address"
        },
        {
          "indexed": false,
          "internalType": "uint256",
          "name": "amount",
          "type": "uint256"
        }
      ],
      "name": "Pending",
      "type": "event"
    },
    {
      "anonymous": false,
      "inputs": [
        {
          "indexed": true,
          "internalType": "uint256",
          "name": "streamId",
          "type": "uint256"
        },
        {
          "indexed": true,
          "internalType": "address",
          "name": "user",
          "type": "address"
        },
        {
          "indexed": false,
          "internalType": "uint256",
          "name": "amount",
          "type": "uint256"
        }
      ],
      "name": "Released",
      "type": "event"
    },
    {
      "anonymous": false,
      "inputs": [
        {
          "indexed": true,
          "internalType": "bytes32",
          "name": "role",
          "type": "bytes32"
        },
        {
          "indexed": true,
          "internalType": "bytes32",
          "name": "previousAdminRole",
          "type": "bytes32"
        },
        {
          "indexed": true,
          "internalType": "bytes32",
          "name": "newAdminRole",
          "type": "bytes32"
        }
      ],
      "name": "RoleAdminChanged",
      "type": "event"
    },
    {
      "anonymous": false,
      "inputs": [
        {
          "indexed": true,
          "internalType": "bytes32",
          "name": "role",
          "type": "bytes32"
        },
        {
          "indexed": true,
          "internalType": "address",
          "name": "account",
          "type": "address"
        },
        {
          "indexed": true,
          "internalType": "address",
          "name": "sender",
          "type": "address"
        }
      ],
      "name": "RoleGranted",
      "type": "event"
    },
    {
      "anonymous": false,
      "inputs": [
        {
          "indexed": true,
          "internalType": "bytes32",
          "name": "role",
          "type": "bytes32"
        },
        {
          "indexed": true,
          "internalType": "address",
          "name": "account",
          "type": "address"
        },
        {
          "indexed": true,
          "internalType": "address",
          "name": "sender",
          "type": "address"
        }
      ],
      "name": "RoleRevoked",
      "type": "event"
    },
    {
      "anonymous": false,
      "inputs": [
        {
          "indexed": true,
          "internalType": "address",
          "name": "user",
          "type": "address"
        },
        {
          "indexed": false,
          "internalType": "uint256",
          "name": "amount",
          "type": "uint256"
        },
        {
          "indexed": false,
          "internalType": "uint256",
          "name": "shares",
          "type": "uint256"
        }
      ],
      "name": "Staked",
      "type": "event"
    },
    {
      "anonymous": false,
      "inputs": [
        {
          "indexed": true,
          "internalType": "uint256",
          "name": "streamId",
          "type": "uint256"
        },
        {
          "indexed": true,
          "internalType": "address",
          "name": "owner",
          "type": "address"
        },
        {
          "indexed": true,
          "internalType": "address",
          "name": "token",
          "type": "address"
        },
        {
          "indexed": false,
          "internalType": "uint256",
          "name": "tokenAmount",
          "type": "uint256"
        },
        {
          "indexed": false,
          "internalType": "uint256",
          "name": "auroraAmount",
          "type": "uint256"
        }
      ],
      "name": "StreamCreated",
      "type": "event"
    },
    {
      "anonymous": false,
      "inputs": [
        {
          "indexed": true,
          "internalType": "uint256",
          "name": "streamId",
          "type": "uint256"
        },
        {
          "indexed": true,
          "internalType": "address",
          "name": "owner",
          "type": "address"
        },
        {
          "indexed": false,
          "internalType": "uint256",
          "name": "amount",
          "type": "uint256"
        }
      ],
      "name": "StreamOwnerRewardReleased",
      "type": "event"
    },
    {
      "anonymous": false,
      "inputs": [
        {
          "indexed": true,
          "internalType": "uint256",
          "name": "streamId",
          "type": "uint256"
        },
        {
          "indexed": true,
          "internalType": "address",
          "name": "owner",
          "type": "address"
        },
        {
          "indexed": true,
          "internalType": "address",
          "name": "token",
          "type": "address"
        }
      ],
      "name": "StreamProposalCancelled",
      "type": "event"
    },
    {
      "anonymous": false,
      "inputs": [
        {
          "indexed": true,
          "internalType": "uint256",
          "name": "streamId",
          "type": "uint256"
        },
        {
          "indexed": true,
          "internalType": "address",
          "name": "owner",
          "type": "address"
        },
        {
          "indexed": true,
          "internalType": "address",
          "name": "token",
          "type": "address"
        },
        {
          "indexed": false,
          "internalType": "uint256",
          "name": "maxDepositAmount",
          "type": "uint256"
        },
        {
          "indexed": false,
          "internalType": "uint256",
          "name": "auroraDepositAmount",
          "type": "uint256"
        }
      ],
      "name": "StreamProposed",
      "type": "event"
    },
    {
      "anonymous": false,
      "inputs": [
        {
          "indexed": true,
          "internalType": "uint256",
          "name": "streamId",
          "type": "uint256"
        },
        {
          "indexed": true,
          "internalType": "address",
          "name": "owner",
          "type": "address"
        },
        {
          "indexed": true,
          "internalType": "address",
          "name": "token",
          "type": "address"
        }
      ],
      "name": "StreamRemoved",
      "type": "event"
    },
    {
      "anonymous": false,
      "inputs": [
        {
          "indexed": true,
          "internalType": "address",
          "name": "user",
          "type": "address"
        },
        {
          "indexed": false,
          "internalType": "uint256",
          "name": "amount",
          "type": "uint256"
        }
      ],
      "name": "Unstaked",
      "type": "event"
    },
    {
      "anonymous": false,
      "inputs": [
        {
          "indexed": true,
          "internalType": "address",
          "name": "implementation",
          "type": "address"
        }
      ],
      "name": "Upgraded",
      "type": "event"
    },
    {
      "inputs": [],
      "name": "AIRDROP_ROLE",
      "outputs": [
        {
          "internalType": "bytes32",
          "name": "",
          "type": "bytes32"
        }
      ],
      "stateMutability": "view",
      "type": "function"
    },
    {
      "inputs": [],
      "name": "CLAIM_ROLE",
      "outputs": [
        {
          "internalType": "bytes32",
          "name": "",
          "type": "bytes32"
        }
      ],
      "stateMutability": "view",
      "type": "function"
    },
    {
      "inputs": [],
      "name": "DEFAULT_ADMIN_ROLE",
      "outputs": [
        {
          "internalType": "bytes32",
          "name": "",
          "type": "bytes32"
        }
      ],
      "stateMutability": "view",
      "type": "function"
    },
    {
      "inputs": [],
      "name": "FOUR_YEARS",
      "outputs": [
        {
          "internalType": "uint256",
          "name": "",
          "type": "uint256"
        }
      ],
      "stateMutability": "view",
      "type": "function"
    },
    {
      "inputs": [],
      "name": "ONE_MONTH",
      "outputs": [
        {
          "internalType": "uint256",
          "name": "",
          "type": "uint256"
        }
      ],
      "stateMutability": "view",
      "type": "function"
    },
    {
      "inputs": [],
      "name": "PAUSE_ROLE",
      "outputs": [
        {
          "internalType": "bytes32",
          "name": "",
          "type": "bytes32"
        }
      ],
      "stateMutability": "view",
      "type": "function"
    },
    {
      "inputs": [],
      "name": "RPS_MULTIPLIER",
      "outputs": [
        {
          "internalType": "uint256",
          "name": "",
          "type": "uint256"
        }
      ],
      "stateMutability": "view",
      "type": "function"
    },
    {
      "inputs": [],
      "name": "STREAM_MANAGER_ROLE",
      "outputs": [
        {
          "internalType": "bytes32",
          "name": "",
          "type": "bytes32"
        }
      ],
      "stateMutability": "view",
      "type": "function"
    },
    {
      "inputs": [
        {
          "internalType": "address",
          "name": "target",
          "type": "address"
        },
        {
          "internalType": "bytes",
          "name": "data",
          "type": "bytes"
        }
      ],
      "name": "adminDelegatecall",
      "outputs": [
        {
          "internalType": "bytes",
          "name": "",
          "type": "bytes"
        }
      ],
      "stateMutability": "payable",
      "type": "function"
    },
    {
      "inputs": [
        {
          "internalType": "uint256",
          "name": "flags",
          "type": "uint256"
        }
      ],
      "name": "adminPause",
      "outputs": [],
      "stateMutability": "nonpayable",
      "type": "function"
    },
    {
      "inputs": [
        {
          "internalType": "uint256",
          "name": "key",
          "type": "uint256"
        },
        {
          "internalType": "uint256",
          "name": "value",
          "type": "uint256"
        }
      ],
      "name": "adminSstore",
      "outputs": [],
      "stateMutability": "nonpayable",
      "type": "function"
    },
    {
      "inputs": [
        {
          "internalType": "uint256",
          "name": "key",
          "type": "uint256"
        },
        {
          "internalType": "uint256",
          "name": "value",
          "type": "uint256"
        },
        {
          "internalType": "uint256",
          "name": "mask",
          "type": "uint256"
        }
      ],
      "name": "adminSstoreWithMask",
      "outputs": [],
      "stateMutability": "nonpayable",
      "type": "function"
    },
    {
      "inputs": [],
      "name": "auroraToken",
      "outputs": [
        {
          "internalType": "address",
          "name": "",
          "type": "address"
        }
      ],
      "stateMutability": "view",
      "type": "function"
    },
    {
      "inputs": [
        {
          "internalType": "address",
          "name": "account",
          "type": "address"
        },
        {
          "internalType": "uint256[]",
          "name": "streamIds",
          "type": "uint256[]"
        }
      ],
      "name": "batchClaimOnBehalfOfAnotherUser",
      "outputs": [],
      "stateMutability": "nonpayable",
      "type": "function"
    },
    {
      "inputs": [
        {
          "internalType": "uint256[]",
          "name": "streamIds",
          "type": "uint256[]"
        }
      ],
      "name": "batchMoveRewardsToPending",
      "outputs": [],
      "stateMutability": "nonpayable",
      "type": "function"
    },
    {
      "inputs": [
        {
          "internalType": "uint256[]",
          "name": "streamIds",
          "type": "uint256[]"
        }
      ],
      "name": "batchWithdraw",
      "outputs": [],
      "stateMutability": "nonpayable",
      "type": "function"
    },
    {
      "inputs": [
        {
          "internalType": "uint256",
          "name": "streamId",
          "type": "uint256"
        }
      ],
      "name": "cancelStreamProposal",
      "outputs": [],
      "stateMutability": "nonpayable",
      "type": "function"
    },
    {
      "inputs": [
        {
          "internalType": "address",
          "name": "account",
          "type": "address"
        }
      ],
      "name": "claimAllOnBehalfOfAnotherUser",
      "outputs": [],
      "stateMutability": "nonpayable",
      "type": "function"
    },
    {
      "inputs": [
        {
          "internalType": "uint256",
          "name": "streamId",
          "type": "uint256"
        },
        {
          "internalType": "uint256",
          "name": "rewardTokenAmount",
          "type": "uint256"
        }
      ],
      "name": "createStream",
      "outputs": [],
      "stateMutability": "nonpayable",
      "type": "function"
    },
    {
      "inputs": [
        {
          "internalType": "uint256[]",
          "name": "scheduleTimes",
          "type": "uint256[]"
        },
        {
          "internalType": "uint256[]",
          "name": "scheduleRewards",
          "type": "uint256[]"
        }
      ],
      "name": "extendAuroraStreamSchedule",
      "outputs": [],
      "stateMutability": "nonpayable",
      "type": "function"
    },
    {
      "inputs": [
        {
          "internalType": "uint256",
          "name": "streamId",
          "type": "uint256"
        },
        {
          "internalType": "address",
          "name": "account",
          "type": "address"
        }
      ],
      "name": "getAmountOfShares",
      "outputs": [
        {
          "internalType": "uint256",
          "name": "",
          "type": "uint256"
        }
      ],
      "stateMutability": "view",
      "type": "function"
    },
    {
      "inputs": [
        {
          "internalType": "uint256",
          "name": "streamId",
          "type": "uint256"
        }
      ],
      "name": "getLatestRewardPerShare",
      "outputs": [
        {
          "internalType": "uint256",
          "name": "",
          "type": "uint256"
        }
      ],
      "stateMutability": "view",
      "type": "function"
    },
    {
      "inputs": [
        {
          "internalType": "uint256",
          "name": "streamId",
          "type": "uint256"
        },
        {
          "internalType": "address",
          "name": "account",
          "type": "address"
        }
      ],
      "name": "getPending",
      "outputs": [
        {
          "internalType": "uint256",
          "name": "",
          "type": "uint256"
        }
      ],
      "stateMutability": "view",
      "type": "function"
    },
    {
      "inputs": [
        {
          "internalType": "uint256",
          "name": "streamId",
          "type": "uint256"
        },
        {
          "internalType": "address",
          "name": "account",
          "type": "address"
        }
      ],
      "name": "getReleaseTime",
      "outputs": [
        {
          "internalType": "uint256",
          "name": "",
          "type": "uint256"
        }
      ],
      "stateMutability": "view",
      "type": "function"
    },
    {
      "inputs": [
        {
          "internalType": "uint256",
          "name": "streamId",
          "type": "uint256"
        }
      ],
      "name": "getRewardPerShare",
      "outputs": [
        {
          "internalType": "uint256",
          "name": "",
          "type": "uint256"
        }
      ],
      "stateMutability": "view",
      "type": "function"
    },
    {
      "inputs": [
        {
          "internalType": "uint256",
          "name": "streamId",
          "type": "uint256"
        },
        {
          "internalType": "address",
          "name": "account",
          "type": "address"
        }
      ],
      "name": "getRewardPerShareForUser",
      "outputs": [
        {
          "internalType": "uint256",
          "name": "",
          "type": "uint256"
        }
      ],
      "stateMutability": "view",
      "type": "function"
    },
    {
      "inputs": [
        {
          "internalType": "uint256",
          "name": "streamId",
          "type": "uint256"
        },
        {
          "internalType": "uint256",
          "name": "lastUpdate",
          "type": "uint256"
        }
      ],
      "name": "getRewardsAmount",
      "outputs": [
        {
          "internalType": "uint256",
          "name": "",
          "type": "uint256"
        }
      ],
      "stateMutability": "view",
      "type": "function"
    },
    {
      "inputs": [
        {
          "internalType": "bytes32",
          "name": "role",
          "type": "bytes32"
        }
      ],
      "name": "getRoleAdmin",
      "outputs": [
        {
          "internalType": "bytes32",
          "name": "",
          "type": "bytes32"
        }
      ],
      "stateMutability": "view",
      "type": "function"
    },
    {
      "inputs": [
        {
          "internalType": "uint256",
          "name": "streamId",
          "type": "uint256"
        }
      ],
      "name": "getStream",
      "outputs": [
        {
          "internalType": "address",
          "name": "streamOwner",
          "type": "address"
        },
        {
          "internalType": "address",
          "name": "rewardToken",
          "type": "address"
        },
        {
          "internalType": "uint256",
          "name": "auroraDepositAmount",
          "type": "uint256"
        },
        {
          "internalType": "uint256",
          "name": "auroraClaimedAmount",
          "type": "uint256"
        },
        {
          "internalType": "uint256",
          "name": "rewardDepositAmount",
          "type": "uint256"
        },
        {
          "internalType": "uint256",
          "name": "rewardClaimedAmount",
          "type": "uint256"
        },
        {
          "internalType": "uint256",
          "name": "maxDepositAmount",
          "type": "uint256"
        },
        {
          "internalType": "uint256",
          "name": "lastTimeOwnerClaimed",
          "type": "uint256"
        },
        {
          "internalType": "uint256",
          "name": "rps",
          "type": "uint256"
        },
        {
          "internalType": "uint256",
          "name": "tau",
          "type": "uint256"
        },
        {
          "internalType": "enum JetStakingV2.StreamStatus",
          "name": "status",
          "type": "uint8"
        }
      ],
      "stateMutability": "view",
      "type": "function"
    },
    {
      "inputs": [
        {
          "internalType": "uint256",
          "name": "streamId",
          "type": "uint256"
        },
        {
          "internalType": "address",
          "name": "account",
          "type": "address"
        }
      ],
      "name": "getStreamClaimableAmount",
      "outputs": [
        {
          "internalType": "uint256",
          "name": "",
          "type": "uint256"
        }
      ],
      "stateMutability": "view",
      "type": "function"
    },
    {
      "inputs": [
        {
          "internalType": "uint256",
          "name": "streamId",
          "type": "uint256"
        }
      ],
      "name": "getStreamOwnerClaimableAmount",
      "outputs": [
        {
          "internalType": "uint256",
          "name": "",
          "type": "uint256"
        }
      ],
      "stateMutability": "view",
      "type": "function"
    },
    {
      "inputs": [
        {
          "internalType": "uint256",
          "name": "streamId",
          "type": "uint256"
        }
      ],
      "name": "getStreamSchedule",
      "outputs": [
        {
          "internalType": "uint256[]",
          "name": "scheduleTimes",
          "type": "uint256[]"
        },
        {
          "internalType": "uint256[]",
          "name": "scheduleRewards",
          "type": "uint256[]"
        }
      ],
      "stateMutability": "view",
      "type": "function"
    },
    {
      "inputs": [],
      "name": "getStreamsCount",
      "outputs": [
        {
          "internalType": "uint256",
          "name": "",
          "type": "uint256"
        }
      ],
      "stateMutability": "view",
      "type": "function"
    },
    {
      "inputs": [],
      "name": "getTotalAmountOfStakedAurora",
      "outputs": [
        {
          "internalType": "uint256",
          "name": "",
          "type": "uint256"
        }
      ],
      "stateMutability": "view",
      "type": "function"
    },
    {
      "inputs": [
        {
          "internalType": "address",
          "name": "token",
          "type": "address"
        }
      ],
      "name": "getTreasuryBalance",
      "outputs": [
        {
          "internalType": "uint256",
          "name": "",
          "type": "uint256"
        }
      ],
      "stateMutability": "view",
      "type": "function"
    },
    {
      "inputs": [
        {
          "internalType": "address",
          "name": "account",
          "type": "address"
        }
      ],
      "name": "getUserShares",
      "outputs": [
        {
          "internalType": "uint256",
          "name": "",
          "type": "uint256"
        }
      ],
      "stateMutability": "view",
      "type": "function"
    },
    {
      "inputs": [
        {
          "internalType": "address",
          "name": "account",
          "type": "address"
        }
      ],
      "name": "getUserTotalDeposit",
      "outputs": [
        {
          "internalType": "uint256",
          "name": "",
          "type": "uint256"
        }
      ],
      "stateMutability": "view",
      "type": "function"
    },
    {
      "inputs": [
        {
          "internalType": "bytes32",
          "name": "role",
          "type": "bytes32"
        },
        {
          "internalType": "address",
          "name": "account",
          "type": "address"
        }
      ],
      "name": "grantRole",
      "outputs": [],
      "stateMutability": "nonpayable",
      "type": "function"
    },
    {
      "inputs": [
        {
          "internalType": "bytes32",
          "name": "role",
          "type": "bytes32"
        },
        {
          "internalType": "address",
          "name": "account",
          "type": "address"
        }
      ],
      "name": "hasRole",
      "outputs": [
        {
          "internalType": "bool",
          "name": "",
          "type": "bool"
        }
      ],
      "stateMutability": "view",
      "type": "function"
    },
    {
      "inputs": [
        {
          "internalType": "address",
          "name": "aurora",
          "type": "address"
        },
        {
          "internalType": "address",
          "name": "streamOwner",
          "type": "address"
        },
        {
          "internalType": "uint256[]",
          "name": "scheduleTimes",
          "type": "uint256[]"
        },
        {
          "internalType": "uint256[]",
          "name": "scheduleRewards",
          "type": "uint256[]"
        },
        {
          "internalType": "uint256",
          "name": "tauAuroraStream",
          "type": "uint256"
        },
        {
          "internalType": "uint256",
          "name": "_flags",
          "type": "uint256"
        },
        {
          "internalType": "address",
          "name": "_treasury",
          "type": "address"
        },
        {
          "internalType": "uint256",
          "name": "_maxWeight",
          "type": "uint256"
        },
        {
          "internalType": "uint256",
          "name": "_minWeight",
          "type": "uint256"
        }
      ],
      "name": "initialize",
      "outputs": [],
      "stateMutability": "nonpayable",
      "type": "function"
    },
    {
      "inputs": [],
      "name": "maxWeight",
      "outputs": [
        {
          "internalType": "uint256",
          "name": "",
          "type": "uint256"
        }
      ],
      "stateMutability": "view",
      "type": "function"
    },
    {
      "inputs": [],
      "name": "minWeight",
      "outputs": [
        {
          "internalType": "uint256",
          "name": "",
          "type": "uint256"
        }
      ],
      "stateMutability": "view",
      "type": "function"
    },
    {
      "inputs": [],
      "name": "moveAllRewardsToPending",
      "outputs": [],
      "stateMutability": "nonpayable",
      "type": "function"
    },
    {
      "inputs": [
        {
          "internalType": "uint256",
          "name": "streamId",
          "type": "uint256"
        }
      ],
      "name": "moveRewardsToPending",
      "outputs": [],
      "stateMutability": "nonpayable",
      "type": "function"
    },
    {
      "inputs": [],
      "name": "paused",
      "outputs": [
        {
          "internalType": "uint256",
          "name": "",
          "type": "uint256"
        }
      ],
      "stateMutability": "view",
      "type": "function"
    },
    {
      "inputs": [
        {
          "internalType": "address",
          "name": "streamOwner",
          "type": "address"
        },
        {
          "internalType": "address",
          "name": "rewardToken",
          "type": "address"
        },
        {
          "internalType": "uint256",
          "name": "auroraDepositAmount",
          "type": "uint256"
        },
        {
          "internalType": "uint256",
          "name": "maxDepositAmount",
          "type": "uint256"
        },
        {
          "internalType": "uint256",
          "name": "minDepositAmount",
          "type": "uint256"
        },
        {
          "internalType": "uint256[]",
          "name": "scheduleTimes",
          "type": "uint256[]"
        },
        {
          "internalType": "uint256[]",
          "name": "scheduleRewards",
          "type": "uint256[]"
        },
        {
          "internalType": "uint256",
          "name": "tau",
          "type": "uint256"
        }
      ],
      "name": "proposeStream",
      "outputs": [],
      "stateMutability": "nonpayable",
      "type": "function"
    },
    {
      "inputs": [
        {
          "internalType": "uint256",
          "name": "streamId",
          "type": "uint256"
        }
      ],
      "name": "releaseAuroraRewardsToStreamOwner",
      "outputs": [],
      "stateMutability": "nonpayable",
      "type": "function"
    },
    {
      "inputs": [
        {
          "internalType": "uint256",
          "name": "streamId",
          "type": "uint256"
        },
        {
          "internalType": "address",
          "name": "streamFundReceiver",
          "type": "address"
        }
      ],
      "name": "removeStream",
      "outputs": [],
      "stateMutability": "nonpayable",
      "type": "function"
    },
    {
      "inputs": [
        {
          "internalType": "bytes32",
          "name": "role",
          "type": "bytes32"
        },
        {
          "internalType": "address",
          "name": "account",
          "type": "address"
        }
      ],
      "name": "renounceRole",
      "outputs": [],
      "stateMutability": "nonpayable",
      "type": "function"
    },
    {
      "inputs": [
        {
          "internalType": "bytes32",
          "name": "role",
          "type": "bytes32"
        },
        {
          "internalType": "address",
          "name": "account",
          "type": "address"
        }
      ],
      "name": "revokeRole",
      "outputs": [],
      "stateMutability": "nonpayable",
      "type": "function"
    },
    {
      "inputs": [
        {
          "internalType": "uint256",
          "name": "streamId",
          "type": "uint256"
        },
        {
          "internalType": "uint256",
          "name": "start",
          "type": "uint256"
        },
        {
          "internalType": "uint256",
          "name": "end",
          "type": "uint256"
        }
      ],
      "name": "rewardsSchedule",
      "outputs": [
        {
          "internalType": "uint256",
          "name": "",
          "type": "uint256"
        }
      ],
      "stateMutability": "view",
      "type": "function"
    },
    {
      "inputs": [
        {
          "internalType": "uint256",
          "name": "amount",
          "type": "uint256"
        }
      ],
      "name": "stake",
      "outputs": [],
      "stateMutability": "nonpayable",
      "type": "function"
    },
    {
      "inputs": [
        {
          "internalType": "address",
          "name": "account",
          "type": "address"
        },
        {
          "internalType": "uint256",
          "name": "amount",
          "type": "uint256"
        }
      ],
      "name": "stakeOnBehalfOfAnotherUser",
      "outputs": [],
      "stateMutability": "nonpayable",
      "type": "function"
    },
    {
      "inputs": [
        {
          "internalType": "uint256",
          "name": "streamId",
          "type": "uint256"
        },
        {
          "internalType": "uint256",
          "name": "start",
          "type": "uint256"
        },
        {
          "internalType": "uint256",
          "name": "end",
          "type": "uint256"
        }
      ],
      "name": "startEndScheduleIndex",
      "outputs": [
        {
          "internalType": "uint256",
          "name": "startIndex",
          "type": "uint256"
        },
        {
          "internalType": "uint256",
          "name": "endIndex",
          "type": "uint256"
        }
      ],
      "stateMutability": "view",
      "type": "function"
    },
    {
      "inputs": [
        {
          "internalType": "bytes4",
          "name": "interfaceId",
          "type": "bytes4"
        }
      ],
      "name": "supportsInterface",
      "outputs": [
        {
          "internalType": "bool",
          "name": "",
          "type": "bool"
        }
      ],
      "stateMutability": "view",
      "type": "function"
    },
    {
      "inputs": [],
      "name": "totalAmountOfStakedAurora",
      "outputs": [
        {
          "internalType": "uint256",
          "name": "",
          "type": "uint256"
        }
      ],
      "stateMutability": "view",
      "type": "function"
    },
    {
      "inputs": [],
      "name": "totalAuroraShares",
      "outputs": [
        {
          "internalType": "uint256",
          "name": "",
          "type": "uint256"
        }
      ],
      "stateMutability": "view",
      "type": "function"
    },
    {
      "inputs": [],
      "name": "totalStreamShares",
      "outputs": [
        {
          "internalType": "uint256",
          "name": "",
          "type": "uint256"
        }
      ],
      "stateMutability": "view",
      "type": "function"
    },
    {
      "inputs": [],
      "name": "touchedAt",
      "outputs": [
        {
          "internalType": "uint256",
          "name": "",
          "type": "uint256"
        }
      ],
      "stateMutability": "view",
      "type": "function"
    },
    {
      "inputs": [],
      "name": "treasury",
      "outputs": [
        {
          "internalType": "address",
          "name": "",
          "type": "address"
        }
      ],
      "stateMutability": "view",
      "type": "function"
    },
    {
      "inputs": [
        {
          "internalType": "uint256",
          "name": "amount",
          "type": "uint256"
        }
      ],
      "name": "unstake",
      "outputs": [],
      "stateMutability": "nonpayable",
      "type": "function"
    },
    {
      "inputs": [],
      "name": "unstakeAll",
      "outputs": [],
      "stateMutability": "nonpayable",
      "type": "function"
    },
    {
      "inputs": [
        {
          "internalType": "address",
          "name": "_treasury",
          "type": "address"
        }
      ],
      "name": "updateTreasury",
      "outputs": [],
      "stateMutability": "nonpayable",
      "type": "function"
    },
    {
      "inputs": [
        {
          "internalType": "address",
          "name": "newImplementation",
          "type": "address"
        }
      ],
      "name": "upgradeTo",
      "outputs": [],
      "stateMutability": "nonpayable",
      "type": "function"
    },
    {
      "inputs": [
        {
          "internalType": "address",
          "name": "newImplementation",
          "type": "address"
        },
        {
          "internalType": "bytes",
          "name": "data",
          "type": "bytes"
        }
      ],
      "name": "upgradeToAndCall",
      "outputs": [],
      "stateMutability": "payable",
      "type": "function"
    },
    {
      "inputs": [
        {
          "internalType": "address",
          "name": "",
          "type": "address"
        }
      ],
      "name": "users",
      "outputs": [
        {
          "internalType": "uint256",
          "name": "deposit",
          "type": "uint256"
        },
        {
          "internalType": "uint256",
          "name": "auroraShares",
          "type": "uint256"
        },
        {
          "internalType": "uint256",
          "name": "streamShares",
          "type": "uint256"
        }
      ],
      "stateMutability": "view",
      "type": "function"
    },
    {
      "inputs": [
        {
          "internalType": "uint256",
          "name": "streamId",
          "type": "uint256"
        }
      ],
      "name": "withdraw",
      "outputs": [],
      "stateMutability": "nonpayable",
      "type": "function"
    },
    {
      "inputs": [],
      "name": "withdrawAll",
      "outputs": [],
      "stateMutability": "nonpayable",
      "type": "function"
    }
  ],
  "bytecode": "0x60a0604052306080523480156200001557600080fd5b50600054610100900460ff16620000335760005460ff16156200003d565b6200003d620000e2565b620000a55760405162461bcd60e51b815260206004820152602e60248201527f496e697469616c697a61626c653a20636f6e747261637420697320616c72656160448201526d191e481a5b9a5d1a585b1a5e995960921b606482015260840160405180910390fd5b600054610100900460ff16158015620000c8576000805461ffff19166101011790555b8015620000db576000805461ff00191690555b5062000106565b6000620000fa306200010060201b620037781760201c565b15905090565b3b151590565b608051615ac36200013760003960008181611913015281816119530152818161238301526123c30152615ac36000f3fe6080604052600436106102ff5760003560e01c806301ffc9a71461030457806303687788146103395780630c2ee55e146103675780630efd83101461037e5780631194ebeb1461039e57806312dd67fe146103c05780631c61e617146103e05780631dd00452146104005780631e0fbfa2146104455780631fd8c5f41461046757806320988cef1461047d578063248a9ca3146104945780632692c59f146104b45780632c43d14e146104d45780632ca783f3146104f45780632e17de78146105145780632e1a7d4d146105345780632f2ff15d1461055457806335322f371461057457806336568abe146105895780633659cfe6146105a957806336630cc7146105c95780633895a275146105e9578063389ed267146105ff578063396a6c14146106215780633ba31abf146106415780633ea005c8146106615780633f22dbbc146106835780634981912e146106a35780634f1ef286146106d15780635578fdb2146106e457806357baeac8146107125780635c975abb1461073257806361d027b3146107485780636458edd314610769578063687dd46c146107895780636c4624c3146107a95780636db8e53d146107c957806370bc770c146107df57806372e553991461080d5780637f37df3b1461082d5780637f51bb1f14610872578063853828b61461089257806386c1b4eb146108a7578063894e9a0d146108c95780638bc34e77146109005780638d40bd0314610915578063904033221461093557806391d1485414610955578063993b21c1146109755780639c52a92014610995578063a217fddf146109b5578063a4c828dc146109ca578063a694fc3a14610a01578063a81c6a1514610a21578063a87430ba14610a41578063a8b0bb8314610a99578063b8e9744c14610ab0578063ba0cb22b14610ad0578063bb07ec1b14610b0a578063be831a2e14610b20578063c892772314610b40578063cd5ba59014610b85578063d5050aed14610b9a578063d547741f14610bba578063e335e79a14610bda578063ee13ad8e14610bf0578063fe904b7a14610c10575b600080fd5b34801561031057600080fd5b5061032461031f366004614f16565b610c28565b60405190151581526020015b60405180910390f35b34801561034557600080fd5b50610359610354366004614f40565b610c5f565b604051908152602001610330565b34801561037357600080fd5b506103596101035481565b34801561038a57600080fd5b50610359610399366004614f88565b61106f565b3480156103aa57600080fd5b506103be6103b936600461506e565b6110ce565b005b3480156103cc57600080fd5b506103596103db366004615119565b6113e8565b3480156103ec57600080fd5b506103596103fb366004614f88565b6114b1565b34801561040c57600080fd5b5061035961041b366004614f88565b6001600160a01b031660009081526101046020908152604080832093835260059093019052205490565b34801561045157600080fd5b50610359600080516020615a4e83398151915281565b34801561047357600080fd5b5061035960fd5481565b34801561048957600080fd5b506103596228207281565b3480156104a057600080fd5b506103596104af366004615119565b61153e565b3480156104c057600080fd5b506103be6104cf366004615119565b611553565b3480156104e057600080fd5b5061035968fc6f7c40458122964d601f1b81565b34801561050057600080fd5b506103be61050f366004615132565b6115d6565b34801561052057600080fd5b506103be61052f366004615119565b61165f565b34801561054057600080fd5b506103be61054f366004615119565b61171f565b34801561056057600080fd5b506103be61056f366004614f88565b6117b6565b34801561058057600080fd5b506103be6117d3565b34801561059557600080fd5b506103be6105a4366004614f88565b61188e565b3480156105b557600080fd5b506103be6105c436600461515c565b611908565b3480156105d557600080fd5b506103596105e4366004615177565b6119d1565b3480156105f557600080fd5b5061035960fc5481565b34801561060b57600080fd5b506103596000805160206159ee83398151915281565b34801561062d57600080fd5b5061035961063c366004615119565b611b45565b34801561064d57600080fd5b506103be61065c366004614f88565b611bc8565b34801561066d57600080fd5b5061035960008051602061594783398151915281565b34801561068f57600080fd5b506103be61069e366004615199565b611e4e565b3480156106af57600080fd5b506106c36106be366004614f40565b6120f1565b6040516103309291906151fc565b6103be6106df36600461520a565b612378565b3480156106f057600080fd5b5061010154610705906001600160a01b031681565b60405161033091906152af565b34801561071e57600080fd5b5061035961072d36600461515c565b61242e565b34801561073e57600080fd5b5061035960fb5481565b34801561075457600080fd5b5061010054610705906001600160a01b031681565b34801561077557600080fd5b506103be61078436600461530e565b6124a3565b34801561079557600080fd5b506103be6107a4366004615360565b612506565b3480156107b557600080fd5b506103be6107c4366004614f40565b612550565b3480156107d557600080fd5b5061035960ff5481565b3480156107eb57600080fd5b506107ff6107fa366004615119565b612568565b6040516103309291906153dc565b34801561081957600080fd5b506103be610828366004615360565b612668565b34801561083957600080fd5b50610359610848366004614f88565b6001600160a01b031660009081526101046020908152604080832093835260039093019052205490565b34801561087e57600080fd5b506103be61088d36600461515c565b61275b565b34801561089e57600080fd5b506103be6127ed565b3480156108b357600080fd5b50610359600080516020615a2e83398151915281565b3480156108d557600080fd5b506108e96108e4366004615119565b612891565b6040516103309b9a99989796959493929190615417565b34801561090c57600080fd5b506103be612957565b34801561092157600080fd5b506103be610930366004615177565b61299f565b34801561094157600080fd5b506103be610950366004615119565b612cb1565b34801561096157600080fd5b50610324610970366004614f88565b612da4565b34801561098157600080fd5b50610359610990366004615119565b612dcf565b3480156109a157600080fd5b506103be6109b0366004615119565b612dfe565b3480156109c157600080fd5b50610359600081565b3480156109d657600080fd5b506103596109e536600461515c565b6001600160a01b03166000908152610104602052604090205490565b348015610a0d57600080fd5b506103be610a1c366004615119565b61303b565b348015610a2d57600080fd5b506103be610a3c36600461549f565b6130a5565b348015610a4d57600080fd5b50610a7e610a5c36600461515c565b6101046020526000908152604090208054600182015460029092015490919083565b60408051938452602084019290925290820152606001610330565b348015610aa557600080fd5b506103596101025481565b610ac3610abe36600461520a565b6135a8565b60405161033091906155b3565b348015610adc57600080fd5b50610359610aeb36600461515c565b6001600160a01b03166000908152610104602052604090206001015490565b348015610b1657600080fd5b5061035960fe5481565b348015610b2c57600080fd5b506103be610b3b366004615177565b61366e565b348015610b4c57600080fd5b50610359610b5b366004614f88565b6001600160a01b031660009081526101046020908152604080832093835260049093019052205490565b348015610b9157600080fd5b5061035961367f565b348015610ba657600080fd5b506103be610bb536600461515c565b6136b1565b348015610bc657600080fd5b506103be610bd5366004614f88565b613712565b348015610be657600080fd5b5061010554610359565b348015610bfc57600080fd5b506103be610c0b366004615119565b61372f565b348015610c1c57600080fd5b50610359630786156081565b60006001600160e01b03198216637965db0b60e01b1480610c5957506301ffc9a760e01b6001600160e01b03198316145b92915050565b6000806101058581548110610c7657610c766155c6565b90600052602060002090600f0201600c0160405180604001604052908160008201805480602002602001604051908101604052809291908181526020018280548015610ce157602002820191906000526020600020905b815481526020019060010190808311610ccd575b5050505050815260200160018201805480602002602001604051908101604052809291908181526020018280548015610d3957602002820191906000526020600020905b815481526020019060010190808311610d25575b5050505050815250509050600080610d528787876120f1565b909250905060008083831415610e2b576020850151610d728560016155f2565b81518110610d8257610d826155c6565b602002602001015185602001518581518110610da057610da06155c6565b6020026020010151610db2919061560a565b905084600001518481518110610dca57610dca6155c6565b60200260200101518560000151856001610de491906155f2565b81518110610df457610df46155c6565b6020026020010151610e06919061560a565b610e10898961560a565b610e1a9083615621565b610e249190615640565b9150611061565b6020850151610e3b8560016155f2565b81518110610e4b57610e4b6155c6565b602002602001015185602001518581518110610e6957610e696155c6565b6020026020010151610e7b919061560a565b905084600001518481518110610e9357610e936155c6565b60200260200101518560000151856001610ead91906155f2565b81518110610ebd57610ebd6155c6565b6020026020010151610ecf919061560a565b85518990610ede8760016155f2565b81518110610eee57610eee6155c6565b6020026020010151610f00919061560a565b610f0a9083615621565b610f149190615640565b915084602001518381518110610f2c57610f2c6155c6565b60200260200101518560200151856001610f4691906155f2565b81518110610f5657610f566155c6565b6020026020010151610f68919061560a565b610f7290836155f2565b6020860151909250610f858460016155f2565b81518110610f9557610f956155c6565b602002602001015185602001518481518110610fb357610fb36155c6565b6020026020010151610fc5919061560a565b905084600001518381518110610fdd57610fdd6155c6565b60200260200101518560000151846001610ff791906155f2565b81518110611007576110076155c6565b6020026020010151611019919061560a565b855180518590811061102d5761102d6155c6565b602002602001015188611040919061560a565b61104a9083615621565b6110549190615640565b61105e90836155f2565b91505b5093505050505b9392505050565b6000806005841115801561108257508315155b6110a8576001600160a01b038316600090815261010460205260409020600101546110c6565b6001600160a01b038316600090815261010460205260409020600201545b949350505050565b6000805160206159478339815191526110e7813361377e565b6110f6898988888888886137e2565b61010054604051630480051d60e31b81526001600160a01b039091169063240028e890611127908b906004016152af565b602060405180830381865afa158015611144573d6000803e3d6000fd5b505050506040513d601f19601f820116820180604052508101906111689190615662565b61118d5760405162461bcd60e51b815260040161118490615684565b60405180910390fd5b600060405180604001604052808681526020018581525090506000610105805490509050610105604051806101c001604052808d6001600160a01b03168152602001336001600160a01b031681526020018c6001600160a01b031681526020018b81526020016000815260200160008152602001600081526020018a815260200189815260200188600081518110611227576112276155c6565b60200260200101518152602001868152602001600081526020018481526020016001600281111561125a5761125a615401565b905281546001808201845560009384526020938490208351600f9093020180546001600160a01b03199081166001600160a01b0394851617825584860151928201805482169385169390931790925560408401516002820180549093169316929092179055606082015160038201556080820151600482015560a0820151600582015560c0820151600682015560e0820151600782015561010082015160088201556101208201516009820155610140820151600a820155610160820151600b82015561018082015180518051939492939192600c85019261133f9284920190614eb6565b5060208281015180516113589260018501920190614eb6565b5050506101a0820151600e8201805460ff1916600183600281111561137f5761137f615401565b02179055505050896001600160a01b03168b6001600160a01b0316826000805160206159a78339815191528b8d6040516113ba9291906151fc565b60405180910390a4610101546113db906001600160a01b031633308c613907565b5050505050505050505050565b6000816114075760405162461bcd60e51b8152600401611184906156a0565b6000600583111561141a5760fe5461141e565b60ff545b9050806114535760405162461bcd60e51b815260206004820152600360248201526204533360ec1b6044820152606401611184565b8068fc6f7c40458122964d601f1b61146d8560fd546119d1565b6114779190615621565b6114819190615640565b6101058481548110611495576114956155c6565b90600052602060002090600f0201600b015461106891906155f2565b6000806114bd846113e8565b6001600160a01b0384166000908152610104602090815260408083208884526005808201909352908320549394509291908711156114ff578260010154611505565b82600201545b905068fc6f7c40458122964d601f1b8161151f848761560a565b6115299190615621565b6115339190615640565b979650505050505050565b600090815260c9602052604090206001015490565b6000805160206159ee83398151915261156c813361377e565b60fb5482811614806115845750611584600033612da4565b6115d05760405162461bcd60e51b815260206004820152601e60248201527f4f4e4c595f44454641554c545f41444d494e5f43414e5f554e504155534500006044820152606401611184565b5060fb55565b60018060fb5416600014806115f157506115f1600033612da4565b61160d5760405162461bcd60e51b8152600401611184906156bd565b600080516020615a4e833981519152611626813361377e565b61162e61395f565b6116388484613a37565b6101005461010154611659916001600160a01b039182169133911686613907565b50505050565b60018060fb54166000148061167a575061167a600033612da4565b6116965760405162461bcd60e51b8152600401611184906156bd565b60fe54158015906116b95750336000908152610104602052604090206001015415155b6116d55760405162461bcd60e51b8152600401611184906156e9565b6116dd61395f565b60fe54336000908152610104602052604081206001015460fc549192916117049190615621565b61170e9190615640565b905061171a8382613bf5565b505050565b60018060fb54166000148061173a575061173a600033612da4565b6117565760405162461bcd60e51b8152600401611184906156bd565b3360009081526101046020908152604080832085845260040190915290205442116117a95760405162461bcd60e51b815260206004820152600360248201526245323760e81b6044820152606401611184565b6117b282613dbe565b5050565b6117bf8261153e565b6117c9813361377e565b61171a8383613eb3565b60018060fb5416600014806117ee57506117ee600033612da4565b61180a5760405162461bcd60e51b8152600401611184906156bd565b60fe541580159061182d5750336000908152610104602052604090206001015415155b6118495760405162461bcd60e51b8152600401611184906156e9565b61185161395f565b60fe54336000908152610104602052604081206001015460fc549192916118789190615621565b6118829190615640565b90506117b28182613bf5565b6001600160a01b03811633146118fe5760405162461bcd60e51b815260206004820152602f60248201527f416363657373436f6e74726f6c3a2063616e206f6e6c792072656e6f756e636560448201526e103937b632b9903337b91039b2b63360891b6064820152608401611184565b6117b28282613f39565b306001600160a01b037f00000000000000000000000000000000000000000000000000000000000000001614156119515760405162461bcd60e51b815260040161118490615705565b7f00000000000000000000000000000000000000000000000000000000000000006001600160a01b0316611983613fa0565b6001600160a01b0316146119a95760405162461bcd60e51b81526004016111849061573f565b6119b281613fbc565b604080516000808252602082019092526119ce91839190613fc8565b50565b60004280831115611a0a5760405162461bcd60e51b815260206004820152600360248201526208a64760eb1b6044820152606401611184565b80831415611a1c576000915050610c59565b60006101058581548110611a3257611a326155c6565b90600052602060002090600f0201600c01600001600081548110611a5857611a586155c6565b90600052602060002001549050808211611a7757600092505050610c59565b60006101058681548110611a8d57611a8d6155c6565b90600052602060002090600f0201600c0160000160016101058881548110611ab757611ab76155c6565b60009182526020909120600c600f909202010154611ad5919061560a565b81548110611ae557611ae56155c6565b90600052602060002001549050808510611b055760009350505050610c59565b60008083871115611b1857869150611b1c565b8391505b82851015611b2b575083611b2e565b50815b611b39888383610c5f565b98975050505050505050565b6000806101058381548110611b5c57611b5c6155c6565b60009182526020909120600f9091020190506002600e82015460ff166002811115611b8957611b89615401565b14611b975750600092915050565b6000611ba78483600901546119d1565b90508160050154826003015482611bbe9190615621565b6110c69190615640565b600080516020615947833981519152611be1813361377e565b82611c145760405162461bcd60e51b8152602060048201526003602482015262114c4d60ea1b6044820152606401611184565b60006101058481548110611c2a57611c2a6155c6565b60009182526020909120600f9091020190506002600e82015460ff166002811115611c5757611c57615401565b14611c8a5760405162461bcd60e51b815260206004820152600360248201526245313560e81b6044820152606401611184565b600e8101805460ff19169055600281015481546040516001600160a01b03928316929091169086907f661da9ced4b5d786f5b5f451a5f68af24721a01b0a65bb47fa4fdf70b80b887c90600090a4600081600401548260030154611cee919061560a565b9050600082600601548360050154611d06919061560a565b61010154909150600090611d22906001600160a01b031661242e565b6002850154909150600090611d3f906001600160a01b031661242e565b610100546001870154610101549293506001600160a01b039182169263da0c1a8892918216911685881115611d745785611d76565b875b6040518463ffffffff1660e01b8152600401611d9493929190615779565b600060405180830381600087803b158015611dae57600080fd5b505af1158015611dc2573d6000803e3d6000fd5b50506101005460028801546001600160a01b03918216935063da0c1a8892508a911684871115611df25784611df4565b865b6040518463ffffffff1660e01b8152600401611e1293929190615779565b600060405180830381600087803b158015611e2c57600080fd5b505af1158015611e40573d6000803e3d6000fd5b505050505050505050505050565b6000611e5a813361377e565b60fb54611e795760405162461bcd60e51b81526004016111849061579d565b6000610105600081548110611e9057611e906155c6565b60009182526020909120600f90910201600c8101805491925090611eb69060019061560a565b81548110611ec657611ec66155c6565b906000526020600020015484600081518110611ee457611ee46155c6565b602002602001015114611f1f5760405162461bcd60e51b815260206004820152600360248201526245313760e81b6044820152606401611184565b611f4483600081518110611f3557611f356155c6565b60200260200101518585614108565b611f933361010060009054906101000a90046001600160a01b031685600081518110611f7257611f726155c6565b602090810291909101015160028501546001600160a01b0316929190613907565b600c8101805480611fa657611fa66157ba565b6001900381819060005260206000200160009055905580600c01600101805480611fd257611fd26157ba565b6001900381819060005260206000200160009055905560005b600c82015481101561205b578360008151811061200a5761200a6155c6565b602002602001015182600c01600101828154811061202a5761202a6155c6565b90600052602060002001600082825461204391906155f2565b90915550819050612053816157d0565b915050611feb565b5060005b84518110156120ea5781600c01600001858281518110612081576120816155c6565b602090810291909101810151825460018101845560009384529190922001558351600d8301908590839081106120b9576120b96155c6565b60209081029190910181015182546001810184556000938452919092200155806120e2816157d0565b91505061205f565b5050505050565b6000806000610105868154811061210a5761210a6155c6565b60009182526020909120600c600f90920201018054909150806121555760405162461bcd60e51b815260206004820152600360248201526245333160e81b6044820152606401611184565b85851161218a5760405162461bcd60e51b815260206004820152600360248201526222999960e91b6044820152606401611184565b816000016000815481106121a0576121a06155c6565b90600052602060002001548610156121e05760405162461bcd60e51b815260206004820152600360248201526245333360e81b6044820152606401611184565b816121ec60018361560a565b815481106121fc576121fc6155c6565b906000526020600020015485111561223c5760405162461bcd60e51b8152602060048201526003602482015262114ccd60ea1b6044820152606401611184565b60015b818110156122925782600001818154811061225c5761225c6155c6565b90600052602060002001548710156122805761227960018261560a565b9450612292565b8061228a816157d0565b91505061223f565b508161229f60018361560a565b815481106122af576122af6155c6565b90600052602060002001548514156122d3576122cc60028261560a565b9250612338565b60006122e08560016155f2565b90505b8181101561233657826000018181548110612300576123006155c6565b90600052602060002001548610156123245761231d60018261560a565b9350612336565b8061232e816157d0565b9150506122e3565b505b8284111561236e5760405162461bcd60e51b815260206004820152600360248201526245333560e81b6044820152606401611184565b5050935093915050565b306001600160a01b037f00000000000000000000000000000000000000000000000000000000000000001614156123c15760405162461bcd60e51b815260040161118490615705565b7f00000000000000000000000000000000000000000000000000000000000000006001600160a01b03166123f3613fa0565b6001600160a01b0316146124195760405162461bcd60e51b81526004016111849061573f565b61242282613fbc565b6117b282826001613fc8565b610100546040516370a0823160e01b81526000916001600160a01b03808516926370a08231926124629216906004016152af565b602060405180830381865afa15801561247f573d6000803e3d6000fd5b505050506040513d601f19601f82011682018060405250810190610c5991906157eb565b60018060fb5416600014806124be57506124be600033612da4565b6124da5760405162461bcd60e51b8152600401611184906156bd565b600080516020615a2e8339815191526124f3813361377e565b6124fb61395f565b6120ea858585614289565b60018060fb5416600014806125215750612521600033612da4565b61253d5760405162461bcd60e51b8152600401611184906156bd565b61254561395f565b61171a338484614289565b600061255c813361377e565b50825491821816189055565b606080610105838154811061257f5761257f6155c6565b90600052602060002090600f0201600c0160000161010584815481106125a7576125a76155c6565b90600052602060002090600f0201600c016001018180548060200260200160405190810160405280929190818152602001828054801561260657602002820191906000526020600020905b8154815260200190600101908083116125f2575b505050505091508080548060200260200160405190810160405280929190818152602001828054801561265857602002820191906000526020600020905b815481526020019060010190808311612644575b5050505050905091509150915091565b60018060fb5416600014806126835750612683600033612da4565b61269f5760405162461bcd60e51b8152600401611184906156bd565b33600090815261010460205260408120905b838110156120ea578160030160008686848181106126d1576126d16155c6565b90506020020135815260200190815260200160002054600014158015612723575081600401600086868481811061270a5761270a6155c6565b9050602002013581526020019081526020016000205442115b156127495761274985858381811061273d5761273d6155c6565b90506020020135613dbe565b80612753816157d0565b9150506126b1565b6000612767813361377e565b60fb546127865760405162461bcd60e51b81526004016111849061579d565b6001600160a01b038216158015906127ad5750610100546001600160a01b03838116911614155b6127c95760405162461bcd60e51b815260040161118490615804565b5061010080546001600160a01b0319166001600160a01b0392909216919091179055565b60018060fb5416600014806128085750612808600033612da4565b6128245760405162461bcd60e51b8152600401611184906156bd565b336000908152610104602052604081206101055490915b81811015611659576000818152600384016020526040902054158015906128715750600081815260048401602052604090205442115b1561287f5761287f81613dbe565b80612889816157d0565b91505061283b565b6000806000806000806000806000806000806101058d815481106128b7576128b76155c6565b90600052602060002090600f020190508060000160009054906101000a90046001600160a01b03168160020160009054906101000a90046001600160a01b031682600301548360040154846005015485600601548660070154876009015488600b015489600a01548a600e0160009054906101000a900460ff169b509b509b509b509b509b509b509b509b509b509b505091939597999b90929496989a50565b60018060fb5416600014806129725750612972600033612da4565b61298e5760405162461bcd60e51b8152600401611184906156bd565b61299661395f565b6119ce33614324565b60018060fb5416600014806129ba57506129ba600033612da4565b6129d65760405162461bcd60e51b8152600401611184906156bd565b600061010584815481106129ec576129ec6155c6565b60009182526020909120600f9091020190506001600e82015460ff166002811115612a1957612a19615401565b14612a365760405162461bcd60e51b815260040161118490615820565b80546001600160a01b03163314612a745760405162461bcd60e51b8152602060048201526002602482015261453960f01b6044820152606401611184565b4281600c01600001600081548110612a8e57612a8e6155c6565b90600052602060002001541015612acd5760405162461bcd60e51b815260206004820152600360248201526204531360ec1b6044820152606401611184565b8060070154831115612b075760405162461bcd60e51b815260206004820152600360248201526245313160e81b6044820152606401611184565b8060080154831015612b415760405162461bcd60e51b815260206004820152600360248201526222989960e91b6044820152606401611184565b600e8101805460ff19166002179055600581018390556007810154831015612bce5760008160070154826003015485612b7a9190615621565b612b849190615640565b90506000818360030154612b98919061560a565b600384018390559050612bab8686614393565b600183015461010154612bcb916001600160a01b0391821691168361449d565b50505b6002810154815460038301546040516001600160a01b0393841693909216918791600080516020615a0e83398151915291612c0a9189916151fc565b60405180910390a46005810154600d82018054600090612c2c57612c2c6155c6565b906000526020600020015414612c6a5760405162461bcd60e51b815260206004820152600360248201526245313360e81b6044820152606401611184565b61010054600382015461010154612c8f926001600160a01b039182169291169061449d565b610100546002820154611659916001600160a01b039182169133911686613907565b600080516020615947833981519152612cca813361377e565b60006101058381548110612ce057612ce06155c6565b60009182526020909120600f9091020190506001600e82015460ff166002811115612d0d57612d0d615401565b14612d2a5760405162461bcd60e51b815260040161118490615820565b600e8101805460ff191690556003810180546000918290556002830154835460405192936001600160a01b0392831693929091169187917ffadbcbd495527ce5e10fd0cceba57d404a4625dd6ce0499c254ac523789ef3ad91a4600182015461010154611659916001600160a01b0391821691168361449d565b600091825260c9602090815260408084206001600160a01b0393909316845291905290205460ff1690565b60006101058281548110612de557612de56155c6565b90600052602060002090600f0201600b01549050919050565b60018060fb541660001480612e195750612e19600033612da4565b612e355760405162461bcd60e51b8152600401611184906156bd565b81612e685760405162461bcd60e51b815260206004820152600360248201526208a62760eb1b6044820152606401611184565b60006101058381548110612e7e57612e7e6155c6565b60009182526020909120600f9091020180549091506001600160a01b03163314612ed05760405162461bcd60e51b815260206004820152600360248201526245313960e81b6044820152606401611184565b6002600e82015460ff166002811115612eeb57612eeb615401565b14612f1e5760405162461bcd60e51b815260206004820152600360248201526204532360ec1b6044820152606401611184565b6000612f2984611b45565b905060008111612f605760405162461bcd60e51b8152602060048201526002602482015261229960f11b6044820152606401611184565b42826009018190555080826004016000828254612f7d91906155f2565b909155505081546040518281526001600160a01b039091169085907fd8dbc00678cdeb812d1660863c3d845d199d828cd02c9278b1ac8f359a1394369060200160405180910390a361010054825461010154604051631b41835160e31b81526001600160a01b039384169363da0c1a889361300393908216929116908690600401615779565b600060405180830381600087803b15801561301d57600080fd5b505af1158015613031573d6000803e3d6000fd5b5050505050505050565b60018060fb5416600014806130565750613056600033612da4565b6130725760405162461bcd60e51b8152600401611184906156bd565b61307a61395f565b6130843383613a37565b61010054610101546117b2916001600160a01b039182169133911685613907565b600054610100900460ff166130c05760005460ff16156130c4565b303b155b6131275760405162461bcd60e51b815260206004820152602e60248201527f496e697469616c697a61626c653a20636f6e747261637420697320616c72656160448201526d191e481a5b9a5d1a585b1a5e995960921b6064820152608401611184565b600054610100900460ff16158015613149576000805461ffff19166101011790555b81831161317d5760405162461bcd60e51b8152602060048201526002602482015261453360f01b6044820152606401611184565b6001600160a01b0384166131a35760405162461bcd60e51b815260040161118490615804565b6131e6898b896000815181106131bb576131bb6155c6565b60200260200101518a6000815181106131d6576131d66155c6565b60200260200101518c8c8c6137e2565b604051630480051d60e31b81526001600160a01b0385169063240028e890613212908d906004016152af565b602060405180830381865afa15801561322f573d6000803e3d6000fd5b505050506040513d601f19601f820116820180604052508101906132539190615662565b61326f5760405162461bcd60e51b815260040161118490615684565b613278856144cd565b613290600080516020615a4e83398151915233613eb3565b6132a8600080516020615a2e83398151915233613eb3565b6132c060008051602061594783398151915233613eb3565b61010080546001600160a01b038087166001600160a01b031992831617835561010180548e83169316831790556101028690556101038590556040805180820182528c815260208082018d905282516101c081018452938f1680855290840152908201929092526000606082018190526080820181905260a0820181905260c0820181905260e0820181905292810183905242610120820152610140810189905261016081018390526101808101829052610105906101a081016002905281546001808201845560009384526020938490208351600f9093020180546001600160a01b03199081166001600160a01b0394851617825584860151928201805482169385169390931790925560408401516002820180549093169316929092179055606082015160038201556080820151600482015560a0820151600582015560c0820151600682015560e0820151600782015561010082015160088201556101208201516009820155610140820151600a820155610160820151600b82015561018082015180518051939492939192600c8501926134619284920190614eb6565b50602082810151805161347a9260018501920190614eb6565b5050506101a0820151600e8201805460ff191660018360028111156134a1576134a1615401565b021790555050508b6001600160a01b03168b6001600160a01b0316836000805160206159a78339815191528c6000815181106134df576134df6155c6565b60200260200101518d6000815181106134fa576134fa6155c6565b60200260200101516040516135109291906151fc565b60405180910390a48b6001600160a01b03168b6001600160a01b031683600080516020615a0e8339815191528c60008151811061354f5761354f6155c6565b60200260200101518d60008151811061356a5761356a6155c6565b60200260200101516040516135809291906151fc565b60405180910390a45050801561359c576000805461ff00191690555b50505050505050505050565b606060006135b6813361377e565b6001600160a01b0384166135fb5760405162461bcd60e51b815260206004820152600c60248201526b5a45524f5f4144445245535360a01b6044820152606401611184565b600080856001600160a01b031685604051613616919061583c565b600060405180830381855af49150503d8060008114613651576040519150601f19603f3d011682016040523d82523d6000602084013e613656565b606091505b50915091508161366557600080fd5b95945050505050565b600061367a813361377e565b509055565b600060fd54600014156136925750600090565b61369f600060fd546119d1565b60fc546136ac91906155f2565b905090565b60018060fb5416600014806136cc57506136cc600033612da4565b6136e85760405162461bcd60e51b8152600401611184906156bd565b600080516020615a2e833981519152613701813361377e565b61370961395f565b61171a83614324565b61371b8261153e565b613725813361377e565b61171a8383613f39565b60018060fb54166000148061374a575061374a600033612da4565b6137665760405162461bcd60e51b8152600401611184906156bd565b61376e61395f565b6117b23383614505565b3b151590565b6137888282612da4565b6117b2576137a0816001600160a01b031660146147a6565b6137ab8360206147a6565b6040516020016137bc929190615858565b60408051601f198184030181529082905262461bcd60e51b8252611184916004016155b3565b6001600160a01b0387161580159061380257506001600160a01b03861615155b61381e5760405162461bcd60e51b815260040161118490615804565b600085116138545760405162461bcd60e51b815260206004820152600360248201526245353160e81b6044820152606401611184565b6000841161388a5760405162461bcd60e51b8152602060048201526003602482015262229a9960e91b6044820152606401611184565b848411156138c05760405162461bcd60e51b815260206004820152600360248201526245343360e81b6044820152606401611184565b806138f35760405162461bcd60e51b8152602060048201526003602482015262114d0d60ea1b6044820152606401611184565b6138fe858484614108565b50505050505050565b611659846323b872dd60e01b85858560405160240161392893929190615779565b60408051601f198184030181529190526020810180516001600160e01b03166001600160e01b031990931692909217909152614941565b4260fd54141561396b57565b60fe5415613a3157613980600060fd546119d1565b60fc600082825461399191906155f2565b90915550506101055460015b81811015613a2e57600261010582815481106139bb576139bb6155c6565b60009182526020909120600e600f90920201015460ff1660028111156139e3576139e3615401565b1415613a1c576139f2816113e8565b6101058281548110613a0657613a066155c6565b90600052602060002090600f0201600b01819055505b80613a26816157d0565b91505061399d565b50505b4260fd55565b6001600160a01b03821660009081526101046020526040812060fe54909190613a61575081613aa8565b600060fe5484613a719190615621565b905060fc5481613a819190615640565b91508060fc5483613a929190615621565b1015613aa657613aa36001836155f2565b91505b505b80826001016000828254613abc91906155f2565b925050819055508060fe6000828254613ad591906155f2565b925050819055508260fc6000828254613aee91906155f2565b9091555050815483908390600090613b079084906155f2565b9091555060009050613b198242614a13565b90508060ff6000828254613b2d91906155f2565b9250508190555080836002016000828254613b4891906155f2565b90915550506101055460015b81811015613ba9576101058181548110613b7057613b706155c6565b60009182526020808320600b600f9093020191909101548383526005880190915260409091205580613ba1816157d0565b915050613b54565b50856001600160a01b03167f1449c6dd7851abc30abf37f57715f492010519147cc2652fbc38202c18a6ee908685604051613be59291906151fc565b60405180910390a2505050505050565b81613c285760405162461bcd60e51b815260206004820152600360248201526245333960e81b6044820152606401611184565b80821115613c5e5760405162461bcd60e51b815260206004820152600360248201526204534360ec1b6044820152606401611184565b33600090815261010460205260408120600181015460fe805492939192909190613c8990849061560a565b9091555050600281015460ff8054600090613ca590849061560a565b90915550506000600182018190556002820181905560fc8054849290613ccc90849061560a565b9091555050600080825580805260038201602052604081208054859290613cf49084906155f2565b90915550506101058054600090613d0d57613d0d6155c6565b90600052602060002090600f0201600a015442613d2a91906155f2565b60008080526004830160209081526040808320939093556003840181528282205492519283523392600080516020615a6e833981519152910160405180910390a360405183815233907f0f5bb82176feb1b5e747e28471aa92156a04d9f3ab9f45f28e2d704232b93f759060200160405180910390a26000613dac848461560a565b90508015611659576116593382613a37565b336000818152610104602090815260408083208584526003810183528184208054949055905183815290939185917f3bfce8de0db7450cc169b94323c210e69a36c6a4a58c9f5d96bec4973adce392910160405180910390a36101005461010580546001600160a01b039092169163da0c1a8891339187908110613e4457613e446155c6565b600091825260209091206002600f9092020101546040516001600160e01b031960e085901b168152613e8592916001600160a01b0316908690600401615779565b600060405180830381600087803b158015613e9f57600080fd5b505af11580156138fe573d6000803e3d6000fd5b613ebd8282612da4565b6117b257600082815260c9602090815260408083206001600160a01b03851684529091529020805460ff19166001179055613ef53390565b6001600160a01b0316816001600160a01b0316837f2f8788117e7eff1d82e926ec794901d17c78024a50270940304540a733656f0d60405160405180910390a45050565b613f438282612da4565b156117b257600082815260c9602090815260408083206001600160a01b0385168085529252808320805460ff1916905551339285917ff6391f5c32d9c69d2a47ea670b442974b53935d1edc7fd64eb21e047a839171b9190a45050565b600080516020615987833981519152546001600160a01b031690565b60006117b2813361377e565b6000613fd2613fa0565b9050613fdd84614b0d565b600083511180613fea5750815b15613ffb57613ff98484614ba0565b505b7f4910fdfa16fed3260ed0e7147f7cc6da11a60208b5b9406d12a635614ffd9143805460ff166120ea57805460ff191660011781556040516140769086906140479085906024016152af565b60408051601f198184030181529190526020810180516001600160e01b0316631b2ce7f360e11b179052614ba0565b50805460ff19168155614087613fa0565b6001600160a01b0316826001600160a01b0316146140ff5760405162461bcd60e51b815260206004820152602f60248201527f45524331393637557067726164653a207570677261646520627265616b73206660448201526e75727468657220757067726164657360881b6064820152608401611184565b6120ea85614c82565b8060008151811061411b5761411b6155c6565b60200260200101518314801561414a57504282600081518110614140576141406155c6565b6020026020010151115b8015614157575080518251145b801561416557506002825110155b6141815760405162461bcd60e51b8152600401611184906158c7565b60015b8251811015614242578261419960018361560a565b815181106141a9576141a96155c6565b60200260200101518382815181106141c3576141c36155c6565b60200260200101511180156142145750816141df60018361560a565b815181106141ef576141ef6155c6565b6020026020010151828281518110614209576142096155c6565b602002602001015111155b6142305760405162461bcd60e51b8152600401611184906158c7565b8061423a816157d0565b915050614184565b508060018251614252919061560a565b81518110614262576142626155c6565b602002602001015160001461171a5760405162461bcd60e51b8152600401611184906158c7565b60005b818110156116595760026101058484848181106142ab576142ab6155c6565b90506020020135815481106142c2576142c26155c6565b60009182526020909120600e600f90920201015460ff1660028111156142ea576142ea615401565b14156143125761431284848484818110614306576143066155c6565b90506020020135614505565b8061431c816157d0565b91505061428c565b6101055460015b8181101561171a5760026101058281548110614349576143496155c6565b60009182526020909120600e600f90920201015460ff16600281111561437157614371615401565b1415614381576143818382614505565b8061438b816157d0565b91505061432b565b600061010583815481106143a9576143a96155c6565b600091825260208220600d600f90920201015491505b818110156116595761010584815481106143db576143db6155c6565b90600052602060002090600f020160070154836101058681548110614402576144026155c6565b90600052602060002090600f0201600c016001018381548110614427576144276155c6565b906000526020600020015461443c9190615621565b6144469190615640565b610105858154811061445a5761445a6155c6565b90600052602060002090600f0201600c01600101828154811061447f5761447f6155c6565b60009182526020909120015580614495816157d0565b9150506143bf565b6040516001600160a01b03831660248201526044810182905261171a90849063a9059cbb60e01b90606401613928565b6144d5614cc2565b6144dd614cfb565b6144e8600033613eb3565b6145006000805160206159ee83398151915233613eb3565b60fb55565b806145225760405162461bcd60e51b8152600401611184906156a0565b60026101058281548110614538576145386155c6565b60009182526020909120600e600f90920201015460ff16600281111561456057614560615401565b146145935760405162461bcd60e51b815260206004820152600360248201526245333760e81b6044820152606401611184565b6001600160a01b0382166000908152610104602052604081209060058311156145c05781600101546145c6565b81600201545b90508160010154600014156146035760405162461bcd60e51b815260206004820152600360248201526208a66760eb1b6044820152606401611184565b600068fc6f7c40458122964d601f1b8284600501600087815260200190815260200160002054610105878154811061463d5761463d6155c6565b90600052602060002090600f0201600b0154614659919061560a565b6146639190615621565b61466d9190615640565b90508061467b575050505050565b60008481526003840160205260408120805483929061469b9084906155f2565b90915550506101058054859081106146b5576146b56155c6565b90600052602060002090600f0201600b01548360050160008681526020019081526020016000208190555061010584815481106146f4576146f46155c6565b90600052602060002090600f0201600a01544261471191906155f2565b600085815260048501602052604090205561010580548291908690811061473a5761473a6155c6565b90600052602060002090600f0201600601600082825461475a91906155f2565b909155505060008481526003840160209081526040918290205491519182526001600160a01b038716918691600080516020615a6e833981519152910160405180910390a35050505050565b606060006147b5836002615621565b6147c09060026155f2565b6001600160401b038111156147d7576147d7614fb4565b6040519080825280601f01601f191660200182016040528015614801576020820181803683370190505b509050600360fc1b8160008151811061481c5761481c6155c6565b60200101906001600160f81b031916908160001a905350600f60fb1b8160018151811061484b5761484b6155c6565b60200101906001600160f81b031916908160001a905350600061486f846002615621565b61487a9060016155f2565b90505b60018111156148f2576f181899199a1a9b1b9c1cb0b131b232b360811b85600f16601081106148ae576148ae6155c6565b1a60f81b8282815181106148c4576148c46155c6565b60200101906001600160f81b031916908160001a90535060049490941c936148eb816158e4565b905061487d565b5083156110685760405162461bcd60e51b815260206004820181905260248201527f537472696e67733a20686578206c656e67746820696e73756666696369656e746044820152606401611184565b6000614996826040518060400160405280602081526020017f5361666545524332303a206c6f772d6c6576656c2063616c6c206661696c6564815250856001600160a01b0316614d2a9092919063ffffffff16565b80519091501561171a57808060200190518101906149b49190615662565b61171a5760405162461bcd60e51b815260206004820152602a60248201527f5361666545524332303a204552433230206f7065726174696f6e20646964206e6044820152691bdd081cdd58d8d9595960b21b6064820152608401611184565b60008062282072610105600081548110614a2f57614a2f6155c6565b90600052602060002090600f0201600c01600001600081548110614a5557614a556155c6565b9060005260206000200154614a6a91906155f2565b90506000614a7c6307861560836155f2565b9050818411614a9c5761010254614a939086615621565b92505050610c59565b808410614ab15761010354614a939086615621565b614abb828261560a565b614ac5858361560a565b6101035461010254614ad7919061560a565b614ae19088615621565b614aeb9190615621565b614af59190615640565b61010354614b039087615621565b61366591906155f2565b803b614b715760405162461bcd60e51b815260206004820152602d60248201527f455243313936373a206e657720696d706c656d656e746174696f6e206973206e60448201526c1bdd08184818dbdb9d1c9858dd609a1b6064820152608401611184565b60008051602061598783398151915280546001600160a01b0319166001600160a01b0392909216919091179055565b6060823b614bff5760405162461bcd60e51b815260206004820152602660248201527f416464726573733a2064656c65676174652063616c6c20746f206e6f6e2d636f6044820152651b9d1c9858dd60d21b6064820152608401611184565b600080846001600160a01b031684604051614c1a919061583c565b600060405180830381855af49150503d8060008114614c55576040519150601f19603f3d011682016040523d82523d6000602084013e614c5a565b606091505b509150915061366582826040518060600160405280602781526020016159c760279139614d39565b614c8b81614b0d565b6040516001600160a01b038216907fbc7cd75a20ee27fd9adebab32041f755214dbc6bffa90cc0225b39da2e5c2d3b90600090a250565b600054610100900460ff16614ce95760405162461bcd60e51b8152600401611184906158fb565b614cf1614d72565b614cf9614d72565b565b600054610100900460ff16614d225760405162461bcd60e51b8152600401611184906158fb565b614ce9614d72565b60606110c68484600085614d99565b60608315614d48575081611068565b825115614d585782518084602001fd5b8160405162461bcd60e51b815260040161118491906155b3565b600054610100900460ff16614cf95760405162461bcd60e51b8152600401611184906158fb565b606082471015614dfa5760405162461bcd60e51b815260206004820152602660248201527f416464726573733a20696e73756666696369656e742062616c616e636520666f6044820152651c8818d85b1b60d21b6064820152608401611184565b843b614e485760405162461bcd60e51b815260206004820152601d60248201527f416464726573733a2063616c6c20746f206e6f6e2d636f6e74726163740000006044820152606401611184565b600080866001600160a01b03168587604051614e64919061583c565b60006040518083038185875af1925050503d8060008114614ea1576040519150601f19603f3d011682016040523d82523d6000602084013e614ea6565b606091505b5091509150611533828286614d39565b828054828255906000526020600020908101928215614ef1579160200282015b82811115614ef1578251825591602001919060010190614ed6565b50614efd929150614f01565b5090565b5b80821115614efd5760008155600101614f02565b600060208284031215614f2857600080fd5b81356001600160e01b03198116811461106857600080fd5b600080600060608486031215614f5557600080fd5b505081359360208301359350604090920135919050565b80356001600160a01b0381168114614f8357600080fd5b919050565b60008060408385031215614f9b57600080fd5b82359150614fab60208401614f6c565b90509250929050565b634e487b7160e01b600052604160045260246000fd5b604051601f8201601f191681016001600160401b0381118282101715614ff257614ff2614fb4565b604052919050565b600082601f83011261500b57600080fd5b813560206001600160401b0382111561502657615026614fb4565b8160051b615035828201614fca565b928352848101820192828101908785111561504f57600080fd5b83870192505b8483101561153357823582529183019190830190615055565b600080600080600080600080610100898b03121561508b57600080fd5b61509489614f6c565b97506150a260208a01614f6c565b965060408901359550606089013594506080890135935060a08901356001600160401b03808211156150d357600080fd5b6150df8c838d01614ffa565b945060c08b01359150808211156150f557600080fd5b506151028b828c01614ffa565b92505060e089013590509295985092959890939650565b60006020828403121561512b57600080fd5b5035919050565b6000806040838503121561514557600080fd5b61514e83614f6c565b946020939093013593505050565b60006020828403121561516e57600080fd5b61106882614f6c565b6000806040838503121561518a57600080fd5b50508035926020909101359150565b600080604083850312156151ac57600080fd5b82356001600160401b03808211156151c357600080fd5b6151cf86838701614ffa565b935060208501359150808211156151e557600080fd5b506151f285828601614ffa565b9150509250929050565b918252602082015260400190565b6000806040838503121561521d57600080fd5b61522683614f6c565b91506020838101356001600160401b038082111561524357600080fd5b818601915086601f83011261525757600080fd5b81358181111561526957615269614fb4565b61527b601f8201601f19168501614fca565b9150808252878482850101111561529157600080fd5b80848401858401376000848284010152508093505050509250929050565b6001600160a01b0391909116815260200190565b60008083601f8401126152d557600080fd5b5081356001600160401b038111156152ec57600080fd5b6020830191508360208260051b850101111561530757600080fd5b9250929050565b60008060006040848603121561532357600080fd5b61532c84614f6c565b925060208401356001600160401b0381111561534757600080fd5b615353868287016152c3565b9497909650939450505050565b6000806020838503121561537357600080fd5b82356001600160401b0381111561538957600080fd5b615395858286016152c3565b90969095509350505050565b600081518084526020808501945080840160005b838110156153d1578151875295820195908201906001016153b5565b509495945050505050565b6040815260006153ef60408301856153a1565b828103602084015261366581856153a1565b634e487b7160e01b600052602160045260246000fd5b6001600160a01b038c811682528b166020820152604081018a9052606081018990526080810188905260a0810187905260c0810186905260e081018590526101008101849052610120810183905261016081016003831061548857634e487b7160e01b600052602160045260246000fd5b826101408301529c9b505050505050505050505050565b60008060008060008060008060006101208a8c0312156154be57600080fd5b6154c78a614f6c565b98506154d560208b01614f6c565b975060408a01356001600160401b03808211156154f157600080fd5b6154fd8d838e01614ffa565b985060608c013591508082111561551357600080fd5b506155208c828d01614ffa565b96505060808a0135945060a08a0135935061553d60c08b01614f6c565b925060e08a013591506101008a013590509295985092959850929598565b60005b8381101561557657818101518382015260200161555e565b838111156116595750506000910152565b6000815180845261559f81602086016020860161555b565b601f01601f19169290920160200192915050565b6020815260006110686020830184615587565b634e487b7160e01b600052603260045260246000fd5b634e487b7160e01b600052601160045260246000fd5b60008219821115615605576156056155dc565b500190565b60008282101561561c5761561c6155dc565b500390565b600081600019048311821515161561563b5761563b6155dc565b500290565b60008261565d57634e487b7160e01b600052601260045260246000fd5b500490565b60006020828403121561567457600080fd5b8151801515811461106857600080fd5b602080825260029082015261453560f01b604082015260600190565b60208082526003908201526245323960e81b604082015260600190565b60208082526012908201527110d3d395149050d517d254d7d4105554d15160721b604082015260600190565b602080825260029082015261453160f01b604082015260600190565b6020808252602c9082015260008051602061596783398151915260408201526b19195b1959d85d1958d85b1b60a21b606082015260800190565b6020808252602c9082015260008051602061596783398151915260408201526b6163746976652070726f787960a01b606082015260800190565b6001600160a01b039384168152919092166020820152604081019190915260600190565b60208082526003908201526222989b60e91b604082015260600190565b634e487b7160e01b600052603160045260246000fd5b60006000198214156157e4576157e46155dc565b5060010190565b6000602082840312156157fd57600080fd5b5051919050565b602080825260029082015261114d60f21b604082015260600190565b602080825260029082015261453760f01b604082015260600190565b6000825161584e81846020870161555b565b9190910192915050565b76020b1b1b2b9b9a1b7b73a3937b61d1030b1b1b7bab73a1604d1b81526000835161588a81601785016020880161555b565b7001034b99036b4b9b9b4b733903937b6329607d1b60179184019182015283516158bb81602884016020880161555b565b01602801949350505050565b60208082526003908201526245343560e81b604082015260600190565b6000816158f3576158f36155dc565b506000190190565b6020808252602b908201527f496e697469616c697a61626c653a20636f6e7472616374206973206e6f74206960408201526a6e697469616c697a696e6760a81b60608201526080019056fe930802d0eadfb856cb83e01d1c4daa3c89e9c6d9f74cfbe13124decf2b33128a46756e6374696f6e206d7573742062652063616c6c6564207468726f75676820360894a13ba1a3210667c828492db98dca3e2076cc3735a920a3ca505d382bbce843b72f047599c26dfdab8a31d1b5f353799cab6a8482518a21f1b17871dd75416464726573733a206c6f772d6c6576656c2064656c65676174652063616c6c206661696c6564139c2898040ef16910dc9f44dc697df79363da767d8bc92f2e310312b816e46d3062262d3b7b7b5292387920111bfa3e0597dc070a8f10f1be710f15868c22e0f7db13299c8a9e501861f04c20f69a2444829a36a363cfad4b58864709c755603a2f235c9daaf33349d300aadff2f15078a89df81bcfdd45ba11c8f816bddc6f5f1c6be51c8ec7fa7e7ddd9f798ec55927b06cfc8d9159987d1ae3358cb10b59a26469706673582212207dbcdb79209bbef075a9f76a30f96bf7afbe19c3fe6edc2b75756eaa01d54bbf64736f6c634300080a0033",
  "linkReferences": {},
  "deployedLinkReferences": {}
}