{
  "abi": [
    {
      "anonymous": false,
      "inputs": [
        {
          "indexed": false,
          "internalType": "address",
          "name": "previousAdmin",
          "type": "address"
        },
        {
          "indexed": false,
          "internalType": "address",
          "name": "newAdmin",
          "type": "address"
        }
      ],
      "name": "AdminChanged",
      "type": "event"
    },
    {
      "anonymous": false,
      "inputs": [
        {
          "indexed": true,
          "internalType": "address",
          "name": "beacon",
          "type": "address"
        }
      ],
      "name": "BeaconUpgraded",
      "type": "event"
    },
    {
      "anonymous": false,
      "inputs": [
        {
          "indexed": true,
          "internalType": "bytes32",
          "name": "role",
          "type": "bytes32"
        },
        {
          "indexed": true,
          "internalType": "bytes32",
          "name": "previousAdminRole",
          "type": "bytes32"
        },
        {
          "indexed": true,
          "internalType": "bytes32",
          "name": "newAdminRole",
          "type": "bytes32"
        }
      ],
      "name": "RoleAdminChanged",
      "type": "event"
    },
    {
      "anonymous": false,
      "inputs": [
        {
          "indexed": true,
          "internalType": "bytes32",
          "name": "role",
          "type": "bytes32"
        },
        {
          "indexed": true,
          "internalType": "address",
          "name": "account",
          "type": "address"
        },
        {
          "indexed": true,
          "internalType": "address",
          "name": "sender",
          "type": "address"
        }
      ],
      "name": "RoleGranted",
      "type": "event"
    },
    {
      "anonymous": false,
      "inputs": [
        {
          "indexed": true,
          "internalType": "bytes32",
          "name": "role",
          "type": "bytes32"
        },
        {
          "indexed": true,
          "internalType": "address",
          "name": "account",
          "type": "address"
        },
        {
          "indexed": true,
          "internalType": "address",
          "name": "sender",
          "type": "address"
        }
      ],
      "name": "RoleRevoked",
      "type": "event"
    },
    {
      "anonymous": false,
      "inputs": [
        {
          "indexed": true,
          "internalType": "address",
          "name": "implementation",
          "type": "address"
        }
      ],
      "name": "Upgraded",
      "type": "event"
    },
    {
      "inputs": [],
      "name": "DEFAULT_ADMIN_ROLE",
      "outputs": [
        {
          "internalType": "bytes32",
          "name": "",
          "type": "bytes32"
        }
      ],
      "stateMutability": "view",
      "type": "function"
    },
    {
      "inputs": [],
      "name": "PAUSE_ROLE",
      "outputs": [
        {
          "internalType": "bytes32",
          "name": "",
          "type": "bytes32"
        }
      ],
      "stateMutability": "view",
      "type": "function"
    },
    {
      "inputs": [
        {
          "internalType": "address",
          "name": "target",
          "type": "address"
        },
        {
          "internalType": "bytes",
          "name": "data",
          "type": "bytes"
        }
      ],
      "name": "adminDelegatecall",
      "outputs": [
        {
          "internalType": "bytes",
          "name": "",
          "type": "bytes"
        }
      ],
      "stateMutability": "payable",
      "type": "function"
    },
    {
      "inputs": [
        {
          "internalType": "uint256",
          "name": "flags",
          "type": "uint256"
        }
      ],
      "name": "adminPause",
      "outputs": [],
      "stateMutability": "nonpayable",
      "type": "function"
    },
    {
      "inputs": [
        {
          "internalType": "uint256",
          "name": "key",
          "type": "uint256"
        },
        {
          "internalType": "uint256",
          "name": "value",
          "type": "uint256"
        }
      ],
      "name": "adminSstore",
      "outputs": [],
      "stateMutability": "nonpayable",
      "type": "function"
    },
    {
      "inputs": [
        {
          "internalType": "uint256",
          "name": "key",
          "type": "uint256"
        },
        {
          "internalType": "uint256",
          "name": "value",
          "type": "uint256"
        },
        {
          "internalType": "uint256",
          "name": "mask",
          "type": "uint256"
        }
      ],
      "name": "adminSstoreWithMask",
      "outputs": [],
      "stateMutability": "nonpayable",
      "type": "function"
    },
    {
      "inputs": [],
      "name": "changeMe",
      "outputs": [
        {
          "internalType": "uint256",
          "name": "",
          "type": "uint256"
        }
      ],
      "stateMutability": "view",
      "type": "function"
    },
    {
      "inputs": [
        {
          "internalType": "bytes32",
          "name": "role",
          "type": "bytes32"
        }
      ],
      "name": "getRoleAdmin",
      "outputs": [
        {
          "internalType": "bytes32",
          "name": "",
          "type": "bytes32"
        }
      ],
      "stateMutability": "view",
      "type": "function"
    },
    {
      "inputs": [],
      "name": "getSignatureForTokenMinting",
      "outputs": [
        {
          "internalType": "bytes",
          "name": "",
          "type": "bytes"
        }
      ],
      "stateMutability": "nonpayable",
      "type": "function"
    },
    {
      "inputs": [
        {
          "internalType": "bytes32",
          "name": "role",
          "type": "bytes32"
        },
        {
          "internalType": "address",
          "name": "account",
          "type": "address"
        }
      ],
      "name": "grantRole",
      "outputs": [],
      "stateMutability": "nonpayable",
      "type": "function"
    },
    {
      "inputs": [
        {
          "internalType": "bytes32",
          "name": "role",
          "type": "bytes32"
        },
        {
          "internalType": "address",
          "name": "account",
          "type": "address"
        }
      ],
      "name": "hasRole",
      "outputs": [
        {
          "internalType": "bool",
          "name": "",
          "type": "bool"
        }
      ],
      "stateMutability": "view",
      "type": "function"
    },
    {
      "inputs": [
        {
          "internalType": "uint256",
          "name": "flags",
          "type": "uint256"
        }
      ],
      "name": "initialize",
      "outputs": [],
      "stateMutability": "nonpayable",
      "type": "function"
    },
    {
      "inputs": [],
      "name": "pauseMe",
      "outputs": [
        {
          "internalType": "uint256",
          "name": "",
          "type": "uint256"
        }
      ],
      "stateMutability": "nonpayable",
      "type": "function"
    },
    {
      "inputs": [],
      "name": "paused",
      "outputs": [
        {
          "internalType": "uint256",
          "name": "",
          "type": "uint256"
        }
      ],
      "stateMutability": "view",
      "type": "function"
    },
    {
      "inputs": [
        {
          "internalType": "bytes32",
          "name": "role",
          "type": "bytes32"
        },
        {
          "internalType": "address",
          "name": "account",
          "type": "address"
        }
      ],
      "name": "renounceRole",
      "outputs": [],
      "stateMutability": "nonpayable",
      "type": "function"
    },
    {
      "inputs": [
        {
          "internalType": "bytes32",
          "name": "role",
          "type": "bytes32"
        },
        {
          "internalType": "address",
          "name": "account",
          "type": "address"
        }
      ],
      "name": "revokeRole",
      "outputs": [],
      "stateMutability": "nonpayable",
      "type": "function"
    },
    {
      "inputs": [
        {
          "internalType": "bytes4",
          "name": "interfaceId",
          "type": "bytes4"
        }
      ],
      "name": "supportsInterface",
      "outputs": [
        {
          "internalType": "bool",
          "name": "",
          "type": "bool"
        }
      ],
      "stateMutability": "view",
      "type": "function"
    },
    {
      "inputs": [
        {
          "internalType": "address",
          "name": "newImplementation",
          "type": "address"
        }
      ],
      "name": "upgradeTo",
      "outputs": [],
      "stateMutability": "nonpayable",
      "type": "function"
    },
    {
      "inputs": [
        {
          "internalType": "address",
          "name": "newImplementation",
          "type": "address"
        },
        {
          "internalType": "bytes",
          "name": "data",
          "type": "bytes"
        }
      ],
      "name": "upgradeToAndCall",
      "outputs": [],
      "stateMutability": "payable",
      "type": "function"
    }
  ],
  "bytecode": {
    "object": "0x60a06040523060805234801561001457600080fd5b5060805161150b610045600039600081816105bd015281816105fd0152818161068601526106c6015261150b6000f3fe6080604052600436106101145760003560e01c8063389ed267116100a0578063a217fddf11610064578063a217fddf1461034a578063b8e9744c1461035f578063be831a2e14610372578063d547741f14610392578063fe4b84df146103b257600080fd5b8063389ed267146102ad5780634f1ef286146102e15780635c975abb146102f45780636c4624c31461030a57806391d148541461032a57600080fd5b80632711b8a5116100e75780632711b8a5146101c35780632c1fafca146101d95780632f2ff15d1461024d57806336568abe1461026d5780633659cfe61461028d57600080fd5b806301ffc9a714610119578063182a80ea1461014e578063248a9ca3146101715780632692c59f146101a1575b600080fd5b34801561012557600080fd5b50610139610134366004611085565b6103d2565b60405190151581526020015b60405180910390f35b34801561015a57600080fd5b50610163610409565b604051908152602001610145565b34801561017d57600080fd5b5061016361018c3660046110af565b600090815260c9602052604090206001015490565b3480156101ad57600080fd5b506101c16101bc3660046110af565b610474565b005b3480156101cf57600080fd5b5061016360fc5481565b3480156101e557600080fd5b50610240604051602060248201526008604482015267546573746e616d6560c01b606482015260609060840160408051601f198184030181529190526020810180516001600160e01b03166336c80bf560e01b179052919050565b6040516101459190611124565b34801561025957600080fd5b506101c1610268366004611153565b610509565b34801561027957600080fd5b506101c1610288366004611153565b610534565b34801561029957600080fd5b506101c16102a836600461117f565b6105b2565b3480156102b957600080fd5b506101637f139c2898040ef16910dc9f44dc697df79363da767d8bc92f2e310312b816e46d81565b6101c16102ef3660046111b0565b61067b565b34801561030057600080fd5b5061016360fb5481565b34801561031657600080fd5b506101c1610325366004611272565b610731565b34801561033657600080fd5b50610139610345366004611153565b610749565b34801561035657600080fd5b50610163600081565b61024061036d3660046111b0565b610774565b34801561037e57600080fd5b506101c161038d36600461129e565b61083a565b34801561039e57600080fd5b506101c16103ad366004611153565b61084b565b3480156103be57600080fd5b506101c16103cd3660046110af565b610871565b60006001600160e01b03198216637965db0b60e01b148061040357506301ffc9a760e01b6001600160e01b03198316145b92915050565b600060018060fb5416600014806104265750610426600033610749565b61046c5760405162461bcd60e51b815260206004820152601260248201527110d3d395149050d517d254d7d4105554d15160721b60448201526064015b60405180910390fd5b505060fb5490565b7f139c2898040ef16910dc9f44dc697df79363da767d8bc92f2e310312b816e46d61049f8133610933565b60fb5482811614806104b757506104b7600033610749565b6105035760405162461bcd60e51b815260206004820152601e60248201527f4f4e4c595f44454641554c545f41444d494e5f43414e5f554e504155534500006044820152606401610463565b5060fb55565b600082815260c960205260409020600101546105258133610933565b61052f8383610997565b505050565b6001600160a01b03811633146105a45760405162461bcd60e51b815260206004820152602f60248201527f416363657373436f6e74726f6c3a2063616e206f6e6c792072656e6f756e636560448201526e103937b632b9903337b91039b2b63360891b6064820152608401610463565b6105ae8282610a1d565b5050565b306001600160a01b037f00000000000000000000000000000000000000000000000000000000000000001614156105fb5760405162461bcd60e51b8152600401610463906112c0565b7f00000000000000000000000000000000000000000000000000000000000000006001600160a01b031661062d610a84565b6001600160a01b0316146106535760405162461bcd60e51b81526004016104639061130c565b61065c81610ab2565b6040805160008082526020820190925261067891839190610abe565b50565b306001600160a01b037f00000000000000000000000000000000000000000000000000000000000000001614156106c45760405162461bcd60e51b8152600401610463906112c0565b7f00000000000000000000000000000000000000000000000000000000000000006001600160a01b03166106f6610a84565b6001600160a01b03161461071c5760405162461bcd60e51b81526004016104639061130c565b61072582610ab2565b6105ae82826001610abe565b600061073d8133610933565b50825491821816189055565b600091825260c9602090815260408084206001600160a01b0393909316845291905290205460ff1690565b606060006107828133610933565b6001600160a01b0384166107c75760405162461bcd60e51b815260206004820152600c60248201526b5a45524f5f4144445245535360a01b6044820152606401610463565b600080856001600160a01b0316856040516107e29190611358565b600060405180830381855af49150503d806000811461081d576040519150601f19603f3d011682016040523d82523d6000602084013e610822565b606091505b50915091508161083157600080fd5b95945050505050565b60006108468133610933565b509055565b600082815260c960205260409020600101546108678133610933565b61052f8383610a1d565b600054610100900460ff1661088c5760005460ff1615610890565b303b155b6108f35760405162461bcd60e51b815260206004820152602e60248201527f496e697469616c697a61626c653a20636f6e747261637420697320616c72656160448201526d191e481a5b9a5d1a585b1a5e995960921b6064820152608401610463565b600054610100900460ff16158015610915576000805461ffff19166101011790555b61091e82610c09565b80156105ae576000805461ff00191690555050565b61093d8282610749565b6105ae57610955816001600160a01b03166014610c53565b610960836020610c53565b604051602001610971929190611374565b60408051601f198184030181529082905262461bcd60e51b825261046391600401611124565b6109a18282610749565b6105ae57600082815260c9602090815260408083206001600160a01b03851684529091529020805460ff191660011790556109d93390565b6001600160a01b0316816001600160a01b0316837f2f8788117e7eff1d82e926ec794901d17c78024a50270940304540a733656f0d60405160405180910390a45050565b610a278282610749565b156105ae57600082815260c9602090815260408083206001600160a01b0385168085529252808320805460ff1916905551339285917ff6391f5c32d9c69d2a47ea670b442974b53935d1edc7fd64eb21e047a839171b9190a45050565b7f360894a13ba1a3210667c828492db98dca3e2076cc3735a920a3ca505d382bbc546001600160a01b031690565b60006105ae8133610933565b6000610ac8610a84565b9050610ad384610df6565b600083511180610ae05750815b15610af157610aef8484610e9b565b505b7f4910fdfa16fed3260ed0e7147f7cc6da11a60208b5b9406d12a635614ffd9143805460ff16610c0257805460ff191660011781556040516001600160a01b0383166024820152610b7090869060440160408051601f198184030181529190526020810180516001600160e01b0316631b2ce7f360e11b179052610e9b565b50805460ff19168155610b81610a84565b6001600160a01b0316826001600160a01b031614610bf95760405162461bcd60e51b815260206004820152602f60248201527f45524331393637557067726164653a207570677261646520627265616b73206660448201526e75727468657220757067726164657360881b6064820152608401610463565b610c0285610f7d565b5050505050565b610c11610fbd565b610c19610ff6565b610c24600033610997565b610c4e7f139c2898040ef16910dc9f44dc697df79363da767d8bc92f2e310312b816e46d33610997565b60fb55565b60606000610c628360026113ff565b610c6d90600261141e565b67ffffffffffffffff811115610c8557610c8561119a565b6040519080825280601f01601f191660200182016040528015610caf576020820181803683370190505b509050600360fc1b81600081518110610cca57610cca611436565b60200101906001600160f81b031916908160001a905350600f60fb1b81600181518110610cf957610cf9611436565b60200101906001600160f81b031916908160001a9053506000610d1d8460026113ff565b610d2890600161141e565b90505b6001811115610da0576f181899199a1a9b1b9c1cb0b131b232b360811b85600f1660108110610d5c57610d5c611436565b1a60f81b828281518110610d7257610d72611436565b60200101906001600160f81b031916908160001a90535060049490941c93610d998161144c565b9050610d2b565b508315610def5760405162461bcd60e51b815260206004820181905260248201527f537472696e67733a20686578206c656e67746820696e73756666696369656e746044820152606401610463565b9392505050565b803b610e5a5760405162461bcd60e51b815260206004820152602d60248201527f455243313936373a206e657720696d706c656d656e746174696f6e206973206e60448201526c1bdd08184818dbdb9d1c9858dd609a1b6064820152608401610463565b7f360894a13ba1a3210667c828492db98dca3e2076cc3735a920a3ca505d382bbc80546001600160a01b0319166001600160a01b0392909216919091179055565b6060823b610efa5760405162461bcd60e51b815260206004820152602660248201527f416464726573733a2064656c65676174652063616c6c20746f206e6f6e2d636f6044820152651b9d1c9858dd60d21b6064820152608401610463565b600080846001600160a01b031684604051610f159190611358565b600060405180830381855af49150503d8060008114610f50576040519150601f19603f3d011682016040523d82523d6000602084013e610f55565b606091505b509150915061083182826040518060600160405280602781526020016114af60279139611025565b610f8681610df6565b6040516001600160a01b038216907fbc7cd75a20ee27fd9adebab32041f755214dbc6bffa90cc0225b39da2e5c2d3b90600090a250565b600054610100900460ff16610fe45760405162461bcd60e51b815260040161046390611463565b610fec61105e565b610ff461105e565b565b600054610100900460ff1661101d5760405162461bcd60e51b815260040161046390611463565b610fe461105e565b60608315611034575081610def565b8251156110445782518084602001fd5b8160405162461bcd60e51b81526004016104639190611124565b600054610100900460ff16610ff45760405162461bcd60e51b815260040161046390611463565b60006020828403121561109757600080fd5b81356001600160e01b031981168114610def57600080fd5b6000602082840312156110c157600080fd5b5035919050565b60005b838110156110e35781810151838201526020016110cb565b838111156110f2576000848401525b50505050565b600081518084526111108160208601602086016110c8565b601f01601f19169290920160200192915050565b602081526000610def60208301846110f8565b80356001600160a01b038116811461114e57600080fd5b919050565b6000806040838503121561116657600080fd5b8235915061117660208401611137565b90509250929050565b60006020828403121561119157600080fd5b610def82611137565b634e487b7160e01b600052604160045260246000fd5b600080604083850312156111c357600080fd5b6111cc83611137565b9150602083013567ffffffffffffffff808211156111e957600080fd5b818501915085601f8301126111fd57600080fd5b81358181111561120f5761120f61119a565b604051601f8201601f19908116603f011681019083821181831017156112375761123761119a565b8160405282815288602084870101111561125057600080fd5b8260208601602083013760006020848301015280955050505050509250929050565b60008060006060848603121561128757600080fd5b505081359360208301359350604090920135919050565b600080604083850312156112b157600080fd5b50508035926020909101359150565b6020808252602c908201527f46756e6374696f6e206d7573742062652063616c6c6564207468726f7567682060408201526b19195b1959d85d1958d85b1b60a21b606082015260800190565b6020808252602c908201527f46756e6374696f6e206d7573742062652063616c6c6564207468726f7567682060408201526b6163746976652070726f787960a01b606082015260800190565b6000825161136a8184602087016110c8565b9190910192915050565b7f416363657373436f6e74726f6c3a206163636f756e74200000000000000000008152600083516113ac8160178501602088016110c8565b7001034b99036b4b9b9b4b733903937b6329607d1b60179184019182015283516113dd8160288401602088016110c8565b01602801949350505050565b634e487b7160e01b600052601160045260246000fd5b6000816000190483118215151615611419576114196113e9565b500290565b60008219821115611431576114316113e9565b500190565b634e487b7160e01b600052603260045260246000fd5b60008161145b5761145b6113e9565b506000190190565b6020808252602b908201527f496e697469616c697a61626c653a20636f6e7472616374206973206e6f74206960408201526a6e697469616c697a696e6760a81b60608201526080019056fe416464726573733a206c6f772d6c6576656c2064656c65676174652063616c6c206661696c6564a2646970667358221220590e9a49d1fdbf8431fadc71215f679f6731829c6bfae88b30c4c2dd11c4b14164736f6c634300080a0033",
    "linkReferences": {}
  },
  "methodIdentifiers": {
    "DEFAULT_ADMIN_ROLE()": "a217fddf",
    "PAUSE_ROLE()": "389ed267",
    "adminDelegatecall(address,bytes)": "b8e9744c",
    "adminPause(uint256)": "2692c59f",
    "adminSstore(uint256,uint256)": "be831a2e",
    "adminSstoreWithMask(uint256,uint256,uint256)": "6c4624c3",
    "changeMe()": "2711b8a5",
    "getRoleAdmin(bytes32)": "248a9ca3",
    "getSignatureForTokenMinting()": "2c1fafca",
    "grantRole(bytes32,address)": "2f2ff15d",
    "hasRole(bytes32,address)": "91d14854",
    "initialize(uint256)": "fe4b84df",
    "pauseMe()": "182a80ea",
    "paused()": "5c975abb",
    "renounceRole(bytes32,address)": "36568abe",
    "revokeRole(bytes32,address)": "d547741f",
    "supportsInterface(bytes4)": "01ffc9a7",
    "upgradeTo(address)": "3659cfe6",
    "upgradeToAndCall(address,bytes)": "4f1ef286"
  },
  "id": 4
}