{
  "abi": [
    {
      "inputs": [],
      "name": "name",
      "outputs": [
        {
          "internalType": "string",
          "name": "",
          "type": "string"
        }
      ],
      "stateMutability": "view",
      "type": "function"
    },
    {
      "inputs": [],
      "name": "sender",
      "outputs": [
        {
          "internalType": "address",
          "name": "",
          "type": "address"
        }
      ],
      "stateMutability": "view",
      "type": "function"
    },
    {
      "inputs": [
        {
          "internalType": "string",
          "name": "_nameTarget",
          "type": "string"
        }
      ],
      "name": "targetFunction",
      "outputs": [],
      "stateMutability": "payable",
      "type": "function"
    },
    {
      "inputs": [],
      "name": "value",
      "outputs": [
        {
          "internalType": "uint256",
          "name": "",
          "type": "uint256"
        }
      ],
      "stateMutability": "view",
      "type": "function"
    }
  ],
  "bytecode": {
    "object": "0x608060405234801561001057600080fd5b506103c1806100206000396000f3fe60806040526004361061003f5760003560e01c806306fdde031461004457806336c80bf51461006f5780633fa4f2451461008457806367e404ce146100a8575b600080fd5b34801561005057600080fd5b506100596100e0565b6040516100669190610234565b60405180910390f35b61008261007d36600461029f565b61016e565b005b34801561009057600080fd5b5061009a60005481565b604051908152602001610066565b3480156100b457600080fd5b506001546100c8906001600160a01b031681565b6040516001600160a01b039091168152602001610066565b600280546100ed90610350565b80601f016020809104026020016040519081016040528092919081815260200182805461011990610350565b80156101665780601f1061013b57610100808354040283529160200191610166565b820191906000526020600020905b81548152906001019060200180831161014957829003601f168201915b505050505081565b34600055600180546001600160a01b03191633179055805161019790600290602084019061019b565b5050565b8280546101a790610350565b90600052602060002090601f0160209004810192826101c9576000855561020f565b82601f106101e257805160ff191683800117855561020f565b8280016001018555821561020f579182015b8281111561020f5782518255916020019190600101906101f4565b5061021b92915061021f565b5090565b5b8082111561021b5760008155600101610220565b600060208083528351808285015260005b8181101561026157858101830151858201604001528201610245565b81811115610273576000604083870101525b50601f01601f1916929092016040019392505050565b634e487b7160e01b600052604160045260246000fd5b6000602082840312156102b157600080fd5b813567ffffffffffffffff808211156102c957600080fd5b818401915084601f8301126102dd57600080fd5b8135818111156102ef576102ef610289565b604051601f8201601f19908116603f0116810190838211818310171561031757610317610289565b8160405282815287602084870101111561033057600080fd5b826020860160208301376000928101602001929092525095945050505050565b600181811c9082168061036457607f821691505b6020821081141561038557634e487b7160e01b600052602260045260246000fd5b5091905056fea26469706673582212202910793c3d5d0e7ff04563c15104ca90f7d1ecbc6d5e9a88733c018a7dab136d64736f6c634300080a0033",
    "linkReferences": {}
  },
  "methodIdentifiers": {
    "name()": "06fdde03",
    "sender()": "67e404ce",
    "targetFunction(string)": "36c80bf5",
    "value()": "3fa4f245"
  },
  "id": 4
}