{
  "abi": [
    {
      "anonymous": false,
      "inputs": [
        {
          "indexed": false,
          "internalType": "address",
          "name": "previousAdmin",
          "type": "address"
        },
        {
          "indexed": false,
          "internalType": "address",
          "name": "newAdmin",
          "type": "address"
        }
      ],
      "name": "AdminChanged",
      "type": "event"
    },
    {
      "anonymous": false,
      "inputs": [
        {
          "indexed": true,
          "internalType": "address",
          "name": "beacon",
          "type": "address"
        }
      ],
      "name": "BeaconUpgraded",
      "type": "event"
    },
    {
      "anonymous": false,
      "inputs": [
        {
          "indexed": true,
          "internalType": "uint256",
          "name": "streamId",
          "type": "uint256"
        },
        {
          "indexed": true,
          "internalType": "address",
          "name": "user",
          "type": "address"
        },
        {
          "indexed": false,
          "internalType": "uint256",
          "name": "amount",
          "type": "uint256"
        }
      ],
      "name": "Pending",
      "type": "event"
    },
    {
      "anonymous": false,
      "inputs": [
        {
          "indexed": true,
          "internalType": "uint256",
          "name": "streamId",
          "type": "uint256"
        },
        {
          "indexed": true,
          "internalType": "address",
          "name": "user",
          "type": "address"
        },
        {
          "indexed": false,
          "internalType": "uint256",
          "name": "amount",
          "type": "uint256"
        }
      ],
      "name": "Released",
      "type": "event"
    },
    {
      "anonymous": false,
      "inputs": [
        {
          "indexed": true,
          "internalType": "bytes32",
          "name": "role",
          "type": "bytes32"
        },
        {
          "indexed": true,
          "internalType": "bytes32",
          "name": "previousAdminRole",
          "type": "bytes32"
        },
        {
          "indexed": true,
          "internalType": "bytes32",
          "name": "newAdminRole",
          "type": "bytes32"
        }
      ],
      "name": "RoleAdminChanged",
      "type": "event"
    },
    {
      "anonymous": false,
      "inputs": [
        {
          "indexed": true,
          "internalType": "bytes32",
          "name": "role",
          "type": "bytes32"
        },
        {
          "indexed": true,
          "internalType": "address",
          "name": "account",
          "type": "address"
        },
        {
          "indexed": true,
          "internalType": "address",
          "name": "sender",
          "type": "address"
        }
      ],
      "name": "RoleGranted",
      "type": "event"
    },
    {
      "anonymous": false,
      "inputs": [
        {
          "indexed": true,
          "internalType": "bytes32",
          "name": "role",
          "type": "bytes32"
        },
        {
          "indexed": true,
          "internalType": "address",
          "name": "account",
          "type": "address"
        },
        {
          "indexed": true,
          "internalType": "address",
          "name": "sender",
          "type": "address"
        }
      ],
      "name": "RoleRevoked",
      "type": "event"
    },
    {
      "anonymous": false,
      "inputs": [
        {
          "indexed": true,
          "internalType": "address",
          "name": "user",
          "type": "address"
        },
        {
          "indexed": false,
          "internalType": "uint256",
          "name": "amount",
          "type": "uint256"
        },
        {
          "indexed": false,
          "internalType": "uint256",
          "name": "shares",
          "type": "uint256"
        }
      ],
      "name": "Staked",
      "type": "event"
    },
    {
      "anonymous": false,
      "inputs": [
        {
          "indexed": true,
          "internalType": "uint256",
          "name": "streamId",
          "type": "uint256"
        },
        {
          "indexed": true,
          "internalType": "address",
          "name": "owner",
          "type": "address"
        },
        {
          "indexed": true,
          "internalType": "address",
          "name": "token",
          "type": "address"
        },
        {
          "indexed": false,
          "internalType": "uint256",
          "name": "tokenAmount",
          "type": "uint256"
        },
        {
          "indexed": false,
          "internalType": "uint256",
          "name": "auroraAmount",
          "type": "uint256"
        }
      ],
      "name": "StreamCreated",
      "type": "event"
    },
    {
      "anonymous": false,
      "inputs": [
        {
          "indexed": true,
          "internalType": "uint256",
          "name": "streamId",
          "type": "uint256"
        },
        {
          "indexed": true,
          "internalType": "address",
          "name": "owner",
          "type": "address"
        },
        {
          "indexed": false,
          "internalType": "uint256",
          "name": "amount",
          "type": "uint256"
        }
      ],
      "name": "StreamOwnerRewardReleased",
      "type": "event"
    },
    {
      "anonymous": false,
      "inputs": [
        {
          "indexed": true,
          "internalType": "uint256",
          "name": "streamId",
          "type": "uint256"
        },
        {
          "indexed": true,
          "internalType": "address",
          "name": "owner",
          "type": "address"
        },
        {
          "indexed": true,
          "internalType": "address",
          "name": "token",
          "type": "address"
        }
      ],
      "name": "StreamProposalCancelled",
      "type": "event"
    },
    {
      "anonymous": false,
      "inputs": [
        {
          "indexed": true,
          "internalType": "uint256",
          "name": "streamId",
          "type": "uint256"
        },
        {
          "indexed": true,
          "internalType": "address",
          "name": "owner",
          "type": "address"
        },
        {
          "indexed": true,
          "internalType": "address",
          "name": "token",
          "type": "address"
        },
        {
          "indexed": false,
          "internalType": "uint256",
          "name": "maxDepositAmount",
          "type": "uint256"
        },
        {
          "indexed": false,
          "internalType": "uint256",
          "name": "auroraDepositAmount",
          "type": "uint256"
        }
      ],
      "name": "StreamProposed",
      "type": "event"
    },
    {
      "anonymous": false,
      "inputs": [
        {
          "indexed": true,
          "internalType": "uint256",
          "name": "streamId",
          "type": "uint256"
        },
        {
          "indexed": true,
          "internalType": "address",
          "name": "owner",
          "type": "address"
        },
        {
          "indexed": true,
          "internalType": "address",
          "name": "token",
          "type": "address"
        }
      ],
      "name": "StreamRemoved",
      "type": "event"
    },
    {
      "anonymous": false,
      "inputs": [
        {
          "indexed": true,
          "internalType": "address",
          "name": "user",
          "type": "address"
        },
        {
          "indexed": false,
          "internalType": "uint256",
          "name": "amount",
          "type": "uint256"
        }
      ],
      "name": "Unstaked",
      "type": "event"
    },
    {
      "anonymous": false,
      "inputs": [
        {
          "indexed": true,
          "internalType": "address",
          "name": "implementation",
          "type": "address"
        }
      ],
      "name": "Upgraded",
      "type": "event"
    },
    {
      "inputs": [],
      "name": "AIRDROP_ROLE",
      "outputs": [
        {
          "internalType": "bytes32",
          "name": "",
          "type": "bytes32"
        }
      ],
      "stateMutability": "view",
      "type": "function"
    },
    {
      "inputs": [],
      "name": "CLAIM_ROLE",
      "outputs": [
        {
          "internalType": "bytes32",
          "name": "",
          "type": "bytes32"
        }
      ],
      "stateMutability": "view",
      "type": "function"
    },
    {
      "inputs": [],
      "name": "DEFAULT_ADMIN_ROLE",
      "outputs": [
        {
          "internalType": "bytes32",
          "name": "",
          "type": "bytes32"
        }
      ],
      "stateMutability": "view",
      "type": "function"
    },
    {
      "inputs": [],
      "name": "FOUR_YEARS",
      "outputs": [
        {
          "internalType": "uint256",
          "name": "",
          "type": "uint256"
        }
      ],
      "stateMutability": "view",
      "type": "function"
    },
    {
      "inputs": [],
      "name": "ONE_MONTH",
      "outputs": [
        {
          "internalType": "uint256",
          "name": "",
          "type": "uint256"
        }
      ],
      "stateMutability": "view",
      "type": "function"
    },
    {
      "inputs": [],
      "name": "PAUSE_ROLE",
      "outputs": [
        {
          "internalType": "bytes32",
          "name": "",
          "type": "bytes32"
        }
      ],
      "stateMutability": "view",
      "type": "function"
    },
    {
      "inputs": [],
      "name": "STREAM_MANAGER_ROLE",
      "outputs": [
        {
          "internalType": "bytes32",
          "name": "",
          "type": "bytes32"
        }
      ],
      "stateMutability": "view",
      "type": "function"
    },
    {
      "inputs": [
        {
          "internalType": "address",
          "name": "target",
          "type": "address"
        },
        {
          "internalType": "bytes",
          "name": "data",
          "type": "bytes"
        }
      ],
      "name": "adminDelegatecall",
      "outputs": [
        {
          "internalType": "bytes",
          "name": "",
          "type": "bytes"
        }
      ],
      "stateMutability": "payable",
      "type": "function"
    },
    {
      "inputs": [
        {
          "internalType": "uint256",
          "name": "flags",
          "type": "uint256"
        }
      ],
      "name": "adminPause",
      "outputs": [],
      "stateMutability": "nonpayable",
      "type": "function"
    },
    {
      "inputs": [
        {
          "internalType": "uint256",
          "name": "key",
          "type": "uint256"
        },
        {
          "internalType": "uint256",
          "name": "value",
          "type": "uint256"
        }
      ],
      "name": "adminSstore",
      "outputs": [],
      "stateMutability": "nonpayable",
      "type": "function"
    },
    {
      "inputs": [
        {
          "internalType": "uint256",
          "name": "key",
          "type": "uint256"
        },
        {
          "internalType": "uint256",
          "name": "value",
          "type": "uint256"
        },
        {
          "internalType": "uint256",
          "name": "mask",
          "type": "uint256"
        }
      ],
      "name": "adminSstoreWithMask",
      "outputs": [],
      "stateMutability": "nonpayable",
      "type": "function"
    },
    {
      "inputs": [],
      "name": "auroraToken",
      "outputs": [
        {
          "internalType": "address",
          "name": "",
          "type": "address"
        }
      ],
      "stateMutability": "view",
      "type": "function"
    },
    {
      "inputs": [
        {
          "internalType": "address",
          "name": "account",
          "type": "address"
        },
        {
          "internalType": "uint256[]",
          "name": "streamIds",
          "type": "uint256[]"
        }
      ],
      "name": "batchClaimOnBehalfOfAnotherUser",
      "outputs": [],
      "stateMutability": "nonpayable",
      "type": "function"
    },
    {
      "inputs": [
        {
          "internalType": "address[]",
          "name": "accounts",
          "type": "address[]"
        },
        {
          "internalType": "uint256[]",
          "name": "streamIds",
          "type": "uint256[]"
        }
      ],
      "name": "batchClaimOnBehalfOfOtherUsers",
      "outputs": [],
      "stateMutability": "nonpayable",
      "type": "function"
    },
    {
      "inputs": [
        {
          "internalType": "uint256[]",
          "name": "streamIds",
          "type": "uint256[]"
        }
      ],
      "name": "batchMoveRewardsToPending",
      "outputs": [],
      "stateMutability": "nonpayable",
      "type": "function"
    },
    {
      "inputs": [
        {
          "internalType": "uint256[]",
          "name": "streamIds",
          "type": "uint256[]"
        }
      ],
      "name": "batchWithdraw",
      "outputs": [],
      "stateMutability": "nonpayable",
      "type": "function"
    },
    {
      "inputs": [
        {
          "internalType": "uint256",
          "name": "streamId",
          "type": "uint256"
        }
      ],
      "name": "cancelStreamProposal",
      "outputs": [],
      "stateMutability": "nonpayable",
      "type": "function"
    },
    {
      "inputs": [
        {
          "internalType": "address",
          "name": "account",
          "type": "address"
        }
      ],
      "name": "claimAllOnBehalfOfAnotherUser",
      "outputs": [],
      "stateMutability": "nonpayable",
      "type": "function"
    },
    {
      "inputs": [
        {
          "internalType": "address[]",
          "name": "accounts",
          "type": "address[]"
        }
      ],
      "name": "claimAllOnBehalfOfOtherUsers",
      "outputs": [],
      "stateMutability": "nonpayable",
      "type": "function"
    },
    {
      "inputs": [
        {
          "internalType": "address",
          "name": "account",
          "type": "address"
        },
        {
          "internalType": "uint256",
          "name": "streamId",
          "type": "uint256"
        }
      ],
      "name": "claimOnBehalfOfAnotherUser",
      "outputs": [],
      "stateMutability": "nonpayable",
      "type": "function"
    },
    {
      "inputs": [
        {
          "internalType": "uint256",
          "name": "streamId",
          "type": "uint256"
        },
        {
          "internalType": "uint256",
          "name": "rewardTokenAmount",
          "type": "uint256"
        }
      ],
      "name": "createStream",
      "outputs": [],
      "stateMutability": "nonpayable",
      "type": "function"
    },
    {
      "inputs": [
        {
          "internalType": "uint256",
          "name": "streamId",
          "type": "uint256"
        },
        {
          "internalType": "address",
          "name": "account",
          "type": "address"
        }
      ],
      "name": "getAmountOfShares",
      "outputs": [
        {
          "internalType": "uint256",
          "name": "",
          "type": "uint256"
        }
      ],
      "stateMutability": "view",
      "type": "function"
    },
    {
      "inputs": [
        {
          "internalType": "uint256",
          "name": "streamId",
          "type": "uint256"
        }
      ],
      "name": "getLatestRewardPerShare",
      "outputs": [
        {
          "internalType": "uint256",
          "name": "",
          "type": "uint256"
        }
      ],
      "stateMutability": "view",
      "type": "function"
    },
    {
      "inputs": [
        {
          "internalType": "uint256",
          "name": "streamId",
          "type": "uint256"
        },
        {
          "internalType": "address",
          "name": "account",
          "type": "address"
        }
      ],
      "name": "getPending",
      "outputs": [
        {
          "internalType": "uint256",
          "name": "",
          "type": "uint256"
        }
      ],
      "stateMutability": "view",
      "type": "function"
    },
    {
      "inputs": [
        {
          "internalType": "uint256",
          "name": "streamId",
          "type": "uint256"
        },
        {
          "internalType": "address",
          "name": "account",
          "type": "address"
        }
      ],
      "name": "getReleaseTime",
      "outputs": [
        {
          "internalType": "uint256",
          "name": "",
          "type": "uint256"
        }
      ],
      "stateMutability": "view",
      "type": "function"
    },
    {
      "inputs": [
        {
          "internalType": "uint256",
          "name": "streamId",
          "type": "uint256"
        }
      ],
      "name": "getRewardPerShare",
      "outputs": [
        {
          "internalType": "uint256",
          "name": "",
          "type": "uint256"
        }
      ],
      "stateMutability": "view",
      "type": "function"
    },
    {
      "inputs": [
        {
          "internalType": "uint256",
          "name": "streamId",
          "type": "uint256"
        },
        {
          "internalType": "address",
          "name": "account",
          "type": "address"
        }
      ],
      "name": "getRewardPerShareForUser",
      "outputs": [
        {
          "internalType": "uint256",
          "name": "",
          "type": "uint256"
        }
      ],
      "stateMutability": "view",
      "type": "function"
    },
    {
      "inputs": [
        {
          "internalType": "uint256",
          "name": "streamId",
          "type": "uint256"
        },
        {
          "internalType": "uint256",
          "name": "lastUpdate",
          "type": "uint256"
        }
      ],
      "name": "getRewardsAmount",
      "outputs": [
        {
          "internalType": "uint256",
          "name": "",
          "type": "uint256"
        }
      ],
      "stateMutability": "view",
      "type": "function"
    },
    {
      "inputs": [
        {
          "internalType": "bytes32",
          "name": "role",
          "type": "bytes32"
        }
      ],
      "name": "getRoleAdmin",
      "outputs": [
        {
          "internalType": "bytes32",
          "name": "",
          "type": "bytes32"
        }
      ],
      "stateMutability": "view",
      "type": "function"
    },
    {
      "inputs": [
        {
          "internalType": "uint256",
          "name": "streamId",
          "type": "uint256"
        }
      ],
      "name": "getStream",
      "outputs": [
        {
          "internalType": "address",
          "name": "streamOwner",
          "type": "address"
        },
        {
          "internalType": "address",
          "name": "rewardToken",
          "type": "address"
        },
        {
          "internalType": "uint256",
          "name": "auroraDepositAmount",
          "type": "uint256"
        },
        {
          "internalType": "uint256",
          "name": "auroraClaimedAmount",
          "type": "uint256"
        },
        {
          "internalType": "uint256",
          "name": "rewardDepositAmount",
          "type": "uint256"
        },
        {
          "internalType": "uint256",
          "name": "rewardClaimedAmount",
          "type": "uint256"
        },
        {
          "internalType": "uint256",
          "name": "maxDepositAmount",
          "type": "uint256"
        },
        {
          "internalType": "uint256",
          "name": "lastTimeOwnerClaimed",
          "type": "uint256"
        },
        {
          "internalType": "uint256",
          "name": "rps",
          "type": "uint256"
        },
        {
          "internalType": "uint256",
          "name": "tau",
          "type": "uint256"
        },
        {
          "internalType": "enum JetStakingV1.StreamStatus",
          "name": "status",
          "type": "uint8"
        }
      ],
      "stateMutability": "view",
      "type": "function"
    },
    {
      "inputs": [
        {
          "internalType": "uint256",
          "name": "streamId",
          "type": "uint256"
        },
        {
          "internalType": "address",
          "name": "account",
          "type": "address"
        }
      ],
      "name": "getStreamClaimableAmount",
      "outputs": [
        {
          "internalType": "uint256",
          "name": "",
          "type": "uint256"
        }
      ],
      "stateMutability": "view",
      "type": "function"
    },
    {
      "inputs": [
        {
          "internalType": "uint256",
          "name": "streamId",
          "type": "uint256"
        }
      ],
      "name": "getStreamOwnerClaimableAmount",
      "outputs": [
        {
          "internalType": "uint256",
          "name": "",
          "type": "uint256"
        }
      ],
      "stateMutability": "view",
      "type": "function"
    },
    {
      "inputs": [
        {
          "internalType": "uint256",
          "name": "streamId",
          "type": "uint256"
        }
      ],
      "name": "getStreamSchedule",
      "outputs": [
        {
          "internalType": "uint256[]",
          "name": "scheduleTimes",
          "type": "uint256[]"
        },
        {
          "internalType": "uint256[]",
          "name": "scheduleRewards",
          "type": "uint256[]"
        }
      ],
      "stateMutability": "view",
      "type": "function"
    },
    {
      "inputs": [],
      "name": "getStreamsCount",
      "outputs": [
        {
          "internalType": "uint256",
          "name": "",
          "type": "uint256"
        }
      ],
      "stateMutability": "view",
      "type": "function"
    },
    {
      "inputs": [],
      "name": "getTotalAmountOfStakedAurora",
      "outputs": [
        {
          "internalType": "uint256",
          "name": "",
          "type": "uint256"
        }
      ],
      "stateMutability": "view",
      "type": "function"
    },
    {
      "inputs": [
        {
          "internalType": "address",
          "name": "token",
          "type": "address"
        }
      ],
      "name": "getTreasuryBalance",
      "outputs": [
        {
          "internalType": "uint256",
          "name": "",
          "type": "uint256"
        }
      ],
      "stateMutability": "view",
      "type": "function"
    },
    {
      "inputs": [
        {
          "internalType": "address",
          "name": "account",
          "type": "address"
        }
      ],
      "name": "getUserShares",
      "outputs": [
        {
          "internalType": "uint256",
          "name": "",
          "type": "uint256"
        }
      ],
      "stateMutability": "view",
      "type": "function"
    },
    {
      "inputs": [
        {
          "internalType": "address",
          "name": "account",
          "type": "address"
        }
      ],
      "name": "getUserTotalDeposit",
      "outputs": [
        {
          "internalType": "uint256",
          "name": "",
          "type": "uint256"
        }
      ],
      "stateMutability": "view",
      "type": "function"
    },
    {
      "inputs": [
        {
          "internalType": "bytes32",
          "name": "role",
          "type": "bytes32"
        },
        {
          "internalType": "address",
          "name": "account",
          "type": "address"
        }
      ],
      "name": "grantRole",
      "outputs": [],
      "stateMutability": "nonpayable",
      "type": "function"
    },
    {
      "inputs": [
        {
          "internalType": "bytes32",
          "name": "role",
          "type": "bytes32"
        },
        {
          "internalType": "address",
          "name": "account",
          "type": "address"
        }
      ],
      "name": "hasRole",
      "outputs": [
        {
          "internalType": "bool",
          "name": "",
          "type": "bool"
        }
      ],
      "stateMutability": "view",
      "type": "function"
    },
    {
      "inputs": [
        {
          "internalType": "address",
          "name": "aurora",
          "type": "address"
        },
        {
          "internalType": "address",
          "name": "streamOwner",
          "type": "address"
        },
        {
          "internalType": "uint256[]",
          "name": "scheduleTimes",
          "type": "uint256[]"
        },
        {
          "internalType": "uint256[]",
          "name": "scheduleRewards",
          "type": "uint256[]"
        },
        {
          "internalType": "uint256",
          "name": "tauAuroraStream",
          "type": "uint256"
        },
        {
          "internalType": "uint256",
          "name": "_flags",
          "type": "uint256"
        },
        {
          "internalType": "address",
          "name": "_treasury",
          "type": "address"
        },
        {
          "internalType": "uint256",
          "name": "_maxWeight",
          "type": "uint256"
        },
        {
          "internalType": "uint256",
          "name": "_minWeight",
          "type": "uint256"
        }
      ],
      "name": "initialize",
      "outputs": [],
      "stateMutability": "nonpayable",
      "type": "function"
    },
    {
      "inputs": [],
      "name": "maxWeight",
      "outputs": [
        {
          "internalType": "uint256",
          "name": "",
          "type": "uint256"
        }
      ],
      "stateMutability": "view",
      "type": "function"
    },
    {
      "inputs": [],
      "name": "minWeight",
      "outputs": [
        {
          "internalType": "uint256",
          "name": "",
          "type": "uint256"
        }
      ],
      "stateMutability": "view",
      "type": "function"
    },
    {
      "inputs": [],
      "name": "moveAllRewardsToPending",
      "outputs": [],
      "stateMutability": "nonpayable",
      "type": "function"
    },
    {
      "inputs": [
        {
          "internalType": "uint256",
          "name": "streamId",
          "type": "uint256"
        }
      ],
      "name": "moveRewardsToPending",
      "outputs": [],
      "stateMutability": "nonpayable",
      "type": "function"
    },
    {
      "inputs": [],
      "name": "paused",
      "outputs": [
        {
          "internalType": "uint256",
          "name": "",
          "type": "uint256"
        }
      ],
      "stateMutability": "view",
      "type": "function"
    },
    {
      "inputs": [
        {
          "internalType": "address",
          "name": "streamOwner",
          "type": "address"
        },
        {
          "internalType": "address",
          "name": "rewardToken",
          "type": "address"
        },
        {
          "internalType": "uint256",
          "name": "auroraDepositAmount",
          "type": "uint256"
        },
        {
          "internalType": "uint256",
          "name": "maxDepositAmount",
          "type": "uint256"
        },
        {
          "internalType": "uint256",
          "name": "minDepositAmount",
          "type": "uint256"
        },
        {
          "internalType": "uint256[]",
          "name": "scheduleTimes",
          "type": "uint256[]"
        },
        {
          "internalType": "uint256[]",
          "name": "scheduleRewards",
          "type": "uint256[]"
        },
        {
          "internalType": "uint256",
          "name": "tau",
          "type": "uint256"
        }
      ],
      "name": "proposeStream",
      "outputs": [],
      "stateMutability": "nonpayable",
      "type": "function"
    },
    {
      "inputs": [
        {
          "internalType": "uint256",
          "name": "streamId",
          "type": "uint256"
        }
      ],
      "name": "releaseAuroraRewardsToStreamOwner",
      "outputs": [],
      "stateMutability": "nonpayable",
      "type": "function"
    },
    {
      "inputs": [
        {
          "internalType": "uint256",
          "name": "streamId",
          "type": "uint256"
        },
        {
          "internalType": "address",
          "name": "streamFundReceiver",
          "type": "address"
        }
      ],
      "name": "removeStream",
      "outputs": [],
      "stateMutability": "nonpayable",
      "type": "function"
    },
    {
      "inputs": [
        {
          "internalType": "bytes32",
          "name": "role",
          "type": "bytes32"
        },
        {
          "internalType": "address",
          "name": "account",
          "type": "address"
        }
      ],
      "name": "renounceRole",
      "outputs": [],
      "stateMutability": "nonpayable",
      "type": "function"
    },
    {
      "inputs": [
        {
          "internalType": "bytes32",
          "name": "role",
          "type": "bytes32"
        },
        {
          "internalType": "address",
          "name": "account",
          "type": "address"
        }
      ],
      "name": "revokeRole",
      "outputs": [],
      "stateMutability": "nonpayable",
      "type": "function"
    },
    {
      "inputs": [
        {
          "internalType": "uint256",
          "name": "streamId",
          "type": "uint256"
        },
        {
          "internalType": "uint256",
          "name": "start",
          "type": "uint256"
        },
        {
          "internalType": "uint256",
          "name": "end",
          "type": "uint256"
        }
      ],
      "name": "rewardsSchedule",
      "outputs": [
        {
          "internalType": "uint256",
          "name": "",
          "type": "uint256"
        }
      ],
      "stateMutability": "view",
      "type": "function"
    },
    {
      "inputs": [
        {
          "internalType": "uint256",
          "name": "amount",
          "type": "uint256"
        }
      ],
      "name": "stake",
      "outputs": [],
      "stateMutability": "nonpayable",
      "type": "function"
    },
    {
      "inputs": [
        {
          "internalType": "address",
          "name": "account",
          "type": "address"
        },
        {
          "internalType": "uint256",
          "name": "amount",
          "type": "uint256"
        }
      ],
      "name": "stakeOnBehalfOfAnotherUser",
      "outputs": [],
      "stateMutability": "nonpayable",
      "type": "function"
    },
    {
      "inputs": [
        {
          "internalType": "address[]",
          "name": "accounts",
          "type": "address[]"
        },
        {
          "internalType": "uint256[]",
          "name": "amounts",
          "type": "uint256[]"
        },
        {
          "internalType": "uint256",
          "name": "batchAmount",
          "type": "uint256"
        }
      ],
      "name": "stakeOnBehalfOfOtherUsers",
      "outputs": [],
      "stateMutability": "nonpayable",
      "type": "function"
    },
    {
      "inputs": [
        {
          "internalType": "uint256",
          "name": "streamId",
          "type": "uint256"
        },
        {
          "internalType": "uint256",
          "name": "start",
          "type": "uint256"
        },
        {
          "internalType": "uint256",
          "name": "end",
          "type": "uint256"
        }
      ],
      "name": "startEndScheduleIndex",
      "outputs": [
        {
          "internalType": "uint256",
          "name": "startIndex",
          "type": "uint256"
        },
        {
          "internalType": "uint256",
          "name": "endIndex",
          "type": "uint256"
        }
      ],
      "stateMutability": "view",
      "type": "function"
    },
    {
      "inputs": [],
      "name": "storageVar",
      "outputs": [
        {
          "internalType": "uint256",
          "name": "",
          "type": "uint256"
        }
      ],
      "stateMutability": "view",
      "type": "function"
    },
    {
      "inputs": [
        {
          "internalType": "bytes4",
          "name": "interfaceId",
          "type": "bytes4"
        }
      ],
      "name": "supportsInterface",
      "outputs": [
        {
          "internalType": "bool",
          "name": "",
          "type": "bool"
        }
      ],
      "stateMutability": "view",
      "type": "function"
    },
    {
      "inputs": [],
      "name": "totalAmountOfStakedAurora",
      "outputs": [
        {
          "internalType": "uint256",
          "name": "",
          "type": "uint256"
        }
      ],
      "stateMutability": "view",
      "type": "function"
    },
    {
      "inputs": [],
      "name": "totalAuroraShares",
      "outputs": [
        {
          "internalType": "uint256",
          "name": "",
          "type": "uint256"
        }
      ],
      "stateMutability": "view",
      "type": "function"
    },
    {
      "inputs": [],
      "name": "totalStreamShares",
      "outputs": [
        {
          "internalType": "uint256",
          "name": "",
          "type": "uint256"
        }
      ],
      "stateMutability": "view",
      "type": "function"
    },
    {
      "inputs": [],
      "name": "touchedAt",
      "outputs": [
        {
          "internalType": "uint256",
          "name": "",
          "type": "uint256"
        }
      ],
      "stateMutability": "view",
      "type": "function"
    },
    {
      "inputs": [],
      "name": "treasury",
      "outputs": [
        {
          "internalType": "address",
          "name": "",
          "type": "address"
        }
      ],
      "stateMutability": "view",
      "type": "function"
    },
    {
      "inputs": [
        {
          "internalType": "uint256",
          "name": "amount",
          "type": "uint256"
        }
      ],
      "name": "unstake",
      "outputs": [],
      "stateMutability": "nonpayable",
      "type": "function"
    },
    {
      "inputs": [],
      "name": "unstakeAll",
      "outputs": [],
      "stateMutability": "nonpayable",
      "type": "function"
    },
    {
      "inputs": [
        {
          "internalType": "uint256",
          "name": "newVal",
          "type": "uint256"
        }
      ],
      "name": "updateStorageVar",
      "outputs": [],
      "stateMutability": "nonpayable",
      "type": "function"
    },
    {
      "inputs": [
        {
          "internalType": "address",
          "name": "_treasury",
          "type": "address"
        }
      ],
      "name": "updateTreasury",
      "outputs": [],
      "stateMutability": "nonpayable",
      "type": "function"
    },
    {
      "inputs": [
        {
          "internalType": "address",
          "name": "newImplementation",
          "type": "address"
        }
      ],
      "name": "upgradeTo",
      "outputs": [],
      "stateMutability": "nonpayable",
      "type": "function"
    },
    {
      "inputs": [
        {
          "internalType": "address",
          "name": "newImplementation",
          "type": "address"
        },
        {
          "internalType": "bytes",
          "name": "data",
          "type": "bytes"
        }
      ],
      "name": "upgradeToAndCall",
      "outputs": [],
      "stateMutability": "payable",
      "type": "function"
    },
    {
      "inputs": [
        {
          "internalType": "address",
          "name": "",
          "type": "address"
        }
      ],
      "name": "users",
      "outputs": [
        {
          "internalType": "uint256",
          "name": "deposit",
          "type": "uint256"
        },
        {
          "internalType": "uint256",
          "name": "auroraShares",
          "type": "uint256"
        },
        {
          "internalType": "uint256",
          "name": "streamShares",
          "type": "uint256"
        }
      ],
      "stateMutability": "view",
      "type": "function"
    },
    {
      "inputs": [
        {
          "internalType": "uint256",
          "name": "streamId",
          "type": "uint256"
        }
      ],
      "name": "withdraw",
      "outputs": [],
      "stateMutability": "nonpayable",
      "type": "function"
    },
    {
      "inputs": [],
      "name": "withdrawAll",
      "outputs": [],
      "stateMutability": "nonpayable",
      "type": "function"
    }
  ],
  "bytecode": {
    "object": "0x60a0604052306080523480156200001557600080fd5b50600054610100900460ff16620000335760005460ff16156200003d565b6200003d620000e2565b620000a55760405162461bcd60e51b815260206004820152602e60248201527f496e697469616c697a61626c653a20636f6e747261637420697320616c72656160448201526d191e481a5b9a5d1a585b1a5e995960921b606482015260840160405180910390fd5b600054610100900460ff16158015620000c8576000805461ffff19166101011790555b8015620000db576000805461ff00191690555b5062000106565b6000620000fa306200010060201b62003d1e1760201c565b15905090565b3b151590565b6080516162486200013760003960008181611cac01528181611cec0152818161257f01526125bf01526162486000f3fe60806040526004361061041b5760003560e01c80636458edd31161021e578063a217fddf11610123578063be831a2e116100ab578063d547741f1161007a578063d547741f14610d61578063d7cea15c14610d81578063e335e79a14610da2578063ee13ad8e14610db8578063fe904b7a14610dd857600080fd5b8063be831a2e14610cc7578063c892772314610ce7578063cd5ba59014610d2c578063d5050aed14610d4157600080fd5b8063a87430ba116100f2578063a87430ba14610be8578063a8b0bb8314610c40578063b8e9744c14610c57578063ba0cb22b14610c77578063bb07ec1b14610cb157600080fd5b8063a217fddf14610b5c578063a4c828dc14610b71578063a694fc3a14610ba8578063a81c6a1514610bc857600080fd5b8063853828b6116101a65780638d40bd03116101755780638d40bd0314610abc5780639040332214610adc57806391d1485414610afc578063993b21c114610b1c5780639c52a92014610b3c57600080fd5b8063853828b614610a3957806386c1b4eb14610a4e578063894e9a0d14610a705780638bc34e7714610aa757600080fd5b80636db8e53d116101ed5780636db8e53d1461097057806370bc770c1461098657806372e55399146109b45780637f37df3b146109d45780637f51bb1f14610a1957600080fd5b80636458edd3146108f9578063687dd46c146109195780636c4624c3146109395780636c827cb11461095957600080fd5b80632f2ff15d116103245780633e9a44cb116102ac57806353a4cca01161027b57806353a4cca0146108495780635578fdb21461086957806357baeac8146108a25780635c975abb146108c257806361d027b3146108d857600080fd5b80633e9a44cb146107bf5780633ea005c8146107df5780634981912e146108015780634f1ef2861461083657600080fd5b806336630cc7116102f357806336630cc7146107155780633895a27514610735578063389ed2671461074b578063396a6c141461077f5780633ba31abf1461079f57600080fd5b80632f2ff15d146106a057806335322f37146106c057806336568abe146106d55780633659cfe6146106f557600080fd5b80631fd8c5f4116103a757806326cdddb91161037657806326cdddb91461060057806327571969146106205780632ca783f3146106405780632e17de78146106605780632e1a7d4d1461068057600080fd5b80631fd8c5f41461058357806320988cef14610599578063248a9ca3146105b05780632692c59f146105e057600080fd5b80631194ebeb116103ee5780631194ebeb146104ba57806312dd67fe146104dc5780631c61e617146104fc5780631dd004521461051c5780631e0fbfa21461056157600080fd5b806301ffc9a71461042057806303687788146104555780630c2ee55e146104835780630efd83101461049a575b600080fd5b34801561042c57600080fd5b5061044061043b3660046157ab565b610df0565b60405190151581526020015b60405180910390f35b34801561046157600080fd5b506104756104703660046157d5565b610e27565b60405190815260200161044c565b34801561048f57600080fd5b506104756101035481565b3480156104a657600080fd5b506104756104b536600461581d565b611196565b3480156104c657600080fd5b506104da6104d5366004615905565b6111e2565b005b3480156104e857600080fd5b506104756104f73660046159b1565b611540565b34801561050857600080fd5b5061047561051736600461581d565b61162e565b34801561052857600080fd5b5061047561053736600461581d565b6001600160a01b031660009081526101046020908152604080832093835260059093019052205490565b34801561056d57600080fd5b506104756000805160206161f383398151915281565b34801561058f57600080fd5b5061047560fd5481565b3480156105a557600080fd5b506104756228207281565b3480156105bc57600080fd5b506104756105cb3660046159b1565b600090815260c9602052604090206001015490565b3480156105ec57600080fd5b506104da6105fb3660046159b1565b6116a6565b34801561060c57600080fd5b506104da61061b366004615a16565b61173b565b34801561062c57600080fd5b506104da61063b366004615a82565b6117ec565b34801561064c57600080fd5b506104da61065b366004615ac4565b611899565b34801561066c57600080fd5b506104da61067b3660046159b1565b611922565b34801561068c57600080fd5b506104da61069b3660046159b1565b611a40565b3480156106ac57600080fd5b506104da6106bb36600461581d565b611ae8565b3480156106cc57600080fd5b506104da611b0e565b3480156106e157600080fd5b506104da6106f036600461581d565b611c27565b34801561070157600080fd5b506104da610710366004615aee565b611ca1565b34801561072157600080fd5b50610475610730366004615b09565b611d6a565b34801561074157600080fd5b5061047560fc5481565b34801561075757600080fd5b506104757f139c2898040ef16910dc9f44dc697df79363da767d8bc92f2e310312b816e46d81565b34801561078b57600080fd5b5061047561079a3660046159b1565b611edd565b3480156107ab57600080fd5b506104da6107ba36600461581d565b611f68565b3480156107cb57600080fd5b506104da6107da366004615ac4565b61221b565b3480156107eb57600080fd5b5061047560008051602061618c83398151915281565b34801561080d57600080fd5b5061082161081c3660046157d5565b61227d565b6040805192835260208301919091520161044c565b6104da610844366004615b2b565b612574565b34801561085557600080fd5b506104da610864366004615bd1565b61262a565b34801561087557600080fd5b506101015461088a906001600160a01b031681565b6040516001600160a01b03909116815260200161044c565b3480156108ae57600080fd5b506104756108bd366004615aee565b6127c8565b3480156108ce57600080fd5b5061047560fb5481565b3480156108e457600080fd5b506101005461088a906001600160a01b031681565b34801561090557600080fd5b506104da610914366004615c45565b612839565b34801561092557600080fd5b506104da610934366004615a82565b6128a3565b34801561094557600080fd5b506104da6109543660046157d5565b6128ed565b34801561096557600080fd5b506104756101065481565b34801561097c57600080fd5b5061047560ff5481565b34801561099257600080fd5b506109a66109a13660046159b1565b612905565b60405161044c929190615cd3565b3480156109c057600080fd5b506104da6109cf366004615a82565b612a05565b3480156109e057600080fd5b506104756109ef36600461581d565b6001600160a01b031660009081526101046020908152604080832093835260039093019052205490565b348015610a2557600080fd5b506104da610a34366004615aee565b612af8565b348015610a4557600080fd5b506104da612bfd565b348015610a5a57600080fd5b506104756000805160206161d383398151915281565b348015610a7c57600080fd5b50610a90610a8b3660046159b1565b612ca1565b60405161044c9b9a99989796959493929190615d0e565b348015610ab357600080fd5b506104da612d67565b348015610ac857600080fd5b506104da610ad7366004615b09565b612daf565b348015610ae857600080fd5b506104da610af73660046159b1565b61315e565b348015610b0857600080fd5b50610440610b1736600461581d565b613277565b348015610b2857600080fd5b50610475610b373660046159b1565b6132a2565b348015610b4857600080fd5b506104da610b573660046159b1565b6132d1565b348015610b6857600080fd5b50610475600081565b348015610b7d57600080fd5b50610475610b8c366004615aee565b6001600160a01b03166000908152610104602052604090205490565b348015610bb457600080fd5b506104da610bc33660046159b1565b613546565b348015610bd457600080fd5b506104da610be3366004615d96565b6135b0565b348015610bf457600080fd5b50610c25610c03366004615aee565b6101046020526000908152604090208054600182015460029092015490919083565b6040805193845260208401929092529082015260600161044c565b348015610c4c57600080fd5b506104756101025481565b610c6a610c65366004615b2b565b613b45565b60405161044c9190615eab565b348015610c8357600080fd5b50610475610c92366004615aee565b6001600160a01b03166000908152610104602052604090206001015490565b348015610cbd57600080fd5b5061047560fe5481565b348015610cd357600080fd5b506104da610ce2366004615b09565b613c0b565b348015610cf357600080fd5b50610475610d0236600461581d565b6001600160a01b031660009081526101046020908152604080832093835260049093019052205490565b348015610d3857600080fd5b50610475613c1c565b348015610d4d57600080fd5b506104da610d5c366004615aee565b613c4e565b348015610d6d57600080fd5b506104da610d7c36600461581d565b613caf565b348015610d8d57600080fd5b506104da610d9c3660046159b1565b61010655565b348015610dae57600080fd5b5061010554610475565b348015610dc457600080fd5b506104da610dd33660046159b1565b613cd5565b348015610de457600080fd5b50610475630786156081565b60006001600160e01b03198216637965db0b60e01b1480610e2157506301ffc9a760e01b6001600160e01b03198316145b92915050565b6000806101058581548110610e3e57610e3e615ebe565b90600052602060002090600f0201600c019050600080610e5f87878761227d565b909250905060008083831415610f3e5784600101846001610e809190615eea565b81548110610e9057610e90615ebe565b9060005260206000200154856001018581548110610eb057610eb0615ebe565b9060005260206000200154610ec59190615f02565b9050846000018481548110610edc57610edc615ebe565b60009182526020909120015485610ef4866001615eea565b81548110610f0457610f04615ebe565b9060005260206000200154610f199190615f02565b610f238989615f02565b610f2d9083615f19565b610f379190615f38565b9150611188565b84600101846001610f4f9190615eea565b81548110610f5f57610f5f615ebe565b9060005260206000200154856001018581548110610f7f57610f7f615ebe565b9060005260206000200154610f949190615f02565b9050846000018481548110610fab57610fab615ebe565b60009182526020909120015485610fc3866001615eea565b81548110610fd357610fd3615ebe565b9060005260206000200154610fe89190615f02565b8886610ff5876001615eea565b8154811061100557611005615ebe565b906000526020600020015461101a9190615f02565b6110249083615f19565b61102e9190615f38565b915084600101838154811061104557611045615ebe565b9060005260206000200154856001018560016110619190615eea565b8154811061107157611071615ebe565b90600052602060002001546110869190615f02565b6110909083615eea565b9150846001018360016110a39190615eea565b815481106110b3576110b3615ebe565b90600052602060002001548560010184815481106110d3576110d3615ebe565b90600052602060002001546110e89190615f02565b90508460000183815481106110ff576110ff615ebe565b60009182526020909120015485611117856001615eea565b8154811061112757611127615ebe565b906000526020600020015461113c9190615f02565b85600001848154811061115157611151615ebe565b9060005260206000200154886111679190615f02565b6111719083615f19565b61117b9190615f38565b6111859083615eea565b91505b5093505050505b9392505050565b6000826111c057506001600160a01b03811660009081526101046020526040902060010154610e21565b506001600160a01b031660009081526101046020526040902060020154919050565b60008051602061618c8339815191526111fb8133613d24565b61120a89898888888888613d88565b61010054604051630480051d60e31b81526001600160a01b038a811660048301529091169063240028e890602401602060405180830381865afa158015611255573d6000803e3d6000fd5b505050506040513d601f19601f820116820180604052508101906112799190615f5a565b6112ca5760405162461bcd60e51b815260206004820152601f60248201527f494e56414c49445f535550504f525445445f544f4b454e5f414444524553530060448201526064015b60405180910390fd5b600060405180604001604052808681526020018581525090506000610105805490509050610105604051806101c001604052808d6001600160a01b03168152602001336001600160a01b031681526020018c6001600160a01b031681526020018b81526020016000815260200160008152602001600081526020018a81526020018981526020018860008151811061136457611364615ebe565b60200260200101518152602001868152602001600081526020018481526020016001600281111561139757611397615cf8565b905281546001808201845560009384526020938490208351600f9093020180546001600160a01b03199081166001600160a01b0394851617825584860151928201805482169385169390931790925560408401516002820180549093169316929092179055606082015160038201556080820151600482015560a0820151600582015560c0820151600682015560e0820151600782015561010082015160088201556101208201516009820155610140820151600a820155610160820151600b82015561018082015180518051939492939192600c85019261147c928492019061574b565b506020828101518051611495926001850192019061574b565b5050506101a0820151600e8201805460ff191660018360028111156114bc576114bc615cf8565b02179055505050896001600160a01b03168b6001600160a01b0316827fe843b72f047599c26dfdab8a31d1b5f353799cab6a8482518a21f1b17871dd758b8d604051611512929190918252602082015260400190565b60405180910390a461010154611533906001600160a01b031633308c61425a565b5050505050505050505050565b6000816115895760405162461bcd60e51b815260206004820152601760248201527610555493d49057d49155d0549114d7d0d3d35413d55391604a1b60448201526064016112c1565b60ff546115cd5760405162461bcd60e51b81526020600482015260126024820152715a45524f5f53545245414d5f53484152455360701b60448201526064016112c1565b60ff546c7e37be2022c0914b26800000006115ea8460fd54611d6a565b6115f49190615f19565b6115fe9190615f38565b610105838154811061161257611612615ebe565b90600052602060002090600f0201600b0154610e219190615eea565b60008061163a84611540565b6001600160a01b0384166000908152610104602090815260408083208884526005810190925290912054600282015492935090916c7e37be2022c0914b2680000000816116878487615f02565b6116919190615f19565b61169b9190615f38565b979650505050505050565b7f139c2898040ef16910dc9f44dc697df79363da767d8bc92f2e310312b816e46d6116d18133613d24565b60fb5482811614806116e957506116e9600033613277565b6117355760405162461bcd60e51b815260206004820152601e60248201527f4f4e4c595f44454641554c545f41444d494e5f43414e5f554e5041555345000060448201526064016112c1565b5060fb55565b60018060fb5416600014806117565750611756600033613277565b6117725760405162461bcd60e51b81526004016112c190615f7c565b6000805160206161d383398151915261178b8133613d24565b6117936142b2565b8460005b818110156117e2576117d08888838181106117b4576117b4615ebe565b90506020020160208101906117c99190615aee565b878761438a565b806117da81615fa8565b915050611797565b5050505050505050565b60018060fb5416600014806118075750611807600033613277565b6118235760405162461bcd60e51b81526004016112c190615f7c565b6000805160206161d383398151915261183c8133613d24565b6118446142b2565b8260005b818110156118915761187f86868381811061186557611865615ebe565b905060200201602081019061187a9190615aee565b614425565b8061188981615fa8565b915050611848565b505050505050565b60018060fb5416600014806118b457506118b4600033613277565b6118d05760405162461bcd60e51b81526004016112c190615f7c565b6000805160206161f38339815191526118e98133613d24565b6118f16142b2565b6118fb8484614494565b610100546101015461191c916001600160a01b03918216913391168661425a565b50505050565b60018060fb54166000148061193d575061193d600033613277565b6119595760405162461bcd60e51b81526004016112c190615f7c565b60fe546119a35760405162461bcd60e51b81526020600482015260186024820152775a45524f5f544f54414c5f4155524f52415f53484152455360401b60448201526064016112c1565b33600090815261010460205260409020600101546119f65760405162461bcd60e51b815260206004820152601060248201526f5a45524f5f555345525f53484152455360801b60448201526064016112c1565b6119fe6142b2565b60fe54336000908152610104602052604081206001015460fc54919291611a259190615f19565b611a2f9190615f38565b9050611a3b8382614653565b505050565b60018060fb541660001480611a5b5750611a5b600033613277565b611a775760405162461bcd60e51b81526004016112c190615f7c565b336000908152610104602090815260408083208584526004019091529020544211611adb5760405162461bcd60e51b8152602060048201526014602482015273494e56414c49445f52454c454153455f54494d4560601b60448201526064016112c1565b611ae482614850565b5050565b600082815260c96020526040902060010154611b048133613d24565b611a3b8383614945565b60018060fb541660001480611b295750611b29600033613277565b611b455760405162461bcd60e51b81526004016112c190615f7c565b60fe54611b8f5760405162461bcd60e51b81526020600482015260186024820152775a45524f5f544f54414c5f4155524f52415f53484152455360401b60448201526064016112c1565b3360009081526101046020526040902060010154611be25760405162461bcd60e51b815260206004820152601060248201526f5a45524f5f555345525f53484152455360801b60448201526064016112c1565b611bea6142b2565b60fe54336000908152610104602052604081206001015460fc54919291611c119190615f19565b611c1b9190615f38565b9050611ae48182614653565b6001600160a01b0381163314611c975760405162461bcd60e51b815260206004820152602f60248201527f416363657373436f6e74726f6c3a2063616e206f6e6c792072656e6f756e636560448201526e103937b632b9903337b91039b2b63360891b60648201526084016112c1565b611ae482826149cb565b306001600160a01b037f0000000000000000000000000000000000000000000000000000000000000000161415611cea5760405162461bcd60e51b81526004016112c190615fc3565b7f00000000000000000000000000000000000000000000000000000000000000006001600160a01b0316611d1c614a32565b6001600160a01b031614611d425760405162461bcd60e51b81526004016112c19061600f565b611d4b81614a60565b60408051600080825260208201909252611d6791839190614a6c565b50565b600042821115611db25760405162461bcd60e51b8152602060048201526013602482015272494e56414c49445f4c4153545f55504441544560681b60448201526064016112c1565b42821415611dc257506000610e21565b60006101058481548110611dd857611dd8615ebe565b90600052602060002090600f0201600c01600001600081548110611dfe57611dfe615ebe565b90600052602060002001549050804211611e1c576000915050610e21565b60006101058581548110611e3257611e32615ebe565b90600052602060002090600f0201600c0160000160016101058781548110611e5c57611e5c615ebe565b60009182526020909120600c600f909202010154611e7a9190615f02565b81548110611e8a57611e8a615ebe565b90600052602060002001549050808410611ea957600092505050610e21565b60008083861115611ebc57859150611ec0565b8391505b82421015611ecf575042611ed2565b50815b61169b878383610e27565b6000806101058381548110611ef457611ef4615ebe565b60009182526020909120600f9091020190506002600e82015460ff166002811115611f2157611f21615cf8565b14611f2f5750600092915050565b6000611f3f848360090154611d6a565b90508160050154826003015482611f569190615f19565b611f609190615f38565b949350505050565b60008051602061618c833981519152611f818133613d24565b82611fce5760405162461bcd60e51b815260206004820152601b60248201527f4155524f52415f53545245414d5f4e4f545f52454d4f5641424c45000000000060448201526064016112c1565b60006101058481548110611fe457611fe4615ebe565b60009182526020909120600f9091020190506002600e82015460ff16600281111561201157612011615cf8565b146120575760405162461bcd60e51b815260206004820152601660248201527514d51491505357d053149150511657d4915353d5915160521b60448201526064016112c1565b600e8101805460ff19169055600281015481546040516001600160a01b03928316929091169086907f661da9ced4b5d786f5b5f451a5f68af24721a01b0a65bb47fa4fdf70b80b887c90600090a46000816004015482600301546120bb9190615f02565b90506000826006015483600501546120d39190615f02565b610101549091506000906120ef906001600160a01b03166127c8565b600285015490915060009061210c906001600160a01b03166127c8565b610100546001870154610101549293506001600160a01b039182169263da0c1a88929182169116858811156121415785612143565b875b6040518463ffffffff1660e01b81526004016121619392919061605b565b600060405180830381600087803b15801561217b57600080fd5b505af115801561218f573d6000803e3d6000fd5b50506101005460028801546001600160a01b03918216935063da0c1a8892508a9116848711156121bf57846121c1565b865b6040518463ffffffff1660e01b81526004016121df9392919061605b565b600060405180830381600087803b1580156121f957600080fd5b505af115801561220d573d6000803e3d6000fd5b505050505050505050505050565b60018060fb5416600014806122365750612236600033613277565b6122525760405162461bcd60e51b81526004016112c190615f7c565b6000805160206161d383398151915261226b8133613d24565b6122736142b2565b61191c8484614bb0565b6000806000610105868154811061229657612296615ebe565b60009182526020909120600c600f90920201018054909150806122e95760405162461bcd60e51b815260206004820152600b60248201526a4e4f5f5343484544554c4560a81b60448201526064016112c1565b8585116123385760405162461bcd60e51b815260206004820152601b60248201527f494e56414c49445f5245574152445f51554552595f504552494f44000000000060448201526064016112c1565b8160000160008154811061234e5761234e615ebe565b90600052602060002001548610156123a85760405162461bcd60e51b815260206004820152601b60248201527f51554552595f4245464f52455f5343484544554c455f5354415254000000000060448201526064016112c1565b816123b4600183615f02565b815481106123c4576123c4615ebe565b906000526020600020015485111561241e5760405162461bcd60e51b815260206004820152601860248201527f51554552595f41465445525f5343484544554c455f454e44000000000000000060448201526064016112c1565b60015b818110156124745782600001818154811061243e5761243e615ebe565b90600052602060002001548710156124625761245b600182615f02565b9450612474565b8061246c81615fa8565b915050612421565b5081612481600183615f02565b8154811061249157612491615ebe565b90600052602060002001548514156124b5576124ae600282615f02565b925061251a565b60006124c2856001615eea565b90505b81811015612518578260000181815481106124e2576124e2615ebe565b9060005260206000200154861015612506576124ff600182615f02565b9350612518565b8061251081615fa8565b9150506124c5565b505b8284111561256a5760405162461bcd60e51b815260206004820152601960248201527f494e56414c49445f494e4445585f43414c43554c4154494f4e0000000000000060448201526064016112c1565b5050935093915050565b306001600160a01b037f00000000000000000000000000000000000000000000000000000000000000001614156125bd5760405162461bcd60e51b81526004016112c190615fc3565b7f00000000000000000000000000000000000000000000000000000000000000006001600160a01b03166125ef614a32565b6001600160a01b0316146126155760405162461bcd60e51b81526004016112c19061600f565b61261e82614a60565b611ae482826001614a6c565b60018060fb5416600014806126455750612645600033613277565b6126615760405162461bcd60e51b81526004016112c190615f7c565b6000805160206161f383398151915261267a8133613d24565b858481146126c15760405162461bcd60e51b81526020600482015260146024820152730929cac82989288be82a4a482b2be988a9c8ea8960631b60448201526064016112c1565b6126c96142b2565b6000805b82811015612755578787828181106126e7576126e7615ebe565b90506020020135826126f99190615eea565b91506127438a8a8381811061271057612710615ebe565b90506020020160208101906127259190615aee565b89898481811061273757612737615ebe565b90506020020135614494565b8061274d81615fa8565b9150506126cd565b5084811461279c5760405162461bcd60e51b81526020600482015260146024820152731253959053125117d0905510d217d05353d5539560621b60448201526064016112c1565b61010054610101546127bd916001600160a01b03918216913391168861425a565b505050505050505050565b610100546040516370a0823160e01b81526001600160a01b0391821660048201526000918316906370a0823190602401602060405180830381865afa158015612815573d6000803e3d6000fd5b505050506040513d601f19601f82011682018060405250810190610e21919061607f565b60018060fb5416600014806128545750612854600033613277565b6128705760405162461bcd60e51b81526004016112c190615f7c565b6000805160206161d38339815191526128898133613d24565b6128916142b2565b61289c85858561438a565b5050505050565b60018060fb5416600014806128be57506128be600033613277565b6128da5760405162461bcd60e51b81526004016112c190615f7c565b6128e26142b2565b611a3b33848461438a565b60006128f98133613d24565b50825491821816189055565b606080610105838154811061291c5761291c615ebe565b90600052602060002090600f0201600c01600001610105848154811061294457612944615ebe565b90600052602060002090600f0201600c01600101818054806020026020016040519081016040528092919081815260200182805480156129a357602002820191906000526020600020905b81548152602001906001019080831161298f575b50505050509150808054806020026020016040519081016040528092919081815260200182805480156129f557602002820191906000526020600020905b8154815260200190600101908083116129e1575b5050505050905091509150915091565b60018060fb541660001480612a205750612a20600033613277565b612a3c5760405162461bcd60e51b81526004016112c190615f7c565b33600090815261010460205260408120905b8381101561289c57816003016000868684818110612a6e57612a6e615ebe565b90506020020135815260200190815260200160002054600014158015612ac05750816004016000868684818110612aa757612aa7615ebe565b9050602002013581526020019081526020016000205442115b15612ae657612ae6858583818110612ada57612ada615ebe565b90506020020135614850565b80612af081615fa8565b915050612a4e565b6000612b048133613d24565b60fb54612b435760405162461bcd60e51b815260206004820152600d60248201526c524551554952455f504155534560981b60448201526064016112c1565b6001600160a01b038216612b8b5760405162461bcd60e51b815260206004820152600f60248201526e494e56414c49445f4144445245535360881b60448201526064016112c1565b610100546001600160a01b0383811691161415612bd95760405162461bcd60e51b815260206004820152600c60248201526b53414d455f4144445245535360a01b60448201526064016112c1565b5061010080546001600160a01b0319166001600160a01b0392909216919091179055565b60018060fb541660001480612c185750612c18600033613277565b612c345760405162461bcd60e51b81526004016112c190615f7c565b336000908152610104602052604081206101055490915b8181101561191c57600081815260038401602052604090205415801590612c815750600081815260048401602052604090205442115b15612c8f57612c8f81614850565b80612c9981615fa8565b915050612c4b565b6000806000806000806000806000806000806101058d81548110612cc757612cc7615ebe565b90600052602060002090600f020190508060000160009054906101000a90046001600160a01b03168160020160009054906101000a90046001600160a01b031682600301548360040154846005015485600601548660070154876009015488600b015489600a01548a600e0160009054906101000a900460ff169b509b509b509b509b509b509b509b509b509b509b505091939597999b90929496989a50565b60018060fb541660001480612d825750612d82600033613277565b612d9e5760405162461bcd60e51b81526004016112c190615f7c565b612da66142b2565b611d6733614425565b60018060fb541660001480612dca5750612dca600033613277565b612de65760405162461bcd60e51b81526004016112c190615f7c565b60006101058481548110612dfc57612dfc615ebe565b60009182526020909120600f9091020190506001600e82015460ff166002811115612e2957612e29615cf8565b14612e6c5760405162461bcd60e51b815260206004820152601360248201527214d51491505357d393d517d41493d413d4d151606a1b60448201526064016112c1565b80546001600160a01b03163314612ebc5760405162461bcd60e51b815260206004820152601460248201527324a72b20a624a22fa9aa2922a0a6afa7aba722a960611b60448201526064016112c1565b4281600c01600001600081548110612ed657612ed6615ebe565b90600052602060002001541015612f2f5760405162461bcd60e51b815260206004820152601760248201527f53545245414d5f50524f504f53414c5f4558504952454400000000000000000060448201526064016112c1565b8060070154831115612f755760405162461bcd60e51b815260206004820152600f60248201526e0a48aae82a488bea89e9ebe90928e9608b1b60448201526064016112c1565b8060080154831015612fba5760405162461bcd60e51b815260206004820152600e60248201526d5245574152445f544f4f5f4c4f5760901b60448201526064016112c1565b600e8101805460ff191660021790556005810183905560078101548310156130475760008160070154826003015485612ff39190615f19565b612ffd9190615f38565b905060008183600301546130119190615f02565b6003840183905590506130248686614ea4565b600183015461010154613044916001600160a01b03918216911683614fae565b50505b6002810154815460038301546040516001600160a01b0393841693929092169187917f3062262d3b7b7b5292387920111bfa3e0597dc070a8f10f1be710f15868c22e09161309d91898252602082015260400190565b60405180910390a46005810154600d820180546000906130bf576130bf615ebe565b9060005260206000200154146131175760405162461bcd60e51b815260206004820152601760248201527f494e56414c49445f5354415254494e475f52455741524400000000000000000060448201526064016112c1565b6101005460038201546101015461313c926001600160a01b0391821692911690614fae565b61010054600282015461191c916001600160a01b03918216913391168661425a565b60008051602061618c8339815191526131778133613d24565b6000610105838154811061318d5761318d615ebe565b60009182526020909120600f9091020190506001600e82015460ff1660028111156131ba576131ba615cf8565b146131fd5760405162461bcd60e51b815260206004820152601360248201527214d51491505357d393d517d41493d413d4d151606a1b60448201526064016112c1565b600e8101805460ff191690556003810180546000918290556002830154835460405192936001600160a01b0392831693929091169187917ffadbcbd495527ce5e10fd0cceba57d404a4625dd6ce0499c254ac523789ef3ad91a460018201546101015461191c916001600160a01b03918216911683614fae565b600091825260c9602090815260408084206001600160a01b0393909316845291905290205460ff1690565b600061010582815481106132b8576132b8615ebe565b90600052602060002090600f0201600b01549050919050565b60018060fb5416600014806132ec57506132ec600033613277565b6133085760405162461bcd60e51b81526004016112c190615f7c565b816133485760405162461bcd60e51b815260206004820152601060248201526f4155524f52415f53545245414d5f4e4160801b60448201526064016112c1565b6000610105838154811061335e5761335e615ebe565b60009182526020909120600f9091020180549091506001600160a01b031633146133c15760405162461bcd60e51b815260206004820152601460248201527324a72b20a624a22fa9aa2922a0a6afa7aba722a960611b60448201526064016112c1565b6002600e82015460ff1660028111156133dc576133dc615cf8565b146134295760405162461bcd60e51b815260206004820152601b60248201527f494e4143544956455f4f525f50524f504f5345445f53545245414d000000000060448201526064016112c1565b600061343484611edd565b9050600081116134755760405162461bcd60e51b815260206004820152600c60248201526b5a45524f5f5245574152445360a01b60448201526064016112c1565b428260090181905550808260040160008282546134929190615eea565b909155505081546040518281526001600160a01b039091169085907fd8dbc00678cdeb812d1660863c3d845d199d828cd02c9278b1ac8f359a1394369060200160405180910390a361010054825461010154604051631b41835160e31b81526001600160a01b039384169363da0c1a88936135189390821692911690869060040161605b565b600060405180830381600087803b15801561353257600080fd5b505af11580156117e2573d6000803e3d6000fd5b60018060fb5416600014806135615750613561600033613277565b61357d5760405162461bcd60e51b81526004016112c190615f7c565b6135856142b2565b61358f3383614494565b6101005461010154611ae4916001600160a01b03918216913391168561425a565b600054610100900460ff166135cb5760005460ff16156135cf565b303b155b6136325760405162461bcd60e51b815260206004820152602e60248201527f496e697469616c697a61626c653a20636f6e747261637420697320616c72656160448201526d191e481a5b9a5d1a585b1a5e995960921b60648201526084016112c1565b600054610100900460ff16158015613654576000805461ffff19166101011790555b8183116136955760405162461bcd60e51b815260206004820152600f60248201526e494e56414c49445f5745494748545360881b60448201526064016112c1565b6001600160a01b0384166136dd5760405162461bcd60e51b815260206004820152600f60248201526e494e56414c49445f4144445245535360881b60448201526064016112c1565b613720898b896000815181106136f5576136f5615ebe565b60200260200101518a60008151811061371057613710615ebe565b60200260200101518c8c8c613d88565b604051630480051d60e31b81526001600160a01b038b8116600483015285169063240028e890602401602060405180830381865afa158015613766573d6000803e3d6000fd5b505050506040513d601f19601f8201168201806040525081019061378a9190615f5a565b6137d65760405162461bcd60e51b815260206004820152601f60248201527f494e56414c49445f535550504f525445445f544f4b454e5f414444524553530060448201526064016112c1565b6137df85614fde565b6137f76000805160206161f383398151915233614945565b61380f6000805160206161d383398151915233614945565b61382760008051602061618c83398151915233614945565b61010080546001600160a01b038087166001600160a01b031992831617835561010180548e83169316831790556101028690556101038590556040805180820182528c815260208082018d905282516101c081018452938f1680855290840152908201929092526000606082018190526080820181905260a0820181905260c0820181905260e0820181905292810183905242610120820152610140810189905261016081018390526101808101829052610105906101a081016002905281546001808201845560009384526020938490208351600f9093020180546001600160a01b03199081166001600160a01b0394851617825584860151928201805482169385169390931790925560408401516002820180549093169316929092179055606082015160038201556080820151600482015560a0820151600582015560c0820151600682015560e0820151600782015561010082015160088201556101208201516009820155610140820151600a820155610160820151600b82015561018082015180518051939492939192600c8501926139c8928492019061574b565b5060208281015180516139e1926001850192019061574b565b5050506101a0820151600e8201805460ff19166001836002811115613a0857613a08615cf8565b021790555050508b6001600160a01b03168b6001600160a01b0316837fe843b72f047599c26dfdab8a31d1b5f353799cab6a8482518a21f1b17871dd758c600081518110613a5857613a58615ebe565b60200260200101518d600081518110613a7357613a73615ebe565b6020026020010151604051613a92929190918252602082015260400190565b60405180910390a48b6001600160a01b03168b6001600160a01b0316837f3062262d3b7b7b5292387920111bfa3e0597dc070a8f10f1be710f15868c22e08c600081518110613ae357613ae3615ebe565b60200260200101518d600081518110613afe57613afe615ebe565b6020026020010151604051613b1d929190918252602082015260400190565b60405180910390a450508015613b39576000805461ff00191690555b50505050505050505050565b60606000613b538133613d24565b6001600160a01b038416613b985760405162461bcd60e51b815260206004820152600c60248201526b5a45524f5f4144445245535360a01b60448201526064016112c1565b600080856001600160a01b031685604051613bb39190616098565b600060405180830381855af49150503d8060008114613bee576040519150601f19603f3d011682016040523d82523d6000602084013e613bf3565b606091505b509150915081613c0257600080fd5b95945050505050565b6000613c178133613d24565b509055565b600060fd5460001415613c2f5750600090565b613c3c600060fd54611d6a565b60fc54613c499190615eea565b905090565b60018060fb541660001480613c695750613c69600033613277565b613c855760405162461bcd60e51b81526004016112c190615f7c565b6000805160206161d3833981519152613c9e8133613d24565b613ca66142b2565b611a3b83614425565b600082815260c96020526040902060010154613ccb8133613d24565b611a3b83836149cb565b60018060fb541660001480613cf05750613cf0600033613277565b613d0c5760405162461bcd60e51b81526004016112c190615f7c565b613d146142b2565b611ae43383614bb0565b3b151590565b613d2e8282613277565b611ae457613d46816001600160a01b03166014615028565b613d51836020615028565b604051602001613d629291906160b4565b60408051601f198184030181529082905262461bcd60e51b82526112c191600401615eab565b6001600160a01b038716613dde5760405162461bcd60e51b815260206004820152601c60248201527f494e56414c49445f53545245414d5f4f574e45525f414444524553530000000060448201526064016112c1565b6001600160a01b038616613e345760405162461bcd60e51b815260206004820152601c60248201527f494e56414c49445f5245574152445f544f4b454e5f414444524553530000000060448201526064016112c1565b60008511613e775760405162461bcd60e51b815260206004820152601060248201526f16915493d7d3505617d1115413d4d25560821b60448201526064016112c1565b60008411613eba5760405162461bcd60e51b815260206004820152601060248201526f16915493d7d3525397d1115413d4d25560821b60448201526064016112c1565b84841115613f005760405162461bcd60e51b81526020600482015260136024820152721253959053125117d3525397d1115413d4d255606a1b60448201526064016112c1565b81600081518110613f1357613f13615ebe565b60200260200101518514613f695760405162461bcd60e51b815260206004820152601f60248201527f4d41585f4445504f5349545f4d5553545f455155414c5f5343484544554c450060448201526064016112c1565b4283600081518110613f7d57613f7d615ebe565b602002602001015111613fd25760405162461bcd60e51b815260206004820152601e60248201527f494e56414c49445f53545245414d5f45585049524154494f4e5f44415445000060448201526064016112c1565b81518351146140235760405162461bcd60e51b815260206004820152601760248201527f494e56414c49445f5343484544554c455f56414c55455300000000000000000060448201526064016112c1565b60028351101561406a5760405162461bcd60e51b815260206004820152601260248201527114d0d2115115531157d513d3d7d4d213d49560721b60448201526064016112c1565b806140ac5760405162461bcd60e51b81526020600482015260126024820152711253959053125117d5105557d411549253d160721b60448201526064016112c1565b60015b83518110156141da57836140c4600183615f02565b815181106140d4576140d4615ebe565b60200260200101518482815181106140ee576140ee615ebe565b60200260200101511161413c5760405162461bcd60e51b8152602060048201526016602482015275494e56414c49445f5343484544554c455f54494d455360501b60448201526064016112c1565b82614148600183615f02565b8151811061415857614158615ebe565b602002602001015183828151811061417257614172615ebe565b602002602001015111156141c85760405162461bcd60e51b815260206004820152601860248201527f494e56414c49445f5343484544554c455f52455741524453000000000000000060448201526064016112c1565b806141d281615fa8565b9150506140af565b5081600183516141ea9190615f02565b815181106141fa576141fa615ebe565b60200260200101516000146142515760405162461bcd60e51b815260206004820152601b60248201527f494e56414c49445f5343484544554c455f454e445f524557415244000000000060448201526064016112c1565b50505050505050565b61191c846323b872dd60e01b85858560405160240161427b9392919061605b565b60408051601f198184030181529190526020810180516001600160e01b03166001600160e01b0319909316929092179091526151c4565b4260fd5414156142be57565b60fe5415614384576142d3600060fd54611d6a565b60fc60008282546142e49190615eea565b90915550506101055460015b81811015614381576002610105828154811061430e5761430e615ebe565b60009182526020909120600e600f90920201015460ff16600281111561433657614336615cf8565b141561436f5761434581611540565b610105828154811061435957614359615ebe565b90600052602060002090600f0201600b01819055505b8061437981615fa8565b9150506142f0565b50505b4260fd55565b60005b8181101561191c5760026101058484848181106143ac576143ac615ebe565b90506020020135815481106143c3576143c3615ebe565b60009182526020909120600e600f90920201015460ff1660028111156143eb576143eb615cf8565b1415614413576144138484848481811061440757614407615ebe565b90506020020135614bb0565b8061441d81615fa8565b91505061438d565b6101055460015b81811015611a3b576002610105828154811061444a5761444a615ebe565b60009182526020909120600e600f90920201015460ff16600281111561447257614472615cf8565b1415614482576144828382614bb0565b8061448c81615fa8565b91505061442c565b6001600160a01b03821660009081526101046020526040812060fe549091906144be575081614505565b600060fe54846144ce9190615f19565b905060fc54816144de9190615f38565b91508060fc54836144ef9190615f19565b101561450357614500600183615eea565b91505b505b808260010160008282546145199190615eea565b925050819055508060fe60008282546145329190615eea565b925050819055508260fc600082825461454b9190615eea565b9091555050815483908390600090614564908490615eea565b90915550600090506145768242615296565b90508060ff600082825461458a9190615eea565b92505081905550808360020160008282546145a59190615eea565b90915550506101055460015b818110156146065761010581815481106145cd576145cd615ebe565b60009182526020808320600b600f90930201919091015483835260058801909152604090912055806145fe81615fa8565b9150506145b1565b5060408051868152602081018590526001600160a01b038816917f1449c6dd7851abc30abf37f57715f492010519147cc2652fbc38202c18a6ee90910160405180910390a2505050505050565b8161468e5760405162461bcd60e51b815260206004820152600b60248201526a16915493d7d05353d5539560aa1b60448201526064016112c1565b808211156146de5760405162461bcd60e51b815260206004820152601860248201527f4e4f545f454e4f5547485f5354414b455f42414c414e4345000000000000000060448201526064016112c1565b33600090815261010460205260408120600181015460fe805492939192909190614709908490615f02565b9091555050600281015460ff8054600090614725908490615f02565b90915550506000600182018190556002820181905560fc805484929061474c908490615f02565b9091555050600080825580805260038201602052604081208054859290614774908490615eea565b9091555050610105805460009061478d5761478d615ebe565b90600052602060002090600f0201600a0154426147aa9190615eea565b600080805260048301602090815260408083209390935560038401815282822054925192835233927f5f1c6be51c8ec7fa7e7ddd9f798ec55927b06cfc8d9159987d1ae3358cb10b59910160405180910390a360405183815233907f0f5bb82176feb1b5e747e28471aa92156a04d9f3ab9f45f28e2d704232b93f759060200160405180910390a2600061483e8484615f02565b9050801561191c5761191c3382614494565b336000818152610104602090815260408083208584526003810183528184208054949055905183815290939185917f3bfce8de0db7450cc169b94323c210e69a36c6a4a58c9f5d96bec4973adce392910160405180910390a36101005461010580546001600160a01b039092169163da0c1a88913391879081106148d6576148d6615ebe565b600091825260209091206002600f9092020101546040516001600160e01b031960e085901b16815261491792916001600160a01b031690869060040161605b565b600060405180830381600087803b15801561493157600080fd5b505af1158015614251573d6000803e3d6000fd5b61494f8282613277565b611ae457600082815260c9602090815260408083206001600160a01b03851684529091529020805460ff191660011790556149873390565b6001600160a01b0316816001600160a01b0316837f2f8788117e7eff1d82e926ec794901d17c78024a50270940304540a733656f0d60405160405180910390a45050565b6149d58282613277565b15611ae457600082815260c9602090815260408083206001600160a01b0385168085529252808320805460ff1916905551339285917ff6391f5c32d9c69d2a47ea670b442974b53935d1edc7fd64eb21e047a839171b9190a45050565b7f360894a13ba1a3210667c828492db98dca3e2076cc3735a920a3ca505d382bbc546001600160a01b031690565b6000611ae48133613d24565b6000614a76614a32565b9050614a8184615390565b600083511180614a8e5750815b15614a9f57614a9d8484615435565b505b7f4910fdfa16fed3260ed0e7147f7cc6da11a60208b5b9406d12a635614ffd9143805460ff1661289c57805460ff191660011781556040516001600160a01b0383166024820152614b1e90869060440160408051601f198184030181529190526020810180516001600160e01b0316631b2ce7f360e11b179052615435565b50805460ff19168155614b2f614a32565b6001600160a01b0316826001600160a01b031614614ba75760405162461bcd60e51b815260206004820152602f60248201527f45524331393637557067726164653a207570677261646520627265616b73206660448201526e75727468657220757067726164657360881b60648201526084016112c1565b61289c85615517565b80614bf75760405162461bcd60e51b815260206004820152601760248201527610555493d49057d49155d0549114d7d0d3d35413d55391604a1b60448201526064016112c1565b60026101058281548110614c0d57614c0d615ebe565b60009182526020909120600e600f90920201015460ff166002811115614c3557614c35615cf8565b14614c825760405162461bcd60e51b815260206004820152601b60248201527f494e4143544956455f4f525f50524f504f5345445f53545245414d000000000060448201526064016112c1565b6001600160a01b0382166000908152610104602052604090206001810154614cec5760405162461bcd60e51b815260206004820152601f60248201527f555345525f444f45535f4e4f545f484156455f41435455414c5f5354414b450060448201526064016112c1565b60006c7e37be2022c0914b26800000008260020154836005016000868152602001908152602001600020546101058681548110614d2b57614d2b615ebe565b90600052602060002090600f0201600b0154614d479190615f02565b614d519190615f19565b614d5b9190615f38565b905080614d685750505050565b600083815260038301602052604081208054839290614d88908490615eea565b9091555050610105805484908110614da257614da2615ebe565b90600052602060002090600f0201600b0154826005016000858152602001908152602001600020819055506101058381548110614de157614de1615ebe565b90600052602060002090600f0201600a015442614dfe9190615eea565b6000848152600484016020526040902055610105805482919085908110614e2757614e27615ebe565b90600052602060002090600f02016006016000828254614e479190615eea565b909155505060008381526003830160209081526040918290205491519182526001600160a01b0386169185917f5f1c6be51c8ec7fa7e7ddd9f798ec55927b06cfc8d9159987d1ae3358cb10b59910160405180910390a350505050565b60006101058381548110614eba57614eba615ebe565b600091825260208220600d600f90920201015491505b8181101561191c576101058481548110614eec57614eec615ebe565b90600052602060002090600f020160070154836101058681548110614f1357614f13615ebe565b90600052602060002090600f0201600c016001018381548110614f3857614f38615ebe565b9060005260206000200154614f4d9190615f19565b614f579190615f38565b6101058581548110614f6b57614f6b615ebe565b90600052602060002090600f0201600c016001018281548110614f9057614f90615ebe565b60009182526020909120015580614fa681615fa8565b915050614ed0565b6040516001600160a01b038316602482015260448101829052611a3b90849063a9059cbb60e01b9060640161427b565b614fe6615557565b614fee615590565b614ff9600033614945565b6150237f139c2898040ef16910dc9f44dc697df79363da767d8bc92f2e310312b816e46d33614945565b60fb55565b60606000615037836002615f19565b615042906002615eea565b67ffffffffffffffff81111561505a5761505a615849565b6040519080825280601f01601f191660200182016040528015615084576020820181803683370190505b509050600360fc1b8160008151811061509f5761509f615ebe565b60200101906001600160f81b031916908160001a905350600f60fb1b816001815181106150ce576150ce615ebe565b60200101906001600160f81b031916908160001a90535060006150f2846002615f19565b6150fd906001615eea565b90505b6001811115615175576f181899199a1a9b1b9c1cb0b131b232b360811b85600f166010811061513157615131615ebe565b1a60f81b82828151811061514757615147615ebe565b60200101906001600160f81b031916908160001a90535060049490941c9361516e81616129565b9050615100565b50831561118f5760405162461bcd60e51b815260206004820181905260248201527f537472696e67733a20686578206c656e67746820696e73756666696369656e7460448201526064016112c1565b6000615219826040518060400160405280602081526020017f5361666545524332303a206c6f772d6c6576656c2063616c6c206661696c6564815250856001600160a01b03166155bf9092919063ffffffff16565b805190915015611a3b57808060200190518101906152379190615f5a565b611a3b5760405162461bcd60e51b815260206004820152602a60248201527f5361666545524332303a204552433230206f7065726174696f6e20646964206e6044820152691bdd081cdd58d8d9595960b21b60648201526084016112c1565b600080622820726101056000815481106152b2576152b2615ebe565b90600052602060002090600f0201600c016000016000815481106152d8576152d8615ebe565b90600052602060002001546152ed9190615eea565b905060006152ff630786156083615eea565b905081841161531f57610102546153169086615f19565b92505050610e21565b80841061533457610103546153169086615f19565b61533e8282615f02565b6153488583615f02565b610103546101025461535a9190615f02565b6153649088615f19565b61536e9190615f19565b6153789190615f38565b610103546153869087615f19565b613c029190615eea565b803b6153f45760405162461bcd60e51b815260206004820152602d60248201527f455243313936373a206e657720696d706c656d656e746174696f6e206973206e60448201526c1bdd08184818dbdb9d1c9858dd609a1b60648201526084016112c1565b7f360894a13ba1a3210667c828492db98dca3e2076cc3735a920a3ca505d382bbc80546001600160a01b0319166001600160a01b0392909216919091179055565b6060823b6154945760405162461bcd60e51b815260206004820152602660248201527f416464726573733a2064656c65676174652063616c6c20746f206e6f6e2d636f6044820152651b9d1c9858dd60d21b60648201526084016112c1565b600080846001600160a01b0316846040516154af9190616098565b600060405180830381855af49150503d80600081146154ea576040519150601f19603f3d011682016040523d82523d6000602084013e6154ef565b606091505b5091509150613c0282826040518060600160405280602781526020016161ac602791396155ce565b61552081615390565b6040516001600160a01b038216907fbc7cd75a20ee27fd9adebab32041f755214dbc6bffa90cc0225b39da2e5c2d3b90600090a250565b600054610100900460ff1661557e5760405162461bcd60e51b81526004016112c190616140565b615586615607565b61558e615607565b565b600054610100900460ff166155b75760405162461bcd60e51b81526004016112c190616140565b61557e615607565b6060611f60848460008561562e565b606083156155dd57508161118f565b8251156155ed5782518084602001fd5b8160405162461bcd60e51b81526004016112c19190615eab565b600054610100900460ff1661558e5760405162461bcd60e51b81526004016112c190616140565b60608247101561568f5760405162461bcd60e51b815260206004820152602660248201527f416464726573733a20696e73756666696369656e742062616c616e636520666f6044820152651c8818d85b1b60d21b60648201526084016112c1565b843b6156dd5760405162461bcd60e51b815260206004820152601d60248201527f416464726573733a2063616c6c20746f206e6f6e2d636f6e747261637400000060448201526064016112c1565b600080866001600160a01b031685876040516156f99190616098565b60006040518083038185875af1925050503d8060008114615736576040519150601f19603f3d011682016040523d82523d6000602084013e61573b565b606091505b509150915061169b8282866155ce565b828054828255906000526020600020908101928215615786579160200282015b8281111561578657825182559160200191906001019061576b565b50615792929150615796565b5090565b5b808211156157925760008155600101615797565b6000602082840312156157bd57600080fd5b81356001600160e01b03198116811461118f57600080fd5b6000806000606084860312156157ea57600080fd5b505081359360208301359350604090920135919050565b80356001600160a01b038116811461581857600080fd5b919050565b6000806040838503121561583057600080fd5b8235915061584060208401615801565b90509250929050565b634e487b7160e01b600052604160045260246000fd5b604051601f8201601f1916810167ffffffffffffffff8111828210171561588857615888615849565b604052919050565b600082601f8301126158a157600080fd5b8135602067ffffffffffffffff8211156158bd576158bd615849565b8160051b6158cc82820161585f565b92835284810182019282810190878511156158e657600080fd5b83870192505b8483101561169b578235825291830191908301906158ec565b600080600080600080600080610100898b03121561592257600080fd5b61592b89615801565b975061593960208a01615801565b965060408901359550606089013594506080890135935060a089013567ffffffffffffffff8082111561596b57600080fd5b6159778c838d01615890565b945060c08b013591508082111561598d57600080fd5b5061599a8b828c01615890565b92505060e089013590509295985092959890939650565b6000602082840312156159c357600080fd5b5035919050565b60008083601f8401126159dc57600080fd5b50813567ffffffffffffffff8111156159f457600080fd5b6020830191508360208260051b8501011115615a0f57600080fd5b9250929050565b60008060008060408587031215615a2c57600080fd5b843567ffffffffffffffff80821115615a4457600080fd5b615a50888389016159ca565b90965094506020870135915080821115615a6957600080fd5b50615a76878288016159ca565b95989497509550505050565b60008060208385031215615a9557600080fd5b823567ffffffffffffffff811115615aac57600080fd5b615ab8858286016159ca565b90969095509350505050565b60008060408385031215615ad757600080fd5b615ae083615801565b946020939093013593505050565b600060208284031215615b0057600080fd5b61118f82615801565b60008060408385031215615b1c57600080fd5b50508035926020909101359150565b60008060408385031215615b3e57600080fd5b615b4783615801565b915060208084013567ffffffffffffffff80821115615b6557600080fd5b818601915086601f830112615b7957600080fd5b813581811115615b8b57615b8b615849565b615b9d601f8201601f1916850161585f565b91508082528784828501011115615bb357600080fd5b80848401858401376000848284010152508093505050509250929050565b600080600080600060608688031215615be957600080fd5b853567ffffffffffffffff80821115615c0157600080fd5b615c0d89838a016159ca565b90975095506020880135915080821115615c2657600080fd5b50615c33888289016159ca565b96999598509660400135949350505050565b600080600060408486031215615c5a57600080fd5b615c6384615801565b9250602084013567ffffffffffffffff811115615c7f57600080fd5b615c8b868287016159ca565b9497909650939450505050565b600081518084526020808501945080840160005b83811015615cc857815187529582019590820190600101615cac565b509495945050505050565b604081526000615ce66040830185615c98565b8281036020840152613c028185615c98565b634e487b7160e01b600052602160045260246000fd5b6001600160a01b038c811682528b166020820152604081018a9052606081018990526080810188905260a0810187905260c0810186905260e0810185905261010081018490526101208101839052610160810160038310615d7f57634e487b7160e01b600052602160045260246000fd5b826101408301529c9b505050505050505050505050565b60008060008060008060008060006101208a8c031215615db557600080fd5b615dbe8a615801565b9850615dcc60208b01615801565b975060408a013567ffffffffffffffff80821115615de957600080fd5b615df58d838e01615890565b985060608c0135915080821115615e0b57600080fd5b50615e188c828d01615890565b96505060808a0135945060a08a01359350615e3560c08b01615801565b925060e08a013591506101008a013590509295985092959850929598565b60005b83811015615e6e578181015183820152602001615e56565b8381111561191c5750506000910152565b60008151808452615e97816020860160208601615e53565b601f01601f19169290920160200192915050565b60208152600061118f6020830184615e7f565b634e487b7160e01b600052603260045260246000fd5b634e487b7160e01b600052601160045260246000fd5b60008219821115615efd57615efd615ed4565b500190565b600082821015615f1457615f14615ed4565b500390565b6000816000190483118215151615615f3357615f33615ed4565b500290565b600082615f5557634e487b7160e01b600052601260045260246000fd5b500490565b600060208284031215615f6c57600080fd5b8151801515811461118f57600080fd5b60208082526012908201527110d3d395149050d517d254d7d4105554d15160721b604082015260600190565b6000600019821415615fbc57615fbc615ed4565b5060010190565b6020808252602c908201527f46756e6374696f6e206d7573742062652063616c6c6564207468726f7567682060408201526b19195b1959d85d1958d85b1b60a21b606082015260800190565b6020808252602c908201527f46756e6374696f6e206d7573742062652063616c6c6564207468726f7567682060408201526b6163746976652070726f787960a01b606082015260800190565b6001600160a01b039384168152919092166020820152604081019190915260600190565b60006020828403121561609157600080fd5b5051919050565b600082516160aa818460208701615e53565b9190910192915050565b7f416363657373436f6e74726f6c3a206163636f756e74200000000000000000008152600083516160ec816017850160208801615e53565b7001034b99036b4b9b9b4b733903937b6329607d1b601791840191820152835161611d816028840160208801615e53565b01602801949350505050565b60008161613857616138615ed4565b506000190190565b6020808252602b908201527f496e697469616c697a61626c653a20636f6e7472616374206973206e6f74206960408201526a6e697469616c697a696e6760a81b60608201526080019056fe930802d0eadfb856cb83e01d1c4daa3c89e9c6d9f74cfbe13124decf2b33128a416464726573733a206c6f772d6c6576656c2064656c65676174652063616c6c206661696c6564f7db13299c8a9e501861f04c20f69a2444829a36a363cfad4b58864709c755603a2f235c9daaf33349d300aadff2f15078a89df81bcfdd45ba11c8f816bddc6fa2646970667358221220f9a067fe7396b45c0572d9c7c2042494111087bad9d85c774937f93114ca0ee564736f6c634300080a0033",
    "linkReferences": {}
  },
  "methodIdentifiers": {
    "AIRDROP_ROLE()": "1e0fbfa2",
    "CLAIM_ROLE()": "86c1b4eb",
    "DEFAULT_ADMIN_ROLE()": "a217fddf",
    "FOUR_YEARS()": "fe904b7a",
    "ONE_MONTH()": "20988cef",
    "PAUSE_ROLE()": "389ed267",
    "STREAM_MANAGER_ROLE()": "3ea005c8",
    "adminDelegatecall(address,bytes)": "b8e9744c",
    "adminPause(uint256)": "2692c59f",
    "adminSstore(uint256,uint256)": "be831a2e",
    "adminSstoreWithMask(uint256,uint256,uint256)": "6c4624c3",
    "auroraToken()": "5578fdb2",
    "batchClaimOnBehalfOfAnotherUser(address,uint256[])": "6458edd3",
    "batchClaimOnBehalfOfOtherUsers(address[],uint256[])": "26cdddb9",
    "batchMoveRewardsToPending(uint256[])": "687dd46c",
    "batchWithdraw(uint256[])": "72e55399",
    "cancelStreamProposal(uint256)": "90403322",
    "claimAllOnBehalfOfAnotherUser(address)": "d5050aed",
    "claimAllOnBehalfOfOtherUsers(address[])": "27571969",
    "claimOnBehalfOfAnotherUser(address,uint256)": "3e9a44cb",
    "createStream(uint256,uint256)": "8d40bd03",
    "getAmountOfShares(uint256,address)": "0efd8310",
    "getLatestRewardPerShare(uint256)": "12dd67fe",
    "getPending(uint256,address)": "7f37df3b",
    "getReleaseTime(uint256,address)": "c8927723",
    "getRewardPerShare(uint256)": "993b21c1",
    "getRewardPerShareForUser(uint256,address)": "1dd00452",
    "getRewardsAmount(uint256,uint256)": "36630cc7",
    "getRoleAdmin(bytes32)": "248a9ca3",
    "getStream(uint256)": "894e9a0d",
    "getStreamClaimableAmount(uint256,address)": "1c61e617",
    "getStreamOwnerClaimableAmount(uint256)": "396a6c14",
    "getStreamSchedule(uint256)": "70bc770c",
    "getStreamsCount()": "e335e79a",
    "getTotalAmountOfStakedAurora()": "cd5ba590",
    "getTreasuryBalance(address)": "57baeac8",
    "getUserShares(address)": "ba0cb22b",
    "getUserTotalDeposit(address)": "a4c828dc",
    "grantRole(bytes32,address)": "2f2ff15d",
    "hasRole(bytes32,address)": "91d14854",
    "initialize(address,address,uint256[],uint256[],uint256,uint256,address,uint256,uint256)": "a81c6a15",
    "maxWeight()": "a8b0bb83",
    "minWeight()": "0c2ee55e",
    "moveAllRewardsToPending()": "8bc34e77",
    "moveRewardsToPending(uint256)": "ee13ad8e",
    "paused()": "5c975abb",
    "proposeStream(address,address,uint256,uint256,uint256,uint256[],uint256[],uint256)": "1194ebeb",
    "releaseAuroraRewardsToStreamOwner(uint256)": "9c52a920",
    "removeStream(uint256,address)": "3ba31abf",
    "renounceRole(bytes32,address)": "36568abe",
    "revokeRole(bytes32,address)": "d547741f",
    "rewardsSchedule(uint256,uint256,uint256)": "03687788",
    "stake(uint256)": "a694fc3a",
    "stakeOnBehalfOfAnotherUser(address,uint256)": "2ca783f3",
    "stakeOnBehalfOfOtherUsers(address[],uint256[],uint256)": "53a4cca0",
    "startEndScheduleIndex(uint256,uint256,uint256)": "4981912e",
    "storageVar()": "6c827cb1",
    "supportsInterface(bytes4)": "01ffc9a7",
    "totalAmountOfStakedAurora()": "3895a275",
    "totalAuroraShares()": "bb07ec1b",
    "totalStreamShares()": "6db8e53d",
    "touchedAt()": "1fd8c5f4",
    "treasury()": "61d027b3",
    "unstake(uint256)": "2e17de78",
    "unstakeAll()": "35322f37",
    "updateStorageVar(uint256)": "d7cea15c",
    "updateTreasury(address)": "7f51bb1f",
    "upgradeTo(address)": "3659cfe6",
    "upgradeToAndCall(address,bytes)": "4f1ef286",
    "users(address)": "a87430ba",
    "withdraw(uint256)": "2e1a7d4d",
    "withdrawAll()": "853828b6"
  },
  "id": 9
}