{
  "abi": [
    {
      "anonymous": false,
      "inputs": [
        {
          "indexed": false,
          "internalType": "address",
          "name": "previousAdmin",
          "type": "address"
        },
        {
          "indexed": false,
          "internalType": "address",
          "name": "newAdmin",
          "type": "address"
        }
      ],
      "name": "AdminChanged",
      "type": "event"
    },
    {
      "anonymous": false,
      "inputs": [
        {
          "indexed": true,
          "internalType": "address",
          "name": "beacon",
          "type": "address"
        }
      ],
      "name": "BeaconUpgraded",
      "type": "event"
    },
    {
      "anonymous": false,
      "inputs": [
        {
          "indexed": true,
          "internalType": "bytes32",
          "name": "role",
          "type": "bytes32"
        },
        {
          "indexed": true,
          "internalType": "bytes32",
          "name": "previousAdminRole",
          "type": "bytes32"
        },
        {
          "indexed": true,
          "internalType": "bytes32",
          "name": "newAdminRole",
          "type": "bytes32"
        }
      ],
      "name": "RoleAdminChanged",
      "type": "event"
    },
    {
      "anonymous": false,
      "inputs": [
        {
          "indexed": true,
          "internalType": "bytes32",
          "name": "role",
          "type": "bytes32"
        },
        {
          "indexed": true,
          "internalType": "address",
          "name": "account",
          "type": "address"
        },
        {
          "indexed": true,
          "internalType": "address",
          "name": "sender",
          "type": "address"
        }
      ],
      "name": "RoleGranted",
      "type": "event"
    },
    {
      "anonymous": false,
      "inputs": [
        {
          "indexed": true,
          "internalType": "bytes32",
          "name": "role",
          "type": "bytes32"
        },
        {
          "indexed": true,
          "internalType": "address",
          "name": "account",
          "type": "address"
        },
        {
          "indexed": true,
          "internalType": "address",
          "name": "sender",
          "type": "address"
        }
      ],
      "name": "RoleRevoked",
      "type": "event"
    },
    {
      "anonymous": false,
      "inputs": [
        {
          "indexed": true,
          "internalType": "address",
          "name": "token",
          "type": "address"
        },
        {
          "indexed": true,
          "internalType": "address",
          "name": "addedBy",
          "type": "address"
        },
        {
          "indexed": false,
          "internalType": "uint256",
          "name": "timestamp",
          "type": "uint256"
        }
      ],
      "name": "TokenAdded",
      "type": "event"
    },
    {
      "anonymous": false,
      "inputs": [
        {
          "indexed": true,
          "internalType": "address",
          "name": "token",
          "type": "address"
        },
        {
          "indexed": true,
          "internalType": "address",
          "name": "addedBy",
          "type": "address"
        },
        {
          "indexed": false,
          "internalType": "uint256",
          "name": "timestamp",
          "type": "uint256"
        }
      ],
      "name": "TokenRemoved",
      "type": "event"
    },
    {
      "anonymous": false,
      "inputs": [
        {
          "indexed": true,
          "internalType": "address",
          "name": "implementation",
          "type": "address"
        }
      ],
      "name": "Upgraded",
      "type": "event"
    },
    {
      "inputs": [],
      "name": "DEFAULT_ADMIN_ROLE",
      "outputs": [
        {
          "internalType": "bytes32",
          "name": "",
          "type": "bytes32"
        }
      ],
      "stateMutability": "view",
      "type": "function"
    },
    {
      "inputs": [],
      "name": "PAUSE_ROLE",
      "outputs": [
        {
          "internalType": "bytes32",
          "name": "",
          "type": "bytes32"
        }
      ],
      "stateMutability": "view",
      "type": "function"
    },
    {
      "inputs": [],
      "name": "TREASURY_MANAGER_ROLE",
      "outputs": [
        {
          "internalType": "bytes32",
          "name": "",
          "type": "bytes32"
        }
      ],
      "stateMutability": "view",
      "type": "function"
    },
    {
      "inputs": [
        {
          "internalType": "address",
          "name": "_token",
          "type": "address"
        }
      ],
      "name": "addSupportedToken",
      "outputs": [],
      "stateMutability": "nonpayable",
      "type": "function"
    },
    {
      "inputs": [
        {
          "internalType": "address",
          "name": "target",
          "type": "address"
        },
        {
          "internalType": "bytes",
          "name": "data",
          "type": "bytes"
        }
      ],
      "name": "adminDelegatecall",
      "outputs": [
        {
          "internalType": "bytes",
          "name": "",
          "type": "bytes"
        }
      ],
      "stateMutability": "payable",
      "type": "function"
    },
    {
      "inputs": [
        {
          "internalType": "uint256",
          "name": "flags",
          "type": "uint256"
        }
      ],
      "name": "adminPause",
      "outputs": [],
      "stateMutability": "nonpayable",
      "type": "function"
    },
    {
      "inputs": [
        {
          "internalType": "uint256",
          "name": "key",
          "type": "uint256"
        },
        {
          "internalType": "uint256",
          "name": "value",
          "type": "uint256"
        }
      ],
      "name": "adminSstore",
      "outputs": [],
      "stateMutability": "nonpayable",
      "type": "function"
    },
    {
      "inputs": [
        {
          "internalType": "uint256",
          "name": "key",
          "type": "uint256"
        },
        {
          "internalType": "uint256",
          "name": "value",
          "type": "uint256"
        },
        {
          "internalType": "uint256",
          "name": "mask",
          "type": "uint256"
        }
      ],
      "name": "adminSstoreWithMask",
      "outputs": [],
      "stateMutability": "nonpayable",
      "type": "function"
    },
    {
      "inputs": [
        {
          "internalType": "bytes32",
          "name": "role",
          "type": "bytes32"
        }
      ],
      "name": "getRoleAdmin",
      "outputs": [
        {
          "internalType": "bytes32",
          "name": "",
          "type": "bytes32"
        }
      ],
      "stateMutability": "view",
      "type": "function"
    },
    {
      "inputs": [
        {
          "internalType": "bytes32",
          "name": "role",
          "type": "bytes32"
        },
        {
          "internalType": "address",
          "name": "account",
          "type": "address"
        }
      ],
      "name": "grantRole",
      "outputs": [],
      "stateMutability": "nonpayable",
      "type": "function"
    },
    {
      "inputs": [
        {
          "internalType": "bytes32",
          "name": "role",
          "type": "bytes32"
        },
        {
          "internalType": "address",
          "name": "account",
          "type": "address"
        }
      ],
      "name": "hasRole",
      "outputs": [
        {
          "internalType": "bool",
          "name": "",
          "type": "bool"
        }
      ],
      "stateMutability": "view",
      "type": "function"
    },
    {
      "inputs": [
        {
          "internalType": "address[]",
          "name": "_supportedTokens",
          "type": "address[]"
        },
        {
          "internalType": "uint256",
          "name": "_flags",
          "type": "uint256"
        }
      ],
      "name": "initialize",
      "outputs": [],
      "stateMutability": "nonpayable",
      "type": "function"
    },
    {
      "inputs": [
        {
          "internalType": "address",
          "name": "",
          "type": "address"
        }
      ],
      "name": "isSupportedToken",
      "outputs": [
        {
          "internalType": "bool",
          "name": "",
          "type": "bool"
        }
      ],
      "stateMutability": "view",
      "type": "function"
    },
    {
      "inputs": [],
      "name": "newTreasury",
      "outputs": [
        {
          "internalType": "address",
          "name": "",
          "type": "address"
        }
      ],
      "stateMutability": "view",
      "type": "function"
    },
    {
      "inputs": [],
      "name": "paused",
      "outputs": [
        {
          "internalType": "uint256",
          "name": "",
          "type": "uint256"
        }
      ],
      "stateMutability": "view",
      "type": "function"
    },
    {
      "inputs": [
        {
          "internalType": "address",
          "name": "_user",
          "type": "address"
        },
        {
          "internalType": "address",
          "name": "_token",
          "type": "address"
        },
        {
          "internalType": "uint256",
          "name": "_amount",
          "type": "uint256"
        }
      ],
      "name": "payRewards",
      "outputs": [],
      "stateMutability": "nonpayable",
      "type": "function"
    },
    {
      "inputs": [
        {
          "internalType": "address",
          "name": "_token",
          "type": "address"
        }
      ],
      "name": "removeSupportedToken",
      "outputs": [],
      "stateMutability": "nonpayable",
      "type": "function"
    },
    {
      "inputs": [
        {
          "internalType": "bytes32",
          "name": "role",
          "type": "bytes32"
        },
        {
          "internalType": "address",
          "name": "account",
          "type": "address"
        }
      ],
      "name": "renounceRole",
      "outputs": [],
      "stateMutability": "nonpayable",
      "type": "function"
    },
    {
      "inputs": [
        {
          "internalType": "bytes32",
          "name": "role",
          "type": "bytes32"
        },
        {
          "internalType": "address",
          "name": "account",
          "type": "address"
        }
      ],
      "name": "revokeRole",
      "outputs": [],
      "stateMutability": "nonpayable",
      "type": "function"
    },
    {
      "inputs": [
        {
          "internalType": "bytes4",
          "name": "interfaceId",
          "type": "bytes4"
        }
      ],
      "name": "supportsInterface",
      "outputs": [
        {
          "internalType": "bool",
          "name": "",
          "type": "bool"
        }
      ],
      "stateMutability": "view",
      "type": "function"
    },
    {
      "inputs": [
        {
          "internalType": "address",
          "name": "newImplementation",
          "type": "address"
        }
      ],
      "name": "upgradeTo",
      "outputs": [],
      "stateMutability": "nonpayable",
      "type": "function"
    },
    {
      "inputs": [
        {
          "internalType": "address",
          "name": "newImplementation",
          "type": "address"
        },
        {
          "internalType": "bytes",
          "name": "data",
          "type": "bytes"
        }
      ],
      "name": "upgradeToAndCall",
      "outputs": [],
      "stateMutability": "payable",
      "type": "function"
    }
  ],
  "bytecode": {
    "object": "0x60a0604052306080523480156200001557600080fd5b50600054610100900460ff16620000335760005460ff16156200003d565b6200003d620000e2565b620000a55760405162461bcd60e51b815260206004820152602e60248201527f496e697469616c697a61626c653a20636f6e747261637420697320616c72656160448201526d191e481a5b9a5d1a585b1a5e995960921b606482015260840160405180910390fd5b600054610100900460ff16158015620000c8576000805461ffff19166101011790555b8015620000db576000805461ff00191690555b5062000106565b6000620000fa306200010060201b62000d261760201c565b15905090565b3b151590565b608051611cc462000137600039600081816105d0015281816106100152818161069901526106d90152611cc46000f3fe6080604052600436106101355760003560e01c806360b5bb3f116100ab578063a217fddf1161006f578063a217fddf14610394578063b8e9744c146103a9578063be831a2e146103c9578063d547741f146103e9578063da0c1a8814610409578063ebdf690f1461042957600080fd5b806360b5bb3f146102f45780636c4624c3146103145780636d69fcaf14610334578063763191901461035457806391d148541461037457600080fd5b806336568abe116100fd57806336568abe1461021f5780633659cfe61461023f578063389ed2671461025f5780634579b8b4146102935780634f1ef286146102cb5780635c975abb146102de57600080fd5b806301ffc9a71461013a578063240028e81461016f578063248a9ca31461019f5780632692c59f146101dd5780632f2ff15d146101ff575b600080fd5b34801561014657600080fd5b5061015a6101553660046116e1565b61044b565b60405190151581526020015b60405180910390f35b34801561017b57600080fd5b5061015a61018a366004611727565b60fc6020526000908152604090205460ff1681565b3480156101ab57600080fd5b506101cf6101ba366004611742565b600090815260c9602052604090206001015490565b604051908152602001610166565b3480156101e957600080fd5b506101fd6101f8366004611742565b610482565b005b34801561020b57600080fd5b506101fd61021a36600461175b565b61051c565b34801561022b57600080fd5b506101fd61023a36600461175b565b610547565b34801561024b57600080fd5b506101fd61025a366004611727565b6105c5565b34801561026b57600080fd5b506101cf7f139c2898040ef16910dc9f44dc697df79363da767d8bc92f2e310312b816e46d81565b34801561029f57600080fd5b5060fd546102b3906001600160a01b031681565b6040516001600160a01b039091168152602001610166565b6101fd6102d93660046117ce565b61068e565b3480156102ea57600080fd5b506101cf60fb5481565b34801561030057600080fd5b506101fd61030f366004611874565b610744565b34801561032057600080fd5b506101fd61032f366004611927565b6108fc565b34801561034057600080fd5b506101fd61034f366004611727565b610914565b34801561036057600080fd5b506101fd61036f366004611727565b610a4e565b34801561038057600080fd5b5061015a61038f36600461175b565b610b77565b3480156103a057600080fd5b506101cf600081565b6103bc6103b73660046117ce565b610ba2565b60405161016691906119ab565b3480156103d557600080fd5b506101fd6103e43660046119be565b610c68565b3480156103f557600080fd5b506101fd61040436600461175b565b610c79565b34801561041557600080fd5b506101fd6104243660046119e0565b610c9f565b34801561043557600080fd5b506101cf600080516020611c6f83398151915281565b60006001600160e01b03198216637965db0b60e01b148061047c57506301ffc9a760e01b6001600160e01b03198316145b92915050565b7f139c2898040ef16910dc9f44dc697df79363da767d8bc92f2e310312b816e46d6104ad8133610d2c565b60fb5482811614806104c557506104c5600033610b77565b6105165760405162461bcd60e51b815260206004820152601e60248201527f4f4e4c595f44454641554c545f41444d494e5f43414e5f554e5041555345000060448201526064015b60405180910390fd5b5060fb55565b600082815260c960205260409020600101546105388133610d2c565b6105428383610d90565b505050565b6001600160a01b03811633146105b75760405162461bcd60e51b815260206004820152602f60248201527f416363657373436f6e74726f6c3a2063616e206f6e6c792072656e6f756e636560448201526e103937b632b9903337b91039b2b63360891b606482015260840161050d565b6105c18282610e16565b5050565b306001600160a01b037f000000000000000000000000000000000000000000000000000000000000000016141561060e5760405162461bcd60e51b815260040161050d90611a1c565b7f00000000000000000000000000000000000000000000000000000000000000006001600160a01b0316610640610e7d565b6001600160a01b0316146106665760405162461bcd60e51b815260040161050d90611a68565b61066f81610eab565b6040805160008082526020820190925261068b91839190610eb7565b50565b306001600160a01b037f00000000000000000000000000000000000000000000000000000000000000001614156106d75760405162461bcd60e51b815260040161050d90611a1c565b7f00000000000000000000000000000000000000000000000000000000000000006001600160a01b0316610709610e7d565b6001600160a01b03161461072f5760405162461bcd60e51b815260040161050d90611a68565b61073882610eab565b6105c182826001610eb7565b600054610100900460ff1661075f5760005460ff1615610763565b303b155b6107c65760405162461bcd60e51b815260206004820152602e60248201527f496e697469616c697a61626c653a20636f6e747261637420697320616c72656160448201526d191e481a5b9a5d1a585b1a5e995960921b606482015260840161050d565b600054610100900460ff161580156107e8576000805461ffff19166101011790555b60005b83518110156108c45760006001600160a01b031684828151811061081157610811611ab4565b60200260200101516001600160a01b031614156108685760405162461bcd60e51b8152602060048201526015602482015274494e56414c49445f544f4b454e5f4144445245535360581b604482015260640161050d565b600160fc600086848151811061088057610880611ab4565b6020908102919091018101516001600160a01b03168252810191909152604001600020805460ff1916911515919091179055806108bc81611ae0565b9150506107eb565b506108ce82611002565b6108e6600080516020611c6f83398151915233610d90565b8015610542576000805461ff0019169055505050565b60006109088133610d2c565b50825491821816189055565b60018060fb54166000148061092f575061092f600033610b77565b6109705760405162461bcd60e51b815260206004820152601260248201527110d3d395149050d517d254d7d4105554d15160721b604482015260640161050d565b600080516020611c6f8339815191526109898133610d2c565b6001600160a01b038316600090815260fc602052604090205460ff16156109e95760405162461bcd60e51b8152602060048201526014602482015273544f4b454e5f414c52454144595f45584953545360601b604482015260640161050d565b6001600160a01b038316600081815260fc602052604090819020805460ff19166001179055513391907f7156d0b8d9ed8d1117b97d76a15a304bad2749fc23251c2c7ed65a069895285090610a419042815260200190565b60405180910390a3505050565b60018060fb541660001480610a695750610a69600033610b77565b610aaa5760405162461bcd60e51b815260206004820152601260248201527110d3d395149050d517d254d7d4105554d15160721b604482015260640161050d565b600080516020611c6f833981519152610ac38133610d2c565b6001600160a01b038316600090815260fc602052604090205460ff16610b225760405162461bcd60e51b81526020600482015260146024820152731513d2d15397d113d154d7d393d517d1561254d560621b604482015260640161050d565b6001600160a01b038316600081815260fc602052604090819020805460ff19169055513391907feddce3117927831e55f862ee4b16c60ba431908fc8404f5a2d40c2ac163c3b1490610a419042815260200190565b600091825260c9602090815260408084206001600160a01b0393909316845291905290205460ff1690565b60606000610bb08133610d2c565b6001600160a01b038416610bf55760405162461bcd60e51b815260206004820152600c60248201526b5a45524f5f4144445245535360a01b604482015260640161050d565b600080856001600160a01b031685604051610c109190611afb565b600060405180830381855af49150503d8060008114610c4b576040519150601f19603f3d011682016040523d82523d6000602084013e610c50565b606091505b509150915081610c5f57600080fd5b95945050505050565b6000610c748133610d2c565b509055565b600082815260c96020526040902060010154610c958133610d2c565b6105428383610e16565b6000610cab8133610d2c565b6001600160a01b038316600090815260fc602052604090205460ff16610d0c5760405162461bcd60e51b81526020600482015260166024820152751513d2d15397d254d7d393d517d4d5541413d495115160521b604482015260640161050d565b610d206001600160a01b038416858461104c565b50505050565b3b151590565b610d368282610b77565b6105c157610d4e816001600160a01b0316601461109e565b610d5983602061109e565b604051602001610d6a929190611b17565b60408051601f198184030181529082905262461bcd60e51b825261050d916004016119ab565b610d9a8282610b77565b6105c157600082815260c9602090815260408083206001600160a01b03851684529091529020805460ff19166001179055610dd23390565b6001600160a01b0316816001600160a01b0316837f2f8788117e7eff1d82e926ec794901d17c78024a50270940304540a733656f0d60405160405180910390a45050565b610e208282610b77565b156105c157600082815260c9602090815260408083206001600160a01b0385168085529252808320805460ff1916905551339285917ff6391f5c32d9c69d2a47ea670b442974b53935d1edc7fd64eb21e047a839171b9190a45050565b7f360894a13ba1a3210667c828492db98dca3e2076cc3735a920a3ca505d382bbc546001600160a01b031690565b60006105c18133610d2c565b6000610ec1610e7d565b9050610ecc84611241565b600083511180610ed95750815b15610eea57610ee884846112e6565b505b7f4910fdfa16fed3260ed0e7147f7cc6da11a60208b5b9406d12a635614ffd9143805460ff16610ffb57805460ff191660011781556040516001600160a01b0383166024820152610f6990869060440160408051601f198184030181529190526020810180516001600160e01b0316631b2ce7f360e11b1790526112e6565b50805460ff19168155610f7a610e7d565b6001600160a01b0316826001600160a01b031614610ff25760405162461bcd60e51b815260206004820152602f60248201527f45524331393637557067726164653a207570677261646520627265616b73206660448201526e75727468657220757067726164657360881b606482015260840161050d565b610ffb856113c8565b5050505050565b61100a611408565b611012611441565b61101d600033610d90565b6110477f139c2898040ef16910dc9f44dc697df79363da767d8bc92f2e310312b816e46d33610d90565b60fb55565b604080516001600160a01b038416602482015260448082018490528251808303909101815260649091019091526020810180516001600160e01b031663a9059cbb60e01b179052610542908490611470565b606060006110ad836002611b8c565b6110b8906002611bab565b67ffffffffffffffff8111156110d0576110d0611787565b6040519080825280601f01601f1916602001820160405280156110fa576020820181803683370190505b509050600360fc1b8160008151811061111557611115611ab4565b60200101906001600160f81b031916908160001a905350600f60fb1b8160018151811061114457611144611ab4565b60200101906001600160f81b031916908160001a9053506000611168846002611b8c565b611173906001611bab565b90505b60018111156111eb576f181899199a1a9b1b9c1cb0b131b232b360811b85600f16601081106111a7576111a7611ab4565b1a60f81b8282815181106111bd576111bd611ab4565b60200101906001600160f81b031916908160001a90535060049490941c936111e481611bc3565b9050611176565b50831561123a5760405162461bcd60e51b815260206004820181905260248201527f537472696e67733a20686578206c656e67746820696e73756666696369656e74604482015260640161050d565b9392505050565b803b6112a55760405162461bcd60e51b815260206004820152602d60248201527f455243313936373a206e657720696d706c656d656e746174696f6e206973206e60448201526c1bdd08184818dbdb9d1c9858dd609a1b606482015260840161050d565b7f360894a13ba1a3210667c828492db98dca3e2076cc3735a920a3ca505d382bbc80546001600160a01b0319166001600160a01b0392909216919091179055565b6060823b6113455760405162461bcd60e51b815260206004820152602660248201527f416464726573733a2064656c65676174652063616c6c20746f206e6f6e2d636f6044820152651b9d1c9858dd60d21b606482015260840161050d565b600080846001600160a01b0316846040516113609190611afb565b600060405180830381855af49150503d806000811461139b576040519150601f19603f3d011682016040523d82523d6000602084013e6113a0565b606091505b5091509150610c5f8282604051806060016040528060278152602001611c4860279139611542565b6113d181611241565b6040516001600160a01b038216907fbc7cd75a20ee27fd9adebab32041f755214dbc6bffa90cc0225b39da2e5c2d3b90600090a250565b600054610100900460ff1661142f5760405162461bcd60e51b815260040161050d90611bda565b61143761157b565b61143f61157b565b565b600054610100900460ff166114685760405162461bcd60e51b815260040161050d90611bda565b61142f61157b565b60006114c5826040518060400160405280602081526020017f5361666545524332303a206c6f772d6c6576656c2063616c6c206661696c6564815250856001600160a01b03166115a29092919063ffffffff16565b80519091501561054257808060200190518101906114e39190611c25565b6105425760405162461bcd60e51b815260206004820152602a60248201527f5361666545524332303a204552433230206f7065726174696f6e20646964206e6044820152691bdd081cdd58d8d9595960b21b606482015260840161050d565b6060831561155157508161123a565b8251156115615782518084602001fd5b8160405162461bcd60e51b815260040161050d91906119ab565b600054610100900460ff1661143f5760405162461bcd60e51b815260040161050d90611bda565b60606115b184846000856115b9565b949350505050565b60608247101561161a5760405162461bcd60e51b815260206004820152602660248201527f416464726573733a20696e73756666696369656e742062616c616e636520666f6044820152651c8818d85b1b60d21b606482015260840161050d565b843b6116685760405162461bcd60e51b815260206004820152601d60248201527f416464726573733a2063616c6c20746f206e6f6e2d636f6e7472616374000000604482015260640161050d565b600080866001600160a01b031685876040516116849190611afb565b60006040518083038185875af1925050503d80600081146116c1576040519150601f19603f3d011682016040523d82523d6000602084013e6116c6565b606091505b50915091506116d6828286611542565b979650505050505050565b6000602082840312156116f357600080fd5b81356001600160e01b03198116811461123a57600080fd5b80356001600160a01b038116811461172257600080fd5b919050565b60006020828403121561173957600080fd5b61123a8261170b565b60006020828403121561175457600080fd5b5035919050565b6000806040838503121561176e57600080fd5b8235915061177e6020840161170b565b90509250929050565b634e487b7160e01b600052604160045260246000fd5b604051601f8201601f1916810167ffffffffffffffff811182821017156117c6576117c6611787565b604052919050565b600080604083850312156117e157600080fd5b6117ea8361170b565b915060208084013567ffffffffffffffff8082111561180857600080fd5b818601915086601f83011261181c57600080fd5b81358181111561182e5761182e611787565b611840601f8201601f1916850161179d565b9150808252878482850101111561185657600080fd5b80848401858401376000848284010152508093505050509250929050565b6000806040838503121561188757600080fd5b823567ffffffffffffffff8082111561189f57600080fd5b818501915085601f8301126118b357600080fd5b81356020828211156118c7576118c7611787565b8160051b92506118d881840161179d565b82815292840181019281810190898511156118f257600080fd5b948201945b84861015611917576119088661170b565b825294820194908201906118f7565b9997909101359750505050505050565b60008060006060848603121561193c57600080fd5b505081359360208301359350604090920135919050565b60005b8381101561196e578181015183820152602001611956565b83811115610d205750506000910152565b60008151808452611997816020860160208601611953565b601f01601f19169290920160200192915050565b60208152600061123a602083018461197f565b600080604083850312156119d157600080fd5b50508035926020909101359150565b6000806000606084860312156119f557600080fd5b6119fe8461170b565b9250611a0c6020850161170b565b9150604084013590509250925092565b6020808252602c908201527f46756e6374696f6e206d7573742062652063616c6c6564207468726f7567682060408201526b19195b1959d85d1958d85b1b60a21b606082015260800190565b6020808252602c908201527f46756e6374696f6e206d7573742062652063616c6c6564207468726f7567682060408201526b6163746976652070726f787960a01b606082015260800190565b634e487b7160e01b600052603260045260246000fd5b634e487b7160e01b600052601160045260246000fd5b6000600019821415611af457611af4611aca565b5060010190565b60008251611b0d818460208701611953565b9190910192915050565b7f416363657373436f6e74726f6c3a206163636f756e7420000000000000000000815260008351611b4f816017850160208801611953565b7001034b99036b4b9b9b4b733903937b6329607d1b6017918401918201528351611b80816028840160208801611953565b01602801949350505050565b6000816000190483118215151615611ba657611ba6611aca565b500290565b60008219821115611bbe57611bbe611aca565b500190565b600081611bd257611bd2611aca565b506000190190565b6020808252602b908201527f496e697469616c697a61626c653a20636f6e7472616374206973206e6f74206960408201526a6e697469616c697a696e6760a81b606082015260800190565b600060208284031215611c3757600080fd5b8151801515811461123a57600080fdfe416464726573733a206c6f772d6c6576656c2064656c65676174652063616c6c206661696c6564ede9dcdb0ce99dc7cec9c7be9246ad08b37853683ad91569c187b647ddf5e21ca26469706673582212208e84d32fcb91ccfe937d71f31a75f851ed5557725d5646962ace0af42e3ea27164736f6c634300080a0033",
    "linkReferences": {}
  },
  "methodIdentifiers": {
    "DEFAULT_ADMIN_ROLE()": "a217fddf",
    "PAUSE_ROLE()": "389ed267",
    "TREASURY_MANAGER_ROLE()": "ebdf690f",
    "addSupportedToken(address)": "6d69fcaf",
    "adminDelegatecall(address,bytes)": "b8e9744c",
    "adminPause(uint256)": "2692c59f",
    "adminSstore(uint256,uint256)": "be831a2e",
    "adminSstoreWithMask(uint256,uint256,uint256)": "6c4624c3",
    "getRoleAdmin(bytes32)": "248a9ca3",
    "grantRole(bytes32,address)": "2f2ff15d",
    "hasRole(bytes32,address)": "91d14854",
    "initialize(address[],uint256)": "60b5bb3f",
    "isSupportedToken(address)": "240028e8",
    "newTreasury()": "4579b8b4",
    "paused()": "5c975abb",
    "payRewards(address,address,uint256)": "da0c1a88",
    "removeSupportedToken(address)": "76319190",
    "renounceRole(bytes32,address)": "36568abe",
    "revokeRole(bytes32,address)": "d547741f",
    "supportsInterface(bytes4)": "01ffc9a7",
    "upgradeTo(address)": "3659cfe6",
    "upgradeToAndCall(address,bytes)": "4f1ef286"
  },
  "id": 12
}