{
  "abi": [
    {
      "anonymous": false,
      "inputs": [
        {
          "indexed": false,
          "internalType": "address",
          "name": "previousAdmin",
          "type": "address"
        },
        {
          "indexed": false,
          "internalType": "address",
          "name": "newAdmin",
          "type": "address"
        }
      ],
      "name": "AdminChanged",
      "type": "event"
    },
    {
      "anonymous": false,
      "inputs": [
        {
          "indexed": true,
          "internalType": "address",
          "name": "beacon",
          "type": "address"
        }
      ],
      "name": "BeaconUpgraded",
      "type": "event"
    },
    {
      "anonymous": false,
      "inputs": [
        {
          "indexed": true,
          "internalType": "bytes32",
          "name": "role",
          "type": "bytes32"
        },
        {
          "indexed": true,
          "internalType": "bytes32",
          "name": "previousAdminRole",
          "type": "bytes32"
        },
        {
          "indexed": true,
          "internalType": "bytes32",
          "name": "newAdminRole",
          "type": "bytes32"
        }
      ],
      "name": "RoleAdminChanged",
      "type": "event"
    },
    {
      "anonymous": false,
      "inputs": [
        {
          "indexed": true,
          "internalType": "bytes32",
          "name": "role",
          "type": "bytes32"
        },
        {
          "indexed": true,
          "internalType": "address",
          "name": "account",
          "type": "address"
        },
        {
          "indexed": true,
          "internalType": "address",
          "name": "sender",
          "type": "address"
        }
      ],
      "name": "RoleGranted",
      "type": "event"
    },
    {
      "anonymous": false,
      "inputs": [
        {
          "indexed": true,
          "internalType": "bytes32",
          "name": "role",
          "type": "bytes32"
        },
        {
          "indexed": true,
          "internalType": "address",
          "name": "account",
          "type": "address"
        },
        {
          "indexed": true,
          "internalType": "address",
          "name": "sender",
          "type": "address"
        }
      ],
      "name": "RoleRevoked",
      "type": "event"
    },
    {
      "anonymous": false,
      "inputs": [
        {
          "indexed": true,
          "internalType": "address",
          "name": "implementation",
          "type": "address"
        }
      ],
      "name": "Upgraded",
      "type": "event"
    },
    {
      "inputs": [],
      "name": "DEFAULT_ADMIN_ROLE",
      "outputs": [
        {
          "internalType": "bytes32",
          "name": "",
          "type": "bytes32"
        }
      ],
      "stateMutability": "view",
      "type": "function"
    },
    {
      "inputs": [],
      "name": "PAUSE_ROLE",
      "outputs": [
        {
          "internalType": "bytes32",
          "name": "",
          "type": "bytes32"
        }
      ],
      "stateMutability": "view",
      "type": "function"
    },
    {
      "inputs": [
        {
          "internalType": "address",
          "name": "target",
          "type": "address"
        },
        {
          "internalType": "bytes",
          "name": "data",
          "type": "bytes"
        }
      ],
      "name": "adminDelegatecall",
      "outputs": [
        {
          "internalType": "bytes",
          "name": "",
          "type": "bytes"
        }
      ],
      "stateMutability": "payable",
      "type": "function"
    },
    {
      "inputs": [
        {
          "internalType": "uint256",
          "name": "flags",
          "type": "uint256"
        }
      ],
      "name": "adminPause",
      "outputs": [],
      "stateMutability": "nonpayable",
      "type": "function"
    },
    {
      "inputs": [
        {
          "internalType": "uint256",
          "name": "key",
          "type": "uint256"
        },
        {
          "internalType": "uint256",
          "name": "value",
          "type": "uint256"
        }
      ],
      "name": "adminSstore",
      "outputs": [],
      "stateMutability": "nonpayable",
      "type": "function"
    },
    {
      "inputs": [
        {
          "internalType": "uint256",
          "name": "key",
          "type": "uint256"
        },
        {
          "internalType": "uint256",
          "name": "value",
          "type": "uint256"
        },
        {
          "internalType": "uint256",
          "name": "mask",
          "type": "uint256"
        }
      ],
      "name": "adminSstoreWithMask",
      "outputs": [],
      "stateMutability": "nonpayable",
      "type": "function"
    },
    {
      "inputs": [
        {
          "internalType": "bytes32",
          "name": "role",
          "type": "bytes32"
        }
      ],
      "name": "getRoleAdmin",
      "outputs": [
        {
          "internalType": "bytes32",
          "name": "",
          "type": "bytes32"
        }
      ],
      "stateMutability": "view",
      "type": "function"
    },
    {
      "inputs": [
        {
          "internalType": "bytes32",
          "name": "role",
          "type": "bytes32"
        },
        {
          "internalType": "address",
          "name": "account",
          "type": "address"
        }
      ],
      "name": "grantRole",
      "outputs": [],
      "stateMutability": "nonpayable",
      "type": "function"
    },
    {
      "inputs": [
        {
          "internalType": "bytes32",
          "name": "role",
          "type": "bytes32"
        },
        {
          "internalType": "address",
          "name": "account",
          "type": "address"
        }
      ],
      "name": "hasRole",
      "outputs": [
        {
          "internalType": "bool",
          "name": "",
          "type": "bool"
        }
      ],
      "stateMutability": "view",
      "type": "function"
    },
    {
      "inputs": [],
      "name": "paused",
      "outputs": [
        {
          "internalType": "uint256",
          "name": "",
          "type": "uint256"
        }
      ],
      "stateMutability": "view",
      "type": "function"
    },
    {
      "inputs": [
        {
          "internalType": "bytes32",
          "name": "role",
          "type": "bytes32"
        },
        {
          "internalType": "address",
          "name": "account",
          "type": "address"
        }
      ],
      "name": "renounceRole",
      "outputs": [],
      "stateMutability": "nonpayable",
      "type": "function"
    },
    {
      "inputs": [
        {
          "internalType": "bytes32",
          "name": "role",
          "type": "bytes32"
        },
        {
          "internalType": "address",
          "name": "account",
          "type": "address"
        }
      ],
      "name": "revokeRole",
      "outputs": [],
      "stateMutability": "nonpayable",
      "type": "function"
    },
    {
      "inputs": [
        {
          "internalType": "bytes4",
          "name": "interfaceId",
          "type": "bytes4"
        }
      ],
      "name": "supportsInterface",
      "outputs": [
        {
          "internalType": "bool",
          "name": "",
          "type": "bool"
        }
      ],
      "stateMutability": "view",
      "type": "function"
    },
    {
      "inputs": [
        {
          "internalType": "address",
          "name": "newImplementation",
          "type": "address"
        }
      ],
      "name": "upgradeTo",
      "outputs": [],
      "stateMutability": "nonpayable",
      "type": "function"
    },
    {
      "inputs": [
        {
          "internalType": "address",
          "name": "newImplementation",
          "type": "address"
        },
        {
          "internalType": "bytes",
          "name": "data",
          "type": "bytes"
        }
      ],
      "name": "upgradeToAndCall",
      "outputs": [],
      "stateMutability": "payable",
      "type": "function"
    }
  ],
  "bytecode": {
    "object": "0x60a06040523060805234801561001457600080fd5b506080516111e161004560003960008181610479015281816104b901528181610542015261058201526111e16000f3fe6080604052600436106100e85760003560e01c80634f1ef2861161008a578063a217fddf11610059578063a217fddf1461027f578063b8e9744c14610294578063be831a2e146102b4578063d547741f146102d457600080fd5b80634f1ef286146102165780635c975abb146102295780636c4624c31461023f57806391d148541461025f57600080fd5b80632f2ff15d116100c65780632f2ff15d1461018257806336568abe146101a25780633659cfe6146101c2578063389ed267146101e257600080fd5b806301ffc9a7146100ed578063248a9ca3146101225780632692c59f14610160575b600080fd5b3480156100f957600080fd5b5061010d610108366004610da6565b6102f4565b60405190151581526020015b60405180910390f35b34801561012e57600080fd5b5061015261013d366004610dd0565b600090815260c9602052604090206001015490565b604051908152602001610119565b34801561016c57600080fd5b5061018061017b366004610dd0565b61032b565b005b34801561018e57600080fd5b5061018061019d366004610e05565b6103c5565b3480156101ae57600080fd5b506101806101bd366004610e05565b6103f0565b3480156101ce57600080fd5b506101806101dd366004610e31565b61046e565b3480156101ee57600080fd5b506101527f139c2898040ef16910dc9f44dc697df79363da767d8bc92f2e310312b816e46d81565b610180610224366004610e62565b610537565b34801561023557600080fd5b5061015260fb5481565b34801561024b57600080fd5b5061018061025a366004610f24565b6105ed565b34801561026b57600080fd5b5061010d61027a366004610e05565b610605565b34801561028b57600080fd5b50610152600081565b6102a76102a2366004610e62565b610630565b6040516101199190610fac565b3480156102c057600080fd5b506101806102cf366004610fbf565b6106f6565b3480156102e057600080fd5b506101806102ef366004610e05565b610707565b60006001600160e01b03198216637965db0b60e01b148061032557506301ffc9a760e01b6001600160e01b03198316145b92915050565b7f139c2898040ef16910dc9f44dc697df79363da767d8bc92f2e310312b816e46d610356813361072d565b60fb54828116148061036e575061036e600033610605565b6103bf5760405162461bcd60e51b815260206004820152601e60248201527f4f4e4c595f44454641554c545f41444d494e5f43414e5f554e5041555345000060448201526064015b60405180910390fd5b5060fb55565b600082815260c960205260409020600101546103e1813361072d565b6103eb8383610791565b505050565b6001600160a01b03811633146104605760405162461bcd60e51b815260206004820152602f60248201527f416363657373436f6e74726f6c3a2063616e206f6e6c792072656e6f756e636560448201526e103937b632b9903337b91039b2b63360891b60648201526084016103b6565b61046a8282610817565b5050565b306001600160a01b037f00000000000000000000000000000000000000000000000000000000000000001614156104b75760405162461bcd60e51b81526004016103b690610fe1565b7f00000000000000000000000000000000000000000000000000000000000000006001600160a01b03166104e961087e565b6001600160a01b03161461050f5760405162461bcd60e51b81526004016103b69061102d565b610518816108ac565b60408051600080825260208201909252610534918391906108b8565b50565b306001600160a01b037f00000000000000000000000000000000000000000000000000000000000000001614156105805760405162461bcd60e51b81526004016103b690610fe1565b7f00000000000000000000000000000000000000000000000000000000000000006001600160a01b03166105b261087e565b6001600160a01b0316146105d85760405162461bcd60e51b81526004016103b69061102d565b6105e1826108ac565b61046a828260016108b8565b60006105f9813361072d565b50825491821816189055565b600091825260c9602090815260408084206001600160a01b0393909316845291905290205460ff1690565b6060600061063e813361072d565b6001600160a01b0384166106835760405162461bcd60e51b815260206004820152600c60248201526b5a45524f5f4144445245535360a01b60448201526064016103b6565b600080856001600160a01b03168560405161069e9190611079565b600060405180830381855af49150503d80600081146106d9576040519150601f19603f3d011682016040523d82523d6000602084013e6106de565b606091505b5091509150816106ed57600080fd5b95945050505050565b6000610702813361072d565b509055565b600082815260c96020526040902060010154610723813361072d565b6103eb8383610817565b6107378282610605565b61046a5761074f816001600160a01b03166014610a03565b61075a836020610a03565b60405160200161076b929190611095565b60408051601f198184030181529082905262461bcd60e51b82526103b691600401610fac565b61079b8282610605565b61046a57600082815260c9602090815260408083206001600160a01b03851684529091529020805460ff191660011790556107d33390565b6001600160a01b0316816001600160a01b0316837f2f8788117e7eff1d82e926ec794901d17c78024a50270940304540a733656f0d60405160405180910390a45050565b6108218282610605565b1561046a57600082815260c9602090815260408083206001600160a01b0385168085529252808320805460ff1916905551339285917ff6391f5c32d9c69d2a47ea670b442974b53935d1edc7fd64eb21e047a839171b9190a45050565b7f360894a13ba1a3210667c828492db98dca3e2076cc3735a920a3ca505d382bbc546001600160a01b031690565b600061046a813361072d565b60006108c261087e565b90506108cd84610ba6565b6000835111806108da5750815b156108eb576108e98484610c4b565b505b7f4910fdfa16fed3260ed0e7147f7cc6da11a60208b5b9406d12a635614ffd9143805460ff166109fc57805460ff191660011781556040516001600160a01b038316602482015261096a90869060440160408051601f198184030181529190526020810180516001600160e01b0316631b2ce7f360e11b179052610c4b565b50805460ff1916815561097b61087e565b6001600160a01b0316826001600160a01b0316146109f35760405162461bcd60e51b815260206004820152602f60248201527f45524331393637557067726164653a207570677261646520627265616b73206660448201526e75727468657220757067726164657360881b60648201526084016103b6565b6109fc85610d2d565b5050505050565b60606000610a12836002611120565b610a1d90600261113f565b67ffffffffffffffff811115610a3557610a35610e4c565b6040519080825280601f01601f191660200182016040528015610a5f576020820181803683370190505b509050600360fc1b81600081518110610a7a57610a7a611157565b60200101906001600160f81b031916908160001a905350600f60fb1b81600181518110610aa957610aa9611157565b60200101906001600160f81b031916908160001a9053506000610acd846002611120565b610ad890600161113f565b90505b6001811115610b50576f181899199a1a9b1b9c1cb0b131b232b360811b85600f1660108110610b0c57610b0c611157565b1a60f81b828281518110610b2257610b22611157565b60200101906001600160f81b031916908160001a90535060049490941c93610b498161116d565b9050610adb565b508315610b9f5760405162461bcd60e51b815260206004820181905260248201527f537472696e67733a20686578206c656e67746820696e73756666696369656e7460448201526064016103b6565b9392505050565b803b610c0a5760405162461bcd60e51b815260206004820152602d60248201527f455243313936373a206e657720696d706c656d656e746174696f6e206973206e60448201526c1bdd08184818dbdb9d1c9858dd609a1b60648201526084016103b6565b7f360894a13ba1a3210667c828492db98dca3e2076cc3735a920a3ca505d382bbc80546001600160a01b0319166001600160a01b0392909216919091179055565b6060823b610caa5760405162461bcd60e51b815260206004820152602660248201527f416464726573733a2064656c65676174652063616c6c20746f206e6f6e2d636f6044820152651b9d1c9858dd60d21b60648201526084016103b6565b600080846001600160a01b031684604051610cc59190611079565b600060405180830381855af49150503d8060008114610d00576040519150601f19603f3d011682016040523d82523d6000602084013e610d05565b606091505b50915091506106ed828260405180606001604052806027815260200161118560279139610d6d565b610d3681610ba6565b6040516001600160a01b038216907fbc7cd75a20ee27fd9adebab32041f755214dbc6bffa90cc0225b39da2e5c2d3b90600090a250565b60608315610d7c575081610b9f565b825115610d8c5782518084602001fd5b8160405162461bcd60e51b81526004016103b69190610fac565b600060208284031215610db857600080fd5b81356001600160e01b031981168114610b9f57600080fd5b600060208284031215610de257600080fd5b5035919050565b80356001600160a01b0381168114610e0057600080fd5b919050565b60008060408385031215610e1857600080fd5b82359150610e2860208401610de9565b90509250929050565b600060208284031215610e4357600080fd5b610b9f82610de9565b634e487b7160e01b600052604160045260246000fd5b60008060408385031215610e7557600080fd5b610e7e83610de9565b9150602083013567ffffffffffffffff80821115610e9b57600080fd5b818501915085601f830112610eaf57600080fd5b813581811115610ec157610ec1610e4c565b604051601f8201601f19908116603f01168101908382118183101715610ee957610ee9610e4c565b81604052828152886020848701011115610f0257600080fd5b8260208601602083013760006020848301015280955050505050509250929050565b600080600060608486031215610f3957600080fd5b505081359360208301359350604090920135919050565b60005b83811015610f6b578181015183820152602001610f53565b83811115610f7a576000848401525b50505050565b60008151808452610f98816020860160208601610f50565b601f01601f19169290920160200192915050565b602081526000610b9f6020830184610f80565b60008060408385031215610fd257600080fd5b50508035926020909101359150565b6020808252602c908201527f46756e6374696f6e206d7573742062652063616c6c6564207468726f7567682060408201526b19195b1959d85d1958d85b1b60a21b606082015260800190565b6020808252602c908201527f46756e6374696f6e206d7573742062652063616c6c6564207468726f7567682060408201526b6163746976652070726f787960a01b606082015260800190565b6000825161108b818460208701610f50565b9190910192915050565b7f416363657373436f6e74726f6c3a206163636f756e74200000000000000000008152600083516110cd816017850160208801610f50565b7001034b99036b4b9b9b4b733903937b6329607d1b60179184019182015283516110fe816028840160208801610f50565b01602801949350505050565b634e487b7160e01b600052601160045260246000fd5b600081600019048311821515161561113a5761113a61110a565b500290565b600082198211156111525761115261110a565b500190565b634e487b7160e01b600052603260045260246000fd5b60008161117c5761117c61110a565b50600019019056fe416464726573733a206c6f772d6c6576656c2064656c65676174652063616c6c206661696c6564a26469706673582212204d4357471051f5af0c01f7960dae0d031b88e58e6f5e40b1fdcd9a6ebaad14ff64736f6c634300080a0033",
    "linkReferences": {}
  },
  "methodIdentifiers": {
    "DEFAULT_ADMIN_ROLE()": "a217fddf",
    "PAUSE_ROLE()": "389ed267",
    "adminDelegatecall(address,bytes)": "b8e9744c",
    "adminPause(uint256)": "2692c59f",
    "adminSstore(uint256,uint256)": "be831a2e",
    "adminSstoreWithMask(uint256,uint256,uint256)": "6c4624c3",
    "getRoleAdmin(bytes32)": "248a9ca3",
    "grantRole(bytes32,address)": "2f2ff15d",
    "hasRole(bytes32,address)": "91d14854",
    "paused()": "5c975abb",
    "renounceRole(bytes32,address)": "36568abe",
    "revokeRole(bytes32,address)": "d547741f",
    "supportsInterface(bytes4)": "01ffc9a7",
    "upgradeTo(address)": "3659cfe6",
    "upgradeToAndCall(address,bytes)": "4f1ef286"
  },
  "id": 0
}