{
  "abi": [
    {
      "anonymous": false,
      "inputs": [
        {
          "indexed": false,
          "internalType": "address",
          "name": "previousAdmin",
          "type": "address"
        },
        {
          "indexed": false,
          "internalType": "address",
          "name": "newAdmin",
          "type": "address"
        }
      ],
      "name": "AdminChanged",
      "type": "event"
    },
    {
      "anonymous": false,
      "inputs": [
        {
          "indexed": true,
          "internalType": "address",
          "name": "beacon",
          "type": "address"
        }
      ],
      "name": "BeaconUpgraded",
      "type": "event"
    },
    {
      "anonymous": false,
      "inputs": [
        {
          "indexed": false,
          "internalType": "uint8",
          "name": "version",
          "type": "uint8"
        }
      ],
      "name": "Initialized",
      "type": "event"
    },
    {
      "anonymous": false,
      "inputs": [
        {
          "indexed": true,
          "internalType": "bytes32",
          "name": "role",
          "type": "bytes32"
        },
        {
          "indexed": true,
          "internalType": "bytes32",
          "name": "previousAdminRole",
          "type": "bytes32"
        },
        {
          "indexed": true,
          "internalType": "bytes32",
          "name": "newAdminRole",
          "type": "bytes32"
        }
      ],
      "name": "RoleAdminChanged",
      "type": "event"
    },
    {
      "anonymous": false,
      "inputs": [
        {
          "indexed": true,
          "internalType": "bytes32",
          "name": "role",
          "type": "bytes32"
        },
        {
          "indexed": true,
          "internalType": "address",
          "name": "account",
          "type": "address"
        },
        {
          "indexed": true,
          "internalType": "address",
          "name": "sender",
          "type": "address"
        }
      ],
      "name": "RoleGranted",
      "type": "event"
    },
    {
      "anonymous": false,
      "inputs": [
        {
          "indexed": true,
          "internalType": "bytes32",
          "name": "role",
          "type": "bytes32"
        },
        {
          "indexed": true,
          "internalType": "address",
          "name": "account",
          "type": "address"
        },
        {
          "indexed": true,
          "internalType": "address",
          "name": "sender",
          "type": "address"
        }
      ],
      "name": "RoleRevoked",
      "type": "event"
    },
    {
      "anonymous": false,
      "inputs": [
        {
          "indexed": true,
          "internalType": "address",
          "name": "token",
          "type": "address"
        },
        {
          "indexed": true,
          "internalType": "address",
          "name": "addedBy",
          "type": "address"
        },
        {
          "indexed": false,
          "internalType": "uint256",
          "name": "timestamp",
          "type": "uint256"
        }
      ],
      "name": "TokenAdded",
      "type": "event"
    },
    {
      "anonymous": false,
      "inputs": [
        {
          "indexed": true,
          "internalType": "address",
          "name": "token",
          "type": "address"
        },
        {
          "indexed": true,
          "internalType": "address",
          "name": "addedBy",
          "type": "address"
        },
        {
          "indexed": false,
          "internalType": "uint256",
          "name": "timestamp",
          "type": "uint256"
        }
      ],
      "name": "TokenRemoved",
      "type": "event"
    },
    {
      "anonymous": false,
      "inputs": [
        {
          "indexed": true,
          "internalType": "address",
          "name": "implementation",
          "type": "address"
        }
      ],
      "name": "Upgraded",
      "type": "event"
    },
    {
      "inputs": [],
      "name": "DEFAULT_ADMIN_ROLE",
      "outputs": [
        {
          "internalType": "bytes32",
          "name": "",
          "type": "bytes32"
        }
      ],
      "stateMutability": "view",
      "type": "function"
    },
    {
      "inputs": [],
      "name": "PAUSE_ROLE",
      "outputs": [
        {
          "internalType": "bytes32",
          "name": "",
          "type": "bytes32"
        }
      ],
      "stateMutability": "view",
      "type": "function"
    },
    {
      "inputs": [],
      "name": "TREASURY_MANAGER_ROLE",
      "outputs": [
        {
          "internalType": "bytes32",
          "name": "",
          "type": "bytes32"
        }
      ],
      "stateMutability": "view",
      "type": "function"
    },
    {
      "inputs": [
        {
          "internalType": "address",
          "name": "_token",
          "type": "address"
        }
      ],
      "name": "addSupportedToken",
      "outputs": [],
      "stateMutability": "nonpayable",
      "type": "function"
    },
    {
      "inputs": [
        {
          "internalType": "address",
          "name": "target",
          "type": "address"
        },
        {
          "internalType": "bytes",
          "name": "data",
          "type": "bytes"
        }
      ],
      "name": "adminDelegatecall",
      "outputs": [
        {
          "internalType": "bytes",
          "name": "",
          "type": "bytes"
        }
      ],
      "stateMutability": "payable",
      "type": "function"
    },
    {
      "inputs": [
        {
          "internalType": "uint256",
          "name": "flags",
          "type": "uint256"
        }
      ],
      "name": "adminPause",
      "outputs": [],
      "stateMutability": "nonpayable",
      "type": "function"
    },
    {
      "inputs": [
        {
          "internalType": "uint256",
          "name": "key",
          "type": "uint256"
        },
        {
          "internalType": "uint256",
          "name": "value",
          "type": "uint256"
        }
      ],
      "name": "adminSstore",
      "outputs": [],
      "stateMutability": "nonpayable",
      "type": "function"
    },
    {
      "inputs": [
        {
          "internalType": "uint256",
          "name": "key",
          "type": "uint256"
        },
        {
          "internalType": "uint256",
          "name": "value",
          "type": "uint256"
        },
        {
          "internalType": "uint256",
          "name": "mask",
          "type": "uint256"
        }
      ],
      "name": "adminSstoreWithMask",
      "outputs": [],
      "stateMutability": "nonpayable",
      "type": "function"
    },
    {
      "inputs": [
        {
          "internalType": "bytes32",
          "name": "role",
          "type": "bytes32"
        }
      ],
      "name": "getRoleAdmin",
      "outputs": [
        {
          "internalType": "bytes32",
          "name": "",
          "type": "bytes32"
        }
      ],
      "stateMutability": "view",
      "type": "function"
    },
    {
      "inputs": [
        {
          "internalType": "bytes32",
          "name": "role",
          "type": "bytes32"
        },
        {
          "internalType": "address",
          "name": "account",
          "type": "address"
        }
      ],
      "name": "grantRole",
      "outputs": [],
      "stateMutability": "nonpayable",
      "type": "function"
    },
    {
      "inputs": [
        {
          "internalType": "bytes32",
          "name": "role",
          "type": "bytes32"
        },
        {
          "internalType": "address",
          "name": "account",
          "type": "address"
        }
      ],
      "name": "hasRole",
      "outputs": [
        {
          "internalType": "bool",
          "name": "",
          "type": "bool"
        }
      ],
      "stateMutability": "view",
      "type": "function"
    },
    {
      "inputs": [
        {
          "internalType": "address[]",
          "name": "_supportedTokens",
          "type": "address[]"
        },
        {
          "internalType": "uint256",
          "name": "_flags",
          "type": "uint256"
        }
      ],
      "name": "initialize",
      "outputs": [],
      "stateMutability": "nonpayable",
      "type": "function"
    },
    {
      "inputs": [
        {
          "internalType": "address",
          "name": "",
          "type": "address"
        }
      ],
      "name": "isSupportedToken",
      "outputs": [
        {
          "internalType": "bool",
          "name": "",
          "type": "bool"
        }
      ],
      "stateMutability": "view",
      "type": "function"
    },
    {
      "inputs": [],
      "name": "paused",
      "outputs": [
        {
          "internalType": "uint256",
          "name": "",
          "type": "uint256"
        }
      ],
      "stateMutability": "view",
      "type": "function"
    },
    {
      "inputs": [
        {
          "internalType": "address",
          "name": "_user",
          "type": "address"
        },
        {
          "internalType": "address",
          "name": "_token",
          "type": "address"
        },
        {
          "internalType": "uint256",
          "name": "_amount",
          "type": "uint256"
        }
      ],
      "name": "payRewards",
      "outputs": [],
      "stateMutability": "nonpayable",
      "type": "function"
    },
    {
      "inputs": [],
      "name": "proxiableUUID",
      "outputs": [
        {
          "internalType": "bytes32",
          "name": "",
          "type": "bytes32"
        }
      ],
      "stateMutability": "view",
      "type": "function"
    },
    {
      "inputs": [
        {
          "internalType": "address",
          "name": "_token",
          "type": "address"
        }
      ],
      "name": "removeSupportedToken",
      "outputs": [],
      "stateMutability": "nonpayable",
      "type": "function"
    },
    {
      "inputs": [
        {
          "internalType": "bytes32",
          "name": "role",
          "type": "bytes32"
        },
        {
          "internalType": "address",
          "name": "account",
          "type": "address"
        }
      ],
      "name": "renounceRole",
      "outputs": [],
      "stateMutability": "nonpayable",
      "type": "function"
    },
    {
      "inputs": [
        {
          "internalType": "bytes32",
          "name": "role",
          "type": "bytes32"
        },
        {
          "internalType": "address",
          "name": "account",
          "type": "address"
        }
      ],
      "name": "revokeRole",
      "outputs": [],
      "stateMutability": "nonpayable",
      "type": "function"
    },
    {
      "inputs": [
        {
          "internalType": "bytes4",
          "name": "interfaceId",
          "type": "bytes4"
        }
      ],
      "name": "supportsInterface",
      "outputs": [
        {
          "internalType": "bool",
          "name": "",
          "type": "bool"
        }
      ],
      "stateMutability": "view",
      "type": "function"
    },
    {
      "inputs": [
        {
          "internalType": "address",
          "name": "newImplementation",
          "type": "address"
        }
      ],
      "name": "upgradeTo",
      "outputs": [],
      "stateMutability": "nonpayable",
      "type": "function"
    },
    {
      "inputs": [
        {
          "internalType": "address",
          "name": "newImplementation",
          "type": "address"
        },
        {
          "internalType": "bytes",
          "name": "data",
          "type": "bytes"
        }
      ],
      "name": "upgradeToAndCall",
      "outputs": [],
      "stateMutability": "payable",
      "type": "function"
    }
  ],
  "bytecode": {
    "object": "0x60a06040523060805234801561001457600080fd5b50608051611db861004c600039600081816105ab015281816105eb0152818161068b015281816106cb015261075a0152611db86000f3fe6080604052600436106101355760003560e01c806360b5bb3f116100ab578063a217fddf1161006f578063a217fddf14610371578063b8e9744c14610386578063be831a2e146103a6578063d547741f146103c6578063da0c1a88146103e6578063ebdf690f1461040657600080fd5b806360b5bb3f146102d15780636c4624c3146102f15780636d69fcaf14610311578063763191901461033157806391d148541461035157600080fd5b806336568abe116100fd57806336568abe1461021f5780633659cfe61461023f578063389ed2671461025f5780634f1ef2861461029357806352d1902d146102a65780635c975abb146102bb57600080fd5b806301ffc9a71461013a578063240028e81461016f578063248a9ca31461019f5780632692c59f146101dd5780632f2ff15d146101ff575b600080fd5b34801561014657600080fd5b5061015a6101553660046117e7565b610428565b60405190151581526020015b60405180910390f35b34801561017b57600080fd5b5061015a61018a36600461182d565b60fc6020526000908152604090205460ff1681565b3480156101ab57600080fd5b506101cf6101ba366004611848565b600090815260c9602052604090206001015490565b604051908152602001610166565b3480156101e957600080fd5b506101fd6101f8366004611848565b61045f565b005b34801561020b57600080fd5b506101fd61021a366004611861565b6104f8565b34801561022b57600080fd5b506101fd61023a366004611861565b610522565b34801561024b57600080fd5b506101fd61025a36600461182d565b6105a0565b34801561026b57600080fd5b506101cf7f139c2898040ef16910dc9f44dc697df79363da767d8bc92f2e310312b816e46d81565b6101fd6102a13660046118d4565b610680565b3480156102b257600080fd5b506101cf61074d565b3480156102c757600080fd5b506101cf60fb5481565b3480156102dd57600080fd5b506101fd6102ec36600461197a565b610800565b3480156102fd57600080fd5b506101fd61030c366004611a2d565b610a08565b34801561031d57600080fd5b506101fd61032c36600461182d565b610a1f565b34801561033d57600080fd5b506101fd61034c36600461182d565b610b58565b34801561035d57600080fd5b5061015a61036c366004611861565b610c80565b34801561037d57600080fd5b506101cf600081565b6103996103943660046118d4565b610cab565b6040516101669190611ab1565b3480156103b257600080fd5b506101fd6103c1366004611ac4565b610d70565b3480156103d257600080fd5b506101fd6103e1366004611861565b610d80565b3480156103f257600080fd5b506101fd610401366004611ae6565b610da5565b34801561041257600080fd5b506101cf600080516020611d6383398151915281565b60006001600160e01b03198216637965db0b60e01b148061045957506301ffc9a760e01b6001600160e01b03198316145b92915050565b7f139c2898040ef16910dc9f44dc697df79363da767d8bc92f2e310312b816e46d61048981610e2b565b60fb5482811614806104a157506104a1600033610c80565b6104f25760405162461bcd60e51b815260206004820152601e60248201527f4f4e4c595f44454641554c545f41444d494e5f43414e5f554e5041555345000060448201526064015b60405180910390fd5b5060fb55565b600082815260c9602052604090206001015461051381610e2b565b61051d8383610e35565b505050565b6001600160a01b03811633146105925760405162461bcd60e51b815260206004820152602f60248201527f416363657373436f6e74726f6c3a2063616e206f6e6c792072656e6f756e636560448201526e103937b632b9903337b91039b2b63360891b60648201526084016104e9565b61059c8282610ebb565b5050565b306001600160a01b037f00000000000000000000000000000000000000000000000000000000000000001614156105e95760405162461bcd60e51b81526004016104e990611b22565b7f00000000000000000000000000000000000000000000000000000000000000006001600160a01b0316610632600080516020611d1c833981519152546001600160a01b031690565b6001600160a01b0316146106585760405162461bcd60e51b81526004016104e990611b6e565b61066181610f22565b6040805160008082526020820190925261067d91839190610f2d565b50565b306001600160a01b037f00000000000000000000000000000000000000000000000000000000000000001614156106c95760405162461bcd60e51b81526004016104e990611b22565b7f00000000000000000000000000000000000000000000000000000000000000006001600160a01b0316610712600080516020611d1c833981519152546001600160a01b031690565b6001600160a01b0316146107385760405162461bcd60e51b81526004016104e990611b6e565b61074182610f22565b61059c82826001610f2d565b6000306001600160a01b037f000000000000000000000000000000000000000000000000000000000000000016146107ed5760405162461bcd60e51b815260206004820152603860248201527f555550535570677261646561626c653a206d757374206e6f742062652063616c60448201527f6c6564207468726f7567682064656c656761746563616c6c000000000000000060648201526084016104e9565b50600080516020611d1c83398151915290565b600054610100900460ff16158080156108205750600054600160ff909116105b8061083a5750303b15801561083a575060005460ff166001145b61089d5760405162461bcd60e51b815260206004820152602e60248201527f496e697469616c697a61626c653a20636f6e747261637420697320616c72656160448201526d191e481a5b9a5d1a585b1a5e995960921b60648201526084016104e9565b6000805460ff1916600117905580156108c0576000805461ff0019166101001790555b60005b835181101561099c5760006001600160a01b03168482815181106108e9576108e9611bba565b60200260200101516001600160a01b031614156109405760405162461bcd60e51b8152602060048201526015602482015274494e56414c49445f544f4b454e5f4144445245535360581b60448201526064016104e9565b600160fc600086848151811061095857610958611bba565b6020908102919091018101516001600160a01b03168252810191909152604001600020805460ff19169115159190911790558061099481611be6565b9150506108c3565b506109a682611098565b6109be600080516020611d6383398151915233610e35565b801561051d576000805461ff0019169055604051600181527f7f26b83ff96e1f2b6a682f133852f6798a09c465da95921460cefb38474024989060200160405180910390a1505050565b6000610a1381610e2b565b50825491821816189055565b60018060fb541660001480610a3a5750610a3a600033610c80565b610a7b5760405162461bcd60e51b815260206004820152601260248201527110d3d395149050d517d254d7d4105554d15160721b60448201526064016104e9565b600080516020611d63833981519152610a9381610e2b565b6001600160a01b038316600090815260fc602052604090205460ff1615610af35760405162461bcd60e51b8152602060048201526014602482015273544f4b454e5f414c52454144595f45584953545360601b60448201526064016104e9565b6001600160a01b038316600081815260fc602052604090819020805460ff19166001179055513391907f7156d0b8d9ed8d1117b97d76a15a304bad2749fc23251c2c7ed65a069895285090610b4b9042815260200190565b60405180910390a3505050565b60018060fb541660001480610b735750610b73600033610c80565b610bb45760405162461bcd60e51b815260206004820152601260248201527110d3d395149050d517d254d7d4105554d15160721b60448201526064016104e9565b600080516020611d63833981519152610bcc81610e2b565b6001600160a01b038316600090815260fc602052604090205460ff16610c2b5760405162461bcd60e51b81526020600482015260146024820152731513d2d15397d113d154d7d393d517d1561254d560621b60448201526064016104e9565b6001600160a01b038316600081815260fc602052604090819020805460ff19169055513391907feddce3117927831e55f862ee4b16c60ba431908fc8404f5a2d40c2ac163c3b1490610b4b9042815260200190565b600091825260c9602090815260408084206001600160a01b0393909316845291905290205460ff1690565b60606000610cb881610e2b565b6001600160a01b038416610cfd5760405162461bcd60e51b815260206004820152600c60248201526b5a45524f5f4144445245535360a01b60448201526064016104e9565b600080856001600160a01b031685604051610d189190611c01565b600060405180830381855af49150503d8060008114610d53576040519150601f19603f3d011682016040523d82523d6000602084013e610d58565b606091505b509150915081610d6757600080fd5b95945050505050565b6000610d7b81610e2b565b509055565b600082815260c96020526040902060010154610d9b81610e2b565b61051d8383610ebb565b6000610db081610e2b565b6001600160a01b038316600090815260fc602052604090205460ff16610e115760405162461bcd60e51b81526020600482015260166024820152751513d2d15397d254d7d393d517d4d5541413d495115160521b60448201526064016104e9565b610e256001600160a01b03841685846110e2565b50505050565b61067d8133611134565b610e3f8282610c80565b61059c57600082815260c9602090815260408083206001600160a01b03851684529091529020805460ff19166001179055610e773390565b6001600160a01b0316816001600160a01b0316837f2f8788117e7eff1d82e926ec794901d17c78024a50270940304540a733656f0d60405160405180910390a45050565b610ec58282610c80565b1561059c57600082815260c9602090815260408083206001600160a01b0385168085529252808320805460ff1916905551339285917ff6391f5c32d9c69d2a47ea670b442974b53935d1edc7fd64eb21e047a839171b9190a45050565b600061059c81610e2b565b7f4910fdfa16fed3260ed0e7147f7cc6da11a60208b5b9406d12a635614ffd91435460ff1615610f605761051d83611198565b826001600160a01b03166352d1902d6040518163ffffffff1660e01b8152600401602060405180830381865afa925050508015610fba575060408051601f3d908101601f19168201909252610fb791810190611c1d565b60015b61101d5760405162461bcd60e51b815260206004820152602e60248201527f45524331393637557067726164653a206e657720696d706c656d656e7461746960448201526d6f6e206973206e6f74205555505360901b60648201526084016104e9565b600080516020611d1c833981519152811461108c5760405162461bcd60e51b815260206004820152602960248201527f45524331393637557067726164653a20756e737570706f727465642070726f786044820152681a58589b195555525160ba1b60648201526084016104e9565b5061051d838383611234565b6110a0611259565b6110a8611259565b6110b3600033610e35565b6110dd7f139c2898040ef16910dc9f44dc697df79363da767d8bc92f2e310312b816e46d33610e35565b60fb55565b604080516001600160a01b038416602482015260448082018490528251808303909101815260649091019091526020810180516001600160e01b031663a9059cbb60e01b17905261051d9084906112c6565b61113e8282610c80565b61059c57611156816001600160a01b03166014611398565b611161836020611398565b604051602001611172929190611c36565b60408051601f198184030181529082905262461bcd60e51b82526104e991600401611ab1565b6001600160a01b0381163b6112055760405162461bcd60e51b815260206004820152602d60248201527f455243313936373a206e657720696d706c656d656e746174696f6e206973206e60448201526c1bdd08184818dbdb9d1c9858dd609a1b60648201526084016104e9565b600080516020611d1c83398151915280546001600160a01b0319166001600160a01b0392909216919091179055565b61123d8361153b565b60008251118061124a5750805b1561051d57610e25838361157b565b600054610100900460ff166112c45760405162461bcd60e51b815260206004820152602b60248201527f496e697469616c697a61626c653a20636f6e7472616374206973206e6f74206960448201526a6e697469616c697a696e6760a81b60648201526084016104e9565b565b600061131b826040518060400160405280602081526020017f5361666545524332303a206c6f772d6c6576656c2063616c6c206661696c6564815250856001600160a01b03166116669092919063ffffffff16565b80519091501561051d57808060200190518101906113399190611cab565b61051d5760405162461bcd60e51b815260206004820152602a60248201527f5361666545524332303a204552433230206f7065726174696f6e20646964206e6044820152691bdd081cdd58d8d9595960b21b60648201526084016104e9565b606060006113a7836002611ccd565b6113b2906002611cec565b67ffffffffffffffff8111156113ca576113ca61188d565b6040519080825280601f01601f1916602001820160405280156113f4576020820181803683370190505b509050600360fc1b8160008151811061140f5761140f611bba565b60200101906001600160f81b031916908160001a905350600f60fb1b8160018151811061143e5761143e611bba565b60200101906001600160f81b031916908160001a9053506000611462846002611ccd565b61146d906001611cec565b90505b60018111156114e5576f181899199a1a9b1b9c1cb0b131b232b360811b85600f16601081106114a1576114a1611bba565b1a60f81b8282815181106114b7576114b7611bba565b60200101906001600160f81b031916908160001a90535060049490941c936114de81611d04565b9050611470565b5083156115345760405162461bcd60e51b815260206004820181905260248201527f537472696e67733a20686578206c656e67746820696e73756666696369656e7460448201526064016104e9565b9392505050565b61154481611198565b6040516001600160a01b038216907fbc7cd75a20ee27fd9adebab32041f755214dbc6bffa90cc0225b39da2e5c2d3b90600090a250565b60606001600160a01b0383163b6115e35760405162461bcd60e51b815260206004820152602660248201527f416464726573733a2064656c65676174652063616c6c20746f206e6f6e2d636f6044820152651b9d1c9858dd60d21b60648201526084016104e9565b600080846001600160a01b0316846040516115fe9190611c01565b600060405180830381855af49150503d8060008114611639576040519150601f19603f3d011682016040523d82523d6000602084013e61163e565b606091505b5091509150610d678282604051806060016040528060278152602001611d3c6027913961167d565b606061167584846000856116b6565b949350505050565b6060831561168c575081611534565b82511561169c5782518084602001fd5b8160405162461bcd60e51b81526004016104e99190611ab1565b6060824710156117175760405162461bcd60e51b815260206004820152602660248201527f416464726573733a20696e73756666696369656e742062616c616e636520666f6044820152651c8818d85b1b60d21b60648201526084016104e9565b6001600160a01b0385163b61176e5760405162461bcd60e51b815260206004820152601d60248201527f416464726573733a2063616c6c20746f206e6f6e2d636f6e747261637400000060448201526064016104e9565b600080866001600160a01b0316858760405161178a9190611c01565b60006040518083038185875af1925050503d80600081146117c7576040519150601f19603f3d011682016040523d82523d6000602084013e6117cc565b606091505b50915091506117dc82828661167d565b979650505050505050565b6000602082840312156117f957600080fd5b81356001600160e01b03198116811461153457600080fd5b80356001600160a01b038116811461182857600080fd5b919050565b60006020828403121561183f57600080fd5b61153482611811565b60006020828403121561185a57600080fd5b5035919050565b6000806040838503121561187457600080fd5b8235915061188460208401611811565b90509250929050565b634e487b7160e01b600052604160045260246000fd5b604051601f8201601f1916810167ffffffffffffffff811182821017156118cc576118cc61188d565b604052919050565b600080604083850312156118e757600080fd5b6118f083611811565b915060208084013567ffffffffffffffff8082111561190e57600080fd5b818601915086601f83011261192257600080fd5b8135818111156119345761193461188d565b611946601f8201601f191685016118a3565b9150808252878482850101111561195c57600080fd5b80848401858401376000848284010152508093505050509250929050565b6000806040838503121561198d57600080fd5b823567ffffffffffffffff808211156119a557600080fd5b818501915085601f8301126119b957600080fd5b81356020828211156119cd576119cd61188d565b8160051b92506119de8184016118a3565b82815292840181019281810190898511156119f857600080fd5b948201945b84861015611a1d57611a0e86611811565b825294820194908201906119fd565b9997909101359750505050505050565b600080600060608486031215611a4257600080fd5b505081359360208301359350604090920135919050565b60005b83811015611a74578181015183820152602001611a5c565b83811115610e255750506000910152565b60008151808452611a9d816020860160208601611a59565b601f01601f19169290920160200192915050565b6020815260006115346020830184611a85565b60008060408385031215611ad757600080fd5b50508035926020909101359150565b600080600060608486031215611afb57600080fd5b611b0484611811565b9250611b1260208501611811565b9150604084013590509250925092565b6020808252602c908201527f46756e6374696f6e206d7573742062652063616c6c6564207468726f7567682060408201526b19195b1959d85d1958d85b1b60a21b606082015260800190565b6020808252602c908201527f46756e6374696f6e206d7573742062652063616c6c6564207468726f7567682060408201526b6163746976652070726f787960a01b606082015260800190565b634e487b7160e01b600052603260045260246000fd5b634e487b7160e01b600052601160045260246000fd5b6000600019821415611bfa57611bfa611bd0565b5060010190565b60008251611c13818460208701611a59565b9190910192915050565b600060208284031215611c2f57600080fd5b5051919050565b7f416363657373436f6e74726f6c3a206163636f756e7420000000000000000000815260008351611c6e816017850160208801611a59565b7001034b99036b4b9b9b4b733903937b6329607d1b6017918401918201528351611c9f816028840160208801611a59565b01602801949350505050565b600060208284031215611cbd57600080fd5b8151801515811461153457600080fd5b6000816000190483118215151615611ce757611ce7611bd0565b500290565b60008219821115611cff57611cff611bd0565b500190565b600081611d1357611d13611bd0565b50600019019056fe360894a13ba1a3210667c828492db98dca3e2076cc3735a920a3ca505d382bbc416464726573733a206c6f772d6c6576656c2064656c65676174652063616c6c206661696c6564ede9dcdb0ce99dc7cec9c7be9246ad08b37853683ad91569c187b647ddf5e21ca26469706673582212207e9b88613499525f3fc2f8c0564ca7e54e015c5d53e4b28a79919ce3bfebeca364736f6c634300080a0033",
    "linkReferences": {}
  },
  "methodIdentifiers": {
    "DEFAULT_ADMIN_ROLE()": "a217fddf",
    "PAUSE_ROLE()": "389ed267",
    "TREASURY_MANAGER_ROLE()": "ebdf690f",
    "addSupportedToken(address)": "6d69fcaf",
    "adminDelegatecall(address,bytes)": "b8e9744c",
    "adminPause(uint256)": "2692c59f",
    "adminSstore(uint256,uint256)": "be831a2e",
    "adminSstoreWithMask(uint256,uint256,uint256)": "6c4624c3",
    "getRoleAdmin(bytes32)": "248a9ca3",
    "grantRole(bytes32,address)": "2f2ff15d",
    "hasRole(bytes32,address)": "91d14854",
    "initialize(address[],uint256)": "60b5bb3f",
    "isSupportedToken(address)": "240028e8",
    "paused()": "5c975abb",
    "payRewards(address,address,uint256)": "da0c1a88",
    "proxiableUUID()": "52d1902d",
    "removeSupportedToken(address)": "76319190",
    "renounceRole(bytes32,address)": "36568abe",
    "revokeRole(bytes32,address)": "d547741f",
    "supportsInterface(bytes4)": "01ffc9a7",
    "upgradeTo(address)": "3659cfe6",
    "upgradeToAndCall(address,bytes)": "4f1ef286"
  },
  "id": 29
}