{
  "abi": [
    {
      "anonymous": false,
      "inputs": [
        {
          "indexed": false,
          "internalType": "address",
          "name": "previousAdmin",
          "type": "address"
        },
        {
          "indexed": false,
          "internalType": "address",
          "name": "newAdmin",
          "type": "address"
        }
      ],
      "name": "AdminChanged",
      "type": "event"
    },
    {
      "anonymous": false,
      "inputs": [
        {
          "indexed": true,
          "internalType": "address",
          "name": "beacon",
          "type": "address"
        }
      ],
      "name": "BeaconUpgraded",
      "type": "event"
    },
    {
      "anonymous": false,
      "inputs": [
        {
          "indexed": true,
          "internalType": "uint256",
          "name": "streamId",
          "type": "uint256"
        },
        {
          "indexed": true,
          "internalType": "address",
          "name": "user",
          "type": "address"
        },
        {
          "indexed": false,
          "internalType": "uint256",
          "name": "amount",
          "type": "uint256"
        }
      ],
      "name": "Pending",
      "type": "event"
    },
    {
      "anonymous": false,
      "inputs": [
        {
          "indexed": true,
          "internalType": "uint256",
          "name": "streamId",
          "type": "uint256"
        },
        {
          "indexed": true,
          "internalType": "address",
          "name": "user",
          "type": "address"
        },
        {
          "indexed": false,
          "internalType": "uint256",
          "name": "amount",
          "type": "uint256"
        }
      ],
      "name": "Released",
      "type": "event"
    },
    {
      "anonymous": false,
      "inputs": [
        {
          "indexed": true,
          "internalType": "bytes32",
          "name": "role",
          "type": "bytes32"
        },
        {
          "indexed": true,
          "internalType": "bytes32",
          "name": "previousAdminRole",
          "type": "bytes32"
        },
        {
          "indexed": true,
          "internalType": "bytes32",
          "name": "newAdminRole",
          "type": "bytes32"
        }
      ],
      "name": "RoleAdminChanged",
      "type": "event"
    },
    {
      "anonymous": false,
      "inputs": [
        {
          "indexed": true,
          "internalType": "bytes32",
          "name": "role",
          "type": "bytes32"
        },
        {
          "indexed": true,
          "internalType": "address",
          "name": "account",
          "type": "address"
        },
        {
          "indexed": true,
          "internalType": "address",
          "name": "sender",
          "type": "address"
        }
      ],
      "name": "RoleGranted",
      "type": "event"
    },
    {
      "anonymous": false,
      "inputs": [
        {
          "indexed": true,
          "internalType": "bytes32",
          "name": "role",
          "type": "bytes32"
        },
        {
          "indexed": true,
          "internalType": "address",
          "name": "account",
          "type": "address"
        },
        {
          "indexed": true,
          "internalType": "address",
          "name": "sender",
          "type": "address"
        }
      ],
      "name": "RoleRevoked",
      "type": "event"
    },
    {
      "anonymous": false,
      "inputs": [
        {
          "indexed": true,
          "internalType": "address",
          "name": "user",
          "type": "address"
        },
        {
          "indexed": false,
          "internalType": "uint256",
          "name": "amount",
          "type": "uint256"
        },
        {
          "indexed": false,
          "internalType": "uint256",
          "name": "shares",
          "type": "uint256"
        }
      ],
      "name": "Staked",
      "type": "event"
    },
    {
      "anonymous": false,
      "inputs": [
        {
          "indexed": true,
          "internalType": "uint256",
          "name": "streamId",
          "type": "uint256"
        },
        {
          "indexed": true,
          "internalType": "address",
          "name": "owner",
          "type": "address"
        },
        {
          "indexed": true,
          "internalType": "address",
          "name": "token",
          "type": "address"
        },
        {
          "indexed": false,
          "internalType": "uint256",
          "name": "tokenAmount",
          "type": "uint256"
        },
        {
          "indexed": false,
          "internalType": "uint256",
          "name": "auroraAmount",
          "type": "uint256"
        }
      ],
      "name": "StreamCreated",
      "type": "event"
    },
    {
      "anonymous": false,
      "inputs": [
        {
          "indexed": true,
          "internalType": "uint256",
          "name": "streamId",
          "type": "uint256"
        },
        {
          "indexed": true,
          "internalType": "address",
          "name": "owner",
          "type": "address"
        },
        {
          "indexed": false,
          "internalType": "uint256",
          "name": "amount",
          "type": "uint256"
        }
      ],
      "name": "StreamOwnerRewardReleased",
      "type": "event"
    },
    {
      "anonymous": false,
      "inputs": [
        {
          "indexed": true,
          "internalType": "uint256",
          "name": "streamId",
          "type": "uint256"
        },
        {
          "indexed": true,
          "internalType": "address",
          "name": "owner",
          "type": "address"
        },
        {
          "indexed": true,
          "internalType": "address",
          "name": "token",
          "type": "address"
        }
      ],
      "name": "StreamProposalCancelled",
      "type": "event"
    },
    {
      "anonymous": false,
      "inputs": [
        {
          "indexed": true,
          "internalType": "uint256",
          "name": "streamId",
          "type": "uint256"
        },
        {
          "indexed": true,
          "internalType": "address",
          "name": "owner",
          "type": "address"
        },
        {
          "indexed": true,
          "internalType": "address",
          "name": "token",
          "type": "address"
        },
        {
          "indexed": false,
          "internalType": "uint256",
          "name": "maxDepositAmount",
          "type": "uint256"
        },
        {
          "indexed": false,
          "internalType": "uint256",
          "name": "auroraDepositAmount",
          "type": "uint256"
        }
      ],
      "name": "StreamProposed",
      "type": "event"
    },
    {
      "anonymous": false,
      "inputs": [
        {
          "indexed": true,
          "internalType": "uint256",
          "name": "streamId",
          "type": "uint256"
        },
        {
          "indexed": true,
          "internalType": "address",
          "name": "owner",
          "type": "address"
        },
        {
          "indexed": true,
          "internalType": "address",
          "name": "token",
          "type": "address"
        }
      ],
      "name": "StreamRemoved",
      "type": "event"
    },
    {
      "anonymous": false,
      "inputs": [
        {
          "indexed": true,
          "internalType": "address",
          "name": "user",
          "type": "address"
        },
        {
          "indexed": false,
          "internalType": "uint256",
          "name": "amount",
          "type": "uint256"
        }
      ],
      "name": "Unstaked",
      "type": "event"
    },
    {
      "anonymous": false,
      "inputs": [
        {
          "indexed": true,
          "internalType": "address",
          "name": "implementation",
          "type": "address"
        }
      ],
      "name": "Upgraded",
      "type": "event"
    },
    {
      "inputs": [],
      "name": "AIRDROP_ROLE",
      "outputs": [
        {
          "internalType": "bytes32",
          "name": "",
          "type": "bytes32"
        }
      ],
      "stateMutability": "view",
      "type": "function"
    },
    {
      "inputs": [],
      "name": "CLAIM_ROLE",
      "outputs": [
        {
          "internalType": "bytes32",
          "name": "",
          "type": "bytes32"
        }
      ],
      "stateMutability": "view",
      "type": "function"
    },
    {
      "inputs": [],
      "name": "DEFAULT_ADMIN_ROLE",
      "outputs": [
        {
          "internalType": "bytes32",
          "name": "",
          "type": "bytes32"
        }
      ],
      "stateMutability": "view",
      "type": "function"
    },
    {
      "inputs": [],
      "name": "FOUR_YEARS",
      "outputs": [
        {
          "internalType": "uint256",
          "name": "",
          "type": "uint256"
        }
      ],
      "stateMutability": "view",
      "type": "function"
    },
    {
      "inputs": [],
      "name": "ONE_MONTH",
      "outputs": [
        {
          "internalType": "uint256",
          "name": "",
          "type": "uint256"
        }
      ],
      "stateMutability": "view",
      "type": "function"
    },
    {
      "inputs": [],
      "name": "PAUSE_ROLE",
      "outputs": [
        {
          "internalType": "bytes32",
          "name": "",
          "type": "bytes32"
        }
      ],
      "stateMutability": "view",
      "type": "function"
    },
    {
      "inputs": [],
      "name": "STREAM_MANAGER_ROLE",
      "outputs": [
        {
          "internalType": "bytes32",
          "name": "",
          "type": "bytes32"
        }
      ],
      "stateMutability": "view",
      "type": "function"
    },
    {
      "inputs": [
        {
          "internalType": "address",
          "name": "target",
          "type": "address"
        },
        {
          "internalType": "bytes",
          "name": "data",
          "type": "bytes"
        }
      ],
      "name": "adminDelegatecall",
      "outputs": [
        {
          "internalType": "bytes",
          "name": "",
          "type": "bytes"
        }
      ],
      "stateMutability": "payable",
      "type": "function"
    },
    {
      "inputs": [
        {
          "internalType": "uint256",
          "name": "flags",
          "type": "uint256"
        }
      ],
      "name": "adminPause",
      "outputs": [],
      "stateMutability": "nonpayable",
      "type": "function"
    },
    {
      "inputs": [
        {
          "internalType": "uint256",
          "name": "key",
          "type": "uint256"
        },
        {
          "internalType": "uint256",
          "name": "value",
          "type": "uint256"
        }
      ],
      "name": "adminSstore",
      "outputs": [],
      "stateMutability": "nonpayable",
      "type": "function"
    },
    {
      "inputs": [
        {
          "internalType": "uint256",
          "name": "key",
          "type": "uint256"
        },
        {
          "internalType": "uint256",
          "name": "value",
          "type": "uint256"
        },
        {
          "internalType": "uint256",
          "name": "mask",
          "type": "uint256"
        }
      ],
      "name": "adminSstoreWithMask",
      "outputs": [],
      "stateMutability": "nonpayable",
      "type": "function"
    },
    {
      "inputs": [],
      "name": "auroraToken",
      "outputs": [
        {
          "internalType": "address",
          "name": "",
          "type": "address"
        }
      ],
      "stateMutability": "view",
      "type": "function"
    },
    {
      "inputs": [
        {
          "internalType": "address",
          "name": "account",
          "type": "address"
        },
        {
          "internalType": "uint256[]",
          "name": "streamIds",
          "type": "uint256[]"
        }
      ],
      "name": "batchClaimOnBehalfOfAnotherUser",
      "outputs": [],
      "stateMutability": "nonpayable",
      "type": "function"
    },
    {
      "inputs": [
        {
          "internalType": "address[]",
          "name": "accounts",
          "type": "address[]"
        },
        {
          "internalType": "uint256[]",
          "name": "streamIds",
          "type": "uint256[]"
        }
      ],
      "name": "batchClaimOnBehalfOfOtherUsers",
      "outputs": [],
      "stateMutability": "nonpayable",
      "type": "function"
    },
    {
      "inputs": [
        {
          "internalType": "uint256[]",
          "name": "streamIds",
          "type": "uint256[]"
        }
      ],
      "name": "batchMoveRewardsToPending",
      "outputs": [],
      "stateMutability": "nonpayable",
      "type": "function"
    },
    {
      "inputs": [
        {
          "internalType": "uint256[]",
          "name": "streamIds",
          "type": "uint256[]"
        }
      ],
      "name": "batchWithdraw",
      "outputs": [],
      "stateMutability": "nonpayable",
      "type": "function"
    },
    {
      "inputs": [
        {
          "internalType": "uint256",
          "name": "streamId",
          "type": "uint256"
        }
      ],
      "name": "cancelStreamProposal",
      "outputs": [],
      "stateMutability": "nonpayable",
      "type": "function"
    },
    {
      "inputs": [
        {
          "internalType": "address",
          "name": "account",
          "type": "address"
        }
      ],
      "name": "claimAllOnBehalfOfAnotherUser",
      "outputs": [],
      "stateMutability": "nonpayable",
      "type": "function"
    },
    {
      "inputs": [
        {
          "internalType": "address[]",
          "name": "accounts",
          "type": "address[]"
        }
      ],
      "name": "claimAllOnBehalfOfOtherUsers",
      "outputs": [],
      "stateMutability": "nonpayable",
      "type": "function"
    },
    {
      "inputs": [
        {
          "internalType": "address",
          "name": "account",
          "type": "address"
        },
        {
          "internalType": "uint256",
          "name": "streamId",
          "type": "uint256"
        }
      ],
      "name": "claimOnBehalfOfAnotherUser",
      "outputs": [],
      "stateMutability": "nonpayable",
      "type": "function"
    },
    {
      "inputs": [
        {
          "internalType": "uint256",
          "name": "streamId",
          "type": "uint256"
        },
        {
          "internalType": "uint256",
          "name": "rewardTokenAmount",
          "type": "uint256"
        }
      ],
      "name": "createStream",
      "outputs": [],
      "stateMutability": "nonpayable",
      "type": "function"
    },
    {
      "inputs": [
        {
          "internalType": "uint256",
          "name": "streamId",
          "type": "uint256"
        },
        {
          "internalType": "address",
          "name": "account",
          "type": "address"
        }
      ],
      "name": "getAmountOfShares",
      "outputs": [
        {
          "internalType": "uint256",
          "name": "",
          "type": "uint256"
        }
      ],
      "stateMutability": "view",
      "type": "function"
    },
    {
      "inputs": [
        {
          "internalType": "uint256",
          "name": "streamId",
          "type": "uint256"
        }
      ],
      "name": "getLatestRewardPerShare",
      "outputs": [
        {
          "internalType": "uint256",
          "name": "",
          "type": "uint256"
        }
      ],
      "stateMutability": "view",
      "type": "function"
    },
    {
      "inputs": [
        {
          "internalType": "uint256",
          "name": "streamId",
          "type": "uint256"
        },
        {
          "internalType": "address",
          "name": "account",
          "type": "address"
        }
      ],
      "name": "getPending",
      "outputs": [
        {
          "internalType": "uint256",
          "name": "",
          "type": "uint256"
        }
      ],
      "stateMutability": "view",
      "type": "function"
    },
    {
      "inputs": [
        {
          "internalType": "uint256",
          "name": "streamId",
          "type": "uint256"
        },
        {
          "internalType": "address",
          "name": "account",
          "type": "address"
        }
      ],
      "name": "getReleaseTime",
      "outputs": [
        {
          "internalType": "uint256",
          "name": "",
          "type": "uint256"
        }
      ],
      "stateMutability": "view",
      "type": "function"
    },
    {
      "inputs": [
        {
          "internalType": "uint256",
          "name": "streamId",
          "type": "uint256"
        }
      ],
      "name": "getRewardPerShare",
      "outputs": [
        {
          "internalType": "uint256",
          "name": "",
          "type": "uint256"
        }
      ],
      "stateMutability": "view",
      "type": "function"
    },
    {
      "inputs": [
        {
          "internalType": "uint256",
          "name": "streamId",
          "type": "uint256"
        },
        {
          "internalType": "address",
          "name": "account",
          "type": "address"
        }
      ],
      "name": "getRewardPerShareForUser",
      "outputs": [
        {
          "internalType": "uint256",
          "name": "",
          "type": "uint256"
        }
      ],
      "stateMutability": "view",
      "type": "function"
    },
    {
      "inputs": [
        {
          "internalType": "uint256",
          "name": "streamId",
          "type": "uint256"
        },
        {
          "internalType": "uint256",
          "name": "lastUpdate",
          "type": "uint256"
        }
      ],
      "name": "getRewardsAmount",
      "outputs": [
        {
          "internalType": "uint256",
          "name": "",
          "type": "uint256"
        }
      ],
      "stateMutability": "view",
      "type": "function"
    },
    {
      "inputs": [
        {
          "internalType": "bytes32",
          "name": "role",
          "type": "bytes32"
        }
      ],
      "name": "getRoleAdmin",
      "outputs": [
        {
          "internalType": "bytes32",
          "name": "",
          "type": "bytes32"
        }
      ],
      "stateMutability": "view",
      "type": "function"
    },
    {
      "inputs": [
        {
          "internalType": "uint256",
          "name": "streamId",
          "type": "uint256"
        }
      ],
      "name": "getStream",
      "outputs": [
        {
          "internalType": "address",
          "name": "streamOwner",
          "type": "address"
        },
        {
          "internalType": "address",
          "name": "rewardToken",
          "type": "address"
        },
        {
          "internalType": "uint256",
          "name": "auroraDepositAmount",
          "type": "uint256"
        },
        {
          "internalType": "uint256",
          "name": "auroraClaimedAmount",
          "type": "uint256"
        },
        {
          "internalType": "uint256",
          "name": "rewardDepositAmount",
          "type": "uint256"
        },
        {
          "internalType": "uint256",
          "name": "rewardClaimedAmount",
          "type": "uint256"
        },
        {
          "internalType": "uint256",
          "name": "maxDepositAmount",
          "type": "uint256"
        },
        {
          "internalType": "uint256",
          "name": "lastTimeOwnerClaimed",
          "type": "uint256"
        },
        {
          "internalType": "uint256",
          "name": "rps",
          "type": "uint256"
        },
        {
          "internalType": "uint256",
          "name": "tau",
          "type": "uint256"
        },
        {
          "internalType": "enum JetStakingV1.StreamStatus",
          "name": "status",
          "type": "uint8"
        }
      ],
      "stateMutability": "view",
      "type": "function"
    },
    {
      "inputs": [
        {
          "internalType": "uint256",
          "name": "streamId",
          "type": "uint256"
        },
        {
          "internalType": "address",
          "name": "account",
          "type": "address"
        }
      ],
      "name": "getStreamClaimableAmount",
      "outputs": [
        {
          "internalType": "uint256",
          "name": "",
          "type": "uint256"
        }
      ],
      "stateMutability": "view",
      "type": "function"
    },
    {
      "inputs": [
        {
          "internalType": "uint256",
          "name": "streamId",
          "type": "uint256"
        }
      ],
      "name": "getStreamOwnerClaimableAmount",
      "outputs": [
        {
          "internalType": "uint256",
          "name": "",
          "type": "uint256"
        }
      ],
      "stateMutability": "view",
      "type": "function"
    },
    {
      "inputs": [
        {
          "internalType": "uint256",
          "name": "streamId",
          "type": "uint256"
        }
      ],
      "name": "getStreamSchedule",
      "outputs": [
        {
          "internalType": "uint256[]",
          "name": "scheduleTimes",
          "type": "uint256[]"
        },
        {
          "internalType": "uint256[]",
          "name": "scheduleRewards",
          "type": "uint256[]"
        }
      ],
      "stateMutability": "view",
      "type": "function"
    },
    {
      "inputs": [],
      "name": "getStreamsCount",
      "outputs": [
        {
          "internalType": "uint256",
          "name": "",
          "type": "uint256"
        }
      ],
      "stateMutability": "view",
      "type": "function"
    },
    {
      "inputs": [],
      "name": "getTotalAmountOfStakedAurora",
      "outputs": [
        {
          "internalType": "uint256",
          "name": "",
          "type": "uint256"
        }
      ],
      "stateMutability": "view",
      "type": "function"
    },
    {
      "inputs": [
        {
          "internalType": "address",
          "name": "token",
          "type": "address"
        }
      ],
      "name": "getTreasuryBalance",
      "outputs": [
        {
          "internalType": "uint256",
          "name": "",
          "type": "uint256"
        }
      ],
      "stateMutability": "view",
      "type": "function"
    },
    {
      "inputs": [
        {
          "internalType": "address",
          "name": "account",
          "type": "address"
        }
      ],
      "name": "getUserShares",
      "outputs": [
        {
          "internalType": "uint256",
          "name": "",
          "type": "uint256"
        }
      ],
      "stateMutability": "view",
      "type": "function"
    },
    {
      "inputs": [
        {
          "internalType": "address",
          "name": "account",
          "type": "address"
        }
      ],
      "name": "getUserTotalDeposit",
      "outputs": [
        {
          "internalType": "uint256",
          "name": "",
          "type": "uint256"
        }
      ],
      "stateMutability": "view",
      "type": "function"
    },
    {
      "inputs": [
        {
          "internalType": "bytes32",
          "name": "role",
          "type": "bytes32"
        },
        {
          "internalType": "address",
          "name": "account",
          "type": "address"
        }
      ],
      "name": "grantRole",
      "outputs": [],
      "stateMutability": "nonpayable",
      "type": "function"
    },
    {
      "inputs": [
        {
          "internalType": "bytes32",
          "name": "role",
          "type": "bytes32"
        },
        {
          "internalType": "address",
          "name": "account",
          "type": "address"
        }
      ],
      "name": "hasRole",
      "outputs": [
        {
          "internalType": "bool",
          "name": "",
          "type": "bool"
        }
      ],
      "stateMutability": "view",
      "type": "function"
    },
    {
      "inputs": [
        {
          "internalType": "address",
          "name": "aurora",
          "type": "address"
        },
        {
          "internalType": "address",
          "name": "streamOwner",
          "type": "address"
        },
        {
          "internalType": "uint256[]",
          "name": "scheduleTimes",
          "type": "uint256[]"
        },
        {
          "internalType": "uint256[]",
          "name": "scheduleRewards",
          "type": "uint256[]"
        },
        {
          "internalType": "uint256",
          "name": "tauAuroraStream",
          "type": "uint256"
        },
        {
          "internalType": "uint256",
          "name": "_flags",
          "type": "uint256"
        },
        {
          "internalType": "address",
          "name": "_treasury",
          "type": "address"
        },
        {
          "internalType": "uint256",
          "name": "_maxWeight",
          "type": "uint256"
        },
        {
          "internalType": "uint256",
          "name": "_minWeight",
          "type": "uint256"
        }
      ],
      "name": "initialize",
      "outputs": [],
      "stateMutability": "nonpayable",
      "type": "function"
    },
    {
      "inputs": [],
      "name": "maxWeight",
      "outputs": [
        {
          "internalType": "uint256",
          "name": "",
          "type": "uint256"
        }
      ],
      "stateMutability": "view",
      "type": "function"
    },
    {
      "inputs": [],
      "name": "minWeight",
      "outputs": [
        {
          "internalType": "uint256",
          "name": "",
          "type": "uint256"
        }
      ],
      "stateMutability": "view",
      "type": "function"
    },
    {
      "inputs": [],
      "name": "moveAllRewardsToPending",
      "outputs": [],
      "stateMutability": "nonpayable",
      "type": "function"
    },
    {
      "inputs": [
        {
          "internalType": "uint256",
          "name": "streamId",
          "type": "uint256"
        }
      ],
      "name": "moveRewardsToPending",
      "outputs": [],
      "stateMutability": "nonpayable",
      "type": "function"
    },
    {
      "inputs": [],
      "name": "paused",
      "outputs": [
        {
          "internalType": "uint256",
          "name": "",
          "type": "uint256"
        }
      ],
      "stateMutability": "view",
      "type": "function"
    },
    {
      "inputs": [
        {
          "internalType": "address",
          "name": "streamOwner",
          "type": "address"
        },
        {
          "internalType": "address",
          "name": "rewardToken",
          "type": "address"
        },
        {
          "internalType": "uint256",
          "name": "auroraDepositAmount",
          "type": "uint256"
        },
        {
          "internalType": "uint256",
          "name": "maxDepositAmount",
          "type": "uint256"
        },
        {
          "internalType": "uint256",
          "name": "minDepositAmount",
          "type": "uint256"
        },
        {
          "internalType": "uint256[]",
          "name": "scheduleTimes",
          "type": "uint256[]"
        },
        {
          "internalType": "uint256[]",
          "name": "scheduleRewards",
          "type": "uint256[]"
        },
        {
          "internalType": "uint256",
          "name": "tau",
          "type": "uint256"
        }
      ],
      "name": "proposeStream",
      "outputs": [],
      "stateMutability": "nonpayable",
      "type": "function"
    },
    {
      "inputs": [
        {
          "internalType": "uint256",
          "name": "streamId",
          "type": "uint256"
        }
      ],
      "name": "releaseAuroraRewardsToStreamOwner",
      "outputs": [],
      "stateMutability": "nonpayable",
      "type": "function"
    },
    {
      "inputs": [
        {
          "internalType": "uint256",
          "name": "streamId",
          "type": "uint256"
        },
        {
          "internalType": "address",
          "name": "streamFundReceiver",
          "type": "address"
        }
      ],
      "name": "removeStream",
      "outputs": [],
      "stateMutability": "nonpayable",
      "type": "function"
    },
    {
      "inputs": [
        {
          "internalType": "bytes32",
          "name": "role",
          "type": "bytes32"
        },
        {
          "internalType": "address",
          "name": "account",
          "type": "address"
        }
      ],
      "name": "renounceRole",
      "outputs": [],
      "stateMutability": "nonpayable",
      "type": "function"
    },
    {
      "inputs": [
        {
          "internalType": "bytes32",
          "name": "role",
          "type": "bytes32"
        },
        {
          "internalType": "address",
          "name": "account",
          "type": "address"
        }
      ],
      "name": "revokeRole",
      "outputs": [],
      "stateMutability": "nonpayable",
      "type": "function"
    },
    {
      "inputs": [
        {
          "internalType": "uint256",
          "name": "streamId",
          "type": "uint256"
        },
        {
          "internalType": "uint256",
          "name": "start",
          "type": "uint256"
        },
        {
          "internalType": "uint256",
          "name": "end",
          "type": "uint256"
        }
      ],
      "name": "rewardsSchedule",
      "outputs": [
        {
          "internalType": "uint256",
          "name": "",
          "type": "uint256"
        }
      ],
      "stateMutability": "view",
      "type": "function"
    },
    {
      "inputs": [
        {
          "internalType": "uint256",
          "name": "amount",
          "type": "uint256"
        }
      ],
      "name": "stake",
      "outputs": [],
      "stateMutability": "nonpayable",
      "type": "function"
    },
    {
      "inputs": [
        {
          "internalType": "address",
          "name": "account",
          "type": "address"
        },
        {
          "internalType": "uint256",
          "name": "amount",
          "type": "uint256"
        }
      ],
      "name": "stakeOnBehalfOfAnotherUser",
      "outputs": [],
      "stateMutability": "nonpayable",
      "type": "function"
    },
    {
      "inputs": [
        {
          "internalType": "address[]",
          "name": "accounts",
          "type": "address[]"
        },
        {
          "internalType": "uint256[]",
          "name": "amounts",
          "type": "uint256[]"
        },
        {
          "internalType": "uint256",
          "name": "batchAmount",
          "type": "uint256"
        }
      ],
      "name": "stakeOnBehalfOfOtherUsers",
      "outputs": [],
      "stateMutability": "nonpayable",
      "type": "function"
    },
    {
      "inputs": [
        {
          "internalType": "uint256",
          "name": "streamId",
          "type": "uint256"
        },
        {
          "internalType": "uint256",
          "name": "start",
          "type": "uint256"
        },
        {
          "internalType": "uint256",
          "name": "end",
          "type": "uint256"
        }
      ],
      "name": "startEndScheduleIndex",
      "outputs": [
        {
          "internalType": "uint256",
          "name": "startIndex",
          "type": "uint256"
        },
        {
          "internalType": "uint256",
          "name": "endIndex",
          "type": "uint256"
        }
      ],
      "stateMutability": "view",
      "type": "function"
    },
    {
      "inputs": [
        {
          "internalType": "bytes4",
          "name": "interfaceId",
          "type": "bytes4"
        }
      ],
      "name": "supportsInterface",
      "outputs": [
        {
          "internalType": "bool",
          "name": "",
          "type": "bool"
        }
      ],
      "stateMutability": "view",
      "type": "function"
    },
    {
      "inputs": [],
      "name": "totalAmountOfStakedAurora",
      "outputs": [
        {
          "internalType": "uint256",
          "name": "",
          "type": "uint256"
        }
      ],
      "stateMutability": "view",
      "type": "function"
    },
    {
      "inputs": [],
      "name": "totalAuroraShares",
      "outputs": [
        {
          "internalType": "uint256",
          "name": "",
          "type": "uint256"
        }
      ],
      "stateMutability": "view",
      "type": "function"
    },
    {
      "inputs": [],
      "name": "totalStreamShares",
      "outputs": [
        {
          "internalType": "uint256",
          "name": "",
          "type": "uint256"
        }
      ],
      "stateMutability": "view",
      "type": "function"
    },
    {
      "inputs": [],
      "name": "touchedAt",
      "outputs": [
        {
          "internalType": "uint256",
          "name": "",
          "type": "uint256"
        }
      ],
      "stateMutability": "view",
      "type": "function"
    },
    {
      "inputs": [],
      "name": "treasury",
      "outputs": [
        {
          "internalType": "address",
          "name": "",
          "type": "address"
        }
      ],
      "stateMutability": "view",
      "type": "function"
    },
    {
      "inputs": [
        {
          "internalType": "uint256",
          "name": "amount",
          "type": "uint256"
        }
      ],
      "name": "unstake",
      "outputs": [],
      "stateMutability": "nonpayable",
      "type": "function"
    },
    {
      "inputs": [],
      "name": "unstakeAll",
      "outputs": [],
      "stateMutability": "nonpayable",
      "type": "function"
    },
    {
      "inputs": [
        {
          "internalType": "address",
          "name": "_treasury",
          "type": "address"
        }
      ],
      "name": "updateTreasury",
      "outputs": [],
      "stateMutability": "nonpayable",
      "type": "function"
    },
    {
      "inputs": [
        {
          "internalType": "address",
          "name": "newImplementation",
          "type": "address"
        }
      ],
      "name": "upgradeTo",
      "outputs": [],
      "stateMutability": "nonpayable",
      "type": "function"
    },
    {
      "inputs": [
        {
          "internalType": "address",
          "name": "newImplementation",
          "type": "address"
        },
        {
          "internalType": "bytes",
          "name": "data",
          "type": "bytes"
        }
      ],
      "name": "upgradeToAndCall",
      "outputs": [],
      "stateMutability": "payable",
      "type": "function"
    },
    {
      "inputs": [
        {
          "internalType": "address",
          "name": "",
          "type": "address"
        }
      ],
      "name": "users",
      "outputs": [
        {
          "internalType": "uint256",
          "name": "deposit",
          "type": "uint256"
        },
        {
          "internalType": "uint256",
          "name": "auroraShares",
          "type": "uint256"
        },
        {
          "internalType": "uint256",
          "name": "streamShares",
          "type": "uint256"
        }
      ],
      "stateMutability": "view",
      "type": "function"
    },
    {
      "inputs": [
        {
          "internalType": "uint256",
          "name": "streamId",
          "type": "uint256"
        }
      ],
      "name": "withdraw",
      "outputs": [],
      "stateMutability": "nonpayable",
      "type": "function"
    },
    {
      "inputs": [],
      "name": "withdrawAll",
      "outputs": [],
      "stateMutability": "nonpayable",
      "type": "function"
    }
  ],
  "bytecode": {
    "object": "0x60a06040523060805234801561001457600080fd5b506080516161f46200004660003960008181611c5e01528181611c9e01528181612531015261257101526161f46000f3fe6080604052600436106104055760003560e01c806361d027b3116102135780639c52a92011610123578063bb07ec1b116100ab578063d5050aed1161007a578063d5050aed14610d14578063d547741f14610d34578063e335e79a14610d54578063ee13ad8e14610d6a578063fe904b7a14610d8a57600080fd5b8063bb07ec1b14610c84578063be831a2e14610c9a578063c892772314610cba578063cd5ba59014610cff57600080fd5b8063a81c6a15116100f2578063a81c6a1514610b9b578063a87430ba14610bbb578063a8b0bb8314610c13578063b8e9744c14610c2a578063ba0cb22b14610c4a57600080fd5b80639c52a92014610b0f578063a217fddf14610b2f578063a4c828dc14610b44578063a694fc3a14610b7b57600080fd5b80637f51bb1f116101a65780638bc34e77116101755780638bc34e7714610a7a5780638d40bd0314610a8f5780639040332214610aaf57806391d1485414610acf578063993b21c114610aef57600080fd5b80637f51bb1f146109ec578063853828b614610a0c57806386c1b4eb14610a21578063894e9a0d14610a4357600080fd5b80636db8e53d116101e25780636db8e53d1461094357806370bc770c1461095957806372e55399146109875780637f37df3b146109a757600080fd5b806361d027b3146108c25780636458edd3146108e3578063687dd46c146109035780636c4624c31461092357600080fd5b80632e1a7d4d116103195780633ba31abf116102a15780634f1ef286116102705780634f1ef2861461082057806353a4cca0146108335780635578fdb21461085357806357baeac81461088c5780635c975abb146108ac57600080fd5b80633ba31abf146107895780633e9a44cb146107a95780633ea005c8146107c95780634981912e146107eb57600080fd5b80633659cfe6116102e85780633659cfe6146106df57806336630cc7146106ff5780633895a2751461071f578063389ed26714610735578063396a6c141461076957600080fd5b80632e1a7d4d1461066a5780632f2ff15d1461068a57806335322f37146106aa57806336568abe146106bf57600080fd5b80631e0fbfa21161039c5780632692c59f1161036b5780632692c59f146105ca57806326cdddb9146105ea578063275719691461060a5780632ca783f31461062a5780632e17de781461064a57600080fd5b80631e0fbfa21461054b5780631fd8c5f41461056d57806320988cef14610583578063248a9ca31461059a57600080fd5b80631194ebeb116103d85780631194ebeb146104a457806312dd67fe146104c65780631c61e617146104e65780631dd004521461050657600080fd5b806301ffc9a71461040a578063036877881461043f5780630c2ee55e1461046d5780630efd831014610484575b600080fd5b34801561041657600080fd5b5061042a610425366004615757565b610da2565b60405190151581526020015b60405180910390f35b34801561044b57600080fd5b5061045f61045a366004615781565b610dd9565b604051908152602001610436565b34801561047957600080fd5b5061045f6101035481565b34801561049057600080fd5b5061045f61049f3660046157c9565b611148565b3480156104b057600080fd5b506104c46104bf3660046158b1565b611194565b005b3480156104d257600080fd5b5061045f6104e136600461595d565b6114f2565b3480156104f257600080fd5b5061045f6105013660046157c9565b6115e0565b34801561051257600080fd5b5061045f6105213660046157c9565b6001600160a01b031660009081526101046020908152604080832093835260059093019052205490565b34801561055757600080fd5b5061045f60008051602061619f83398151915281565b34801561057957600080fd5b5061045f60fd5481565b34801561058f57600080fd5b5061045f6228207281565b3480156105a657600080fd5b5061045f6105b536600461595d565b600090815260c9602052604090206001015490565b3480156105d657600080fd5b506104c46105e536600461595d565b611658565b3480156105f657600080fd5b506104c46106053660046159c2565b6116ed565b34801561061657600080fd5b506104c4610625366004615a2e565b61179e565b34801561063657600080fd5b506104c4610645366004615a70565b61184b565b34801561065657600080fd5b506104c461066536600461595d565b6118d4565b34801561067657600080fd5b506104c461068536600461595d565b6119f2565b34801561069657600080fd5b506104c46106a53660046157c9565b611a9a565b3480156106b657600080fd5b506104c4611ac0565b3480156106cb57600080fd5b506104c46106da3660046157c9565b611bd9565b3480156106eb57600080fd5b506104c46106fa366004615a9a565b611c53565b34801561070b57600080fd5b5061045f61071a366004615ab5565b611d1c565b34801561072b57600080fd5b5061045f60fc5481565b34801561074157600080fd5b5061045f7f139c2898040ef16910dc9f44dc697df79363da767d8bc92f2e310312b816e46d81565b34801561077557600080fd5b5061045f61078436600461595d565b611e8f565b34801561079557600080fd5b506104c46107a43660046157c9565b611f1a565b3480156107b557600080fd5b506104c46107c4366004615a70565b6121cd565b3480156107d557600080fd5b5061045f60008051602061613883398151915281565b3480156107f757600080fd5b5061080b610806366004615781565b61222f565b60408051928352602083019190915201610436565b6104c461082e366004615ad7565b612526565b34801561083f57600080fd5b506104c461084e366004615b7d565b6125dc565b34801561085f57600080fd5b5061010154610874906001600160a01b031681565b6040516001600160a01b039091168152602001610436565b34801561089857600080fd5b5061045f6108a7366004615a9a565b61277a565b3480156108b857600080fd5b5061045f60fb5481565b3480156108ce57600080fd5b5061010054610874906001600160a01b031681565b3480156108ef57600080fd5b506104c46108fe366004615bf1565b6127eb565b34801561090f57600080fd5b506104c461091e366004615a2e565b612855565b34801561092f57600080fd5b506104c461093e366004615781565b61289f565b34801561094f57600080fd5b5061045f60ff5481565b34801561096557600080fd5b5061097961097436600461595d565b6128b7565b604051610436929190615c7f565b34801561099357600080fd5b506104c46109a2366004615a2e565b6129b7565b3480156109b357600080fd5b5061045f6109c23660046157c9565b6001600160a01b031660009081526101046020908152604080832093835260039093019052205490565b3480156109f857600080fd5b506104c4610a07366004615a9a565b612aaa565b348015610a1857600080fd5b506104c4612baf565b348015610a2d57600080fd5b5061045f60008051602061617f83398151915281565b348015610a4f57600080fd5b50610a63610a5e36600461595d565b612c53565b6040516104369b9a99989796959493929190615cba565b348015610a8657600080fd5b506104c4612d19565b348015610a9b57600080fd5b506104c4610aaa366004615ab5565b612d61565b348015610abb57600080fd5b506104c4610aca36600461595d565b613110565b348015610adb57600080fd5b5061042a610aea3660046157c9565b613229565b348015610afb57600080fd5b5061045f610b0a36600461595d565b613254565b348015610b1b57600080fd5b506104c4610b2a36600461595d565b613283565b348015610b3b57600080fd5b5061045f600081565b348015610b5057600080fd5b5061045f610b5f366004615a9a565b6001600160a01b03166000908152610104602052604090205490565b348015610b8757600080fd5b506104c4610b9636600461595d565b6134f8565b348015610ba757600080fd5b506104c4610bb6366004615d42565b613562565b348015610bc757600080fd5b50610bf8610bd6366004615a9a565b6101046020526000908152604090208054600182015460029092015490919083565b60408051938452602084019290925290820152606001610436565b348015610c1f57600080fd5b5061045f6101025481565b610c3d610c38366004615ad7565b613af7565b6040516104369190615e57565b348015610c5657600080fd5b5061045f610c65366004615a9a565b6001600160a01b03166000908152610104602052604090206001015490565b348015610c9057600080fd5b5061045f60fe5481565b348015610ca657600080fd5b506104c4610cb5366004615ab5565b613bbd565b348015610cc657600080fd5b5061045f610cd53660046157c9565b6001600160a01b031660009081526101046020908152604080832093835260049093019052205490565b348015610d0b57600080fd5b5061045f613bce565b348015610d2057600080fd5b506104c4610d2f366004615a9a565b613c00565b348015610d4057600080fd5b506104c4610d4f3660046157c9565b613c61565b348015610d6057600080fd5b506101055461045f565b348015610d7657600080fd5b506104c4610d8536600461595d565b613c87565b348015610d9657600080fd5b5061045f630786156081565b60006001600160e01b03198216637965db0b60e01b1480610dd357506301ffc9a760e01b6001600160e01b03198316145b92915050565b6000806101058581548110610df057610df0615e6a565b90600052602060002090600f0201600c019050600080610e1187878761222f565b909250905060008083831415610ef05784600101846001610e329190615e96565b81548110610e4257610e42615e6a565b9060005260206000200154856001018581548110610e6257610e62615e6a565b9060005260206000200154610e779190615eae565b9050846000018481548110610e8e57610e8e615e6a565b60009182526020909120015485610ea6866001615e96565b81548110610eb657610eb6615e6a565b9060005260206000200154610ecb9190615eae565b610ed58989615eae565b610edf9083615ec5565b610ee99190615ee4565b915061113a565b84600101846001610f019190615e96565b81548110610f1157610f11615e6a565b9060005260206000200154856001018581548110610f3157610f31615e6a565b9060005260206000200154610f469190615eae565b9050846000018481548110610f5d57610f5d615e6a565b60009182526020909120015485610f75866001615e96565b81548110610f8557610f85615e6a565b9060005260206000200154610f9a9190615eae565b8886610fa7876001615e96565b81548110610fb757610fb7615e6a565b9060005260206000200154610fcc9190615eae565b610fd69083615ec5565b610fe09190615ee4565b9150846001018381548110610ff757610ff7615e6a565b9060005260206000200154856001018560016110139190615e96565b8154811061102357611023615e6a565b90600052602060002001546110389190615eae565b6110429083615e96565b9150846001018360016110559190615e96565b8154811061106557611065615e6a565b906000526020600020015485600101848154811061108557611085615e6a565b906000526020600020015461109a9190615eae565b90508460000183815481106110b1576110b1615e6a565b600091825260209091200154856110c9856001615e96565b815481106110d9576110d9615e6a565b90600052602060002001546110ee9190615eae565b85600001848154811061110357611103615e6a565b9060005260206000200154886111199190615eae565b6111239083615ec5565b61112d9190615ee4565b6111379083615e96565b91505b5093505050505b9392505050565b60008261117257506001600160a01b03811660009081526101046020526040902060010154610dd3565b506001600160a01b031660009081526101046020526040902060020154919050565b6000805160206161388339815191526111ad8133613cd0565b6111bc89898888888888613d34565b61010054604051630480051d60e31b81526001600160a01b038a811660048301529091169063240028e890602401602060405180830381865afa158015611207573d6000803e3d6000fd5b505050506040513d601f19601f8201168201806040525081019061122b9190615f06565b61127c5760405162461bcd60e51b815260206004820152601f60248201527f494e56414c49445f535550504f525445445f544f4b454e5f414444524553530060448201526064015b60405180910390fd5b600060405180604001604052808681526020018581525090506000610105805490509050610105604051806101c001604052808d6001600160a01b03168152602001336001600160a01b031681526020018c6001600160a01b031681526020018b81526020016000815260200160008152602001600081526020018a81526020018981526020018860008151811061131657611316615e6a565b60200260200101518152602001868152602001600081526020018481526020016001600281111561134957611349615ca4565b905281546001808201845560009384526020938490208351600f9093020180546001600160a01b03199081166001600160a01b0394851617825584860151928201805482169385169390931790925560408401516002820180549093169316929092179055606082015160038201556080820151600482015560a0820151600582015560c0820151600682015560e0820151600782015561010082015160088201556101208201516009820155610140820151600a820155610160820151600b82015561018082015180518051939492939192600c85019261142e92849201906156f7565b50602082810151805161144792600185019201906156f7565b5050506101a0820151600e8201805460ff1916600183600281111561146e5761146e615ca4565b02179055505050896001600160a01b03168b6001600160a01b0316827fe843b72f047599c26dfdab8a31d1b5f353799cab6a8482518a21f1b17871dd758b8d6040516114c4929190918252602082015260400190565b60405180910390a4610101546114e5906001600160a01b031633308c614206565b5050505050505050505050565b60008161153b5760405162461bcd60e51b815260206004820152601760248201527610555493d49057d49155d0549114d7d0d3d35413d55391604a1b6044820152606401611273565b60ff5461157f5760405162461bcd60e51b81526020600482015260126024820152715a45524f5f53545245414d5f53484152455360701b6044820152606401611273565b60ff546c7e37be2022c0914b268000000061159c8460fd54611d1c565b6115a69190615ec5565b6115b09190615ee4565b61010583815481106115c4576115c4615e6a565b90600052602060002090600f0201600b0154610dd39190615e96565b6000806115ec846114f2565b6001600160a01b0384166000908152610104602090815260408083208884526005810190925290912054600282015492935090916c7e37be2022c0914b2680000000816116398487615eae565b6116439190615ec5565b61164d9190615ee4565b979650505050505050565b7f139c2898040ef16910dc9f44dc697df79363da767d8bc92f2e310312b816e46d6116838133613cd0565b60fb54828116148061169b575061169b600033613229565b6116e75760405162461bcd60e51b815260206004820152601e60248201527f4f4e4c595f44454641554c545f41444d494e5f43414e5f554e504155534500006044820152606401611273565b5060fb55565b60018060fb5416600014806117085750611708600033613229565b6117245760405162461bcd60e51b815260040161127390615f28565b60008051602061617f83398151915261173d8133613cd0565b61174561425e565b8460005b818110156117945761178288888381811061176657611766615e6a565b905060200201602081019061177b9190615a9a565b8787614336565b8061178c81615f54565b915050611749565b5050505050505050565b60018060fb5416600014806117b957506117b9600033613229565b6117d55760405162461bcd60e51b815260040161127390615f28565b60008051602061617f8339815191526117ee8133613cd0565b6117f661425e565b8260005b818110156118435761183186868381811061181757611817615e6a565b905060200201602081019061182c9190615a9a565b6143d1565b8061183b81615f54565b9150506117fa565b505050505050565b60018060fb5416600014806118665750611866600033613229565b6118825760405162461bcd60e51b815260040161127390615f28565b60008051602061619f83398151915261189b8133613cd0565b6118a361425e565b6118ad8484614440565b61010054610101546118ce916001600160a01b039182169133911686614206565b50505050565b60018060fb5416600014806118ef57506118ef600033613229565b61190b5760405162461bcd60e51b815260040161127390615f28565b60fe546119555760405162461bcd60e51b81526020600482015260186024820152775a45524f5f544f54414c5f4155524f52415f53484152455360401b6044820152606401611273565b33600090815261010460205260409020600101546119a85760405162461bcd60e51b815260206004820152601060248201526f5a45524f5f555345525f53484152455360801b6044820152606401611273565b6119b061425e565b60fe54336000908152610104602052604081206001015460fc549192916119d79190615ec5565b6119e19190615ee4565b90506119ed83826145ff565b505050565b60018060fb541660001480611a0d5750611a0d600033613229565b611a295760405162461bcd60e51b815260040161127390615f28565b336000908152610104602090815260408083208584526004019091529020544211611a8d5760405162461bcd60e51b8152602060048201526014602482015273494e56414c49445f52454c454153455f54494d4560601b6044820152606401611273565b611a96826147fc565b5050565b600082815260c96020526040902060010154611ab68133613cd0565b6119ed83836148f1565b60018060fb541660001480611adb5750611adb600033613229565b611af75760405162461bcd60e51b815260040161127390615f28565b60fe54611b415760405162461bcd60e51b81526020600482015260186024820152775a45524f5f544f54414c5f4155524f52415f53484152455360401b6044820152606401611273565b3360009081526101046020526040902060010154611b945760405162461bcd60e51b815260206004820152601060248201526f5a45524f5f555345525f53484152455360801b6044820152606401611273565b611b9c61425e565b60fe54336000908152610104602052604081206001015460fc54919291611bc39190615ec5565b611bcd9190615ee4565b9050611a9681826145ff565b6001600160a01b0381163314611c495760405162461bcd60e51b815260206004820152602f60248201527f416363657373436f6e74726f6c3a2063616e206f6e6c792072656e6f756e636560448201526e103937b632b9903337b91039b2b63360891b6064820152608401611273565b611a968282614977565b306001600160a01b037f0000000000000000000000000000000000000000000000000000000000000000161415611c9c5760405162461bcd60e51b815260040161127390615f6f565b7f00000000000000000000000000000000000000000000000000000000000000006001600160a01b0316611cce6149de565b6001600160a01b031614611cf45760405162461bcd60e51b815260040161127390615fbb565b611cfd81614a0c565b60408051600080825260208201909252611d1991839190614a18565b50565b600042821115611d645760405162461bcd60e51b8152602060048201526013602482015272494e56414c49445f4c4153545f55504441544560681b6044820152606401611273565b42821415611d7457506000610dd3565b60006101058481548110611d8a57611d8a615e6a565b90600052602060002090600f0201600c01600001600081548110611db057611db0615e6a565b90600052602060002001549050804211611dce576000915050610dd3565b60006101058581548110611de457611de4615e6a565b90600052602060002090600f0201600c0160000160016101058781548110611e0e57611e0e615e6a565b60009182526020909120600c600f909202010154611e2c9190615eae565b81548110611e3c57611e3c615e6a565b90600052602060002001549050808410611e5b57600092505050610dd3565b60008083861115611e6e57859150611e72565b8391505b82421015611e81575042611e84565b50815b61164d878383610dd9565b6000806101058381548110611ea657611ea6615e6a565b60009182526020909120600f9091020190506002600e82015460ff166002811115611ed357611ed3615ca4565b14611ee15750600092915050565b6000611ef1848360090154611d1c565b90508160050154826003015482611f089190615ec5565b611f129190615ee4565b949350505050565b600080516020616138833981519152611f338133613cd0565b82611f805760405162461bcd60e51b815260206004820152601b60248201527f4155524f52415f53545245414d5f4e4f545f52454d4f5641424c4500000000006044820152606401611273565b60006101058481548110611f9657611f96615e6a565b60009182526020909120600f9091020190506002600e82015460ff166002811115611fc357611fc3615ca4565b146120095760405162461bcd60e51b815260206004820152601660248201527514d51491505357d053149150511657d4915353d5915160521b6044820152606401611273565b600e8101805460ff19169055600281015481546040516001600160a01b03928316929091169086907f661da9ced4b5d786f5b5f451a5f68af24721a01b0a65bb47fa4fdf70b80b887c90600090a460008160040154826003015461206d9190615eae565b90506000826006015483600501546120859190615eae565b610101549091506000906120a1906001600160a01b031661277a565b60028501549091506000906120be906001600160a01b031661277a565b610100546001870154610101549293506001600160a01b039182169263da0c1a88929182169116858811156120f357856120f5565b875b6040518463ffffffff1660e01b815260040161211393929190616007565b600060405180830381600087803b15801561212d57600080fd5b505af1158015612141573d6000803e3d6000fd5b50506101005460028801546001600160a01b03918216935063da0c1a8892508a9116848711156121715784612173565b865b6040518463ffffffff1660e01b815260040161219193929190616007565b600060405180830381600087803b1580156121ab57600080fd5b505af11580156121bf573d6000803e3d6000fd5b505050505050505050505050565b60018060fb5416600014806121e857506121e8600033613229565b6122045760405162461bcd60e51b815260040161127390615f28565b60008051602061617f83398151915261221d8133613cd0565b61222561425e565b6118ce8484614b5c565b6000806000610105868154811061224857612248615e6a565b60009182526020909120600c600f909202010180549091508061229b5760405162461bcd60e51b815260206004820152600b60248201526a4e4f5f5343484544554c4560a81b6044820152606401611273565b8585116122ea5760405162461bcd60e51b815260206004820152601b60248201527f494e56414c49445f5245574152445f51554552595f504552494f4400000000006044820152606401611273565b8160000160008154811061230057612300615e6a565b906000526020600020015486101561235a5760405162461bcd60e51b815260206004820152601b60248201527f51554552595f4245464f52455f5343484544554c455f535441525400000000006044820152606401611273565b81612366600183615eae565b8154811061237657612376615e6a565b90600052602060002001548511156123d05760405162461bcd60e51b815260206004820152601860248201527f51554552595f41465445525f5343484544554c455f454e4400000000000000006044820152606401611273565b60015b81811015612426578260000181815481106123f0576123f0615e6a565b90600052602060002001548710156124145761240d600182615eae565b9450612426565b8061241e81615f54565b9150506123d3565b5081612433600183615eae565b8154811061244357612443615e6a565b906000526020600020015485141561246757612460600282615eae565b92506124cc565b6000612474856001615e96565b90505b818110156124ca5782600001818154811061249457612494615e6a565b90600052602060002001548610156124b8576124b1600182615eae565b93506124ca565b806124c281615f54565b915050612477565b505b8284111561251c5760405162461bcd60e51b815260206004820152601960248201527f494e56414c49445f494e4445585f43414c43554c4154494f4e000000000000006044820152606401611273565b5050935093915050565b306001600160a01b037f000000000000000000000000000000000000000000000000000000000000000016141561256f5760405162461bcd60e51b815260040161127390615f6f565b7f00000000000000000000000000000000000000000000000000000000000000006001600160a01b03166125a16149de565b6001600160a01b0316146125c75760405162461bcd60e51b815260040161127390615fbb565b6125d082614a0c565b611a9682826001614a18565b60018060fb5416600014806125f757506125f7600033613229565b6126135760405162461bcd60e51b815260040161127390615f28565b60008051602061619f83398151915261262c8133613cd0565b858481146126735760405162461bcd60e51b81526020600482015260146024820152730929cac82989288be82a4a482b2be988a9c8ea8960631b6044820152606401611273565b61267b61425e565b6000805b828110156127075787878281811061269957612699615e6a565b90506020020135826126ab9190615e96565b91506126f58a8a838181106126c2576126c2615e6a565b90506020020160208101906126d79190615a9a565b8989848181106126e9576126e9615e6a565b90506020020135614440565b806126ff81615f54565b91505061267f565b5084811461274e5760405162461bcd60e51b81526020600482015260146024820152731253959053125117d0905510d217d05353d5539560621b6044820152606401611273565b610100546101015461276f916001600160a01b039182169133911688614206565b505050505050505050565b610100546040516370a0823160e01b81526001600160a01b0391821660048201526000918316906370a0823190602401602060405180830381865afa1580156127c7573d6000803e3d6000fd5b505050506040513d601f19601f82011682018060405250810190610dd3919061602b565b60018060fb5416600014806128065750612806600033613229565b6128225760405162461bcd60e51b815260040161127390615f28565b60008051602061617f83398151915261283b8133613cd0565b61284361425e565b61284e858585614336565b5050505050565b60018060fb5416600014806128705750612870600033613229565b61288c5760405162461bcd60e51b815260040161127390615f28565b61289461425e565b6119ed338484614336565b60006128ab8133613cd0565b50825491821816189055565b60608061010583815481106128ce576128ce615e6a565b90600052602060002090600f0201600c0160000161010584815481106128f6576128f6615e6a565b90600052602060002090600f0201600c016001018180548060200260200160405190810160405280929190818152602001828054801561295557602002820191906000526020600020905b815481526020019060010190808311612941575b50505050509150808054806020026020016040519081016040528092919081815260200182805480156129a757602002820191906000526020600020905b815481526020019060010190808311612993575b5050505050905091509150915091565b60018060fb5416600014806129d257506129d2600033613229565b6129ee5760405162461bcd60e51b815260040161127390615f28565b33600090815261010460205260408120905b8381101561284e57816003016000868684818110612a2057612a20615e6a565b90506020020135815260200190815260200160002054600014158015612a725750816004016000868684818110612a5957612a59615e6a565b9050602002013581526020019081526020016000205442115b15612a9857612a98858583818110612a8c57612a8c615e6a565b905060200201356147fc565b80612aa281615f54565b915050612a00565b6000612ab68133613cd0565b60fb54612af55760405162461bcd60e51b815260206004820152600d60248201526c524551554952455f504155534560981b6044820152606401611273565b6001600160a01b038216612b3d5760405162461bcd60e51b815260206004820152600f60248201526e494e56414c49445f4144445245535360881b6044820152606401611273565b610100546001600160a01b0383811691161415612b8b5760405162461bcd60e51b815260206004820152600c60248201526b53414d455f4144445245535360a01b6044820152606401611273565b5061010080546001600160a01b0319166001600160a01b0392909216919091179055565b60018060fb541660001480612bca5750612bca600033613229565b612be65760405162461bcd60e51b815260040161127390615f28565b336000908152610104602052604081206101055490915b818110156118ce57600081815260038401602052604090205415801590612c335750600081815260048401602052604090205442115b15612c4157612c41816147fc565b80612c4b81615f54565b915050612bfd565b6000806000806000806000806000806000806101058d81548110612c7957612c79615e6a565b90600052602060002090600f020190508060000160009054906101000a90046001600160a01b03168160020160009054906101000a90046001600160a01b031682600301548360040154846005015485600601548660070154876009015488600b015489600a01548a600e0160009054906101000a900460ff169b509b509b509b509b509b509b509b509b509b509b505091939597999b90929496989a50565b60018060fb541660001480612d345750612d34600033613229565b612d505760405162461bcd60e51b815260040161127390615f28565b612d5861425e565b611d19336143d1565b60018060fb541660001480612d7c5750612d7c600033613229565b612d985760405162461bcd60e51b815260040161127390615f28565b60006101058481548110612dae57612dae615e6a565b60009182526020909120600f9091020190506001600e82015460ff166002811115612ddb57612ddb615ca4565b14612e1e5760405162461bcd60e51b815260206004820152601360248201527214d51491505357d393d517d41493d413d4d151606a1b6044820152606401611273565b80546001600160a01b03163314612e6e5760405162461bcd60e51b815260206004820152601460248201527324a72b20a624a22fa9aa2922a0a6afa7aba722a960611b6044820152606401611273565b4281600c01600001600081548110612e8857612e88615e6a565b90600052602060002001541015612ee15760405162461bcd60e51b815260206004820152601760248201527f53545245414d5f50524f504f53414c5f455850495245440000000000000000006044820152606401611273565b8060070154831115612f275760405162461bcd60e51b815260206004820152600f60248201526e0a48aae82a488bea89e9ebe90928e9608b1b6044820152606401611273565b8060080154831015612f6c5760405162461bcd60e51b815260206004820152600e60248201526d5245574152445f544f4f5f4c4f5760901b6044820152606401611273565b600e8101805460ff19166002179055600581018390556007810154831015612ff95760008160070154826003015485612fa59190615ec5565b612faf9190615ee4565b90506000818360030154612fc39190615eae565b600384018390559050612fd68686614e50565b600183015461010154612ff6916001600160a01b03918216911683614f5a565b50505b6002810154815460038301546040516001600160a01b0393841693929092169187917f3062262d3b7b7b5292387920111bfa3e0597dc070a8f10f1be710f15868c22e09161304f91898252602082015260400190565b60405180910390a46005810154600d8201805460009061307157613071615e6a565b9060005260206000200154146130c95760405162461bcd60e51b815260206004820152601760248201527f494e56414c49445f5354415254494e475f5245574152440000000000000000006044820152606401611273565b610100546003820154610101546130ee926001600160a01b0391821692911690614f5a565b6101005460028201546118ce916001600160a01b039182169133911686614206565b6000805160206161388339815191526131298133613cd0565b6000610105838154811061313f5761313f615e6a565b60009182526020909120600f9091020190506001600e82015460ff16600281111561316c5761316c615ca4565b146131af5760405162461bcd60e51b815260206004820152601360248201527214d51491505357d393d517d41493d413d4d151606a1b6044820152606401611273565b600e8101805460ff191690556003810180546000918290556002830154835460405192936001600160a01b0392831693929091169187917ffadbcbd495527ce5e10fd0cceba57d404a4625dd6ce0499c254ac523789ef3ad91a46001820154610101546118ce916001600160a01b03918216911683614f5a565b600091825260c9602090815260408084206001600160a01b0393909316845291905290205460ff1690565b6000610105828154811061326a5761326a615e6a565b90600052602060002090600f0201600b01549050919050565b60018060fb54166000148061329e575061329e600033613229565b6132ba5760405162461bcd60e51b815260040161127390615f28565b816132fa5760405162461bcd60e51b815260206004820152601060248201526f4155524f52415f53545245414d5f4e4160801b6044820152606401611273565b6000610105838154811061331057613310615e6a565b60009182526020909120600f9091020180549091506001600160a01b031633146133735760405162461bcd60e51b815260206004820152601460248201527324a72b20a624a22fa9aa2922a0a6afa7aba722a960611b6044820152606401611273565b6002600e82015460ff16600281111561338e5761338e615ca4565b146133db5760405162461bcd60e51b815260206004820152601b60248201527f494e4143544956455f4f525f50524f504f5345445f53545245414d00000000006044820152606401611273565b60006133e684611e8f565b9050600081116134275760405162461bcd60e51b815260206004820152600c60248201526b5a45524f5f5245574152445360a01b6044820152606401611273565b428260090181905550808260040160008282546134449190615e96565b909155505081546040518281526001600160a01b039091169085907fd8dbc00678cdeb812d1660863c3d845d199d828cd02c9278b1ac8f359a1394369060200160405180910390a361010054825461010154604051631b41835160e31b81526001600160a01b039384169363da0c1a88936134ca93908216929116908690600401616007565b600060405180830381600087803b1580156134e457600080fd5b505af1158015611794573d6000803e3d6000fd5b60018060fb5416600014806135135750613513600033613229565b61352f5760405162461bcd60e51b815260040161127390615f28565b61353761425e565b6135413383614440565b6101005461010154611a96916001600160a01b039182169133911685614206565b600054610100900460ff1661357d5760005460ff1615613581565b303b155b6135e45760405162461bcd60e51b815260206004820152602e60248201527f496e697469616c697a61626c653a20636f6e747261637420697320616c72656160448201526d191e481a5b9a5d1a585b1a5e995960921b6064820152608401611273565b600054610100900460ff16158015613606576000805461ffff19166101011790555b8183116136475760405162461bcd60e51b815260206004820152600f60248201526e494e56414c49445f5745494748545360881b6044820152606401611273565b6001600160a01b03841661368f5760405162461bcd60e51b815260206004820152600f60248201526e494e56414c49445f4144445245535360881b6044820152606401611273565b6136d2898b896000815181106136a7576136a7615e6a565b60200260200101518a6000815181106136c2576136c2615e6a565b60200260200101518c8c8c613d34565b604051630480051d60e31b81526001600160a01b038b8116600483015285169063240028e890602401602060405180830381865afa158015613718573d6000803e3d6000fd5b505050506040513d601f19601f8201168201806040525081019061373c9190615f06565b6137885760405162461bcd60e51b815260206004820152601f60248201527f494e56414c49445f535550504f525445445f544f4b454e5f41444452455353006044820152606401611273565b61379185614f8a565b6137a960008051602061619f833981519152336148f1565b6137c160008051602061617f833981519152336148f1565b6137d9600080516020616138833981519152336148f1565b61010080546001600160a01b038087166001600160a01b031992831617835561010180548e83169316831790556101028690556101038590556040805180820182528c815260208082018d905282516101c081018452938f1680855290840152908201929092526000606082018190526080820181905260a0820181905260c0820181905260e0820181905292810183905242610120820152610140810189905261016081018390526101808101829052610105906101a081016002905281546001808201845560009384526020938490208351600f9093020180546001600160a01b03199081166001600160a01b0394851617825584860151928201805482169385169390931790925560408401516002820180549093169316929092179055606082015160038201556080820151600482015560a0820151600582015560c0820151600682015560e0820151600782015561010082015160088201556101208201516009820155610140820151600a820155610160820151600b82015561018082015180518051939492939192600c85019261397a92849201906156f7565b50602082810151805161399392600185019201906156f7565b5050506101a0820151600e8201805460ff191660018360028111156139ba576139ba615ca4565b021790555050508b6001600160a01b03168b6001600160a01b0316837fe843b72f047599c26dfdab8a31d1b5f353799cab6a8482518a21f1b17871dd758c600081518110613a0a57613a0a615e6a565b60200260200101518d600081518110613a2557613a25615e6a565b6020026020010151604051613a44929190918252602082015260400190565b60405180910390a48b6001600160a01b03168b6001600160a01b0316837f3062262d3b7b7b5292387920111bfa3e0597dc070a8f10f1be710f15868c22e08c600081518110613a9557613a95615e6a565b60200260200101518d600081518110613ab057613ab0615e6a565b6020026020010151604051613acf929190918252602082015260400190565b60405180910390a450508015613aeb576000805461ff00191690555b50505050505050505050565b60606000613b058133613cd0565b6001600160a01b038416613b4a5760405162461bcd60e51b815260206004820152600c60248201526b5a45524f5f4144445245535360a01b6044820152606401611273565b600080856001600160a01b031685604051613b659190616044565b600060405180830381855af49150503d8060008114613ba0576040519150601f19603f3d011682016040523d82523d6000602084013e613ba5565b606091505b509150915081613bb457600080fd5b95945050505050565b6000613bc98133613cd0565b509055565b600060fd5460001415613be15750600090565b613bee600060fd54611d1c565b60fc54613bfb9190615e96565b905090565b60018060fb541660001480613c1b5750613c1b600033613229565b613c375760405162461bcd60e51b815260040161127390615f28565b60008051602061617f833981519152613c508133613cd0565b613c5861425e565b6119ed836143d1565b600082815260c96020526040902060010154613c7d8133613cd0565b6119ed8383614977565b60018060fb541660001480613ca25750613ca2600033613229565b613cbe5760405162461bcd60e51b815260040161127390615f28565b613cc661425e565b611a963383614b5c565b613cda8282613229565b611a9657613cf2816001600160a01b03166014614fd4565b613cfd836020614fd4565b604051602001613d0e929190616060565b60408051601f198184030181529082905262461bcd60e51b825261127391600401615e57565b6001600160a01b038716613d8a5760405162461bcd60e51b815260206004820152601c60248201527f494e56414c49445f53545245414d5f4f574e45525f41444452455353000000006044820152606401611273565b6001600160a01b038616613de05760405162461bcd60e51b815260206004820152601c60248201527f494e56414c49445f5245574152445f544f4b454e5f41444452455353000000006044820152606401611273565b60008511613e235760405162461bcd60e51b815260206004820152601060248201526f16915493d7d3505617d1115413d4d25560821b6044820152606401611273565b60008411613e665760405162461bcd60e51b815260206004820152601060248201526f16915493d7d3525397d1115413d4d25560821b6044820152606401611273565b84841115613eac5760405162461bcd60e51b81526020600482015260136024820152721253959053125117d3525397d1115413d4d255606a1b6044820152606401611273565b81600081518110613ebf57613ebf615e6a565b60200260200101518514613f155760405162461bcd60e51b815260206004820152601f60248201527f4d41585f4445504f5349545f4d5553545f455155414c5f5343484544554c45006044820152606401611273565b4283600081518110613f2957613f29615e6a565b602002602001015111613f7e5760405162461bcd60e51b815260206004820152601e60248201527f494e56414c49445f53545245414d5f45585049524154494f4e5f4441544500006044820152606401611273565b8151835114613fcf5760405162461bcd60e51b815260206004820152601760248201527f494e56414c49445f5343484544554c455f56414c5545530000000000000000006044820152606401611273565b6002835110156140165760405162461bcd60e51b815260206004820152601260248201527114d0d2115115531157d513d3d7d4d213d49560721b6044820152606401611273565b806140585760405162461bcd60e51b81526020600482015260126024820152711253959053125117d5105557d411549253d160721b6044820152606401611273565b60015b83518110156141865783614070600183615eae565b8151811061408057614080615e6a565b602002602001015184828151811061409a5761409a615e6a565b6020026020010151116140e85760405162461bcd60e51b8152602060048201526016602482015275494e56414c49445f5343484544554c455f54494d455360501b6044820152606401611273565b826140f4600183615eae565b8151811061410457614104615e6a565b602002602001015183828151811061411e5761411e615e6a565b602002602001015111156141745760405162461bcd60e51b815260206004820152601860248201527f494e56414c49445f5343484544554c455f5245574152445300000000000000006044820152606401611273565b8061417e81615f54565b91505061405b565b5081600183516141969190615eae565b815181106141a6576141a6615e6a565b60200260200101516000146141fd5760405162461bcd60e51b815260206004820152601b60248201527f494e56414c49445f5343484544554c455f454e445f52455741524400000000006044820152606401611273565b50505050505050565b6118ce846323b872dd60e01b85858560405160240161422793929190616007565b60408051601f198184030181529190526020810180516001600160e01b03166001600160e01b031990931692909217909152615170565b4260fd54141561426a57565b60fe54156143305761427f600060fd54611d1c565b60fc60008282546142909190615e96565b90915550506101055460015b8181101561432d57600261010582815481106142ba576142ba615e6a565b60009182526020909120600e600f90920201015460ff1660028111156142e2576142e2615ca4565b141561431b576142f1816114f2565b610105828154811061430557614305615e6a565b90600052602060002090600f0201600b01819055505b8061432581615f54565b91505061429c565b50505b4260fd55565b60005b818110156118ce57600261010584848481811061435857614358615e6a565b905060200201358154811061436f5761436f615e6a565b60009182526020909120600e600f90920201015460ff16600281111561439757614397615ca4565b14156143bf576143bf848484848181106143b3576143b3615e6a565b90506020020135614b5c565b806143c981615f54565b915050614339565b6101055460015b818110156119ed57600261010582815481106143f6576143f6615e6a565b60009182526020909120600e600f90920201015460ff16600281111561441e5761441e615ca4565b141561442e5761442e8382614b5c565b8061443881615f54565b9150506143d8565b6001600160a01b03821660009081526101046020526040812060fe5490919061446a5750816144b1565b600060fe548461447a9190615ec5565b905060fc548161448a9190615ee4565b91508060fc548361449b9190615ec5565b10156144af576144ac600183615e96565b91505b505b808260010160008282546144c59190615e96565b925050819055508060fe60008282546144de9190615e96565b925050819055508260fc60008282546144f79190615e96565b9091555050815483908390600090614510908490615e96565b90915550600090506145228242615242565b90508060ff60008282546145369190615e96565b92505081905550808360020160008282546145519190615e96565b90915550506101055460015b818110156145b257610105818154811061457957614579615e6a565b60009182526020808320600b600f90930201919091015483835260058801909152604090912055806145aa81615f54565b91505061455d565b5060408051868152602081018590526001600160a01b038816917f1449c6dd7851abc30abf37f57715f492010519147cc2652fbc38202c18a6ee90910160405180910390a2505050505050565b8161463a5760405162461bcd60e51b815260206004820152600b60248201526a16915493d7d05353d5539560aa1b6044820152606401611273565b8082111561468a5760405162461bcd60e51b815260206004820152601860248201527f4e4f545f454e4f5547485f5354414b455f42414c414e434500000000000000006044820152606401611273565b33600090815261010460205260408120600181015460fe8054929391929091906146b5908490615eae565b9091555050600281015460ff80546000906146d1908490615eae565b90915550506000600182018190556002820181905560fc80548492906146f8908490615eae565b9091555050600080825580805260038201602052604081208054859290614720908490615e96565b9091555050610105805460009061473957614739615e6a565b90600052602060002090600f0201600a0154426147569190615e96565b600080805260048301602090815260408083209390935560038401815282822054925192835233927f5f1c6be51c8ec7fa7e7ddd9f798ec55927b06cfc8d9159987d1ae3358cb10b59910160405180910390a360405183815233907f0f5bb82176feb1b5e747e28471aa92156a04d9f3ab9f45f28e2d704232b93f759060200160405180910390a260006147ea8484615eae565b905080156118ce576118ce3382614440565b336000818152610104602090815260408083208584526003810183528184208054949055905183815290939185917f3bfce8de0db7450cc169b94323c210e69a36c6a4a58c9f5d96bec4973adce392910160405180910390a36101005461010580546001600160a01b039092169163da0c1a889133918790811061488257614882615e6a565b600091825260209091206002600f9092020101546040516001600160e01b031960e085901b1681526148c392916001600160a01b0316908690600401616007565b600060405180830381600087803b1580156148dd57600080fd5b505af11580156141fd573d6000803e3d6000fd5b6148fb8282613229565b611a9657600082815260c9602090815260408083206001600160a01b03851684529091529020805460ff191660011790556149333390565b6001600160a01b0316816001600160a01b0316837f2f8788117e7eff1d82e926ec794901d17c78024a50270940304540a733656f0d60405160405180910390a45050565b6149818282613229565b15611a9657600082815260c9602090815260408083206001600160a01b0385168085529252808320805460ff1916905551339285917ff6391f5c32d9c69d2a47ea670b442974b53935d1edc7fd64eb21e047a839171b9190a45050565b7f360894a13ba1a3210667c828492db98dca3e2076cc3735a920a3ca505d382bbc546001600160a01b031690565b6000611a968133613cd0565b6000614a226149de565b9050614a2d8461533c565b600083511180614a3a5750815b15614a4b57614a4984846153e1565b505b7f4910fdfa16fed3260ed0e7147f7cc6da11a60208b5b9406d12a635614ffd9143805460ff1661284e57805460ff191660011781556040516001600160a01b0383166024820152614aca90869060440160408051601f198184030181529190526020810180516001600160e01b0316631b2ce7f360e11b1790526153e1565b50805460ff19168155614adb6149de565b6001600160a01b0316826001600160a01b031614614b535760405162461bcd60e51b815260206004820152602f60248201527f45524331393637557067726164653a207570677261646520627265616b73206660448201526e75727468657220757067726164657360881b6064820152608401611273565b61284e856154c3565b80614ba35760405162461bcd60e51b815260206004820152601760248201527610555493d49057d49155d0549114d7d0d3d35413d55391604a1b6044820152606401611273565b60026101058281548110614bb957614bb9615e6a565b60009182526020909120600e600f90920201015460ff166002811115614be157614be1615ca4565b14614c2e5760405162461bcd60e51b815260206004820152601b60248201527f494e4143544956455f4f525f50524f504f5345445f53545245414d00000000006044820152606401611273565b6001600160a01b0382166000908152610104602052604090206001810154614c985760405162461bcd60e51b815260206004820152601f60248201527f555345525f444f45535f4e4f545f484156455f41435455414c5f5354414b45006044820152606401611273565b60006c7e37be2022c0914b26800000008260020154836005016000868152602001908152602001600020546101058681548110614cd757614cd7615e6a565b90600052602060002090600f0201600b0154614cf39190615eae565b614cfd9190615ec5565b614d079190615ee4565b905080614d145750505050565b600083815260038301602052604081208054839290614d34908490615e96565b9091555050610105805484908110614d4e57614d4e615e6a565b90600052602060002090600f0201600b0154826005016000858152602001908152602001600020819055506101058381548110614d8d57614d8d615e6a565b90600052602060002090600f0201600a015442614daa9190615e96565b6000848152600484016020526040902055610105805482919085908110614dd357614dd3615e6a565b90600052602060002090600f02016006016000828254614df39190615e96565b909155505060008381526003830160209081526040918290205491519182526001600160a01b0386169185917f5f1c6be51c8ec7fa7e7ddd9f798ec55927b06cfc8d9159987d1ae3358cb10b59910160405180910390a350505050565b60006101058381548110614e6657614e66615e6a565b600091825260208220600d600f90920201015491505b818110156118ce576101058481548110614e9857614e98615e6a565b90600052602060002090600f020160070154836101058681548110614ebf57614ebf615e6a565b90600052602060002090600f0201600c016001018381548110614ee457614ee4615e6a565b9060005260206000200154614ef99190615ec5565b614f039190615ee4565b6101058581548110614f1757614f17615e6a565b90600052602060002090600f0201600c016001018281548110614f3c57614f3c615e6a565b60009182526020909120015580614f5281615f54565b915050614e7c565b6040516001600160a01b0383166024820152604481018290526119ed90849063a9059cbb60e01b90606401614227565b614f92615503565b614f9a61553c565b614fa56000336148f1565b614fcf7f139c2898040ef16910dc9f44dc697df79363da767d8bc92f2e310312b816e46d336148f1565b60fb55565b60606000614fe3836002615ec5565b614fee906002615e96565b67ffffffffffffffff811115615006576150066157f5565b6040519080825280601f01601f191660200182016040528015615030576020820181803683370190505b509050600360fc1b8160008151811061504b5761504b615e6a565b60200101906001600160f81b031916908160001a905350600f60fb1b8160018151811061507a5761507a615e6a565b60200101906001600160f81b031916908160001a905350600061509e846002615ec5565b6150a9906001615e96565b90505b6001811115615121576f181899199a1a9b1b9c1cb0b131b232b360811b85600f16601081106150dd576150dd615e6a565b1a60f81b8282815181106150f3576150f3615e6a565b60200101906001600160f81b031916908160001a90535060049490941c9361511a816160d5565b90506150ac565b5083156111415760405162461bcd60e51b815260206004820181905260248201527f537472696e67733a20686578206c656e67746820696e73756666696369656e746044820152606401611273565b60006151c5826040518060400160405280602081526020017f5361666545524332303a206c6f772d6c6576656c2063616c6c206661696c6564815250856001600160a01b031661556b9092919063ffffffff16565b8051909150156119ed57808060200190518101906151e39190615f06565b6119ed5760405162461bcd60e51b815260206004820152602a60248201527f5361666545524332303a204552433230206f7065726174696f6e20646964206e6044820152691bdd081cdd58d8d9595960b21b6064820152608401611273565b6000806228207261010560008154811061525e5761525e615e6a565b90600052602060002090600f0201600c0160000160008154811061528457615284615e6a565b90600052602060002001546152999190615e96565b905060006152ab630786156083615e96565b90508184116152cb57610102546152c29086615ec5565b92505050610dd3565b8084106152e057610103546152c29086615ec5565b6152ea8282615eae565b6152f48583615eae565b61010354610102546153069190615eae565b6153109088615ec5565b61531a9190615ec5565b6153249190615ee4565b610103546153329087615ec5565b613bb49190615e96565b803b6153a05760405162461bcd60e51b815260206004820152602d60248201527f455243313936373a206e657720696d706c656d656e746174696f6e206973206e60448201526c1bdd08184818dbdb9d1c9858dd609a1b6064820152608401611273565b7f360894a13ba1a3210667c828492db98dca3e2076cc3735a920a3ca505d382bbc80546001600160a01b0319166001600160a01b0392909216919091179055565b6060823b6154405760405162461bcd60e51b815260206004820152602660248201527f416464726573733a2064656c65676174652063616c6c20746f206e6f6e2d636f6044820152651b9d1c9858dd60d21b6064820152608401611273565b600080846001600160a01b03168460405161545b9190616044565b600060405180830381855af49150503d8060008114615496576040519150601f19603f3d011682016040523d82523d6000602084013e61549b565b606091505b5091509150613bb482826040518060600160405280602781526020016161586027913961557a565b6154cc8161533c565b6040516001600160a01b038216907fbc7cd75a20ee27fd9adebab32041f755214dbc6bffa90cc0225b39da2e5c2d3b90600090a250565b600054610100900460ff1661552a5760405162461bcd60e51b8152600401611273906160ec565b6155326155b3565b61553a6155b3565b565b600054610100900460ff166155635760405162461bcd60e51b8152600401611273906160ec565b61552a6155b3565b6060611f1284846000856155da565b60608315615589575081611141565b8251156155995782518084602001fd5b8160405162461bcd60e51b81526004016112739190615e57565b600054610100900460ff1661553a5760405162461bcd60e51b8152600401611273906160ec565b60608247101561563b5760405162461bcd60e51b815260206004820152602660248201527f416464726573733a20696e73756666696369656e742062616c616e636520666f6044820152651c8818d85b1b60d21b6064820152608401611273565b843b6156895760405162461bcd60e51b815260206004820152601d60248201527f416464726573733a2063616c6c20746f206e6f6e2d636f6e74726163740000006044820152606401611273565b600080866001600160a01b031685876040516156a59190616044565b60006040518083038185875af1925050503d80600081146156e2576040519150601f19603f3d011682016040523d82523d6000602084013e6156e7565b606091505b509150915061164d82828661557a565b828054828255906000526020600020908101928215615732579160200282015b82811115615732578251825591602001919060010190615717565b5061573e929150615742565b5090565b5b8082111561573e5760008155600101615743565b60006020828403121561576957600080fd5b81356001600160e01b03198116811461114157600080fd5b60008060006060848603121561579657600080fd5b505081359360208301359350604090920135919050565b80356001600160a01b03811681146157c457600080fd5b919050565b600080604083850312156157dc57600080fd5b823591506157ec602084016157ad565b90509250929050565b634e487b7160e01b600052604160045260246000fd5b604051601f8201601f1916810167ffffffffffffffff81118282101715615834576158346157f5565b604052919050565b600082601f83011261584d57600080fd5b8135602067ffffffffffffffff821115615869576158696157f5565b8160051b61587882820161580b565b928352848101820192828101908785111561589257600080fd5b83870192505b8483101561164d57823582529183019190830190615898565b600080600080600080600080610100898b0312156158ce57600080fd5b6158d7896157ad565b97506158e560208a016157ad565b965060408901359550606089013594506080890135935060a089013567ffffffffffffffff8082111561591757600080fd5b6159238c838d0161583c565b945060c08b013591508082111561593957600080fd5b506159468b828c0161583c565b92505060e089013590509295985092959890939650565b60006020828403121561596f57600080fd5b5035919050565b60008083601f84011261598857600080fd5b50813567ffffffffffffffff8111156159a057600080fd5b6020830191508360208260051b85010111156159bb57600080fd5b9250929050565b600080600080604085870312156159d857600080fd5b843567ffffffffffffffff808211156159f057600080fd5b6159fc88838901615976565b90965094506020870135915080821115615a1557600080fd5b50615a2287828801615976565b95989497509550505050565b60008060208385031215615a4157600080fd5b823567ffffffffffffffff811115615a5857600080fd5b615a6485828601615976565b90969095509350505050565b60008060408385031215615a8357600080fd5b615a8c836157ad565b946020939093013593505050565b600060208284031215615aac57600080fd5b611141826157ad565b60008060408385031215615ac857600080fd5b50508035926020909101359150565b60008060408385031215615aea57600080fd5b615af3836157ad565b915060208084013567ffffffffffffffff80821115615b1157600080fd5b818601915086601f830112615b2557600080fd5b813581811115615b3757615b376157f5565b615b49601f8201601f1916850161580b565b91508082528784828501011115615b5f57600080fd5b80848401858401376000848284010152508093505050509250929050565b600080600080600060608688031215615b9557600080fd5b853567ffffffffffffffff80821115615bad57600080fd5b615bb989838a01615976565b90975095506020880135915080821115615bd257600080fd5b50615bdf88828901615976565b96999598509660400135949350505050565b600080600060408486031215615c0657600080fd5b615c0f846157ad565b9250602084013567ffffffffffffffff811115615c2b57600080fd5b615c3786828701615976565b9497909650939450505050565b600081518084526020808501945080840160005b83811015615c7457815187529582019590820190600101615c58565b509495945050505050565b604081526000615c926040830185615c44565b8281036020840152613bb48185615c44565b634e487b7160e01b600052602160045260246000fd5b6001600160a01b038c811682528b166020820152604081018a9052606081018990526080810188905260a0810187905260c0810186905260e0810185905261010081018490526101208101839052610160810160038310615d2b57634e487b7160e01b600052602160045260246000fd5b826101408301529c9b505050505050505050505050565b60008060008060008060008060006101208a8c031215615d6157600080fd5b615d6a8a6157ad565b9850615d7860208b016157ad565b975060408a013567ffffffffffffffff80821115615d9557600080fd5b615da18d838e0161583c565b985060608c0135915080821115615db757600080fd5b50615dc48c828d0161583c565b96505060808a0135945060a08a01359350615de160c08b016157ad565b925060e08a013591506101008a013590509295985092959850929598565b60005b83811015615e1a578181015183820152602001615e02565b838111156118ce5750506000910152565b60008151808452615e43816020860160208601615dff565b601f01601f19169290920160200192915050565b6020815260006111416020830184615e2b565b634e487b7160e01b600052603260045260246000fd5b634e487b7160e01b600052601160045260246000fd5b60008219821115615ea957615ea9615e80565b500190565b600082821015615ec057615ec0615e80565b500390565b6000816000190483118215151615615edf57615edf615e80565b500290565b600082615f0157634e487b7160e01b600052601260045260246000fd5b500490565b600060208284031215615f1857600080fd5b8151801515811461114157600080fd5b60208082526012908201527110d3d395149050d517d254d7d4105554d15160721b604082015260600190565b6000600019821415615f6857615f68615e80565b5060010190565b6020808252602c908201527f46756e6374696f6e206d7573742062652063616c6c6564207468726f7567682060408201526b19195b1959d85d1958d85b1b60a21b606082015260800190565b6020808252602c908201527f46756e6374696f6e206d7573742062652063616c6c6564207468726f7567682060408201526b6163746976652070726f787960a01b606082015260800190565b6001600160a01b039384168152919092166020820152604081019190915260600190565b60006020828403121561603d57600080fd5b5051919050565b60008251616056818460208701615dff565b9190910192915050565b7f416363657373436f6e74726f6c3a206163636f756e7420000000000000000000815260008351616098816017850160208801615dff565b7001034b99036b4b9b9b4b733903937b6329607d1b60179184019182015283516160c9816028840160208801615dff565b01602801949350505050565b6000816160e4576160e4615e80565b506000190190565b6020808252602b908201527f496e697469616c697a61626c653a20636f6e7472616374206973206e6f74206960408201526a6e697469616c697a696e6760a81b60608201526080019056fe930802d0eadfb856cb83e01d1c4daa3c89e9c6d9f74cfbe13124decf2b33128a416464726573733a206c6f772d6c6576656c2064656c65676174652063616c6c206661696c6564f7db13299c8a9e501861f04c20f69a2444829a36a363cfad4b58864709c755603a2f235c9daaf33349d300aadff2f15078a89df81bcfdd45ba11c8f816bddc6fa264697066735822122045af48d8326cd60a31fbf624ff03961e86d5cd1218ea1731b272552dbee84efa64736f6c634300080a0033",
    "linkReferences": {}
  },
  "methodIdentifiers": {
    "AIRDROP_ROLE()": "1e0fbfa2",
    "CLAIM_ROLE()": "86c1b4eb",
    "DEFAULT_ADMIN_ROLE()": "a217fddf",
    "FOUR_YEARS()": "fe904b7a",
    "ONE_MONTH()": "20988cef",
    "PAUSE_ROLE()": "389ed267",
    "STREAM_MANAGER_ROLE()": "3ea005c8",
    "adminDelegatecall(address,bytes)": "b8e9744c",
    "adminPause(uint256)": "2692c59f",
    "adminSstore(uint256,uint256)": "be831a2e",
    "adminSstoreWithMask(uint256,uint256,uint256)": "6c4624c3",
    "auroraToken()": "5578fdb2",
    "batchClaimOnBehalfOfAnotherUser(address,uint256[])": "6458edd3",
    "batchClaimOnBehalfOfOtherUsers(address[],uint256[])": "26cdddb9",
    "batchMoveRewardsToPending(uint256[])": "687dd46c",
    "batchWithdraw(uint256[])": "72e55399",
    "cancelStreamProposal(uint256)": "90403322",
    "claimAllOnBehalfOfAnotherUser(address)": "d5050aed",
    "claimAllOnBehalfOfOtherUsers(address[])": "27571969",
    "claimOnBehalfOfAnotherUser(address,uint256)": "3e9a44cb",
    "createStream(uint256,uint256)": "8d40bd03",
    "getAmountOfShares(uint256,address)": "0efd8310",
    "getLatestRewardPerShare(uint256)": "12dd67fe",
    "getPending(uint256,address)": "7f37df3b",
    "getReleaseTime(uint256,address)": "c8927723",
    "getRewardPerShare(uint256)": "993b21c1",
    "getRewardPerShareForUser(uint256,address)": "1dd00452",
    "getRewardsAmount(uint256,uint256)": "36630cc7",
    "getRoleAdmin(bytes32)": "248a9ca3",
    "getStream(uint256)": "894e9a0d",
    "getStreamClaimableAmount(uint256,address)": "1c61e617",
    "getStreamOwnerClaimableAmount(uint256)": "396a6c14",
    "getStreamSchedule(uint256)": "70bc770c",
    "getStreamsCount()": "e335e79a",
    "getTotalAmountOfStakedAurora()": "cd5ba590",
    "getTreasuryBalance(address)": "57baeac8",
    "getUserShares(address)": "ba0cb22b",
    "getUserTotalDeposit(address)": "a4c828dc",
    "grantRole(bytes32,address)": "2f2ff15d",
    "hasRole(bytes32,address)": "91d14854",
    "initialize(address,address,uint256[],uint256[],uint256,uint256,address,uint256,uint256)": "a81c6a15",
    "maxWeight()": "a8b0bb83",
    "minWeight()": "0c2ee55e",
    "moveAllRewardsToPending()": "8bc34e77",
    "moveRewardsToPending(uint256)": "ee13ad8e",
    "paused()": "5c975abb",
    "proposeStream(address,address,uint256,uint256,uint256,uint256[],uint256[],uint256)": "1194ebeb",
    "releaseAuroraRewardsToStreamOwner(uint256)": "9c52a920",
    "removeStream(uint256,address)": "3ba31abf",
    "renounceRole(bytes32,address)": "36568abe",
    "revokeRole(bytes32,address)": "d547741f",
    "rewardsSchedule(uint256,uint256,uint256)": "03687788",
    "stake(uint256)": "a694fc3a",
    "stakeOnBehalfOfAnotherUser(address,uint256)": "2ca783f3",
    "stakeOnBehalfOfOtherUsers(address[],uint256[],uint256)": "53a4cca0",
    "startEndScheduleIndex(uint256,uint256,uint256)": "4981912e",
    "supportsInterface(bytes4)": "01ffc9a7",
    "totalAmountOfStakedAurora()": "3895a275",
    "totalAuroraShares()": "bb07ec1b",
    "totalStreamShares()": "6db8e53d",
    "touchedAt()": "1fd8c5f4",
    "treasury()": "61d027b3",
    "unstake(uint256)": "2e17de78",
    "unstakeAll()": "35322f37",
    "updateTreasury(address)": "7f51bb1f",
    "upgradeTo(address)": "3659cfe6",
    "upgradeToAndCall(address,bytes)": "4f1ef286",
    "users(address)": "a87430ba",
    "withdraw(uint256)": "2e1a7d4d",
    "withdrawAll()": "853828b6"
  },
  "id": 26
}