{
  "abi": [
    {
      "anonymous": false,
      "inputs": [
        {
          "indexed": false,
          "internalType": "address",
          "name": "previousAdmin",
          "type": "address"
        },
        {
          "indexed": false,
          "internalType": "address",
          "name": "newAdmin",
          "type": "address"
        }
      ],
      "name": "AdminChanged",
      "type": "event"
    },
    {
      "anonymous": false,
      "inputs": [
        {
          "indexed": true,
          "internalType": "address",
          "name": "beacon",
          "type": "address"
        }
      ],
      "name": "BeaconUpgraded",
      "type": "event"
    },
    {
      "anonymous": false,
      "inputs": [
        {
          "indexed": true,
          "internalType": "uint256",
          "name": "streamId",
          "type": "uint256"
        },
        {
          "indexed": true,
          "internalType": "address",
          "name": "user",
          "type": "address"
        },
        {
          "indexed": false,
          "internalType": "uint256",
          "name": "amount",
          "type": "uint256"
        }
      ],
      "name": "Pending",
      "type": "event"
    },
    {
      "anonymous": false,
      "inputs": [
        {
          "indexed": true,
          "internalType": "uint256",
          "name": "streamId",
          "type": "uint256"
        },
        {
          "indexed": true,
          "internalType": "address",
          "name": "user",
          "type": "address"
        },
        {
          "indexed": false,
          "internalType": "uint256",
          "name": "amount",
          "type": "uint256"
        }
      ],
      "name": "Released",
      "type": "event"
    },
    {
      "anonymous": false,
      "inputs": [
        {
          "indexed": true,
          "internalType": "bytes32",
          "name": "role",
          "type": "bytes32"
        },
        {
          "indexed": true,
          "internalType": "bytes32",
          "name": "previousAdminRole",
          "type": "bytes32"
        },
        {
          "indexed": true,
          "internalType": "bytes32",
          "name": "newAdminRole",
          "type": "bytes32"
        }
      ],
      "name": "RoleAdminChanged",
      "type": "event"
    },
    {
      "anonymous": false,
      "inputs": [
        {
          "indexed": true,
          "internalType": "bytes32",
          "name": "role",
          "type": "bytes32"
        },
        {
          "indexed": true,
          "internalType": "address",
          "name": "account",
          "type": "address"
        },
        {
          "indexed": true,
          "internalType": "address",
          "name": "sender",
          "type": "address"
        }
      ],
      "name": "RoleGranted",
      "type": "event"
    },
    {
      "anonymous": false,
      "inputs": [
        {
          "indexed": true,
          "internalType": "bytes32",
          "name": "role",
          "type": "bytes32"
        },
        {
          "indexed": true,
          "internalType": "address",
          "name": "account",
          "type": "address"
        },
        {
          "indexed": true,
          "internalType": "address",
          "name": "sender",
          "type": "address"
        }
      ],
      "name": "RoleRevoked",
      "type": "event"
    },
    {
      "anonymous": false,
      "inputs": [
        {
          "indexed": true,
          "internalType": "address",
          "name": "user",
          "type": "address"
        },
        {
          "indexed": false,
          "internalType": "uint256",
          "name": "amount",
          "type": "uint256"
        },
        {
          "indexed": false,
          "internalType": "uint256",
          "name": "shares",
          "type": "uint256"
        }
      ],
      "name": "Staked",
      "type": "event"
    },
    {
      "anonymous": false,
      "inputs": [
        {
          "indexed": true,
          "internalType": "uint256",
          "name": "streamId",
          "type": "uint256"
        },
        {
          "indexed": true,
          "internalType": "address",
          "name": "owner",
          "type": "address"
        },
        {
          "indexed": true,
          "internalType": "address",
          "name": "token",
          "type": "address"
        },
        {
          "indexed": false,
          "internalType": "uint256",
          "name": "tokenAmount",
          "type": "uint256"
        },
        {
          "indexed": false,
          "internalType": "uint256",
          "name": "auroraAmount",
          "type": "uint256"
        }
      ],
      "name": "StreamCreated",
      "type": "event"
    },
    {
      "anonymous": false,
      "inputs": [
        {
          "indexed": true,
          "internalType": "uint256",
          "name": "streamId",
          "type": "uint256"
        },
        {
          "indexed": true,
          "internalType": "address",
          "name": "owner",
          "type": "address"
        },
        {
          "indexed": false,
          "internalType": "uint256",
          "name": "amount",
          "type": "uint256"
        }
      ],
      "name": "StreamOwnerRewardReleased",
      "type": "event"
    },
    {
      "anonymous": false,
      "inputs": [
        {
          "indexed": true,
          "internalType": "uint256",
          "name": "streamId",
          "type": "uint256"
        },
        {
          "indexed": true,
          "internalType": "address",
          "name": "owner",
          "type": "address"
        },
        {
          "indexed": true,
          "internalType": "address",
          "name": "token",
          "type": "address"
        }
      ],
      "name": "StreamProposalCancelled",
      "type": "event"
    },
    {
      "anonymous": false,
      "inputs": [
        {
          "indexed": true,
          "internalType": "uint256",
          "name": "streamId",
          "type": "uint256"
        },
        {
          "indexed": true,
          "internalType": "address",
          "name": "owner",
          "type": "address"
        },
        {
          "indexed": true,
          "internalType": "address",
          "name": "token",
          "type": "address"
        },
        {
          "indexed": false,
          "internalType": "uint256",
          "name": "maxDepositAmount",
          "type": "uint256"
        },
        {
          "indexed": false,
          "internalType": "uint256",
          "name": "auroraDepositAmount",
          "type": "uint256"
        }
      ],
      "name": "StreamProposed",
      "type": "event"
    },
    {
      "anonymous": false,
      "inputs": [
        {
          "indexed": true,
          "internalType": "uint256",
          "name": "streamId",
          "type": "uint256"
        },
        {
          "indexed": true,
          "internalType": "address",
          "name": "owner",
          "type": "address"
        },
        {
          "indexed": true,
          "internalType": "address",
          "name": "token",
          "type": "address"
        }
      ],
      "name": "StreamRemoved",
      "type": "event"
    },
    {
      "anonymous": false,
      "inputs": [
        {
          "indexed": true,
          "internalType": "address",
          "name": "user",
          "type": "address"
        },
        {
          "indexed": false,
          "internalType": "uint256",
          "name": "amount",
          "type": "uint256"
        }
      ],
      "name": "Unstaked",
      "type": "event"
    },
    {
      "anonymous": false,
      "inputs": [
        {
          "indexed": true,
          "internalType": "address",
          "name": "implementation",
          "type": "address"
        }
      ],
      "name": "Upgraded",
      "type": "event"
    },
    {
      "inputs": [],
      "name": "AIRDROP_ROLE",
      "outputs": [
        {
          "internalType": "bytes32",
          "name": "",
          "type": "bytes32"
        }
      ],
      "stateMutability": "view",
      "type": "function"
    },
    {
      "inputs": [],
      "name": "CLAIM_ROLE",
      "outputs": [
        {
          "internalType": "bytes32",
          "name": "",
          "type": "bytes32"
        }
      ],
      "stateMutability": "view",
      "type": "function"
    },
    {
      "inputs": [],
      "name": "DEFAULT_ADMIN_ROLE",
      "outputs": [
        {
          "internalType": "bytes32",
          "name": "",
          "type": "bytes32"
        }
      ],
      "stateMutability": "view",
      "type": "function"
    },
    {
      "inputs": [],
      "name": "FOUR_YEARS",
      "outputs": [
        {
          "internalType": "uint256",
          "name": "",
          "type": "uint256"
        }
      ],
      "stateMutability": "view",
      "type": "function"
    },
    {
      "inputs": [],
      "name": "ONE_MONTH",
      "outputs": [
        {
          "internalType": "uint256",
          "name": "",
          "type": "uint256"
        }
      ],
      "stateMutability": "view",
      "type": "function"
    },
    {
      "inputs": [],
      "name": "PAUSE_ROLE",
      "outputs": [
        {
          "internalType": "bytes32",
          "name": "",
          "type": "bytes32"
        }
      ],
      "stateMutability": "view",
      "type": "function"
    },
    {
      "inputs": [],
      "name": "STREAM_MANAGER_ROLE",
      "outputs": [
        {
          "internalType": "bytes32",
          "name": "",
          "type": "bytes32"
        }
      ],
      "stateMutability": "view",
      "type": "function"
    },
    {
      "inputs": [
        {
          "internalType": "address",
          "name": "target",
          "type": "address"
        },
        {
          "internalType": "bytes",
          "name": "data",
          "type": "bytes"
        }
      ],
      "name": "adminDelegatecall",
      "outputs": [
        {
          "internalType": "bytes",
          "name": "",
          "type": "bytes"
        }
      ],
      "stateMutability": "payable",
      "type": "function"
    },
    {
      "inputs": [
        {
          "internalType": "uint256",
          "name": "flags",
          "type": "uint256"
        }
      ],
      "name": "adminPause",
      "outputs": [],
      "stateMutability": "nonpayable",
      "type": "function"
    },
    {
      "inputs": [
        {
          "internalType": "uint256",
          "name": "key",
          "type": "uint256"
        },
        {
          "internalType": "uint256",
          "name": "value",
          "type": "uint256"
        }
      ],
      "name": "adminSstore",
      "outputs": [],
      "stateMutability": "nonpayable",
      "type": "function"
    },
    {
      "inputs": [
        {
          "internalType": "uint256",
          "name": "key",
          "type": "uint256"
        },
        {
          "internalType": "uint256",
          "name": "value",
          "type": "uint256"
        },
        {
          "internalType": "uint256",
          "name": "mask",
          "type": "uint256"
        }
      ],
      "name": "adminSstoreWithMask",
      "outputs": [],
      "stateMutability": "nonpayable",
      "type": "function"
    },
    {
      "inputs": [],
      "name": "auroraToken",
      "outputs": [
        {
          "internalType": "address",
          "name": "",
          "type": "address"
        }
      ],
      "stateMutability": "view",
      "type": "function"
    },
    {
      "inputs": [
        {
          "internalType": "address",
          "name": "account",
          "type": "address"
        },
        {
          "internalType": "uint256[]",
          "name": "streamIds",
          "type": "uint256[]"
        }
      ],
      "name": "batchClaimOnBehalfOfAnotherUser",
      "outputs": [],
      "stateMutability": "nonpayable",
      "type": "function"
    },
    {
      "inputs": [
        {
          "internalType": "address[]",
          "name": "accounts",
          "type": "address[]"
        },
        {
          "internalType": "uint256[]",
          "name": "streamIds",
          "type": "uint256[]"
        }
      ],
      "name": "batchClaimOnBehalfOfOtherUsers",
      "outputs": [],
      "stateMutability": "nonpayable",
      "type": "function"
    },
    {
      "inputs": [
        {
          "internalType": "uint256[]",
          "name": "streamIds",
          "type": "uint256[]"
        }
      ],
      "name": "batchMoveRewardsToPending",
      "outputs": [],
      "stateMutability": "nonpayable",
      "type": "function"
    },
    {
      "inputs": [
        {
          "internalType": "uint256[]",
          "name": "streamIds",
          "type": "uint256[]"
        }
      ],
      "name": "batchWithdraw",
      "outputs": [],
      "stateMutability": "nonpayable",
      "type": "function"
    },
    {
      "inputs": [
        {
          "internalType": "uint256",
          "name": "startTime",
          "type": "uint256"
        },
        {
          "internalType": "uint256",
          "name": "endTime",
          "type": "uint256"
        }
      ],
      "name": "before",
      "outputs": [
        {
          "internalType": "uint256",
          "name": "total",
          "type": "uint256"
        },
        {
          "internalType": "uint256",
          "name": "rewardPerShareAurora",
          "type": "uint256"
        },
        {
          "internalType": "uint256",
          "name": "scheduleCalculated",
          "type": "uint256"
        }
      ],
      "stateMutability": "view",
      "type": "function"
    },
    {
      "inputs": [
        {
          "internalType": "uint256",
          "name": "shares",
          "type": "uint256"
        },
        {
          "internalType": "uint256",
          "name": "timestamp",
          "type": "uint256"
        }
      ],
      "name": "calculateWeightedShares",
      "outputs": [
        {
          "internalType": "uint256",
          "name": "",
          "type": "uint256"
        }
      ],
      "stateMutability": "view",
      "type": "function"
    },
    {
      "inputs": [],
      "name": "callBeforeTwice",
      "outputs": [],
      "stateMutability": "nonpayable",
      "type": "function"
    },
    {
      "inputs": [
        {
          "internalType": "uint256",
          "name": "streamId",
          "type": "uint256"
        }
      ],
      "name": "cancelStreamProposal",
      "outputs": [],
      "stateMutability": "nonpayable",
      "type": "function"
    },
    {
      "inputs": [
        {
          "internalType": "address",
          "name": "account",
          "type": "address"
        }
      ],
      "name": "claimAllOnBehalfOfAnotherUser",
      "outputs": [],
      "stateMutability": "nonpayable",
      "type": "function"
    },
    {
      "inputs": [
        {
          "internalType": "address[]",
          "name": "accounts",
          "type": "address[]"
        }
      ],
      "name": "claimAllOnBehalfOfOtherUsers",
      "outputs": [],
      "stateMutability": "nonpayable",
      "type": "function"
    },
    {
      "inputs": [
        {
          "internalType": "address",
          "name": "account",
          "type": "address"
        },
        {
          "internalType": "uint256",
          "name": "streamId",
          "type": "uint256"
        }
      ],
      "name": "claimOnBehalfOfAnotherUser",
      "outputs": [],
      "stateMutability": "nonpayable",
      "type": "function"
    },
    {
      "inputs": [
        {
          "internalType": "uint256",
          "name": "streamId",
          "type": "uint256"
        },
        {
          "internalType": "uint256",
          "name": "rewardTokenAmount",
          "type": "uint256"
        }
      ],
      "name": "createStream",
      "outputs": [],
      "stateMutability": "nonpayable",
      "type": "function"
    },
    {
      "inputs": [],
      "name": "dummy",
      "outputs": [
        {
          "internalType": "uint256",
          "name": "",
          "type": "uint256"
        }
      ],
      "stateMutability": "view",
      "type": "function"
    },
    {
      "inputs": [
        {
          "internalType": "uint256",
          "name": "streamId",
          "type": "uint256"
        },
        {
          "internalType": "address",
          "name": "account",
          "type": "address"
        }
      ],
      "name": "getAmountOfShares",
      "outputs": [
        {
          "internalType": "uint256",
          "name": "",
          "type": "uint256"
        }
      ],
      "stateMutability": "view",
      "type": "function"
    },
    {
      "inputs": [
        {
          "internalType": "uint256",
          "name": "streamId",
          "type": "uint256"
        }
      ],
      "name": "getLatestRewardPerShare",
      "outputs": [
        {
          "internalType": "uint256",
          "name": "",
          "type": "uint256"
        }
      ],
      "stateMutability": "view",
      "type": "function"
    },
    {
      "inputs": [
        {
          "internalType": "uint256",
          "name": "streamId",
          "type": "uint256"
        },
        {
          "internalType": "address",
          "name": "account",
          "type": "address"
        }
      ],
      "name": "getPending",
      "outputs": [
        {
          "internalType": "uint256",
          "name": "",
          "type": "uint256"
        }
      ],
      "stateMutability": "view",
      "type": "function"
    },
    {
      "inputs": [
        {
          "internalType": "uint256",
          "name": "streamId",
          "type": "uint256"
        },
        {
          "internalType": "address",
          "name": "account",
          "type": "address"
        }
      ],
      "name": "getReleaseTime",
      "outputs": [
        {
          "internalType": "uint256",
          "name": "",
          "type": "uint256"
        }
      ],
      "stateMutability": "view",
      "type": "function"
    },
    {
      "inputs": [
        {
          "internalType": "uint256",
          "name": "streamId",
          "type": "uint256"
        }
      ],
      "name": "getRewardPerShare",
      "outputs": [
        {
          "internalType": "uint256",
          "name": "",
          "type": "uint256"
        }
      ],
      "stateMutability": "view",
      "type": "function"
    },
    {
      "inputs": [
        {
          "internalType": "uint256",
          "name": "streamId",
          "type": "uint256"
        },
        {
          "internalType": "address",
          "name": "account",
          "type": "address"
        }
      ],
      "name": "getRewardPerShareForUser",
      "outputs": [
        {
          "internalType": "uint256",
          "name": "",
          "type": "uint256"
        }
      ],
      "stateMutability": "view",
      "type": "function"
    },
    {
      "inputs": [
        {
          "internalType": "uint256",
          "name": "streamId",
          "type": "uint256"
        },
        {
          "internalType": "uint256",
          "name": "lastUpdate",
          "type": "uint256"
        }
      ],
      "name": "getRewardsAmount",
      "outputs": [
        {
          "internalType": "uint256",
          "name": "",
          "type": "uint256"
        }
      ],
      "stateMutability": "view",
      "type": "function"
    },
    {
      "inputs": [
        {
          "internalType": "bytes32",
          "name": "role",
          "type": "bytes32"
        }
      ],
      "name": "getRoleAdmin",
      "outputs": [
        {
          "internalType": "bytes32",
          "name": "",
          "type": "bytes32"
        }
      ],
      "stateMutability": "view",
      "type": "function"
    },
    {
      "inputs": [
        {
          "internalType": "uint256",
          "name": "streamId",
          "type": "uint256"
        }
      ],
      "name": "getStream",
      "outputs": [
        {
          "internalType": "address",
          "name": "streamOwner",
          "type": "address"
        },
        {
          "internalType": "address",
          "name": "rewardToken",
          "type": "address"
        },
        {
          "internalType": "uint256",
          "name": "auroraDepositAmount",
          "type": "uint256"
        },
        {
          "internalType": "uint256",
          "name": "auroraClaimedAmount",
          "type": "uint256"
        },
        {
          "internalType": "uint256",
          "name": "rewardDepositAmount",
          "type": "uint256"
        },
        {
          "internalType": "uint256",
          "name": "rewardClaimedAmount",
          "type": "uint256"
        },
        {
          "internalType": "uint256",
          "name": "maxDepositAmount",
          "type": "uint256"
        },
        {
          "internalType": "uint256",
          "name": "lastTimeOwnerClaimed",
          "type": "uint256"
        },
        {
          "internalType": "uint256",
          "name": "rps",
          "type": "uint256"
        },
        {
          "internalType": "uint256",
          "name": "tau",
          "type": "uint256"
        },
        {
          "internalType": "enum JetStakingV1.StreamStatus",
          "name": "status",
          "type": "uint8"
        }
      ],
      "stateMutability": "view",
      "type": "function"
    },
    {
      "inputs": [
        {
          "internalType": "uint256",
          "name": "streamId",
          "type": "uint256"
        },
        {
          "internalType": "address",
          "name": "account",
          "type": "address"
        }
      ],
      "name": "getStreamClaimableAmount",
      "outputs": [
        {
          "internalType": "uint256",
          "name": "",
          "type": "uint256"
        }
      ],
      "stateMutability": "view",
      "type": "function"
    },
    {
      "inputs": [
        {
          "internalType": "uint256",
          "name": "streamId",
          "type": "uint256"
        }
      ],
      "name": "getStreamOwnerClaimableAmount",
      "outputs": [
        {
          "internalType": "uint256",
          "name": "",
          "type": "uint256"
        }
      ],
      "stateMutability": "view",
      "type": "function"
    },
    {
      "inputs": [
        {
          "internalType": "uint256",
          "name": "streamId",
          "type": "uint256"
        }
      ],
      "name": "getStreamSchedule",
      "outputs": [
        {
          "internalType": "uint256[]",
          "name": "scheduleTimes",
          "type": "uint256[]"
        },
        {
          "internalType": "uint256[]",
          "name": "scheduleRewards",
          "type": "uint256[]"
        }
      ],
      "stateMutability": "view",
      "type": "function"
    },
    {
      "inputs": [],
      "name": "getStreamsCount",
      "outputs": [
        {
          "internalType": "uint256",
          "name": "",
          "type": "uint256"
        }
      ],
      "stateMutability": "view",
      "type": "function"
    },
    {
      "inputs": [],
      "name": "getTotalAmountOfStakedAurora",
      "outputs": [
        {
          "internalType": "uint256",
          "name": "",
          "type": "uint256"
        }
      ],
      "stateMutability": "view",
      "type": "function"
    },
    {
      "inputs": [
        {
          "internalType": "address",
          "name": "token",
          "type": "address"
        }
      ],
      "name": "getTreasuryBalance",
      "outputs": [
        {
          "internalType": "uint256",
          "name": "",
          "type": "uint256"
        }
      ],
      "stateMutability": "view",
      "type": "function"
    },
    {
      "inputs": [
        {
          "internalType": "address",
          "name": "account",
          "type": "address"
        }
      ],
      "name": "getUserShares",
      "outputs": [
        {
          "internalType": "uint256",
          "name": "",
          "type": "uint256"
        }
      ],
      "stateMutability": "view",
      "type": "function"
    },
    {
      "inputs": [
        {
          "internalType": "address",
          "name": "account",
          "type": "address"
        }
      ],
      "name": "getUserTotalDeposit",
      "outputs": [
        {
          "internalType": "uint256",
          "name": "",
          "type": "uint256"
        }
      ],
      "stateMutability": "view",
      "type": "function"
    },
    {
      "inputs": [
        {
          "internalType": "bytes32",
          "name": "role",
          "type": "bytes32"
        },
        {
          "internalType": "address",
          "name": "account",
          "type": "address"
        }
      ],
      "name": "grantRole",
      "outputs": [],
      "stateMutability": "nonpayable",
      "type": "function"
    },
    {
      "inputs": [
        {
          "internalType": "bytes32",
          "name": "role",
          "type": "bytes32"
        },
        {
          "internalType": "address",
          "name": "account",
          "type": "address"
        }
      ],
      "name": "hasRole",
      "outputs": [
        {
          "internalType": "bool",
          "name": "",
          "type": "bool"
        }
      ],
      "stateMutability": "view",
      "type": "function"
    },
    {
      "inputs": [
        {
          "internalType": "address",
          "name": "aurora",
          "type": "address"
        },
        {
          "internalType": "address",
          "name": "streamOwner",
          "type": "address"
        },
        {
          "internalType": "uint256[]",
          "name": "scheduleTimes",
          "type": "uint256[]"
        },
        {
          "internalType": "uint256[]",
          "name": "scheduleRewards",
          "type": "uint256[]"
        },
        {
          "internalType": "uint256",
          "name": "tauAuroraStream",
          "type": "uint256"
        },
        {
          "internalType": "uint256",
          "name": "_flags",
          "type": "uint256"
        },
        {
          "internalType": "address",
          "name": "_treasury",
          "type": "address"
        },
        {
          "internalType": "uint256",
          "name": "_maxWeight",
          "type": "uint256"
        },
        {
          "internalType": "uint256",
          "name": "_minWeight",
          "type": "uint256"
        }
      ],
      "name": "initialize",
      "outputs": [],
      "stateMutability": "nonpayable",
      "type": "function"
    },
    {
      "inputs": [],
      "name": "maxWeight",
      "outputs": [
        {
          "internalType": "uint256",
          "name": "",
          "type": "uint256"
        }
      ],
      "stateMutability": "view",
      "type": "function"
    },
    {
      "inputs": [],
      "name": "minWeight",
      "outputs": [
        {
          "internalType": "uint256",
          "name": "",
          "type": "uint256"
        }
      ],
      "stateMutability": "view",
      "type": "function"
    },
    {
      "inputs": [],
      "name": "moveAllRewardsToPending",
      "outputs": [],
      "stateMutability": "nonpayable",
      "type": "function"
    },
    {
      "inputs": [
        {
          "internalType": "uint256",
          "name": "streamId",
          "type": "uint256"
        }
      ],
      "name": "moveRewardsToPending",
      "outputs": [],
      "stateMutability": "nonpayable",
      "type": "function"
    },
    {
      "inputs": [],
      "name": "paused",
      "outputs": [
        {
          "internalType": "uint256",
          "name": "",
          "type": "uint256"
        }
      ],
      "stateMutability": "view",
      "type": "function"
    },
    {
      "inputs": [
        {
          "internalType": "address",
          "name": "streamOwner",
          "type": "address"
        },
        {
          "internalType": "address",
          "name": "rewardToken",
          "type": "address"
        },
        {
          "internalType": "uint256",
          "name": "auroraDepositAmount",
          "type": "uint256"
        },
        {
          "internalType": "uint256",
          "name": "maxDepositAmount",
          "type": "uint256"
        },
        {
          "internalType": "uint256",
          "name": "minDepositAmount",
          "type": "uint256"
        },
        {
          "internalType": "uint256[]",
          "name": "scheduleTimes",
          "type": "uint256[]"
        },
        {
          "internalType": "uint256[]",
          "name": "scheduleRewards",
          "type": "uint256[]"
        },
        {
          "internalType": "uint256",
          "name": "tau",
          "type": "uint256"
        }
      ],
      "name": "proposeStream",
      "outputs": [],
      "stateMutability": "nonpayable",
      "type": "function"
    },
    {
      "inputs": [
        {
          "internalType": "uint256",
          "name": "streamId",
          "type": "uint256"
        }
      ],
      "name": "releaseAuroraRewardsToStreamOwner",
      "outputs": [],
      "stateMutability": "nonpayable",
      "type": "function"
    },
    {
      "inputs": [
        {
          "internalType": "uint256",
          "name": "streamId",
          "type": "uint256"
        },
        {
          "internalType": "address",
          "name": "streamFundReceiver",
          "type": "address"
        }
      ],
      "name": "removeStream",
      "outputs": [],
      "stateMutability": "nonpayable",
      "type": "function"
    },
    {
      "inputs": [
        {
          "internalType": "bytes32",
          "name": "role",
          "type": "bytes32"
        },
        {
          "internalType": "address",
          "name": "account",
          "type": "address"
        }
      ],
      "name": "renounceRole",
      "outputs": [],
      "stateMutability": "nonpayable",
      "type": "function"
    },
    {
      "inputs": [
        {
          "internalType": "bytes32",
          "name": "role",
          "type": "bytes32"
        },
        {
          "internalType": "address",
          "name": "account",
          "type": "address"
        }
      ],
      "name": "revokeRole",
      "outputs": [],
      "stateMutability": "nonpayable",
      "type": "function"
    },
    {
      "inputs": [
        {
          "internalType": "uint256",
          "name": "streamId",
          "type": "uint256"
        },
        {
          "internalType": "uint256",
          "name": "start",
          "type": "uint256"
        },
        {
          "internalType": "uint256",
          "name": "end",
          "type": "uint256"
        }
      ],
      "name": "rewardsSchedule",
      "outputs": [
        {
          "internalType": "uint256",
          "name": "",
          "type": "uint256"
        }
      ],
      "stateMutability": "view",
      "type": "function"
    },
    {
      "inputs": [
        {
          "internalType": "uint256",
          "name": "amount",
          "type": "uint256"
        }
      ],
      "name": "stake",
      "outputs": [],
      "stateMutability": "nonpayable",
      "type": "function"
    },
    {
      "inputs": [
        {
          "internalType": "address",
          "name": "account",
          "type": "address"
        },
        {
          "internalType": "uint256",
          "name": "amount",
          "type": "uint256"
        }
      ],
      "name": "stakeOnBehalfOfAnotherUser",
      "outputs": [],
      "stateMutability": "nonpayable",
      "type": "function"
    },
    {
      "inputs": [
        {
          "internalType": "address[]",
          "name": "accounts",
          "type": "address[]"
        },
        {
          "internalType": "uint256[]",
          "name": "amounts",
          "type": "uint256[]"
        },
        {
          "internalType": "uint256",
          "name": "batchAmount",
          "type": "uint256"
        }
      ],
      "name": "stakeOnBehalfOfOtherUsers",
      "outputs": [],
      "stateMutability": "nonpayable",
      "type": "function"
    },
    {
      "inputs": [
        {
          "internalType": "uint256",
          "name": "streamId",
          "type": "uint256"
        },
        {
          "internalType": "uint256",
          "name": "start",
          "type": "uint256"
        },
        {
          "internalType": "uint256",
          "name": "end",
          "type": "uint256"
        }
      ],
      "name": "startEndScheduleIndex",
      "outputs": [
        {
          "internalType": "uint256",
          "name": "startIndex",
          "type": "uint256"
        },
        {
          "internalType": "uint256",
          "name": "endIndex",
          "type": "uint256"
        }
      ],
      "stateMutability": "view",
      "type": "function"
    },
    {
      "inputs": [
        {
          "internalType": "bytes4",
          "name": "interfaceId",
          "type": "bytes4"
        }
      ],
      "name": "supportsInterface",
      "outputs": [
        {
          "internalType": "bool",
          "name": "",
          "type": "bool"
        }
      ],
      "stateMutability": "view",
      "type": "function"
    },
    {
      "inputs": [
        {
          "internalType": "address",
          "name": "account",
          "type": "address"
        },
        {
          "internalType": "uint256",
          "name": "streamId",
          "type": "uint256"
        }
      ],
      "name": "tempMoveRewardsToPending",
      "outputs": [],
      "stateMutability": "nonpayable",
      "type": "function"
    },
    {
      "inputs": [],
      "name": "totalAmountOfStakedAurora",
      "outputs": [
        {
          "internalType": "uint256",
          "name": "",
          "type": "uint256"
        }
      ],
      "stateMutability": "view",
      "type": "function"
    },
    {
      "inputs": [],
      "name": "totalAuroraShares",
      "outputs": [
        {
          "internalType": "uint256",
          "name": "",
          "type": "uint256"
        }
      ],
      "stateMutability": "view",
      "type": "function"
    },
    {
      "inputs": [],
      "name": "totalStreamShares",
      "outputs": [
        {
          "internalType": "uint256",
          "name": "",
          "type": "uint256"
        }
      ],
      "stateMutability": "view",
      "type": "function"
    },
    {
      "inputs": [],
      "name": "touchedAt",
      "outputs": [
        {
          "internalType": "uint256",
          "name": "",
          "type": "uint256"
        }
      ],
      "stateMutability": "view",
      "type": "function"
    },
    {
      "inputs": [],
      "name": "treasury",
      "outputs": [
        {
          "internalType": "address",
          "name": "",
          "type": "address"
        }
      ],
      "stateMutability": "view",
      "type": "function"
    },
    {
      "inputs": [
        {
          "internalType": "uint256",
          "name": "amount",
          "type": "uint256"
        }
      ],
      "name": "unstake",
      "outputs": [],
      "stateMutability": "nonpayable",
      "type": "function"
    },
    {
      "inputs": [],
      "name": "unstakeAll",
      "outputs": [],
      "stateMutability": "nonpayable",
      "type": "function"
    },
    {
      "inputs": [
        {
          "internalType": "address[]",
          "name": "accounts",
          "type": "address[]"
        }
      ],
      "name": "unstakeAllOnBehalfOfOthers",
      "outputs": [],
      "stateMutability": "nonpayable",
      "type": "function"
    },
    {
      "inputs": [
        {
          "internalType": "address",
          "name": "_treasury",
          "type": "address"
        }
      ],
      "name": "updateTreasury",
      "outputs": [],
      "stateMutability": "nonpayable",
      "type": "function"
    },
    {
      "inputs": [],
      "name": "updateUserCalculation",
      "outputs": [],
      "stateMutability": "nonpayable",
      "type": "function"
    },
    {
      "inputs": [
        {
          "internalType": "address",
          "name": "newImplementation",
          "type": "address"
        }
      ],
      "name": "upgradeTo",
      "outputs": [],
      "stateMutability": "nonpayable",
      "type": "function"
    },
    {
      "inputs": [
        {
          "internalType": "address",
          "name": "newImplementation",
          "type": "address"
        },
        {
          "internalType": "bytes",
          "name": "data",
          "type": "bytes"
        }
      ],
      "name": "upgradeToAndCall",
      "outputs": [],
      "stateMutability": "payable",
      "type": "function"
    },
    {
      "inputs": [
        {
          "internalType": "address",
          "name": "",
          "type": "address"
        }
      ],
      "name": "users",
      "outputs": [
        {
          "internalType": "uint256",
          "name": "deposit",
          "type": "uint256"
        },
        {
          "internalType": "uint256",
          "name": "auroraShares",
          "type": "uint256"
        },
        {
          "internalType": "uint256",
          "name": "streamShares",
          "type": "uint256"
        }
      ],
      "stateMutability": "view",
      "type": "function"
    },
    {
      "inputs": [
        {
          "internalType": "uint256",
          "name": "streamId",
          "type": "uint256"
        }
      ],
      "name": "withdraw",
      "outputs": [],
      "stateMutability": "nonpayable",
      "type": "function"
    },
    {
      "inputs": [],
      "name": "withdrawAll",
      "outputs": [],
      "stateMutability": "nonpayable",
      "type": "function"
    }
  ],
  "bytecode": {
    "object": "0x60a0604052306080523480156200001557600080fd5b50600054610100900460ff16620000335760005460ff16156200003d565b6200003d620000e2565b620000a55760405162461bcd60e51b815260206004820152602e60248201527f496e697469616c697a61626c653a20636f6e747261637420697320616c72656160448201526d191e481a5b9a5d1a585b1a5e995960921b606482015260840160405180910390fd5b600054610100900460ff16158015620000c8576000805461ffff19166101011790555b8015620000db576000805461ff00191690555b5062000106565b6000620000fa306200010060201b62003ea01760201c565b15905090565b3b151590565b60805161662b6200013760003960008181611dbb01528181611dfb0152818161269801526126d8015261662b6000f3fe6080604052600436106104525760003560e01c806357baeac81161023f578063993b21c111610139578063ba0cb22b116100b6578063d5050aed1161007a578063d5050aed14610e1f578063d547741f14610e3f578063e335e79a14610e5f578063ee13ad8e14610e75578063fe904b7a14610e9557600080fd5b8063ba0cb22b14610d55578063bb07ec1b14610d8f578063be831a2e14610da5578063c892772314610dc5578063cd5ba59014610e0a57600080fd5b8063a81c6a15116100fd578063a81c6a1514610ca1578063a87430ba14610cc1578063a8b0bb8314610cfe578063b77b183e14610d15578063b8e9744c14610d3557600080fd5b8063993b21c114610bf55780639c52a92014610c15578063a217fddf14610c35578063a4c828dc14610c4a578063a694fc3a14610c8157600080fd5b806372e55399116101c7578063894e9a0d1161018b578063894e9a0d14610b495780638bc34e7714610b805780638d40bd0314610b955780639040332214610bb557806391d1485414610bd557600080fd5b806372e5539914610a8d5780637f37df3b14610aad5780637f51bb1f14610af2578063853828b614610b1257806386c1b4eb14610b2757600080fd5b80636826747c1161020e5780636826747c146109ce578063687dd46c14610a095780636c4624c314610a295780636db8e53d14610a4957806370bc770c14610a5f57600080fd5b806357baeac8146109575780635c975abb1461097757806361d027b31461098d5780636458edd3146109ae57600080fd5b80632e17de7811610350578063389ed267116102d857806345defb321161029c57806345defb32146108965780634981912e146108b65780634f1ef286146108eb57806353a4cca0146108fe5780635578fdb21461091e57600080fd5b8063389ed267146107e0578063396a6c14146108145780633ba31abf146108345780633e9a44cb146108545780633ea005c81461087457600080fd5b806335322f371161031f57806335322f371461075557806336568abe1461076a5780633659cfe61461078a57806336630cc7146107aa5780633895a275146107ca57600080fd5b80632e17de78146106e15780632e1a7d4d146107015780632f2ff15d1461072157806332e43a111461074157600080fd5b80631dd00452116103de5780632692c59f116103a25780632692c59f1461064157806326cdddb91461066157806327571969146106815780632ca783f3146106a15780632d0b615c146106c157600080fd5b80631dd004521461057d5780631e0fbfa2146105c25780631fd8c5f4146105e457806320988cef146105fa578063248a9ca31461061157600080fd5b80630efd8310116104255780630efd8310146104e85780631194ebeb1461050857806312dd67fe1461052857806315cf64fd146105485780631c61e6171461055d57600080fd5b806301ffc9a714610457578063036877881461048c5780630a44b773146104ba5780630c2ee55e146104d1575b600080fd5b34801561046357600080fd5b50610477610472366004615ae7565b610ead565b60405190151581526020015b60405180910390f35b34801561049857600080fd5b506104ac6104a7366004615b11565b610ee4565b604051908152602001610483565b3480156104c657600080fd5b506104cf611253565b005b3480156104dd57600080fd5b506104ac6101035481565b3480156104f457600080fd5b506104ac610503366004615b59565b61125d565b34801561051457600080fd5b506104cf610523366004615c5b565b6112a9565b34801561053457600080fd5b506104ac610543366004615d07565b611607565b34801561055457600080fd5b506104cf6116f5565b34801561056957600080fd5b506104ac610578366004615b59565b6116fd565b34801561058957600080fd5b506104ac610598366004615b59565b6001600160a01b031660009081526101046020908152604080832093835260059093019052205490565b3480156105ce57600080fd5b506104ac6000805160206165d683398151915281565b3480156105f057600080fd5b506104ac60fd5481565b34801561060657600080fd5b506104ac6228207281565b34801561061d57600080fd5b506104ac61062c366004615d07565b600090815260c9602052604090206001015490565b34801561064d57600080fd5b506104cf61065c366004615d07565b611775565b34801561066d57600080fd5b506104cf61067c366004615d6c565b61180a565b34801561068d57600080fd5b506104cf61069c366004615dd8565b6118bb565b3480156106ad57600080fd5b506104cf6106bc366004615e1a565b611968565b3480156106cd57600080fd5b506104cf6106dc366004615e44565b6119f1565b3480156106ed57600080fd5b506104cf6106fc366004615d07565b611a35565b34801561070d57600080fd5b506104cf61071c366004615d07565b611b53565b34801561072d57600080fd5b506104cf61073c366004615b59565b611bf7565b34801561074d57600080fd5b5060016104ac565b34801561076157600080fd5b506104cf611c1d565b34801561077657600080fd5b506104cf610785366004615b59565b611d36565b34801561079657600080fd5b506104cf6107a5366004615ed1565b611db0565b3480156107b657600080fd5b506104ac6107c5366004615eec565b611e79565b3480156107d657600080fd5b506104ac60fc5481565b3480156107ec57600080fd5b506104ac7f139c2898040ef16910dc9f44dc697df79363da767d8bc92f2e310312b816e46d81565b34801561082057600080fd5b506104ac61082f366004615d07565b611fec565b34801561084057600080fd5b506104cf61084f366004615b59565b612077565b34801561086057600080fd5b506104cf61086f366004615e1a565b61232a565b34801561088057600080fd5b506104ac60008051602061656f83398151915281565b3480156108a257600080fd5b506104cf6108b1366004615e1a565b61238c565b3480156108c257600080fd5b506108d66108d1366004615b11565b612396565b60408051928352602083019190915201610483565b6104cf6108f9366004615f0e565b61268d565b34801561090a57600080fd5b506104cf610919366004615fb4565b612743565b34801561092a57600080fd5b506101015461093f906001600160a01b031681565b6040516001600160a01b039091168152602001610483565b34801561096357600080fd5b506104ac610972366004615ed1565b6128e1565b34801561098357600080fd5b506104ac60fb5481565b34801561099957600080fd5b506101005461093f906001600160a01b031681565b3480156109ba57600080fd5b506104cf6109c9366004616028565b612952565b3480156109da57600080fd5b506109ee6109e9366004615eec565b6129bc565b60408051938452602084019290925290820152606001610483565b348015610a1557600080fd5b506104cf610a24366004615dd8565b612a19565b348015610a3557600080fd5b506104cf610a44366004615b11565b612a63565b348015610a5557600080fd5b506104ac60ff5481565b348015610a6b57600080fd5b50610a7f610a7a366004615d07565b612a7b565b6040516104839291906160b6565b348015610a9957600080fd5b506104cf610aa8366004615dd8565b612b7b565b348015610ab957600080fd5b506104ac610ac8366004615b59565b6001600160a01b031660009081526101046020908152604080832093835260039093019052205490565b348015610afe57600080fd5b506104cf610b0d366004615ed1565b612c6e565b348015610b1e57600080fd5b506104cf612d73565b348015610b3357600080fd5b506104ac6000805160206165b683398151915281565b348015610b5557600080fd5b50610b69610b64366004615d07565b612e17565b6040516104839b9a999897969594939291906160f1565b348015610b8c57600080fd5b506104cf612edd565b348015610ba157600080fd5b506104cf610bb0366004615eec565b612f25565b348015610bc157600080fd5b506104cf610bd0366004615d07565b6132d4565b348015610be157600080fd5b50610477610bf0366004615b59565b6133ed565b348015610c0157600080fd5b506104ac610c10366004615d07565b613418565b348015610c2157600080fd5b506104cf610c30366004615d07565b613447565b348015610c4157600080fd5b506104ac600081565b348015610c5657600080fd5b506104ac610c65366004615ed1565b6001600160a01b03166000908152610104602052604090205490565b348015610c8d57600080fd5b506104cf610c9c366004615d07565b6136bc565b348015610cad57600080fd5b506104cf610cbc366004616179565b613726565b348015610ccd57600080fd5b506109ee610cdc366004615ed1565b6101046020526000908152604090208054600182015460029092015490919083565b348015610d0a57600080fd5b506104ac6101025481565b348015610d2157600080fd5b506104ac610d30366004615eec565b613cbb565b610d48610d43366004615f0e565b613cc7565b604051610483919061628e565b348015610d6157600080fd5b506104ac610d70366004615ed1565b6001600160a01b03166000908152610104602052604090206001015490565b348015610d9b57600080fd5b506104ac60fe5481565b348015610db157600080fd5b506104cf610dc0366004615eec565b613d8d565b348015610dd157600080fd5b506104ac610de0366004615b59565b6001600160a01b031660009081526101046020908152604080832093835260049093019052205490565b348015610e1657600080fd5b506104ac613d9e565b348015610e2b57600080fd5b506104cf610e3a366004615ed1565b613dd0565b348015610e4b57600080fd5b506104cf610e5a366004615b59565b613e31565b348015610e6b57600080fd5b50610105546104ac565b348015610e8157600080fd5b506104cf610e90366004615d07565b613e57565b348015610ea157600080fd5b506104ac630786156081565b60006001600160e01b03198216637965db0b60e01b1480610ede57506301ffc9a760e01b6001600160e01b03198316145b92915050565b6000806101058581548110610efb57610efb6162a1565b90600052602060002090600f0201600c019050600080610f1c878787612396565b909250905060008083831415610ffb5784600101846001610f3d91906162cd565b81548110610f4d57610f4d6162a1565b9060005260206000200154856001018581548110610f6d57610f6d6162a1565b9060005260206000200154610f8291906162e5565b9050846000018481548110610f9957610f996162a1565b60009182526020909120015485610fb18660016162cd565b81548110610fc157610fc16162a1565b9060005260206000200154610fd691906162e5565b610fe089896162e5565b610fea90836162fc565b610ff4919061631b565b9150611245565b8460010184600161100c91906162cd565b8154811061101c5761101c6162a1565b906000526020600020015485600101858154811061103c5761103c6162a1565b906000526020600020015461105191906162e5565b9050846000018481548110611068576110686162a1565b600091825260209091200154856110808660016162cd565b81548110611090576110906162a1565b90600052602060002001546110a591906162e5565b88866110b28760016162cd565b815481106110c2576110c26162a1565b90600052602060002001546110d791906162e5565b6110e190836162fc565b6110eb919061631b565b9150846001018381548110611102576111026162a1565b90600052602060002001548560010185600161111e91906162cd565b8154811061112e5761112e6162a1565b906000526020600020015461114391906162e5565b61114d90836162cd565b91508460010183600161116091906162cd565b81548110611170576111706162a1565b9060005260206000200154856001018481548110611190576111906162a1565b90600052602060002001546111a591906162e5565b90508460000183815481106111bc576111bc6162a1565b600091825260209091200154856111d48560016162cd565b815481106111e4576111e46162a1565b90600052602060002001546111f991906162e5565b85600001848154811061120e5761120e6162a1565b90600052602060002001548861122491906162e5565b61122e90836162fc565b611238919061631b565b61124290836162cd565b91505b5093505050505b9392505050565b61125b613ea6565b565b60008261128757506001600160a01b03811660009081526101046020526040902060010154610ede565b506001600160a01b031660009081526101046020526040902060020154919050565b60008051602061656f8339815191526112c28133613f7e565b6112d189898888888888613fe2565b61010054604051630480051d60e31b81526001600160a01b038a811660048301529091169063240028e890602401602060405180830381865afa15801561131c573d6000803e3d6000fd5b505050506040513d601f19601f82011682018060405250810190611340919061633d565b6113915760405162461bcd60e51b815260206004820152601f60248201527f494e56414c49445f535550504f525445445f544f4b454e5f414444524553530060448201526064015b60405180910390fd5b600060405180604001604052808681526020018581525090506000610105805490509050610105604051806101c001604052808d6001600160a01b03168152602001336001600160a01b031681526020018c6001600160a01b031681526020018b81526020016000815260200160008152602001600081526020018a81526020018981526020018860008151811061142b5761142b6162a1565b60200260200101518152602001868152602001600081526020018481526020016001600281111561145e5761145e6160db565b905281546001808201845560009384526020938490208351600f9093020180546001600160a01b03199081166001600160a01b0394851617825584860151928201805482169385169390931790925560408401516002820180549093169316929092179055606082015160038201556080820151600482015560a0820151600582015560c0820151600682015560e0820151600782015561010082015160088201556101208201516009820155610140820151600a820155610160820151600b82015561018082015180518051939492939192600c8501926115439284920190615a87565b50602082810151805161155c9260018501920190615a87565b5050506101a0820151600e8201805460ff19166001836002811115611583576115836160db565b02179055505050896001600160a01b03168b6001600160a01b0316827fe843b72f047599c26dfdab8a31d1b5f353799cab6a8482518a21f1b17871dd758b8d6040516115d9929190918252602082015260400190565b60405180910390a4610101546115fa906001600160a01b031633308c6144b4565b5050505050505050505050565b6000816116505760405162461bcd60e51b815260206004820152601760248201527610555493d49057d49155d0549114d7d0d3d35413d55391604a1b6044820152606401611388565b60ff546116945760405162461bcd60e51b81526020600482015260126024820152715a45524f5f53545245414d5f53484152455360701b6044820152606401611388565b60ff546c7e37be2022c0914b26800000006116b18460fd54611e79565b6116bb91906162fc565b6116c5919061631b565b61010583815481106116d9576116d96162a1565b90600052602060002090600f0201600b0154610ede91906162cd565b611253613ea6565b60008061170984611607565b6001600160a01b0384166000908152610104602090815260408083208884526005810190925290912054600282015492935090916c7e37be2022c0914b26800000008161175684876162e5565b61176091906162fc565b61176a919061631b565b979650505050505050565b7f139c2898040ef16910dc9f44dc697df79363da767d8bc92f2e310312b816e46d6117a08133613f7e565b60fb5482811614806117b857506117b86000336133ed565b6118045760405162461bcd60e51b815260206004820152601e60248201527f4f4e4c595f44454641554c545f41444d494e5f43414e5f554e504155534500006044820152606401611388565b5060fb55565b60018060fb54166000148061182557506118256000336133ed565b6118415760405162461bcd60e51b81526004016113889061635f565b6000805160206165b683398151915261185a8133613f7e565b611862613ea6565b8460005b818110156118b15761189f888883818110611883576118836162a1565b90506020020160208101906118989190615ed1565b878761450c565b806118a98161638b565b915050611866565b5050505050505050565b60018060fb5416600014806118d657506118d66000336133ed565b6118f25760405162461bcd60e51b81526004016113889061635f565b6000805160206165b683398151915261190b8133613f7e565b611913613ea6565b8260005b818110156119605761194e868683818110611934576119346162a1565b90506020020160208101906119499190615ed1565b6145a7565b806119588161638b565b915050611917565b505050505050565b60018060fb54166000148061198357506119836000336133ed565b61199f5760405162461bcd60e51b81526004016113889061635f565b6000805160206165d68339815191526119b88133613f7e565b6119c0613ea6565b6119ca8484614616565b61010054610101546119eb916001600160a01b0391821691339116866144b4565b50505050565b60005b8151811015611a3157611a1f828281518110611a1257611a126162a1565b60200260200101516147d5565b80611a298161638b565b9150506119f4565b5050565b60018060fb541660001480611a505750611a506000336133ed565b611a6c5760405162461bcd60e51b81526004016113889061635f565b60fe54611ab65760405162461bcd60e51b81526020600482015260186024820152775a45524f5f544f54414c5f4155524f52415f53484152455360401b6044820152606401611388565b3360009081526101046020526040902060010154611b095760405162461bcd60e51b815260206004820152601060248201526f5a45524f5f555345525f53484152455360801b6044820152606401611388565b611b11613ea6565b60fe54336000908152610104602052604081206001015460fc54919291611b3891906162fc565b611b42919061631b565b9050611b4e8382614991565b505050565b60018060fb541660001480611b6e5750611b6e6000336133ed565b611b8a5760405162461bcd60e51b81526004016113889061635f565b336000908152610104602090815260408083208584526004019091529020544211611bee5760405162461bcd60e51b8152602060048201526014602482015273494e56414c49445f52454c454153455f54494d4560601b6044820152606401611388565b611a3182614b8e565b600082815260c96020526040902060010154611c138133613f7e565b611b4e8383614c83565b60018060fb541660001480611c385750611c386000336133ed565b611c545760405162461bcd60e51b81526004016113889061635f565b60fe54611c9e5760405162461bcd60e51b81526020600482015260186024820152775a45524f5f544f54414c5f4155524f52415f53484152455360401b6044820152606401611388565b3360009081526101046020526040902060010154611cf15760405162461bcd60e51b815260206004820152601060248201526f5a45524f5f555345525f53484152455360801b6044820152606401611388565b611cf9613ea6565b60fe54336000908152610104602052604081206001015460fc54919291611d2091906162fc565b611d2a919061631b565b9050611a318182614991565b6001600160a01b0381163314611da65760405162461bcd60e51b815260206004820152602f60248201527f416363657373436f6e74726f6c3a2063616e206f6e6c792072656e6f756e636560448201526e103937b632b9903337b91039b2b63360891b6064820152608401611388565b611a318282614d09565b306001600160a01b037f0000000000000000000000000000000000000000000000000000000000000000161415611df95760405162461bcd60e51b8152600401611388906163a6565b7f00000000000000000000000000000000000000000000000000000000000000006001600160a01b0316611e2b614d70565b6001600160a01b031614611e515760405162461bcd60e51b8152600401611388906163f2565b611e5a81614d9e565b60408051600080825260208201909252611e7691839190614daa565b50565b600042821115611ec15760405162461bcd60e51b8152602060048201526013602482015272494e56414c49445f4c4153545f55504441544560681b6044820152606401611388565b42821415611ed157506000610ede565b60006101058481548110611ee757611ee76162a1565b90600052602060002090600f0201600c01600001600081548110611f0d57611f0d6162a1565b90600052602060002001549050804211611f2b576000915050610ede565b60006101058581548110611f4157611f416162a1565b90600052602060002090600f0201600c0160000160016101058781548110611f6b57611f6b6162a1565b60009182526020909120600c600f909202010154611f8991906162e5565b81548110611f9957611f996162a1565b90600052602060002001549050808410611fb857600092505050610ede565b60008083861115611fcb57859150611fcf565b8391505b82421015611fde575042611fe1565b50815b61176a878383610ee4565b6000806101058381548110612003576120036162a1565b60009182526020909120600f9091020190506002600e82015460ff166002811115612030576120306160db565b1461203e5750600092915050565b600061204e848360090154611e79565b9050816005015482600301548261206591906162fc565b61206f919061631b565b949350505050565b60008051602061656f8339815191526120908133613f7e565b826120dd5760405162461bcd60e51b815260206004820152601b60248201527f4155524f52415f53545245414d5f4e4f545f52454d4f5641424c4500000000006044820152606401611388565b600061010584815481106120f3576120f36162a1565b60009182526020909120600f9091020190506002600e82015460ff166002811115612120576121206160db565b146121665760405162461bcd60e51b815260206004820152601660248201527514d51491505357d053149150511657d4915353d5915160521b6044820152606401611388565b600e8101805460ff19169055600281015481546040516001600160a01b03928316929091169086907f661da9ced4b5d786f5b5f451a5f68af24721a01b0a65bb47fa4fdf70b80b887c90600090a46000816004015482600301546121ca91906162e5565b90506000826006015483600501546121e291906162e5565b610101549091506000906121fe906001600160a01b03166128e1565b600285015490915060009061221b906001600160a01b03166128e1565b610100546001870154610101549293506001600160a01b039182169263da0c1a88929182169116858811156122505785612252565b875b6040518463ffffffff1660e01b81526004016122709392919061643e565b600060405180830381600087803b15801561228a57600080fd5b505af115801561229e573d6000803e3d6000fd5b50506101005460028801546001600160a01b03918216935063da0c1a8892508a9116848711156122ce57846122d0565b865b6040518463ffffffff1660e01b81526004016122ee9392919061643e565b600060405180830381600087803b15801561230857600080fd5b505af115801561231c573d6000803e3d6000fd5b505050505050505050505050565b60018060fb54166000148061234557506123456000336133ed565b6123615760405162461bcd60e51b81526004016113889061635f565b6000805160206165b683398151915261237a8133613f7e565b612382613ea6565b6119eb8484614eee565b611a318282614eee565b600080600061010586815481106123af576123af6162a1565b60009182526020909120600c600f90920201018054909150806124025760405162461bcd60e51b815260206004820152600b60248201526a4e4f5f5343484544554c4560a81b6044820152606401611388565b8585116124515760405162461bcd60e51b815260206004820152601b60248201527f494e56414c49445f5245574152445f51554552595f504552494f4400000000006044820152606401611388565b81600001600081548110612467576124676162a1565b90600052602060002001548610156124c15760405162461bcd60e51b815260206004820152601b60248201527f51554552595f4245464f52455f5343484544554c455f535441525400000000006044820152606401611388565b816124cd6001836162e5565b815481106124dd576124dd6162a1565b90600052602060002001548511156125375760405162461bcd60e51b815260206004820152601860248201527f51554552595f41465445525f5343484544554c455f454e4400000000000000006044820152606401611388565b60015b8181101561258d57826000018181548110612557576125576162a1565b906000526020600020015487101561257b576125746001826162e5565b945061258d565b806125858161638b565b91505061253a565b508161259a6001836162e5565b815481106125aa576125aa6162a1565b90600052602060002001548514156125ce576125c76002826162e5565b9250612633565b60006125db8560016162cd565b90505b81811015612631578260000181815481106125fb576125fb6162a1565b906000526020600020015486101561261f576126186001826162e5565b9350612631565b806126298161638b565b9150506125de565b505b828411156126835760405162461bcd60e51b815260206004820152601960248201527f494e56414c49445f494e4445585f43414c43554c4154494f4e000000000000006044820152606401611388565b5050935093915050565b306001600160a01b037f00000000000000000000000000000000000000000000000000000000000000001614156126d65760405162461bcd60e51b8152600401611388906163a6565b7f00000000000000000000000000000000000000000000000000000000000000006001600160a01b0316612708614d70565b6001600160a01b03161461272e5760405162461bcd60e51b8152600401611388906163f2565b61273782614d9e565b611a3182826001614daa565b60018060fb54166000148061275e575061275e6000336133ed565b61277a5760405162461bcd60e51b81526004016113889061635f565b6000805160206165d68339815191526127938133613f7e565b858481146127da5760405162461bcd60e51b81526020600482015260146024820152730929cac82989288be82a4a482b2be988a9c8ea8960631b6044820152606401611388565b6127e2613ea6565b6000805b8281101561286e57878782818110612800576128006162a1565b905060200201358261281291906162cd565b915061285c8a8a83818110612829576128296162a1565b905060200201602081019061283e9190615ed1565b898984818110612850576128506162a1565b90506020020135614616565b806128668161638b565b9150506127e6565b508481146128b55760405162461bcd60e51b81526020600482015260146024820152731253959053125117d0905510d217d05353d5539560621b6044820152606401611388565b61010054610101546128d6916001600160a01b0391821691339116886144b4565b505050505050505050565b610100546040516370a0823160e01b81526001600160a01b0391821660048201526000918316906370a0823190602401602060405180830381865afa15801561292e573d6000803e3d6000fd5b505050506040513d601f19601f82011682018060405250810190610ede9190616462565b60018060fb54166000148061296d575061296d6000336133ed565b6129895760405162461bcd60e51b81526004016113889061635f565b6000805160206165b68339815191526129a28133613f7e565b6129aa613ea6565b6129b585858561450c565b5050505050565b60008060006129cd60008686610ee4565b9250670de0b6b3a76400006129e460008787610ee4565b6129ee919061631b565b905060fe54600014612a0e5760fe54612a07908461631b565b9150612a12565b8291505b9250925092565b60018060fb541660001480612a345750612a346000336133ed565b612a505760405162461bcd60e51b81526004016113889061635f565b612a58613ea6565b611b4e33848461450c565b6000612a6f8133613f7e565b50825491821816189055565b6060806101058381548110612a9257612a926162a1565b90600052602060002090600f0201600c016000016101058481548110612aba57612aba6162a1565b90600052602060002090600f0201600c0160010181805480602002602001604051908101604052809291908181526020018280548015612b1957602002820191906000526020600020905b815481526020019060010190808311612b05575b5050505050915080805480602002602001604051908101604052809291908181526020018280548015612b6b57602002820191906000526020600020905b815481526020019060010190808311612b57575b5050505050905091509150915091565b60018060fb541660001480612b965750612b966000336133ed565b612bb25760405162461bcd60e51b81526004016113889061635f565b33600090815261010460205260408120905b838110156129b557816003016000868684818110612be457612be46162a1565b90506020020135815260200190815260200160002054600014158015612c365750816004016000868684818110612c1d57612c1d6162a1565b9050602002013581526020019081526020016000205442115b15612c5c57612c5c858583818110612c5057612c506162a1565b90506020020135614b8e565b80612c668161638b565b915050612bc4565b6000612c7a8133613f7e565b60fb54612cb95760405162461bcd60e51b815260206004820152600d60248201526c524551554952455f504155534560981b6044820152606401611388565b6001600160a01b038216612d015760405162461bcd60e51b815260206004820152600f60248201526e494e56414c49445f4144445245535360881b6044820152606401611388565b610100546001600160a01b0383811691161415612d4f5760405162461bcd60e51b815260206004820152600c60248201526b53414d455f4144445245535360a01b6044820152606401611388565b5061010080546001600160a01b0319166001600160a01b0392909216919091179055565b60018060fb541660001480612d8e5750612d8e6000336133ed565b612daa5760405162461bcd60e51b81526004016113889061635f565b336000908152610104602052604081206101055490915b818110156119eb57600081815260038401602052604090205415801590612df75750600081815260048401602052604090205442115b15612e0557612e0581614b8e565b80612e0f8161638b565b915050612dc1565b6000806000806000806000806000806000806101058d81548110612e3d57612e3d6162a1565b90600052602060002090600f020190508060000160009054906101000a90046001600160a01b03168160020160009054906101000a90046001600160a01b031682600301548360040154846005015485600601548660070154876009015488600b015489600a01548a600e0160009054906101000a900460ff169b509b509b509b509b509b509b509b509b509b509b505091939597999b90929496989a50565b60018060fb541660001480612ef85750612ef86000336133ed565b612f145760405162461bcd60e51b81526004016113889061635f565b612f1c613ea6565b611e76336145a7565b60018060fb541660001480612f405750612f406000336133ed565b612f5c5760405162461bcd60e51b81526004016113889061635f565b60006101058481548110612f7257612f726162a1565b60009182526020909120600f9091020190506001600e82015460ff166002811115612f9f57612f9f6160db565b14612fe25760405162461bcd60e51b815260206004820152601360248201527214d51491505357d393d517d41493d413d4d151606a1b6044820152606401611388565b80546001600160a01b031633146130325760405162461bcd60e51b815260206004820152601460248201527324a72b20a624a22fa9aa2922a0a6afa7aba722a960611b6044820152606401611388565b4281600c0160000160008154811061304c5761304c6162a1565b906000526020600020015410156130a55760405162461bcd60e51b815260206004820152601760248201527f53545245414d5f50524f504f53414c5f455850495245440000000000000000006044820152606401611388565b80600701548311156130eb5760405162461bcd60e51b815260206004820152600f60248201526e0a48aae82a488bea89e9ebe90928e9608b1b6044820152606401611388565b80600801548310156131305760405162461bcd60e51b815260206004820152600e60248201526d5245574152445f544f4f5f4c4f5760901b6044820152606401611388565b600e8101805460ff191660021790556005810183905560078101548310156131bd576000816007015482600301548561316991906162fc565b613173919061631b565b9050600081836003015461318791906162e5565b60038401839055905061319a86866151e2565b6001830154610101546131ba916001600160a01b039182169116836152ec565b50505b6002810154815460038301546040516001600160a01b0393841693929092169187917f3062262d3b7b7b5292387920111bfa3e0597dc070a8f10f1be710f15868c22e09161321391898252602082015260400190565b60405180910390a46005810154600d82018054600090613235576132356162a1565b90600052602060002001541461328d5760405162461bcd60e51b815260206004820152601760248201527f494e56414c49445f5354415254494e475f5245574152440000000000000000006044820152606401611388565b610100546003820154610101546132b2926001600160a01b03918216929116906152ec565b6101005460028201546119eb916001600160a01b0391821691339116866144b4565b60008051602061656f8339815191526132ed8133613f7e565b60006101058381548110613303576133036162a1565b60009182526020909120600f9091020190506001600e82015460ff166002811115613330576133306160db565b146133735760405162461bcd60e51b815260206004820152601360248201527214d51491505357d393d517d41493d413d4d151606a1b6044820152606401611388565b600e8101805460ff191690556003810180546000918290556002830154835460405192936001600160a01b0392831693929091169187917ffadbcbd495527ce5e10fd0cceba57d404a4625dd6ce0499c254ac523789ef3ad91a46001820154610101546119eb916001600160a01b039182169116836152ec565b600091825260c9602090815260408084206001600160a01b0393909316845291905290205460ff1690565b6000610105828154811061342e5761342e6162a1565b90600052602060002090600f0201600b01549050919050565b60018060fb54166000148061346257506134626000336133ed565b61347e5760405162461bcd60e51b81526004016113889061635f565b816134be5760405162461bcd60e51b815260206004820152601060248201526f4155524f52415f53545245414d5f4e4160801b6044820152606401611388565b600061010583815481106134d4576134d46162a1565b60009182526020909120600f9091020180549091506001600160a01b031633146135375760405162461bcd60e51b815260206004820152601460248201527324a72b20a624a22fa9aa2922a0a6afa7aba722a960611b6044820152606401611388565b6002600e82015460ff166002811115613552576135526160db565b1461359f5760405162461bcd60e51b815260206004820152601b60248201527f494e4143544956455f4f525f50524f504f5345445f53545245414d00000000006044820152606401611388565b60006135aa84611fec565b9050600081116135eb5760405162461bcd60e51b815260206004820152600c60248201526b5a45524f5f5245574152445360a01b6044820152606401611388565b4282600901819055508082600401600082825461360891906162cd565b909155505081546040518281526001600160a01b039091169085907fd8dbc00678cdeb812d1660863c3d845d199d828cd02c9278b1ac8f359a1394369060200160405180910390a361010054825461010154604051631b41835160e31b81526001600160a01b039384169363da0c1a889361368e9390821692911690869060040161643e565b600060405180830381600087803b1580156136a857600080fd5b505af11580156118b1573d6000803e3d6000fd5b60018060fb5416600014806136d757506136d76000336133ed565b6136f35760405162461bcd60e51b81526004016113889061635f565b6136fb613ea6565b6137053383614616565b6101005461010154611a31916001600160a01b0391821691339116856144b4565b600054610100900460ff166137415760005460ff1615613745565b303b155b6137a85760405162461bcd60e51b815260206004820152602e60248201527f496e697469616c697a61626c653a20636f6e747261637420697320616c72656160448201526d191e481a5b9a5d1a585b1a5e995960921b6064820152608401611388565b600054610100900460ff161580156137ca576000805461ffff19166101011790555b81831161380b5760405162461bcd60e51b815260206004820152600f60248201526e494e56414c49445f5745494748545360881b6044820152606401611388565b6001600160a01b0384166138535760405162461bcd60e51b815260206004820152600f60248201526e494e56414c49445f4144445245535360881b6044820152606401611388565b613896898b8960008151811061386b5761386b6162a1565b60200260200101518a600081518110613886576138866162a1565b60200260200101518c8c8c613fe2565b604051630480051d60e31b81526001600160a01b038b8116600483015285169063240028e890602401602060405180830381865afa1580156138dc573d6000803e3d6000fd5b505050506040513d601f19601f82011682018060405250810190613900919061633d565b61394c5760405162461bcd60e51b815260206004820152601f60248201527f494e56414c49445f535550504f525445445f544f4b454e5f41444452455353006044820152606401611388565b6139558561531c565b61396d6000805160206165d683398151915233614c83565b6139856000805160206165b683398151915233614c83565b61399d60008051602061656f83398151915233614c83565b61010080546001600160a01b038087166001600160a01b031992831617835561010180548e83169316831790556101028690556101038590556040805180820182528c815260208082018d905282516101c081018452938f1680855290840152908201929092526000606082018190526080820181905260a0820181905260c0820181905260e0820181905292810183905242610120820152610140810189905261016081018390526101808101829052610105906101a081016002905281546001808201845560009384526020938490208351600f9093020180546001600160a01b03199081166001600160a01b0394851617825584860151928201805482169385169390931790925560408401516002820180549093169316929092179055606082015160038201556080820151600482015560a0820151600582015560c0820151600682015560e0820151600782015561010082015160088201556101208201516009820155610140820151600a820155610160820151600b82015561018082015180518051939492939192600c850192613b3e9284920190615a87565b506020828101518051613b579260018501920190615a87565b5050506101a0820151600e8201805460ff19166001836002811115613b7e57613b7e6160db565b021790555050508b6001600160a01b03168b6001600160a01b0316837fe843b72f047599c26dfdab8a31d1b5f353799cab6a8482518a21f1b17871dd758c600081518110613bce57613bce6162a1565b60200260200101518d600081518110613be957613be96162a1565b6020026020010151604051613c08929190918252602082015260400190565b60405180910390a48b6001600160a01b03168b6001600160a01b0316837f3062262d3b7b7b5292387920111bfa3e0597dc070a8f10f1be710f15868c22e08c600081518110613c5957613c596162a1565b60200260200101518d600081518110613c7457613c746162a1565b6020026020010151604051613c93929190918252602082015260400190565b60405180910390a450508015613caf576000805461ff00191690555b50505050505050505050565b600061124c8383615366565b60606000613cd58133613f7e565b6001600160a01b038416613d1a5760405162461bcd60e51b815260206004820152600c60248201526b5a45524f5f4144445245535360a01b6044820152606401611388565b600080856001600160a01b031685604051613d35919061647b565b600060405180830381855af49150503d8060008114613d70576040519150601f19603f3d011682016040523d82523d6000602084013e613d75565b606091505b509150915081613d8457600080fd5b95945050505050565b6000613d998133613f7e565b509055565b600060fd5460001415613db15750600090565b613dbe600060fd54611e79565b60fc54613dcb91906162cd565b905090565b60018060fb541660001480613deb5750613deb6000336133ed565b613e075760405162461bcd60e51b81526004016113889061635f565b6000805160206165b6833981519152613e208133613f7e565b613e28613ea6565b611b4e836145a7565b600082815260c96020526040902060010154613e4d8133613f7e565b611b4e8383614d09565b60018060fb541660001480613e725750613e726000336133ed565b613e8e5760405162461bcd60e51b81526004016113889061635f565b613e96613ea6565b611a313383614eee565b3b151590565b4260fd541415613eb257565b60fe5415613f7857613ec7600060fd54611e79565b60fc6000828254613ed891906162cd565b90915550506101055460015b81811015613f755760026101058281548110613f0257613f026162a1565b60009182526020909120600e600f90920201015460ff166002811115613f2a57613f2a6160db565b1415613f6357613f3981611607565b6101058281548110613f4d57613f4d6162a1565b90600052602060002090600f0201600b01819055505b80613f6d8161638b565b915050613ee4565b50505b4260fd55565b613f8882826133ed565b611a3157613fa0816001600160a01b03166014615460565b613fab836020615460565b604051602001613fbc929190616497565b60408051601f198184030181529082905262461bcd60e51b82526113889160040161628e565b6001600160a01b0387166140385760405162461bcd60e51b815260206004820152601c60248201527f494e56414c49445f53545245414d5f4f574e45525f41444452455353000000006044820152606401611388565b6001600160a01b03861661408e5760405162461bcd60e51b815260206004820152601c60248201527f494e56414c49445f5245574152445f544f4b454e5f41444452455353000000006044820152606401611388565b600085116140d15760405162461bcd60e51b815260206004820152601060248201526f16915493d7d3505617d1115413d4d25560821b6044820152606401611388565b600084116141145760405162461bcd60e51b815260206004820152601060248201526f16915493d7d3525397d1115413d4d25560821b6044820152606401611388565b8484111561415a5760405162461bcd60e51b81526020600482015260136024820152721253959053125117d3525397d1115413d4d255606a1b6044820152606401611388565b8160008151811061416d5761416d6162a1565b602002602001015185146141c35760405162461bcd60e51b815260206004820152601f60248201527f4d41585f4445504f5349545f4d5553545f455155414c5f5343484544554c45006044820152606401611388565b42836000815181106141d7576141d76162a1565b60200260200101511161422c5760405162461bcd60e51b815260206004820152601e60248201527f494e56414c49445f53545245414d5f45585049524154494f4e5f4441544500006044820152606401611388565b815183511461427d5760405162461bcd60e51b815260206004820152601760248201527f494e56414c49445f5343484544554c455f56414c5545530000000000000000006044820152606401611388565b6002835110156142c45760405162461bcd60e51b815260206004820152601260248201527114d0d2115115531157d513d3d7d4d213d49560721b6044820152606401611388565b806143065760405162461bcd60e51b81526020600482015260126024820152711253959053125117d5105557d411549253d160721b6044820152606401611388565b60015b8351811015614434578361431e6001836162e5565b8151811061432e5761432e6162a1565b6020026020010151848281518110614348576143486162a1565b6020026020010151116143965760405162461bcd60e51b8152602060048201526016602482015275494e56414c49445f5343484544554c455f54494d455360501b6044820152606401611388565b826143a26001836162e5565b815181106143b2576143b26162a1565b60200260200101518382815181106143cc576143cc6162a1565b602002602001015111156144225760405162461bcd60e51b815260206004820152601860248201527f494e56414c49445f5343484544554c455f5245574152445300000000000000006044820152606401611388565b8061442c8161638b565b915050614309565b50816001835161444491906162e5565b81518110614454576144546162a1565b60200260200101516000146144ab5760405162461bcd60e51b815260206004820152601b60248201527f494e56414c49445f5343484544554c455f454e445f52455741524400000000006044820152606401611388565b50505050505050565b6119eb846323b872dd60e01b8585856040516024016144d59392919061643e565b60408051601f198184030181529190526020810180516001600160e01b03166001600160e01b0319909316929092179091526155fc565b60005b818110156119eb57600261010584848481811061452e5761452e6162a1565b9050602002013581548110614545576145456162a1565b60009182526020909120600e600f90920201015460ff16600281111561456d5761456d6160db565b14156145955761459584848484818110614589576145896162a1565b90506020020135614eee565b8061459f8161638b565b91505061450f565b6101055460015b81811015611b4e57600261010582815481106145cc576145cc6162a1565b60009182526020909120600e600f90920201015460ff1660028111156145f4576145f46160db565b1415614604576146048382614eee565b8061460e8161638b565b9150506145ae565b6001600160a01b03821660009081526101046020526040812060fe54909190614640575081614687565b600060fe548461465091906162fc565b905060fc5481614660919061631b565b91508060fc548361467191906162fc565b1015614685576146826001836162cd565b91505b505b8082600101600082825461469b91906162cd565b925050819055508060fe60008282546146b491906162cd565b925050819055508260fc60008282546146cd91906162cd565b90915550508154839083906000906146e69084906162cd565b90915550600090506146f88242615366565b90508060ff600082825461470c91906162cd565b925050819055508083600201600082825461472791906162cd565b90915550506101055460015b8181101561478857610105818154811061474f5761474f6162a1565b60009182526020808320600b600f90930201919091015483835260058801909152604090912055806147808161638b565b915050614733565b5060408051868152602081018590526001600160a01b038816917f1449c6dd7851abc30abf37f57715f492010519147cc2652fbc38202c18a6ee90910160405180910390a2505050505050565b6147dd613ea6565b60fe546001600160a01b0382166000908152610104602052604081206001015460fc5491929161480d91906162fc565b614817919061631b565b6001600160a01b038316600090815261010460205260408120600181015460fe8054949550919390929061484c9084906162e5565b9091555050600281015460ff80546000906148689084906162e5565b90915550506000600182018190556002820181905560fc805484929061488f9084906162e5565b90915550506000808255808052600382016020526040812080548492906148b79084906162cd565b909155505061010580546000906148d0576148d06162a1565b90600052602060002090600f0201600a0154426148ed91906162cd565b60008080526004830160209081526040808320939093556003840181528282205492519283526001600160a01b038616927f5f1c6be51c8ec7fa7e7ddd9f798ec55927b06cfc8d9159987d1ae3358cb10b59910160405180910390a3826001600160a01b03167f0f5bb82176feb1b5e747e28471aa92156a04d9f3ab9f45f28e2d704232b93f758360405161498491815260200190565b60405180910390a2505050565b816149cc5760405162461bcd60e51b815260206004820152600b60248201526a16915493d7d05353d5539560aa1b6044820152606401611388565b80821115614a1c5760405162461bcd60e51b815260206004820152601860248201527f4e4f545f454e4f5547485f5354414b455f42414c414e434500000000000000006044820152606401611388565b33600090815261010460205260408120600181015460fe805492939192909190614a479084906162e5565b9091555050600281015460ff8054600090614a639084906162e5565b90915550506000600182018190556002820181905560fc8054849290614a8a9084906162e5565b9091555050600080825580805260038201602052604081208054859290614ab29084906162cd565b90915550506101058054600090614acb57614acb6162a1565b90600052602060002090600f0201600a015442614ae891906162cd565b600080805260048301602090815260408083209390935560038401815282822054925192835233927f5f1c6be51c8ec7fa7e7ddd9f798ec55927b06cfc8d9159987d1ae3358cb10b59910160405180910390a360405183815233907f0f5bb82176feb1b5e747e28471aa92156a04d9f3ab9f45f28e2d704232b93f759060200160405180910390a26000614b7c84846162e5565b905080156119eb576119eb3382614616565b336000818152610104602090815260408083208584526003810183528184208054949055905183815290939185917f3bfce8de0db7450cc169b94323c210e69a36c6a4a58c9f5d96bec4973adce392910160405180910390a36101005461010580546001600160a01b039092169163da0c1a8891339187908110614c1457614c146162a1565b600091825260209091206002600f9092020101546040516001600160e01b031960e085901b168152614c5592916001600160a01b031690869060040161643e565b600060405180830381600087803b158015614c6f57600080fd5b505af11580156144ab573d6000803e3d6000fd5b614c8d82826133ed565b611a3157600082815260c9602090815260408083206001600160a01b03851684529091529020805460ff19166001179055614cc53390565b6001600160a01b0316816001600160a01b0316837f2f8788117e7eff1d82e926ec794901d17c78024a50270940304540a733656f0d60405160405180910390a45050565b614d1382826133ed565b15611a3157600082815260c9602090815260408083206001600160a01b0385168085529252808320805460ff1916905551339285917ff6391f5c32d9c69d2a47ea670b442974b53935d1edc7fd64eb21e047a839171b9190a45050565b7f360894a13ba1a3210667c828492db98dca3e2076cc3735a920a3ca505d382bbc546001600160a01b031690565b6000611a318133613f7e565b6000614db4614d70565b9050614dbf846156ce565b600083511180614dcc5750815b15614ddd57614ddb8484615773565b505b7f4910fdfa16fed3260ed0e7147f7cc6da11a60208b5b9406d12a635614ffd9143805460ff166129b557805460ff191660011781556040516001600160a01b0383166024820152614e5c90869060440160408051601f198184030181529190526020810180516001600160e01b0316631b2ce7f360e11b179052615773565b50805460ff19168155614e6d614d70565b6001600160a01b0316826001600160a01b031614614ee55760405162461bcd60e51b815260206004820152602f60248201527f45524331393637557067726164653a207570677261646520627265616b73206660448201526e75727468657220757067726164657360881b6064820152608401611388565b6129b585615855565b80614f355760405162461bcd60e51b815260206004820152601760248201527610555493d49057d49155d0549114d7d0d3d35413d55391604a1b6044820152606401611388565b60026101058281548110614f4b57614f4b6162a1565b60009182526020909120600e600f90920201015460ff166002811115614f7357614f736160db565b14614fc05760405162461bcd60e51b815260206004820152601b60248201527f494e4143544956455f4f525f50524f504f5345445f53545245414d00000000006044820152606401611388565b6001600160a01b038216600090815261010460205260409020600181015461502a5760405162461bcd60e51b815260206004820152601f60248201527f555345525f444f45535f4e4f545f484156455f41435455414c5f5354414b45006044820152606401611388565b60006c7e37be2022c0914b26800000008260020154836005016000868152602001908152602001600020546101058681548110615069576150696162a1565b90600052602060002090600f0201600b015461508591906162e5565b61508f91906162fc565b615099919061631b565b9050806150a65750505050565b6000838152600383016020526040812080548392906150c69084906162cd565b90915550506101058054849081106150e0576150e06162a1565b90600052602060002090600f0201600b015482600501600085815260200190815260200160002081905550610105838154811061511f5761511f6162a1565b90600052602060002090600f0201600a01544261513c91906162cd565b6000848152600484016020526040902055610105805482919085908110615165576151656162a1565b90600052602060002090600f0201600601600082825461518591906162cd565b909155505060008381526003830160209081526040918290205491519182526001600160a01b0386169185917f5f1c6be51c8ec7fa7e7ddd9f798ec55927b06cfc8d9159987d1ae3358cb10b59910160405180910390a350505050565b600061010583815481106151f8576151f86162a1565b600091825260208220600d600f90920201015491505b818110156119eb57610105848154811061522a5761522a6162a1565b90600052602060002090600f020160070154836101058681548110615251576152516162a1565b90600052602060002090600f0201600c016001018381548110615276576152766162a1565b906000526020600020015461528b91906162fc565b615295919061631b565b61010585815481106152a9576152a96162a1565b90600052602060002090600f0201600c0160010182815481106152ce576152ce6162a1565b600091825260209091200155806152e48161638b565b91505061520e565b6040516001600160a01b038316602482015260448101829052611b4e90849063a9059cbb60e01b906064016144d5565b615324615895565b61532c6158cc565b615337600033614c83565b6153617f139c2898040ef16910dc9f44dc697df79363da767d8bc92f2e310312b816e46d33614c83565b60fb55565b60008062282072610105600081548110615382576153826162a1565b90600052602060002090600f0201600c016000016000815481106153a8576153a86162a1565b90600052602060002001546153bd91906162cd565b905060006153cf6307861560836162cd565b90508184116153ef57610102546153e690866162fc565b92505050610ede565b80841061540457610103546153e690866162fc565b61540e82826162e5565b61541885836162e5565b610103546101025461542a91906162e5565b61543490886162fc565b61543e91906162fc565b615448919061631b565b6101035461545690876162fc565b613d8491906162cd565b6060600061546f8360026162fc565b61547a9060026162cd565b67ffffffffffffffff81111561549257615492615b85565b6040519080825280601f01601f1916602001820160405280156154bc576020820181803683370190505b509050600360fc1b816000815181106154d7576154d76162a1565b60200101906001600160f81b031916908160001a905350600f60fb1b81600181518110615506576155066162a1565b60200101906001600160f81b031916908160001a905350600061552a8460026162fc565b6155359060016162cd565b90505b60018111156155ad576f181899199a1a9b1b9c1cb0b131b232b360811b85600f1660108110615569576155696162a1565b1a60f81b82828151811061557f5761557f6162a1565b60200101906001600160f81b031916908160001a90535060049490941c936155a68161650c565b9050615538565b50831561124c5760405162461bcd60e51b815260206004820181905260248201527f537472696e67733a20686578206c656e67746820696e73756666696369656e746044820152606401611388565b6000615651826040518060400160405280602081526020017f5361666545524332303a206c6f772d6c6576656c2063616c6c206661696c6564815250856001600160a01b03166158fb9092919063ffffffff16565b805190915015611b4e578080602001905181019061566f919061633d565b611b4e5760405162461bcd60e51b815260206004820152602a60248201527f5361666545524332303a204552433230206f7065726174696f6e20646964206e6044820152691bdd081cdd58d8d9595960b21b6064820152608401611388565b803b6157325760405162461bcd60e51b815260206004820152602d60248201527f455243313936373a206e657720696d706c656d656e746174696f6e206973206e60448201526c1bdd08184818dbdb9d1c9858dd609a1b6064820152608401611388565b7f360894a13ba1a3210667c828492db98dca3e2076cc3735a920a3ca505d382bbc80546001600160a01b0319166001600160a01b0392909216919091179055565b6060823b6157d25760405162461bcd60e51b815260206004820152602660248201527f416464726573733a2064656c65676174652063616c6c20746f206e6f6e2d636f6044820152651b9d1c9858dd60d21b6064820152608401611388565b600080846001600160a01b0316846040516157ed919061647b565b600060405180830381855af49150503d8060008114615828576040519150601f19603f3d011682016040523d82523d6000602084013e61582d565b606091505b5091509150613d84828260405180606001604052806027815260200161658f6027913961590a565b61585e816156ce565b6040516001600160a01b038216907fbc7cd75a20ee27fd9adebab32041f755214dbc6bffa90cc0225b39da2e5c2d3b90600090a250565b600054610100900460ff166158bc5760405162461bcd60e51b815260040161138890616523565b6158c4615943565b61125b615943565b600054610100900460ff166158f35760405162461bcd60e51b815260040161138890616523565b6158bc615943565b606061206f848460008561596a565b6060831561591957508161124c565b8251156159295782518084602001fd5b8160405162461bcd60e51b8152600401611388919061628e565b600054610100900460ff1661125b5760405162461bcd60e51b815260040161138890616523565b6060824710156159cb5760405162461bcd60e51b815260206004820152602660248201527f416464726573733a20696e73756666696369656e742062616c616e636520666f6044820152651c8818d85b1b60d21b6064820152608401611388565b843b615a195760405162461bcd60e51b815260206004820152601d60248201527f416464726573733a2063616c6c20746f206e6f6e2d636f6e74726163740000006044820152606401611388565b600080866001600160a01b03168587604051615a35919061647b565b60006040518083038185875af1925050503d8060008114615a72576040519150601f19603f3d011682016040523d82523d6000602084013e615a77565b606091505b509150915061176a82828661590a565b828054828255906000526020600020908101928215615ac2579160200282015b82811115615ac2578251825591602001919060010190615aa7565b50615ace929150615ad2565b5090565b5b80821115615ace5760008155600101615ad3565b600060208284031215615af957600080fd5b81356001600160e01b03198116811461124c57600080fd5b600080600060608486031215615b2657600080fd5b505081359360208301359350604090920135919050565b80356001600160a01b0381168114615b5457600080fd5b919050565b60008060408385031215615b6c57600080fd5b82359150615b7c60208401615b3d565b90509250929050565b634e487b7160e01b600052604160045260246000fd5b604051601f8201601f1916810167ffffffffffffffff81118282101715615bc457615bc4615b85565b604052919050565b600067ffffffffffffffff821115615be657615be6615b85565b5060051b60200190565b600082601f830112615c0157600080fd5b81356020615c16615c1183615bcc565b615b9b565b82815260059290921b84018101918181019086841115615c3557600080fd5b8286015b84811015615c505780358352918301918301615c39565b509695505050505050565b600080600080600080600080610100898b031215615c7857600080fd5b615c8189615b3d565b9750615c8f60208a01615b3d565b965060408901359550606089013594506080890135935060a089013567ffffffffffffffff80821115615cc157600080fd5b615ccd8c838d01615bf0565b945060c08b0135915080821115615ce357600080fd5b50615cf08b828c01615bf0565b92505060e089013590509295985092959890939650565b600060208284031215615d1957600080fd5b5035919050565b60008083601f840112615d3257600080fd5b50813567ffffffffffffffff811115615d4a57600080fd5b6020830191508360208260051b8501011115615d6557600080fd5b9250929050565b60008060008060408587031215615d8257600080fd5b843567ffffffffffffffff80821115615d9a57600080fd5b615da688838901615d20565b90965094506020870135915080821115615dbf57600080fd5b50615dcc87828801615d20565b95989497509550505050565b60008060208385031215615deb57600080fd5b823567ffffffffffffffff811115615e0257600080fd5b615e0e85828601615d20565b90969095509350505050565b60008060408385031215615e2d57600080fd5b615e3683615b3d565b946020939093013593505050565b60006020808385031215615e5757600080fd5b823567ffffffffffffffff811115615e6e57600080fd5b8301601f81018513615e7f57600080fd5b8035615e8d615c1182615bcc565b81815260059190911b82018301908381019087831115615eac57600080fd5b928401925b8284101561176a57615ec284615b3d565b82529284019290840190615eb1565b600060208284031215615ee357600080fd5b61124c82615b3d565b60008060408385031215615eff57600080fd5b50508035926020909101359150565b60008060408385031215615f2157600080fd5b615f2a83615b3d565b915060208084013567ffffffffffffffff80821115615f4857600080fd5b818601915086601f830112615f5c57600080fd5b813581811115615f6e57615f6e615b85565b615f80601f8201601f19168501615b9b565b91508082528784828501011115615f9657600080fd5b80848401858401376000848284010152508093505050509250929050565b600080600080600060608688031215615fcc57600080fd5b853567ffffffffffffffff80821115615fe457600080fd5b615ff089838a01615d20565b9097509550602088013591508082111561600957600080fd5b5061601688828901615d20565b96999598509660400135949350505050565b60008060006040848603121561603d57600080fd5b61604684615b3d565b9250602084013567ffffffffffffffff81111561606257600080fd5b61606e86828701615d20565b9497909650939450505050565b600081518084526020808501945080840160005b838110156160ab5781518752958201959082019060010161608f565b509495945050505050565b6040815260006160c9604083018561607b565b8281036020840152613d84818561607b565b634e487b7160e01b600052602160045260246000fd5b6001600160a01b038c811682528b166020820152604081018a9052606081018990526080810188905260a0810187905260c0810186905260e081018590526101008101849052610120810183905261016081016003831061616257634e487b7160e01b600052602160045260246000fd5b826101408301529c9b505050505050505050505050565b60008060008060008060008060006101208a8c03121561619857600080fd5b6161a18a615b3d565b98506161af60208b01615b3d565b975060408a013567ffffffffffffffff808211156161cc57600080fd5b6161d88d838e01615bf0565b985060608c01359150808211156161ee57600080fd5b506161fb8c828d01615bf0565b96505060808a0135945060a08a0135935061621860c08b01615b3d565b925060e08a013591506101008a013590509295985092959850929598565b60005b83811015616251578181015183820152602001616239565b838111156119eb5750506000910152565b6000815180845261627a816020860160208601616236565b601f01601f19169290920160200192915050565b60208152600061124c6020830184616262565b634e487b7160e01b600052603260045260246000fd5b634e487b7160e01b600052601160045260246000fd5b600082198211156162e0576162e06162b7565b500190565b6000828210156162f7576162f76162b7565b500390565b6000816000190483118215151615616316576163166162b7565b500290565b60008261633857634e487b7160e01b600052601260045260246000fd5b500490565b60006020828403121561634f57600080fd5b8151801515811461124c57600080fd5b60208082526012908201527110d3d395149050d517d254d7d4105554d15160721b604082015260600190565b600060001982141561639f5761639f6162b7565b5060010190565b6020808252602c908201527f46756e6374696f6e206d7573742062652063616c6c6564207468726f7567682060408201526b19195b1959d85d1958d85b1b60a21b606082015260800190565b6020808252602c908201527f46756e6374696f6e206d7573742062652063616c6c6564207468726f7567682060408201526b6163746976652070726f787960a01b606082015260800190565b6001600160a01b039384168152919092166020820152604081019190915260600190565b60006020828403121561647457600080fd5b5051919050565b6000825161648d818460208701616236565b9190910192915050565b7f416363657373436f6e74726f6c3a206163636f756e74200000000000000000008152600083516164cf816017850160208801616236565b7001034b99036b4b9b9b4b733903937b6329607d1b6017918401918201528351616500816028840160208801616236565b01602801949350505050565b60008161651b5761651b6162b7565b506000190190565b6020808252602b908201527f496e697469616c697a61626c653a20636f6e7472616374206973206e6f74206960408201526a6e697469616c697a696e6760a81b60608201526080019056fe930802d0eadfb856cb83e01d1c4daa3c89e9c6d9f74cfbe13124decf2b33128a416464726573733a206c6f772d6c6576656c2064656c65676174652063616c6c206661696c6564f7db13299c8a9e501861f04c20f69a2444829a36a363cfad4b58864709c755603a2f235c9daaf33349d300aadff2f15078a89df81bcfdd45ba11c8f816bddc6fa2646970667358221220cffb98d758fca3a4d186ade89f3d94e99459efd44617d772e11203bd57a9b8c564736f6c634300080a0033",
    "linkReferences": {}
  },
  "methodIdentifiers": {
    "AIRDROP_ROLE()": "1e0fbfa2",
    "CLAIM_ROLE()": "86c1b4eb",
    "DEFAULT_ADMIN_ROLE()": "a217fddf",
    "FOUR_YEARS()": "fe904b7a",
    "ONE_MONTH()": "20988cef",
    "PAUSE_ROLE()": "389ed267",
    "STREAM_MANAGER_ROLE()": "3ea005c8",
    "adminDelegatecall(address,bytes)": "b8e9744c",
    "adminPause(uint256)": "2692c59f",
    "adminSstore(uint256,uint256)": "be831a2e",
    "adminSstoreWithMask(uint256,uint256,uint256)": "6c4624c3",
    "auroraToken()": "5578fdb2",
    "batchClaimOnBehalfOfAnotherUser(address,uint256[])": "6458edd3",
    "batchClaimOnBehalfOfOtherUsers(address[],uint256[])": "26cdddb9",
    "batchMoveRewardsToPending(uint256[])": "687dd46c",
    "batchWithdraw(uint256[])": "72e55399",
    "before(uint256,uint256)": "6826747c",
    "calculateWeightedShares(uint256,uint256)": "b77b183e",
    "callBeforeTwice()": "15cf64fd",
    "cancelStreamProposal(uint256)": "90403322",
    "claimAllOnBehalfOfAnotherUser(address)": "d5050aed",
    "claimAllOnBehalfOfOtherUsers(address[])": "27571969",
    "claimOnBehalfOfAnotherUser(address,uint256)": "3e9a44cb",
    "createStream(uint256,uint256)": "8d40bd03",
    "dummy()": "32e43a11",
    "getAmountOfShares(uint256,address)": "0efd8310",
    "getLatestRewardPerShare(uint256)": "12dd67fe",
    "getPending(uint256,address)": "7f37df3b",
    "getReleaseTime(uint256,address)": "c8927723",
    "getRewardPerShare(uint256)": "993b21c1",
    "getRewardPerShareForUser(uint256,address)": "1dd00452",
    "getRewardsAmount(uint256,uint256)": "36630cc7",
    "getRoleAdmin(bytes32)": "248a9ca3",
    "getStream(uint256)": "894e9a0d",
    "getStreamClaimableAmount(uint256,address)": "1c61e617",
    "getStreamOwnerClaimableAmount(uint256)": "396a6c14",
    "getStreamSchedule(uint256)": "70bc770c",
    "getStreamsCount()": "e335e79a",
    "getTotalAmountOfStakedAurora()": "cd5ba590",
    "getTreasuryBalance(address)": "57baeac8",
    "getUserShares(address)": "ba0cb22b",
    "getUserTotalDeposit(address)": "a4c828dc",
    "grantRole(bytes32,address)": "2f2ff15d",
    "hasRole(bytes32,address)": "91d14854",
    "initialize(address,address,uint256[],uint256[],uint256,uint256,address,uint256,uint256)": "a81c6a15",
    "maxWeight()": "a8b0bb83",
    "minWeight()": "0c2ee55e",
    "moveAllRewardsToPending()": "8bc34e77",
    "moveRewardsToPending(uint256)": "ee13ad8e",
    "paused()": "5c975abb",
    "proposeStream(address,address,uint256,uint256,uint256,uint256[],uint256[],uint256)": "1194ebeb",
    "releaseAuroraRewardsToStreamOwner(uint256)": "9c52a920",
    "removeStream(uint256,address)": "3ba31abf",
    "renounceRole(bytes32,address)": "36568abe",
    "revokeRole(bytes32,address)": "d547741f",
    "rewardsSchedule(uint256,uint256,uint256)": "03687788",
    "stake(uint256)": "a694fc3a",
    "stakeOnBehalfOfAnotherUser(address,uint256)": "2ca783f3",
    "stakeOnBehalfOfOtherUsers(address[],uint256[],uint256)": "53a4cca0",
    "startEndScheduleIndex(uint256,uint256,uint256)": "4981912e",
    "supportsInterface(bytes4)": "01ffc9a7",
    "tempMoveRewardsToPending(address,uint256)": "45defb32",
    "totalAmountOfStakedAurora()": "3895a275",
    "totalAuroraShares()": "bb07ec1b",
    "totalStreamShares()": "6db8e53d",
    "touchedAt()": "1fd8c5f4",
    "treasury()": "61d027b3",
    "unstake(uint256)": "2e17de78",
    "unstakeAll()": "35322f37",
    "unstakeAllOnBehalfOfOthers(address[])": "2d0b615c",
    "updateTreasury(address)": "7f51bb1f",
    "updateUserCalculation()": "0a44b773",
    "upgradeTo(address)": "3659cfe6",
    "upgradeToAndCall(address,bytes)": "4f1ef286",
    "users(address)": "a87430ba",
    "withdraw(uint256)": "2e1a7d4d",
    "withdrawAll()": "853828b6"
  },
  "id": 10
}